:1000000000800020BD010000C5D700007DD70000A2
:100010007DD700007DD700007DD700007DD7000090
:100020007DD700007DD700007DD70000C5D7000038
:10003000C5D700007DD7000045CE000049CF0000A5
:10004000C5D70000C5D70000C5D70000C5D7000040
:10005000C5D70000C5D70000C5D70000C5D7000030
:10006000C5D70000C5D70000C5D70000C5D7000020
:10007000C5D70000C5D70000C5D70000C5D7000010
:10008000C5D70000C5D70000C5D70000C5D7000000
:10009000C5D70000C5D70000C5D70000C5D70000F0
:1000A00081B300008DB30000C5D70000C5D70000A4
:1000B000C5D70000C5D70000C5D70000C5D70000D0
:1000C000C5D70000C5D70000C5D70000C5D70000C0
:1000D000C5D70000C5D70000C5D70000C5D70000B0
:1000E000C5D70000C5D70000C5D70000C5D70000A0
:1000F000C5D70000E1FB0000C5D70000B1E2000059
:10010000C5D700004DE50000C5D70000C5D70000E9
:10011000C5D70000C5D70000C5D70000C5D700006F
:10012000C5D70000C5D70000C5D70000C5D700005F
:10013000C5D70000C5D70000C5D70000C5D700004F
:10014000C5D70000C5D70000C5D70000C5D700003F
:1001500035D0000049D000005DD0000071D0000013
:10016000C5D7000069E80000C5D70000C5D700006A
:10017000C5D70000C5D70000C5D70000C5D700000F
:10018000C5D70000C5D70000C5D70000C5D70000FF
:10019000C5D70000C5D70000C5D70000C5D70000EF
:1001A000C5D70000C5D70000C5D70000C5D70000DF
:1001B000C5D70000C5D70000C5D70000564B4CF28C
:1001C000205210B51A804DF628121A8000BF00BFC9
:1001D0000DF0FCFA514B4FF010621A60504A9A60D1
:1001E000504ADA60504A136813F4807304D14F49BF
:1001F0000B604FF4A85313604D4B1A78110703D5C9
:100200001A7842F008021A704A4B4B492A221A7097
:100210004A4A4B4B8B4204D252F8040F43F8040B6A
:10022000F8E7484B484900228B4202D243F8042B9E
:10023000FAE74649464A002352F8230041F82300D2
:1002400001336F2BF8D1434B434A802103F8011B44
:100250009342FBD1414B3D4A1A60414B8A221A70AE
:10026000A3F5805324225A70A0221A709A7992071B
:10027000FCD59A79D406FCD43A4A937903F00C035E
:10028000082B384BF9D103221A7140225A719A79FE
:100290009006FCD5334A9179324B4906FBD5324A58
:1002A000324911600221516020221A709A7902F0BD
:1002B0000C020C2AFAD12E4B2E4A1A602E4B2F4AD2
:1002C0001A6000225A60072243F8042C2C4AC3F813
:1002D0000C2D62B60DF02AFE144B1B68DA0705D50B
:1002E00028480DF0F7FB284B284A1A60284B1B784A
:1002F0005B0609D5244C254B22689A4204D121483B
:100300000DF0E8FB0023236010F022FF0DF064FAEB
:100310000DF092F9FEE700BF0E200540308004404A
:10032000823F04000100002B10D0034014D0034092
:1003300002D0074000E00740549CFF1F244D0100FD
:100340004088FF1F549CFF1F7CA4FF1F0082FF1FDB
:100350000000000000E400E05FE400E008ED00E0E1
:100360000050064000400640448004400000030165
:1003700004800440C010050014E000E0FF76010096
:1003800000002020DADD50601CE00340A5C3945A31
:1003900000F00740FFFFFFFFFFFFFFFFFFFFFFFF32
:1003A000FFFFFFFFFFFFFFFFFFFFFFFFFFFFFFFF5D
:1003B000FFFFFFFFFFFFFFFFFFFFFFFFFFFFFFFF4D
:1003C000FFFFFFFFFFFFFFFFFFFFFFFFFFFFFFFF3D
:1003D000FFFFFFFFFFFFFFFFFFFFFFFFFFFFFFFF2D
:1003E000FFFFFFFFFFFFFFFFFFFFFFFFFFFFFFFF1D
:1003F000FFFFFFFFFFFFFFFFFFFFFFFFFFFFFFFF0D
:10040000FFFFFFFFFFFFFFFFFFFFFFFFDEF9FFFF23
:1004100010B5054C237833B9044B13B10448AFF33E
:1004200000800123237010BD549CFF1F00000000BA
:10043000284D0100084B10B51BB108490848AFF31F
:1004400000800848036803B910BD074B002BFBD0A0
:10045000BDE81040184700BF00000000589CFF1F77
:10046000284D0100549CFF1F0000000038B50446D1
:10047000104621700A491D4610F04CFC01464FF011
:100480007E5010F0FBFC074910F044FCE560606012
:10049000256165610DF0DAFCE061204638BD00BFE2
:1004A000DB0FC9400024744938B50446104621705A
:1004B00009491D4610F02EFC01464FF07E5010F009
:1004C000DDFC064910F026FCE56060602561656191
:1004D0000DF0BCFCE06138BDDB0FC940002474495D
:1004E00038B503780446032B20D8DFE803F01A1848
:1004F0001002C168406910F003FB0D4905466068B1
:1005000010F0BCFC0146284610F0B8FC38BD084984
:10051000406810F0B3FCE16810F0FCFB38BDC06827
:1005200038BDC168406910F0EBFA38BD002038BD15
:100530000024744970B504460E460DF087FC05464C
:10054000E069281A10F092FBE3682361E5616661B7
:10055000A0610146606810F091FC0146A06010485F
:1005600010F08CFC0FF062FF0FF002FC10F074FA38
:10057000054601464FF07E5010F0C2FA616910F056
:10058000C9FB21690646284610F0C4FB01463046E7
:1005900010F0B8FAE0602046BDE87040FFF7A0BF59
:1005A000000080BF08B50E200CF020FF114B1B8807
:1005B000012B19D0104B1B88984213DB40F6FF71BA
:1005C0008842D4BFC3EB0001C3EB0101C1EB013191
:1005D000C3F57F630F33282091FBF3F1BDE808409A
:1005E0000DF08ABA0021F3E70146BDE80840142067
:1005F0000DF082BAB09EFF1F449DFF1F10B5044648
:100600000CF0F6FC204610BD70B44C88A04220D9F6
:1006100001230133DBB21CB2660031F8144084427E
:100620001D46F6D3A04211D005F10045013D965B71
:1006300031F8151032F81530401AF21A00FB02F0AA
:10064000641A90FBF4F4E01870BC7047905B70BCC7
:10065000704702260125E5E700280CDA064A4342E6
:1006600082FB0320DA17C2EB600000EB4000A3EB33
:100670008000C0F10C007047ABAAAA2A38B5234B02
:100680001B78002B2CD015200CF0B0FE204B1860EE
:10069000204B1B88984203DA1F4C237863BB38BD7C
:1006A0001E4A1488A042A4EB0302A8BF20467F2A5A
:1006B0001CDDC01AC001541C90FBF4F4002CEBD0DC
:1006C000154B1A780AB901221A70154D2B689C42F5
:1006D00004D0144BE1B2187808F0FCFE2C6038BD51
:1006E00011200DF09FFF0A4B1860D1E7C01AC0EB34
:1006F000C01090FBF2F4E1E70A4B0021187808F0F3
:10070000E9FE0023064A2370136038BDC29EFF1F16
:10071000809CFF1FFE9CFF1F389FFF1FDC9EFF1F5A
:10072000349FFF1FD49CFF1F38B50F200DF07AFFB8
:100730001B4A1C4B12881860C0F53B600830904281
:1007400020DB194B1B889842A3EB0204A8BF184674
:10075000801A7F2CC6BFC0010134C0EBC01090FBD3
:10076000F4F47CB1114B1A780AB901221A70104DB9
:100770002B689C4204D00F4BE1B2187808F0AAFE17
:100780002C6038BD094C237803B938BD094B0021D2
:10079000187808F09FFE0023054A2370136038BDC7
:1007A000489DFF1F989CFF1FC89EFF1FEC9EFF1FC8
:1007B000089DFF1FF69CFF1FF0B40E8886420DD2E5
:1007C00003F10043013B31F81350854202D9F0BCDC
:1007D000FFF71ABF32F81300F0BC70471088F0BC66
:1007E000704700BF094B1B880C2B09D8084A80B200
:1007F00052F8232028B143F6FE73984203D9108C97
:100800007047108870470349FFF7FEBEAE9CFF1F7C
:1008100040270100DC2801004B4B4C4A2DE9F047F2
:100820001E8814684A4BB442B3F80080494B33DB4E
:100830004445A8BF4446A6421C60C8BF00202DDD29
:10084000C6EB0807B7F5804F33DB80037B1C90FBBA
:10085000F3F0FFF7C7FF404A404B15881B88C0F3F1
:10086000C61909FB05F57F2D8246A8BF7F252BB34E
:10087000A64253DC4445D4BFC6EB0404C6EB0804CF
:100880009F42CCBF03FB04445C43354BC8BF0137D8
:1008900094FBF7F71F6013E034461E60C6EB0807B1
:1008A000A045D4BFC6EB0800C6EB0400B7F5804FE7
:1008B000CBDAC0EB803090FBF7F0CAE7284A136030
:1008C000284C2368994508D0274B1B88002B34D12E
:1008D000264B1B886BBBC4F80090254C23689A45B7
:1008E00006D0214B1B885A1F032A19D9C4F800A02F
:1008F000204C23689D420FD01F4B188848B11A4BDB
:100900001E4A1B88D35C834203D0C0B2E9B208F010
:10091000E1FD2560BDE8F087BDE8F0870024AFE782
:10092000164AD05C2030C0B20AF07F0108F0D2FD38
:10093000DCE7484608F06EFECDE7104A4946D05C39
:1009400008F0C8FDC4E700BF449DFF1FAC9EFF1F19
:100950000E9FFF1F789CFF1F889CFF1F8A9CFF1F14
:10096000149FFF1FF09CFF1F929EFF1F3A9DFF1FC9
:10097000A89CFF1F3C9DFF1FA29EFF1F9C89FF1F7D
:100980002DE9F04F17208BB00DF04CFEDFF870B35F
:10099000DFF870A3CBF8000016200DF043FEBA4B31
:1009A000CAF800001B880C2B00F05E82B74EB84AD4
:1009B0003188B84B52F8214000221A70B64BB74A22
:1009C0001B88B7491288013B012A31F9133005937E
:1009D00000F0AE81B34B0193B34B0293B34FDFF8FA
:1009E000288300230093B24B1B88012B00F0F48175
:1009F000DFF81893AF4B0393D9F80050AE4B049334
:100A00000023AE4A1288013A032A00F24982DFE845
:100A100012F0A500ED000400C9002846059310F06F
:100A200025F9A74910F076F9059B0546184610F000
:100A30001DF9A44910F06EF90146284610F062F83D
:100A400010F02EFB0546C9F80050386810F00EF97A
:100A50009B4910F05FF98146009810F007F9994919
:100A600010F058F90146484610F04CF810F018FB09
:100A70003860954A954B17881988954BDBF800200C
:100A80001B88DFF88CE2C7EB050C3D44039FC7F8D9
:100A900000C0471A084404990D6001990F6002993B
:100AA000BEF8007008609A4280F2E7800025C3EB30
:100AB000070E7445DAF8000080F2D380611C98427A
:100AC00005FB01F50EF1010E95FBFEF5C0F25F830B
:100AD0008742A8BF0746FF1A01FB07F494FBFEF408
:100AE0009A4200F3A780984200F3A480794C2068D2
:100AF00010F0BCF8784910F00DF9784910F002F8C0
:100B000010F0CEFAA0F5FF531C3B082B98BF4FF412
:100B10000050D8F80030184400282060C0F29F80B0
:100B2000B0F5804F80F2F6806D4B1B781BB1B0F5AD
:100B3000005F40F0F7806B4D2B78002B40F0AB81CD
:100B4000694D20682B68634C984204D080B208F04D
:100B500091FC23682B600BB0BDE8F08F284605930D
:100B600010F084F8614910F0D5F8059B0546184649
:100B700010F07CF85E4910F0CDF8014628460FF0E1
:100B8000C1FF10F08DFA0546C9F80050386810F022
:100B90006DF8564910F0BEF88146009810F066F8DE
:100BA00053495DE72846059310F060F84A4910F074
:100BB000B1F8059B0546184610F058F84D4910F05D
:100BC000A9F8014628460FF09DFF10F069FA054686
:100BD000C9F80050386810F049F83F4910F09AF809
:100BE0008146009810F042F8424939E728460593BB
:100BF00010F03CF8404910F08DF8059B054618466A
:100C000010F034F83D4910F085F8014628460FF001
:100C100079FF10F045FA0546C9F80050386810F021
:100C200025F8354910F076F88146009810F01EF846
:100C3000324915E73388002B3FF458AF2B1B002BAC
:100C4000B8BF5B42092B00F32D81D8F80030214C4E
:100C50004FF40050184400282060BFF661AF002216
:100C60005AE0984205FB04F5B8BF002195FBFEF55C
:100C700080F2848291FBFEF432E7BA42D4BFC3EB28
:100C80000205C3EB070512E7DE9EFF1FE49CFF1F72
:100C90005889FF1F7E9CFF1F2089FF1FB29EFF1FE8
:100CA0006C2B0100D89CFF1F189DFF1F709CFF1F1D
:100CB000409EFF1FD09EFF1F449EFF1F2E89FF1FD7
:100CC000CDCC4C3FCDCC4C3EA889FF1F2C89FF1FBB
:100CD000A89EFF1F9089FF1F9A99193FCDCC4C45C4
:100CE000EA9FFF1F399DFF1F2489FF1F3333733F86
:100CF000CDCC4C3DCDCCCC3E6666663FCDCCCC3D1C
:100D0000E09CFF1FA49CFF1FE89EFF1FCC9EFF1FBF
:100D1000C09CFF1F43F6FF72C04B22601B78002B64
:100D20003FF409AF05F076FCBD4B01221A7007E7CE
:100D3000BC4BBD4A1B88BD491278013B31F91350A9
:100D4000002A40F0C78011200DF06CFC0090B84BD9
:100D50000193D3F80080009B984540F3C080B54BC9
:100D6000B54F1B88B54A012B3B68B2F80090B44AD6
:100D700002922046A3EB050500F0E2800FF076FF1B
:100D8000029A52F829100FF0C5FF014600200FF01B
:100D9000B7FE10F085F9009BC8EB05029D42B8BF75
:100DA0001D469042C8EB050580F2DE8000FB05552C
:100DB000013295FBF2F5A34BDFF8B4820293D8F829
:100DC00000302B4403EBD3735B10C8F800309E4B0C
:100DD0001B88012B7FF40CAE9C4B03931D460F2008
:100DE0000DF020FC2A6804929042034680F2CC80E9
:100DF000904A1288012A00F03F81904A0790128899
:100E00008F4D069220460FF031FF069ADFF864926C
:100E100055F82210D9F800500FF07CFF0146002051
:100E20000FF06EFE059BEA1A059210F039F9059A4B
:100E3000079B04999A42C1EB020EB8BF1A4670454F
:100E400080F24481521A00FB02220EF1010192FB52
:100E5000F1F2D8F800107E4804900A4402EBD272F6
:100E60005210C8F80020CCE57A4B1B78002B3FF4D9
:100E70009DAD794E794A3188794B52F82100012293
:100E80001A700FF0F3FE4FF07C510FF043FF10F09B
:100E900007F9044692E505F0B9FB00232B704FE6F5
:100EA0003868E6E505F500500130001B0FF0DEFE66
:100EB0006C496D4C0FF02EFF054620680FF0D6FEF2
:100EC0006A490FF027FF014628460FF01BFE10F07D
:100ED000E7F81EE615200CF089FA009037E7594B29
:100EE0000293D3F80080009B984542DA514B524F51
:100EF0001B88524A012B3B68B2F80090504A03927B
:100F000020461D4400F0E9800FF0B0FE039A52F82D
:100F100029100FF0FFFE10F0C3F8009B9D42C8EBB4
:100F20000502A8BF1D46C8EB05059042BABF00FBED
:100F300005550132454395FBF2F5DFF834813EE774
:100F40000FF094FE029A52F829100FF0E3FE10F011
:100F5000A7F8009BC8EB05029D42B8BF1D46824220
:100F6000C8EB05053FF722AF00FB05F595FBF2F551
:100F700021E7DFF8FC80304FD8F8003003EBD37363
:100F80005B10C8F800302EE5314A049212680692D0
:100F9000904237DD274A1288012A00F0BC80274A98
:100FA00009901188264A0891204607920FF05EFEAC
:100FB000079A0899DFF8BC9052F82110D9F8005030
:100FC0000FF0A8FE059B2B44059310F069F80599D6
:100FD000099B069A9942C2EB010EA8BF19467045BB
:100FE00080F2BE80891A00FB01110EF1010291FB13
:100FF000F2F2D8F800100A4402EBD2725210C8F88C
:101000000020FEE4D8F80020DFF8689002EBD272EE
:101010005210D9F80050C8F80020F2E4EA9FFF1FF0
:10102000399DFF1FAC89FF1FC29EFF1F942801003E
:10103000D89CFF1F1E9DFF1F709CFF1FC89CFF1F99
:10104000842B0100189DFF1F409EFF1FD09EFF1F95
:10105000449EFF1F909EFF1FE49CFF1F5889FF1FA7
:101060007E9CFF1FCDCCCC3E9089FF1F9A99193FE3
:10107000E89EFF1FCC9EFF1F464A08901188464AF3
:101080000791204606920FF0F1FD069A0799DFF8C6
:101090000C9152F82110D9F800500FF03BFE059B3F
:1010A000E91A05910FF0FCFF0599089B049A9942F3
:1010B000C2EB010EB8BF1946704558DA891A00FB19
:1010C00001110EF1010291FBF2F2C2E60499521AEB
:1010D00000FB02F292FBFEF2BBE60FF0C7FD039AA3
:1010E00052F829100FF016FE014600200FF008FDFF
:1010F0000FF0D6FF009A9542C8EB0503A8BF15462E
:10110000C8EB05059842BABF00FB055501334543BE
:1011100095FBF3F511E71F491F4A089020460D88FB
:1011200007920FF0A3FD079ADFF8709052F8251090
:10113000D9F800500FF0EEFD014600200FF0E0FC62
:10114000059B2B4405930FF0ABFF0599089B069A6E
:101150009942C2EB010EA8BF19467045FFF642AF97
:10116000069A891A00FB01F191FBFEF241E7049A0D
:10117000891A00FB01F191FBFEF26AE6B842D4BF86
:10118000C3EB0001C3EB070104FB01F172E51F464D
:10119000A1E400BFC89CFF1F842B0100CC9EFF1F51
:1011A00008B5244B1B88FBB1234B1B78FBB1234BA9
:1011B0001B78E3B1224B1B78CBB1224B1B78B3B128
:1011C000214B22481A78C2B9214A22490088128844
:1011D00009680244B1EB620F09DD01221A70642034
:1011E000BDE8084005F02ABA174A117801B908BDD0
:1011F0001370BDE8084008F0E1B9154A16490088A7
:10120000128809680244B1EB620FF0DD00221A7007
:1012100008F0D4F9642005F011FA642005F00EFA04
:10122000642005F00BFA4FF41670BDE808400CF08E
:101230002FBE00BF509EFF1F3C9FFF1F089FFF1F38
:10124000099FFF1F0A9FFF1FAC9CFF1FC09CFF1F31
:10125000A89EFF1FE09CFF1FA49CFF1F38B5114CE8
:10126000232025780CF0C2F80F4A42F82500131FFE
:1012700002F1C400002253F8041F83420A44FAD149
:1012800023780A4907480A4C0133DBB2322B81FB31
:10129000025108BF0023D217C2EB21120370226053
:1012A00038BD00BF8C9CFF1F549DFF1F1F85EB5155
:1012B000A49EFF1F2DE9F04FB84CB94D2068B94FDF
:1012C00083B00FF0D3FCB8490FF024FD0646102080
:1012D0000DF0A8F90FF0CAFCB4490FF01BFD314620
:1012E0000FF010FC0FF0DCFE2988206088423B885C
:1012F00043DA9E465B1A7F2B4FF0000247DDD20196
:101300005E1C92FBF6F2AA4EDFF8C882B6F800C067
:10131000C8F80020BCF1190F00F0DF80BCF11A0FF3
:1013200000F01881BCF11E0F00F021810126B146AA
:10133000A04A1288002A00F09D808842C0F20881ED
:101340007045D4BFC1EB0000C1EB0E009A42BABF9A
:1013500002FB00000133504390FBF3F3964A136005
:10136000964B1888C0B9964A1288AAB9954B197835
:1013700001B11A7003B0BDE8F08F9842D4BFC1EB41
:101380000002C1EB03029E465B1A7F2BB7DCC2EB67
:10139000C21292FBF3F2B6E72988D4F800E0DFF836
:1013A0000082DFF8F8A171456CDCDFF818C29CF808
:1013B0000020002A2ED14FF0010B04288CF800B039
:1013C00028D1002E40F095817D4B18880028D1D07F
:1013D000B9F1000FCED023682C883A88A34280F25E
:1013E00066810023141B7E2C774DD5BFC3EB83137E
:1013F000C3EBC3135B00013493FBF4F42B6801349B
:10140000A34203D0C0B2E1B208F064F82C6003B08C
:10141000BDE8F08F012800F0F780022800F0EC8092
:101420000328D1D1694B1B88092BCDD0002ECBD0FE
:1014300023682E883A88B34280F27C810023961B71
:101440007E2EDFF88CA1D5BFC3EB8313C3EBC31390
:101450005B00013693FBF6F6DAF800300136B34252
:1014600003D0F1B24A2008F035F8CAF80060ABE7C3
:1014700091460126BCF11E0F7FF472AF0022DFF807
:1014800058817FE04F4B1A78002A3FF473AF002455
:1014900001281C7000F0A480022840F00F81002E6B
:1014A00000F0A3804A4D2B68002B00F09E800420A2
:1014B000214608F00FF8424B2C60188800283FF4B2
:1014C00059AFB9F1000F3FF455AFC0B2002108F099
:1014D00001F83D4B00221A604CE7DFF8FC8098F8D9
:1014E0000020C2B1DFF8D890B9F800A0BAF1000F1F
:1014F00011D0DFF8E89099F800B0934578D05FFA02
:101500008AF07F2107F0E6FF98F80030B6F800C0B7
:1015100089F8003010E0DFF8C49099F800A09245F7
:1015200066D0274B0021187807F0D4FF98F80030D8
:10153000B6F800C089F800301E4B1A88002A97D0F0
:10154000BCF11E0F40F0078101264FF0000919E0A1
:101550000020FBE6DFF8808098F80020002A0BBF0F
:10156000012600264FF000094FF00109E0E6DFF800
:101570006880104B98F800601A88B6FA86F67609EB
:101580004FF0000998F80030002B3FF4E7AE2988AF
:10159000B7F800E02068C1EB0E03CEE6D09CFF1F39
:1015A000569EFF1F529EFF1F9A99193FCDCCCC3EED
:1015B000DE9EFF1F189FFF1F4C9DFF1FDE9CFF1F1D
:1015C000F09EFF1FE59EFF1FB49CFF1F929EFF1F12
:1015D000509DFF1FC49EFF1F909EFF1F929CFF1FE8
:1015E0001EB1624D2B68002B7CD1614B188865E7DA
:1015F00001264FF000099BE6002E3FF4E5AEDFF830
:101600006CA1DAF800202EE0002E3FF4DDAEB7F832
:101610000080F045D4BFC1EB0802C1EB0E02C1EB64
:101620000808B8F17E0FDFF844A1D5BFC2EB8212E3
:10163000C2EBC212520008F1010892FBF8F8DAF886
:10164000002008F10108424506D05FFA88F1012028
:10165000009307F03FFF009B1888CAF8008002281B
:101660007FF4DEAE42462168B5F8008038884145F7
:1016700059DA0021C8EB0008B8F17E0FD3BFC1EBE7
:101680008111C1EBC11108F10108490091FBF8F883
:1016900008F10108904506D05FFA88F10420009314
:1016A00007F018FF009B1888CAF80080B8E693423C
:1016B000D4BFC4EB0303C4EB020393E6032827D192
:1016C0002C4B1B88092B90D0002E8ED0274D2B68D9
:1016D000002B8AD04A20214607F0FCFE244B2C60C8
:1016E0001888EBE6214607F0F5FE214B2C601888A0
:1016F000E4E640207F218DE80C0007F0EBFE019B23
:10170000009A188858451CD002287FF489AE76E7E5
:1017100004287FF46AAF002E3FF467AF21464020D3
:1017200007F0D8FE61E78142D4BFC8EB0101C8EBE6
:1017300000019FE79342D4BFC6EB0303C6EB02034D
:101740007DE6B8F80010DAF800E0B7F800808E45C2
:10175000FFF665AF5DE72988B7F800E02068C1EBC8
:101760000E0301264FF00009E7E500BF509DFF1F63
:10177000F09EFF1F929EFF1F08B5114B1B88022B86
:1017800009D0052B07D0032B15D0042B0BD00D4B04
:1017900001221A7008BD7F21412007F09BFE094BF2
:1017A00001221A7008BD7F21092007F093FE054B26
:1017B00001221A7008BD4021092007F08BFEE6E7E0
:1017C0004A9DFF1F009DFF1F38B5074B074D1B8823
:1017D000052B044606D02B68834203D0C1B20520F6
:1017E00007F078FE2C6038BD4A9DFF1FF49EFF1F56
:1017F00038B5124D124C2B88052B12D022684AB9ED
:10180000022B0ED0033B012B13D90E4A0023137079
:10181000236038BD0021052007F05CFE2B88022BD9
:1018200004D10021412007F055FEEEE7052BE9D158
:10183000F7E70021092007F04DFEE6E74A9DFF1F6C
:10184000F49EFF1F009DFF1F464B1B881D2B70B58C
:1018500041D0454D0024454B1B88022B16D0444BEC
:101860001B88022B54D02888424B002C1B780ADBA3
:101870008442A8BF044634B1002B3AD02046BDE8CC
:101880007040FFF7A1BF002B2FD170BD3A4B1B78E2
:10189000002B37D015200BF0A9FD384B1860384AC3
:1018A0001288002ADBD0374A186811888142D6DCBA
:1018B000354B2A881B888342A3EB0106A8BF034649
:1018C0005B1AB242BABF02FB03330136534393FBA8
:1018D000F6F31C44C3E72A4B1C888CB12B4B224DDA
:1018E0001C78002CB7D02C88B5E7BDE87040FFF716
:1018F0007FBFFFF741FF2046BDE87040FFF764BFA0
:10190000194DA8E711200CF08DFE1C4B1860C6E79E
:101910000F200CF087FE1A4B1D4A1B881060002B0D
:10192000A1D01C4AC0F53B63118808338B429ADB77
:10193000194A288812889342A2EB0105A8BF1346D2
:10194000A842A3EB010306DA00FB0333013593FB46
:10195000F5F31C4488E700FB03F292FBF5F31C440B
:1019600082E700BFDE9EFF1FE29EFF1FB29EFF1FA9
:10197000409EFF1F009DFF1FC29EFF1F809CFF1FF8
:101980004A9DFF1FFE9CFF1FDC9EFF1F909EFF1FB6
:10199000989CFF1F489DFF1FC89EFF1F38B5102051
:1019A0000CF040FEC830B0F5FA7FC0F2EE80B0F522
:1019B0007A6F0146A8BF4FF47A6101F51673B3F54B
:1019C0007A6FA8BF4FF47A639BB289B28E4A8F4C6C
:1019D00011802220238007F0D7FE21888C4D8D4C6A
:1019E000242007F0D1FE0E200BF000FD40F6FF7121
:1019F000C8308842A8BF084620EAE07000F2DC52F6
:101A000083B28A42A8BF0A460220194622802B8050
:101A100007F0BAFE2188042007F0B6FE17200CF06C
:101A200001FE044616200CF0FDFDA042B8BF204682
:101A300000F1C801B1F5FA7FC0F2A280B1F57A6F6A
:101A4000A8BF4FF47A6101F54873B3F57A6FA8BF68
:101A50004FF47A639BB289B26F4A704C11800A20AE
:101A6000238007F091FE21880C2007F08DFE0F20C7
:101A70000CF0D8FDC0F53F610431B1F5AF6F7CDBF0
:101A8000B1F5FA6FA8BF4FF4FA6189B2644BC0F5A3
:101A90004360B0F5AF6F19806CDBB0F5FA6FA8BF8B
:101AA0004FF4FA6083B25F4CA420238007F06CFEF1
:101AB000A620218807F068FE0B200CF0B3F900285F
:101AC00068D011200CF0AEFD00F1C801B1F52F7FF8
:101AD0006EDA40F214534FF42F71534A1180534C75
:101AE0000620238007F050FE2188082007F04CFED6
:101AF00000244FF4AF75E1B24D4809F0B5FC013454
:101B00008542A8BF05460C2CF5D101200CF08AFDBA
:101B1000044600200CF086FD323CA0F1320345491A
:101B20006FF4957000FB03F300FB04F081FB0342AC
:101B300081FB0041DB17C017C3EB6223C0EB6120C0
:101B400003F5AF7200F5AF739342A8BF13469D42F1
:101B5000A8BF1D46A5F11401312938DC40F26C7391
:101B600032213548354A018013602A20BDE83840CB
:101B700007F00ABE4FF4AF6395E74FF4AF6185E716
:101B800040F214534FF4FA7166E740F24C434FF4BD
:101B9000FA711BE715200BF029FC00F59671B1F5E1
:101BA0002F7F96DB41F25C2399421FDD194694E7B3
:101BB00041F25C239942F9DC1B4A00F5487089B276
:101BC000B0F52F7F118019DA4FF42F7387E740F2B9
:101BD0003A72A5F5B9751A4B02FB05F583FB05238F
:101BE000ED17A5EB631389B23233BAE70E4A00F55D
:101BF000617089B2B0F52F7F1180E5DB8342A8BF09
:101C000003469BB26BE700BF569EFF1F529EFF1F0D
:101C1000449DFF1F0E9FFF1FA89EFF1FC09CFF1F1C
:101C2000489DFF1FC89EFF1FFE9CFF1FDC9EFF1FDD
:101C3000389DFF1F67BBCF46069FFF1F9889FF1F78
:101C4000B5814E1B2DE9F84F0C200BF09BFB0C20AF
:101C50000CF050F8C149DFF88CA314200CF05AF8AE
:101C6000BF49C04809F092F8022103200CF0E8F8BF
:101C7000022104200CF0E4F8022105200CF0E0F829
:101C8000022106200CF0DCF801210A200CF0D8F823
:101C9000012109200CF0D4F801210D200CF0D0F81E
:101CA000012128200CF0CCF8012114200CF0C8F8F8
:101CB00002210B200CF0C4F801210C200CF0C0F81C
:101CC00000210C200CF0A8F8012121200CF0B8F81C
:101CD00002211C200CF0B4F801211B200CF0B0F8FC
:101CE00000211B200CF098F81C200CF09BF8B0FA97
:101CF00080F35B091A208AF800300CF037FA1F20B5
:101D000000210CF0F9F904200CF08CF8002800F008
:101D1000EA8005200CF086F8002800F017810023E7
:101D2000914C062023700CF07DF8B0FA80F35B092B
:101D30004FF0000B8D4A137006F0A4F82378002BA7
:101D400040F0CD80584607F049FD894B894A1B88F1
:101D500089491488894D8A4840F23A72A3F5AF73D5
:101D600002FB03F381FB0312DB17A3EB6213323395
:101D70002B60844B5A211C7009F0B2FB002800F044
:101D80003781814A81481268DFF85C920023012183
:101D9000FEF78AFB0B200CF045F8011E0CBF012357
:101DA000002389F8003000F0B780794F794D7A4EE2
:101DB000DFF8388200233B602B60336004240F205F
:101DC0000CF030FC336803440E2033600BF00EFB44
:101DD0003B6899F8002018443860002A78D0152014
:101DE0000BF004FB2B681844286004F0010080F01D
:101DF000010004F013FCB8F80030002B14BF4B2096
:101E0000DC200CF045F8013CD9D133683968604AD0
:101E10002868624F002BB8BF03330029B8BF0331D5
:101E2000891011605E495F4A098814889B10002858
:101E30003360B8BF03305C4E8210581A19442A60D0
:101E400031603860594D5A485A49161B22442E6059
:101E500002600B60BBF1000F62D1B8F80030002BBC
:101E60004DD0554B012404201C600BF0DBFF18B94A
:101E7000524B444A1C701070514B1B881C2B56D07F
:101E8000504C04F1C80523200BF0B0FA44F8040FBD
:101E900001200BF0FDFFAC42F5D19AF800301BB1E8
:101EA000494B1B78002B4CD1002121200BF0B4FFB3
:101EB000464A474B1078187007F098FA04F0A6FBD2
:101EC00045F6BF5243494448BDE8F84F0BF046B8C9
:101ED00011200CF0A7FB2B681844286085E7BDE8AB
:101EE000F84F08F063BE06200BF09CFF00287FF43B
:101EF00010AF1D4C034620704FF0010B1AE74FF452
:101F0000FA7004F09BFB04F085FB06F00FFB4FF426
:101F1000AF600BF0BDFFA4E711200BF091FF44E789
:101F2000FFF73CFDB8F80030002B9AD1E7E72B4BC8
:101F300018880028A4D02A4BC0B2197807F0CAFA32
:101F40009EE7012121200BF067FFB1E703200BF092
:101F500069FFB0FA80F35B09E2E600BF001B374679
:101F600040420F005C91FF1FB29CFF1F489EFF1F65
:101F7000069FFF1FE09EFF1FB5814E1B9889FF1F24
:101F8000389DFF1F149DFF1F2889FF1F709EFF1F94
:101F9000849CFF1F709CFF1FCC9EFF1FD09EFF1FC5
:101FA000A889FF1F2C89FF1F449EFF1FD89CFF1F7D
:101FB000189DFF1F209FFF1FD89EFF1F9C9CFF1F87
:101FC000DE9EFF1F509DFF1F589EFF1F5A9EFF1F42
:101FD0003E9EFF1FA5050000FC9EFF1F1C9DFF1FCE
:101FE000CC9CFF1F429EFF1FC29EFF1F9E9EFF1F95
:101FF00003200BF017FF0028FAD104200BF012FF8A
:102000000028F5D105200BF00DFF0028F0D10620A7
:102010000BF008FF0028EBD10CF024FC2DE9F04F69
:1020200089B005ADA14F2C4608AE611BC9B2A048CE
:1020300009F01AFA3B88834294BF0020012004F87B
:10204000010BA642F1D19B489B4A9DF814E09B49A5
:1020500080F800E09DF81600994D10709DF818204A
:102060009DF81C30974E984C0A709DF81A102970F4
:1020700000253370257073B9002940F00F81934F0C
:102080001AB13B78002B40F01F82002800F0F2814B
:102090000222227005E0002A40F0B08005228B4F1A
:1020A00022708B4BDFF888929DF815109DF819006F
:1020B000DFF880A2DFF880B2864DDFF88082864E9E
:1020C0003A709DF81EE019709DF81F209DF81D10B4
:1020D0009DF817C09DF81B7089F80000012000933F
:1020E0008BF800E088F8001032708AF800C02F707A
:1020F0000CF098FA79497A4AD1F800E0009B7045D3
:10210000CCBF0121002111707CDD764A1288182A8B
:1021100078D875490F880C3A002F78D1734993F815
:1021200000C00B7899F800909AF800109BF80070A6
:1021300095F800B02478A3EB4C03A9EB890A5B1A4D
:102140005344C7EB877AC7EB8A07DFF8A8A11F447F
:1021500098F80030BAF800A007EB4B0796F800B0EB
:102160003B440BFB0A33624F4FF00C0A1AFB043A54
:10217000C7F800A0B9F1000F0BD033784BB15D4B1D
:102180001B88042B0CBF0AF1020A0AF1040AC7F8E3
:1021900000A0594B594CDFF8A8B11B882488DBF804
:1021A00000B0574F574E3F883688033BC4EBC404FA
:1021B0005C4403EB4303DFF88CB10AEB83033B443D
:1021C000DBF800B0504FC6EBC60657F824404F4F1F
:1021D0005E440C3B134457F826601A193244BCF194
:1021E000000F27D02B782BB300295BD1B9FA89F9DE
:1021F000474B4FEA591983F8009023E006222270DA
:10220000324F4EE738490F880022002F86D0012F29
:1022100000F0CF80022F00F0FB80032F00F09480AD
:10222000334F9AF8001093F800C099F80090D7F84F
:1022300000A09FE7364B00241C7011B198F80030C5
:1022400023BB0021334B70451970C8BF324B334953
:10225000C8BFC3F800A00B689A4213D0304B314C72
:1022600018680390039820601B6804932E4C049B0D
:1022700024880A601B1AA34284BF2C4B1A6009B041
:10228000BDE8F08F2748264B0068EDE7BCF1000F52
:10229000D7D1B9F1000FD4D10121D3E704222270A4
:1022A0000A4FFEE61A4B00211970CAE7069FFF1F6E
:1022B000389DFF1F089FFF1F099FFF1F0A9FFF1FD9
:1022C0000B9FFF1F0C9FFF1F4A9EFF1F549EFF1F67
:1022D000399FFF1F3D9FFF1FE49EFF1F9889FF1F2F
:1022E000909EFF1FDE9EFF1F7C9CFF1FAA89FF1F81
:1022F000989EFF1FEC9CFF1FB69EFF1FD49EFF1FE2
:102300008E9CFF1F029DFF1F482901000024010031
:102310001A9FFF1F1B9FFF1F249FFF1FF89CFF1F7B
:1023200028A0FF1FE89CFF1FEE9EFF1F2C9FFF1F92
:102330003B9FFF1F3A9FFF1F3C9FFF1F3E9FFF1FBA
:102340004C9DFF1F149FFF1F664993F800C00B7838
:1023500099F800909AF800109BF8007094F800A08B
:102360002C78A3EB4C03A9EB890B5B1A5B444FF071
:10237000050B1BFB0733009398F800300193009B7B
:10238000DFF86CB1C7EBC707BA440533019FBBF850
:1023900000B003EB440334783B4404FB0B33524C52
:1023A000524F54F82A400C3303EB040AC7F800A03C
:1023B000E0E64C4993F800C00B7899F800909AF841
:1023C00000109BF8007095F800A02478A3EB4C0354
:1023D000A9EB890B5B1A5B44C7EB877BC7EB8B07C9
:1023E000DFF80CB13B4498F80070BBF800B003EB89
:1023F0004A0A3378BA44C4F1060403FB0BA3E4B2DF
:102400004FF00C0A394F1AFB043AC7F800A0B1E6A6
:10241000344993F800C00B7801932B780093019B0B
:102420009AF8001099F800909BF800A02478A3EB8C
:102430004C03A9EB890B5B1A5B44A3F1020B2C4BF9
:10244000CAEBCA0A54441B88DFF8C8A00193BDF840
:1024500000305AF824A098F8004017FB03BB3778E7
:10246000019B5C4407FB03431833204F9A44C7F891
:1024700000A07FE6BEF1000F29D13A78012A2FD9BA
:102480001C4B22701B882BB31B4B1B88013B9BB240
:10249000062B1FD8194B1B78E3B1194B1B68012B76
:1024A0007FF4FFAD1749184B0968184D83FB0130C5
:1024B000CB17C3EB600303EB4303A1EB83032B8038
:1024C000134B03211970ECE503222270E9E5012288
:1024D0002270E6E50A4B1B68012B7FF4E2ADEFE7C3
:1024E0007246DEE5AA89FF1FCC2C0100989EFF1FD3
:1024F000EC9CFF1FC09EFF1F5C9EFF1F469DFF1FA1
:10250000D89EFF1F2C9FFF1FABAAAA2A9C9EFF1FCD
:102510008C89FF1F342B01002DE9F04F3A4B1B78BB
:102520008BB0002B6BD10E200AF060FF0EF09EFBEB
:1025300001463648364E374DFDF7FCFF3348FDF770
:10254000CFFF0EF0ADFD80F30C003060FFF766FDAD
:102550002C68012C7AD0022C00F0CB82032C00F0E6
:10256000DF832D4E2D4C33682D4A2E4E0993099B47
:10257000316812882360591A013A9142274F00F2BC
:10258000B382294E32689A1A0D2A00F29C82274E95
:1025900032689A1A132A00F29182254E32689A1AEA
:1025A000252A1AD9234B1B88002B40F06481224B2B
:1025B0001B78002B40F05F81FEF750FE1F4B1B88FD
:1025C0001B3B9BB2022B04D81D4B1B78002B40F009
:1025D000558104F045F8236833601A4D2A689B1A28
:1025E000502B00F21982184B1B88012B00F031820E
:1025F00006F0F4FE06F0D8FD0BB0BDE8F08F08F051
:102600005DF90BB0BDE8F08FB29CFF1F709EFF1FFD
:10261000AC9EFF1FD89EFF1F28A0FF1F6C9EFF1FB0
:102620009489FF1F409DFF1F2C9DFF1F0C9DFF1FC6
:10263000109DFF1F509EFF1FAC9CFF1FDE9EFF1FC3
:10264000909EFF1F609EFF1FB09EFF1FDFF8389314
:10265000A44AB9F800001378834204D0C3B21846E4
:10266000137006F0ADFEDFF81C839F4AB8F8003007
:102670001178994204D09D4F3978002940F03E8767
:102680009B4A336812889B4E9A42C0F201819A4A53
:102690001278002A40F0FC80DFF8F0A2BAF800308F
:1026A00023B9964B1B88002B00F05C85944A954B10
:1026B00011881B88944A0B4412685B109342934A1A
:1026C000126880F2FE8400219342B4BF01230B46BE
:1026D00004910093ACBF4FF0010B8B4605910E2087
:1026E0000AF084FE8A4B8B4A1B68176803930133F8
:1026F000A7F25232002B8446029240F31087802BBF
:10270000A8BF8023844A854912780191002A00F0ED
:10271000C9800978914200F0C580B8F80010DFF850
:1027200064E2994201F0F8807049AEF800307C4BC9
:102730004FF0010E81F800E01978DFF854E2019BB8
:102740008EF800101A70009B002B00F02381BAF85D
:102750000030002B00F01E81724B1B685A1C002AAF
:1027600040F3E886802A00F3E4866F4C6F49704896
:102770002488098800682144B0EB610FC1F25D83B1
:10278000A3F148020F2A02D8473BA9F800300E20D7
:102790000AF02CFE6FF454731F44874202DC654B31
:1027A00000221A7000200BF03DFF634A634B116852
:1027B000634C1B888842D4BF002201222270002B68
:1027C00000F075845F4B1C78944243D0884241DD11
:1027D0005D490C78002C00F09A875C4991F800C0A4
:1027E000BCF1000F40F09187594F0097594F5A485C
:1027F0000297574F007887F800C0564F4FF0010EF0
:1028000087F800C081F800E0002841F0F5805349C6
:102810000978002901F02980514903910C46097873
:10282000002941F01F804F484A4F0078397001213C
:102830000297217070B14648444900904A480327E6
:102840000770002008700099029F08700399012406
:102850003C7008701A70454B1B88A3F11B02012ABB
:1028600040F23A861D2B7FF47DAE3E4A404B1278F3
:102870001A70404C77E6FEF793FC9DE63E4B1B78C2
:10288000002B3FF4A6AE2B68012B7FF4A2AEA2E68C
:1028900031683A4A069106983949106002220B6065
:1028A0002A60F9E61E49DFF8E8E0097800293FF4DC
:1028B00046AF9EF8000081423FF441AF03984B2899
:1028C00040F3F1871833802BB8F80000A8BF8023AD
:1028D00098423FF434AF2B4803800448012303702F
:1028E0002DE700BF3E9EFF1F149DFF1F9C9CFF1FF6
:1028F000449DFF1F28A0FF1FAC9CFF1F329DFF1FA0
:10290000C09CFF1FA89EFF1FE09CFF1FA49CFF1FF1
:10291000249FFF1F849CFF1F1A9FFF1FF49CFF1F13
:102920001B9FFF1F989EFF1F569EFF1F529EFF1F5B
:10293000D09CFF1F499EFF1F9889FF1F5C9EFF1FB1
:10294000C69CFF1F749CFF1F3C9FFF1FA09EFF1F84
:10295000F29EFF1F469DFF1F3D9FFF1F399FFF1FD8
:10296000759CFF1F909EFF1F8C89FF1FDE9EFF1F1F
:10297000929CFF1F6C9EFF1FE49EFF1F049DFF1F84
:10298000689EFF1FE09EFF1F5A9EFF1FFC9CFF1FBB
:10299000F59CFF1F029B9C45BFF6F9AE924B1B882E
:1029A000002B3FF4F4AEBBF1000F7FF4D5AE8F4B9C
:1029B0001B881BB1059B002B7FF4CEAE049B002B24
:1029C0003FF4E5AE8A4B1A78002A7FF4E0AEDFF8D8
:1029D000A09299F8004001221A70002C40F08F83D9
:1029E000844B1B78002B02F0B880834B1B78002BA4
:1029F00002F08783814B1B78002B7FF4C8AE804B9D
:102A00001B78002B3FF4C3AEB8F800307D490A3B79
:102A1000A8F800300A70BAE605F07CFA7A4B1B7809
:102A200073B97A4B1B785BB9794B1B7843B9794BF7
:102A30001B782BB9784B1B7813B903F0E7FD01E045
:102A400003F0F0FD23682B60744B1B88012B7FF48F
:102A5000CFAD734B73491A680868734DA92303FB04
:102A600002F3002BB8BF03F57F53704AB8BF3F3362
:102A70009B131178543BA0F118022A2000FB02306E
:102A80002860002900F0C08269490A68904200F37A
:102A9000748310DA674D2B78002B40F04385664B2A
:102AA0001B68D3F17F0348BF03339B100133D21A55
:102AB000904242F3B08608600246A8E2FEF7C4FEE8
:102AC0002368336069E5FDF75BFFFEF7F3FB5B4BC3
:102AD0001B88032B00F04E85594B1B88032B00F0FD
:102AE00045852368336052E5FDF796FE3B68336009
:102AF00047E5544A34681288A24204DB464B1B78EF
:102B0000002B00F07383504E504833680793504BAE
:102B1000079900681B88091A994200F2AF80002BC0
:102B200000F0AC804B4B198800293FF41BAD4A4B99
:102B30004A481B680088A342B8BF23469A4241F323
:102B40006A81474B1A60DFF82C8188F80010354FF6
:102B5000FDF762FE38687F2840F3D385414B7F380C
:102B600083FB0032C317C3EB620303EB4303A0EB09
:102B7000830073303C4B01931B883860002B40F07E
:102B8000BD86234B00931B78002B00F02684374C26
:102B90002378002B00F02184DFF8DC90DFF8C4A05C
:102BA0004FF0000B0CE003F17300C0B298F8001076
:102BB00006F0C0FC23780BF1010B5B4540F30D845C
:102BC0003B6859F8040F1844A0F17F038AFB0321E6
:102BD000DA17C2EB610202EB42027F28A3EB820309
:102BE000E1DCFDF739FDE0E7329DFF1F649EFF1F2A
:102BF000499EFF1F399FFF1F3A9FFF1F3B9FFF1FEB
:102C00003C9FFF1F9C9CFF1F469DFF1FA09EFF1F18
:102C1000F29EFF1F759CFF1FAC9CFF1FB09EFF1F05
:102C20009089FF1F2C9FFF1F249DFF1F009DFF1FEA
:102C3000349DFF1FF89EFF1FF49EFF1FB29EFF1FD3
:102C4000409EFF1F449DFF1F28A0FF1F049DFF1FE4
:102C5000309DFF1F949CFF1F689EFF1F0E9FFF1F4C
:102C6000789CFF1FABAAAA2ADC9CFF1F5489FF1F78
:102C70004A9EFF1F209DFF1F2C89FF1FBD4BBE4991
:102C80001B680888BD49A342B8BF23469A4200F397
:102C90008A82BB4C09888342A8BF0346236000296F
:102CA0007FF451AF9A42C8BF0B4640F38382801A2B
:102CB000B0F5804FAABF9B03C3EB8333013093FB76
:102CC000F0F0FDF78FFDC0F3C6100DF0CFFFAD4B58
:102CD000044618880DF0CAFFAB49074620460EF09F
:102CE00019F8014638460EF015F821460DF00AFF96
:102CF0004FF07E5104460EF0ABF9002841F0708091
:102D0000A24920460EF0C2F9002840F06F86204606
:102D10000EF0ECF9C0B2DFF8A48288F8000016E7E4
:102D20009B4BD6F800801988414553DD994B1B78A1
:102D3000002B4FD1DFF8889299F800007F2840F3EC
:102D40004E86A3F155337F3803F1004383FB0032F5
:102D5000C317C3EB620303EB4303A0EB83007330A1
:102D60008D4B01931B88C0B289F80000002B41F005
:102D700033808A4B00931B78002B00F0F584884C3D
:102D80002378002B00F0F084864FDFF820824FF08C
:102D9000000A0AE003F17300C0B206F0EFFB2378EB
:102DA0000AF1010A534540F3DF8457F8043F99F8CC
:102DB00000001844A0F17F0388FB0321DA17C2EB5F
:102DC000610202EB42027F28A3EB8203E2DCFDF703
:102DD00043FCE1E7744F38687F2800F3F281FDF788
:102DE0003BFCDFF8DC9199F80040844200F050820F
:102DF000624B1B88002B43D1614A5F4812680088F0
:102E0000914205DC8242D4BFC1EB0203C1EB000357
:102E1000411AB1F5804FA6BF9B030131C3EB833349
:102E200093FBF1F0FDF7DEFCC0F3C6100DF01EFFC2
:102E3000544B804618880DF019FF5349824640468E
:102E40000DF068FF014650460DF064FF41460DF05D
:102E500059FE4FF07E5180460EF0FAF8002840F0FF
:102E6000AE874A4940460EF011F9002840F0BB8574
:102E700040460EF03BF9C0B2DFF8408188F8000010
:102E80007F2C40F32F8449487F3C80FB0430E317BC
:102E9000C3EB600000EB4000A4EB800073303F4BBD
:102EA00000931B78C0B289F80000002B40F06983C2
:102EB0003F4B03931B78002B40F074853D4B0293EE
:102EC0001B78002B40F0A087334B0193029B1B78AB
:102ED000FBB1394B1B88012B00F0C785022B00F09A
:102EE000DF87032B01F08681042B01F08783052BFC
:102EF00001F09B84062B01F00486072B01F0AF87BD
:102F0000082B02F06680092B02F08C810A2B02F05C
:102F10007483009B1B78002B00F0B784019B1E4C30
:102F20001988002900F0378538687F2840F3268308
:102F30001E4B7F3883FB0032C317C3EB620303EBE6
:102F40004303A0EB830073303860002940F0BC8459
:102F5000009B1B78002B00F0EF81114C2378002B95
:102F600000F0EA81DFF83CA0DFF850804FF0000B62
:102F700035E000BF689EFF1F0E9FFF1F949CFF1F40
:102F8000789CFF1F1C9FFF1FCDCCCC3D0000FE4254
:102F9000449DFF1FAC9CFF1FDC9CFF1FF29EFF1F88
:102FA0005489FF1F2C89FF1F2C9FFF1FABAAAA2A41
:102FB000759CFF1F469DFF1F5C9EFF1F209DFF1FEE
:102FC000949EFF1F03F17300C0B298F8001006F042
:102FD000B1FA23780BF1010B5B4540F3AD813B68FF
:102FE0005AF8040FB04A1844A0F17F0382FB032172
:102FF000DA17C2EB610202EB42027F28A3EB8203E5
:10300000E0DCFDF729FBDFE7A84902460860A84B92
:10301000188858B3A74B256853F82040B5FBF4F344
:10302000772C04FB135300F3A180C3EBC30303EB22
:10303000031393FBF4F3A048A04C50F8230024683A
:103040009F4BA0F2FF7004FB00F000F57D3000F50F
:10305000607000EB4004C0EBC40083FB00430344FA
:10306000C017C0EBA3400B3802440A609549964B49
:103070000888198800F27C704300B3F57C6FA1F1D9
:1030800064014FEA4100B5BF9049914903FB022218
:103090005A4381FB02311144D317C3EBE123C1181A
:1030A00081F30C0128200AF027FDFFF7A1BA894C13
:1030B00089488A498A4A237003700B701370FFF79E
:1030C000CABB93424FF0000B80F288800123CDF8F9
:1030D00000B0CDF814B00493FFF701BB814B1B780F
:1030E000002B7FF454AB039B7F4A243B83F34703BD
:1030F000D9B25B20136006F0EDF999F80040032C7B
:1031000030D1DFF8308298F80030002B42F0F181A6
:10311000764F3B78002B42F0DF81724C2378002BF6
:1031200042F0CD81724B1B78002B42F0BB81714A7B
:103130001380714B1B78002B42F0E7816F4B7F228D
:103140001A8098F800306BB93B785BB923784BB99B
:103150006B4A7F210720138006F0BCF97F210B20EA
:1031600006F0B8F9674B1F68FFF711BBC3EB0313F9
:10317000D800631C90FBF3F35DE7634D2B78002BC5
:1031800040F0D081614B1B68D3F17F0348BF03330C
:1031900002EBA302013290420A60444BBFF637AF04
:1031A0001860024633E75A4B09881A6000297FF4F9
:1031B000CAAC13469842D4BFC2EB0003C2EB030370
:1031C00075E5394B7F3883FB0032C317C3EB6203CD
:1031D00003EB4303A0EB8300733002E60123CDF839
:1031E00010B0CDF800B00593FFF779BA01232B603A
:1031F000FFF7B7B9029B1B78FBB1464B1B88012B2D
:1032000000F0B584022B00F0E586032B01F07480FA
:10321000042B01F01882052B01F0A282062B01F08D
:103220006884072B01F07685082B01F01987092B9C
:1032300002F019800A2B02F07581019B1B88002B7C
:1032400000F04B83009B1B783BB9039B1B7823B991
:10325000029B1B78002B00F0C3871F4B1B78002BB1
:1032600000F04A812C490B78082B00F245812B484D
:103270003A6800682A4C0133DBB25F1E101A44F82A
:1032800027000B70274BD6F80080198889F800209A
:103290008845254E7FF766A93268244B0892089A24
:1032A000234C1A60FFF75FB9ABAAAA2A349DFF1F0F
:1032B000909CFF1F00290100FC210100C49EFF1FFC
:1032C0004D261281309FFF1F049FFF1F81DFFF816A
:1032D00083200882469DFF1FA09EFF1FF29EFF1FB6
:1032E000759CFF1F3C9FFF1FBC9CFF1F3B9FFF1F48
:1032F0003A9FFF1F3A9DFF1F3D9FFF1F949CFF1F9A
:10330000929EFF1F849CFF1FF89EFF1FF49EFF1FCD
:10331000789CFF1F5C9EFF1F5489FF1FA09CFF1F0E
:103320003089FF1F449DFF1F28A0FF1FD49FFF1F50
:103330006C9EFF1F399FFF1F039B1B78002B3FF4E0
:1033400059AF3B68A3F10C007F2840F34283A648A5
:103350008B3B80FB0320DA17C2EB600000EB4000E0
:10336000A3EB800303F17300DFF8C082C0B298F8CA
:10337000001006F0DFF8009B1B78002B3FF43AAFFB
:103380009A4C2378002B3FF435AFDFF8A4A24FF01E
:10339000000B0CE003F17300C0B298F8001006F0C7
:1033A000C9F823780BF1010B5B457FF723AF3B682E
:1033B0005AF8040F8C4A1844A0F18B0382FB0321B6
:1033C000DA17C2EB61020C3802EB42027F28A3EB52
:1033D0008203DFDCFDF740F9DEE7854B1B78002B2D
:1033E00040F081823B68834A1278002A45D0A3F1DD
:1033F0000C007F2840F3F0827B4A8B3B82FB032149
:10340000DA17C2EB610202EB4202A3EB820303F183
:103410007300C0B298F8001006F08CF8009B1B787F
:1034200053B3724C23783BB3DFF80492DFF8B8A1B2
:103430004FF0000B0BE003F17300C0B298F80010DE
:1034400006F078F823780BF1010B5B4514DD3B683F
:1034500059F8040F1844A0F18B038AFB0321DA17F3
:10346000C2EB61020C3802EB42027F28A3EB82031D
:10347000E1DCFDF7F1F8E0E73B685F4A1278FAB16A
:103480005E4A1288012A00F01784022A00F023867F
:10349000032A00F0AE87042A01F00A81052A01F010
:1034A0002A82062A01F04B83072A01F07183082A39
:1034B00001F03A86092A01F00D870A2A02F0698094
:1034C000019A1288002A00F020824D4A4D4C137058
:1034D00003232B60FFF747B8DFF8408198F80030EE
:1034E000002B40F00481484F3B78002B40F09A8439
:1034F000444C3B70FFF737B83A68C3E6DBB2184676
:10350000137006F0A5F8414B39491A46394B184655
:1035100000230B703B7013700370FFF7B1B80123E9
:10352000FFF7F0B80133DBB2022B88BF00232B700A
:103530006DE580243649374B374A09881B88126865
:103540000B44B2EB630FBFF622A9344B1B78002B60
:1035500040F01282B8F80030314AA3423FF417A974
:10356000304B148001221A70FFF711B9FDF7DCF817
:10357000FFF7B7BAFDF782F8FFF7AEBAFDF76CF8C0
:10358000E2E4294B01931B88002B53D1194B039381
:10359000194B0293154C2378002B55D0DFF89080FF
:1035A000DFF844A04FF0000B09E003F17300C0B254
:1035B00005F0E4FF23780BF1010B5B4544DD58F87F
:1035C000043F99F800001844A0F17F038AFB03210F
:1035D000DA17C2EB610202EB42027F28A3EB8203FF
:1035E000E3DCFDF739F8E2E7ABAAAA2A5489FF1F0A
:1035F000A09EFF1F759CFF1F469DFF1F5C9EFF1F27
:10360000949EFF1F6C9EFF1F929CFF1FF29EFF1F48
:10361000529EFF1F569EFF1FD09CFF1F909EFF1FB4
:10362000E09EFF1F9C9CFF1FDC9CFF1F209DFF1F37
:103630002C89FF1FBB4B0393BB4B029305F09EFFEE
:10364000009B1B78002BA5D1039B1B78002B3FF41C
:103650003DAC99F80030A3F10C007F2840F3B6810F
:10366000B2488B3B80FB0320DA17C2EB600000EB13
:103670004000A3EB800303F17300C0B205F07EFFAE
:10368000009B1B78002B00F09681A94C2378002B1F
:1036900001F05C82DFF8BC82DFF890A24FF0000BF3
:1036A0000AE003F17300C0B205F068FF23780BF164
:1036B000010B5B457FF70AAC58F8043F99F800000E
:1036C0001844A0F18B038AFB0321DA17C2EB6102D5
:1036D0000C3802EB42027F28A3EB8203E1DCFCF70B
:1036E000BBFFE0E72046FCF7B7FFFFF7D8BB914AE6
:1036F0001278002A40F08D818F4F904C3B70FEF77E
:1037000032BFFCF7A9FFFFF735BA002008708C49DB
:10371000087840B18B4900910978002900F069814F
:10372000009F002139708849097800297FF474A826
:10373000002C40F09A80002840F09780834C814F05
:1037400094F800E0774C0394774C0294754C8049D0
:103750002070754C0097087038702070BEF1000F13
:103760007FF46CA8FFF776B86E4B1B78002B42D025
:1037700099F80030A3F10C007F2840F367836B4A6F
:103780008B3B82FB0321DA17C2EB610202EB4202A0
:10379000A3EB820303F17300C0B205F0EFFE009BC0
:1037A0001B7843B3624C23782BB36A4FDFF87C81DC
:1037B0004FF0000A09E003F17300C0B205F0DEFE2D
:1037C00023780AF1010A534515DD57F8043F99F8AB
:1037D00000001844A0F18B0388FB0321DA17C2EB29
:1037E00061020C3802EB42027F28A3EB8203E2DC89
:1037F000FCF732FFE1E74C4B1B78FBB1564B1B88C3
:10380000012B00F07486022B00F07D87032B01F062
:10381000F780042B01F08281052B01F0BF83062B7A
:1038200001F0DC84072B01F0A385082B01F0118740
:10383000092B01F0A9870A2B01F08787019B1B88C0
:10384000002B00F0C482424B1B78002B40F0BA8260
:10385000424B434A1988D6F80080002001231060AB
:103860002B6015E50398002101703849097800297B
:103870003EF4F0AF2C4902910978002900F06987E5
:10388000029800210170FEF7E5BF039B1B78002B17
:103890007FF444AB029B1B78002B7FF43FAB019B72
:1038A0001988FFF741BB243B002BB8F8000040F318
:1038B000918498423EF443AF9BB22A48A8F8003066
:1038C00001230370FEF73BBFDFF89C80C0B298F87D
:1038D000001005F02FFEFFF73BBB234B387819781B
:1038E00005F028FEAEE47F21402005F0F3FD1F49DE
:1038F0000F4A3B680B600021117074E5C0B298F864
:10390000001005F017FEFFF73CB9D8B298F8001088
:1039100005F010FE3B68D8E5154BDFF858E0197844
:10392000FEF70DBF759CFF1F469DFF1FABAAAA2A7D
:103930005489FF1FE49EFF1F929CFF1F6C9EFF1F78
:103940003D9FFF1FF29EFF1F399FFF1F909EFF1F8D
:10395000A09EFF1F2C89FF1F5C9EFF1F449DFF1F21
:10396000789CFF1F9C9CFF1F209DFF1FA09CFF1F9A
:103970001B9FFF1FF59CFF1F4B2C40F33482183414
:10398000802CB8F80030BD4AA8BF8024A3427FF441
:10399000E7ADFEF7FCBE99F8000005F0EFFD2188C9
:1039A000FFF7C2BAB64B01931B88002B41F02F875B
:1039B000B44B02934DE6029B1B78002B7FF489AA3F
:1039C000039B1B78002B7FF4A9AA68E7FCF744FE51
:1039D00053E6FCF741FEC7E4FCF73EFE19E5FCF7B1
:1039E0003BFEFFF7BDB97F20FFF746BA7F20FFF708
:1039F00092B9A44FA44902974FF0000C81F800C07F
:103A0000009F02994FF0010E87F800E081F800C096
:103A100089E69E4F387802F073FE9D4B1B78002B91
:103A200000F021823B887E2B00F21D82994CDFF84A
:103A300078922268D9F80010521A0F2A40F20A82AE
:103A4000954A0133108899B23980002800F0248209
:103A5000C9B2C0B205F03EFD904F226898F8003020
:103A6000C9F800203B70FEF77EBDDFF840A299F850
:103A70000000BAF800308A4A8A4CC31A82FB031E3F
:103A8000D917C1EB6E0101EB4101A3EB810303EBFD
:103A9000430354F8233018447F2840F321857F38AE
:103AA00082FB0032C317C3EB620303EB4303A0EBBB
:103AB00083007330DFF8F8B1C0B205F05FFDBBF8EA
:103AC0000030022B7FF625AA99F80010BAF80030D2
:103AD000734ACB1A82FB030ED817C0EB6E0000EBC3
:103AE0004000A3EB800303EB430304EB830358681C
:103AF00008447F2840F362877F3882FB0032C31777
:103B0000C3EB620202EB4202A0EB82007330C0B250
:103B100005F034FDBBF80030032B7FF6FAA999F8C5
:103B20000010BAF800305E4ACB1A82FB030ED81799
:103B3000C0EB6E0000EB4000A3EB800303EB4303FC
:103B400004EB8304A06808447F2840F379817F3820
:103B500082FB0032C317C3EB620202EB4202A0EB0E
:103B600082007330C0B205F009FDFFF7D2B9DFF86B
:103B70003CA13868BAF80030494A4A4CC31A82FB63
:103B8000031ED917C1EB6E0101EB4101A3EB8103C9
:103B900003EB430354F8233018447F2840F3258473
:103BA0007F3882FB0032C317C3EB620303EB43038E
:103BB000A0EB83007330DFF8FC80DFF8F4B098F8F6
:103BC0000010C0B205F0B6FCBBF80030022B7FF647
:103BD00034AB3968BAF80030314ACB1A82FB030E95
:103BE000D817C0EB6E0000EB4000A3EB800303EBA3
:103BF000430304EB8303586808447F2840F3778627
:103C00007F3882FB0032C317C3EB620202EB420231
:103C1000A0EB82007330C0B298F8001005F08AFC67
:103C2000BBF80030032B7FF608AB3968BAF80030D8
:103C30001B4ACB1A82FB030ED817C0EB6E0000EBB9
:103C40004000A3EB800303EB430304EB8304A06871
:103C500008447F2840F304817F3882FB0032C31779
:103C6000C3EB620202EB4202A0EB8200733098F8D1
:103C70000010C0B205F05EFCFFF7DFBAE09EFF1F48
:103C8000DC9CFF1F469DFF1FA09EFF1FCC9CFF1FBB
:103C90003E9FFF1F6C9EFF1F1C9DFF1F929CFF1FDE
:103CA000ABAAAA2A04280100289FFF1F9C9EFF1F81
:103CB000B09CFF1F209DFF1FDFF80CA3B749BAF887
:103CC0000020B74C9A1A81FB020ED017C0EB6E0091
:103CD00000EB4000A2EB800202EB420254F822000B
:103CE00018447F2840F30084A0F17F0381FB032167
:103CF000DA17C2EB610000EB4000A3EB80007330E9
:103D0000DFF8C8B298F80010C0B205F013FCBBF899
:103D10000030022B50D93968BAF800309F4ACB1ACC
:103D200082FB030ED817C0EB6E0000EB4000A3EB44
:103D3000800303EB430304EB8303586808447F28A4
:103D400040F346867F3882FB0032C317C3EB620222
:103D500002EB4202A0EB82007330C0B298F8001070
:103D600005F0E8FBBBF80030032B25D93868BAF81A
:103D700000308A4AC31A82FB031ED917C1EB6E01B9
:103D800001EB4101A3EB810303EB430304EB830449
:103D9000A36818447F2856DD7F3882FB0032C317A2
:103DA000C3EB620202EB4202A0EB82007330C0B2AE
:103DB00098F8001005F0BEFB3B68FFF781BB0120BF
:103DC000FFF75AB80021402005F084FB40E599F840
:103DD000000005F0D3FB36E505F0D0FBFEF7C9BFC8
:103DE0000120FEF798BF243C002CB8F8003040F3C7
:103DF000E985A3423EF4CBACA4B26A4BA8F80040DC
:103E000001221A70FEF7C3BC674B01931B88002B7D
:103E10003FF45CA812E4654A8342A8BF03461360DE
:103E2000FEF791BE624B634C19886A2005F0ACFC2A
:103E300098F800303B70FEF796BB1446FFF785BB41
:103E4000FCF70AFC8EE6FCF707FCB0E7FCF704FC85
:103E5000A2E4584C584F98F800303B70FEF783BBF3
:103E6000FCF7FAFB03E7554B1B78002BF1D03B889E
:103E70004F4F002BEDD04F4CDFF854912268D9F80A
:103E80000010521A0F2AE5D94D4A013B108899B209
:103E9000398000287FF4DCADC8B205F0BBFBDBE560
:103EA000DFF824A199F80000BAF800303B4A454CED
:103EB000C31A82FB031ED917C1EB6E0101EB41014E
:103EC000A3EB810303EB430354F8233018447F280A
:103ED00040F312847F3882FB0032C317C3EB6203C6
:103EE00003EB4303A0EB83007330DFF8E0B0C0B214
:103EF00005F044FBBBF80030022B7FF60AA899F8C6
:103F00000010BAF80030254ACB1A82FB030ED817EE
:103F1000C0EB6E0000EB4000A3EB800303EB430318
:103F200004EB8303586808447F2840F3F3857F3807
:103F300082FB0032C317C3EB620303EB4303A0EB26
:103F400083007330C0B205F019FBBBF80030032BBF
:103F50007EF6DFAF99F80010BAF800300F4ACB1A9E
:103F600082FB030ED817C0EB6E0000EB4000A3EB02
:103F7000800303EB430304EB8304A06808447F2819
:103F80007FF75EAF7F3882FB0032C317C3EB62035B
:103F900003EB4303A0EB83007330E3E5ABAAAA2A4B
:103FA000042801009C9CFF1FDC9CFF1F789CFF1FC6
:103FB000CC9CFF1F6C9EFF1F929CFF1F3D9FFF1F0D
:103FC0001C9DFF1FF02901009C9EFF1FB09CFF1F3E
:103FD000289FFF1FDFF814A33868BAF80030C04AE2
:103FE000C04CC31A82FB031ED917C1EB6E0101EB53
:103FF0004101A3EB810303EB430354F8233018443E
:104000007F2840F344837F3882FB0032C317C3EB21
:10401000620303EB4303A0EB83007330DFF8D0822D
:10402000DFF8D0B298F80010C0B205F083FABBF800
:104030000030022B7FF601A93968BAF80030A84A8F
:10404000CB1A82FB030ED817C0EB6E0000EB4000CA
:10405000A3EB800303EB430304EB8303586808449A
:104060007F2840F368857F3882FB0032C317C3EB9B
:10407000620303EB4303A0EB83007330C0B298F8F4
:10408000001005F057FABBF80030032B7FF6D5A8D7
:104090003868BAF80030924AC31A82FB031ED91757
:1040A000C1EB6E0101EB4101A3EB810303EB430381
:1040B00004EB8304A36818447F287FF7D1AE7F38D0
:1040C00082FB0032C317C3EB620303EB4303A0EB95
:1040D00083007330CBE5DFF814A28149BAF80020E1
:1040E000804C9A1A81FB020ED017C0EB6E0000EBD9
:1040F0004000A2EB800202EB420254F82200184476
:104100007F2840F3FD82A0F17F0381FB0321DA17B2
:10411000C2EB610000EB4000A3EB80007330DFF8DE
:10412000D4B198F80010C0B205F004FABBF8003022
:10413000022B7FF641AE3968BAF80030684ACB1AD4
:1041400082FB030ED817C0EB6E0000EB4000A3EB20
:10415000800303EB430304EB8303586808447F2880
:1041600040F3E5847F3882FB0032C317C3EB620360
:1041700003EB4303A0EB83007330C0B298F8001048
:1041800005F0D8F9BBF80030032B7FF615AE386880
:10419000BAF80030524AC31A82FB031ED917C1EB8A
:1041A0006E0101EB4101A3EB810303EB430304EB3D
:1041B0008304A36818447F287FF745AE7F3882FBCD
:1041C0000032C317C3EB620303EB4303A0EB83008E
:1041D0007330ECE501283EF4B2AA0123FFF76DBB72
:1041E0004FF47A43013BFDD199F8000005F0C6F980
:1041F000FFF733B8DFF8F4A099F80000BAF8003000
:10420000374A394CC31A82FB031ED917C1EB6E0122
:1042100001EB4101A3EB810303EB430354F823308B
:1042200018447F2840F3DB817F3882FB0032C317BC
:10423000C3EB620202EB4202A0EB82007330DFF8B4
:10424000B4B0C0B205F09AF9BBF80030022B7EF68C
:1042500060AE99F80000BAF80030214AC31A82FB18
:104260000321DA17C2EB610202EB4202A3EB8203E5
:1042700003EB430304EB83035B6818447F2840F39C
:1042800028847F380C2290FBF2F302FB130073307A
:10429000C0B205F073F9BBF80030032B7EF639AEDF
:1042A00099F80000BAF800300D4AC31A82FB0321C6
:1042B000DA17C2EB610202EB4202A3EB820303EBCB
:1042C000430304EB8304A36818447F287FF7B8AD49
:1042D0007F380C2290FBF2F302FB1300733041E4B1
:1042E000ABAAAA2AF0290100802A01009C9EFF1F88
:1042F000209DFF1FB09CFF1FDFF8A8A33868BAF805
:104300000030E44AE44CC31A82FB031ED917C1EB08
:104310006E0101EB4101A3EB810303EB430354F86E
:10432000233018447F2840F35D817F3882FB0032C0
:10433000C317C3EB620202EB4202A0EB82007330B0
:10434000DFF86483DFF864B398F80010C0B205F0BA
:10435000F1F8BBF80030022B7EF66FAF3868BAF880
:104360000030CC4AC31A82FB0321DA17C2EB610288
:1043700002EB4202A3EB820303EB430304EB830350
:104380005B6818447F2840F3A1837F380C2290FBA0
:10439000F2F302FB13007330C0B298F8001005F07E
:1043A000C9F8BBF80030032B7EF647AF3868BAF87F
:1043B0000030B84AC31A82FB0321DA17C2EB61024C
:1043C00002EB4202A3EB820303EB430304EB8304FF
:1043D000A36818447F287FF743AD7F380C2290FBF9
:1043E000F2F302FB1300733041E4FCF735F9FFF7F9
:1043F000E2BBDFF8B0A2A749BAF80020A64C9A1A8F
:1044000081FB020ED017C0EB6E0000EB4000A2EB68
:10441000800202EB420254F8220018447F2840F345
:10442000E480A0F17F0381FB0321DA17C2EB610175
:1044300001EB4101A3EB81007330DFF870B298F813
:104440000010C0B205F076F8BBF80030022B7FF602
:10445000B3AC3868BAF800308E4AC31A82FB032125
:10446000DA17C2EB610202EB4202A3EB820303EB19
:10447000430304EB83035B6818447F2840F33683CF
:104480007F380C2290FBF2F302FB13007330C0B2B2
:1044900098F8001005F04EF8BBF80030032B7FF6BB
:1044A0008BAC3868BAF800307A4AC31A82FB032111
:1044B000DA17C2EB610202EB4202A3EB820303EBC9
:1044C000430304EB8304A36818447F287FF7BBAC45
:1044D0007F380C2290FBF2F302FB1300733066E48A
:1044E000FCF7BAF8FFF7E6BAFCF7B6F808E4DFF82D
:1044F000B4A199F80000BAF80030664A674CC31AB4
:1045000082FB0317D917C1EB670101EB4101A3EB54
:10451000810303EB430354F8233018447F286ADDFA
:104520007F3882FB0032C317C3EB620202EB420208
:10453000A0EB82007330DFF874B1C0B205F01EF852
:10454000BBF80030022B7FF679A999F80000BAF881
:104550000030504AC31A82FB0321DA17C2EB610212
:1045600002EB4202A3EB820303EB430304EB83035E
:104570005B6818447F2840F3B6827F380C2290FB9A
:10458000F2F302FB13007330C0B204F0F7FFBBF884
:104590000030032B7FF652A999F80000BAF80030DA
:1045A0003C4AC31A82FB0321DA17C2EB610202EB19
:1045B0004202A3EB820303EB430304EB8304A368EF
:1045C00018447F2814DD7F380C2290FBF2F302FBA5
:1045D00013007330C0B204F0D1FFFFF72FB9FCF71E
:1045E0003BF82CE6FCF738F8AAE6FCF735F824E7A8
:1045F000FCF732F8EEE7FCF72FF89CE7DFF8A4A011
:1046000099F80000BAF80030224A254CC31A82FB00
:10461000031ED917C1EB6E0101EB4101A3EB81032E
:1046200003EB430354F8233018447F28D7DD7F3849
:1046300082FB0032C317C3EB620303EB4303A0EB1F
:1046400083007330FBE5DFF85CA03868BAF800300F
:10465000104A134CC31A82FB031ED917C1EB6E011B
:1046600001EB4101A3EB810303EB430354F8233037
:1046700018447F28B6DD7F3882FB0032C317C3EBB6
:10468000620303EB4303A0EB8300733058E6FBF7B0
:10469000E3FFC3E4ABAAAA2A802A01000428010090
:1046A000702401009C9EFF1F209DFF1FB09CFF1FD8
:1046B000DFF840A3C849BAF80020C84C9A1A81FB19
:1046C000020ED017C0EB6E0000EB4000A2EB8002A0
:1046D00002EB420254F8220018447F2885DDA0F145
:1046E0007F0381FB0321DA17C2EB610000EB40007E
:1046F000A3EB80007330A0E6FBF7AEFFFFF7F5BB3E
:10470000FBF7AAFF0BE5DFF8ECA299F80000BAF876
:104710000030B14AB24CC31A82FB0317D917C1EB60
:10472000670101EB4101A3EB810303EB430354F861
:10473000233018447F287FF75EAF7F3882FB00323A
:10474000C317C3EB620303EB4303A0EB8300733097
:10475000F1E6A4480090A448A4490390FEF76EB87F
:10476000DFF890A23868BAF800309B4AA04CC31A10
:1047700082FB0321DA17C2EB610202EB4202A3EBD8
:10478000820303EB430354F8233018447F2840F39B
:10479000A7817F380C2290FBF2F302FB13007330E9
:1047A000DFF85482DFF854B298F80010C0B204F079
:1047B000C1FEBBF80030022B1AD93868BAF80030B5
:1047C0000C22C11A91FBF2F302FB131302FB034309
:1047D0005B6818447F2840F390847F3890FBF2F3A5
:1047E00002FB13007330C0B298F8001004F0A2FE70
:1047F000BBF80030032B7EF620ADBAF800303868E5
:104800000C22C11A91FBF2F302FB131302FB0344C7
:10481000A36818447F287FF723AB7F3890FBF2F31F
:1048200002FB13007330FFF722BADFF8C8A199F832
:104830000000BAF80030684A6D4CC31A82FB0321AD
:10484000DA17C2EB610202EB4202A3EB820303EB35
:10485000430354F8233018447F2840F33E817F38C7
:104860000C2290FBF2F302FB13007330DFF88CB1E3
:10487000C0B204F083FEBBF80030022B19D999F8BE
:104880000000BAF800300C22C11A91FBF2F302FBCF
:10489000131302FB03435B6818447F2840F326840C
:1048A0007F3890FBF2F302FB13007330C0B204F0C8
:1048B00065FEBBF80030032B7EF62BABBAF8003058
:1048C00099F800000C22C11A91FBF2F302FB1313BA
:1048D00002FB0344A36818447F287FF7B1AA7F38FE
:1048E00090FBF2F302FB13007330FFF73BB9FBF7C9
:1048F000B3FEFFF790B9DFF8FCA03749BAF8002003
:104900003B4C9A1A81FB0210D117C1EB600101EBFD
:104910004101A2EB810202EB420254F8220018444A
:104920007F2840F3D080A0F17F030C2093FBF0F2AE
:1049300000FB12307330DFF8C4B098F80010C0B23A
:1049400004F0F8FDBBF80030022B1AD93868BAF829
:1049500000300C22C11A91FBF2F302FB131302FB8D
:1049600003435B6818447F2840F3C4837F3890FB7F
:10497000F2F302FB13007330C0B298F8001004F099
:10498000D9FDBBF80030032B7FF616AABAF8003029
:1049900038680C22C11A91FBF2F302FB131302FBDD
:1049A0000344A36818447F287FF74DAA7F3890FB03
:1049B000F2F302FB13007330FFF7F9B9FBF74CFE7B
:1049C000FFF7A5B8012B3DF4E2AE0124FFF715BABD
:1049D000FBF742FEFFF7C1B9ABAAAA2A7024010077
:1049E000F0290100F29EFF1F759CFF1FA09EFF1F74
:1049F000042D01009C9EFF1F209DFF1FB09CFF1FE8
:104A0000DFF800A399F80000BAF80030B34AB44CBC
:104A1000C31A82FB0321DA17C2EB610202EB4202E6
:104A2000A3EB820303EB430354F8233018447F289D
:104A300046DD7F380C2290FBF2F302FB130073304B
:104A4000DFF8CCB2C0B204F099FDBBF80030022B05
:104A500019D999F80000BAF800300C22C11A91FB5C
:104A6000F2F302FB131302FB03435B6818447F2835
:104A700040F38B807F3890FBF2F302FB130073301E
:104A8000C0B204F07BFDBBF80030032B7EF6D6AE3F
:104A9000BAF8003099F800000C22C11A91FBF2F329
:104AA00002FB131302FB0344A36818447F287FF71B
:104AB0009FAD7F3890FBF2F302FB1300733089E562
:104AC000FBF7CAFDBCE7FBF7C7FD34E7FBF7C4FD06
:104AD00062E4FBF7C1FDFFF7DBBBFBF7BDFDC5E6FD
:104AE000FBF7BAFD5CE6FBF7B7FD4DE5FBF7B4FD60
:104AF000CDE4DFF810A23868BAF80030774A794C74
:104B000035E6DFF800A299F80000BAF80030734AE1
:104B1000744C92E6FBF7A0FDFFF714BADFF8E4A1AE
:104B200099F80000BAF800306C4A6F4C70E7FBF758
:104B300093FDFFF722BBFBF78FFDFFF79FBADFF86E
:104B4000C4A16649BAF80020664CDAE6029B1B78DD
:104B5000002B7EF4BEA9FEF7E1B9644B1B78002B55
:104B600000F02983624B1B78002B7DF410AE614B63
:104B70001B78002B3DF40BAEB8F800305E490A33C9
:104B8000A8F800300A70FDF702BEFBF765FD77E775
:104B90005A4C2288002A00F02C835949DFF870B162
:104BA0000988BBF800000331884227DD5548564983
:104BB0000088B1F800E0DFF854C1181A0C2190FB0E
:104BC000F1F901FB19004FF0900909FB0EFE01FB02
:104BD00000E06FF00B0E5CF8000003440EFB0230A7
:104BE0007F2840F332857F3890FBF1F301FB1300FF
:104BF0007330C0B298F8001004F09CFCBBF80020A1
:104C000023881344022B23DD3E4B3F4A38681B8820
:104C1000B2F800C0DFF8F4E0C31A0C2193FBF1F204
:104C200001FB1232902303FB0CF301FB02337344AC
:104C30005B6818447F2840F362857F3890FBF1F36E
:104C400001FB13007330C0B298F8001004F072FC3E
:104C5000BBF8002023881344032B23DD294B2A4A69
:104C600038681B88B2F800C0DFF8A0E0C31A0C2136
:104C700093FBF1F201FB1232902303FB0CF301FBD7
:104C8000023373449B6818447F2840F353857F3870
:104C900090FBF1F301FB13007330C0B298F80010E1
:104CA00004F048FCBBF8002023881344042B7FF752
:104CB00083A8134B1B88012B7FF47EA83A68A2F1CE
:104CC0000C007F287FF7BFA88B3A0C2092FBF0F3F3
:104CD00000FB13207330FFF76AB800BFABAAAA2A03
:104CE000802A0100AC2B0100702401003A9FFF1FB5
:104CF0003B9FFF1F3C9FFF1F9C9CFF1F289DFF1F8A
:104D0000CA9CFF1F9C9EFF1F4C9EFF1F0025010099
:104D1000B09CFF1FC74C2388002B40F06D82DFF84A
:104D20003CB3C549C54A0988D7F80080B2F800E00D
:104D3000C348C1EB080C0C229CFBF2F102FB11C131
:104D40004FF0900C0CFB0EFE02FB01E16FF00B0E1E
:104D5000405880440EFB03807F2840F37284A0F10A
:104D60007F0393FBF2F002FB10307330B54BC0B2FF
:104D7000197804F0DFFBBBF8002023881344022BD2
:104D800023DDAD4AAD4B11883868B3F800C0DFF8B9
:104D9000B0E2411A0C2291FBF2F302FB13119023B3
:104DA00003FB0CF302FB013373445B6818447F2858
:104DB00040F30D857F3890FBF2F302FB1300733054
:104DC000A04BC0B2197804F0B5FBBBF800202388D3
:104DD0001344032B23DD984A984B11883868B3F8A5
:104DE00000C0DFF85CE2411A0C2291FBF2F302FBF7
:104DF0001311902303FB0CF302FB013373449B68F4
:104E000018447F2840F39D847F3890FBF2F302FB27
:104E1000130073308B4BC0B2197804F08BFBBBF8D6
:104E2000002023881344042B7EF707AA864B1B8897
:104E3000012B7EF402AA3A68A2F10C007F2840F30D
:104E4000D5818B3A0C2092FBF0F300FB13207330DA
:104E50007C4BC0B2197804F06DFBFEF7EEB9754CCF
:104E60002388002B40F0D381DFF8F0B17249734AF8
:104E7000098899F80000B2F800E0DFF8C481C1EBBE
:104E8000000C0C229CFBF2F102FB11C14FF0900CC4
:104E90000CFB0EFE02FB01E16FF00B0E58F8011047
:104EA00008440EFB03007F2840F3C883A0F17F0372
:104EB00093FBF2F002FB10307330C0B204F05EFBE3
:104EC000BBF8002023881344022B22DD5A4A5B4B97
:104ED000118899F80000B3F800C0DFF864E1411AC6
:104EE0000C2291FBF2F302FB1311902303FB0CF352
:104EF00002FB013373445B6818447F2840F36B84E2
:104F00007F3890FBF2F302FB13007330C0B204F061
:104F100035FBBBF8002023881344032B22DD464ACF
:104F2000464B118899F80000B3F800C0DFF810E193
:104F3000411A0C2291FBF2F302FB1311902303FBA5
:104F40000CF302FB013373449B6818447F2840F341
:104F5000F5837F3890FBF2F302FB13007330C0B28D
:104F600004F00CFBBBF8002023881344042B7DF7CE
:104F7000D0AF354B1B88012B7DF4CBAF99F80020C7
:104F8000A2F10C007F287EF75BAF8B3A0C2092FBDE
:104F9000F0F300FB13207330FEF7E4BDDFF898A0B8
:104FA00099F80000BAF80030284CC11A0C2291FB85
:104FB000F2F302FB131302FB03F3E35818447F28B8
:104FC0007FF77EAD7F3890FBF2F302FB1300733066
:104FD00036E51F4B1B88182B12D099F8002013447C
:104FE000A3F118007F2840F3A2830C20973B93FB8A
:104FF000F0F200FB123303F17300C0B204F0BEFA0A
:10500000144A154B127833F81230182B3DF481AF47
:1050100099F800201344A3F118007F287EF710AF01
:105020000C20973B93FBF0F200FB123303F173006B
:10503000FEF798BD289DFF1F9C9EFF1F4C9EFF1FE3
:1050400000250100209DFF1FCA9CFF1F042D0100A9
:10505000B89CFF1F8C89FF1FB89EFF1FB09CFF1FCD
:10506000B64B1A88182A13D03B681344A3F11800D2
:105070007F2840F34B830C20973B93FBF0F200FB1F
:10508000123303F17300AE4BC0B2197804F052FA38
:10509000AC4BAD491A78022A94BF013200221A7033
:1050A0001A7831F81200182810D10424022A02F1CB
:1050B0000100C2B288BF002231F81200182804D1C2
:1050C000013CF3D11A70FEF7B8B81A703B6803447C
:1050D000A3F118007F2840F389800C20973B93FBB5
:1050E000F0F200FB123303F17300B1E6FBF7B4FA00
:1050F000FFF7DCBBFBF7B0FA3EE4FBF7ADFAFFF7D6
:1051000072BB924B1B78002B7DF441AB904B1B780C
:10511000002B3DF43CABB8F800308E49013BA8F8B9
:1051200000300A70FDF733BB844A1288182A12D067
:105130001344A3F118007F2840F3E5820C20973B2D
:1051400093FBF0F200FB123303F17300C0B298F846
:10515000001004F0EFF97B4B7B491A78022A94BFC8
:10516000013200221A701A7831F81200182811D171
:105170000424022A02F10100C2B288BF002231F8E1
:105180001200182805D1013CF3D11A703B68FEF7D4
:1051900097B91A703B680344A3F118007F287EF783
:1051A00052AE0C20973B93FBF0F200FB123303F15D
:1051B0007300FEF7FCBD654B1B78002B7DF48EAFB2
:1051C000634B1B78002B3DF4E2AAB8F8003061492C
:1051D0000133A8F800300A70FDF7D9BADFF888A1CA
:1051E00099F80000BAF800305B4CDEE6FBF734FAC1
:1051F0002EE6DFF878B1D9E4584ADFF870B11288AA
:10520000BBF80010033291427FF7B5AD89E5534AF0
:10521000DFF858B11288BBF80010033291427FF7D3
:105220004FAE23E64E4B1B88182B12D099F8002066
:105230001344A3F118007F2840F3C6820C20973B4B
:1052400093FBF0F200FB123303F17300C0B204F0E1
:1052500095F93C4A434B127833F81230182B7FF4FF
:10526000D7AEFDF756BE3E4B1A88182A13D03B68BE
:105270001344A3F118007F2840F33E820C20973B93
:1052800093FBF0F200FB123303F173002C4BC0B21E
:10529000197804F04FF92B4B32491A78022A94BF3F
:1052A000013200221A701A7831F8120018287FF49F
:1052B0000DAF0424022A02F1010294BFD2B20022EF
:1052C00031F8120018287FF400AF013CF2D11A70B7
:1052D000FDF7B3BF224A1288182A12D01344A3F153
:1052E00018007F2840F3E6810C20973B93FBF0F2F7
:1052F00000FB123303F17300C0B298F8001004F001
:1053000019F9104B17491A78022A94BF013200226A
:105310001A701A7831F8120018287FF43BAF042471
:10532000022A02F1010294BFD2B2002231F8120027
:1053300018287FF42EAF013CF2D126E7B89CFF1F5E
:10534000209DFF1F8C89FF1FB89EFF1F3B9FFF1FE3
:105350003C9FFF1F9C9CFF1FAC2B0100CA9CFF1FA2
:10536000C29CFF1F2C9EFF1F9C9EFF1FB09CFF1F17
:10537000D24C2388002B40F0CF81DFF878B3D0499E
:1053800099F80000CF4A09881788DFF83CE3411AF2
:105390000C2291FBF2FC02FB1C114FF0900C0CFB59
:1053A00007F702FB01716FF00B075EF80110014473
:1053B00007FB03107F2840F3AC817F3890FBF2F3AA
:1053C00002FB13007330C0B204F0D8F8BBF8002021
:1053D00023881344022B21DDB94BBA4A99F8000007
:1053E0001B88B2F800E0B84FC31A0C2193FBF1F20E
:1053F00001FB1232902303FB0EF301FB02333B440B
:105400005B6818447F2840F3F3817F3890FBF1F309
:1054100001FB13007330C0B204F0B0F8BBF80020F9
:1054200023881344032B21DDA54BA64A99F80000DD
:105430001B88B2F800E0A44FC31A0C2193FBF1F2D1
:1054400001FB1232902303FB0EF301FB02333B44BA
:105450009B6818447F2840F3D7817F3890FBF1F395
:1054600001FB13007330C0B204F088F8BBF80020D1
:1054700023881344042B7EF7E1A9944B1B88012B4E
:105480007EF4DCA999F80020A2F10C007F287FF7B8
:10549000AFA88B3A0C2092FBF0F300FB1320733083
:1054A000FFF798B88A4B01227F2107201A8004F069
:1054B00011F87F210B2004F00DF8FDF73ABE854B63
:1054C00004227F2107201A8004F004F800210B2019
:1054D00004F000F8FDF726BE7E4B02227F21072054
:1054E0001A8003F0F7FF7F210B2003F0F3FFFDF795
:1054F00014BE784B002107201C8003F0EBFF7F21B6
:105500000B2003F0E7FFFDF703BE734B00227F2162
:1055100007201A8003F0DEFF7F210B2003F0DAFF63
:10552000FDF70FBE6D4B1A88182A13D03B68134441
:10553000A3F118007F2840F364810C20973B93FB74
:10554000F0F200FB123303F17300654BC0B219781F
:1055500003F0F0FF634B64491A78022A94BF0132CA
:1055600000221A701A7831F8120018287FF4AEADB4
:105570000424022A02F1010294BFD2B2002231F8BF
:10558000120018287FF4A1AD013CF2D11A70FDF78A
:1055900054BE524A1288182A12D01344A3F118009C
:1055A0007F2840F322810C20973B93FBF0F200FB15
:1055B000123303F17300C0B298F8001003F0BAFF81
:1055C000484B49491A78022A94BF013200221A70C6
:1055D0001A7831F8120018287FF4DCAD0424022A6E
:1055E00002F1010294BFD2B2002231F81200182851
:1055F0007FF4CFAD013CF2D1C7E5384B1B88182BA7
:1056000012D099F800201344A3F118007F2840F32A
:10561000E9800C20973B93FBF0F200FB123303F17F
:105620007300C0B203F0AAFF2E4A2F4B127833F852
:105630001230182B7FF4ECACFDF76BBCFBF70CF8C9
:105640003BE4FBF709F8FFF791BBFBF705F8FFF721
:10565000D0BA264B1B88182B12D099F8002013447F
:10566000A3F118007F2840F3C6800C20973B93FBE2
:10567000F0F200FB123303F17300C0B203F07EFFBF
:10568000184A1B4B127833F81230182B3EF4D6A868
:1056900099F800201344A3F118007F287EF7A8AFE3
:1056A0000C20973B93FBF0F200FB123303F17300E5
:1056B000FEF790BFFAF7D0FF1EE600BF289DFF1F40
:1056C0009C9EFF1F4C9EFF1F00250100CA9CFF1FD0
:1056D0003A9DFF1F929EFF1F949CFF1FC49CFF1FBB
:1056E000209DFF1F8C89FF1F349EFF1FB89CFF1F4A
:1056F000B89EFF1FB09CFF1FFAF7AEFFC6E5FAF792
:10570000ABFFFFF7A0BAFAF7A7FF1FE5FAF7A4FF70
:10571000B9E4FAF7A1FF56E6404ADFF81CB1128857
:10572000BBF80010033291427FF750AE27E6FAF73C
:1057300093FF62E4FAF790FFFFF7AFBAFAF78CFF36
:105740000DE4FAF789FFFFF765BB354B1B88182B73
:1057500011D099F800201344A3F118007F284DDDE3
:105760000C20973B93FBF0F200FB123303F1730024
:10577000C0B203F003FF2B4A2B4B127833F81230E0
:10578000182B85D1FEF75AB8284B1B88182B11D03F
:1057900099F800201344A3F118007F281FDD0C2086
:1057A000973B93FBF0F200FB123303F17300C0B29E
:1057B00003F0E4FE1B4A1E4B127833F81230182B0C
:1057C0007FF466AFFEF73AB8FAF746FF3EE5FAF720
:1057D00043FFFFF7F5BAFAF73FFFFFF797BBFAF77A
:1057E0003BFFE4E7FAF738FF1BE7FAF735FFE2E69D
:1057F000FAF732FF0FE6FAF72FFF3EE7FAF72CFF32
:10580000B6E7FAF729FFA0E6FAF726FF2BE6094BE1
:105810000293FDF713BF0A60FDF7F9BBCA9CFF1F97
:10582000C49CFF1F8C89FF1F349EFF1FC29CFF1F5B
:105830002C9EFF1F469DFF1FB09CFF1F38B507F031
:1058400071FE0B4805F0A8FD00234FF07E520121A8
:105850000848FAF70BFE084B084A0949802400253E
:105860001C7118461D60BDE838400BF05FBC00BFDE
:10587000389DFF1F709EFF1FFC9EFF1F1C89FF1F8E
:10588000FD05000010B50446A4206368198803F0E4
:105890007BFFE368A6201988BDE8104003F074BFC1
:1058A00043682A20198803F06FBF00BF10B5044673
:1058B00022206368198803F067FFE36824201988B1
:1058C000BDE8104003F060BF10B504460A206368CD
:1058D000198803F059FFE3680C201988BDE81040CF
:1058E00003F052BF10B5044606206368198803F020
:1058F0004BFFE36808201988BDE8104003F044BF5F
:1059000010B5044602206368198803F03DFFE36880
:1059100004201988BDE8104003F036BF70B50E4C66
:1059200084B01225042201230646039002932046E8
:105930008DE824001423102106F032FF06220923EB
:10594000029303960195204600921423102106F03D
:1059500027FF04B070BD00BF709FFF1F70B5AE4C35
:10596000B4F90030032B00F0E880002B4DD0022B5F
:105970006CD0052B00F09880012B00F0C080042B28
:1059800000D070BD00244FF4AF75E1B2A34805F01C
:105990006BFD01348542A8BF05460C2CF5D10120D2
:1059A00008F040FE0446002008F03CFE323CA0F126
:1059B00032039B496FF4957000FB03F300FB04F086
:1059C00081FB034281FB0041DB17C017C3EB62235D
:1059D000C0EB612003F5AF7200F5AF739342A8BF2F
:1059E00013469D42A8BF1D46A5F11401312900F3BD
:1059F000E28040F26C7332218A488B4A0180BDE814
:105A000070402A20136003F0BFBE0E2007F0EEFCAA
:105A100040F6FF71C8308842A8BF084620EAE0700F
:105A200000F2DC5283B28A42804D814EA8BF0A4602
:105A30000220194633802A8003F0A6FE298804201C
:105A400003F0A2FEB4F90030022B92D1172008F027
:105A5000E9FD0546162008F0E5FDA842B8BF284636
:105A600000F1C801B1F5FA7FC0F2BF80B1F57A6FDD
:105A7000A8BF4FF47A6101F54873B3F57A6FA8BFF8
:105A80004FF47A639BB289B26A4A6B4D11800A2047
:105A90002B8003F079FE29880C2003F075FEB4F901
:105AA0000030052B7FF468AF0F2008F0BBFDC0F578
:105AB0003F630433B3F5AF6FC0F28F80B3F5FA6F75
:105AC000A8BF4FF4FA6399B25C4BC0F54360B0F5E0
:105AD000AF6F19807EDBB0F5FA6FA8BF4FF4FA60A4
