:1000000000800020BD010000DDCA000095CA00008C
:1000100095CA000095CA000095CA000095CA000064
:1000200095CA000095CA000095CA0000DDCA00000C
:10003000DDCA000095CA00005DC1000061C2000079
:10004000DDCA0000DDCA0000DDCA0000DDCA000014
:10005000DDCA0000DDCA0000DDCA0000DDCA000004
:10006000DDCA0000DDCA0000DDCA0000DDCA0000F4
:10007000DDCA0000DDCA0000DDCA0000DDCA0000E4
:10008000DDCA0000DDCA0000DDCA0000DDCA0000D4
:10009000DDCA0000DDCA0000DDCA0000DDCA0000C4
:1000A00099A60000A5A60000DDCA0000DDCA000078
:1000B000DDCA0000DDCA0000DDCA0000DDCA0000A4
:1000C000DDCA0000DDCA0000DDCA0000DDCA000094
:1000D000DDCA0000DDCA0000DDCA0000DDCA000084
:1000E000DDCA0000DDCA0000DDCA0000DDCA000074
:1000F000DDCA000049EB0000DDCA000075EC00001D
:10010000DDCA0000B5D40000DDCA0000DDCA000071
:10011000DDCA0000DDCA0000DDCA0000DDCA000043
:10012000DDCA0000DDCA0000DDCA0000DDCA000033
:10013000DDCA0000DDCA0000DDCA0000DDCA000023
:10014000DDCA0000DDCA0000DDCA0000DDCA000013
:100150004DC3000061C3000075C3000089C30000E7
:10016000DDCA0000D1D70000DDCA0000DDCA0000F2
:10017000DDCA0000DDCA0000DDCA0000DDCA0000E3
:10018000DDCA0000DDCA0000DDCA0000DDCA0000D3
:10019000DDCA0000DDCA0000DDCA0000DDCA0000C3
:1001A000DDCA0000DDCA0000DDCA0000DDCA0000B3
:1001B000DDCA0000DDCA0000DDCA0000564B4CF26B
:1001C000205210B51A804DF628121A8000BF00BFC9
:1001D0000CF088FC514B4FF010621A60504A9A6044
:1001E000504ADA60504A136813F4807304D14F49BF
:1001F0000B604FF4A85313604D4B1A78110703D5C9
:100200001A7842F008021A704A4B4B492A221A7097
:100210004A4A4B4B8B4204D252F8040F43F8040B6A
:10022000F8E7484B484900228B4202D243F8042B9E
:10023000FAE74649464A002352F8230041F82300D2
:1002400001336F2BF8D1434B434A802103F8011B44
:100250009342FBD1414B3D4A1A60414B8A221A70AE
:10026000A3F5805324225A70A0221A709A7992071B
:10027000FCD59A79D406FCD43A4A937903F00C035E
:10028000082B384BF9D103221A7140225A719A79FE
:100290009006FCD5334A9179324B4906FBD5324A58
:1002A000324911600221516020221A709A7902F0BD
:1002B0000C020C2AFAD12E4B2E4A1A602E4B2F4AD2
:1002C0001A6000225A60072243F8042C2C4AC3F813
:1002D0000C2D62B60CF0B6FF144B1B68DA0705D57F
:1002E00028480CF083FD284B284A1A60284B1B78BD
:1002F0005B0609D5244C254B22689A4204D121483B
:100300000CF074FD002323600FF06EFF0CF0F0FB87
:100310000CF01EFBFEE700BF0E20054030800440BD
:10032000823F04000100002B10D0034014D0034092
:1003300002D0074000E007405C9BFF1F5C3A0100D1
:100340004088FF1F5C9BFF1F4CA3FF1F0082FF1F05
:100350000000000000E400E05FE400E008ED00E0E1
:100360000050064000400640448004400000030165
:1003700004800440C010050014E000E0FF76010096
:100380000000202078D83C5F1CE00340A5C3945AAD
:1003900000F00740FFFFFFFFFFFFFFFFFFFFFFFF32
:1003A000FFFFFFFFFFFFFFFFFFFFFFFFFFFFFFFF5D
:1003B000FFFFFFFFFFFFFFFFFFFFFFFFFFFFFFFF4D
:1003C000FFFFFFFFFFFFFFFFFFFFFFFFFFFFFFFF3D
:1003D000FFFFFFFFFFFFFFFFFFFFFFFFFFFFFFFF2D
:1003E000FFFFFFFFFFFFFFFFFFFFFFFFFFFFFFFF1D
:1003F000FFFFFFFFFFFFFFFFFFFFFFFFFFFFFFFF0D
:10040000FFFFFFFFFFFFFFFFFFFFFFFFDEF9FFFF23
:1004100010B5054C237833B9044B13B10448AFF33E
:1004200000800123237010BD5C9BFF1F00000000B3
:10043000603A0100084B10B51BB108490848AFF3FA
:1004400000800848036803B910BD074B002BFBD0A0
:10045000BDE81040184700BF00000000609BFF1F70
:10046000603A01005C9BFF1F0000000038B50446A5
:10047000104621700A491D460FF098FC01464FF0C6
:100480007E500FF047FD07490FF090FCE56060607B
:10049000256165610CF066FEE061204638BD00BF55
:1004A000DB0FC9400024744938B50446104621705A
:1004B00009491D460FF07AFC01464FF07E500FF0BF
:1004C00029FD06490FF072FCE560606025616561F9
:1004D0000CF048FEE06138BDDB0FC94000247449D0
:1004E00038B503780446032B20D8DFE803F01A1848
:1004F0001002C16840690FF04FFB0D490546606866
:100500000FF008FD014628460FF004FD38BD0849EC
:1005100040680FF0FFFCE1680FF048FC38BDC06890
:1005200038BDC16840690FF037FB38BD002038BDC9
:100530000024744970B504460E460CF013FE0546BF
:10054000E069281A0FF0DEFBE3682361E56166616C
:10055000A061014660680FF0DDFC0146A060104814
:100560000FF0D8FC0EF0AEFF0EF04EFC0FF0C0FA0C
:10057000054601464FF07E500FF00EFB61690FF00B
:1005800015FC2169064628460FF010FC014630464E
:100590000FF004FBE0602046BDE87040FFF7A0BF0D
:1005A000000080BF08B50E200CF0ACF8114B1B8882
:1005B000012B19D0104B1B88984213DB40F6FF71BA
:1005C0008842D4BFC3EB0001C3EB0101C1EB013191
:1005D000C3F57F630F33282091FBF3F1BDE808409A
:1005E0000CF016BC0021F3E70146BDE808401420DA
:1005F0000CF00EBC909DFF1F289CFF1F10B50446F9
:100600000BF082FE204610BD70B44C88A04220D969
:1006100001230133DBB21CB2660031F8144084427E
:100620001D46F6D3A04211D005F10045013D965B71
:1006300031F8151032F81530401AF21A00FB02F0AA
:10064000641A90FBF4F4E01870BC7047905B70BCC7
:10065000704702260125E5E700280CDA064A4342E6
:1006600082FB0320DA17C2EB600000EB4000A3EB33
:100670008000C0F10C007047ABAAAA2AF0B40E8823
:1006800086420DD203F10043013B31F813508542FD
:1006900002D9F0BCFFF7B8BF32F81300F0BC7047C6
:1006A0001088F0BC704700BF094B1B880C2B09D881
:1006B000084A80B252F8232028B143F6FE739842CC
:1006C00003D9108C7047108870470349FFF79CBF0F
:1006D000AE9BFF1F2015010024170100374A38493F
:1006E0001088384AF8B5384B12881B68834248DBBB
:1006F0009342A8BF134698420B60C8BF002342DD57
:10070000101AB0F5804FAABF9B03C3EB83330130AF
:1007100093FBF0F0FFF7C8FF2C4B2D4F1C883B6874
:10072000C0F3C61505FB04F47F2CA8BF7F249D42AF
:10073000064608D0274B1B88002B38D1264B1B8838
:10074000002B30D13D60254D2B689E4205D0214BBA
:100750001B885A1F032A1DD92E60214D2B689C42ED
:100760000ED0204B188848B11A4B1F4A1B88D35C07
:10077000834203D0C0B2E1B208F0E6F82C60F8BDC5
:10078000F8BD034608609A42D4BFC0EB0203C0EB39
:100790000303B5E7144AD05C2030C0B206F07F01F5
:1007A00008F0D2F8D8E7284608F042F9CAE70E4A1E
:1007B0002946D05C08F0C8F8C0E700BF289CFF1F9E
:1007C000809BFF1FE49DFF1F8C9DFF1F949BFF1FBD
:1007D000DC9BFF1F729DFF1F1E9CFF1FA89BFF1F1E
:1007E000209CFF1FC49DFF1F9889FF1F2DE9F04F1C
:1007F000172089B00CF0CAFEAF4B186016200CF021
:10080000C5FEAE4BAE4A1B8810600C2B00F03B813E
:10081000AC4BAD4A19880093AC4B52F821400022F2
:100820001A70AB4BAB4D1B88AB4A2E88013B32F99B
:100830001370002E5CD0A94BA94A1B88A9491278D5
:10084000013B31F91380002A40F0DF8011200CF0C9
:100850009DFEA54B0193D3F800A00646B24540F398
:10086000DF80A24BDFF8A4921B88A14A012BD9F8A4
:100870000030B2F800B09F4A02922046C8EB03084D
:1008800000F09A820FF03EFA029A52F82B100FF005
:100890008DFA014600200FF07FF90FF04DFCCAEBF6
:1008A0000802B045B8BFB0469042CAEB080880F2D3
:1008B000968200FB0888013298FBF2F08E4BDFF83D
:1008C00050820293D8F80030034403EBD3735B10DB
:1008D000C8F800302B88012B12D1884BDFF834B2D6
:1008E0000393874BDBF8005004934FF0000A47E076
:1008F0007D4B0193DFF814927F4BDFF81482029353
:100900007E4B03931D460F200CF040FE2B6898424F
:10091000824641DA754A1288012A00F01D82744A23
:1009200005931288734D049220460FF0EBF9049A58
:10093000DFF8E0B155F82210DBF800500FF036FA7E
:10094000014600200FF028F90FF0F6FBEF1B059B86
:100950005745A7EB0302B8BF5746FF1A9042BABFEC
:10096000013200FB0777474397FBF2F7D8F80020E6
:10097000634B0493BB1803EBD3735B10C8F80030D0
:10098000604B1B88013B032B00F2B082DFE813F0C1
:100990006301A901C4008601594B04931B68984266
:1009A00040F3C281514A1288012A00F0A682504ABF
:1009B000079311884F4A0691204605920FF0A2F93D
:1009C000059A0699DFF84CB152F82110DBF8005077
:1009D0000FF0ECF90FF0B0FB079B2F445745A7EB46
:1009E0000302A8BF5746FF1AD8F800309042BABF9A
:1009F00000FB07770132474397FBF2F73B4403EBD9
:100A0000D3735B10C8F80030BAE715200BF07AFEFC
:100A1000354B0193D3F800A00646B2453FF721AF0E
:100A2000354B0293D3F800A0B24580F289812F4B59
:100A3000DFF8D8901B882E4A012BD9F80030B2F885
:100A400000B02C4A03922046984400F070820FF0C8
:100A500059F9039A52F82B100FF0A8F90FF06CFB1C
:100A6000B045CAEB0802A8BFB046CAEB08089042DE
:100A7000B6BF00FB088800FB08F8013298FBF2F0D3
:100A8000DFF88C801EE7204B1B78002B3FF4C0AEB4
:100A90000C4B0D4A198800930C4B52F8210001228F
:100AA0001A700FF02FF94FF07C510FF07FF90FF013
:100AB00043FB0446B5E600BFD49BFF1FBE9DFF1F4E
:100AC000049EFF1FD89BFF1F5889FF1F8A9BFF1F93
:100AD0002089FF1F2C9DFF1F0C190100A889FF1FF3
:100AE000A29DFF1F00170100089EFF1F0C9CFF1F07
:100AF000C89BFF1F24190100009CFF1FB09DFF1F12
:100B0000249DFF1F2E89FF1F709DFF1F789BFF1FD5
:100B1000C89DFF1FAC9DFF1F28460FF0F3F8B24998
:100B20000FF044F9054650460FF0ECF8AF490FF0CE
:100B30003DF9014628460FF031F80FF0FDFA054661
:100B4000CBF80050D9F800000FF0DCF8A6490FF000
:100B50002DF9074630460FF0D5F8A4490FF026F9D5
:100B6000014638460FF01AF80FF0E6FAC9F800000F
:100B70009F4AA04B168819889F4AA04B12681B8871
:100B80009F4FC6EB050E3544039EC6F800E0461A9B
:100B9000084404990D6001990E6002993E8808602E
:100BA0009A4280F289810025C3EB060E954974456F
:100BB0000F6880F27681611C9F4205FB01F50EF102
:100BC000010E95FBFEF5C0F2BE81BE42A8BF3E46B7
:100BD000F61A01FB06F494FBFEF49A4200F3368108
:100BE000BB42C0F23381884C20680FF08BF88749F4
:100BF0000FF0DCF886490EF0D1FF0FF09DFAA0F55A
:100C0000FF531C3B082B98BF4FF40050D8F800301E
:100C1000184400282060C0F24281B0F5804F80F275
:100C200052817C4B1B781BB1B0F5005F40F05381C3
:100C3000794D2B78002B40F05481784D20682B683B
:100C4000714C984204D080B207F05CFF23682B609F
:100C500009B0BDE8F08F28460FF054F870490FF046
:100C6000A5F8054650460FF04DF86E490FF09EF876
:100C7000014628460EF092FF0FF05EFA0546CBF8CB
:100C80000050D9F800000FF03DF865490FF08EF8DC
:100C9000074630460FF036F862495FE728460FF006
:100CA00031F85A490FF082F8054650460FF02AF8FD
:100CB0005D490FF07BF8014628460EF06FFF0FF0FC
:100CC0003BFA0546CBF80050D9F800000FF01AF8AF
:100CD0004E490FF06BF8074630460FF013F85249B3
:100CE0003CE728460FF00EF850490FF05FF8054634
:100CF00050460FF007F84E490FF058F801462846C5
:100D00000EF04CFF0FF018FA0546CBF80050D9F85A
:100D100000000EF0F7FF45490FF048F8074630464F
:100D20000EF0F0FF424919E7D8F80030DFF810B1B3
:100D300003EBD3735B10DBF80050C8F800301FE6FC
:100D4000DFF80081DFF80091D8F8003003EBD373AF
:100D50005B10C8F80030BDE5364A06931188364A64
:100D6000059120460492DFF8D8B00EF0CBFF049A2C
:100D70000599DBF8005052F821100FF017F80FF02A
:100D8000DBF9EF1B069B5745A7EB0302B8BF57469D
:100D9000FF1AD8F800309042BABF013200FB077743
:100DA000474397FBF2F73B4403EBD373234A049288
:100DB0005B10C8F80030E3E50EF0A4FF029A52F889
:100DC0002B100EF0F3FF0FF0B7F9CAEB0802B04595
:100DD000B8BFB0468242CAEB08083FF76AAD00FBD5
:100DE00008F898FBF2F069E5CDCC4C3FCDCC4C3EF9
:100DF000A489FF1F2C89FF1FD49BFF1F889DFF1F05
:100E0000C09BFF1F049EFF1F8C89FF1F9A99193FEB
:100E1000CDCC4C45BA9EFF1F1D9CFF1F2489FF1F90
:100E20003333733FCDCC4C3DCDCCCC3E6666663F74
:100E3000CDCCCC3DC89BFF1F24190100249DFF1F72
:100E4000AC9DFF1FC89DFF1F789BFF1F009B1B8849
:100E5000002B3FF4C8AE2B1B002BB8BF5B42092B05
:100E600047DD05F500500130001B0EF04BFF3B49FC
:100E70003B4C0EF09BFF054620680EF043FF3949BE
:100E80000EF094FF014628460EF088FE0FF054F94C
:100E9000D8F80030184400282060BFF6BEAE00220B
:100EA00013E09F4205FB04F5B8BF002195FBFEF55A
:100EB0004BDA91FBFEF490E6B242D4BFC3EB0205DD
:100EC000C3EB060570E643F6FF72274B22601B78E2
:100ED000002B3FF4ADAE04F0B3FF244B01221A7097
:100EE000ABE604F0A9FF00232B70A6E6D9F80000BA
:100EF0003EE64FF400501A4C88E61D491D4A069301
:100F000020460D8805920EF0FDFE059ADFF868B0C8
:100F100052F82510DBF800500EF048FF0146002083
:100F20000EF03AFE0FF008F92F44069B56E50EF03E
:100F3000E9FE039A52F82B100EF038FF014600200C
:100F40000EF02AFE8AE51E4642E6B742D4BFC3EB46
:100F50000701C3EB060104FB01F1AAE7CDCCCC3EAF
:100F60008C89FF1F9A99193FBA9EFF1F1D9CFF1F76
:100F7000C89BFF1F24190100AC9DFF1F08B5244B1F
:100F80001B88FBB1234B1B78FBB1234B1B78E3B1D0
:100F9000224B1B78CBB1224B1B78B3B1214B22489B
:100FA0001A78C2B9214A2249008812880968024485
:100FB000B1EB620F09DD01221A706420BDE8084020
:100FC00004F052BF174A117801B908BD1370BDE88B
:100FD000084007F061BD154A164900881288096863
:100FE0000244B1EB620FF0DD00221A7007F054FDED
:100FF000642004F039FF642004F036FF642004F01C
:1010000033FF4FF41670BDE808400CF0CDB800BFB8
:101010002E9DFF1F0F9EFF1FDE9DFF1FDF9DFF1FE9
:10102000E09DFF1FAC9BFF1FC09BFF1F889DFF1F04
:10103000D49BFF1F049EFF1F38B5114C2320257839
:101040000BF060FB0F4A42F82500131F02F1C400A9
:10105000002253F8041F83420A44FAD123780A4934
:1010600007480A4C0133DBB2322B81FB025108BF27
:101070000023D217C2EB21120370226038BD00BFDB
:10108000969BFF1F389CFF1F1F85EB51849DFF1F00
:101090002DE9F04FB84CB94D2068B94F83B00EF030
:1010A00031FEB8490EF082FE064610200CF06EFAB2
:1010B0000EF028FEB4490EF079FE31460EF06EFDBA
:1010C0000FF03AF82988206088423B8843DA9E4630
:1010D0005B1A7F2B4FF0000247DDD2015E1C92FBB2
:1010E000F6F2AA4EDFF8C882B6F800C0C8F80020B1
:1010F000BCF1190F00F0DF80BCF11A0F00F017816E
:10110000BCF11E0F00F020810126B146A04A1288D2
:10111000002A00F09D808842C0F207817045D4BF4C
:10112000C1EB0000C1EB0E009A42BABF02FB000007
:101130000133504390FBF3F3964A1360964B1888A3
:10114000C0B9964A1288AAB9954B197801B11A709C
:1011500003B0BDE8F08F9842D4BFC1EB0002C1EBF1
:1011600003029E465B1A7F2BB7DCC2EBC21292FBD6
:10117000F3F2B6E72988D4F800E0DFF80082DFF860
:10118000F8A171456CDCDFF818C29CF80020002A39
:101190002ED14FF0010B04288CF800B028D1002E7E
:1011A00040F094817D4B18880028D1D0B9F1000F10
:1011B000CED023682C883A88A34280F26581002330
:1011C000141B7E2C774DD5BFC3EB8313C3EBC31326
:1011D0005B00013493FBF4F42B680134A34203D089
:1011E000C0B2E1B207F0B0FB2C6003B0BDE8F08FF5
:1011F000012800F0F680022800F0EB800328D1D10E
:10120000694B1B88092BCDD0002ECBD023682E88AC
:101210003A88B34280F27B810023961B7E2EDFF852
:101220008CA1D5BFC3EB8313C3EBC3135B000136A3
:1012300093FBF6F6DAF800300136B34203D0F1B290
:101240004A2007F081FBCAF80060ABE716469146DA
:10125000BCF11E0F7FF472AF0022DFF858817EE0F0
:101260004F4B1A78002A3FF473AF002401281C70FA
:1012700000F0A480022840F00E81002E00F0A38030
:101280004A4D2B68002B00F09E800420214607F079
:101290005BFB424B2C60188800283FF459AFB9F132
:1012A000000F3FF455AFC0B2002107F04DFB3D4B9E
:1012B00000221A604CE7DFF8FC8098F80020C2B1E9
:1012C000DFF8D890B9F800A0BAF1000F11D0DFF81C
:1012D000E89099F800B0934578D05FFA8AF07F21C2
:1012E00007F032FB98F80030B6F800C089F80030FB
:1012F00010E0DFF8C49099F800A0924566D0274B23
:101300000021187807F020FB98F80030B6F800C0EC
:1013100089F800301E4B1A88002A97D0BCF11E0FA6
:1013200040F006810026B14619E00020FCE6DFF817
:10133000848098F80020002A0BBF012600264FF079
:1013400000094FF00109E1E6DFF86880104B98F8DA
:1013500000601A88B6FA86F676094FF0000998F808
:101360000030002B3FF4E8AE2988B7F800E0206891
:10137000C1EB0E03CFE600BFCC9BFF1F349DFF1FC8
:10138000309DFF1F9A99193FCDCCCC3EBE9DFF1FCB
:10139000EC9DFF1F309CFF1FD29BFF1FCE9DFF1FA8
:1013A000C79DFF1FB49BFF1F729DFF1F349CFF1F33
:1013B000A49DFF1F709DFF1F9A9BFF1F1EB1614DD3
:1013C0002B68002B7BD1604B188865E70026B1465F
:1013D0009CE6002E3FF4E6AEDFF868A1DAF80020C4
:1013E0002EE0002E3FF4DEAEB7F80080F045D4BF0B
:1013F000C1EB0802C1EB0E02C1EB0808B8F17E0F89
:10140000DFF840A1D5BFC2EB8212C2EBC21252007C
:1014100008F1010892FBF8F8DAF8002008F1010859
:10142000424506D05FFA88F10120009307F08CFA5C
:10143000009B1888CAF8008002287FF4DFAE42467D
:101440002168B5F800803888414559DA0021C8EB99
:101450000008B8F17E0FD3BFC1EB8111C1EBC11100
:1014600008F10108490091FBF8F808F101089045DE
:1014700006D05FFA88F10420009307F065FA009B1C
:101480001888CAF80080B9E69342D4BFC4EB0303BE
:10149000C4EB020394E6032827D12C4B1B88092BAD
:1014A00091D0002E8FD0274D2B68002B8BD04A2057
:1014B000214607F049FA244B2C601888ECE62146B7
:1014C00007F042FA204B2C601888E5E640207F2187
:1014D0008DE80C0007F038FA019B009A18885845EF
:1014E0001CD002287FF48AAE76E704287FF46BAF25
:1014F000002E3FF468AF2146402007F025FA62E74E
:101500008142D4BFC8EB0101C8EB00019FE79342C1
:10151000D4BFC6EB0303C6EB02037EE6B8F80010A7
:10152000DAF800E0B7F800808E45FFF665AF5DE7BA
:101530002988B7F800E020680026C1EB0E03B14609
:10154000E9E500BF349CFF1FCE9DFF1F729DFF1F6A
:1015500008B5114B1B88022B09D0052B07D0032B94
:1015600015D0042B0BD00D4B01221A7008BD7F2122
:10157000412007F0E9F9094B01221A7008BD7F21CB
:10158000092007F0E1F9054B01221A7008BD40213E
:10159000092007F0D9F9E6E72E9CFF1FEC9BFF1FFF
:1015A00038B5244B1B881D2B40D0234B1B88012BA7
:1015B00025D0224A224B14881B68224AA342128853
:1015C00028DB214909889342D4BFC4EB0303C4EB51
:1015D0000203121B914224DA01FB0333541C93FBD8
:1015E000F4F41A4B1A4D1B88052B06D02B689C422D
:1015F00003D0E1B2052007F0A7F92C6038BD154BE8
:10160000154A1B681488154AC3F53B630833A34287
:101610001288D6DA0C490988121B91424FF0000358
:10162000DADB03FB01F393FBF2F4DAE7064B1C88E9
:10163000D7E700BFBE9DFF1F2C9DFF1FA89DFF1F6A
:101640008C9BFF1FBC9DFF1FC29DFF1F2E9CFF1F79
:10165000849BFF1F389DFF1F2C9CFF1FAA9DFF1F0F
:1016600038B5124D124C2B88052B12D022684AB97E
:10167000022B0ED0033B012B13D90E4A002313700B
:10168000236038BD0021052007F05EF92B88022B6E
:1016900004D10021412007F057F9EEE7052BE9D1ED
:1016A000F7E70021092007F04FF9E6E72E9CFF1F1E
:1016B000849BFF1FEC9BFF1F08B5284B1B78ABB129
:1016C00015200BF01FF8264A264B128818601D2A99
:1016D00015D0254A1288DAB1012A2BD0234B1B786A
:1016E000002B3AD0BDE80840FFF7BABF11200BF03D
:1016F0004DFF1B4A1B4B128818601D2AE9D11C4B59
:101700001B88002BEAD01B4B1B78002BE6D008E08F
:10171000174A1288002AE1D0174A1B6812889A4299
:10172000DCDC124B1B780BB9FFF712FFBDE8084059
:10173000FFF736BF0F200BF029FF0D4B0F4A1B8818
:10174000106033B10E4BC0F53B601B8808309842E7
:10175000E7DA064B1B78002BC4D108BDA29DFF1F02
:10176000BE9DFF1F8C9BFF1F2C9DFF1FEC9BFF1F2F
:101770002E9CFF1F709DFF1FA89DFF1F389DFF1F00
:101780002C9CFF1F38B510200BF000FFC830B0F5BF
:10179000FA7FC0F2EF80B0F57A6F0146A8BF4FF430
:1017A0007A6101F51673B3F57A6FA8BF4FF47A63C7
:1017B0009BB289B28E4A8F4C11802220238007F081
:1017C00047FA21888C4D8D4C242007F041FA0E20D9
:1017D0000AF098FF40F6FF71C8308842A8BF08465B
:1017E00020EAE07000F5FA6283B28A42A8BF0A4696
:1017F0000220194622802B8007F02AFA2188042033
:1018000007F026FA17200BF0C1FE044616200BF055
:10181000BDFEA042B8BF204600F1C801B1F5FA7F75
:10182000C0F2A380B1F57A6FA8BF4FF47A6101F5D9
:101830004873B3F57A6FA8BF4FF47A639BB289B24D
:101840006F4A704C11800A20238007F001FA21882A
:101850000C2007F0FDF90F200BF098FEC0F53F615A
:101860000E31B1F5AF6F7DDBB1F5FA6FA8BF4FF464
:10187000FA6189B2C0F54460634B0E30B0F5AF6FCA
:1018800019806CDBB0F5FA6FA8BF4FF4FA6083B231
:101890005E4CA420238007F0DBF9A620218807F006
:1018A000D7F90B200BF04AFC002868D011200BF070
:1018B0006DFE00F1C801B1F52F7F6EDA40F21453CE
:1018C0004FF42F71524A1180524C0620238007F0AA
:1018D000BFF92188082007F0BBF900244FF4AF7549
:1018E000E1B24D4808F04CFF01348542A8BF0546DF
:1018F0000C2CF5D101200BF049FE044600200BF022
:1019000045FE323CA0F1320344496FF4957000FB70
:1019100003F300FB04F081FB034281FB0041DB1772
:10192000C017C3EB6223C0EB612003F5AF7200F573
:10193000AF739342A8BF13469D42A8BF1D46A5F1B1
:101940001401312938DC40F26C7332213448354AB5
:10195000018013602A20BDE8384007F079B94FF4C0
:10196000AF6395E74FF4AF6184E740F214534FF44F
:10197000FA7165E740F24C434FF4FA711AE715200B
:101980000AF0C0FE00F59671B1F52F7F96DB41F2AB
:101990005C2399421FDD194694E741F25C2399428A
:1019A000F9DC1B4A00F5487089B2B0F52F7F118031
:1019B00019DA4FF42F7387E740F23A72A5F5B9753B
:1019C000194B02FB05F583FB0523ED17A5EB63130C
:1019D00089B23233BAE70E4A00F5617089B2B0F5C8
:1019E0002F7F1180E5DB8342A8BF03469BB26BE7E4
:1019F000349DFF1F309DFF1F289CFF1FE49DFF1F8C
:101A0000889DFF1FC09BFF1F2C9CFF1FAA9DFF1FCF
:101A1000A89DFF1FBC9DFF1F1C9CFF1F67BBCF46DF
:101A2000DC9DFF1F9489FF1FB5814E1B2DE9F84FE8
:101A30000C200AF033FE0C200BF0E8FAA149142028
:101A40000BF0F4FAA049A14808F02CFB0221032076
:101A50000BF082FB022104200BF07EFB022105200B
:101A60000BF07AFB022106200BF076FB01210A2005
:101A70000BF072FB012109200BF06EFB01210D2000
:101A80000BF06AFB012128200BF066FB01211420DA
:101A90000BF062FB02210B200BF05EFB01210C20FE
:101AA0000BF05AFB0C2000210BF042FB04200BF042
:101AB00045FB70B305200BF041FB044680B30024C6
:101AC0002046834D287005F0D1FC2B78EBB92046D9
:101AD00007F0E8F87F4B80491B88804D0988804AD1
:101AE0002970A3F5AF7140F23A7303FB01F382FB57
:101AF0000312DB177B4E7C48A3EB621332335A216F
:101B0000336008F079FE90B9FEE7BDE8F84F08F0C1
:101B1000D9B906200BF012FB0028CBD10124D0E765
:101B200003200BF00BFBB0FA80F04009C9E76F4AC5
:101B30006F481268DFF800B200230121FEF7B4FC01
:101B40000B200BF0FBFA011E0CBF012300238BF8C6
:101B5000003002D111200BF0FFFADFF8A091654FA1
:101B6000DFF8D881644E0023C9F800303B60C8F824
:101B700000304FF0040A14E00AF0C4FD3B6818443A
:101B800038600AF0010080F0010004F05DF933884C
:101B9000002B14BF4B20DC200BF006FBBAF1010A2E
:101BA0001BD00F200BF0F2FCD8F8003003440E20BD
:101BB000C8F800300AF0A6FDD9F800309BF80020E4
:101BC0000344C9F800301520002AD5D111200BF0AC
:101BD000DDFC3B6818443860D3E7D8F80030D9F80A
:101BE000002046493868DFF858E1DFF858C1002B7B
:101BF000B8BF0333002AB8BF033292100A604049CD
:101C0000404A098812880028B8BF03309B10801012
:101C100038605F1A1944CEF80070CCF80010DFF875
:101C200028E1394F3949C8F80030C2EB000C0244B2
:101C3000CEF800C03A600B600CB1FFF7A3FD33880B
:101C40005BB94FF4FA7004F00FF904F0F9F805F0FD
:101C50001FFF4FF4AF600BF0A7FA2D4B01240420B7
:101C60001C600BF06BFA10B92A4B28701C702A4BC1
:101C70001B881C2B1CD0294C04F1C80523200AF01A
:101C800041FD44F8040F01200BF08EFAA542F5D176
:101C9000234A244B1078187006F00EFF04F0CCF89D
:101CA00045F6BF5220492148BDE8F84F0AF0E2BA94
:101CB0001F4B18880028DED01E4BC0B2197806F0E2
:101CC00043FED8E7001B374640420F006890FF1FD5
:101CD000B29BFF1FDC9DFF1FC09DFF1FFC9BFF1FD2
:101CE000B5814E1B9489FF1F1C9CFF1F2889FF1F75
:101CF000509DFF1F789BFF1F7E9DFF1F909BFF1F26
:101D0000A489FF1F2C89FF1F009CFF1FF49DFF1F4C
:101D1000B89DFF1F9E9BFF1FBE9DFF1F349CFF1F92
:101D20003C9DFF1F229DFF1FA5050000D49DFF1FA6
:101D3000049CFF1FCA9BFF1FA29DFF1FAC9DFF1F9E
:101D4000B09DFF1F249DFF1F089EFF1F2DE9F04F30
:101D50008BB007ADB54F2C460AAE611BC9B2B44873
:101D600008F00EFD3B88834294BF0020012004F858
:101D7000010BA642F1D1AF48AF4A9DF81C70AF49A4
:101D800007709DF81E00AE4D10709DF820209DF844
:101D90002430AC4EAC4C0A709DF8221029700025FE
:101DA0003370257073B9002940F00581A7491AB135
:101DB0000B78002B40F0EC81002800F0BF8102235B
:101DC000237005E0002A40F0A78005239F49237077
:101DD000DFF8D0B2DFF8D0829DF81D209DF82100F9
:101DE000DFF8C892DFF8C8A2994D9A4F9A4E0B704F
:101DF0009DF81FC09DF823109DF827309DF826E020
:101E00008BF8002088F800009DF82520297001201B
:101E10003A70337089F800C08AF800E00BF0B6FB26
:101E20008E4A8F4B11688842CCBF012200221A7063
:101E300076DD8C4B1B88182B72D88B4AB2F800E0E9
:101E40000C3B0093BEF1000F72D1884A9BF800C092
:101E500092F800B098F8008099F800209AF8009065
:101E600094F800A02C78ABEB4C0BC2EB0B0BA8EB5F
:101E7000880EDE44C9EB897BC9EB8B09DFF8F4B12E
:101E8000F14497F800E0BBF800B009EB440934785E
:101E9000CE4404FB0BEE4FF00C09754C19FB0AEE17
:101EA000C4F800E0B8F1000F0BD036784EB1714E97
:101EB0003688042E0CBF0EF1020E0EF1040EC4F88B
:101EC00000E06D4CDFF8EC912488B9F800A06B4E6F
:101ED000DFF8E4913688D9F80090009B033C04EBCE
:101EE0004404CAEBCA0A0EEB84043444D144644E61
:101EF0000C3C56F829601C44A319BCF1000F28D0F3
:101F00002C7834B3002A5AD1B8FA88F85D4C4FEADD
:101F1000581884F8008023E0062323704B4957E7C4
:101F2000514AB2F800E000230093BEF1000F8CD0BC
:101F3000BEF1010F47D0BEF1020F00F0C1804C4C42
:101F40009BF800C099F8002098F80080D4F800E0D1
:101F5000A8E74C4C002525700AB13A781ABB00223C
:101F6000494C884222704949C4BF494AC2F800E03E
:101F70000A68934213D0474A474C10680590059869
:101F8000206012680692454C069A24880B60121A4B
:101F9000A24284BF424A13600BB0BDE8F08F3E48B6
:101FA0003C4A0068EDE7BCF1000FD8D1B8F1000F52
:101FB000D5D10122D4E704232370244908E7314A0C
:101FC00000241470CBE7294A9BF800C092F800E087
:101FD00098F8008099F8002094F800B09AF80090E2
:101FE0002C780194AEEB4C0EC2EB0E0EA8EB8804DD
:101FF0007444C9EBC909D944A31EDFF878A0DFF8FF
:10200000BCE0019C97F800B05EF829E0BAF800A0A7
:1020100096F8009003EB44045C4409FB0A4909F17B
:102020001809134CCE44C4F800E03BE7DC9DFF1FC9
:102030001C9CFF1FDE9DFF1FDF9DFF1FE09DFF1FFC
:10204000E19DFF1FE29DFF1F299DFF1F329DFF1F86
:10205000109EFF1F119EFF1FC69DFF1F9489FF1F2B
:10206000709DFF1FBE9DFF1F889BFF1FA689FF1F3E
:10207000789DFF1FDA9BFF1F949DFF1F989BFF1FFA
:1020800054150100EE9DFF1FEF9DFF1FE49BFF1FF6
:10209000F89DFF1FF89EFF1F089CFF1FCC9DFF1F90
:1020A000009EFF1F0C9EFF1F0E9EFF1F0D9EFF1F19
:1020B0000F9EFF1FB49DFF1F309CFF1FD41801000F
:1020C000374A9BF800C092F800B0247899F80020B5
:1020D00098F800800394ABEB4C049AF80090314BD5
:1020E00095F800A0CDF804A0A8EB880BA41A5C44D6
:1020F0004FF0050B1BFB094B039C97F800A0CDF894
:1021000008A0C9EBC909B3F800A009EB0403BDF8A6
:102110000490029C0BF1050B1EFB09BE96F800B063
:10212000DFF8A490A6440BFB0AEE59F823901E4C4E
:102130000EF10C0ECE44C4F800E0B3E65FBB0B78A2
:10214000012B2BD9194A23701288002A3FF440AE84
:10215000174A1288013A92B2062A3FF639AE154A5A
:102160001278002A3FF434AE134A1268012A7FF431
:102170002FAE1248124A0068124E82FB0025C21789
:10218000C2EB650202EB4202A0EB820232801FE644
:10219000032323701CE60123237019E63B4617E650
:1021A000A689FF1FDA9BFF1F789DFF1FA09DFF1FC1
:1021B0003E9DFF1F2A9CFF1FB89DFF1F009EFF1F13
:1021C000ABAAAA2A7C9DFF1FFC1A01002DE9F04F43
:1021D0003A4B1B788BB0002B6BD10E200AF092FA91
:1021E0000DF090FD01463648364E374DFEF7A2F908
:1021F0003348FEF775F90DF09FFF80F30C00306057
:10220000FFF7A4FD2C68012C7AD0022C00F0A782E5
:10221000032C00F0B5832D4E2D4C33682D4A2E4EE5
:102220000993099B316812882360591A013A914237
:10223000274F00F28F82294E32689A1A0D2A00F237
:102240008282274E32689A1A132A00F27782254E2C
:1022500032689A1A252A1AD9234B1B88002B40F082
:102260005D81224B1B78002B40F05881FEF7E4FE85
:102270001F4B1B881B3B9BB2022B04D81D4B1B78AA
:10228000002B40F04E8103F001FE236833601A4DAD
:102290002A689B1A502B00F20D82184B1B88012BC9
:1022A00000F0258206F0E4FB06F012FA0BB0BDE860
:1022B000F08F07F08FFC0BB0BDE8F08FB29BFF1FD3
:1022C000509DFF1F8C9DFF1FB89DFF1FF89EFF1F95
:1022D0004C9DFF1F9089FF1F249CFF1F149CFF1F14
:1022E000F49BFF1FF89BFF1F2E9DFF1FAC9BFF1F42
:1022F000BE9DFF1F709DFF1F409DFF1F909DFF1FF4
:10230000DFF82093A04AB9F800001378834204D084
:10231000C3B21846137006F0E7FADFF804839B4A4D
:10232000B8F800301178994204D0994F39780029D3
:1023300040F0E486974A33681288974E9A42C0F27A
:10234000FA80964A1278002A40F0F580DFF8D8A289
:10235000BAF8003023B9924B1B88002B00F0EE84B2
:10236000904A914B11881B88904A0B4412685B106D
:1023700093428F4A126880F2908400219342B4BF46
:1023800001230B4604910093ACBF4FF0010B8B4629
:1023900005910E200AF0B6F9864B874A1B6817682C
:1023A00003930133A7F25232002B8446029240F38A
:1023B000CC86802BA8BF8023804A81491278019166
:1023C000002A00F0C2800978914200F0BE80B8F87F
:1023D0000010DFF84CE2994201F0E1806C49AEF860
:1023E0000030784B4FF0010E81F800E01978DFF8EB
:1023F0003CE2019B8EF800101A70009B002B00F04D
:102400001781BAF80030002B00F012816E4B1B6868
:102410005A1C002A40F39D86802A00F399866B4C53
:102420006B496C482488098800682144B0EB610F2F
:10243000C1F22A83A3F148020F2A02D8473BA9F828
:1024400000300E200AF05EF96FF454731F44874287
:1024500002DC614B00221A7000200BF097F85F4AF3
:102460005F4B11685F4C1B888842D4BF0022012259
:102470002270002B00F008845B4B1C78944240D003
:1024800088423EDD59490C78002C00F01E875849DF
:1024900091F800C0BCF1000F40F01587554F009730
:1024A000554F56480297534F007887F800C0524F57
:1024B0004FF0010E87F800C081F800E0002841F0DD
:1024C000C5804F490978002900F0E1874D49039103
:1024D0000C460978002940F0D7874B48464F0078D2
:1024E000397001210297217058B14248404900904B
:1024F000002008700099029F0870039901243C7025
:1025000008701A70414B1B88A3F11B02012A40F28C
:10251000B9851D2B00F003863D4C7EE6FEF72EFDAF
:10252000A4E63C4B1B78002B3FF4ADAE2B68012B8F
:102530007FF4A9AEA9E63168374A06910698374973
:10254000106002220B602A6000E71E49DFF8DCE021
:10255000097800293FF44DAF9EF8000081423FF416
:1025600048AF03984B2840F3E1871833802BB8F825
:102570000000A8BF802398423FF43BAF2848038067
:1025800003480123037034E7229DFF1FFC9BFF1FBC
:102590009E9BFF1F289CFF1FF89EFF1FAC9BFF1FE9
:1025A0001A9CFF1FC09BFF1F889DFF1FD49BFF1F0E
:1025B000049EFF1FF89DFF1F909BFF1FEE9DFF1FB6
:1025C000E09BFF1FEF9DFF1F789DFF1F349DFF1FA6
:1025D000309DFF1FCC9BFF1F289DFF1F9489FF1F6D
:1025E0003E9DFF1FC69BFF1F7C9BFF1F0F9EFF1F73
:1025F000809DFF1FD09DFF1F2A9CFF1F109EFF1F65
:102600000C9EFF1F7D9BFF1F709DFF1FBE9DFF1F28
:102610004C9DFF1FC69DFF1FF09BFF1F489DFF1F86
:10262000C09DFF1F3C9DFF1FE89BFF1FE19BFF1FFD
:10263000029B9C45BFF605AF864B1B88002B3FF4E1
:1026400000AFBBF1000F7FF4E1AE834B1B881BB1E1
:10265000059B002B7FF4DAAE049B002B3FF4F1AE18
:102660007E4B1A78002A7FF4ECAEDFF8649299F87A
:10267000004001221A70002C40F02D83784B1B780B
:10268000002B02F0C680774B1B78002B02F09A8358
:10269000754B1B78002B7FF4D4AE744B1B78002B4A
:1026A0003FF4CFAEB8F8003071490A3BA8F80030CB
:1026B0000A70C6E604F022FF6E4B1B7873B96E4BAE
:1026C0001B785BB96D4B1B7843B96D4B1B782BB9ED
:1026D0006C4B1B7813B903F0AFFB01E003F0B8FBC0
:1026E00023682B60684B1B88012B7FF4DBAD674AA6
:1026F000674B116867481A78A1F118032A2101FB7A
:1027000003F10160002A00F0A982634C236899421A
:1027100000F3528310DA61480278002A40F07C8787
:102720005F4A1068D0F17F0048BF0330801001304D
:102730001B1A994242F3BF86216091E2FEF7BCFF6B
:102740002368336083E5FEF751F8FEF7A1FC2368A8
:10275000336076E5FDF7C2FF3B6833606BE5514AB5
:1027600034681188A14204DB464B1B78002B00F033
:102770005D834D4E4D48336807934D4B079A006873
:102780001B88121A9A4200F2A980002B00F0A68042
:10279000484B1A88002A3FF4BFAE474B47481B6896
:1027A0000088A342B8BF2346994241F36681444B57
:1027B0001960DFF8208188F80020344FFDF78EFF84
:1027C00038687F2840F371853E4B7F3883FB0032A9
:1027D000C317C3EB620303EB4303A0EB8300733027
:1027E000394B01931B883860002B40F0CA86234B7D
:1027F00000931B78002B00F0C683344C2378002B09
:1028000000F0C183DFF8D090DFF8B8A04FF0000BE4
:102810000CE003F17300C0B298F8001006F0BCF8A9
:1028200023780BF1010B5B4540F3AD833B6859F80E
:10283000040F1844A0F17F038AFB0321DA17C2EBCF
:10284000610202EB42027F28A3EB8203E1DCFDF789
:1028500003FFE0E71A9CFF1F449DFF1F289DFF1FF9
:102860000C9EFF1F0D9EFF1F0E9EFF1F0F9EFF1F42
:102870009E9BFF1F2A9CFF1F809DFF1FD09DFF1F57
:102880007D9BFF1FAC9BFF1F909DFF1F009EFF1FA6
:10289000EC9BFF1FE89DFF1FA49BFF1FD19DFF1F07
:1028A000849BFF1F289CFF1FF89EFF1FF09BFF1FAC
:1028B000189CFF1F9C9BFF1F489DFF1FE49DFF1F4F
:1028C000809BFF1FABAAAA2AD09BFF1F5489FF1F22
:1028D000299DFF1F0E9CFF1F2C89FF1F554B564A39
:1028E0001B681088554AA342B8BF2346994200F39B
:1028F0007A82534C12888342A8BF03462360002A81
:102900007FF457AF9942C8BF134640F37382401A11
:10291000B0F5804FAABF9B03C3EB8333013093FB19
:10292000F0F0FDF7C1FEC0F3C6100DF0EBF9454B1A
:10293000044618880DF0E6F94349074620460DF095
:1029400035FA014638460DF031FA21460DF026F9E8
:102950004FF07E5104460DF0C7FB002841F0718016
:102960003A4920460DF0DEFB002840F069862046FB
:102970000DF008FCC0B2DFF8F48088F800001CE716
:10298000334B34681988A14274DD324B1B78002B1D
:1029900070D1DFF8DC9099F800007F2840F338868A
:1029A000A3F155337F3803F1004383FB0032C31793
:1029B000C3EB620303EB4303A0EB83007330264BAE
:1029C00001931B88C0B289F80000002B41F03580CC
:1029D000224B00931B78002B00F0A484204C23781A
:1029E000002B00F09F841F4FDFF87C804FF0000A1F
:1029F0000AE003F17300C0B205F0F6FF23780AF194
:102A0000010A534540F38E8457F8043F99F80000BB
:102A10001844A0F17F0388FB0321DA17C2EB61029F
:102A200002EB42027F28A3EB8203E2DCFDF714FEF7
:102A3000E1E700BF489DFF1FE49DFF1F9C9BFF1F18
:102A4000809BFF1FF09DFF1FCDCCCC3D0000FE42C0
:102A5000289CFF1FAC9BFF1FD09BFF1FD09DFF1F1B
:102A60005489FF1F2C89FF1FABAAAA2A0E9CFF1FA7
:102A7000749DFF1FB34F38687F2800F3C281FDF7B4
:102A8000EBFDDFF8249399F800A0824500F0218245
:102A9000AD4B1B88002B43D1AC4AAD48126800886F
:102AA000914205DC8242D4BFC1EB0203C1EB0003BB
:102AB000411AB1F5804FA6BF9B030131C3EB8333AD
:102AC00093FBF1F0FDF7F0FDC0F3C6100DF01AF91D
:102AD000A04B044618880DF015F99F498046204602
:102AE0000DF064F9014640460DF060F921460DF005
:102AF00055F84FF07E5104460DF0F6FA002840F0EC
:102B00008F87964920460DF00DFB002840F09585F3
:102B100020460DF037FBC0B2DFF8908288F8000045
:102B2000BAF17F0F40F3BD838D48AAF17F0A80FB85
:102B30000A304FEAEA73C3EB600000EB4000AAEBF7
:102B400080007330874B00931B78C0B289F8000077
:102B5000002B40F01A83844B03931B78002B40F02A
:102B60004B85824B02931B78002B40F07E87804B75
:102B70000193029B1B78FBB17E4B1B88012B00F05D
:102B8000C385022B01F05380032B01F09281042BAB
:102B900001F09D83052B01F03E84062B01F00D868C
:102BA000072B01F0C187082B02F07880092B02F077
:102BB0008C810A2B02F0C283009B1B78002B00F053
:102BC0007684019B6A4C1988002900F0FD843868DE
:102BD0007F2840F36383624B7F3883FB0032C31747
:102BE000C3EB620303EB4303A0EB83007330386055
:102BF000002940F0AC84009B1B78002B00F075810D
:102C00005D4C2378002B00F07081DFF8A4A1DFF881
:102C10009C814FF0000B0CE003F17300C0B298F8F8
:102C2000001005F0B9FE23780BF1010B5B4540F372
:102C30005C813B685AF8040F494A1844A0F17F03AD
:102C400082FB0321DA17C2EB610202EB42027F280A
:102C5000A3EB8203E0DCFDF7FFFCDFE7474B1960E5
:102C6000474B1B68A92202FB03F3002BBCBF03F5F3
:102C70007F533F339B13543B194481F30C012820AD
:102C80000AF0C6F8FFF70EBB384C3E483549364AC5
:102C9000237003700B70137034E493424FF0000BF9
:102CA00080F2BC800123CDF800B0CDF814B00493BD
:102CB000FFF76FBB344B1B78002B7FF4C2AB039B39
:102CC000324A243B83F34703D9B25B20136005F0FB
:102CD0003BFE99F80040032C30D1DFF8D88098F8FB
:102CE0000030002B42F0BD81294F3B78002B42F091
:102CF000AB81254C2378002B42F09981254B1B7822
:102D0000002B42F08781244A1380244B1B78002B30
:102D100042F04D820C4B7F221A8098F800306BB93C
:102D20003B785BB923784BB91D4A7F21072013807C
:102D300005F00AFE7F210B2005F006FE194B1F68E7
:102D4000FFF77FBB009EFF1F9C9BFF1F809BFF1F09
:102D5000E49DFF1FF09DFF1FCDCCCC3D0000FE4247
:102D6000ABAAAA2AD09DFF1F7D9BFF1F2A9CFF1F95
:102D7000D09BFF1F3E9DFF1F5489FF1FA49BFF1F79
:102D80008C89FF1F809DFF1F0F9EFF1FBC9BFF1F95
:102D90000E9EFF1F0D9EFF1F1E9CFF1F109EFF1FFC
:102DA000729DFF1F909BFF1F749DFF1F0E9CFF1FB6
:102DB0002C89FF1F0C9EFF1FBA4A1078002840F094
:102DC0005983B94A1268D2F17F0248BF033203EB3C
:102DD000A202531CB54A23609942B8BF1160FFF6A6
:102DE0003FAF19463CE7B24B12881960002A7FF4C6
:102DF000E0AC0B469842D4BFC1EB0003C1EB030328
:102E000085E5AC4B7F3883FB0032C317C3EB62030D
:102E100003EB4303A0EB8300733032E60123CDF8CC
:102E200010B0CDF800B00593FFF7B3BA01232B60C3
:102E3000A14EA24CFFF7F1B9029B1B78FBB1A04B4E
:102E40001B88012B00F0E284022B00F06F86032B1D
:102E500001F0A580042B01F05F82052B01F0528365
:102E6000062B01F0A284072B01F00685082B01F048
:102E70004C87092B02F04A800A2B02F02882019B22
:102E80001B88002B00F06C83009B1B783BB9039BD5
:102E90001B7823B9029B1B78002B01F00080894B23
:102EA0001B78002B00F0288187490B78082B00F253
:102EB000238186483A680068854C0133DBB25F1E87
:102EC000101A44F827000B70824B3468198889F86F
:102ED0000020A142784EBFF61FAB32687E4B0892AD
:102EE000089A764C1A60FFF798B9039B1B78002B61
:102EF000A2D03B68A3F10C007F2840F36C836D489F
:102F00008B3B80FB0320DA17C2EB600000EB400034
:102F1000A3EB800303F17300DFF8D081C0B298F80F
:102F2000001005F039FD009B1B78002B84D0664C07
:102F30002378002B80D0DFF8B8A14FF0000B0CE015
:102F400003F17300C0B298F8001005F025FD237856
:102F50000BF1010B5B457FF76FAF3B685AF8040F2D
:102F6000544A1844A0F18B0382FB0321DA17C2EB09
:102F700061020C3802EB42027F28A3EB8203DFDC04
:102F8000FDF76AFBDEE74F4B1B78002B40F0EE822B
:102F90003B68524A1278002A45D0A3F10C007F28E2
:102FA00040F33383434A8B3B82FB0321DA17C2EBA6
:102FB000610202EB4202A3EB820303F17300C0B291
:102FC00098F8001005F0E8FC009B1B7853B33E4CCA
:102FD00023783BB3DFF81891DFF8D8A04FF0000B4F
:102FE0000BE003F17300C0B298F8001005F0D4FCB8
:102FF00023780BF1010B5B4514DD3B6859F8040F96
:103000001844A0F18B038AFB0321DA17C2EB61029B
:103010000C3802EB42027F28A3EB8203E1DCFDF7D0
:103020001BFBE0E73B682E4A1278FAB1244A12886B
:10303000012A00F07284022A00F07786032A01F048
:103040002F80042A01F08C81052A01F0CE82062A05
:1030500001F0D883072A01F0B484082A01F0CD8654
:10306000092A01F098870A2A02F0F980019A128849
:10307000002A00F08D821B4A104C137003232B6032
:10308000FFF7CBB8DFF86C8098F80030002B40F0E9
:103090001081154F3B78002B40F0F984074C3B70B2
:1030A000FFF7BBB8D19DFF1F849BFF1FA49BFF1F91
:1030B000809BFF1FABAAAA2AF89EFF1F4C9DFF1FF3
:1030C0003E9DFF1F809DFF1F5489FF1FA09BFF1F78
:1030D0003089FF1F289CFF1FA49EFF1F7D9BFF1FA1
:1030E0002A9CFF1F749DFF1F9A9BFF1F0E9CFF1FB2
:1030F0002C89FF1F709DFF1F3A68E5E6DBB218467A
:10310000137005F0FFFBAC4BAC491A46AC4B1846AC
:1031100000230B703B7013700370FFF70BB9DFF8DF
:10312000BC8298F80030002B40F0CF81A54F3B784F
:10313000002BB3D0A44BA54C1988A22005F088FD24
:1031400098F800303B70FFF768B80123FFF734B9F7
:1031500080249F499F4BA04A09881B8812680B4412
:10316000B2EB630FBFF66DA99C4B1B78002B40F0B0
:103170001C82B8F800309A4AA3423FF462A9994BE6
:10318000148001221A70FFF75CB9974B01931B88DA
:10319000002B42F08A818A4B0393944B0293944C08
:1031A00023786BB3DFF85C82DFF848A24FF0000BA6
:1031B00009E003F17300C0B205F016FC23780BF1AF
:1031C000010B5B451CDD58F8043F99F800001844DA
:1031D000A0F17F038AFB0321DA17C2EB610202EB45
:1031E00042027F28A3EB8203E3DCFDF735FAE2E736
:1031F0007E4B029305F0F8FB009B1B78002BCED191
:10320000039B1B78002B3FF4B4AC99F80030A3F17A
:103210000C007F2840F3ED8176488B3B80FB032038
:10322000DA17C2EB600000EB4000A3EB800303F170
:103230007300C0B205F0D8FB009B1B78002B00F098
:10324000CD816B4C2378002B01F0C082DFF8B48174
:10325000DFF8A0A14FF0000B0AE003F17300C0B249
:1032600005F0C2FB23780BF1010B5B457FF781ACC6
:1032700058F8043F99F800001844A0F18B038AFB2A
:103280000321DA17C2EB61020C3802EB42027F28FD
:10329000A3EB8203E1DCFDF7DFF9E0E7FDF7DCF902
:1032A000A5E45046FDF7D8F94CE4FDF7D5F9FFF752
:1032B00097BA514A1278002A40F0D581414F434CC9
:1032C0003B70FEF7AABF002008704C49087840B157
:1032D000394900910978002900F0B581009F00214B
:1032E00039704749097800297FF4F0A8002C40F094
:1032F000CE80002840F0CB80384C2F4F94F800E06F
:103300002F4C0394394C02942D4C2C492070374C8F
:103310000097087038702070BEF1000F7FF4E8A8A5
:10332000FFF7EFB8264B1B78002B6DD099F80030D3
:10333000A3F10C007F2840F3CC832E4A8B3B82FB09
:103340000321DA17C2EB610202EB4202A3EB820314
:1033500003F17300C0B205F047FB009B1B78002B04
:1033600052D0234C2378002B4ED0264FDFF8848098
:103370004FF0000A09E003F17300C0B205F034FB1E
:1033800023780AF1010A53453EDD57F8043F99F8C6
:1033900000001844A0F18B0388FB0321DA17C2EB6D
:1033A00061020C3802EB42027F28A3EB8203E2DCCD
:1033B000FDF752F9E1E700BFD09DFF1F809DFF1F81
:1033C0007D9BFF1F9A9BFF1FC29DFF1F4C9DFF1FF0
:1033D000349DFF1F309DFF1FCC9BFF1F709DFF1F63
:1033E000C09DFF1F9E9BFF1FD09BFF1F2A9CFF1F9E
:1033F0005489FF1FABAAAA2AC69DFF1F109EFF1F5C
:103400000C9EFF1F2C89FF1FA84B1B78FBB1A84BFC
:103410001B88012B00F0D486022B00F0CF87032BF2
:1034200001F04A81042B01F0E481052B01F01B849B
:10343000062B01F0DA84072B01F01F86082B01F020
:10344000DD86092B01F0C9870A2B01F0A687019BB5
:103450001B88002B00F0EC82964B1B78002B40F071
:10346000E282954B954A1988346800200123106048
:103470002B602EE50130C0B2022886BF00211170FA
:1034800010701946FFF7ECBB0398002101708C49BE
:10349000097800293FF435A8844902910978002968
:1034A00000F0B287029800210170FFF72AB8039B51
:1034B0001B78002B7FF485AB029B1B78002B7FF4DD
:1034C00080AB019B1988FFF782BB7E4A1278002AE5
:1034D0003FF4F4AE7C4F387802F028FD7B4B1B782C
:1034E000002B00F0BB8439887E2900F2B784784C29
:1034F000DFF80C922368D9F800209B1A0F2B40F2BA
:103500009680744B01311B8889B239802BB1052B11
:1035100003D0C9B2052005F017FA6F4F226898F85A
:103520000030C9F800203B70FEF777BE243B002B2B
:10353000B8F8000040F3788498423EF45AAF9BB24A
:103540006648A8F8003001230370FEF752BFDFF889
:103550009081C0B298F8001005F01EFAFFF74BBB3F
:103560005F4B3878197805F017FA8DE47F214020F9
:1035700005F0EAF95B495C4A3B680B600021117079
:1035800007E5C0B298F8001005F006FAFFF72FB96A
:10359000D8B298F8001005F0FFF93B686BE5534B83
:1035A000DFF860E11978FEF724BF4B2C40F34C8222
:1035B0001834802CB8F800304D4AA8BF8024A342AC
:1035C0007FF4DDADFEF73DBF99F8000005F00CFA81
:1035D0002188FFF7FCBAFDF73FF89DE4029B1B78BA
:1035E000002B7FF4C9AA039B1B78002B7FF4E9AA68
:1035F00067E7FDF731F81CE63E4B01931B88002B73
:103600007FF4F6AD294B0293FFE5FDF725F8D6E4EC
:10361000FDF722F8FFF7D3B90132D2B2022A40F205
:103620005E82002202701946FFF71ABB284C2A4F0F
:1036300098F800303B70FEF7F0BD7F20FFF76CBAC2
:103640007F20FFF798B9194F1A4902974FF0000CE5
:1036500081F800C0009F02994FF0010E87F800E04A
:1036600081F800C03DE6244F387802F05FFC174B2C
:103670001B78002B00F03A8239887E2900F23682CE
:10368000134CDFF87C902368D9F800209B1A0F2B8D
:10369000CDD91A4B0131188889B23980002800F041
:1036A0004182C9B2C0B205F04FF936E72A9CFF1F2C
:1036B0003E9DFF1F809DFF1F289CFF1F809BFF1FBB
:1036C000709DFF1FC69DFF1FC29DFF1F119EFF1F04
:1036D0004C9DFF1F2E9CFF1F9A9BFF1F9E9BFF1F51
:1036E0000E9CFF1FA09BFF1F5489FF1FEF9DFF1F14
:1036F000C09DFF1FD09BFF1FCA9BFF1F049CFF1F85
:10370000FC9DFF1FE19BFF1FDFF8B4A399F80000A9
:10371000BAF80030E34AE44CC31A82FB031ED917FF
:10372000C1EB6E0101EB4101A3EB810303EB43030A
:1037300054F8233018447F2840F3AE847F3882FB4E
:103740000032C317C3EB620303EB4303A0EB830018
:103750007330DFF870B3C0B205F046F9BBF8003043
:10376000022B7FF629AA99F80010BAF80030CD4A4A
:10377000CB1A82FB030ED817C0EB6E0000EB4000A3
:10378000A3EB800303EB430304EB83035868084473
:103790007F2840F320877F3882FB0032C317C3EBBA
:1037A000620202EB4202A0EB82007330C0B205F06D
:1037B0001BF9BBF80030032B7FF6FEA999F8001027
:1037C000BAF80030B74ACB1A82FB030ED817C0EB09
:1037D0006E0000EB4000A3EB800303EB430304EB1C
:1037E0008304A06808447F2840F370817F3882FBFF
:1037F0000032C317C3EB620202EB4202A0EB82006D
:103800007330C0B205F0F0F8FFF7D6B9DFF8B0A218
:103810003868BAF80030A34AA34CC31A82FB031ECF
:10382000D917C1EB6E0101EB4101A3EB810303EB5F
:10383000430354F8233018447F2840F329847F3809
:1038400082FB0032C317C3EB620303EB4303A0EB1D
:1038500083007330DFF87082DFF868B298F80010E8
:10386000C0B205F099F8BBF80030022B7FF607AB29
:103870003968BAF800308B4ACB1A82FB030ED8178E
:10388000C0EB6E0000EB4000A3EB800303EB4303AF
:1038900004EB8303586808447F2840F398867F38F8
:1038A00082FB0032C317C3EB620202EB4202A0EBC1
:1038B00082007330C0B298F8001005F06DF8BBF8C4
:1038C0000030032B7FF6DBAA3968BAF80030754A5E
:1038D000CB1A82FB030ED817C0EB6E0000EB400042
:1038E000A3EB800303EB430304EB8304A0680844C9
:1038F0007F2840F3F8807F3882FB0032C317C3EB88
:10390000620202EB4202A0EB8200733098F80010D2
:10391000C0B205F041F8FFF7B2BADFF8A4A16149DF
:10392000BAF80020604C9A1A81FB020ED017C0EB47
:103930006E0000EB4000A2EB800202EB420254F862
:10394000220018447F2840F32284A0F17F0381FBEA
:103950000321DA17C2EB610000EB4000A3EB80000B
:103960007330DFF860B198F80010C0B205F014F8B9
:10397000BBF80030022B50D93968BAF80030494AF8
:10398000CB1A82FB030ED817C0EB6E0000EB400091
:10399000A3EB800303EB430304EB83035868084461
:1039A0007F2840F385867F3882FB0032C317C3EB44
:1039B000620202EB4202A0EB82007330C0B298F8C0
:1039C000001004F0E9FFBBF80030032B25D938685C
:1039D000BAF80030334AC31A82FB031ED917C1EB71
:1039E0006E0101EB4101A3EB810303EB430304EB05
:1039F0008304A36818447F286EDD7F3882FB003281
:103A0000C317C3EB620202EB4202A0EB82007330E9
:103A1000C0B298F8001004F0BFFF3B68FFF726BB68
:103A20000120FFF779B80021402004F08DFF18E550
:103A300099F8000004F0D8FF0EE504F0D5FFFEF77A
:103A4000C7BF0120FEF797BF243C002CB8F8003018
:103A500040F3C585A3423EF4F4ACA4B2134BA8F8DE
:103A6000004001221A70FEF7ECBC114B01931B8839
:103A7000002B7FF4BFABFFF77CB80E498342A8BF91
:103A800003460B60FEF795BE1446FFF76DBB0A4B6D
:103A90000A4C19886A2005F0DBF898F800303B7072
:103AA000FEF7BBBBABAAAA2A701601009E9BFF1FA4
:103AB000D09BFF1F809BFF1FCA9BFF1F4C9DFF1FBA
:103AC0007C9DFF1FB09BFF1F0E9CFF1FFCF7C4FDDA
:103AD00097E6FCF7C1FD3DE4FCF7BEFD98E70270F8
:103AE0001946FFF7BDB8FCF7B7FD0FE7D14B1B78C0
:103AF000002B3FF49BAD3B88CF4F002B3FF496AD9E
:103B0000CE4CDFF848932268D9F80010521A0F2AD9
:103B10007FF68DADCA4A013B108899B239800028E2
:103B20007FF4BFADC8B204F083FFF6E4DFF820A352
:103B30003868BAF80030C34AC34CC31A82FB031E6C
:103B4000D917C1EB6E0101EB4101A3EB810303EB3C
:103B5000430354F8233018447F2840F325847F38EA
:103B600082FB0032C317C3EB620303EB4303A0EBFA
:103B700083007330DFF8DC82DFF8DCB298F80010E5
:103B8000C0B204F009FFBBF80030022B7FF677A922
:103B90003968BAF80030AB4ACB1A82FB030ED8174B
:103BA000C0EB6E0000EB4000A3EB800303EB43038C
:103BB00004EB8303586808447F2840F30E867F385F
:103BC00082FB0032C317C3EB620303EB4303A0EB9A
:103BD00083007330C0B298F8001004F0DDFEBBF82B
:103BE0000030032B7FF64BA93868BAF80030954AAD
:103BF000C31A82FB031ED917C1EB6E0101EB410111
:103C0000A3EB810303EB430304EB8304A368184491
:103C10007F287FF768AF7F3882FB0032C317C3EB82
:103C2000620303EB4303A0EB830073306EE6DFF81F
:103C300020A299F80000BAF80030824A824CC31AD8
:103C400082FB031ED917C1EB6E0101EB4101A3EB0F
:103C5000810303EB430354F8233018447F2840F3D7
:103C6000A7837F3882FB0032C317C3EB620303EBE9
:103C70004303A0EB83007330DFF8DCB1C0B204F083
:103C8000B3FEBBF80030022B7EF696AF99F8001019
:103C9000BAF800306B4ACB1A82FB030ED817C0EB80
:103CA0006E0000EB4000A3EB800303EB430304EB47
:103CB0008303586808447F2840F393857F3882FB4C
:103CC0000032C317C3EB620303EB4303A0EB830093
:103CD0007330C0B204F088FEBBF80030032B7EF6D0
:103CE0006BAF99F80010BAF80030564ACB1A82FB35
:103CF000030ED817C0EB6E0000EB4000A3EB80036F
:103D000003EB430304EB8304A06808447F287FF798
:103D1000DDAE7F3882FB0032C317C3EB620303EBD7
:103D20004303A0EB830073306BE5DFF824A1454922
:103D3000BAF80020444C9A1A81FB020ED017C0EB4F
:103D40006E0000EB4000A2EB800202EB420254F84E
:103D5000220018447F2840F32E83A0F17F0381FBCB
:103D60000321DA17C2EB610000EB4000A3EB8000F7
:103D70007330DFF8E4B098F80010C0B204F00CFE25
:103D8000BBF80030022B7FF648AE3968BAF8003035
:103D90002C4ACB1A82FB030ED817C0EB6E0000EB47
:103DA0004000A3EB800303EB430304EB8303586859
:103DB00008447F2840F319857F3882FB0032C317FF
:103DC000C3EB620303EB4303A0EB83007330C0B289
:103DD00098F8001004F0E0FDBBF80030032B7FF6EC
:103DE0001CAE3868BAF80030164AC31A82FB031EAC
:103DF000D917C1EB6E0101EB4101A3EB810303EB8A
:103E0000430304EB8304A36818447F287FF764AE60
:103E10007F3882FB0032C317C3EB620303EB43031B
:103E2000A0EB83007330F3E501283EF4E2AA0123FE
:103E3000FFF786BB109EFF1FCA9BFF1F4C9DFF1FF5
:103E4000049CFF1FABAAAA2A6C170100FC9DFF1F50
:103E50007C9DFF1F0E9CFF1FB09BFF1FCE4B1B784E
:103E6000002B3FF4E3AB3B88CC48002B3FF4DEABA8
:103E7000CB4CDFF83C932268D9F80010521A0F2A75
:103E80007FF6D5ABC74A013B128899B20180002A60
:103E90003FF443AB052A7FF43CABFFF73EBB4FF446
:103EA0007A43013BFDD199F8000004F09DFDFEF737
:103EB000F6BFDFF800A399F80000BAF80030BA4A5C
:103EC000BA4CC31A82FB031ED917C1EB6E0101EB7A
:103ED0004101A3EB810303EB430354F8233018445F
:103EE0007F2840F3E8817F3882FB0032C317C3EBA1
:103EF000620202EB4202A0EB82007330DFF8B8B23C
:103F0000C0B204F071FDBBF80030022B7EF654AE57
:103F100099F80000BAF80030A34AC31A82FB0321C3
:103F2000DA17C2EB610202EB4202A3EB820303EB5E
:103F3000430304EB83035B6818447F2840F31F842A
:103F40007F380C2290FBF2F302FB13007330C0B2F7
:103F500004F04AFDBBF80030032B7EF62DAE99F835
:103F60000000BAF80030904AC31A82FB0321DA1726
:103F7000C2EB610202EB4202A3EB820303EB4303B9
:103F800004EB8304A36818447F287FF79FAD7F3834
:103F90000C2290FBF2F302FB1300733031E4DFF8E4
:103FA00014A23868BAF800307F4A804CC31A82FBEA
:103FB000031ED917C1EB6E0101EB4101A3EB810395
:103FC00003EB430354F8233018447F2840F37081F7
:103FD0007F3882FB0032C317C3EB620202EB42025E
:103FE000A0EB82007330DFF8D481DFF8CCB198F811
:103FF0000010C0B204F0D0FCBBF80030022B7EF6FB
:104000003EAF3868BAF80030674AC31A82FB032112
:10401000DA17C2EB610202EB4202A3EB820303EB6D
:10402000430304EB83035B6818447F2840F3AB83AE
:104030007F380C2290FBF2F302FB13007330C0B206
:1040400098F8001004F0A8FCBBF80030032B7EF6B3
:1040500016AF3868BAF80030534AC31A82FB0321FE
:10406000DA17C2EB610202EB4202A3EB820303EB1D
:10407000430304EB8304A36818447F287FF733AD20
:104080007F380C2290FBF2F302FB130073303DE407
:10409000FCF7E2FAFFF7DEBBFCF7DEFAFFF759BBED
:1040A000DFF810A14049BAF80020404C9A1A81FB71
:1040B000020ED017C0EB6E0000EB4000A2EB8002B6
:1040C00002EB420254F8220018447F2840F3F680A5
:1040D000A0F17F0381FB0321DA17C2EB610101EB41
:1040E0004101A3EB81007330DFF8CCB098F80010E9
:1040F000C0B204F051FCBBF80030022B7FF68DAC4F
:104100003868BAF80030284AC31A82FB0321DA174C
:10411000C2EB610202EB4202A3EB820303EB430317
:1041200004EB83035B6818447F2840F338837F38AF
:104130000C2290FBF2F302FB13007330C0B298F82C
:10414000001004F029FCBBF80030032B7FF665ACAF
:104150003868BAF80030144AC31A82FB0321DA1710
:10416000C2EB610202EB4202A3EB820303EB4303C7
:1041700004EB8304A36818447F287FF7ADAC7F3835
:104180000C2290FBF2F302FB1300733040E4FCF7C7
:1041900063FAFFF7E6BB00BF109EFF1FC29DFF1F23
:1041A0004C9DFF1F2E9CFF1FABAAAA2AFC170100E3
:1041B000FC9DFF1F7C9DFF1FB09BFF1F0E9CFF1FE0
:1041C000DFF838A399F80000BAF80030C34AC44CAD
:1041D000C31A82FB0317D917C1EB670101EB410139
:1041E000A3EB810303EB430354F8233018447F28E7
:1041F0006ADD7F3882FB0032C317C3EB620202EB39
:104200004202A0EB82007330DFF8F4B2C0B204F0D7
:10421000EBFBBBF80030022B7FF619A999F80000E0
:10422000BAF80030AD4AC31A82FB0321DA17C2EB99
:10423000610202EB4202A3EB820303EB430304EBB4
:1042400083035B6818447F2840F3AC827F380C22DC
:1042500090FBF2F302FB13007330C0B204F0C4FB16
:10426000BBF80030032B7FF6F2A899F80000BAF8EB
:1042700000309A4AC31A82FB0321DA17C2EB6102AB
:1042800002EB4202A3EB820303EB430304EB830440
:10429000A36818447F2814DD7F380C2290FBF2F3CA
:1042A00002FB13007330C0B204F09EFBFFF7CFB8DF
:1042B000FCF7D2F997E6FCF7CFF91FE6FCF7CCF94B
:1042C00012E7FCF7C9F9EEE7FCF7C6F99CE7DFF85F
:1042D0002CA299F80000BAF80030804A814CC31A29
:1042E00082FB031ED917C1EB6E0101EB4101A3EB69
:1042F000810303EB430354F8233018447F28DADDAD
:104300007F3882FB0032C317C3EB620303EB430326
:10431000A0EB83007330F1E5DFF8E0A13868BAF86C
:1043200000306E4A6F4CC31A82FB031ED917C1EBD3
:104330006E0101EB4101A3EB810303EB430354F84E
:10434000233018447F28B3DD7F3882FB0032C31747
:10435000C3EB620303EB4303A0EB8300733042E63D
:10436000DFF898A15D49BAF800205E4C9A1A81FBEB
:10437000020ED017C0EB6E0000EB4000A2EB8002F3
:1043800002EB420254F8220018447F2896DDA0F187
:104390007F0381FB0321DA17C2EB610000EB4000D1
:1043A000A3EB800073309FE6FCF756F9FFF7E2BB02
:1043B000FCF752F960E4FCF74FF9DAE4DFF83CA1CE
:1043C00099F80000BAF80030444A474CC31A82FBFF
:1043D0000317D917C1EB670101EB4101A3EB81037F
:1043E00003EB430354F8233018447F287FF76CAF66
:1043F0007F3882FB0032C317C3EB620303EB430336
:10440000A0EB83007330FFE6384800903848394904
:104410000390FEF76DB8DFF8E4A099F80000BAF851
:1044200000302E4A344CC31A82FB0321DA17C2EB48
:10443000610202EB4202A3EB820303EB430354F855
:10444000233018447F2840F3A7817F380C2290FB4B
:10445000F2F302FB13007330DFF8A4B0C0B204F033
:10446000C3FABBF80030022B19D999F80000BAF84A
:1044700000300C22C11A91FBF2F302FB131302FB72
:1044800003435B6818447F2840F385847F3890FBA2
:10449000F2F302FB13007330C0B204F0A5FABBF8CC
:1044A0000030032B7EF688ABBAF8003099F8000094
:1044B0000C22C11A91FBF2F302FB131302FB03441B
:1044C000A36818447F287FF701AB7F3890FBF2F395
:1044D00002FB13007330FFF794B900BFABAAAA2AFE
:1044E00070160100DC1901006C170100D09DFF1F40
:1044F0007D9BFF1F809DFF1F341B01007C9DFF1FC4
:10450000B09BFF1FDFF864A33868BAF80030CE4ACA
:10451000CE4CC31A82FB0321DA17C2EB610202EB15
:104520004202A3EB820303EB430354F82330184405
:104530007F2840F32E817F380C2290FBF2F302FBA0
:1045400013007330DFF82883DFF828B398F80010E1
:10455000C0B204F021FABBF80030022B1AD9386837
:10456000BAF800300C22C11A91FBF2F302FB1313CC
:1045700002FB03435B6818447F2840F3C3837F3802
:1045800090FBF2F302FB13007330C0B298F80010F6
:1045900004F002FABBF80030032B7EF670ACBAF8D8
:1045A000003038680C22C11A91FBF2F302FB13139E
:1045B00002FB0344A36818447F287FF794AA7F383E
:1045C00090FBF2F302FB13007330FFF79FB9FCF787
:1045D00043F8FFF76FB9FCF73FF8FFF7E7B8012B97
:1045E0003DF42FAF0124FFF739BADFF880A29649D6
:1045F000BAF80020954C9A1A81FB0210D117C1EB32
:10460000600101EB4101A2EB810202EB420254F88E
:10461000220018447F2840F3B980A0F17F030C20CA
:1046200093FBF0F200FB12307330DFF848B298F8D9
:104630000010C0B204F0B0F9BBF80030022B1AD958
:104640003868BAF800300C22C11A91FBF2F302FB71
:10465000131302FB03435B6818447F2840F34F8326
:104660007F3890FBF2F302FB13007330C0B298F86E
:10467000001004F091F9BBF80030032B7FF6CDA9B0
:10468000BAF8003038680C22C11A91FBF2F302FB31
:10469000131302FB0344A36818447F287FF71CAA66
:1046A0007F3890FBF2F302FB13007330FFF7B0B9D1
:1046B000FBF7D2FFFFF782B9DFF8B0A199F800004D
:1046C000BAF80030604A624CC31A82FB0321DA1741
:1046D000C2EB610202EB4202A3EB820303EB430352
:1046E00054F8233018447F2846DD7F380C2290FB95
:1046F000F2F302FB13007330DFF878B1C0B204F0BC
:1047000073F9BBF80030022B19D999F80000BAF8F8
:1047100000300C22C11A91FBF2F302FB131302FBCF
:1047200003435B6818447F2840F38B807F3890FBFD
:10473000F2F302FB13007330C0B204F055F9BBF87A
:104740000030032B7EF683AEBAF8003099F80000F3
:104750000C22C11A91FBF2F302FB131302FB034478
:10476000A36818447F287FF7ACAD7F3890FBF2F345
:1047700002FB1300733096E5FBF76EFFBCE7FBF717
:104780006BFFFFF7E4BBFBF767FF58E4FBF764FF41
:104790004BE7FBF761FFD5E6FBF75EFF5CE6FBF757
:1047A0005BFFCBE4FBF758FF57E5DFF8C0A03868A4
:1047B000BAF80030244A274CABE6DFF8B0A099F8ED
:1047C0000000BAF80030204A224C2CE6029B1B78ED
:1047D000002B7EF4D1A9FEF7F4B9FBF73DFFFFF7FC
:1047E000F9B9FBF739FFFFF774BAFBF735FFFFF7AD
:1047F000EEBADFF878A099F80000BAF80030124A53
:10480000154C61E7DFF864A00F49BAF80020114C9D
:10481000F1E6124B1B78002B00F0C182104B1B7885
:10482000002B7DF40EAE0F4B1B78002B3DF409AE30
:10483000B8F800300C490A33A8F800300A70FDF7C8
:1048400000BEFBF709FF77E7ABAAAA2A341B0100D9
:10485000FC1701004C190100DC1901000D9EFF1F1F
:104860000E9EFF1F0F9EFF1F9E9BFF1F7C9DFF1F25
:104870000E9CFF1FB09BFF1FA44C2388002B40F011
:10488000BE83DFF8A0B2A249A24A0988D7F8008007
:10489000B2F800E0A048C1EB080C0C229CFBF2F13E
:1048A00002FB11C14FF0900C0CFB0EFE02FB01E16C
:1048B0006FF00B0E405880440EFB03807F2840F3BE
:1048C0000285A0F17F0393FBF2F002FB10307330FE
:1048D000924BC0B2197804F05FF8BBF8002023882F
:1048E0001344022B23DD8A4A8A4B11883868B3F8B7
:1048F00000C0DFF824E2411A0C2291FBF2F302FB24
:104900001311902303FB0CF302FB013373445B6828
:1049100018447F2840F3AD857F3890FBF2F302FB0B
:10492000130073307D4BC0B2197804F035F8BBF832
:10493000002023881344032B23DD754A754B11880F
:104940003868B3F800C0DFF8D0E1411A0C2291FBBF
:10495000F2F302FB1311902303FB0CF302FB013370
:1049600073449B6818447F2840F35D857F3890FB33
:10497000F2F302FB13007330684BC0B2197804F0F5
:104980000BF8BBF8002023881344042B7EF777AA8A
:10499000634B1B88012B7EF472AA3A68A2F10C00CB
:1049A0007F2840F38F828B3A0C2092FBF0F300FBC0
:1049B00013207330594BC0B2197803F0EDFFFEF7A6
:1049C0005EBA524C2288002A00F0D7825449DFF8A0
:1049D00054B10988BBF800000331884227DD4C48F8
:1049E0004C490088B1F800E0DFF82CC1181A0C21FE
:1049F00090FBF1F901FB19004FF0900909FB0EFE45
:104A000001FB00E06FF00B0E5CF8000003440EFBAE
:104A100002307F2840F3B7847F3890FBF1F301FB2D
:104A200013007330C0B298F8001003F0B5FFBBF864
:104A3000002023881344022B23DD354B354A386888
:104A40001B88B2F800C0DFF8D0E0C31A0C2193FB3A
:104A5000F1F201FB1232902303FB0CF301FB023352
:104A600073445B6818447F2840F3E4847F3890FBEC
:104A7000F1F301FB13007330C0B298F8001003F09B
:104A80008BFFBBF8002023881344032B23DD204B2E
:104A9000204A38681B88B2F800C0DFF87CE0C31AEF
:104AA0000C2193FBF1F201FB1232902303FB0CF378
:104AB00001FB023373449B6818447F2840F3C18490
:104AC0007F3890FBF1F301FB13007330C0B298F80C
:104AD000001003F061FFBBF8002023881344042B6F
:104AE0007EF79BAF0E4B1B88012B7EF496AF3A6886
:104AF000A2F10C007F287EF7EFAF8B3A0C2092FBDF
:104B0000F0F300FB13207330FEF782BF109CFF1FF1
:104B10007C9DFF1F2A9DFF1FE01201000E9CFF1FBE
:104B2000EA9BFF1FB09BFF1FCE4C2388002B40F059
:104B30002782DFF864B3CC49CC4A098899F8000091
:104B4000B2F800E0DFF85483C1EB000C0C229CFBB0
:104B5000F2F102FB11C14FF0900C0CFB0EFE02FBB8
:104B600001E16FF00B0E58F8011008440EFB030032
:104B70007F2840F30484A0F17F0393FBF2F002FB53
:104B800010307330C0B203F02FFFBBF80020238831
:104B90001344022B22DDB44AB44B118899F800006B
:104BA000B3F800C0DFF8F4E2411A0C2291FBF2F3F3
:104BB00002FB1311902303FB0CF302FB013373443C
:104BC0005B6818447F2840F3E5837F3890FBF2F35D
:104BD00002FB13007330C0B203F006FFBBF80020E5
:104BE00023881344032B22DD9F4AA04B118899F898
:104BF0000000B3F800C0DFF8A4E2411A0C2291FBD8
:104C0000F2F302FB1311902303FB0CF302FB0133BD
:104C100073449B6818447F2840F302847F3890FBDC
:104C2000F2F302FB13007330C0B203F0DDFEBBF8F9
:104C3000002023881344042B7DF7BEAF8C4B1B88C8
:104C4000012B7DF4B9AF99F80020A2F10C007F2868
:104C50007EF73CAF8B3A0C2092FBF0F300FB132065
:104C60007330FEF7CEBDDFF800A299F80000BAF865
:104C70000030804CC11A0C2291FBF2F302FB13139B
:104C800002FB03F3E35818447F287FF775AD7F38A4
:104C900090FBF2F302FB130073302DE5764B1B887B
:104CA000182B12D099F800201344A3F118007F2884
:104CB00040F3DC830C20973B93FBF0F200FB1233B4
:104CC00003F17300C0B203F08FFE6C4A6C4B127894
:104CD00033F81230182B3DF46FAF99F800201344CD
:104CE000A3F118007F287EF7F1AE0C20973B93FBD1
:104CF000F0F200FB123303F17300FEF782BDFBF705
:104D0000ABFCB3E4FBF7A8FC3FE45B4B1A88182A22
:104D100013D03B681344A3F118007F2840F37D8330
:104D20000C20973B93FBF0F200FB123303F173006E
:104D3000544BC0B2197803F02FFE504B50491A78EB
:104D4000022A94BF013200221A701A7831F8120038
:104D5000182810D10424022A02F10100C2B288BF2F
:104D6000002231F81200182804D1013CF3D11A7046
:104D7000FEF785B81A703B680344A3F118007F283A
:104D800040F3A0800C20973B93FBF0F200FB123322
:104D900003F173000EE6FBF75FFCFFF77DBB3A4BB8
:104DA0001B78002B7DF486AF384B1B78002B3DF42D
:104DB00048ABB8F8003036490133A8F800300A7023
:104DC000FDF73FBB304B1B78002B7DF43AAB2F4BEC
:104DD0001B78002B3DF435ABB8F800302C49013B73
:104DE000A8F800300A70FDF72CBBDFF87CA099F81A
:104DF0000000BAF80030274C3CE71F4A1288182AF6
:104E000012D01344A3F118007F2840F3C0820C2075
:104E1000973B93FBF0F200FB123303F17300C0B237
:104E200098F8001003F0B8FD144B15491A78022ABF
:104E300094BF013200221A701A7831F81200182833
:104E40002FD10424022A02F10100C2B288BF00223D
:104E500031F81200182823D1013CF3D11A703B68B5
:104E6000FEF704B9109CFF1F7C9DFF1F2A9DFF1FAA
:104E7000EA9BFF1F341B0100BA9BFF1F0F9CFF1F03
:104E8000989DFF1F0E9CFF1F0E9EFF1F0F9EFF1F72
:104E90009E9BFF1F4C190100B09BFF1FE0120100F9
:104EA0001A703B680344A3F118007F287EF714AE04
:104EB0000C20973B93FBF0F200FB123303F17300DD
:104EC000FEF7A6BDFBF7C8FB74E5BF4B1B88182B8C
:104ED00012D099F800201344A3F118007F2840F362
:104EE000AD820C20973B93FBF0F200FB123303F1F1
:104EF0007300C0B203F078FDB44AB54B127833F8B2
:104F00001230182B7FF4E9AEFDF756BEAE4B1A886F
:104F1000182A13D03B681344A3F118007F2840F3EC
:104F200086820C20973B93FBF0F200FB123303F1D7
:104F30007300A84BC0B2197803F02EFDA34BA4490F
:104F40001A78022A94BF013200221A701A7831F8B6
:104F5000120018287FF40FAF0424022A02F1010284
:104F600094BFD2B2002231F8120018287FF402AFA9
:104F7000013CF2D11A70FDF782BFDFF87CB22EE55A
:104F8000954ADFF874B21288BBF8001003329142E0
:104F90007FF7FBADCFE58C4A1288182A12D0134454
:104FA000A3F118007F2840F35E820C20973B93FB0F
:104FB000F0F200FB123303F17300C0B298F8001056
:104FC00003F0EAFC814B82491A78022A94BF01322D
:104FD00000221A701A7831F8120018287FF461AF95
:104FE0000424022A02F1010294BFD2B2002231F855
:104FF000120018287FF454AF013CF2D12EE7764A14
:10500000DFF8F4B11288BBF80010033291427FF749
:1050100064AC38E4714B01227F2107201A8003F031
:1050200093FC7F210B2003F08FFCFDF76EBE6C4BD1
:1050300004227F2107201A8003F086FC00210B2028
:1050400003F082FCFDF75ABE654B02227F21072048
:105050001A8003F079FC7F210B2003F075FCFDF72B
:1050600048BE5F4B002107201C8003F06DFC7F21B0
:105070000B2003F069FCFDF737BE5A4C2388002B48
:1050800040F0E681DFF870B1574999F80000574ABF
:1050900009881788DFF858E1411A0C2291FBF2FCCD
:1050A00002FB1C114FF0900C0CFB07F702FB017187
:1050B0006FF00B075EF80110014407FB03107F2817
:1050C00040F3C3817F3890FBF2F302FB130073308F
:1050D000C0B203F089FCBBF8002023881344022BE4
:1050E00021DD414B414A99F800001B88B2F800E0ED
:1050F0003F4FC31A0C2193FBF1F201FB12329023B4
:1051000003FB0EF301FB02333B445B6818447F282A
:1051100040F3C8817F3890FBF1F301FB130073303B
:10512000C0B203F061FCBBF8002023881344032BBA
:1051300021DD2D4B2D4A99F800001B88B2F800E0C4
:105140002B4FC31A0C2193FBF1F201FB1232902377
:1051500003FB0EF301FB02333B449B6818447F289A
:1051600040F39D817F3890FBF1F301FB1300733016
:10517000C0B203F039FCBBF8002023881344042B91
:105180007EF765A9144B1B88012B7EF460A999F862
:105190000020A2F10C007F287FF793A88B3A0C2007
:1051A00092FBF0F300FB13207330FFF77CB8114B38
:1051B00000227F2107201A8003F0C6FB7F210B20ED
:1051C00003F0C2FBFDF7A9BDC29BFF1F0F9CFF1F91
:1051D000109DFF1F0E9CFF1FEA9BFF1F1E9CFF1FC1
:1051E000729DFF1F109CFF1F7C9DFF1F2A9DFF1FAC
:1051F000E01201009C9BFF1FB09BFF1FB04B1B8860
:10520000182B12D099F800201344A3F118007F281E
:1052100040F33C810C20973B93FBF0F200FB1233F0
:1052200003F17300C0B203F0DFFBA64AA64B12786D
:1052300033F81230182B3EF40AA999F800201344D1
:10524000A3F118007F287FF73CA80C20973B93FB25
:10525000F0F200FB123303F17300FFF724B89B4A0E
:105260001288182A12D01344A3F118007F2840F3A3
:1052700007810C20973B93FBF0F200FB123303F104
:105280007300C0B298F8001003F086FB8D4B904974
:105290001A78022A94BF013200221A701A7831F863
:1052A000120018287FF4FDAD0424022A02F1010245
:1052B00094BFD2B2002231F8120018287FF4F0AD6A
:1052C000013CF2D1CAE5FBF7C7F9FFF701BB7F4B01
:1052D0001A88182A13D03B681344A3F118007F28BA
:1052E00040F3DA800C20973B93FBF0F200FB123383
:1052F00003F17300774BC0B2197803F04DFB714B8B
:1053000073491A78022A94BF013200221A701A785F
:1053100031F8120018287FF42EAD0424022A02F17D
:10532000010294BFD2B2002231F8120018287FF493
:1053300021AD013CF2D11A70FDF7A1BD634B1B8872
:10534000182B12D099F800201344A3F118007F28DD
:1053500040F393800C20973B93FBF0F200FB123359
:1053600003F17300C0B203F03FFB564A584B12786A
:1053700033F81230182B7FF4B0ACFDF71DBCFBF7EF
:105380006BF9FFF7FFBBFBF767F9FFF74BBBFBF7C9
:1053900063F944E5FBF760F91DE44C4B1B88182BBF
:1053A00011D099F800201344A3F118007F286ADD7A
:1053B0000C20973B93FBF0F200FB123303F17300D8
:1053C000C0B203F011FB3F4A414B127833F8123060
:1053D000182B7FF432AFFEF73AB83F4B1B88182BDF
:1053E00011D099F800201344A3F118007F2850DD54
:1053F0000C20973B93FBF0F200FB123303F1730098
:10540000C0B203F0F1FA2F4A344B127833F812305D
:10541000182B7FF412AFFEF71AB8FBF71DF987E4DB
:10542000FBF71AF900E4FBF717F9FFF7A5BAFBF74A
:1054300013F97EE5FBF710F9FFF71EBBFBF70CF93C
:1054400057E5FBF709F9FFF741BBFBF705F93FE625
:10545000234ADFF898B01288BBF80010033291425B
:105460007FF739AE10E6FBF7F7F8A6E5FBF7F4F89F
:1054700028E4FBF7F1F8FFF755BAFBF7EDF871E711
:10548000FBF7EAF8FDE6FBF7E7F899E7FBF7E4F846
:10549000C8E6FBF7E1F8B3E7FBF7DEF82AE7FBF72E
:1054A000DBF865E6FBF7D8F83AE60E4B03930E4BB4
:1054B0000293FDF79FBE23601946FDF7D1BB00BFE5
:1054C000BA9BFF1F0F9CFF1F989DFF1FC49BFF1FD0
:1054D000189DFF1F0E9CFF1FC29BFF1F109DFF1FEB
:1054E000EA9BFF1F7D9BFF1F2A9CFF1FB09BFF1F96
:1054F00038B507F0A3F90B4805F0DAF800234FF0B0
:105500007E5201210848FAF7B1FF084B084A0949C1
:10551000802400251C7118461D60BDE838400AF043
:1055200051BE00BF1C9CFF1F509DFF1FD49DFF1F3D
:105530001C89FF1FFD05000010B50446A420636808
:10554000198803F085FBE368A6201988BDE81040A0
:1055500003F07EBB43682A20198803F079BB00BFA3
:1055600010B5044622206368198803F071FBE368D4
:1055700024201988BDE8104003F06ABB10B504462A
:105580000A206368198803F063FBE3680C2019881C
:10559000BDE8104003F05CBB10B50446062063680C
:1055A000198803F055FBE36808201988BDE810400E
:1055B00003F04EBB10B5044602206368198803F05F
:1055C00047FBE36804201988BDE8104003F040BBA6
:1055D00070B50E4C84B012250422012306460390B8
:1055E000029320468DE824001423102106F064FA6B
:1055F0000622092302930396019520460092142364
:10560000102106F059FA04B070BD00BF409EFF1F84
:105610002DE9F041224D82B0012602B284B20092FF
:10562000284601967823192106F08CF904F10C0222
:1056300012B28DE844002846A7197823192104F1F5
:10564000020806F07FF93FB20FFA88F819233A46AC
:10565000284619460196CDF8008006F073F97823A4
:105660003A4628461946CDF80080019604F10A070B
:105670000B3406F067F93FB224B278233A46284645
:1056800019468DE8500006F05DF9192300943A465A
:1056900001962846194606F055F902B0BDE8F0819A
:1056A000409EFF1F2DE9F0411E4682B01446002A9D
:1056B0006AD0099B4D4A00EBC305012C6F892989EB
:1056C0006868A7EB010382FB03E21A444FEAE37325
:1056D000C3EBA21302887BD0042C38D112FA83F3D7
:1056E000994203DC9F423946A8BF1946089A0180B7
:1056F000B6F90030BDF920803D48971D4FF0000EEF
:105700003FB2194642460097CDF804E006F01AF978
:1057100029896A896B68521A1B885C2AA3EB0103EA
:1057200059DD03EB43030132C3EB431393FBF2F365
:1057300003F11B0213B20120328019464246019048
:1057400000972B4806F0FEF82A4B00221A702A4BCD
:10575000022CB3F9001045D0082C31D100221A8058
:1057600091422DD0089AB6F9003021480632012422
:1057700012B2009219460194BDF9202006F0E2F819
:10578000204602B0BDE8F0811C4D1D4A2B6812680E
:10579000CB1A93420F4617D9164A3388117814480A
:1057A000012918BF01241470089A06321BB212B2E4
:1057B0008DE814001946BDF9202006F0C3F82F60CB
:1057C000012002B0BDE8F081204602B0BDE8F081C2
:1057D0009BB2D31A84E75C2101FB03F393FBF2F243
:1057E0001B32A7E74A1C12B21A80B9E7C94216B2A7
:1057F000409EFF1FB99EFF1F1E9EFF1FA49EFF1FFE
:10580000082B010030B583B000230C4605B200938D
:1058100026225B231C210C4805F0E4FD29460123C8
:105820002622094805F0EEF8002C24B205DB2146BB
:1058300001232622044805F0E5F8044A044B1580AC
:105840001C8003B030BD00BF409EFF1FAA89FF1F10
:10585000AC89FF1F70B59F4C237882B01BB19E4B63
:105860004FF6FF721A809D4BB3F90030C3B99C4AC2
:10587000994B1068B3F9002080F30C005B2303FB05
:1058800000F000131C30824243D04FF0FF31FFF78D
:10589000B9FF944805F00AFE0023237002B070BDE2
:1058A000012B1BD0022B53D0032B38D0042B00F03C
:1058B0008D80052BF0D10F2007F068FEC0F53B600E
:1058C0000830B0F5AF6F41DBB0F5FA6FA8BF4FF409
:1058D000FA60A0F5AF625B2383482EE0834B1A6821
:1058E000B2F52F7F32DB41F25C239342A8BF13460F
:1058F000A3F52F735B227E4802FB03F380FB03209A
:10590000DB17C3EBA0201C30734BB3F9003083428C
:10591000BBD1784BB3F900300133B6D1BCE7764B3D
:105920001B68B3F5FA7F11DBB3F57A6FA8BF4FF4AC
:105930007A637248A3F5FA725B2303FB02F380FBE0
:105940000320DB17C3EB20201C30DDE71C20DBE746
:105950006B4B1B68B3F5FA7F2EDBB3F57A6FA8BFEC
:105960004FF47A63A3F5FA7264485B2303FB02F3F6
:1059700080FB0320DB17C3EB20201C30614B1B682E
:10598000B3F5FA7F1ADBB3F57A6FA8BF4FF47A63E9
:10599000A3F5FA7259495B2303FB02F381FB032150
:1059A000DB17C3EB21211C314B4BB3F90030834291
:1059B00006D0FFF727FF6CE71C20DFE71C21F3E789
:1059C0004C4BB3F900308B42F3D165E72722002519
:1059D0008DE8240076231C2142484B4E05F0B2FF8F
:1059E00016E0B0F5AF7FA8BF4FF4AF70323803FBBD
:1059F00000F386FB0321DB17C3EB61111C3109B2F5
:105A000001231D442722374804F0FCFF0C2D09D048
:105A1000E9B23E4804F0B4FE31284FF05B03E0DC0D
:105A20001C21EDE7012007F0B1FD6FF495733238CA
:105A3000374A03FB00F082FB0023C017C0EB63234F
:105A400003F5AF73312B42DDB3F5AF7FA8BF4FF441
:105A5000AF735B22323B2C4D02FB03F385FB032526
:105A6000DB17C3EB65151C35002007F08FFD6FF4C5
:105A700095733238264A03FB00F082FB0023C017DF
:105A8000C0EB632303F5AF73312B1EDDB3F5AF7F9E
:105A9000A8BF4FF4AF735B22323B1B4902FB03F3F9
:105AA00081FB0321DB17C3EB61111C310A4BB3F9F6
:105AB0000030AB4201D028467BE70E4BB3F90030F3
:105AC0008B423FF4E6AE284673E71C21EEE71C2527
:105AD000CAE700BF149EFF1FAA89FF1F1A9EFF1F5F
