:1000000000800020BD01000059D3000011D3000082
:1000100011D3000011D3000011D3000011D3000050
:1000200011D3000011D3000011D3000059D30000F8
:1000300059D3000011D30000D9C90000DDCA000067
:1000400059D3000059D3000059D3000059D3000000
:1000500059D3000059D3000059D3000059D30000F0
:1000600059D3000059D3000059D3000059D30000E0
:1000700059D3000059D3000059D3000059D30000D0
:1000800059D3000059D3000059D3000059D30000C0
:1000900059D3000059D3000059D3000059D30000B0
:1000A00015AF000021AF000059D3000059D3000064
:1000B00059D3000059D3000059D3000059D3000090
:1000C00059D3000059D3000059D3000059D3000080
:1000D00059D3000059D3000059D3000059D3000070
:1000E00059D3000059D3000059D3000059D3000060
:1000F00059D30000C5F3000059D30000F1F400000B
:1001000059D3000031DD000059D3000059D300005D
:1001100059D3000059D3000059D3000059D300002F
:1001200059D3000059D3000059D3000059D300001F
:1001300059D3000059D3000059D3000059D300000F
:1001400059D3000059D3000059D3000059D30000FF
:10015000C9CB0000DDCB0000F1CB000005CC0000D6
:1001600059D300004DE0000059D3000059D30000DE
:1001700059D3000059D3000059D3000059D30000CF
:1001800059D3000059D3000059D3000059D30000BF
:1001900059D3000059D3000059D3000059D30000AF
:1001A00059D3000059D3000059D3000059D300009F
:1001B00059D3000059D3000059D30000564B4CF2DC
:1001C000205210B51A804DF628121A8000BF00BFC9
:1001D0000DF0C6F8514B4FF010621A60504A9A6009
:1001E000504ADA60504A136813F4807304D14F49BF
:1001F0000B604FF4A85313604D4B1A78110703D5C9
:100200001A7842F008021A704A4B4B492A221A7097
:100210004A4A4B4B8B4204D252F8040F43F8040B6A
:10022000F8E7484B484900228B4202D243F8042B9E
:10023000FAE74649464A002352F8230041F82300D2
:1002400001336F2BF8D1434B434A802103F8011B44
:100250009342FBD1414B3D4A1A60414B8A221A70AE
:10026000A3F5805324225A70A0221A709A7992071B
:10027000FCD59A79D406FCD43A4A937903F00C035E
:10028000082B384BF9D103221A7140225A719A79FE
:100290009006FCD5334A9179324B4906FBD5324A58
:1002A000324911600221516020221A709A7902F0BD
:1002B0000C020C2AFAD12E4B2E4A1A602E4B2F4AD2
:1002C0001A6000225A60072243F8042C2C4AC3F813
:1002D0000C2D62B60DF0F4FB144B1B68DA0705D544
:1002E00028480DF0C1F9284B284A1A60284B1B7882
:1002F0005B0609D5244C254B22689A4204D121483B
:100300000DF0B2F90023236010F0AAFB0DF02EF8D7
:100310000CF05CFFFEE700BF0E200540308004407B
:10032000823F04000100002B10D0034014D0034092
:1003300002D0074000E00740D49BFF1FF4430100B8
:100340004088FF1FD49BFF1FE8A3FF1F0082FF1FF1
:100350000000000000E400E05FE400E008ED00E0E1
:100360000050064000400640448004400000030165
:1003700004800440C010050014E000E0FF76010096
:1003800000002020236F4F5F1CE00340A5C3945A58
:1003900000F00740FFFFFFFFFFFFFFFFFFFFFFFF32
:1003A000FFFFFFFFFFFFFFFFFFFFFFFFFFFFFFFF5D
:1003B000FFFFFFFFFFFFFFFFFFFFFFFFFFFFFFFF4D
:1003C000FFFFFFFFFFFFFFFFFFFFFFFFFFFFFFFF3D
:1003D000FFFFFFFFFFFFFFFFFFFFFFFFFFFFFFFF2D
:1003E000FFFFFFFFFFFFFFFFFFFFFFFFFFFFFFFF1D
:1003F000FFFFFFFFFFFFFFFFFFFFFFFFFFFFFFFF0D
:10040000FFFFFFFFFFFFFFFFFFFFFFFFDEF9FFFF23
:1004100010B5054C237833B9044B13B10448AFF33E
:1004200000800123237010BDD49BFF1F000000003B
:10043000F8430100084B10B51BB108490848AFF359
:1004400000800848036803B910BD074B002BFBD0A0
:10045000BDE81040184700BF00000000D89BFF1FF8
:10046000F8430100D49BFF1F0000000038B504468C
:10047000104621700A491D4610F0D4F801464FF08D
:100480007E5010F083F9074910F0CCF8E560606009
:10049000256165610DF0A4FAE061204638BD00BF1A
:1004A000DB0FC9400024744938B50446104621705A
:1004B00009491D4610F0B6F801464FF07E5010F085
:1004C00065F9064910F0AEF8E56060602561656188
:1004D0000DF086FAE06138BDDB0FC9400024744995
:1004E00038B503780446032B20D8DFE803F01A1848
:1004F0001002C16840690FF08BFF0D490546606826
:1005000010F044F90146284610F040F938BD08497A
:10051000406810F03BF9E16810F084F838BDC0681D
:1005200038BDC16840690FF073FF38BD002038BD89
:100530000024744970B504460E460DF051FA054684
:10054000E069281A10F01AF8E3682361E561666132
:10055000A0610146606810F019F90146A0601048DA
:1005600010F014F90FF0EAFB0FF08AF80FF0FCFE20
:10057000054601464FF07E500FF04AFF616910F0CA
:1005800051F821690646284610F04CF801463046DD
:100590000FF040FFE0602046BDE87040FFF7A0BFCD
:1005A000000080BF08B50E200CF0EAFC114B1B8840
:1005B000012B19D0104B1B88984213DB40F6FF71BA
:1005C0008842D4BFC3EB0001C3EB0101C1EB013191
:1005D000C3F57F630F33282091FBF3F1BDE808409A
:1005E0000DF054B80021F3E70146BDE8084014209F
:1005F0000DF04CB8209EFF1FB49CFF1F10B50446A1
:100600000CF0C0FA204610BD70B44C88A04220D92E
:1006100001230133DBB21CB2660031F8144084427E
:100620001D46F6D3A04211D005F10045013D965B71
:1006300031F8151032F81530401AF21A00FB02F0AA
:10064000641A90FBF4F4E01870BC7047905B70BCC7
:10065000704702260125E5E700280CDA064A4342E6
:1006600082FB0320DA17C2EB600000EB4000A3EB33
:100670008000C0F10C007047ABAAAA2A38B5234B02
:100680001B78002B2CD015200CF07AFC204B186026
:10069000204B1B88984203DA1F4C237863BB38BD7C
:1006A0001E4A1488A042A4EB0302A8BF20467F2A5A
:1006B0001CDDC01AC001541C90FBF4F4002CEBD0DC
:1006C000154B1A780AB901221A70154D2B689C42F5
:1006D00004D0144BE1B2187808F0EEFC2C6038BD61
:1006E00011200DF091FB0A4B1860D1E7C01AC0EB46
:1006F000C01090FBF2F4E1E70A4B0021187808F0F3
:10070000DBFC0023064A2370136038BD329EFF1FB6
:10071000009CFF1F769CFF1FA49EFF1F4C9EFF1F87
:10072000A09EFF1F4C9CFF1F38B50F200DF06CFBE7
:100730001B4A1C4B12881860C0F53B600830904281
:1007400020DB194B1B889842A3EB0204A8BF184674
:10075000801A7F2CC6BFC0010134C0EBC01090FBD3
:10076000F4F47CB1114B1A780AB901221A70104DB9
:100770002B689C4204D00F4BE1B2187808F09CFC27
:100780002C6038BD094C237803B938BD094B0021D2
:10079000187808F091FC0023054A2370136038BDD7
:1007A000B89CFF1FC89DFF1F389EFF1F5C9EFF1F48
:1007B000809CFF1F6E9CFF1FF0B40E8886420DD2F6
:1007C00003F10043013B31F81350854202D9F0BCDC
:1007D000FFF71ABF32F81300F0BC70471088F0BC66
:1007E000704700BF094B1B880C2B09D8084A80B200
:1007F00052F8232028B143F6FE73984203D9108C97
:100800007047108870470349FFF7FEBE269CFF1F04
:10081000601E0100FC1F01004B4B4C4A2DE9F047C4
:100820001E8814684A4BB442B3F80080494B33DB4E
:100830004445A8BF4446A6421C60C8BF00202DDD29
:10084000C6EB0807B7F5804F33DB80037B1C90FBBA
:10085000F3F0FFF7C7FF404A404B15881B88C0F3F1
:10086000C61909FB05F57F2D8246A8BF7F252BB34E
:10087000A64253DC4445D4BFC6EB0404C6EB0804CF
:100880009F42CCBF03FB04445C43354BC8BF0137D8
:1008900094FBF7F71F6013E034461E60C6EB0807B1
:1008A000A045D4BFC6EB0800C6EB0400B7F5804FE7
:1008B000CBDAC0EB803090FBF7F0CAE7284A136030
:1008C000284C2368994508D0274B1B88002B34D12E
:1008D000264B1B886BBBC4F80090254C23689A45B7
:1008E00006D0214B1B885A1F032A19D9C4F800A02F
:1008F000204C23689D420FD01F4B188848B11A4BDB
:100900001E4A1B88D35C834203D0C0B2E9B208F010
:10091000D3FB2560BDE8F087BDE8F0870024AFE792
:10092000164AD05C2030C0B20AF07F0108F0C4FB48
:10093000DCE7484608F034FCCDE7104A4946D05C75
:1009400008F0BAFBC4E700BFB49CFF1F1C9EFF1F4A
:100950007C9EFF1FF89BFF1F089CFF1F0A9CFF1F28
:10096000849EFF1F689CFF1F029EFF1FAA9CFF1F03
:10097000209CFF1FAC9CFF1F129EFF1F9889FF1F2A
:100980002DE9F04F17208BB00DF03EFADFF870B371
:10099000DFF870A3CBF8000016200DF035FABA4B43
:1009A000CAF800001B880C2B00F05E82B74EB84AD4
:1009B0003188B84B52F8214000221A70B64BB74A22
:1009C0001B88B7491288013B012A31F9133005937E
:1009D00000F0AE81B34B0193B34B0293B34FDFF8FA
:1009E000288300230093B24B1B88012B00F0F48175
:1009F000DFF81893AF4B0393D9F80050AE4B049334
:100A00000023AE4A1288013A032A00F24982DFE845
:100A100012F0A500ED000400C900284605930FF070
:100A2000ADFDA7490FF0FEFD059B054618460FF0EA
:100A3000A5FDA4490FF0F6FD014628460FF0EAFC9B
:100A40000FF0B6FF0546C9F8005038680FF096FD64
:100A50009B490FF0E7FD814600980FF08FFD994903
:100A60000FF0E0FD014648460FF0D4FC0FF0A0FF68
:100A70003860954A954B17881988954BDBF800200C
:100A80001B88DFF88CE2C7EB050C3D44039FC7F8D9
:100A900000C0471A084404990D6001990F6002993B
:100AA000BEF8007008609A4280F2E7800025C3EB30
:100AB000070E7445DAF8000080F2D380611C98427A
:100AC00005FB01F50EF1010E95FBFEF5C0F25F830B
:100AD0008742A8BF0746FF1A01FB07F494FBFEF408
:100AE0009A4200F3A780984200F3A480794C2068D2
:100AF0000FF044FD78490FF095FD78490FF08AFC1E
:100B00000FF056FFA0F5FF531C3B082B98BF4FF486
:100B10000050D8F80030184400282060C0F29F80B0
:100B2000B0F5804F80F2F6806D4B1B781BB1B0F5AD
:100B3000005F40F0F7806B4D2B78002B40F0AB81CD
:100B4000694D20682B68634C984204D080B208F04D
:100B500091FB23682B600BB0BDE8F08F284605930E
:100B60000FF00CFD61490FF05DFD059B0546184631
:100B70000FF004FD5E490FF055FD014628460FF0C9
:100B800049FC0FF015FF0546C9F8005038680FF012
:100B9000F5FC56490FF046FD814600980FF0EEFC3B
:100BA00053495DE7284605930FF0E8FC4A490FF0EA
:100BB00039FD059B054618460FF0E0FC4D490FF046
:100BC00031FD014628460FF025FC0FF0F1FE0546E9
:100BD000C9F8005038680FF0D1FC3F490FF022FDF2
:100BE000814600980FF0CAFC424939E72846059330
:100BF0000FF0C4FC40490FF015FD059B0546184653
:100C00000FF0BCFC3D490FF00DFD014628460FF0EA
:100C100001FC0FF0CDFE0546C9F8005038680FF012
:100C2000ADFC35490FF0FEFC814600980FF0A6FCA4
:100C3000324915E73388002B3FF458AF2B1B002BAC
:100C4000B8BF5B42092B00F32D81D8F80030214C4E
:100C50004FF40050184400282060BFF661AF002216
:100C60005AE0984205FB04F5B8BF002195FBFEF55C
:100C700080F2848291FBFEF432E7BA42D4BFC3EB28
:100C80000205C3EB070512E74E9EFF1F5C9CFF1F8A
:100C90005889FF1FFE9BFF1F2089FF1F229EFF1FF9
:100CA00068220100509CFF1F909CFF1FF09BFF1FBC
:100CB000B09DFF1F409EFF1FB49DFF1F2E89FF1F89
:100CC000CDCC4C3FCDCC4C3EA489FF1F2C89FF1FBF
:100CD000189EFF1F8C89FF1F9A99193FCDCC4C4558
:100CE000569FFF1FA99CFF1F2489FF1F3333733FAB
:100CF000CDCC4C3DCDCCCC3E6666663FCDCCCC3D1C
:100D0000589CFF1F1C9CFF1F589EFF1F3C9EFF1FEF
:100D1000389CFF1F43F6FF72C04B22601B78002BEC
:100D20003FF409AF05F094FBBD4B01221A7007E7B1
:100D3000BC4BBD4A1B88BD491278013B31F91350A9
:100D4000002A40F0C78011200DF05EF80090B84BEB
:100D50000193D3F80080009B984540F3C080B54BC9
:100D6000B54F1B88B54A012B3B68B2F80090B44AD6
:100D700002922046A3EB050500F0E2800FF0FEFB97
:100D8000029A52F829100FF04DFC014600200FF096
:100D90003FFB0FF00DFE009BC8EB05029D42B8BF64
:100DA0001D469042C8EB050580F2DE8000FB05552C
:100DB000013295FBF2F5A34BDFF8B4820293D8F829
:100DC00000302B4403EBD3735B10C8F800309E4B0C
:100DD0001B88012B7FF40CAE9C4B03931D460F2008
:100DE0000DF012F82A6804929042034680F2CC80FB
:100DF000904A1288012A00F03F81904A0790128899
:100E00008F4D069220460FF0B9FB069ADFF86492E8
:100E100055F82210D9F800500FF004FC01460020CC
:100E20000FF0F6FA059BEA1A05920FF0C1FD059A3C
:100E3000079B04999A42C1EB020EB8BF1A4670454F
:100E400080F24481521A00FB02220EF1010192FB52
:100E5000F1F2D8F800107E4804900A4402EBD272F6
:100E60005210C8F80020CCE57A4B1B78002B3FF4D9
:100E70009DAD794E794A3188794B52F82100012293
:100E80001A700FF07BFB4FF07C510FF0CBFB0FF093
:100E90008FFD044692E505F0D7FA00232B704FE64C
:100EA0003868E6E505F500500130001B0FF066FBE1
:100EB0006C496D4C0FF0B6FB054620680FF05EFBE9
:100EC0006A490FF0AFFB014628460FF0A3FA0FF076
:100ED0006FFD1EE615200CF053F8009037E7594BD4
:100EE0000293D3F80080009B984542DA514B524F51
:100EF0001B88524A012B3B68B2F80090504A03927B
:100F000020461D4400F0E9800FF038FB039A52F8A8
:100F100029100FF087FB0FF04BFD009B9D42C8EBA3
:100F20000502A8BF1D46C8EB05059042BABF00FBED
:100F300005550132454395FBF2F5DFF834813EE774
:100F40000FF01CFB029A52F829100FF06BFB0FF008
:100F50002FFD009BC8EB05029D42B8BF1D46824293
:100F6000C8EB05053FF722AF00FB05F595FBF2F551
:100F700021E7DFF8FC80304FD8F8003003EBD37363
:100F80005B10C8F800302EE5314A049212680692D0
:100F9000904237DD274A1288012A00F0BC80274A98
:100FA00009901188264A0891204607920FF0E6FA28
:100FB000079A0899DFF8BC9052F82110D9F8005030
:100FC0000FF030FB059B2B4405930FF0F1FC0599C6
:100FD000099B069A9942C2EB010EA8BF19467045BB
:100FE00080F2BE80891A00FB01110EF1010291FB13
:100FF000F2F2D8F800100A4402EBD2725210C8F88C
:101000000020FEE4D8F80020DFF8689002EBD272EE
:101010005210D9F80050C8F80020F2E4569FFF1F84
:10102000A99CFF1FA889FF1F329EFF1FB41F01004C
:10103000509CFF1F969CFF1FF09BFF1F409CFF1FB3
:1010400080220100909CFF1FB09DFF1F409EFF1F4C
:10105000B49DFF1F009EFF1F5C9CFF1F5889FF1F50
:10106000FE9BFF1FCDCCCC3E8C89FF1F9A99193F68
:10107000589EFF1F3C9EFF1F464A08901188464A13
:101080000791204606920FF079FA069A0799DFF841
:101090000C9152F82110D9F800500FF0C3FA059BBB
:1010A000E91A05910FF084FC0599089B049A99426E
:1010B000C2EB010EB8BF1946704558DA891A00FB19
:1010C00001110EF1010291FBF2F2C2E60499521AEB
:1010D00000FB02F292FBFEF2BBE60FF04FFA039A1E
:1010E00052F829100FF09EFA014600200FF090F9F7
:1010F0000FF05EFC009A9542C8EB0503A8BF1546A9
:10110000C8EB05059842BABF00FB055501334543BE
:1011100095FBF3F511E71F491F4A089020460D88FB
:1011200007920FF02BFA079ADFF8709052F825100B
:10113000D9F800500FF076FA014600200FF068F958
:10114000059B2B4405930FF033FC0599089B069AE9
:101150009942C2EB010EA8BF19467045FFF642AF97
:10116000069A891A00FB01F191FBFEF241E7049A0D
:10117000891A00FB01F191FBFEF26AE6B842D4BF86
:10118000C3EB0001C3EB070104FB01F172E51F464D
:10119000A1E400BF409CFF1F802201003C9EFF1F76
:1011A00008B5244B1B88FBB1234B1B78FBB1234BA9
:1011B0001B78E3B1224B1B78CBB1224B1B78B3B128
:1011C000214B22481A78C2B9214A22490088128844
:1011D00009680244B1EB620F09DD01221A70642034
:1011E000BDE8084005F048B9174A117801B908BDB3
:1011F0001370BDE8084008F007B8154A1649008882
:10120000128809680244B1EB620FF0DD00221A7007
:1012100007F0FAFF642005F02FF9642005F02CF99F
:10122000642005F029F94FF41670BDE808400CF071
:10123000F9BB00BFC09DFF1FA89EFF1F769EFF1F2A
:10124000779EFF1F789EFF1F249CFF1F389CFF1F67
:10125000189EFF1F589CFF1F1C9CFF1F38B5114C88
:10126000232025780BF08CFE0F4A42F82500131F2F
:1012700002F1C400002253F8041F83420A44FAD149
:1012800023780A4907480A4C0133DBB2322B81FB31
:10129000025108BF0023D217C2EB21120370226053
:1012A00038BD00BF0C9CFF1FC49CFF1F1F85EB5166
:1012B000149EFF1F2DE9F04FB84CB94D2068B94F6F
:1012C00083B00FF05BF9B8490FF0ACF90646102077
:1012D0000CF09AFD0FF052F9B4490FF0A3F9314622
:1012E0000FF098F80FF064FB2988206088423B8853
:1012F00043DA9E465B1A7F2B4FF0000247DDD20196
:101300005E1C92FBF6F2AA4EDFF8C882B6F800C067
:10131000C8F80020BCF1190F00F0DF80BCF11A0FF3
:1013200000F01781BCF11E0F00F020810126B146AC
:10133000A04A1288002A00F09D808842C0F20781EE
:101340007045D4BFC1EB0000C1EB0E009A42BABF9A
:1013500002FB00000133504390FBF3F3964A136005
:10136000964B1888C0B9964A1288AAB9954B197835
:1013700001B11A7003B0BDE8F08F9842D4BFC1EB41
:101380000002C1EB03029E465B1A7F2BB7DCC2EB67
:10139000C21292FBF3F2B6E72988D4F800E0DFF836
:1013A0000082DFF8F8A171456CDCDFF818C29CF808
:1013B0000020002A2ED14FF0010B04288CF800B039
:1013C00028D1002E40F094817D4B18880028D1D080
:1013D000B9F1000FCED023682C883A88A34280F25E
:1013E00065810023141B7E2C774DD5BFC3EB83137F
:1013F000C3EBC3135B00013493FBF4F42B6801349B
:10140000A34203D0C0B2E1B207F056FE2C6003B095
:10141000BDE8F08F012800F0F680022800F0EB8094
:101420000328D1D1694B1B88092BCDD0002ECBD0FE
:1014300023682E883A88B34280F27B810023961B72
:101440007E2EDFF88CA1D5BFC3EB8313C3EBC31390
:101450005B00013693FBF6F6DAF800300136B34252
:1014600003D0F1B24A2007F027FECAF80060ABE7CC
:1014700016469146BCF11E0F7FF472AF0022DFF8D2
:1014800058817EE04F4B1A78002A3FF473AF002456
:1014900001281C7000F0A480022840F00E81002E6C
:1014A00000F0A3804A4D2B68002B00F09E800420A2
:1014B000214607F001FE424B2C60188800283FF4BB
:1014C00059AFB9F1000F3FF455AFC0B2002107F09A
:1014D000F3FD3D4B00221A604CE7DFF8FC8098F8E2
:1014E0000020C2B1DFF8D890B9F800A0BAF1000F1F
:1014F00011D0DFF8E89099F800B0934578D05FFA02
:101500008AF07F2107F0D8FD98F80030B6F800C0C7
:1015100089F8003010E0DFF8C49099F800A09245F7
:1015200066D0274B0021187807F0C6FD98F80030E8
:10153000B6F800C089F800301E4B1A88002A97D0F0
:10154000BCF11E0F40F006810026B14619E00020D4
:10155000FCE6DFF8848098F80020002A0BBF012603
:1015600000264FF000094FF00109E1E6DFF868803E
:10157000104B98F800601A88B6FA86F676094FF094
:10158000000998F80030002B3FF4E8AE2988B7F83E
:1015900000E02068C1EB0E03CFE600BF489CFF1FB0
:1015A000C69DFF1FC29DFF1F9A99193FCDCCCC3E0F
:1015B0004E9EFF1F889EFF1FBC9CFF1F569CFF1F57
:1015C000609EFF1F559EFF1F2C9CFF1F029EFF1F4A
:1015D000C09CFF1F349EFF1F009EFF1F109CFF1F1B
:1015E0001EB1614D2B68002B7BD1604B188865E7DD
:1015F0000026B1469CE6002E3FF4E6AEDFF868A177
:10160000DAF800202EE0002E3FF4DEAEB7F80080BE
:10161000F045D4BFC1EB0802C1EB0E02C1EB0808D4
:10162000B8F17E0FDFF840A1D5BFC2EB8212C2EB4A
:10163000C212520008F1010892FBF8F8DAF8002013
:1016400008F10108424506D05FFA88F101200093B5
:1016500007F032FD009B1888CAF8008002287FF44A
:10166000DFAE42462168B5F800803888414559DA36
:101670000021C8EB0008B8F17E0FD3BFC1EB811188
:10168000C1EBC11108F10108490091FBF8F808F11C
:101690000108904506D05FFA88F10420009307F016
:1016A0000BFD009B1888CAF80080B9E69342D4BFAE
:1016B000C4EB0303C4EB020394E6032827D12C4BAD
:1016C0001B88092B91D0002E8FD0274D2B68002B23
:1016D0008BD04A20214607F0EFFC244B2C60188861
:1016E000ECE6214607F0E8FC204B2C601888E5E684
:1016F00040207F218DE80C0007F0DEFC019B009A62
:10170000188858451CD002287FF48AAE76E7042852
:101710007FF46BAF002E3FF468AF2146402007F006
:10172000CBFC62E78142D4BFC8EB0101C8EB0001EA
:101730009FE79342D4BFC6EB0303C6EB02037EE6EA
:10174000B8F80010DAF800E0B7F800808E45FFF630
:1017500065AF5DE72988B7F800E020680026C1EB97
:101760000E03B146E9E500BFC09CFF1F609EFF1F4E
:10177000029EFF1F08B5114B1B88022B09D0052BB9
:1017800007D0032B15D0042B0BD00D4B01221A7060
:1017900008BD7F21412007F08FFC094B01221A7000
:1017A00008BD7F21092007F087FC054B01221A7034
:1017B00008BD4021092007F07FFCE6E7BA9CFF1F27
:1017C000789CFF1F38B5074B074D1B88052B044637
:1017D00006D02B68834203D0C1B2052007F06CFC11
:1017E0002C6038BDBA9CFF1F649EFF1F38B5124D98
:1017F000124C2B88052B12D022684AB9022B0ED02E
:10180000033B012B13D90E4A00231370236038BD0C
:101810000021052007F050FC2B88022B04D1002169
:10182000412007F049FCEEE7052BE9D1F7E700215D
:10183000092007F041FCE6E7BA9CFF1F649EFF1FEA
:10184000789CFF1F464B1B881D2B70B541D0454D22
:101850000024454B1B88022B16D0444B1B88022BBF
:1018600054D02888424B002C1B780ADB8442A8BF46
:10187000044634B1002B3AD02046BDE87040FFF753
:10188000A1BF002B2FD170BD3A4B1B78002B37D056
:1018900015200BF075FB384B1860384A1288002A67
:1018A000DBD0374A186811888142D6DC354B2A884C
:1018B0001B888342A3EB0106A8BF03465B1AB24212
:1018C000BABF02FB03330136534393FBF6F31C44C8
:1018D000C3E72A4B1C888CB12B4B224D1C78002C63
:1018E000B7D02C88B5E7BDE87040FFF77FBFFFF7A2
:1018F00041FF2046BDE87040FFF764BF194DA8E7DF
:1019000011200CF081FA1C4B1860C6E70F200CF078
:101910007BFA1A4B1D4A1B881060002BA1D01C4A71
:10192000C0F53B63118808338B429ADB194A28883B
:1019300012889342A2EB0105A8BF1346A842A3EB6D
:10194000010306DA00FB0333013593FBF5F31C4476
:1019500088E700FB03F292FBF5F31C4482E700BF2B
:101960004E9EFF1F529EFF1F229EFF1FB09DFF1F16
:10197000789CFF1F329EFF1F009CFF1FBA9CFF1F19
:10198000769CFF1F4C9EFF1F009EFF1FC89DFF1FE0
:10199000B89CFF1F389EFF1F38B510200CF034FA9A
:1019A000C830B0F5FA7FC0F2EE80B0F57A6F01462C
:1019B000A8BF4FF47A6101F51673B3F57A6FA8BF2B
:1019C0004FF47A639BB289B28E4A8F4C11802220E9
:1019D000238007F0F5FC21888C4D8D4C242007F0E6
:1019E000EFFC0E200BF0CCFA40F6FF71C8308842B5
:1019F000A8BF084620EAE07000F5FA6283B28A4286
:101A0000A8BF0A460220194622802B8007F0D8FC86
:101A10002188042007F0D4FC17200CF0F5F90446C7
:101A200016200CF0F1F9A042B8BF204600F1C80121
:101A3000B1F5FA7FC0F2A280B1F57A6FA8BF4FF47A
:101A40007A6101F54873B3F57A6FA8BF4FF47A63F2
:101A50009BB289B26F4A704C11800A20238007F034
:101A6000AFFC21880C2007F0ABFC0F200CF0CCF968
:101A7000C0F53F610431B1F5AF6F7CDBB1F5FA6FB2
:101A8000A8BF4FF4FA6189B2644BC0F54360B0F56A
:101A9000AF6F19806CDBB0F5FA6FA8BF4FF4FA6036
:101AA00083B25F4CA420238007F08AFCA620218803
:101AB00007F086FC0B200BF07FFF002868D0112078
:101AC0000CF0A2F900F1C801B1F52F7F6EDA40F2F7
:101AD00014534FF42F71534A1180534C0620238026
:101AE00007F06EFC2188082007F06AFC00244FF400
:101AF000AF75E1B24D4809F081FA01348542A8BFC3
:101B000005460C2CF5D101200CF07EF9044600208E
:101B10000CF07AF9323CA0F1320345496FF495702C
:101B200000FB03F300FB04F081FB034281FB004157
:101B3000DB17C017C3EB6223C0EB612003F5AF7264
:101B400000F5AF739342A8BF13469D42A8BF1D4640
:101B5000A5F11401312938DC40F26C73322135488B
:101B6000354A018013602A20BDE8384007F028BCC0
:101B70004FF4AF6395E74FF4AF6185E740F214533C
:101B80004FF4FA7166E740F24C434FF4FA711BE7E9
:101B900015200BF0F5F900F59671B1F52F7F96DB66
:101BA00041F25C2399421FDD194694E741F25C2320
:101BB0009942F9DC1B4A00F5487089B2B0F52F7FD5
:101BC000118019DA4FF42F7387E740F23A72A5F5C6
:101BD000B9751A4B02FB05F583FB0523ED17A5EB41
:101BE000631389B23233BAE70E4A00F5617089B2E5
:101BF000B0F52F7F1180E5DB8342A8BF03469BB27F
:101C00006BE700BFC69DFF1FC29DFF1FB49CFF1F57
:101C10007C9EFF1F189EFF1F389CFF1FB89CFF1F54
:101C2000389EFF1F769CFF1F4C9EFF1FA89CFF1F26
:101C300067BBCF46749EFF1F9489FF1FB5814E1B63
:101C40002DE9F84F0C200BF067F90C200BF01CFE6F
:101C5000A74914200BF028FEA649A74808F060FE0B
:101C6000022103200BF0B6FE022104200BF0B2FE8D
:101C7000022105200BF0AEFE022106200BF0AAFE89
:101C800001210A200BF0A6FE012109200BF0A2FE83
:101C900001210D200BF09EFE012128200BF09AFE61
:101CA000012114200BF096FE02210B200BF092FE76
:101CB00001210C200BF08EFE0C2000210BF076FE93
:101CC00004200BF079FE002836D005200BF074FEBE
:101CD00000283BD00023894D06202B700BF06CFEB2
:101CE000B0FA80F35B090024854A137005F054FFB5
:101CF0002B78EBB9204607F08DFB824B82491B887D
:101D0000824D0988824A2970A3F5AF7140F23A7377
:101D100003FB01F382FB0312DB177E4E7E48A3EB2D
:101D2000621332335A21336009F0A4F9A8B9FEE7EF
:101D3000BDE8F84F08F004BD06200BF03DFE00287A
:101D4000C3D16E4D034628700124CDE703200BF06C
:101D500033FEB0FA80F35B09BDE7704A7048126841
:101D6000DFF804B200230121FEF79EFB0B200BF0ED
:101D700023FE011E0CBF012300238BF8003002D18B
:101D800011200BF027FEDFF8A491664FDFF8DC810D
:101D9000654E0023C9F800303B60C8F800304FF0B2
:101DA000040A14E00BF0ECF83B68184438600AF0C1
:101DB000010080F0010004F04FFB3388002B14BFBA
:101DC0004B20DC200BF02EFEBAF1010A1BD00F20B5
:101DD0000CF01AF8D8F8003003440E20C8F8003090
:101DE0000BF0CEF8D9F800309BF800200344C9F876
:101DF00000301520002AD5D111200CF005F83B68E1
:101E000018443860D3E7D8F80030D9F800204749A3
:101E10003868DFF85CE1DFF85CC1002BB8BF033342
:101E2000002AB8BF033292100A604149414A09882A
:101E300012880028B8BF03309B10801038605F1AEA
:101E40001944CEF80070CCF80010DFF82CE13A4FBE
:101E50003A49C8F80030C2EB000C0244CEF800C08A
:101E60003A600B600CB1FFF797FD33885BB94FF414
:101E7000FA7004F001FB04F0EBFA06F0C1F94FF43C
:101E8000AF600BF0CFFD2E4B012404201C600BF043
:101E900093FD10B92B4B28701C702B4B1B881C2BEF
:101EA0001CD02A4C04F1C80523200BF069F844F833
:101EB000040F01200BF0B6FDA542F5D1244A254BB5
:101EC0001078187007F0B0F904F0BEFA45F6BF526A
:101ED00021492248BDE8F84F0AF00ABE204B188875
:101EE0000028DED01F4BC0B2197807F0E5F8D8E71C
:101EF000001B374640420F00E090FF1F2A9CFF1F47
:101F0000B89DFF1F749EFF1F509EFF1F8C9CFF1FDC
:101F1000B5814E1B9489FF1FA89CFF1F2889FF1FB6
:101F2000E09DFF1FF09BFF1F0E9EFF1F049CFF1FE5
:101F3000A489FF1F2C89FF1F909CFF1F909EFF1FED
:101F4000489EFF1F149CFF1F4E9EFF1FC09CFF1F3B
:101F5000CC9DFF1FAE9DFF1FA50500006C9EFF1FBF
:101F6000949CFF1F449CFF1F329EFF1F3C9EFF1F3F
:101F7000409EFF1FB49DFF1F509CFF1F2DE9F04F97
:101F80008BB007ADC04F2C460AAE611BC9B2BF482B
:101F900009F034F83B88834294BF0020012004F804
:101FA000010BA642F1D1BA48BA4A9DF81C70BA4951
:101FB00007709DF81E00B94D10709DF820209DF807
:101FC0002430B74EB74C0A709DF8221029700025B6
:101FD0003370257073B9002940F01A81B2491AB1E3
:101FE0000B78002B40F00882002800F0DB810223F0
:101FF000237005E0002A40F0BB800523AA49237026
:10200000DFF8F8B2DFF8F8829DF81D209DF8210076
:10201000DFF8F092DFF8F0A2A44DA54FA54E0B70AB
:102020009DF81FC09DF823109DF827309DF826E0ED
:102030008BF8002088F800009DF8252029700120E9
:102040003A70337089F800C08AF800E00BF0DCFECB
:10205000994A9A4B11688842CCBF012200221A701B
:1020600040F38A80964B1B88182B00F28580954A96
:10207000B2F800E00C3B0093BEF1000F40F0858009
:10208000914A9BF800C092F800B098F8008099F847
:1020900000209AF8009094F800A02C78ABEB4C0B41
:1020A000C2EB0B0BA8EB880EDE44C9EB897BC9EBB6
:1020B0008B09DFF81CB2F14497F800E0BBF800B0E0
:1020C00009EB44093478CE4404FB0BEE4FF00C09C5
:1020D0007E4C19FB0AEEC4F800E0B8F1000F0BD0FB
:1020E00036784EB17A4E3688042E0CBF0EF1020EB1
:1020F0000EF1040EC4F800E0764E774CDFF80CB217
:102100003688DBF800B02488DFF804A2DFF80492F8
:10211000BAF800A0B9F80090009BC6EBC6065E4472
:10212000033CDFF8F4B104EB4404DBF800B00EEB41
:1021300084045444C9EBC909DFF8E0A1D944DFF8AD
:10214000E0B15AF826605BF829900C3C1C44A319B6
:102150004B44BCF1000F29D02C783CB3002A5BD152
:10216000B8FA88F85D4C4FEA581884F8008024E0EB
:10217000062323704C4943E7524AB2F800E000239B
:102180000093BEF1000F3FF47BAFBEF1010F47D0CB
:10219000BEF1020F00F0C8804C4C9BF800C099F8CB
:1021A000002098F80080D4F800E096E74B4C00251A
:1021B00025700AB13A781ABB0022494C8842227035
:1021C0004849C4BF484AC2F800E00A68934213D0A5
:1021D000464A474C106805900598206012680692A0
:1021E000444C069A24880B60121AA24284BF424AC9
:1021F00013600BB0BDE8F08F3D483C4A0068EDE746
:10220000BCF1000FD8D1B8F1000FD5D10122D4E72D
:10221000042323702449F3E6304A00241470CBE7EA
:10222000294A9BF800C092F800E098F8008099F8DD
:10223000002094F800B09AF800902C780194AEEB4E
:102240004C0EC2EB0E0EA8EB88047444C9EBC9090E
:10225000D944A31EDFF878A0DFF8C8E0019C97F806
:1022600000B05EF829E0BAF800A096F8009003EB01
:1022700044045C4409FB0A4909F11809134CCE4493
:10228000C4F800E029E700BF749EFF1FA89CFF1F51
:10229000769EFF1F779EFF1F789EFF1F799EFF1F70
:1022A0007A9EFF1FBA9DFF1FC49DFF1FA99EFF1F9F
:1022B000AA9EFF1F549EFF1F9489FF1F009EFF1FB1
:1022C0004E9EFF1FFC9BFF1FA689FF1F089EFF1F3E
:1022D000649CFF1F449EFF1F269EFF1F8A9EFF1FB8
:1022E0008B9EFF1F709CFF1F949EFF1F949FFF1FDC
:1022F000609CFF1F5E9EFF1F9C9EFF1FA59EFF1FF1
:10230000A79EFF1FA69EFF1FA89EFF1FBC9CFF1F2E
:102310000E9CFF1F7A9CFF1F849EFF1F442001001C
:10232000201B010030220100374A9BF800C092F8C0
:1023300000B0247899F8002098F800800394ABEB63
:102340004C049AF80090314B95F800A0CDF804A009
:10235000A8EB880BA41A5C444FF0050B1BFB094B40
:10236000039C97F800A0CDF808A0C9EBC909B3F801
:1023700000A009EB0403BDF80490029C0BF1050BCF
:102380001EFB09BE96F800B0DFF8A490A6440BFB34
:102390000AEE59F823901E4C0EF10C0ECE44C4F8F0
:1023A00000E09AE65FBB0B78012B2BD9194A23700A
:1023B0001288002A3FF424AE174A1288013A92B2DA
:1023C000062A3FF61DAE154A1278002A3FF418AED1
:1023D000134A1268012A7FF413AE1248124A0068A9
:1023E000124E82FB0025C217C2EB650202EB4202CD
:1023F000A0EB8202328003E60323237000E6012370
:102400002370FDE53B46FBE5A689FF1F649CFF1F8B
:10241000089EFF1F309EFF1FCE9DFF1FB69CFF1F13
:10242000489EFF1F9C9EFF1FABAAAA2A0C9EFF1F5F
:10243000C82301002DE9F04F3A4B1B788BB0002BDD
:102440006BD10E200AF09CFD0EF098F8014636483C
:10245000364E374DFEF76EF83348FEF741F80EF072
:10246000A7FA80F30C003060FFF788FD2C68012C80
:102470007AD0022C00F0B182032C00F0C3832D4EE1
:102480002D4C33682D4A2E4E0993099B31681288D2
:102490002360591A013A9142274F00F29982294E3E
:1024A00032689A1A0D2A00F28282274E32689A1AEE
:1024B000132A00F27782254E32689A1A252A1AD9F1
:1024C000234B1B88002B40F05D81224B1B78002B97
:1024D00040F05881FEF7C2FE1F4B1B881B3B9BB28E
:1024E000022B04D81D4B1B78002B40F04E8103F0CB
:1024F000D5FF236833601A4D2A689B1A502B00F2CF
:102500000D82184B1B88012B00F0258206F068FE17
:1025100006F096FC0BB0BDE8F08F07F099FF0BB00A
:10252000BDE8F08F2A9CFF1FE09DFF1F1C9EFF1F30
:10253000489EFF1F949FFF1FDC9DFF1F9089FF1F78
:10254000B09CFF1F9C9CFF1F849CFF1F889CFF1F4B
:10255000C09DFF1F249CFF1F4E9EFF1F009EFF1F5C
:10256000D09DFF1F209EFF1FDFF82093A04AB9F8DF
:1025700000001378834204D0C3B21846137006F0EB
:102580006BFDDFF804839B4AB8F80030117899425C
:1025900004D0994F3978002940F0F286974A336881
:1025A0001288974E9A42C0F2FA80964A1278002A10
:1025B00040F0F580DFF8D8A2BAF8003023B9924B8A
:1025C0001B88002B00F00685904A914B11881B88D0
:1025D000904A0B4412685B1093428F4A126880F253
:1025E000A88400219342B4BF01230B4604910093B9
:1025F000ACBF4FF0010B8B4605910E200AF0C0FCDA
:10260000864B874A1B68176803930133A7F252323F
:10261000002B8446029240F3DA86802BA8BF8023E9
:10262000804A814912780191002A00F0C28009781D
:10263000914200F0BE80B8F80010DFF84CE29942F9
:1026400001F0F7806C49AEF80030784B4FF0010E86
:1026500081F800E01978DFF83CE2019B8EF8001069
:102660001A70009B002B00F01781BAF80030002B85
:1026700000F012816E4B1B685A1C002A40F3AB8697
:10268000802A00F3A7866B4C6B496C482488098824
:1026900000682144B0EB610FC1F24083A3F148020E
:1026A0000F2A02D8473BA9F800300E200AF068FC38
:1026B0006FF454731F44874202DC614B00221A708E
:1026C00000200BF0A1FB5F4A5F4B11685F4C1B8839
:1026D0008842D4BF002201222270002B00F0208407
:1026E0005B4B1C78944240D088423EDD59490C78BF
:1026F000002C00F03487584991F800C0BCF1000F5D
:1027000040F02B87554F0097554F56480297534F2F
:10271000007887F800C0524F4FF0010E87F800C0D4
:1027200081F800E0002841F0DB804F49097800295A
:1027300000F0F7874D4903910C460978002940F0D5
:10274000ED874B48464F0078397001210297217080
:1027500058B1424840490090002008700099029FFB
:102760000870039901243C7008701A70414B1B8853
:10277000A3F11B02012A40F2C7851D2B00F0118630
:102780003D4C7EE6FEF70CFDA4E63C4B1B78002B8F
:102790003FF4ADAE2B68012B7FF4A9AEA9E63168FA
:1027A000374A069106983749106002220B602A606A
:1027B00000E71E49DFF8DCE0097800293FF44DAF5F
:1027C0009EF8000081423FF448AF03984B2840F345
:1027D000F7871833802BB8F80000A8BF80239842F1
:1027E0003FF43BAF2848038003480123037034E7DC
:1027F000AE9DFF1F8C9CFF1F149CFF1FB49CFF1FEE
:10280000949FFF1F249CFF1FA29CFF1F389CFF1F4B
:10281000189EFF1F589CFF1F1C9CFF1F949EFF1FAC
:10282000049CFF1F8A9EFF1F6C9CFF1F8B9EFF1F37
:10283000089EFF1FC69DFF1FC29DFF1F489CFF1FD4
:10284000B99DFF1F9489FF1FCE9DFF1F3E9CFF1F58
:10285000F49BFF1FA89EFF1F109EFF1F629EFF1F7D
:10286000B69CFF1FA99EFF1FA59EFF1FF59BFF1F84
:10287000009EFF1F4E9EFF1FDC9DFF1F549EFF1FEB
:102880007C9CFF1FD89DFF1F509EFF1FCC9DFF1FEC
:10289000749CFF1F6D9CFF1F029B9C45BFF605AFFC
:1028A0008B4B1B88002B3FF400AFBBF1000F7FF474
:1028B000E1AE884B1B881BB1059B002B7FF4DAAE81
:1028C000049B002B3FF4F1AE834B1A78002A7FF46F
:1028D000ECAEDFF8809299F8004001221A70002CCB
:1028E00040F045837D4B1B78002B02F0D8807C4B59
:1028F0001B78002B02F09B837A4B1B78002B7FF414
:10290000D4AE794B1B78002B3FF4CFAEB8F8003033
:1029100076490A3BA8F800300A70C6E605F084F94B
:10292000734B1B7873B9734B1B785BB9724B1B7875
:1029300043B9724B1B782BB9714B1B7813B903F059
:1029400083FD01E003F08CFD23682B606D4B1B8839
:10295000012B7FF4DBAD6C4A6C4B11686C481A7824
:10296000A1F118032A2101FB03F10160002A00F004
:10297000C182684C2368994200F36A8310DA664882
:102980000278002A40F09287644A1068D0F17F00F4
:1029900048BF0330801001301B1A994242F3D086A1
:1029A0002160A9E2FEF74EFF2368336083E5FDF75F
:1029B000E7FFFEF77FFC5A4B1B88032B00F02B85AB
:1029C000584B1B88032B00F02285236833606CE58D
:1029D000FDF722FF3B68336061E5534A3468118894
:1029E000A14204DB464B1B78002B00F061834F4E65
:1029F0004F48336807934F4B079A00681B88121A99
:102A00009A4200F2AD80002B00F0AA804A4B1A884F
:102A1000002A3FF4B5AE494B49481B680088A342E1
:102A2000B8BF2346994241F37281464B1960DFF8E3
:102A3000288188F80020344FFDF7EEFE38687F28A3
:102A400040F37D85404B7F3883FB0032C317C3EBD7
:102A5000620303EB4303A0EB830073303B4B019312
:102A60001B883860002B40F0D686234B00931B78E0
:102A7000002B00F0CA83364C2378002B00F0C5836E
:102A8000DFF8D890DFF8C0A04FF0000B0CE003F1A6
:102A90007300C0B298F8001006F036FB23780BF1F3
:102AA000010B5B4540F3B1833B6859F8040F1844B0
:102AB000A0F17F038AFB0321DA17C2EB610202EB6C
:102AC00042027F28A3EB8203E1DCFDF7C5FDE0E7CE
:102AD000A29CFF1FD49DFF1FB99DFF1FA59EFF1F36
:102AE000A69EFF1FA79EFF1FA89EFF1F149CFF1FEF
:102AF000B69CFF1F109EFF1F629EFF1FF59BFF1FCE
:102B0000249CFF1F209EFF1F9C9EFF1F789CFF1F81
:102B1000809EFF1FA49CFF1F689EFF1F649EFF1FD7
:102B2000229EFF1FB09DFF1FB49CFF1F949FFF1F9D
:102B30007C9CFF1FA09CFF1F129CFF1FD89DFF1FA6
:102B40007C9EFF1FF89BFF1FABAAAA2A549CFF1F65
:102B50005489FF1FBA9DFF1F989CFF1F2C89FF1FE0
:102B6000554B564A1B681088554AA342B8BF2346A6
:102B7000994200F38482534C12888342A8BF0346D3
:102B80002360002A7FF453AF9942C8BF134640F335
:102B90007D82401AB0F5804FAABF9B03C3EB8333FD
:102BA000013093FBF0F0FDF71DFEC0F3C6100DF0F1
:102BB000E5FC454B044618880DF0E0FC4349074608
:102BC00020460DF02FFD014638460DF02BFD214625
:102BD0000DF020FC4FF07E5104460DF0C1FE0028A0
:102BE00041F079803A4920460DF0D8FE002840F0A7
:102BF000718620460DF002FFC0B2DFF8F48088F83D
:102C0000000018E7334B34681988A14274DD324B59
:102C10001B78002B70D1DFF8DC9099F800007F283A
:102C200040F34086A3F155337F3803F1004383FB23
:102C30000032C317C3EB620303EB4303A0EB830033
:102C40007330264B01931B88C0B289F80000002B1B
:102C500041F03380224B00931B78002B00F0AC84B2
:102C6000204C2378002B00F0A7841F4FDFF87C80D6
:102C70004FF0000A0AE003F17300C0B206F06CFAEC
:102C800023780AF1010A534540F3968457F8043F2C
:102C900099F800001844A0F17F0388FB0321DA179C
:102CA000C2EB610202EB42027F28A3EB8203E2DC6B
:102CB000FDF7D2FCE1E700BFD89DFF1F7C9EFF1F00
:102CC000129CFF1FF89BFF1F8C9EFF1FCDCCCC3D9D
:102CD0000000FE42B49CFF1F249CFF1F549CFF1F5A
:102CE000629EFF1F5489FF1F2C89FF1FABAAAA2ACF
:102CF000989CFF1F049EFF1FB84F38687F2840F341
:102D0000CC81B74B7F3883FB0032C317C3EB620320
:102D100003EB4303A0EB83007330DFF8249399F8AF
:102D200000A0824500F01782AE4B1B88002B43D1D8
:102D3000AD4AAE4812680088914205DC8242D4BF99
:102D4000C1EB0203C1EB0003411AB1F5804FA6BFEE
:102D50009B030131C3EB833393FBF1F0FDF742FD9D
:102D6000C0F3C6100DF00AFCA14B044618880DF004
:102D700005FCA049804620460DF054FC0146404623
:102D80000DF050FC21460DF045FB4FF07E510446FE
:102D90000DF0E6FD002840F00A87974920460DF027
:102DA000FDFD002840F0938520460DF027FEC0B2BF
:102DB000DFF8908288F80000BAF17F0F40F3B88303
:102DC0008748AAF17F0A80FB0A304FEAEA73C3EB17
:102DD000600000EB4000AAEB80007330874B00934B
:102DE0001B78C0B289F80000002B40F01883844B98
:102DF00003931B78002B40F04985824B02931B788C
:102E0000002B40F07C87804B0193029B1B78FBB129
:102E10007E4B1B88012B00F0C185022B01F04D80F9
:102E2000032B01F08C81042B01F09783052B01F01B
:102E30003884062B01F0FF85072B01F0BB87082B98
:102E400002F0BA80092B02F0BF810A2B02F09283B4
:102E5000009B1B78002B00F07484019B6A4C19883E
:102E6000002900F0FB8438687F2840F365835C4BC1
:102E70007F3883FB0032C317C3EB620303EB4303CA
:102E8000A0EB830073303860002940F0AA84009BD7
:102E90001B78002B00F06B815D4C2378002B00F039
:102EA0006681DFF8A4A1DFF89C814FF0000B0CE0F5
:102EB00003F17300C0B298F8001006F025F92378EA
:102EC0000BF1010B5B4540F352813B685AF8040F4C
:102ED000434A1844A0F17F0382FB0321DA17C2EBB7
:102EE000610202EB42027F28A3EB8203E0DCFDF7E4
:102EF000B3FBDFE7474B1960474B1B68A92202FB76
:102F000003F3002BBCBF03F57F533F339B13543BAC
:102F1000194481F30C0128200AF0B8FBFFF7F6BA38
:102F2000384C3E483549364A237003700B70137095
:102F30001CE493424FF0000B80F2B2800123CDF8E5
:102F400000B0CDF814B00493FFF757BB344B1B7897
:102F5000002B7FF4AAAB039B324A243B83F3470345
:102F6000D9B25B20136006F0A7F899F80040032C53
:102F700030D1DFF8D88098F80030002B42F05D8225
:102F8000294F3B78002B42F04B82254C2378002BB5
:102F900042F03982254B1B78002B42F02782244ACD
:102FA0001380244B1B78002B42F013820D4B7F22A1
:102FB0001A8098F800306BB93B785BB923784BB92D
:102FC0001D4A7F210720138006F076F87F210B2011
:102FD00006F072F8194B1F68FFF767BB9C9EFF1F36
:102FE000ABAAAA2A129CFF1FF89BFF1F7C9EFF1F03
:102FF0008C9EFF1FCDCCCC3D0000FE42629EFF1F89
:10300000F59BFF1FB69CFF1F549CFF1FCE9DFF1F0B
:103010005489FF1FA49CFF1F8C89FF1F109EFF1F58
:10302000A89EFF1F349CFF1FA79EFF1FA69EFF1F89
:10303000AA9CFF1FA99EFF1F029EFF1F049CFF1F4B
:10304000049EFF1F989CFF1F2C89FF1FA59EFF1F3A
:10305000B64A1078002840F05783B54A1268D2F17A
:103060007F0248BF033203EBA202531CB14A236024
:103070009942B8BF1160FFF63FAF19463CE7AE4B2F
:1030800012881960002A7FF4D2AC0B469842D4BF54
:10309000C1EB0003C1EB03037BE5FDF7DDFA3CE682
:1030A0000123CDF810B0CDF800B00593FFF7A5BA15
:1030B00001232B60A14EA24CFFF7E3B9029B1B78C2
:1030C000FBB1A04B1B88012B00F0EA84022B00F01F
:1030D0007386032B01F0A980042B01F06382052B7A
:1030E00001F05683062B01F0AF84072B01F0AF856A
:1030F000082B01F01987092B02F02F800A2B02F010
:10310000C381019B1B88002B00F07483009B1B78FC
:103110003BB9039B1B7823B9029B1B78002B01F062
:103120000480894B1B78002B00F0FE8087490B78C8
:10313000082B00F2F98086483A680068854C013314
:10314000DBB25F1E101A44F827000B70824B346804
:10315000198889F800208C42784E7FF711AB3268CD
:103160007E4B0892089A764C1A60FFF78AB9039B47
:103170001B78002BA2D03B68A3F10C007F2840F302
:10318000828377488B3B80FB0320DA17C2EB600019
:1031900000EB4000A3EB800303F17300DFF8D48160
:1031A000C0B298F8001005F0AFFF009B1B78002B11
:1031B00084D0664C2378002B80D0DFF8BCA14FF080
:1031C000000B0CE003F17300C0B298F8001005F09A
:1031D0009BFF23780BF1010B5B457FF76FAF3B68DB
:1031E0005AF8040F5E4A1844A0F18B0382FB0321B6
:1031F000DA17C2EB61020C3802EB42027F28A3EB24
:103200008203DFDCFDF728FADEE74F4B1B78002B4B
:1032100040F0F6823B68534A1278002A45D0A3F169
:103220000C007F2840F33B834D4A8B3B82FB0321FC
:10323000DA17C2EB610202EB4202A3EB820303F155
:103240007300C0B298F8001005F05EFF009B1B7879
:1032500053B33E4C23783BB3DFF81C91DFF800A159
:103260004FF0000B0BE003F17300C0B298F80010B0
:1032700005F04AFF23780BF1010B5B4514DD3B6839
:1032800059F8040F1844A0F18B038AFB0321DA17C5
:10329000C2EB61020C3802EB42027F28A3EB8203EF
:1032A000E1DCFDF7D9F9E0E73B682F4A1278FAB183
:1032B000244A1288012A00F07D84022A00F07B86CD
:1032C000032A01F02F80042A01F09381052A01F0DE
:1032D000CC82062A01F0D083072A01F01384082A41
:1032E00001F0D386092A01F090870A2A02F00A81A8
:1032F000019A1288002A00F095821C4A104C137023
:1033000003232B60FFF7BDB8DFF8708098F800301A
:10331000002B40F01881164F3B78002B40F01485AD
:10332000074C3B70FFF7ADB83A680FE7689EFF1F88
:10333000649EFF1FA49CFF1FF89BFF1F949FFF1F0D
:10334000DC9DFF1FCE9DFF1F109EFF1F5489FF1F96
:10335000189CFF1F3089FF1FB49CFF1F409FFF1F59
:10336000ABAAAA2AF59BFF1FB69CFF1F049EFF1F56
:10337000109CFF1F989CFF1F2C89FF1F009EFF1FA2
:10338000DBB21846137005F075FEB04BB0491A4613
:10339000B04B184600230B703B7013700370FFF79F
:1033A000FDB8DFF8CC8298F80030002B40F0D781D0
:1033B000A94F3B78002BB3D0A84BA94C1988A22069
:1033C00005F0FEFF98F800303B70FFF75AB8012374
:1033D000FFF726B98024A349A34BA44A09881B8878
:1033E00012680B44B2EB630FBFF65FA9A04B1B78CA
:1033F000002B40F02482B8F800309E4AA3423FF4EC
:1034000054A99D4B148001221A70FFF74EB9FDF7A5
:103410008BF9FFF7DABAFDF731F9FFF7D1BA974B1D
:1034200001931B88002B42F085818A4B0393944BB8
:103430000293944C23786BB3DFF85C82DFF848A2E8
:103440004FF0000B09E003F17300C0B205F084FEF9
:1034500023780BF1010B5B451CDD58F8043F99F80C
:1034600000001844A0F17F038AFB0321DA17C2EBA6
:10347000610202EB42027F28A3EB8203E3DCFDF74B
:10348000EBF8E2E77E4B029305F066FE009B1B78AB
:10349000002BCED1039B1B78002B3FF4B6AC99F8E0
:1034A0000030A3F10C007F2840F3EA8176488B3B83
:1034B00080FB0320DA17C2EB600000EB4000A3EBB7
:1034C000800303F17300C0B205F046FE009B1B7839
:1034D000002B00F0CA816B4C2378002B01F0C582D1
:1034E000DFF8B481DFF8A0A14FF0000B0AE003F190
:1034F0007300C0B205F030FE23780BF1010B5B4581
:103500007FF783AC58F8043F99F800001844A0F105
:103510008B038AFB0321DA17C2EB61020C3802EB42
:1035200042027F28A3EB8203E1DCFDF795F8E0E798
:103530005046FDF791F851E4FDF78EF8A3E4FDF74E
:103540008BF8FFF78BBA514A1278002A40F0D581E8
:10355000414F434C3B70FEF794BF002008704C492C
:10356000087840B1394900910978002900F0B58107
:10357000009F002139704749097800297FF4DAA8B3
:10358000002C40F0CE80002840F0CB80384C2F4FEC
:1035900094F800E02F4C0394394C02942D4C2C49A4
:1035A0002070374C0097087038702070BEF1000F03
:1035B0007FF4D2A8FFF7D9B8264B1B78002B6DD02B
:1035C00099F80030A3F10C007F2840F3C8832E4AFD
:1035D0008B3B82FB0321DA17C2EB610202EB420252
:1035E000A3EB820303F17300C0B205F0B5FD009BAD
:1035F0001B78002B52D0234C2378002B4ED0264F23
:10360000DFF884804FF0000A09E003F17300C0B2D4
:1036100005F0A2FD23780AF1010A53453EDD57F873
:10362000043F99F800001844A0F18B0388FB0321A4
:10363000DA17C2EB61020C3802EB42027F28A3EBDF
:103640008203E2DCFDF708F8E1E700BF629EFF1F9E
:10365000109EFF1FF59BFF1F109CFF1F529EFF1F18
:10366000DC9DFF1FC69DFF1FC29DFF1F489CFF1FC3
:10367000009EFF1F509EFF1F149CFF1F549CFF1FA6
:10368000B69CFF1F5489FF1FABAAAA2A549EFF1F96
:10369000A99EFF1FA59EFF1F2C89FF1FA84B1B780B
:1036A000FBB1A84B1B88012B00F0D086022B00F049
:1036B000CB87032B01F04281042B01F0CD81052B38
:1036C00001F01784062B01F0D884072B01F0E78561
:1036D000082B01F07087092B01F0D5870A2B01F028
:1036E000A287019B1B88002B00F0F082964B1B7871
:1036F000002B40F0E682954B954A198834680020EB
:10370000012310602B6026E50130C0B2022886BF7D
:103710000021117010701946FFF7EEBB03980021CD
:1037200001708C49097800293FF41FA8844902914F
:103730000978002900F0AE87029800210170FFF798
:1037400014B8039B1B78002B7FF487AB029B1B787C
:10375000002B7FF482AB019B1988FFF784BB7E4A64
:103760001278002A3FF4F4AE7C4F387802F0E6FE7F
:103770007B4B1B78002B00F0B78439887E2900F240
:10378000B384784CDFF80C922368D9F800209B1A98
:103790000F2B40F29680744B01311B8889B239801F
:1037A0002BB1052B03D0C9B2052005F085FC6F4F66
:1037B000226898F80030C9F800203B70FEF761BE1F
:1037C000243B002BB8F8000040F3748498423EF488
:1037D00044AF9BB26648A8F8003001230370FEF79F
:1037E0003CBFDFF89081C0B298F8001005F08CFC67
:1037F000FFF74DBB5F4B3878197805F085FC85E401
:103800007F21402005F058FC5B495C4A3B680B6017
:1038100000211170FFE4C0B298F8001005F074FCAC
:10382000FFF723B9D8B298F8001005F06DFC3B689B
:1038300063E5534BDFF860E11978FEF70EBF4B2CC0
:1038400040F34C821834802CB8F800304D4AA8BFA1
:103850008024A3427FF4D5ADFEF727BF99F800007E
:1038600005F07AFC2188FFF7FEBA029B1B78002B3B
:103870007FF4CEAA039B1B78002B7FF4EEAA6AE7A5
:10388000FCF7EAFE1FE6FCF7E7FE87E43E4B0193F8
:103890001B88002B7FF4F6AD294B0293FFE5FCF764
:1038A000DBFECEE4FCF7D8FEFFF7CBB90132D2B293
:1038B000022A40F25A82002202701946FFF71CBB0E
:1038C000284C2A4F98F800303B70FEF7DABD7F2075
:1038D000FFF76EBA7F20FFF790B9194F1A49029788
:1038E0004FF0000C81F800C0009F02994FF0010ECC
:1038F00087F800E081F800C03DE6244F387802F0F8
:103900001DFE174B1B78002B00F0368239887E296C
:1039100000F23282134CDFF87C902368D9F8002043
:103920009B1A0F2BCDD91A4B0131188889B23980D7
:10393000002800F03D82C9B2C0B205F0BDFB36E7F9
:10394000B69CFF1FCE9DFF1F109EFF1FB49CFF1F44
:10395000F89BFF1F009EFF1F549EFF1F529EFF1FDC
:10396000AA9EFF1FDC9DFF1FBA9CFF1F109CFF1F1C
:10397000149CFF1F989CFF1F189CFF1F5489FF1F5A
:103980008B9EFF1F509EFF1F549CFF1F449CFF1FD8
:10399000949CFF1F989EFF1F6D9CFF1FDFF89CA348
:1039A00099F80000BAF80030DF4AE04CC31A82FBF5
:1039B000031ED917C1EB6E0101EB4101A3EB81039B
:1039C00003EB430354F8233018447F2840F3A684C4
:1039D0007F3882FB0032C317C3EB620303EB430360
:1039E000A0EB83007330DFF858B3C0B205F0B4FB2E
:1039F000BBF80030022B7FF62BAA99F80010BAF81A
:103A00000030C94ACB1A82FB030ED817C0EB6E00F8
:103A100000EB4000A3EB800303EB430304EB8303C1
:103A2000586808447F2840F318877F3882FB0032AB
:103A3000C317C3EB620202EB4202A0EB82007330B9
:103A4000C0B205F089FBBBF80030032B7FF600AA5B
:103A500099F80010BAF80030B34ACB1A82FB030E73
:103A6000D817C0EB6E0000EB4000A3EB800303EB24
:103A7000430304EB8304A06808447F2840F351818A
:103A80007F3882FB0032C317C3EB620202EB4202B3
:103A9000A0EB82007330C0B205F05EFBFFF7D8B92F
:103AA000DFF898A23868BAF800309F4A9F4CC31AD2
:103AB00082FB031ED917C1EB6E0101EB4101A3EBA1
:103AC000810303EB430354F8233018447F2840F369
:103AD000A0847F3882FB0032C317C3EB620303EB81
:103AE0004303A0EB83007330DFF85882DFF850B255
:103AF00098F80010C0B205F007FBBBF80030022BAD
:103B00007FF6FFAA3968BAF80030874ACB1A82FBE1
:103B1000030ED817C0EB6E0000EB4000A3EB800350
:103B200003EB430304EB8303586808447F2840F306
:103B300098867F3882FB0032C317C3EB620202EB28
:103B40004202A0EB82007330C0B298F8001005F07A
:103B5000DBFABBF80030032B7FF6D3AA3968BAF83A
:103B60000030714ACB1A82FB030ED817C0EB6E00EF
:103B700000EB4000A3EB800303EB430304EB83045F
:103B8000A06808447F2840F3F4807F3882FB00322D
:103B9000C317C3EB620202EB4202A0EB8200733058
:103BA00098F80010C0B205F0AFFAFFF7AABA0120EA
:103BB000FFF7FEB8DFF884A15B49BAF800205B4C40
:103BC0009A1A81FB020ED017C0EB6E0000EB40008A
:103BD000A2EB800202EB420254F8220018447F2834
:103BE00040F31B84A0F17F0381FB0321DA17C2EBB2
:103BF000610000EB4000A3EB80007330DFF840B1C0
:103C000098F80010C0B205F07FFABBF80030022B24
:103C100050D93968BAF80030434ACB1A82FB030EF8
:103C2000D817C0EB6E0000EB4000A3EB800303EB62
:103C3000430304EB8303586808447F2840F3E1867C
:103C40007F3882FB0032C317C3EB620202EB4202F1
:103C5000A0EB82007330C0B298F8001005F054FA5F
:103C6000BBF80030032B25D93868BAF800302E4A4B
:103C7000C31A82FB031ED917C1EB6E0101EB410190
:103C8000A3EB810303EB430304EB8304A368184411
:103C90007F2867DD7F3882FB0032C317C3EB6202E7
:103CA00002EB4202A0EB82007330C0B298F8001021
:103CB00005F02AFA3B68FFF71BBB05F04DFAFEF74B
:103CC000C9BF0021402005F0F7F914E599F800007C
:103CD00005F042FA0AE50120FEF78FBF243C002CD4
:103CE000B8F8003040F32486A3423EF4DEACA4B220
:103CF0000F4BA8F8004001221A70FEF7D6BC0D4BFE
:103D000001931B88002B7FF4BFABFFF77EB80A49F5
:103D10008342A8BF03460B60FEF789BE1446FFF737
:103D200065BBFCF799FCB6E6ABAAAA2A241F0100E2
:103D3000149CFF1F549CFF1FF89BFF1F0C9EFF1F2E
:103D4000289CFF1F989CFF1FDD4BDE4C19886A20C2
:103D500005F036FB98F800303B70FEF792BBFCF79D
:103D60007BFC41E4FCF778FC9FE702701946FFF703
:103D7000C3B8FCF771FC13E7D34B1B78002B3FF45F
:103D80009FAD3B88CE4F002B3FF49AADCD4CDFF872
:103D900048932268D9F80010521A0F2A7FF691AD85
:103DA000CA4A013B108899B2398000287FF4C3AD1C
:103DB000C8B205F0F5F9FAE4DFF820A33868BAF8DC
:103DC0000030C34AC34CC31A82FB031ED917C1EB90
:103DD0006E0101EB4101A3EB810303EB430354F8B4
:103DE000233018447F2840F328847F3882FB003238
:103DF000C317C3EB620303EB4303A0EB83007330F1
:103E0000DFF8DC82DFF8DCB298F80010C0B205F011
:103E10007BF9BBF80030022B7FF673A93968BAF83A
:103E20000030AB4ACB1A82FB030ED817C0EB6E00F2
:103E300000EB4000A3EB800303EB430304EB83039D
:103E4000586808447F2840F326867F3882FB00327A
:103E5000C317C3EB620303EB4303A0EB8300733090
:103E6000C0B298F8001005F04FF9BBF80030032BF2
:103E70007FF647A93868BAF80030954AC31A82FB22
:103E8000031ED917C1EB6E0101EB4101A3EB8103C6
:103E900003EB430304EB8304A36818447F287FF7F4
:103EA00068AF7F3882FB0032C317C3EB620303EBBA
:103EB0004303A0EB8300733072E6DFF820A299F889
:103EC0000000BAF80030824A824CC31A82FB031EFB
:103ED000D917C1EB6E0101EB4101A3EB810303EBA9
:103EE000430354F8233018447F2840F37F837F38FE
:103EF00082FB0032C317C3EB620303EB4303A0EB67
:103F000083007330DFF8DCB1C0B205F025F9BBF8EF
:103F10000030022B7EF69CAF99F80010BAF8003002
:103F20006B4ACB1A82FB030ED817C0EB6E0000EB76
:103F30004000A3EB800303EB430304EB83035868C7
:103F400008447F2840F39F857F3882FB0032C317E7
:103F5000C3EB620303EB4303A0EB83007330C0B2F7
:103F600005F0FAF8BBF80030032B7EF671AF99F834
:103F70000010BAF80030564ACB1A82FB030ED8174D
:103F8000C0EB6E0000EB4000A3EB800303EB4303A8
:103F900004EB8304A06808447F287FF7C2AE7F3813
:103FA00082FB0032C317C3EB620303EB4303A0EBB6
:103FB000830073306FE5DFF824A14549BAF800208B
:103FC000444C9A1A81FB020ED017C0EB6E0000EB36
:103FD0004000A2EB800202EB420254F82200184497
:103FE0007F2840F32E83A0F17F0381FB0321DA17A2
:103FF000C2EB610000EB4000A3EB80007330DFF800
:10400000E4B098F80010C0B205F07EF8BBF80030BC
:10401000022B7FF64FAE3968BAF800302C4ACB1A23
:1040200082FB030ED817C0EB6E0000EB4000A3EB41
:10403000800303EB430304EB8303586808447F28A1
:1040400040F325857F3882FB0032C317C3EB620340
:1040500003EB4303A0EB83007330C0B298F8001069
:1040600005F052F8BBF80030032B7FF623AE38681A
:10407000BAF80030164AC31A82FB031ED917C1EBE7
:104080006E0101EB4101A3EB810303EB430304EB5E
:104090008304A36818447F287FF764AE7F3882FBCF
:1040A0000032C317C3EB620303EB4303A0EB8300AF
:1040B0007330FAE501283EF4D0AA0123FFF78ABB4A
:1040C000449CFF1FDC9DFF1FA99EFF1F949CFF1FA8
:1040D000ABAAAA2AEC200100989EFF1F0C9EFF1F8E
:1040E000989CFF1F289CFF1FCE4B1B78002B3FF492
:1040F000E7AB3B88CC48002B3FF4E2ABCB4CDFF87E
:104100003C932268D9F80010521A0F2A7FF6D9ABD7
:10411000C74A013B128899B20180002A3FF447AB9D
:10412000052A7FF440ABFFF742BB4FF47A43013BD3
:10413000FDD199F8000005F00FF8FEF7F2BFDFF8A7
:1041400000A399F80000BAF80030BA4ABA4CC31A72
:1041500082FB031ED917C1EB6E0101EB4101A3EBFA
:10416000810303EB430354F8233018447F2840F3C2
:10417000E8817F3882FB0032C317C3EB620202EB97
:104180004202A0EB82007330DFF8B8B2C0B204F094
:10419000E3FFBBF80030022B7EF65AAE99F8000020
:1041A000BAF80030A34AC31A82FB0321DA17C2EB24
:1041B000610202EB4202A3EB820303EB430304EB35
:1041C00083035B6818447F2840F325847F380C22E2
:1041D00090FBF2F302FB13007330C0B204F0BCFF9B
:1041E000BBF80030032B7EF633AE99F80000BAF826
:1041F0000030904AC31A82FB0321DA17C2EB610236
:1042000002EB4202A3EB820303EB430304EB8304C0
:10421000A36818447F287FF784AD7F380C2290FB79
:10422000F2F302FB1300733035E4DFF814A23868B0
:10423000BAF800307F4A804CC31A82FB031ED9179C
:10424000C1EB6E0101EB4101A3EB810303EB4303DF
:1042500054F8233018447F2840F370817F3882FB64
:104260000032C317C3EB620202EB4202A0EB8200F2
:104270007330DFF8D481DFF8CCB198F80010C0B209
:1042800004F042FFBBF80030022B7EF63AAF3868EC
:10429000BAF80030674AC31A82FB0321DA17C2EB6F
:1042A000610202EB4202A3EB820303EB430304EB44
:1042B00083035B6818447F2840F3B4837F380C2263
:1042C00090FBF2F302FB13007330C0B298F80010B9
:1042D00004F01AFFBBF80030032B7EF612AF3868EB
:1042E000BAF80030534AC31A82FB0321DA17C2EB33
:1042F000610202EB4202A3EB820303EB430304EBF4
:104300008304A36818447F287FF733AD7F380C22DD
:1043100090FBF2F302FB1300733041E4FCF79CF9CD
:10432000FFF761BBDFF818A14249BAF80020424C00
:104330009A1A81FB020ED017C0EB6E0000EB400012
:10434000A2EB800202EB420254F8220018447F28BC
:1043500040F3FA80A0F17F0381FB0321DA17C2EB5F
:10436000610101EB4101A3EB81007330DFF8D4B0B0
:1043700098F80010C0B204F0C7FEBBF80030022B62
:104380007FF698AC3868BAF800302A4AC31A82FB24
:104390000321DA17C2EB610202EB4202A3EB8203B4
:1043A00003EB430304EB83035B6818447F2840F36B
:1043B0003C837F380C2290FBF2F302FB1300733036
:1043C000C0B298F8001004F09FFEBBF80030032B39
:1043D0007FF670AC3868BAF80030164AC31A82FB10
:1043E0000321DA17C2EB610202EB4202A3EB820364
:1043F00003EB430304EB8304A36818447F287FF78F
:10440000B1AC7F380C2290FBF2F302FB1300733047
:104410004BE4FCF721F9FFF767BBFCF71DF9FFF749
:10442000EDBB00BFA99EFF1F529EFF1FDC9DFF1F1B
:10443000BA9CFF1FABAAAA2A7C210100989EFF1FED
:104440000C9EFF1F289CFF1F989CFF1FDFF838A3BE
:1044500099F80000BAF80030C34AC44CC31A82FB72
:104460000317D917C1EB670101EB4101A3EB8103EE
:1044700003EB430354F8233018447F286ADD7F3868
:1044800082FB0032C317C3EB620202EB4202A0EBD5
:1044900082007330DFF8F4B2C0B204F05DFEBBF806
:1044A0000030022B7FF61DA999F80000BAF8003001
:1044B000AD4AC31A82FB0321DA17C2EB610202EB99
:1044C0004202A3EB820303EB430304EB83035B6829
:1044D00018447F2840F3AC827F380C2290FBF2F323
:1044E00002FB13007330C0B204F036FEBBF800309C
:1044F000032B7FF6F6A899F80000BAF800309A4A24
:10450000C31A82FB0321DA17C2EB610202EB4202FB
:10451000A3EB820303EB430304EB8304A368184477
:104520007F2814DD7F380C2290FBF2F302FB13008E
:104530007330C0B204F010FEFFF7D3B8FCF78CF86C
:1045400097E6FCF789F81FE6FCF786F80EE7FCF71C
:1045500083F8EEE7FCF780F89CE7DFF82CA299F8E7
:104560000000BAF80030804A814CC31A82FB031E57
:10457000D917C1EB6E0101EB4101A3EB810303EB02
:10458000430354F8233018447F28DADD7F3882FB58
:104590000032C317C3EB620303EB4303A0EB8300BA
:1045A0007330F1E5DFF8E0A13868BAF800306E4A00
:1045B0006F4CC31A82FB031ED917C1EB6E0101EBCE
:1045C0004101A3EB810303EB430354F82330184468
:1045D0007F28B3DD7F3882FB0032C317C3EB620351
:1045E00003EB4303A0EB8300733042E6FCF734F89F
:1045F00088E4DFF894A15C49BAF800205C4C9A1A70
:1046000081FB020ED017C0EB6E0000EB4000A2EB66
:10461000800202EB420254F8220018447F2893DD06
:10462000A0F17F0381FB0321DA17C2EB610000EBED
:104630004000A3EB8000733098E6FCF70DF8FFF71D
:10464000DFBBFCF709F8DAE4DFF83CA199F80000D9
:10465000BAF80030444A474CC31A82FB0317D917F3
:10466000C1EB670101EB4101A3EB810303EB4303C2
:1046700054F8233018447F287FF76CAF7F3882FBD3
:104680000032C317C3EB620303EB4303A0EB8300C9
:104690007330FFE638480090384839490390FEF7F8
:1046A0005BB8DFF8E4A099F80000BAF800302E4AB1
:1046B000344CC31A82FB0321DA17C2EB610202EB0E
:1046C0004202A3EB820303EB430354F82330184464
:1046D0007F2840F3A4817F380C2290FBF2F302FB89
:1046E00013007330DFF8A4B0C0B204F035FDBBF89E
:1046F0000030022B19D999F80000BAF800300C22CA
:10470000C11A91FBF2F302FB131302FB03435B6834
:1047100018447F2840F384847F3890FBF2F302FB37
:1047200013007330C0B204F017FDBBF80030032B48
:104730007EF68EABBAF8003099F800000C22C11A50
:1047400091FBF2F302FB131302FB0344A36818442A
:104750007F287FF7E6AA7F3890FBF2F302FB130075
:104760007330FFF798B900BFABAAAA2A241F010033
:10477000901B0100EC200100629EFF1FF59BFF1FB4
:10478000109EFF1F002401000C9EFF1F289CFF1F8E
:10479000DFF864A33868BAF80030CE4ACE4CC31AAA
:1047A00082FB0321DA17C2EB610202EB4202A3EBA8
:1047B000820303EB430354F8233018447F2840F36B
:1047C00024817F380C2290FBF2F302FB130073303C
:1047D000DFF82883DFF828B398F80010C0B204F09F
:1047E00093FCBBF80030022B1AD93868BAF80030B5
:1047F0000C22C11A91FBF2F302FB131302FB0343D9
:104800005B6818447F2840F3D4837F3890FBF2F331
:1048100002FB13007330C0B298F8001004F074FC6F
:10482000BBF80030032B7EF66CACBAF80030386869
:104830000C22C11A91FBF2F302FB131302FB034497
:10484000A36818447F287FF794AA7F3890FBF2F37F
:1048500002FB13007330FFF7A3B9FBF7FDFEFFF770
:10486000EFB8FBF7F9FEFFF76FB9DFF88CA29949B3
:10487000BAF80020984C9A1A81FB0210D117C1EBAC
:10488000600101EB4101A2EB810202EB420254F80C
:10489000220018447F2840F3BB80A0F17F030C2046
:1048A00093FBF0F200FB12307330DFF854B298F84B
:1048B0000010C0B204F028FCBBF80030022B1AD95B
:1048C0003868BAF800300C22C11A91FBF2F302FBEF
:1048D000131302FB03435B6818447F2840F39D8356
:1048E0007F3890FBF2F302FB13007330C0B298F8EC
:1048F000001004F009FCBBF80030032B7FF6DAA9A6
:10490000BAF8003038680C22C11A91FBF2F302FBAE
:10491000131302FB0344A36818447F287FF722AADD
:104920007F3890FBF2F302FB13007330FFF7BDB941
:10493000012B3DF4BAAE0124FFF7DAB9DFF8B8A1D4
:1049400099F80000BAF80030624A644CC31A82FB3E
:104950000321DA17C2EB610202EB4202A3EB8203EE
:1049600003EB430354F8233018447F2846DD7F3897
:104970000C2290FBF2F302FB13007330DFF880B1DE
:10498000C0B204F0E9FBBBF80030022B19D999F84A
:104990000000BAF800300C22C11A91FBF2F302FBBE
:1049A000131302FB03435B6818447F2840F38F8096
:1049B0007F3890FBF2F302FB13007330C0B204F0B7
:1049C000CBFBBBF80030032B7EF68BAEBAF8003081
:1049D00099F800000C22C11A91FBF2F302FB1313A9
:1049E00002FB0344A36818447F287FF7B0AD7F38EB
:1049F00090FBF2F302FB130073309AE5FBF72CFEF9
:104A0000BCE7FBF729FEFFF726B9FBF725FEDFE63B
:104A1000FBF722FE49E7FBF71FFEFFF7DEBBFBF7C4
:104A20001BFE5FE6FBF718FE4FE4FBF715FEC7E43D
:104A3000FBF712FE57E5DFF8C0A099F80000BAF8BE
:104A40000030244A264C34E6DFF8ACA03868BAF8C7
:104A50000030204A224CA2E6DFF89CA099F8000022
:104A6000BAF800301B4A1F4C70E7029B1B78002BE2
:104A70007EF4CEA9FEF7F1B9DFF87CA01549BAF8AB
:104A80000020174CF7E6FBF7E7FDFFF768BAFBF7E6
:104A9000E3FDFFF7E2BAFBF7DFFDFFF7E1B9124BE9
:104AA0001B78002B00F0D682104B1B78002B7DF476
:104AB000FCAD0F4B1B78002B3DF4F7ADB8F8003080
:104AC0000C490A33A8F800300A70FDF7EEBDFBF779
:104AD000C3FD73E7ABAAAA2A002401007C210100D0
:104AE000A8220100901B0100A69EFF1FA79EFF1F8A
:104AF000A89EFF1F149CFF1F0C9EFF1F989CFF1F6A
:104B0000289CFF1FA44C2288002A00F02383A3497D
:104B1000DFF89CB20988BBF800000331884227DD2A
:104B20009F48A0490088B1F800E0DFF87CC2181A5D
:104B30000C2190FBF1F901FB19004FF0900909FBE2
:104B40000EFE01FB00E06FF00B0E5CF8000003446A
:104B50000EFB02307F2840F3CE847F3890FBF1F3C8
:104B600001FB13007330C0B298F8001004F0CCFAC7
:104B7000BBF8002023881344022B23DD884B894A8D
:104B800038681B88B2F800C0DFF81CE2C31A0C2199
:104B900093FBF1F201FB1232902303FB0CF301FBB8
:104BA000023373445B6818447F2840F3A7857F383D
:104BB00090FBF1F301FB13007330C0B298F80010C2
:104BC00004F0A2FABBF8002023881344032B23DD52
:104BD000734B744A38681B88B2F800C0DFF8C8E12C
:104BE000C31A0C2193FBF1F201FB1232902303FB59
:104BF0000CF301FB023373449B6818447F2840F395
:104C00000B857F3890FBF1F301FB13007330C0B2CA
:104C100098F8001004F078FABBF8002023881344B9
:104C2000042B7FF747A85D4B1B88012B7FF442A81C
:104C30003A68A2F10C007F287FF794A88B3A0C20E9
:104C400092FBF0F300FB13207330FFF72EB8524CA9
:104C50002388002B40F00D83DFF854B15049514AAE
:104C60000988D7F80080B2F800E04F48C1EB080C83
:104C70000C229CFBF2F102FB11C14FF0900C0CFBDB
:104C80000EFE02FB01E16FF00B0E405880440EFB5C
:104C900003807F2840F36A84A0F17F0393FBF2F046
:104CA00002FB10307330414BC0B2197804F02CFA7B
:104CB000BBF8002023881344022B23DD384A394BEC
:104CC00011883868B3F800C0DFF8DCE0411A0C2224
:104CD00091FBF2F302FB1311902303FB0CF302FB95
:104CE000013373445B6818447F2840F3F1847F38B4
:104CF00090FBF2F302FB130073302C4BC0B2197817
:104D000004F002FABBF8002023881344032B23DDB0
:104D1000234A244B11883868B3F800C0DFF888E0D4
:104D2000411A0C2291FBF2F302FB1311902303FBB7
:104D30000CF302FB013373449B6818447F2840F353
:104D4000CF847F3890FBF2F302FB13007330174BD4
:104D5000C0B2197804F0D8F9BBF8002023881344B6
:104D6000042B7EF7CEA90D4B1B88012B7EF4C9A91D
:104D70003A68A2F10C007F2840F356818B3A0C2050
:104D800092FBF0F300FB13207330084BC0B219788C
:104D900004F0BAF9FEF7B5B99A9CFF1F429CFF1FB9
:104DA0000C9EFF1FBC9DFF1F201C0100989CFF1F35
:104DB000289CFF1FCF4C2388002B40F06582DFF832
:104DC00068B3CD49CD4A098899F80000B2F800E0EF
:104DD000DFF85883C1EB000C0C229CFBF2F102FBC4
:104DE00011C14FF0900C0CFB0EFE02FB01E16FF0C5
:104DF0000B0E58F8011008440EFB03007F2840F307
:104E00007E83A0F17F0393FBF2F002FB103073303E
:104E1000C0B204F0A1F9BBF8002023881344022B90
:104E200022DDB54AB54B118899F80000B3F800C0EF
:104E3000DFF8F8E2411A0C2291FBF2F302FB1311A6
:104E4000902303FB0CF302FB013373445B681844AB
:104E50007F2840F341847F3890FBF2F302FB13007C
:104E60007330C0B204F078F9BBF8002023881344F3
:104E7000032B22DDA04AA14B118899F80000B3F85A
:104E800000C0DFF8A8E2411A0C2291FBF2F302FB0A
:104E90001311902303FB0CF302FB013373449B6853
:104EA00018447F2840F320847F3890FBF2F302FB04
:104EB00013007330C0B204F04FF9BBF80020238810
:104EC0001344042B7DF7C4AF8D4B1B88012B7DF45D
:104ED000BFAF99F80020A2F10C007F287EF721AF28
:104EE0008B3A0C2092FBF0F300FB13207330FEF79B
:104EF000D2BDDFF804A299F80000BAF80030814C66
:104F0000C11A0C2291FBF2F302FB131302FB03F311
:104F1000E35818447F287FF771AD7F3890FBF2F398
:104F200002FB1300733029E5774B1A88182A13D037
:104F30003B681344A3F118007F2840F3C6830C207C
:104F4000973B93FBF0F200FB123303F173006F4BBE
:104F5000C0B2197804F0D8F86D4B6E491A78022A5D
:104F600094BF013200221A701A7831F81200182802
:104F700010D10424022A02F10100C2B288BF00222B
:104F800031F81200182804D1013CF3D11A70FEF751
:104F9000B8B81A703B680344A3F118007F2843DDBA
:104FA0000C20973B93FBF0F200FB123303F17300EC
:104FB000EBE6FBF751FB2EE4534B1B88182B12D06A
:104FC00099F800201344A3F118007F2840F393833D
:104FD0000C20973B93FBF0F200FB123303F17300BC
:104FE000C0B204F0B9F84A4A4A4B127833F812308A
:104FF000182B3DF42DAF99F800201344A3F11800AD
:105000007F287EF78EAE0C20973B93FBF0F200FBDF
:10501000123303F17300FEF73EBDFBF71DFB65E4A1
:10502000FBF71AFBFFF77EBBFBF716FBADE63A4B2F
:105030001B78002B7DF439AB384B1B78002B3DF4EB
:1050400034ABB8F800303649013BA8F800300A709C
:10505000FDF72BBB304B1B78002B7DF477AF2F4B2C
:105060001B78002B3DF421ABB8F800302C490133FC
:10507000A8F800300A70FDF718BBDFF87CA099F89B
:105080000000BAF80030274C3AE71F4A1288182A65
:1050900012D01344A3F118007F2840F3C1820C20E2
:1050A000973B93FBF0F200FB123303F17300C0B2A5
:1050B00098F8001004F028F8154B16491A78022ABF
:1050C00094BF013200221A701A7831F812001828A1
:1050D0002FD10424022A02F10100C2B288BF0022AB
:1050E00031F81200182823D1013CF3D11A703B6823
:1050F000FEF7FEB89A9CFF1F0C9EFF1FBC9DFF1F72
:10510000429CFF1F00240100329CFF1F989CFF1F40
:10511000999CFF1F289EFF1FA79EFF1FA89EFF1F91
:10512000149CFF1FA8220100289CFF1F201C0100C7
:105130001A703B680344A3F118007F287EF712AE73
:105140000C20973B93FBF0F200FB123303F173004A
:10515000FEF7ABBDDFF82CB3E2E4BE4B1A88182A89
:1051600013D03B681344A3F118007F2840F37A82E0
:105170000C20973B93FBF0F200FB123303F173001A
:10518000B54BC0B2197803F0BFFFB44BB4491A78DD
:10519000022A94BF013200221A701A7831F81200E4
:1051A00018287FF4F7AE0424022A02F1010294BF0A
:1051B000D2B2002231F8120018287FF4EAAE013C86
:1051C000F2D11A70FDF79DBFA24B1B88182B12D08D
:1051D00099F800201344A3F118007F2840F372824D
:1051E0000C20973B93FBF0F200FB123303F17300AA
:1051F000C0B203F0B1FF994A994B127833F81230DC
:10520000182B7FF4F8AEFDF723BE924A1288182AB5
:1052100012D01344A3F118007F2840F369820C20B8
:10522000973B93FBF0F200FB123303F17300C0B223
:1052300098F8001003F068FF884B89491A78022A11
:1052400094BF013200221A701A7831F8120018281F
:105250007FF46FAF0424022A02F1010294BFD2B29C
:10526000002231F8120018287FF462AF013CF2D11D
:105270003CE77C4ADFF80CB21288BBF8001003321E
:1052800091427FF715ADE9E4764ADFF8F8B112886C
:10529000BBF80010033291427FF7BDAD91E5724C2F
:1052A0002388002B40F0E481DFF8D8B16F4999F8EA
:1052B00000006F4A09881788DFF8B8E1411A0C220C
:1052C00091FBF2FC02FB1C114FF0900C0CFB07F75A
:1052D00002FB01716FF00B075EF80110014407FB40
:1052E00003107F2840F3C1817F3890FBF2F302FB6B
:1052F00013007330C0B203F02FFFBBF800202388E7
:105300001344022B21DD594B594A99F800001B88A0
:10531000B2F800E0574FC31A0C2193FBF1F201FBE6
:105320001232902303FB0EF301FB02333B445B6814
:1053300018447F2840F3F8817F3890FBF1F301FB9C
:1053400013007330C0B203F007FFBBF800202388BE
:105350001344032B21DD454B454A99F800001B8877
:10536000B2F800E0434FC31A0C2193FBF1F201FBAA
:105370001232902303FB0EF301FB02333B449B6884
:1053800018447F2840F3C1817F3890FBF1F301FB83
:1053900013007330C0B203F0DFFEBBF80020238897
:1053A0001344042B7EF79DA92E4B1B88012B7EF402
:1053B00098A999F80020A2F10C007F287FF7C7A8D0
:1053C0008B3A0C2092FBF0F300FB13207330FFF7B5
:1053D000B0B8294B00227F2107201A8003F06CFE11
:1053E0007F210B2003F068FEFDF7E3BD234B012274
:1053F0007F2107201A8003F05FFE7F210B2003F03E
:105400005BFEFDF7CEBD1E4B04227F2107201A80D4
:1054100003F052FE00210B2003F04EFEFDF7BABD53
:10542000174B02227F2107201A8003F045FE7F21BF
:105430000B2003F041FEFDF7A8BD114B0021072012
:105440001C8003F039FE7F210B2003F035FEFDF7B1
:1054500097BD00BF3A9CFF1F989CFF1F999CFF1FA0
:105460009C9DFF1F429CFF1F9A9CFF1F0C9EFF1FCD
:10547000BC9DFF1F201C0100129CFF1FAA9CFF1F48
:10548000029EFF1F289CFF1FAF4B1A88182A13D0BB
:105490003B681344A3F118007F2840F33F810C20A0
:1054A000973B93FBF0F200FB123303F17300A74B21
:1054B000C0B2197803F028FEA54BA6491A78022A33
:1054C00094BF013200221A701A7831F8120018289D
:1054D0007FF460AD0424022A02F1010294BFD2B22B
:1054E000002231F8120018287FF453AD013CF2D1AC
:1054F0001A70FDF706BEFBF7AFF8FFF734BBFBF7FA
:10550000ABF885E4904A1288182A12D01344A3F10C
:1055100018007F2840F3F6800C20973B93FBF0F2B5
:1055200000FB123303F17300C0B298F8001003F0CF
:10553000EBFD874B87491A78022A94BF013200227B
:105540001A701A7831F8120018287FF4F2AD04248A
:10555000022A02F1010294BFD2B2002231F81200F5
:1055600018287FF4E5AD013CF2D1BFE5FBF774F8F4
:10557000FFF799BB744B1B88182B12D099F80020A9
:105580001344A3F118007F2840F3C5800C20973BFB
:1055900093FBF0F200FB123303F17300C0B203F08F
:1055A000DBFD6B4A6B4B127833F81230182B7FF40B
:1055B00022ADFDF74DBC684B1B88182B12D099F813
:1055C00000201344A3F118007F2840F3B0800C2082
:1055D000973B93FBF0F200FB123303F17300C0B270
:1055E00003F0BAFD5A4A5D4B127833F81230182B8B
:1055F0003EF477A899F800201344A3F118007F28FF
:105600007EF7A5AF0C20973B93FBF0F200FB123323
:1056100003F17300FEF78DBFFBF71EF8FFF7F7BA33
:10562000FBF71AF843E5484B1B88182B11D099F863
:1056300000201344A3F118007F2872DD0C20973B53
:1056400093FBF0F200FB123303F17300C0B203F0DE
:1056500083FD3F4A3F4B127833F81230182BC9D1E3
:10566000FEF73FB8FAF7F8FF8AE5FAF7F5FF41E6EB
:105670003B4ADFF800B11288BBF8001003329142B8
:105680007FF73BAE12E6374B1B88182B11D099F8E9
:1056900000201344A3F118007F2839DD0C20973B2C
:1056A00093FBF0F200FB123303F17300C0B203F07E
:1056B00053FD274A2C4B127833F81230182B99D10E
:1056C000FEF70FB8FAF7C8FF92E5FAF7C5FF3EE418
:1056D000FAF7C2FFFFF711BBFAF7BEFFFFF7C1BB36
:1056E000FAF7BAFFFFF733BBFAF7B6FFFFF7E2BBF3
:1056F000FAF7B2FF9BE5FAF7AFFF71E4FAF7ACFFF8
:10570000FFF75BBAFAF7A8FF0EE7FAF7A5FF41E645
:10571000FAF7A2FFCAE7FAF79FFF3FE7FAF79CFF05
:10572000C5E6FAF799FF91E7FAF796FF0AE6FAF766
:1057300093FF54E70D4B03930D4B0293FDF7A4BE6B
:1057400023601946FDF7D8BB3C9CFF1F989CFF1FA8
:10575000999CFF1FA49DFF1F329CFF1F289EFF1FC7
:10576000429CFF1F3A9CFF1F9C9DFF1FF59BFF1F44
:10577000B69CFF1F289CFF1F38B507F09DFC0B4807
:1057800005F0D4FB00234FF07E5201210848FAF7C0
:105790006DFE084B084A0949802400251C711846F3
:1057A0001D60BDE838400BF049B900BFA89CFF1F41
:1057B000E09DFF1F6C9EFF1F1C89FF1FFD05000061
:1057C00010B50446A4206368198803F0F9FDE36866
:1057D000A6201988BDE8104003F0F2BD43682A20D6
:1057E000198803F0EDBD00BF10B5044622206368A0
:1057F000198803F0E5FDE36824201988BDE810400E
:1058000003F0DEBD10B504460A206368198803F072
:10581000D7FDE3680C201988BDE8104003F0D0BD27
:1058200010B5044606206368198803F0C9FDE368D3
:1058300008201988BDE8104003F0C2BD10B5044629
:1058400002206368198803F0BBFDE368042019880F
:10585000BDE8104003F0B4BD70B50E4C84B0122505
:105860000422012306460390029320468DE824007B
:105870001423102106F05EFD0622092302930396ED
:105880000195204600921423102106F053FD04B028
:1058900070BD00BFD89EFF1F70B5AE4CB4F900308C
:1058A000032B00F0E880002B4DD0022B6CD0052B91
:1058B00000F09880012B00F0C080042B00D070BD58
:1058C00000244FF4AF75E1B2A34805F097FB013413
:1058D0008542A8BF05460C2CF5D1012008F094FAAA
:1058E0000446002008F090FA323CA0F132039B49B4
:1058F0006FF4957000FB03F300FB04F081FB03429F
:1059000081FB0041DB17C017C3EB6223C0EB6120B2
:1059100003F5AF7200F5AF739342A8BF13469D42E3
:10592000A8BF1D46A5F11401312900F3E28040F221
:105930006C7332218A488B4A0180BDE870402A206E
:10594000136003F03DBD0E2007F01AFB40F6FF7117
:10595000C8308842A8BF084620EAE07000F5FA6225
:1059600083B28A42804D814EA8BF0A460220194662
:1059700033802A8003F024FD2988042003F020FDD1
:10598000B4F90030022B92D1172008F03DFA0546F9
:10599000162008F039FAA842B8BF284600F1C8011D
:1059A000B1F5FA7FC0F2BF80B1F57A6FA8BF4FF4AE
:1059B0007A6101F54873B3F57A6FA8BF4FF47A6343
:1059C0009BB289B26A4A6B4D11800A202B8003F08A
:1059D000F7FC29880C2003F0F3FCB4F90030052B08
:1059E0007FF468AF0F2008F00FFAC0F53F6304336F
:1059F000B3F5AF6FC0F28F80B3F5FA6FA8BF4FF465
:105A0000FA6399B25C4BC0F54360B0F5AF6F198093
:105A10007EDBB0F5FA6FA8BF4FF4FA6083B2574D42
:105A2000A4202B8003F0CCFC2988A62003F0C8FC1E
:105A3000B4F90030012B7FF440AF0B2007F0BCFF1E
:105A400000283CD0112008F0DFF900F1C801B1F5C1
:105A50002F7F3CDB41F25C23994278DC484A00F519
:105A6000487089B2B0F52F7F11806DDB8342A8BFEB
:105A700003469BB231E0102008F0C6F9C830B0F5FB
:105A8000FA7F4BDBB0F57A6F0146A8BF4FF47A611D
:105A900001F51673B3F57A6FA8BF4FF47A639BB222
:105AA00089B2384A384D118022202B8003F088FCBF
:105AB0002988242003F084FCB4F90030F3E6152093
:105AC00007F05EFA00F59671B1F52F7F30DA40F2FB
:105AD00014534FF42F712A4A11802C4D06202B802D
