:1000000000800020BD010000E1D8000099D8000068
:1000100099D8000099D8000099D8000099D800001C
:1000200099D8000099D8000099D80000E1D80000C4
:10003000E1D8000099D8000061CF000065D0000031
:10004000E1D80000E1D80000E1D80000E1D80000CC
:10005000E1D80000E1D80000E1D80000E1D80000BC
:10006000E1D80000E1D80000E1D80000E1D80000AC
:10007000E1D80000E1D80000E1D80000E1D800009C
:10008000E1D80000E1D80000E1D80000E1D800008C
:10009000E1D80000E1D80000E1D80000E1D800007C
:1000A0009DB40000A9B40000E1D80000E1D8000030
:1000B000E1D80000E1D80000E1D80000E1D800005C
:1000C000E1D80000E1D80000E1D80000E1D800004C
:1000D000E1D80000E1D80000E1D80000E1D800003C
:1000E000E1D80000E1D80000E1D80000E1D800002C
:1000F000E1D80000FDFC0000E1D80000CDE30000E5
:10010000E1D8000069E60000E1D80000E1D8000075
:10011000E1D80000E1D80000E1D80000E1D80000FB
:10012000E1D80000E1D80000E1D80000E1D80000EB
:10013000E1D80000E1D80000E1D80000E1D80000DB
:10014000E1D80000E1D80000E1D80000E1D80000CB
:1001500051D1000065D1000079D100008DD100009F
:10016000E1D8000085E90000E1D80000E1D80000F6
:10017000E1D80000E1D80000E1D80000E1D800009B
:10018000E1D80000E1D80000E1D80000E1D800008B
:10019000E1D80000E1D80000E1D80000E1D800007B
:1001A000E1D80000E1D80000E1D80000E1D800006B
:1001B000E1D80000E1D80000E1D80000564B4CF235
:1001C000205210B51A804DF628121A8000BF00BFC9
:1001D0000DF08AFB514B4FF010621A60504A9A6042
:1001E000504ADA60504A136813F4807304D14F49BF
:1001F0000B604FF4A85313604D4B1A78110703D5C9
:100200001A7842F008021A704A4B4B492A221A7097
:100210004A4A4B4B8B4204D252F8040F43F8040B6A
:10022000F8E7484B484900228B4202D243F8042B9E
:10023000FAE74649464A002352F8230041F82300D2
:1002400001336F2BF8D1434B434A802103F8011B44
:100250009342FBD1414B3D4A1A60414B8A221A70AE
:10026000A3F5805324225A70A0221A709A7992071B
:10027000FCD59A79D406FCD43A4A937903F00C035E
:10028000082B384BF9D103221A7140225A719A79FE
:100290009006FCD5334A9179324B4906FBD5324A58
:1002A000324911600221516020221A709A7902F0BD
:1002B0000C020C2AFAD12E4B2E4A1A602E4B2F4AD2
:1002C0001A6000225A60072243F8042C2C4AC3F813
:1002D0000C2D62B60DF0B8FE144B1B68DA0705D57D
:1002E00028480DF085FC284B284A1A60284B1B78BB
:1002F0005B0609D5244C254B22689A4204D121483B
:100300000DF076FC0023236010F0B2FF0DF0F2FA3E
:100310000DF020FAFEE700BF0E20054030800440BB
:10032000823F04000100002B10D0034014D0034092
:1003300002D0074000E007405C9CFF1FB44E010064
:100340004088FF1F5C9CFF1F84A4FF1F0082FF1FCB
:100350000000000000E400E05FE400E008ED00E0E1
:100360000050064000400640448004400000030165
:1003700004800440C010050014E000E0FF76010096
:100380000000202088CCD9601CE00340A5C3945A0B
:1003900000F00740FFFFFFFFFFFFFFFFFFFFFFFF32
:1003A000FFFFFFFFFFFFFFFFFFFFFFFFFFFFFFFF5D
:1003B000FFFFFFFFFFFFFFFFFFFFFFFFFFFFFFFF4D
:1003C000FFFFFFFFFFFFFFFFFFFFFFFFFFFFFFFF3D
:1003D000FFFFFFFFFFFFFFFFFFFFFFFFFFFFFFFF2D
:1003E000FFFFFFFFFFFFFFFFFFFFFFFFFFFFFFFF1D
:1003F000FFFFFFFFFFFFFFFFFFFFFFFFFFFFFFFF0D
:10040000FFFFFFFFFFFFFFFFFFFFFFFFDEF9FFFF23
:1004100010B5054C237833B9044B13B10448AFF33E
:1004200000800123237010BD5C9CFF1F00000000B2
:10043000B84E0100084B10B51BB108490848AFF38E
:1004400000800848036803B910BD074B002BFBD0A0
:10045000BDE81040184700BF00000000609CFF1F6F
:10046000B84E01005C9CFF1F0000000038B5044638
:10047000104621700A491D4610F0DCFC01464FF081
:100480007E5010F08BFD074910F0D4FCE5606060F1
:10049000256165610DF068FDE061204638BD00BF53
:1004A000DB0FC9400024744938B50446104621705A
:1004B00009491D4610F0BEFC01464FF07E5010F079
:1004C0006DFD064910F0B6FCE56060602561656170
:1004D0000DF04AFDE06138BDDB0FC94000247449CE
:1004E00038B503780446032B20D8DFE803F01A1848
:1004F0001002C168406910F093FB0D490546606821
:1005000010F04CFD0146284610F048FD38BD084962
:10051000406810F043FDE16810F08CFC38BDC06805
:1005200038BDC168406910F07BFB38BD002038BD84
:100530000024744970B504460E460DF015FD0546BD
:10054000E069281A10F022FCE3682361E561666126
:10055000A0610146606810F021FD0146A0601048CE
:1005600010F01CFD0FF0F2FF0FF092FC10F004FBF6
:10057000054601464FF07E5010F052FB616910F0C5
:1005800059FC21690646284610F054FC01463046C5
:1005900010F048FBE0602046BDE87040FFF7A0BFC8
:1005A000000080BF08B50E200CF0AEFF114B1B8879
:1005B000012B19D0104B1B88984213DB40F6FF71BA
:1005C0008842D4BFC3EB0001C3EB0101C1EB013191
:1005D000C3F57F630F33282091FBF3F1BDE808409A
:1005E0000DF018BB0021F3E70146BDE808401420D8
:1005F0000DF010BBB49EFF1F489DFF1F10B50446B1
:100600000CF084FD204610BD70B44C88A04220D967
:1006100001230133DBB21CB2660031F8144084427E
:100620001D46F6D3A04211D005F10045013D965B71
:1006300031F8151032F81530401AF21A00FB02F0AA
:10064000641A90FBF4F4E01870BC7047905B70BCC7
:10065000704702260125E5E700280CDA064A4342E6
:1006600082FB0320DA17C2EB600000EB4000A3EB33
:100670008000C0F10C007047ABAAAA2A38B5234B02
:100680001B78002B2CD015200CF03EFF204B18605F
:10069000204B1B88984203DA1F4C237863BB38BD7C
:1006A0001E4A1488A042A4EB0302A8BF20467F2A5A
:1006B0001CDDC01AC001541C90FBF4F4002CEBD0DC
:1006C000154B1A780AB901221A70154D2B689C42F5
:1006D00004D0144BE1B2187808F08AFF2C6038BDC2
:1006E00011200EF02DF80A4B1860D1E7C01AC0EBAC
:1006F000C01090FBF2F4E1E70A4B0021187808F0F3
:1007000077FF0023064A2370136038BD689EFF1FE1
:10071000889CFF1F029DFF1F409FFF1FE09EFF1F41
:10072000389FFF1FDC9CFF1F38B50F200EF008F824
:100730001B4A1C4B12881860C0F53B600830904281
:1007400020DB194B1B889842A3EB0204A8BF184674
:10075000801A7F2CC6BFC0010134C0EBC01090FBD3
:10076000F4F47CB1114B1A780AB901221A70104DB9
:100770002B689C4204D00F4BE1B2187808F038FF88
:100780002C6038BD094C237803B938BD094B0021D2
:10079000187808F02DFF0023054A2370136038BD38
:1007A0004C9DFF1FA09CFF1FCC9EFF1FF09EFF1FB4
:1007B0000C9DFF1FFA9CFF1FF0B40E8886420DD2DD
:1007C00003F10043013B31F81350854202D9F0BCDC
:1007D000FFF71ABF32F81300F0BC70471088F0BC66
:1007E000704700BF094B1B880C2B09D8084A80B200
:1007F00052F8232028B143F6FE73984203D9108C97
:100800007047108870470349FFF7FEBEB69CFF1F74
:10081000A4280100402A01004B4B4C4A2DE9F04727
:100820001E8814684A4BB442B3F80080494B33DB4E
:100830004445A8BF4446A6421C60C8BF00202DDD29
:10084000C6EB0807B7F5804F33DB80037B1C90FBBA
:10085000F3F0FFF7C7FF404A404B15881B88C0F3F1
:10086000C61909FB05F57F2D8246A8BF7F252BB34E
:10087000A64253DC4445D4BFC6EB0404C6EB0804CF
:100880009F42CCBF03FB04445C43354BC8BF0137D8
:1008900094FBF7F71F6013E034461E60C6EB0807B1
:1008A000A045D4BFC6EB0800C6EB0400B7F5804FE7
:1008B000CBDAC0EB803090FBF7F0CAE7284A136030
:1008C000284C2368994508D0274B1B88002B34D12E
:1008D000264B1B886BBBC4F80090254C23689A45B7
:1008E00006D0214B1B885A1F032A19D9C4F800A02F
:1008F000204C23689D420FD01F4B188848B11A4BDB
:100900001E4A1B88D35C834203D0C0B2E9B208F010
:100910006FFE2560BDE8F087BDE8F0870024AFE7F3
:10092000164AD05C2030C0B20AF07F0108F060FEA9
:10093000DCE7484608F0FCFECDE7104A4946D05CAB
:1009400008F056FEC4E700BF489DFF1FB09EFF1F82
:10095000129FFF1F809CFF1F909CFF1F929CFF1FF8
:10096000189FFF1FF49CFF1F969EFF1F3E9DFF1FB9
:10097000B09CFF1F409DFF1FA69EFF1FA489FF1F65
:100980002DE9F04F17208BB00DF0DAFEDFF850B3F1
:10099000CBF8000016200DF0D3FEB34BB34A1B88F2
:1009A00010600C2B00F00582B14A00211F2B117042
:1009B00037D0B04FB04B3A88B04E53F82250002396
:1009C0003370AF4BAF4A1B88AF491288013B012AF5
:1009D00031F91330059300F00682AC4B0193AC4B18
:1009E0000293DFF80083DFF8009300230093A94B04
:1009F0001B88012B00F04D82DFF8F0A2A64B039379
:100A0000DAF80040A54B04930023A54A1288013A66
:100A1000032A00F28682DFE812F00101DC001100F7
:100A20007101A04B934F1B783988934A934E52F82B
:100A30002150003318BF01233370C2E720460593CD
:100A400010F0A4F9984910F0F5F9059B04461846F2
:100A500010F09CF9954910F0EDF90146204610F090
:100A6000E1F810F0ADFB0446CAF80040D8F80000E9
:100A700010F08CF98C4910F0DDF98246009810F0E6
:100A800085F98A4910F0D6F90146504610F0CAF8A7
:100A900010F096FBC8F80000854A864BB2F800E0DB
:100AA0001988854BDBF800201B88DFF844C2CEEBA9
:100AB000040804EB0E0AC1EB000E08440499039CE1
:100AC000C1F800A00199C4F80080C1F800E00299C3
:100AD0009A420860BCF8001080F25281C3EB010C0E
:100AE000624865454FF0000E006880F256816C1C2C
:100AF00083420CF1010C0EFB04FE9EFBFCFE00F396
:100B000092838142A8BF0146C91A04FB01F191FBFF
:100B1000FCF19A4200F317818342C0F21481DFF89E
:100B2000D4A1DAF8000010F031F9644910F082F92C
:100B3000634910F077F810F043FBA0F5FF531C3B1E
:100B4000082B98BF4FF40050D9F80040DFF8A88177
:100B5000044443F6FF77BC42A8BF3C4624EAE47451
:100B60002046CAF8004010F011F98146307805FBA4
:100B700000F010F00BF94FF07A5110F05BF90146DC
:100B8000484610F04DF810F01BFB4E4BB842A8BF82
:100B900038461B7820EAE070C8F80000002B00F00F
:100BA000E380B4F5005F00F0DF8005F0B9FD464B4F
:100BB000D8F8000001221A70444C2368834205D003
:100BC00080B208F0E5FCD8F8003023600BB0BDE837
:100BD000F08F2046059310F0D9F83D4910F02AF91E
:100BE000059B0446184610F0D1F83A4910F022F956
:100BF0000146204610F016F810F0E2FA0446CAF852
:100C00000040D8F8000010F0C1F8314910F012F996
:100C10008246009810F0BAF82E4933E72046059333
:100C200010F0B4F82C4910F005F9059B044618465D
:100C300010F0ACF8294910F0FDF8014620460FF0FD
:100C4000F1FF10F0BDFA0446CAF80040D8F80000E1
:100C500010F09CF8204910F0EDF88246009810F052
:100C600095F81E490EE700BFE29EFF1FAC9CFF1FD8
:100C7000869CFF1FE89CFF1F6089FF1FC69EFF1F09
:100C80002089FF1FB69EFF1FE42C01003C9FFF1F21
:100C90001C9DFF1F449EFF1FD49EFF1F489EFF1FE9
:100CA0003489FF1F949EFF1FCDCC4C3FCDCC4C3ED2
:100CB000B089FF1F2C89FF1FAC9EFF1F9A99193F17
:100CC000CDCC4C45F29FFF1F3D9DFF1F2489FF1F88
:100CD0006666663FCDCCCC3D3333733FCDCC4C3DC7
:100CE000E49CFF1F789CFF1FEC9EFF1FD09EFF1F00
:100CF000C89CFF1F9889FF1F3089FF1F204605935E
:100D000010F044F8C54910F095F8059B04461846C4
:100D100010F03CF8C24910F08DF8014620460FF063
:100D200081FF10F04DFA0446CAF80040D8F80000E0
:100D300010F02CF8B94910F07DF88246009810F0B8
:100D400025F8B7499EE63B88002B3FF4E8AEC1EB9F
:100D50000E03002BB8BF5B42092B00F3E5804FF474
:100D60000050DFF808A3EFE6AE4C2378002B3FF4E9
:100D700023AF05F0D1FC0023D8F8000023701BE757
:100D8000C3EB010CA8488A42D4BFC3EB020EC3EBED
:100D9000010E65450068FFF6AAAE83420EFB05FE14
:100DA000C8BF00249EFBFCFE40F3348294FBFCF1A0
:100DB000AFE69E4B1B78002B00F0D5809C4F9D4BDF
:100DC00039889D4A53F821009C4E0121002311705F
:100DD00033700FF0DBFF4FF07C5110F02BF810F068
:100DE000EFF90546EDE5964B964A1B889649127831
:100DF000013B31F91340002A40F0B08011200DF082
:100E00009FFC0090914B0193D3F80090009B994573
:100E100040F3AC808E4BDFF858821B888D4A012B43
:100E2000D8F80030B2F800A08B4A02922846A3EB13
:100E3000040400F0CE800FF0A9FF029A52F82A10A5
:100E40000FF0F8FF014600200FF0EAFE10F0B8F9AD
:100E5000009BC9EB04029C42B8BF1C469042C9EB00
:100E6000040480F2CA8000FB0444013294FBF2F4D3
:100E70007A4BDFF800920293D9F80030234403EB59
:100E8000D3735B10C9F80030754B1B88012B7FF4BE
:100E9000B3AD744B03931C460F200DF051FC226838
:100EA00004929042034680F2E980694A1288012A3E
:100EB00000F02E81674A07901288674C06922846F8
:100EC0000FF064FF069ADFF8B0A154F82210DAF8A8
:100ED00000400FF0AFFF014600200FF0A1FE059B80
:100EE000E21A059210F06CF9059A079B04999A4250
:100EF000C1EB020EB8BF1A46704580F23381521A18
:100F000000FB02220EF1010192FBF1F2D9F8001070
:100F1000554804900A4402EBD2725210C9F80020DE
:100F200073E5D8F80000B7E50EF500500130401A1F
:100F30000FF02CFF3A49DFF834A10FF07BFF044695
:100F4000DAF800000FF022FF34490FF073FF01467A
:100F500020460FF067FE10F033F9F5E515200CF090
:100F6000D3FA00904EE7344A137022E53B4B0293CC
:100F7000D3F80090009B994544DA354BDFF8F080B8
:100F80001B88344A012BD8F80030B2F800A0324A4E
:100F9000039228461C4400F0EC800FF0F7FE039A01
:100FA00052F82A100FF046FF10F00AF9009B9C42FD
:100FB000C9EB0402A8BF1C46C9EB04049042BABFA7
:100FC00000FB04440132444394FBF2F4DFF8A490A4
:100FD00052E70FF0DBFE029A52F82A100FF02AFFB8
:100FE00010F0EEF8009BC9EB04029C42B8BF1C460F
:100FF0008242C9EB04043FF736AF00FB04F494FBD4
:10100000F2F435E7DFF86C90DFF86480D9F800304F
:1010100003EBD3735B10C9F80030E8E49A99193FE9
:10102000CDCCCC3E3D9DFF1FAC9CFF1F949EFF1F6F
:10103000E89CFF1F6089FF1F869CFF1FC69EFF1F45
:10104000B489FF1F689EFF1FF82901003C9FFF1F06
:10105000229DFF1FD09CFF1FFC2C01001C9DFF1F29
:10106000449EFF1FD49EFF1F489EFF1F9889FF1FAD
:10107000789CFF1FEC9EFF1FD09EFF1F6B4A0492BF
:1010800012680692904237DD694A1288012A00F000
:101090008E80684A09901188674A0891284607920D
:1010A0000FF074FE079A0899DFF890A152F821100A
:1010B000DAF800400FF0BEFE059B2344059310F0C4
:1010C0007FF80599099B069A9942C2EB010EA8BFC9
:1010D0001946704580F29080891A00FB01110EF1CB
:1010E000010291FBF2F2D9F800100A4402EBD2722D
:1010F0005210C9F8002088E4D9F80020DFF83CA19C
:1011000002EBD2725210DAF80040C9F800207CE4F9
:10111000484A08901188484A0791284606920FF0DD
:1011200035FE069A0799DFF814A152F82110DAF873
:1011300000400FF07FFE059BE11A059110F040F88A
:101140000599089B049A9942C2EB010EB8BF194653
:10115000704558DA891A00FB01110EF1010291FB6A
:10116000F2F2D3E60499521A00FB02F292FBFEF26D
:10117000CCE60FF00BFE039A52F82A100FF05AFE3D
:10118000014600200FF04CFD10F01AF8009A94422E
:10119000C9EB0403A8BF1446C9EB04049842BABFC4
:1011A00000FB04440133444394FBF3F40EE721496C
:1011B000214A089028460C8807920FF0E7FD079A0D
:1011C000DFF878A052F82410DAF800400FF032FE71
:1011D000014600200FF024FD059B234405930FF0EA
:1011E000EFFF0599089B069A9942C2EB010EA8BF32
:1011F00019467045FFF670AF069A891A00FB01F197
:1012000091FBFEF26FE7049A891A00FB01F191FB52
:10121000FEF27BE68842D4BFC3EB0004C3EB0104BB
:1012200005FB04F4C2E519466EE400BF489EFF1FAB
:10123000229DFF1FD09CFF1FFC2C0100D09EFF1F92
:1012400008B5244B1B88FBB1234B1B78FBB1234B08
:101250001B78E3B1224B1B78CBB1224B1B78B3B187
:10126000214B22481A78C2B9214A224900881288A3
:1012700009680244B1EB620F09DD01221A70642093
:10128000BDE8084005F060BA174A117801B908BDF9
:101290001370BDE8084008F01FBA154A16490088C7
:1012A000128809680244B1EB620FF0DD00221A7067
:1012B00008F012FA642005F047FA642005F044FAB9
:1012C000642005F041FA4FF41670BDE808400CF0B8
:1012D0006DBE00BF5A9EFF1F449FFF1F0C9FFF1F44
:1012E0000D9FFF1F0E9FFF1FB49CFF1FC89CFF1F79
:1012F000AC9EFF1FE49CFF1FAC9CFF1F38B5114C38
:10130000232025780CF000F90F4A42F82500131F1E
:1013100002F1C400002253F8041F83420A44FAD1A8
:1013200023780A4907480A4C0133DBB2322B81FB90
:10133000025108BF0023D217C2EB211203702260B2
:1013400038BD00BF949CFF1F589DFF1F1F85EB51A8
:10135000A89EFF1F2DE9F04FB74DB84E2868B84C36
:1013600083B00FF013FDB7490FF064FD074610205E
:101370000DF0E6F90FF00AFDB3490FF05BFD3946B9
:101380000FF050FC0FF01CFF318828608842238842
:101390007EDA1F4600225B1ADFF8D482DFF8D4E23F
:1013A0007F2BCABFD201C2EBC212013392FBF3F30F
:1013B000B8F80020CEF80030192A00F0DF801A2A91
:1013C00000F02B811E2A00F05B814FF00108C1461E
:1013D0009E4B1B88002B66D09D4A1288032A00F280
:1013E00009818842C0F25F81B842D4BFC1EB0000DE
:1013F000C1EB0700791A8B42B4BF03FB00005843CE
:10140000944F954BB8BF013190FBF1F018603888CC
:1014100000284FD03188D5F800E0884ADFF818A2BC
:10142000714500F38280DFF83CC29CF80030002B4D
:101430004CD14FF0010B04288CF800B046D1B8F124
:10144000000F40F0CB81854B1888F0B1B9F1000F47
:101450001BD02B68318822888B4280F29C8100232C
:10146000541A7E2C7E4DD5BFC3EB8313C3EBC3133D
:101470005B00013493FBF4F42B680134A34203D0E6
:10148000C0B2E1B208F0B4F82C6003B0BDE8F08F50
:101490009842D4BFC1EB0002C1EB03021F467AE7BA
:1014A00099464FF001081E2A00F0D281694F388812
:1014B0000028AFD1694B1B88002BABD1694A11784A
:1014C0000029E2D0137003B0BDE8F08F012800F0CE
:1014D0001281022800F003810328B4D1624B1B88DB
:1014E000092BB0D0B8F1000FADD02B683788228817
:1014F000BB4280F295810023D71B7E2FDFF86CB1B1
:10150000D5BFC3EB8313C3EBC3135B00013793FB5E
:10151000F7F7DBF800300137BB4203D0F9B24A20BD
:1015200008F066F8CBF800708DE74E4B1A78002A69
:10153000ABD0002401281C7000F0C280022840F0CB
:101540003181B8F1000F00F0C280484D2B68002BAC
:1015500000F0BD800420214608F04AF83F4B2C6083
:101560001888002891D0B9F1000F8ED0C0B20021A8
:1015700008F03EF83A4B00221A6086E7DFF8F8A040
:10158000DFF8F8909AF80030BBB1DFF8D0E0BEF891
:1015900000E0BEF1000F10D099F800C09C4500F0AB
:1015A00099805FFA8EF07F2108F022F89AF80030D7
:1015B000B8F8002089F800300FE099F800E09E4567
:1015C00000F08880254B0021187808F011F89AF86F
:1015D0000030B8F8002089F800301C4B1B88002B25
:1015E0003FF45EAF1E2A40F02B814FF001084FF010
:1015F000000951E0884258DBB842A1EB0701A8BFBF
:1016000038468B42A0EB070055DA03FB00004B1C69
:1016100090FBF3F3104A136048E7DFF85CA09AF8F8
:101620000030002B0BBF4FF001084FF000084FF0C7
:1016300000094FF00109CBE6D89CFF1F609EFF1FF9
:101640005C9EFF1F9A99193FCDCCCC3E1C9FFF1F7B
:10165000D89EFF1FE09CFF1F509DFF1FF49EFF1FA1
:10166000BC9CFF1FE99EFF1F969EFF1F549DFF1FFE
:10167000E29EFF1FC89EFF1F949EFF1F9A9CFF1FA4
:10168000DFF8E8A1744B9AF800801B88B8FA88F854
:101690004FEA58184FF000099AF8002042B3286822
:1016A0003188278898E60020A4E60846C91B8B42AB
:1016B000A0EB0700A9DB03FB00F393FBF1F3A9E721
:1016C000B8F1000F03D0654D2B68002B7FD1644B20
:1016D000188846E74FF001084FF0000978E6B8F1A6
:1016E000000F3FF4B0AEDFF874B1DBF8003030E04B
:1016F0005C4B1A60DAE6B8F1000F3FF4A4AEB4F820
:1017000000A0F245D4BFC1EB0A03C1EB0E03C1EB4D
:101710000A0ABAF17E0FDFF844B1D5BFC3EB8313D9
:10172000C3EBC3135B000AF1010A93FBFAFADBF87F
:1017300000300AF1010A534504D05FFA8AF1012012
:1017400007F056FF3888CBF800A002287FF4C4AE1B
:1017500053462A68B6F800A02188524559DA00227B
:10176000CAEB010ABAF17E0FD3BFC2EB8212C2EB01
:10177000C2120AF1010A520092FBFAFA0AF1010AB6
:101780009A4504D05FFA8AF1042007F031FF3888C7
:10179000CBF800A0A0E69342D4BFC1EB0303C1EB9A
:1017A00002035DE6032828D12F4B1B88092B8ED01E
:1017B000B8F1000F8BD0294D2B68002B87D04A2021
:1017C000214607F015FF264B2C601888C9E62146F4
:1017D00007F00EFF224B2C601888C2E640207F21C4
:1017E0008DE80C0007F004FF388858459DE80C0090
:1017F0001DD002287FF470AE75E704287FF467AF30
:10180000B8F1000F3FF463AF2146402007F0F0FE2F
:101810005DE78A42D4BFCAEB0202CAEB01029FE72E
:101820009342D4BFC7EB0303C7EB020364E6DAF8C5
:1018300000E01188B4F800A08E45FFF668AF60E7BD
:101840002868318827884FF001084FF00009C3E568
:101850000023DFF818A01FE71C9FFF1F549DFF1FE8
:10186000F49EFF1F509DFF1F969EFF1F949EFF1F1B
:1018700008B5114B1B88022B09D0052B07D0032B71
:1018800015D0042B0BD00D4B01221A7008BD7F21FF
:10189000412007F0ADFE094B01221A7008BD7F21DF
:1018A000092007F0A5FE054B01221A7008BD402152
:1018B000092007F09DFEE6E74E9DFF1F049DFF1FD8
:1018C00038B5074B074D1B88052B044606D02B68FF
:1018D000834203D0C1B2052007F08AFE2C6038BDD8
:1018E0004E9DFF1FF89EFF1F38B5124D124C2B88DE
:1018F000052B12D022684AB9022B0ED0033B012BD4
:1019000013D90E4A00231370236038BD002105202F
:1019100007F06EFE2B88022B04D10021412007F036
:1019200067FEEEE7052BE9D1F7E70021092007F074
:101930005FFEE6E74E9DFF1FF89EFF1F049DFF1F01
:10194000464B1B881D2B70B541D0454D0024454B9F
:101950001B88022B16D0444B1B88022B54D028889E
:10196000424B002C1B780ADB8442A8BF044634B1EA
:10197000002B3AD02046BDE87040FFF7A1BF002BF6
:101980002FD170BD3A4B1B78002B37D015200BF0B0
:10199000BBFD384B1860384A1288002ADBD0374A22
:1019A000186811888142D6DC354B2A881B8883420F
:1019B000A3EB0106A8BF03465B1AB242BABF02FB03
:1019C00003330136534393FBF6F31C44C3E72A4B1E
:1019D0001C888CB12B4B224D1C78002CB7D02C8846
:1019E000B5E7BDE87040FFF77FBFFFF741FF204636
:1019F000BDE87040FFF764BF194DA8E711200CF057
:101A00009FFE1C4B1860C6E70F200CF099FE1A4B86
:101A10001D4A1B881060002BA1D01C4AC0F53B63F7
:101A2000118808338B429ADB194A2888128893421E
:101A3000A2EB0105A8BF1346A842A3EB010306DAF7
:101A400000FB0333013593FBF5F31C4488E700FBEF
:101A500003F292FBF5F31C4482E700BFE29EFF1FF6
:101A6000E69EFF1FB69EFF1F449EFF1F049DFF1FA3
:101A7000689EFF1F889CFF1F4E9DFF1F029DFF1F3A
:101A8000E09EFF1F949EFF1FA09CFF1F4C9DFF1F09
:101A9000CC9EFF1F38B510200CF052FEC830B0F5B8
:101AA000FA7FC0F2EE80B0F57A6F0146A8BF4FF41E
:101AB0007A6101F51673B3F57A6FA8BF4FF47A63B4
:101AC0009BB289B28E4A8F4C11802220238007F06E
:101AD000E9FE21888C4D8D4C242007F0E3FE0E207A
:101AE0000BF012FD40F6FF71C8308842A8BF0846CF
:101AF00020EAE07000F2DC5283B28A42A8BF0A46B4
:101B00000220194622802B8007F0CCFE2188042079
:101B100007F0C8FE17200CF013FE044616200CF048
:101B20000FFEA042B8BF204600F1C801B1F5FA7F10
:101B3000C0F2A280B1F57A6FA8BF4FF47A6101F5C7
:101B40004873B3F57A6FA8BF4FF47A639BB289B23A
:101B50006F4A704C11800A20238007F0A3FE218871
:101B60000C2007F09FFE0F200CF0EAFDC0F53F614E
:101B70000431B1F5AF6F7CDBB1F5FA6FA8BF4FF45C
:101B8000FA6189B2644BC0F54360B0F5AF6F19805C
:101B90006CDBB0F5FA6FA8BF4FF4FA6083B25F4C0C
:101BA000A420238007F07EFEA620218807F07AFE7D
:101BB0000B200CF0C5F9002868D011200CF0C0FDF6
:101BC00000F1C801B1F52F7F6EDA40F214534FF4E3
:101BD0002F71534A1180534C0620238007F062FE78
:101BE0002188082007F05EFE00244FF4AF75E1B2B3
:101BF0004D4809F0C7FC01348542A8BF05460C2CAE
:101C0000F5D101200CF09CFD044600200CF098FD5D
:101C1000323CA0F1320345496FF4957000FB03F3A9
:101C200000FB04F081FB034281FB0041DB17C0177E
:101C3000C3EB6223C0EB612003F5AF7200F5AF7315
:101C40009342A8BF13469D42A8BF1D46A5F11401AB
:101C5000312938DC40F26C7332213548354A018035
:101C600013602A20BDE8384007F01CBE4FF4AF6374
:101C700095E74FF4AF6185E740F214534FF4FA71E2
:101C800066E740F24C434FF4FA711BE715200BF066
:101C90003BFC00F59671B1F52F7F96DB41F25C239A
:101CA00099421FDD194694E741F25C239942F9DC21
:101CB0001B4A00F5487089B2B0F52F7F118019DA00
:101CC0004FF42F7387E740F23A72A5F5B9751A4BB6
:101CD00002FB05F583FB0523ED17A5EB631389B222
:101CE0003233BAE70E4A00F5617089B2B0F52F7F42
:101CF0001180E5DB8342A8BF03469BB26BE700BFC0
:101D0000609EFF1F5C9EFF1F489DFF1F129FFF1FCD
:101D1000AC9EFF1FC89CFF1F4C9DFF1FCC9EFF1F4A
:101D2000029DFF1FE09EFF1F3C9DFF1F67BBCF462C
:101D30000A9FFF1FA089FF1FB5814E1B2DE9F84F99
:101D40000C200BF0ADFB0C200CF062F8C149DFF861
:101D50008CA314200CF06CF8BF49C04809F0A4F81B
:101D6000022103200CF0FAF8022104200CF0F6F80E
:101D7000022105200CF0F2F8022106200CF0EEF80A
:101D800001210A200CF0EAF8012109200CF0E6F804
:101D900001210D200CF0E2F8012128200CF0DEF8E2
:101DA000012114200CF0DAF802210B200CF0D6F8F7
:101DB00001210C200CF0D2F800210C200CF0BAF814
:101DC000012121200CF0CAF802211C200CF0C6F8D9
:101DD00001211B200CF0C2F800211B200CF0AAF8F6
:101DE0001C200CF0ADF8B0FA80F35B091A208AF8D9
:101DF00000300CF049FA1F2000210CF00BFA0420EF
:101E00000CF09EF8002800F0EA8005200CF098F80D
:101E1000002800F017810023914C062023700CF05D
:101E20008FF8B0FA80F35B094FF0000B8D4A137006
:101E300006F0B6F82378002B40F0CD80584607F026
:101E40005BFD894B894A1B8889491488894D8A48DA
:101E500040F23A72A3F5AF7302FB03F381FB031266
:101E6000DB17A3EB621332332B60844B5A211C70B7
:101E700009F0C4FB002800F03781814A81481268CC
:101E8000DFF85C9200230121FEF70EFB0B200CF023
:101E900057F8011E0CBF0123002389F8003000F021
:101EA000B780794F794D7A4EDFF8388200233B6056
:101EB0002B60336004240F200CF042FC3368034491
:101EC0000E2033600BF020FB3B6899F8002018448B
:101ED0003860002A78D015200BF016FB2B681844C8
:101EE000286004F0010080F0010004F01DFCB8F847
:101EF0000030002B14BF4B20DC200CF057F8013CC5
:101F0000D9D133683968604A2868624F002BB8BF5E
:101F100003330029B8BF0331891011605E495F4A5D
:101F2000098814889B1000283360B8BF03305C4ECA
:101F30008210581A19442A6031603860594D5A4845
:101F40005A49161B22442E6002600B60BBF1000F41
:101F500062D1B8F80030002B4DD0554B012404203D
:101F60001C600BF0EDFF18B9524B444A1C70107006
:101F7000514B1B881C2B56D0504C04F1C805232014
:101F80000BF0C2FA44F8040F01200CF00FF8AC4239
:101F9000F5D19AF800301BB1494B1B78002B4CD17E
:101FA000002121200BF0C6FF464A474B10781870DD
:101FB00007F0AAFA04F0B0FB45F6BF524349444883
:101FC000BDE8F84F0BF058B811200CF0B9FB2B68A6
:101FD0001844286085E7BDE8F84F08F075BE062074
:101FE0000BF0AEFF00287FF410AF1D4C03462070AD
:101FF0004FF0010B1AE74FF4FA7004F0A5FB04F060
:102000008FFB06F021FB4FF4AF600BF0CFFFA4E78E
:1020100011200BF0A3FF44E7FFF73CFDB8F80030B8
:10202000002B9AD1E7E72B4B18880028A4D02A4B25
:10203000C0B2197807F0DCFA9EE7012121200BF0ED
:1020400079FFB1E703200BF07BFFB0FA80F35B0967
:10205000E2E600BF001B374640420F006491FF1FBD
:10206000BA9CFF1F4C9EFF1F0A9FFF1FE49EFF1F8D
:10207000B5814E1BA089FF1F3C9DFF1F189DFF1FB0
:102080002889FF1F749EFF1F8C9CFF1F789CFF1FD9
:10209000D09EFF1FD49EFF1FB089FF1F2C89FF1FFA
:1020A000489EFF1F3C9FFF1F1C9DFF1F249FFF1F7B
:1020B000DC9EFF1FA49CFF1FE29EFF1F549DFF1F7D
:1020C000629EFF1F649EFF1F429EFF1FA50500002A
:1020D000009FFF1F209DFF1FD49CFF1F469EFF1FD8
:1020E000689EFF1FA29EFF1F03200BF029FF002800
:1020F000FAD104200BF024FF0028F5D105200BF0C5
:102100001FFF0028F0D106200BF01AFF0028EBD1AA
:102110000CF036FC2DE9F04F89B005ADA14F2C46EF
:1021200008AE611BC9B2A04809F02CFA3B88834273
:1021300094BF0020012004F8010BA642F1D19B4876
:102140009B4A9DF814E09B4980F800E09DF816003A
:10215000994D10709DF818209DF81C30974E984CA2
:102160000A709DF81A10297000253370257073B914
:10217000002940F00F81934F1AB13B78002B40F0BB
:102180001F82002800F0F2810222227005E0002A5E
:1021900040F0B08005228B4F22708B4BDFF8889285
:1021A0009DF815109DF81900DFF880A2DFF880B2C5
:1021B000864DDFF88082864E3A709DF81EE01970D9
:1021C0009DF81F209DF81D109DF817C09DF81B70ED
:1021D00089F80000012000938BF800E088F80010D7
:1021E00032708AF800C02F700CF0AAFA79497A4A46
:1021F000D1F800E0009B7045CCBF01210021117097
:102200007CDD764A1288182A78D875490F880C3AEE
:10221000002F78D1734993F800C00B7899F800909B
:102220009AF800109BF8007095F800B02478A3EBA2
:102230004C03A9EB890A5B1A5344C7EB877AC7EBB7
:102240008A07DFF8A8A11F4498F80030BAF800A068
:1022500007EB4B0796F800B03B440BFB0A33624F89
:102260004FF00C0A1AFB043AC7F800A0B9F1000FAE
:102270000BD033784BB15D4B1B88042B0CBF0AF19C
:10228000020A0AF1040AC7F800A0594B594CDFF8BA
:10229000A8B11B882488DBF800B0574F574E3F8801
:1022A0003688033BC4EBC4045C4403EB4303DFF810
:1022B0008CB10AEB83033B44DBF800B0504FC6EB14
:1022C000C60657F824404F4F5E440C3B134457F862
:1022D00026601A193244BCF1000F27D02B782BB39B
:1022E00000295BD1B9FA89F9474B4FEA591983F8AC
:1022F000009023E006222270324F4EE738490F88C3
:102300000022002F86D0012F00F0CF80022F00F096
:10231000FB80032F00F09480334F9AF8001093F85D
:1023200000C099F80090D7F800A09FE7364B002432
:102330001C7011B198F8003023BB0021334B70455D
:102340001970C8BF324B3349C8BFC3F800A00B682F
:102350009A4213D0304B314C186803900398206098
:102360001B6804932E4C049B24880A601B1AA3420A
:1023700084BF2C4B1A6009B0BDE8F08F2748264B6C
:102380000068EDE7BCF1000FD7D1B9F1000FD4D14F
:102390000121D3E7042222700A4FFEE61A4B0021E6
:1023A0001970CAE70A9FFF1F3C9DFF1F0C9FFF1F6C
:1023B0000D9FFF1F0E9FFF1F0F9FFF1F109FFF1FEF
:1023C0004E9EFF1F5E9EFF1F419FFF1F459FFF1FE9
:1023D000E89EFF1FA089FF1F949EFF1FE29EFF1F24
:1023E000849CFF1FB289FF1F9C9EFF1FF09CFF1F54
:1023F000BA9EFF1FD89EFF1F969CFF1F069DFF1FC2
:10240000882A0100402501001E9FFF1F1F9FFF1FFC
:10241000289FFF1FFC9CFF1F30A0FF1FEC9CFF1F8D
:10242000F29EFF1F309FFF1F439FFF1F429FFF1F12
:10243000449FFF1F469FFF1F509DFF1F189FFF1FB8
:10244000664993F800C00B7899F800909AF800104C
:102450009BF8007094F800A02C78A3EB4C03A9EB38
:10246000890B5B1A5B444FF0050B1BFB0733009392
:1024700098F800300193009BDFF86CB1C7EBC707F9
:10248000BA440533019FBBF800B003EB4403347832
:102490003B4404FB0B33524C524F54F82A400C334C
:1024A00003EB040AC7F800A0E0E64C4993F800C02B
:1024B0000B7899F800909AF800109BF8007095F846
:1024C00000A02478A3EB4C03A9EB890B5B1A5B44B7
:1024D000C7EB877BC7EB8B07DFF80CB13B4498F861
:1024E0000070BBF800B003EB4A0A3378BA44C4F179
:1024F000060403FB0BA3E4B24FF00C0A394F1AFB9E
:10250000043AC7F800A0B1E6344993F800C00B784C
:1025100001932B780093019B9AF8001099F8009092
:102520009BF800A02478A3EB4C03A9EB890B5B1A62
:102530005B44A3F1020B2C4BCAEBCA0A54441B8820
:10254000DFF8C8A00193BDF800305AF824A098F82D
:10255000004017FB03BB3778019B5C4407FB034338
:102560001833204F9A44C7F800A07FE6BEF1000F51
:1025700029D13A78012A2FD91C4B22701B882BB302
:102580001B4B1B88013B9BB2062B1FD8194B1B789A
:10259000E3B1194B1B68012B7FF4FFAD1749184BB2
:1025A0000968184D83FB0130CB17C3EB600303EBC5
:1025B0004303A1EB83032B80134B03211970ECE53C
:1025C00003222270E9E501222270E6E50A4B1B682E
:1025D000012B7FF4E2ADEFE77246DEE5B289FF1F23
:1025E000442E01009C9EFF1FF09CFF1FC49EFF1FF6
:1025F000669EFF1F4A9DFF1FDC9EFF1F309FFF1F2F
:10260000ABAAAA2AA09EFF1F9489FF1FAC2C010031
:102610002DE9F04F3A4B1B788BB0002B6BD10E207D
:102620000AF072FF0EF0B2FB01463648364E374DC7
:10263000FDF780FF3348FDF753FF0EF0C1FD80F337
:102640000C003060FFF766FD2C68012C7AD0022C5C
:1026500000F0D182032C00F037842D4E2D4C3368CE
:102660002D4A2E4E0993099B316812882360591A0E
:10267000013A9142274F00F2B982294E32689A1AE4
:10268000092A00F2A282274E32689A1A0D2A00F215
:102690009782254E32689A1A252A1AD9234B1B880D
:1026A000002B40F06481224B1B78002B40F05F81AF
:1026B000FEF724FE1F4B1B881B3B9BB2022B04D84A
:1026C0001D4B1B78002B40F0558104F04FF8236818
:1026D00033601A4D2A689B1A502B00F21982184B4E
:1026E0001B88012B00F0318206F006FF06F0EAFDA0
:1026F0000BB0BDE8F08F08F06FF90BB0BDE8F08FBC
:10270000BA9CFF1F749EFF1FB09EFF1FDC9EFF1F21
:1027100030A0FF1F709EFF1F9C89FF1F449DFF1F5D
:10272000309DFF1F109DFF1F149DFF1F5A9EFF1F0E
:10273000B49CFF1FE29EFF1F949EFF1F549EFF1F2D
:10274000B49EFF1FDFF83893A44AB9F8000013784D
:10275000834204D0C3B21846137006F0BFFEDFF800
:102760001C839F4AB8F800301178994204D09D4FDD
:102770003978002940F066879B4A336812889B4E5F
:102780009A42C0F201819A4A1278002A40F0FC80F5
:10279000DFF8F0A2BAF8003023B9964B1B88002B63
:1027A00000F07685944A954B11881B88944A0B4417
:1027B00012685B109342934A126880F218850021D8
:1027C0009342B4BF01230B4604910093ACBF4FF07A
:1027D000010B8B4605910E200AF096FE8A4B8B4A20
:1027E0001B68176803930133A7F25232002B84460B
:1027F000029240F33887802BA8BF8023844A854902
:1028000012780191002A00F0C9800978914200F005
:10281000C580B8F80010DFF864E2994201F0238126
:102820007049AEF800307C4B4FF0010E81F800E0AB
:102830001978DFF854E2019B8EF800101A70009BA3
:10284000002B00F02381BAF80030002B00F01E812D
:10285000724B1B685A1C002A40F30987802A00F338
:1028600005876F4C6F4970482488098800682144A7
:10287000B0EB610FC1F26883A3F148020F2A02D8BE
:10288000473BA9F800300E200AF03EFE6FF4547367
:102890001F44874202DC654B00221A7000200BF0B7
:1028A0004FFF634A634B1168634C1B888842D4BF57
:1028B000002201222270002B00F08F845F4B1C78D5
:1028C000944243D0884241DD5D490C78002C00F0F1
:1028D00092875C4991F800C0BCF1000F40F08987F5
:1028E000594F0097594F5A480297574F007887F829
:1028F00000C0564F4FF0010E87F800C081F800E08D
:10290000002841F0008153490978002901F05480E2
:10291000514903910C460978002941F04A804F48FB
:102920004A4F0078397001210297217070B14648F2
:10293000444900904A480327077000200870009916
:10294000029F0870039901243C7008701A70454B6F
:102950001B88A3F11B02012A40F238861D2B7FF44D
:102960007DAE3E4A404B12781A70404C77E6FEF737
:1029700067FC9DE63E4B1B78002B3FF4A6AE2B6810
:10298000012B7FF4A2AEA2E631683A4A069106987E
:102990003949106002220B602A60F9E61E49DFF80F
:1029A000E8E0097800293FF446AF9EF80000814234
:1029B0003FF441AF03984B2841F31C801833802B20
:1029C000B8F80000A8BF802398423FF434AF2B48EA
:1029D00003800448012303702DE700BF429EFF1FC0
:1029E000189DFF1FA49CFF1F489DFF1F30A0FF1FC5
:1029F000B49CFF1F369DFF1FC89CFF1FAC9EFF1F8E
:102A0000E49CFF1FAC9CFF1F289FFF1F8C9CFF1F97
:102A10001E9FFF1FF89CFF1F1F9FFF1F9C9EFF1FF5
:102A2000609EFF1F5C9EFF1FD89CFF1F4D9EFF1FD7
:102A3000A089FF1F669EFF1FCE9CFF1F7C9CFF1F6F
:102A4000449FFF1FA49EFF1FF69EFF1F4A9DFF1F6E
:102A5000459FFF1F419FFF1F7D9CFF1F949EFF1FEF
:102A60009489FF1FE29EFF1F9A9CFF1F709EFF1F0D
:102A7000E89EFF1F089DFF1F6C9EFF1FE49EFF1F27
:102A8000649EFF1F009DFF1FF99CFF1F029B9C453A
:102A9000BFF6F9AE954B1B88002B3FF4F4AEBBF1AB
:102AA000000F7FF4D5AE924B1B881BB1059B002B0A
:102AB0007FF4CEAE049B002B3FF4E5AE8D4B1A782D
:102AC000002A7FF4E0AEDFF8B09299F800400122CE
:102AD0001A70002C40F0A983874B1B78002B02F062
:102AE000CC80864B1B78002B02F0A083844B1B7894
:102AF000002B7FF4C8AE834B1B78002B3FF4C3AE92
:102B0000B8F8003080490A3BA8F800300A70BAE6ED
:102B100005F08EFA7D4B1B7873B97D4B1B785BB942
:102B20007C4B1B7843B97C4B1B782BB97B4B1B78B8
:102B300013B903F0F1FD01E003F0FAFD23682B6007
:102B4000774B1B88012B7FF4CFAD764B764A196803
:102B50001778764EA92303FB01F10029744BB8BF07
:102B600001F57F511868734BB8BF3F3189132A2292
:102B70005439183802FB00111D786FF0140202FB63
:102B8000071232606C49002D00F04E810B689A42AA
:102B900000F3C08380F24881684D2878002840F017
:102BA0009F8767480568D5F17F0548BF0335AD109D
:102BB00001355B1B9A4200F337810B601A4634E102
:102BC000FEF7BEFE2368336063E5FDF7D9FEFEF72E
:102BD000C1FB5C4B1B88032B00F069855A4B1B889B
:102BE000032B00F06085236833604CE5FDF714FE8D
:102BF0003B68336041E5554A34681288A24204DBE1
:102C0000464B1B78002B00F0B583514E514833687A
:102C10000793514B079900681B88091A994200F2E3
:102C2000B180002B00F0AE804C4B198800293FF496
:102C300015AD4B4B4B481B680088A342B8BF2346D9
:102C40009A4241F37A81484B1A60DFF8308188F864
:102C50000010374FFDF7E0FD38687F2840F3C58549
:102C6000424B7F3883FB0032C317C3EB620303EB95
:102C70004303A0EB830073303D4B01931B88386006
:102C8000002B40F0E986234B00931B78002B00F0CB
:102C90001E84384C2378002B00F01984DFF8E09074
:102CA000DFF8C8A04FF0000B0CE003F17300C0B2D6
:102CB00098F8001006F0CCFC23780BF1010B5B4573
:102CC00040F305843B6859F8040F1844A0F17F03D2
:102CD0008AFB0321DA17C2EB610202EB42027F2872
:102CE000A3EB8203E1DCFDF7B7FCE0E7369DFF1FB5
:102CF0006A9EFF1F4D9EFF1F419FFF1F429FFF1FA8
:102D0000439FFF1F449FFF1FA49CFF1F4A9DFF1F5F
:102D1000A49EFF1FF69EFF1F7D9CFF1FB49CFF1FFC
:102D2000B49EFF1F9889FF1FC69EFF1F289DFF1F8F
:102D3000309FFF1F049DFF1F389DFF1FFC9EFF1F3C
:102D4000F89EFF1FB69EFF1F449EFF1F489DFF1F5A
:102D500030A0FF1F089DFF1F349DFF1F9C9CFF1F7D
:102D60006C9EFF1F129FFF1F809CFF1FABAAAA2A09
:102D7000DE9CFF1F5C89FF1F4E9EFF1F249DFF1FCF
:102D80003489FF1F7E4B7F491B6808887E49A34218
:102D9000B8BF23469A4200F3D4827C4C0988834210
:102DA000A8BF0346236000297FF44FAF9A42C8BFF3
:102DB0000B4640F3CD82801AB0F5804FAABF9B032B
:102DC000C3EB8333013093FBF0F0FDF70BFDC0F351
:102DD000C6100DF0DBFF6E4B044618880DF0D6FFD1
:102DE0006C49074620460EF025F8014638460EF09D
:102DF00021F821460DF016FF4FF07E5104460EF0EB
:102E0000B7F9002841F07D80634920460EF0CEF9E5
:102E1000002840F0728620460EF0F8F9C0B2DFF8C4
:102E2000BC8188F8000014E70A605C4B188858B32E
:102E30005B4B256853F82040B5FBF4F3772C04FB7B
:102E4000135300F32982C3EBC30303EB031393FB78
:102E5000F4F35448544C50F823002468534BA0F228
:102E6000FF7004FB00F000F57D3000F5607000EBB2
:102E70004004C0EBC40083FB00430344C017C0EB15
:102E8000A3400B3802440A6049494A4B0888198814
:102E900000F27C704300B3F57C6FA1F164014FEA4E
:102EA0004100B5BF4449454903FB02225A4381FB17
:102EB00002311144D317C3EBE123C11881F30C0194
:102EC00028200AF0A7FE0FE43D4BD6F800801988B1
:102ED000414540F387803B4B1B78002B40F08280BC
:102EE000DFF8FC9099F800007F2840F3F585A3F106
:102EF00055337F3803F1004383FB0032C317C3EB24
:102F0000620303EB4303A0EB830073302E4B01936A
:102F10001B88C0B289F80000002B40F0EE872B4BD5
:102F200000931B78002B00F09384294C2378002B0E
:102F300000F08E84274FDFF8A0804FF0000A0AE0EF
:102F400003F17300C0B206F0A7FB23780AF1010A6F
:102F5000534540F37D8457F8043F99F80000184426
:102F6000A0F17F0388FB0321DA17C2EB610202EBB9
:102F700042027F28A3EB8203E2DCFDF76DFBE1E771
:102F80006C9EFF1F129FFF1F9C9CFF1F809CFF1FBA
:102F9000209FFF1FCDCCCC3D0000FE42989CFF1F20
:102FA000642A01003C230100C89EFF1F4D261281A8
:102FB000349FFF1F089FFF1F81DFFF81832008824E
:102FC000489DFF1FB49CFF1FDE9CFF1FF69EFF1F46
:102FD0005C89FF1F3489FF1FABAAAA2A249DFF1F0B
:102FE000989EFF1FB04F38687F2840F3B881AF4BE1
:102FF0007F3883FB0032C317C3EB620303EB430349
:10300000A0EB83007330DFF8FC9299F80040844213
:1030100000F00282A64B1B88002B43D1A54AA6488C
:1030200012680088914205DC8242D4BFC1EB0203E2
:10303000C1EB0003411AB1F5804FA6BF9B030131DC
:10304000C3EB833393FBF1F0FDF7CCFBC0F3C61069
:103050000DF09CFE994B804618880DF097FE98491C
:10306000824640460DF0E6FE014650460DF0E2FE77
:1030700041460DF0D7FD4FF07E5180460EF078F8B6
:10308000002840F0AA868F4940460EF08FF80028AD
:1030900040F0308540460EF0B9F8C0B2DFF86882E3
:1030A00088F800007F2C40F3928380487F3C80FBAF
:1030B0000430E317C3EB600000EB4000A4EB80009A
:1030C0007330814B00931B78C0B289F80000002B4D
:1030D00040F0F4827D4B03931B78002B40F0DF849B
:1030E0007B4B02931B78002B40F01F87794B019399
:1030F000029B1B78FBB1784B1B88012B00F0648589
:10310000022B00F07387032B01F00A81042B01F0DE
:103110001483052B01F0B483062B01F07A85072B6D
:1031200001F0DE85082B01F0F087092B02F03981D0
:103130000A2B02F03A83009B1B78002B00F04C8492
:10314000019B644C1988002900F0A28438687F280C
:1031500040F3B182554B7F3883FB0032C317C3EB7A
:10316000620303EB4303A0EB830073303860002954
:1031700040F05184009B1B78002B00F05981574C84
:103180002378002B00F05481DFF880A1DFF87881EC
:103190004FF0000B0CE003F17300C0B298F8001080
:1031A00006F056FA23780BF1010B5B4540F34081A2
:1031B0003B685AF8040F3D4A1844A0F17F0382FB94
:1031C0000321DA17C2EB610202EB42027F28A3EB74
:1031D0008203E0DCFDF740FADFE73D4C40483A4926
:1031E0003A4A237003700B701370FFF7B0BB934221
:1031F0004FF0000B80F2B6800123CDF800B0CDF87F
:1032000014B00493FFF7E7BA364B1B78002B7FF41A
:103210003AAB039B344A243B83F34703D9B25B2088
:10322000136006F0E5F999F80040032C30D1DFF87F
:10323000E08098F80030002B42F045812B4F3B781E
:10324000002B42F03381274C2378002B42F0218160
:10325000274B1B78002B42F00F81264A1380264B08
:103260001B78002B42F03B81114B7F221A8098F88B
:1032700000306BB93B785BB923784BB91F4A7F218B
:103280000720138006F0B4F97F210B2006F0B0F977
:103290001B4B1F68FFF7F7BAC3EB0313D800631C7F
:1032A00090FBF3F3D5E500BF309FFF1FABAAAA2A1E
:1032B0009C9CFF1F809CFF1F129FFF1F209FFF1FD2
:1032C000CDCCCC3D0000FE42F69EFF1F7D9CFF1F33
:1032D0004A9DFF1FDE9CFF1F669EFF1F5C89FF1F2C
:1032E000A49EFF1F449FFF1FC49CFF1F439FFF1FFF
:1032F000429FFF1F3E9DFF1F459FFF1F969EFF1F82
:103300008C9CFF1F989EFF1F249DFF1F3489FF1F69
:10331000419FFF1FB6480578002D40F04083B54817
:103320000068D0F17F0048BF033003EBA000431CCE
:10333000B1480B609A42B8BF0260FFF676AD1A46FC
:1033400073E5AE4B09881A6000297FF47EAC134602
:103350009842D4BFC2EB0003C2EB03032BE5FDF799
:103360007BF950E60123CDF810B0CDF800B00593FD
:10337000FFF731BA01232B60FFF76FB9029B1B786F
:10338000FBB19F4B1B88012B00F0A084022B00F0A7
:10339000AB86032B01F03A80042B01F0F381052B5F
:1033A00001F0E482062B01F03D84072B01F0378504
:1033B000082B01F0E286092B01F0BC870A2B02F0F2
:1033C000B981019B1B88002B00F02E83009B1B788A
:1033D0003BB9039B1B7823B9029B1B78002B01F0A0
:1033E0008E80884B1B78002B00F0008186490B787B
:1033F000082B00F2FB8085483A680068844C013352
:10340000DBB25F1E101A44F827000B70814BD6F810
:103410000080198889F8002088457F4E7FF71EA913
:1034200032687E4B0892089A7D4C1A60FFF717B9F4
:10343000039B1B78002BA1D03B68A3F10C007F28D5
:1034400040F3418377488B3B80FB0320DA17C2EBC4
:10345000600000EB4000A3EB800303F17300DFF892
:10346000D881C0B298F8001006F0F2F8009B1B78E3
:10347000002B83D0644C2378002B3FF47FAFDFF820
:10348000BCA14FF0000B0CE003F17300C0B298F840
:10349000001006F0DDF823780BF1010B5B457FF798
:1034A0006DAF3B685AF8040F5E4A1844A0F18B03D5
:1034B00082FB0321DA17C2EB61020C3802EB4202F5
:1034C0007F28A3EB8203DFDCFDF7C6F8DEE74D4B78
:1034D0001B78002B40F0B5823B68534A1278002AD3
:1034E00045D0A3F10C007F2840F3F3824D4A8B3B7B
:1034F00082FB0321DA17C2EB610202EB4202A3EB6B
:10350000820303F17300C0B298F8001006F0A0F82F
:10351000009B1B7853B33C4C23783BB3DFF81C91E2
:10352000DFF800A14FF0000B0BE003F17300C0B215
:1035300098F8001006F08CF823780BF1010B5B452E
:1035400014DD3B6859F8040F1844A0F18B038AFB83
:103550000321DA17C2EB61020C3802EB42027F282A
:10356000A3EB8203E1DCFDF777F8E0E73B682F4A45
:103570001278FAB1224A1288012A00F03184022A14
:1035800000F03386032A00F0CC87042A01F0218161
:10359000052A01F05E82062A01F04C83072A01F019
:1035A000F184082A01F05586092A01F026870A2AA3
:1035B00002F08980019A1288002A00F03B821C4A9E
:1035C000174C137003232B60FFF749B8DFF87080A6
:1035D00098F80030002B40F0FE80164F3B78002B0F
:1035E00040F0C8840E4C3B70FFF739B83A680DE7DD
:1035F000FC9EFF1FF89EFF1F389DFF1F809CFF1F32
:10360000669EFF1FA49EFF1F5C89FF1FA89CFF1FD3
:103610003889FF1F489DFF1F30A0FF1FDC9FFF1F41
:10362000709EFF1FABAAAA2A7D9CFF1F4A9DFF1F09
:10363000989EFF1F9A9CFF1F249DFF1F3489FF1F28
:10364000949EFF1FDBB21846137006F08FF8A54B4F
:10365000A5491A46A54B184600230B703B70137002
:103660000370FFF789B80123FFF7C8B88024A04989
:10367000A04BA14A09881B8812680B44B2EB630F68
:10368000BFF601A99D4B1B78002B40F0F281B8F8E2
:1036900000309B4AA3423FF4F6A89A4B14800122C3
:1036A0001A70FFF7F0B8FDF73FF8FFF79CBAFCF788
:1036B000E5FFFFF793BAFCF7CFFF57E5924B019375
:1036C0001B8863BB894B0393904B0293904C2378E8
:1036D0007BB3DFF85882DFF83CA24FF0000B09E023
:1036E00003F17300C0B205F0D7FF23780BF1010B93
:1036F0005B451EDD58F8043F99F800001844A0F11E
:103700007F038AFB0321DA17C2EB610202EB42025C
:103710007F28A3EB8203E3DCFCF79EFFE2E7734B19
:1037200003937A4B029305F0B7FF009B1B78002BA5
:10373000CCD1039B1B78002B3FF4DAAC99F8003016
:10374000A3F10C007F2840F3C18172488B3B80FBC2
:103750000320DA17C2EB600000EB4000A3EB80030C
:1037600003F17300C0B205F097FF009B1B78002B9C
:1037700000F09E81664C2378002B01F07782DFF801
:10378000AC81DFF890A14FF0000B0AE003F1730069
:10379000C0B205F081FF23780BF1010B5B457FF789
:1037A000A7AC58F8043F99F800001844A0F18B0327
:1037B0008AFB0321DA17C2EB61020C3802EB4202EA
:1037C0007F28A3EB8203E1DCFCF746FFE0E720461D
:1037D000FCF742FF75E4504A1278002A40F0A081BD
:1037E0004E4F4F4C3B70FEF73ABFFCF735FFFFF7EB
:1037F00043BA002008704B49087840B1394900911C
:103800000978002900F07C81009F00213970464929
:10381000097800297FF47CA8002C40F0CD80002896
:1038200040F0CA80354C2F4F94F800E02F4C0394A1
:10383000364C02942D4C2C492070344C0097087063
:1038400038702070BEF1000F7FF474A8FFF77EB8C7
:10385000264B1B78002B6BD099F80030A3F10C009D
:103860007F2840F392832B4A8B3B82FB0321DA179C
:10387000C2EB610202EB4202A3EB820303F173008D
:10388000C0B205F009FF009B1B78002B50D0204CE4
:103890002378002B4CD0254FDFF878804FF0000ABA
:1038A00009E003F17300C0B205F0F6FE23780AF1D7
:1038B000010A53453CDD57F8043F99F800001844CD
:1038C000A0F18B0388FB0321DA17C2EB61020C38ED
:1038D00002EB42027F28A3EB8203E2DCFCF7BCFE92
:1038E000E1E700BFF69EFF1FA49EFF1F7D9CFF1F08
:1038F0005C9EFF1F609EFF1FD89CFF1F949EFF1FB2
:10390000E49EFF1FA49CFF1FDE9CFF1F4A9DFF1F1C
:103910005C89FF1FABAAAA2AE89EFF1F9A9CFF1F83
:10392000709EFF1F459FFF1F419FFF1F3489FF1F90
:10393000914B1B78FBB1914B1B88012B00F07686D5
:10394000022B00F07087032B01F0EA80042B01F0BA
:103950007881052B01F0BB83062B01F0E084072B57
:1039600001F0CA85082B01F07D86092B01F08B87B9
:103970000A2B01F06887019B1B88002B00F0B8829E
:103980007F4B1B78002B40F0AE827E4B7E4A19881D
:10399000D6F800800020012310602B603CE5013543
:1039A000EDB2022D86BF0022027005701A46FFF7A5
:1039B0003CBA0398002101707449097800293EF44B
:1039C000C5AF6D4902910978002900F0528702982D
:1039D00000210170FEF7BABF039B1B78002B7FF418
:1039E000AFAB029B1B78002B7FF4AAAB019B19881D
:1039F000FFF7ACBB243B002BB8F8000040F3748405
:103A000098423EF418AF9BB26148A8F800300123F9
:103A10000370FEF710BFDFF87C81C0B298F8001089
:103A200005F016FEFFF7A6BB5A4B3878197805F05B
:103A30000FFECBE4D8B298F8001005F009FE3B6801
:103A4000BDE57F21402005F0D3FD5349534A3B6833
:103A50000B600021117040E5C0B298F8001005F02D
:103A6000F7FDFFF710B94E4BDFF854E11978FEF778
:103A7000E2BE4B2C40F348821834802CB8F800305A
:103A8000484AA8BF8024A3427FF407AEFEF7FBBEDE
:103A900099F8000005F000FE2188FFF757BB424B64
:103AA00001931B88002B41F03487334B029345E68A
:103AB000029B1B78002B7FF41EAB039B1B78002B13
:103AC0007FF43EAB92E7FCF7C7FDC8E4FCF7C4FD0A
:103AD00048E6FCF7C1FD16E5FCF7BEFDFFF716BA98
:103AE000421CD2B2022A40F2568200222A701A46A2
:103AF000FFF79BB97F20FFF7D1BA7F20FFF78FB97F
:103B00001D4F1F4902974FF0000C81F800C0009F25
:103B100002994FF0010E87F800E081F800C076E6C8
:103B2000224F387802F072FE214B1B78002B00F0F8
:103B300040823B887E2B00F23C821E4CDFF8849052
:103B40002268D9F80010521A0F2A40F229821A4A24
:103B50000133108899B23980002800F04382C9B23D
:103B6000C0B205F045FD154F226898F80030C9F83D
:103B700000203B70FEF773BD4A9DFF1F669EFF1F2E
:103B8000A49EFF1F489DFF1F809CFF1F949EFF1F48
:103B9000A49CFF1F249DFF1FA89CFF1F5C89FF1F83
:103BA0001F9FFF1FE49EFF1FDE9CFF1FD49CFF1F73
:103BB000469FFF1F709EFF1F209DFF1F9A9CFF1FA7
:103BC000F99CFF1F2C9FFF1FDFF89CA399F80000B2
:103BD000BAF80030DF4AE04CC31A82FB031ED91743
:103BE000C1EB6E0101EB4101A3EB810303EB430346
:103BF00054F8233018447F2840F38F847F3882FBA9
:103C00000032C317C3EB620303EB4303A0EB830053
:103C10007330DFF858B3C0B205F03EFDBBF800309A
:103C2000022B7FF688AA99F80010BAF80030C94A2A
:103C3000CB1A82FB030ED817C0EB6E0000EB4000DE
:103C4000A3EB800303EB430304EB830358680844AE
:103C50007F2840F3FA867F3882FB0032C317C3EB1C
:103C6000620202EB4202A0EB82007330C0B205F0A8
:103C700013FDBBF80030032B7FF65DAA99F8001006
:103C8000BAF80030B34ACB1A82FB030ED817C0EB48
:103C90006E0000EB4000A3EB800303EB430304EB57
:103CA0008304A06808447F2840F351817F3882FB59
:103CB0000032C317C3EB620202EB4202A0EB8200A8
:103CC0007330C0B205F0E8FCFFF735BADFF898A210
:103CD0003868BAF800309F4A9F4CC31A82FB031E13
:103CE000D917C1EB6E0101EB4101A3EB810303EB9B
:103CF000430354F8233018447F2840F30A847F3864
:103D000082FB0032C317C3EB620303EB4303A0EB58
:103D100083007330DFF85882DFF850B298F8001053
:103D2000C0B205F095FCBBF80030022B7FF649AB22
:103D30003968BAF80030874ACB1A82FB030ED817CD
:103D4000C0EB6E0000EB4000A3EB800303EB4303EA
:103D500004EB8303586808447F2840F372867F3859
:103D600082FB0032C317C3EB620202EB4202A0EBFC
:103D700082007330C0B298F8001005F069FCBBF8FF
:103D80000030032B7FF61DAB3968BAF80030714A5A
:103D9000CB1A82FB030ED817C0EB6E0000EB40007D
:103DA000A3EB800303EB430304EB8304A068084404
:103DB0007F2840F3FB807F3882FB0032C317C3EBC0
:103DC000620202EB4202A0EB8200733098F800100E
:103DD000C0B205F03DFCFFF7F4BA0120FFF75EB971
:103DE000DFF884A15B49BAF800205B4C9A1A81FB8A
:103DF000020ED017C0EB6E0000EB4000A2EB800279
:103E000002EB420254F8220018447F2840F3008459
:103E1000A0F17F0381FB0321DA17C2EB610000EB05
:103E20004000A3EB80007330DFF840B198F8001039
:103E3000C0B205F00DFCBBF80030022B50D9396838
:103E4000BAF80030434ACB1A82FB030ED817C0EBF6
:103E50006E0000EB4000A3EB800303EB430304EB95
:103E60008303586808447F2840F356867F3882FBD6
:103E70000032C317C3EB620202EB4202A0EB8200E6
:103E80007330C0B298F8001005F0E2FBBBF80030C8
:103E9000032B25D93868BAF800302E4AC31A82FBA2
:103EA000031ED917C1EB6E0101EB4101A3EB8103A6
:103EB00003EB430304EB8304A36818447F2867DD06
:103EC0007F3882FB0032C317C3EB620202EB42026F
:103ED000A0EB82007330C0B298F8001005F0B8FB78
:103EE0003B68FFF767BB0021402005F081FB4CE5F4
:103EF00099F8000005F0D0FB42E505F0CDFBFFF797
:103F00000EB80120FEF78BBF243C002CB8F800301F
:103F100040F39185A3423EF4B6ACA4B20F4BA8F88F
:103F2000004001221A70FEF7AEBC0D4B01931B88B6
:103F3000002B3FF4DDA8FFF7F6BB0A4A8342A8BF77
:103F400003461360FEF781BE1446FFF79BBBFCF7E8
:103F500083FBB6E6ABAAAA2A68290100A49CFF1F2E
:103F6000DE9CFF1F809CFF1FA09EFF1FB89CFF1FB1
:103F7000249DFF1FDF4BE04C19886A2005F092FC5E
:103F800098F800303B70FEF76ABBFCF765FB77E4FE
:103F9000FCF762FB9FE72A701A46FEF746BFD64C35
:103FA000D64F98F800303B70FEF759BBFCF754FB36
:103FB0000CE7D34B1B78002BF1D03B88CD4F002B67
:103FC000EDD0CD4CDFF848932268D9F80010521A92
:103FD0000F2AE5D9CB4A013B108899B239800028D5
:103FE0007FF4BDADC8B205F0A3FBBCE5DFF824A3A8
:103FF00099F80000BAF80030C34AC44CC31A82FBD7
:10400000031ED917C1EB6E0101EB4101A3EB810344
:1040100003EB430354F8233018447F2840F3FD8317
:104020007F3882FB0032C317C3EB620303EB430309
:10403000A0EB83007330DFF8E0B2C0B205F02CFBD8
:10404000BBF80030022B7FF676A899F80010BAF87A
:104050000030AD4ACB1A82FB030ED817C0EB6E00BE
:1040600000EB4000A3EB800303EB430304EB83036B
:10407000586808447F2840F3F1857F3882FB00327E
:10408000C317C3EB620303EB4303A0EB830073305E
:10409000C0B205F001FBBBF80030032B7FF64BA844
:1040A00099F80010BAF80030974ACB1A82FB030E39
:1040B000D817C0EB6E0000EB4000A3EB800303EBCE
:1040C000430304EB8304A06808447F287FF73FAFD5
:1040D0007F3882FB0032C317C3EB620303EB430359
:1040E000A0EB83007330ECE5DFF828A23868BAF85B
:1040F0000030854A854CC31A82FB031ED917C1EBD9
:104100006E0101EB4101A3EB810303EB430354F880
:10411000233018447F2840F359837F3882FB0032D4
:10412000C317C3EB620303EB4303A0EB83007330BD
:10413000DFF8E881DFF8E0B198F80010C0B205F0D0
:1041400087FABBF80030022B7FF63BA93968BAF832
:1041500000306D4ACB1A82FB030ED817C0EB6E00FD
:1041600000EB4000A3EB800303EB430304EB83036A
:10417000586808447F2840F36D857F3882FB003201
:10418000C317C3EB620303EB4303A0EB830073305D
:10419000C0B298F8001005F05BFABBF80030032BB2
:1041A0007FF60FA93868BAF80030574AC31A82FB65
:1041B000031ED917C1EB6E0101EB4101A3EB810393
:1041C00003EB430304EB8304A36818447F287FF7C1
:1041D000EDAE7F3882FB0032C317C3EB620303EB03
:1041E0004303A0EB83007330F0E5DFF828A14649D4
:1041F000BAF80020454C9A1A81FB020ED017C0EB8A
:104200006E0000EB4000A2EB800202EB420254F889
:10421000220018447F2840F30383A0F17F0381FB31
:104220000321DA17C2EB610000EB4000A3EB800032
:104230007330DFF8E4B098F80010C0B205F008FA67
:10424000BBF80030022B7FF64BAE3968BAF800306D
:104250002D4ACB1A82FB030ED817C0EB6E0000EB81
:104260004000A3EB800303EB430304EB8303586894
:1042700008447F2840F3F6847F3882FB0032C3175E
:10428000C3EB620303EB4303A0EB83007330C0B2C4
:1042900098F8001005F0DCF9BBF80030032B7FF62E
:1042A0001FAE3868BAF80030174AC31A82FB031EE3
:1042B000D917C1EB6E0101EB4101A3EB810303EBC5
:1042C000430304EB8304A36818447F287FF760AEA0
:1042D0007F3882FB0032C317C3EB620303EB430357
:1042E000A0EB83007330F6E501283EF4A4AA012375
:1042F000FFF78ABBD49CFF1F709EFF1F9A9CFF1F75
:10430000459FFF1F209DFF1FABAAAA2A682B010013
:104310002C9FFF1FA09EFF1FB89CFF1F249DFF1F07
:10432000DFF8FCA299F80000BAF80030BA4ABB4C9A
:10433000C31A82FB031ED917C1EB6E0101EB4101C9
:10434000A3EB810303EB430354F8233018447F2885
:1043500040F3E7817F3882FB0032C317C3EB620270
:1043600002EB4202A0EB82007330DFF8B8B2C0B2B9
:1043700005F092F9BBF80030022B7EF6DCAE99F81E
:104380000000BAF80030A44AC31A82FB0321DA17EE
:10439000C2EB610202EB4202A3EB820303EB430395
:1043A00004EB83035B6818447F2840F328847F383C
:1043B0000C2290FBF2F302FB13007330C0B205F045
:1043C0006BF9BBF80030032B7EF6B5AE99F8000010
:1043D000BAF80030904AC31A82FB0321DA17C2EB05
:1043E000610202EB4202A3EB820303EB430304EB03
:1043F0008304A36818447F287FF7A9AD7F380C2277
:1044000090FBF2F302FB130073305AE4DFF810A2C2
:104410003868BAF80030804A804CC31A82FB031E09
:10442000D917C1EB6E0101EB4101A3EB810303EB53
:10443000430354F8233018447F2840F36F817F38BA
:1044400082FB0032C317C3EB620202EB4202A0EB15
:1044500082007330DFF8D081DFF8C8B198F800101F
:10446000C0B205F0F5F8BBF80030022B7EF6A9AF1C
:104470003868BAF80030684AC31A82FB0321DA1799
:10448000C2EB610202EB4202A3EB820303EB4303A4
:1044900004EB83035B6818447F2840F3AD837F38C7
:1044A0000C2290FBF2F302FB13007330C0B298F8B9
:1044B000001005F0CDF8BBF80030032B7EF681AF7D
:1044C0003868BAF80030544AC31A82FB0321DA175D
:1044D000C2EB610202EB4202A3EB820303EB430354
:1044E00004EB8304A36818447F287FF75FAD7F380F
:1044F0000C2290FBF2F302FB1300733066E44FF4DE
:104500007A43013BFDD199F8000005F0C5F8FEF7AC
:1045100068BFFCF7A1F8FFF7FDBBFCF79DF8FFF7BC
:1045200078BBDFF8FCA03C49BAF800203B4C9A1A53
:1045300081FB020ED017C0EB6E0000EB4000A2EB37
:10454000800202EB420254F8220018447F2840F314
:10455000EB80A0F17F0381FB0321DA17C2EB61013D
:1045600001EB4101A3EB81007330DFF8B8B098F89C
:104570000010C0B205F06CF8BBF80030022B7FF6DB
:10458000AFAC3868BAF80030234AC31A82FB032163
:10459000DA17C2EB610202EB4202A3EB820303EBE8
:1045A000430304EB83035B6818447F2840F32E83A6
:1045B0007F380C2290FBF2F302FB13007330C0B281
:1045C00098F8001005F044F8BBF80030032B7FF694
:1045D00087AC3868BAF800300F4AC31A82FB03214F
:1045E000DA17C2EB610202EB4202A3EB820303EB98
:1045F000430304EB8304A36818447F287FF7C8AC07
:104600007F380C2290FBF2F302FB1300733062E45C
:10461000FCF722F808E400BFABAAAA2AF82B010095
:10462000A09EFF1FB89CFF1F249DFF1FDFF834A32F
:1046300099F80000BAF80030C24AC34CC31A82FB92
:104640000317D917C1EB670101EB4101A3EB81030C
:1046500003EB430354F8233018447F286ADD7F3886
:1046600082FB0032C317C3EB620202EB4202A0EBF3
:1046700082007330DFF8F0B2C0B205F00DF8BBF87D
:104680000030022B7FF677A999F80000BAF80030C5
:10469000AC4AC31A82FB0321DA17C2EB610202EBB8
:1046A0004202A3EB820303EB430304EB83035B6847
:1046B00018447F2840F3A7827F380C2290FBF2F346
:1046C00002FB13007330C0B204F0E6FFBBF8003009
:1046D000032B7FF650A999F80000BAF80030994AE8
:1046E000C31A82FB0321DA17C2EB610202EB42021A
:1046F000A3EB820303EB430304EB8304A368184496
:104700007F2814DD7F380C2290FBF2F302FB1300AC
:104710007330C0B204F0C0FFFFF72DB9FBF79CFF68
:1047200098E6FBF799FF20E6FBF796FF1DE7FBF7FE
:1047300093FFEEE7FBF790FF9CE7DFF828A299F8DC
:104740000000BAF800307F4A804CC31A82FB031E77
:10475000D917C1EB6E0101EB4101A3EB810303EB20
:10476000430354F8233018447F28DADD7F3882FB76
:104770000032C317C3EB620303EB4303A0EB8300D8
:104780007330F2E5DFF8DCA13868BAF800306D4A22
:104790006E4CC31A82FB031ED917C1EB6E0101EBED
:1047A0004101A3EB810303EB430354F82330184486
:1047B0007F28B3DD7F3882FB0032C317C3EB62036F
:1047C00003EB4303A0EB8300733043E6FBF744FFA6
:1047D000AEE4DFF890A15B49BAF800205B4C9A1A6E
:1047E00081FB020ED017C0EB6E0000EB4000A2EB85
:1047F000800202EB420254F8220018447F2893DD25
:10480000A0F17F0381FB0321DA17C2EB610000EB0B
:104810004000A3EB80007330A7E6FBF71DFF0AE41E
:10482000FBF71AFF05E5DFF83CA199F80000BAF89C
:104830000030444A464CC31A82FB0317D917C1EB18
:10484000670101EB4101A3EB810303EB430354F840
:10485000233018447F287FF76DAF7F3882FB00320A
:10486000C317C3EB620303EB4303A0EB8300733076
:1048700000E738480090384838490390FEF75AB8A6
:10488000DFF8E0A099F80000BAF800302D4A344C67
:10489000C31A82FB0321DA17C2EB610202EB420268
:1048A000A3EB820303EB430354F8233018447F281F
:1048B00040F39F817F380C2290FBF2F302FB130040
:1048C0007330DFF8A4B0C0B204F0E6FEBBF80030ED
:1048D000022B19D999F80000BAF800300C22C11A3D
:1048E00091FBF2F302FB131302FB03435B681844D2
:1048F0007F2840F33B847F3890FBF2F302FB1300E8
:104900007330C0B204F0C8FEBBF80030032B7EF653
:1049100012ACBAF8003099F800000C22C11A91FBD1
:10492000F2F302FB131302FB0344A36818447F282D
:104930007FF70DAB7F3890FBF2F302FB130073306F
:10494000FFF7BFB9ABAAAA2A68290100D425010044
:10495000682B0100F69EFF1F7D9CFF1FA49EFF1F7A
:104960007C2E0100A09EFF1FB89CFF1FDFF864A3F0
:104970003868BAF80030CE4ACE4CC31A82FB032105
:10498000DA17C2EB610202EB4202A3EB820303EBF4
:10499000430354F8233018447F2840F327817F389D
:1049A0000C2290FBF2F302FB13007330DFF8288334
:1049B000DFF828B398F80010C0B204F049FEBBF845
:1049C0000030022B1AD93868BAF800300C22C11A0C
:1049D00091FBF2F302FB131302FB03435B681844E1
:1049E0007F2840F3C7837F3890FBF2F302FB13006C
:1049F0007330C0B298F8001004F02AFEBBF8003003
:104A0000032B7EF6DEACBAF8003038680C22C11AEF
:104A100091FBF2F302FB131302FB0344A368184457
:104A20007F287FF7C3AA7F3890FBF2F302FB1300C5
:104A30007330FFF7CBB9012B3DF425AF0124FFF70D
:104A40006DBAFBF709FEFFF795B9FBF705FEFFF717
:104A50000DB9DFF880A29649BAF80020954C9A1A51
:104A600081FB0210D117C1EB600101EB4101A2EB08
:104A7000810202EB420254F8220018447F2840F3DE
:104A8000B280A0F17F030C2093FBF0F200FB123008
:104A90007330DFF848B298F80010C0B204F0D8FDC7
:104AA000BBF80030022B1AD93868BAF800300C2253
:104AB000C11A91FBF2F302FB131302FB03435B6881
:104AC00018447F2840F31E837F3890FBF2F302FBEB
:104AD00013007330C0B298F8001004F0B9FDBBF8B1
:104AE0000030032B7FF6FCA9BAF8003038680C229E
:104AF000C11A91FBF2F302FB131302FB0344A368F8
:104B000018447F287FF744AA7F3890FBF2F302FB1A
:104B100013007330FFF7DFB9FBF79EFDFFF7B1B964
:104B2000DFF8B0A199F80000BAF80030604A624C92
:104B3000C31A82FB0321DA17C2EB610202EB4202C5
:104B4000A3EB820303EB430354F8233018447F287C
:104B500046DD7F380C2290FBF2F302FB130073302A
:104B6000DFF878B1C0B204F097FDBBF80030022B3B
:104B700019D999F80000BAF800300C22C11A91FB3B
:104B8000F2F302FB131302FB03435B6818447F2814
:104B900040F38B807F3890FBF2F302FB13007330FD
:104BA000C0B204F079FDBBF80030032B7EF6E3AE13
:104BB000BAF8003099F800000C22C11A91FBF2F308
:104BC00002FB131302FB0344A36818447F287FF7FA
:104BD000AEAD7F3890FBF2F302FB1300733098E523
:104BE000FBF73AFDBCE7FBF737FD52E7FBF734FD77
:104BF000DCE6FBF731FD64E6FBF72EFD56E4FBF740
:104C00002BFDFFF7DBBBFBF727FD5CE5FBF724FD86
:104C1000D5E4DFF8C0A099F80000BAF80030244AC3
:104C2000264C35E6DFF8ACA03868BAF80030204AE8
:104C3000224CA2E6DFF89CA01D49BAF800201F4CC8
:104C40000DE7DFF890A099F80000BAF80030184A94
:104C50001B4C6DE7FBF700FDFFF79ABAFBF7FCFC76
:104C6000FFF716BAFBF7F8FCFFF711BB029B1B78A6
:104C7000002B7EF440AAFEF763BA124B1B78002B80
:104C800000F0C182104B1B78002B7DF4FCAD0F4B64
:104C90001B78002B3DF4F7ADB8F800300C490A330F
:104CA000A8F800300A70FDF7EEBDFBF7D5FC77E7FA
:104CB000ABAAAA2A7C2E0100F82B0100242D0100AA
:104CC000D4250100429FFF1F439FFF1F449FFF1FEA
:104CD000A49CFF1FA09EFF1F249DFF1FB89CFF1FC9
:104CE000A14C2388002B40F07D83DFF894B29F49CC
:104CF0009F4A098899F80000B2F800E0DFF878824E
:104D0000C1EB000C0C229CFBF2F102FB11C14FF035
:104D1000900C0CFB0EFE02FB01E16FF00B0E58F83D
:104D2000011008440EFB03007F2840F35F85A0F1CB
:104D30007F0393FBF2F002FB10307330C0B204F03B
:104D4000ABFCBBF8002023881344022B22DD874AEA
:104D5000874B118899F80000B3F800C0DFF818E21B
:104D6000411A0C2291FBF2F302FB1311902303FB77
:104D70000CF302FB013373445B6818447F2840F353
:104D800053857F3890FBF2F302FB13007330C0B2FF
:104D900004F082FCBBF8002023881344032B22DD9F
:104DA000724A734B118899F80000B3F800C0DFF81D
:104DB000C8E1411A0C2291FBF2F302FB131190237C
:104DC00003FB0CF302FB013373449B6818447F28F8
:104DD00040F310857F3890FBF2F302FB1300733031
:104DE000C0B204F059FCBBF8002023881344042B04
:104DF0007EF7A1A95F4B1B88012B7EF49CA999F833
:104E00000020A2F10C007F287FF7A1A88B3A0C208C
:104E100092FBF0F300FB13207330FEF752BF524CAD
:104E20002388002B40F01D83DFF854B14F49504ACE
:104E30000988D7F80080B2F800E04F48C1EB080CB1
:104E40000C229CFBF2F102FB11C14FF0900C0CFB09
:104E50000EFE02FB01E16FF00B0E405880440EFB8A
:104E600003807F2840F39D84A0F17F0393FBF2F041
:104E700002FB10307330414BC0B2197804F0E8FBEC
:104E8000BBF8002023881344022B23DD374A384B1C
:104E900011883868B3F800C0DFF8DCE0411A0C2252
:104EA00091FBF2F302FB1311902303FB0CF302FBC3
:104EB000013373445B6818447F2840F3AB847F3828
:104EC00090FBF2F302FB130073302C4BC0B2197845
:104ED00004F0BEFBBBF8002023881344032B23DD22
:104EE000224A234B11883868B3F800C0DFF888E005
:104EF000411A0C2291FBF2F302FB1311902303FBE6
:104F00000CF302FB013373449B6818447F2840F381
:104F10008F847F3890FBF2F302FB13007330174B42
:104F2000C0B2197804F094FBBBF800202388134426
:104F3000042B7EF746AA0F4B1B88012B7EF441AA57
:104F40003A68A2F10C007F2840F3E6818B3A0C20EE
:104F500092FBF0F300FB13207330084BC0B21978BA
:104F600004F076FBFEF72DBA2C9DFF1FA09EFF1FBD
:104F7000509EFF1FD29CFF1F64260100249DFF1F2F
:104F8000B89CFF1FCD4C2288002A00F0D081CC496C
:104F9000DFF858B30988BBF800000331884227DDE9
:104FA000C848C9490088B1F800E0DFF844C3181ABE
:104FB0000C2190FBF1F901FB19004FF0900909FB5E
:104FC0000EFE01FB00E06FF00B0E5CF800000344E6
:104FD0000EFB02307F2840F3AA837F3890FBF1F369
:104FE00001FB13007330C0B298F8001004F030FBDE
:104FF000BBF8002023881344022B23DDB14BB24AB7
:1050000038681B88B2F800C0DFF8E4E2C31A0C214C
:1050100093FBF1F201FB1232902303FB0CF301FB33
:10502000023373445B6818447F2840F308847F3858
:1050300090FBF1F301FB13007330C0B298F800103D
:1050400004F006FBBBF8002023881344032B23DD68
:105050009C4B9D4A38681B88B2F800C0DFF890E28C
:10506000C31A0C2193FBF1F201FB1232902303FBD4
:105070000CF301FB023373449B6818447F2840F310
:10508000DB837F3890FBF1F301FB13007330C0B278
:1050900098F8001004F0DCFABBF8002023881344D1
:1050A000042B7EF71DAF864B1B88012B7EF418AFB7
:1050B0003A68A2F10C007F287EF76AAF8B3A0C2089
:1050C00092FBF0F300FB13207330FEF704BFDFF810
:1050D000F4A199F80000BAF800307C4CC11A0C22F7
:1050E00091FBF2F302FB131302FB03F3E3581844A2
:1050F0007F287FF775AD7F3890FBF2F302FB13003A
:1051000073302DE5FBF7A8FAE4E4714B1B88182BEC
:1051100012D099F800201344A3F118007F2840F31F
:1051200076830C20973B93FBF0F200FB123303F1E4
:105130007300C0B204F0B0FA664A674B127833F8D5
:105140001230182B3DF4F7AF99F800201344A3F167
:1051500018007F287EF7FBAE0C20973B93FBF0F204
:1051600000FB123303F17300FEF7ABBDFBF774FADB
:10517000FFF7C7BBFBF770FA3BE4554B1A88182AB8
:1051800013D03B681344A3F118007F2840F33C83FD
:105190000C20973B93FBF0F200FB123303F17300FA
:1051A0004E4BC0B2197804F053FA4A4B4A491A7868
:1051B000022A94BF013200221A701A7831F81200C4
:1051C000182810D10424022A02F10100C2B288BFBB
:1051D000002231F81200182804D1013CF3D11A70D2
:1051E000FEF7EFB81A703B680344A3F118007F285C
:1051F00040F392800C20973B93FBF0F200FB1233BC
:1052000003F17300A9E6364B1B78002B7DF4FCAF4D
:10521000344B1B78002B3DF436ABB8F800303249E4
:105220000133A8F800300A70FDF72DBB2C4B1B781A
:10523000002B7DF428AB2B4B1B78002B3DF423ABCC
:10524000B8F800302849013BA8F800300A70FDF793
:105250001ABB1F4A1288182A12D01344A3F118004F
:105260007F2840F3CE820C20973B93FBF0F200FBAB
:10527000123303F17300C0B298F8001004F0E8F99B
:10528000144B15491A78022A94BF013200221A7071
:105290001A7831F8120018282DD10424022A02F1BC
:1052A0000100C2B288BF002231F81200182821D1B3
:1052B000013CF3D11A703B68FEF77CB92C9DFF1FAF
:1052C000D29CFF1FA09EFF1F509EFF1F7C2E01003F
:1052D000C09CFF1F9489FF1FBC9EFF1F249DFF1FC2
:1052E000439FFF1F449FFF1FA49CFF1FB89CFF1FED
:1052F000642601001A703B680344A3F118007F285C
:105300007EF746AE0C20973B93FBF0F200FB123386
:1053100003F17300FEF7DFBDFBF79EF91DE6DFF832
:1053200034A399F80000BAF80030C04CD6E6DFF894
:1053300030B335E6BE4B1A88182A13D03B681344A5
:10534000A3F118007F2840F369820C20973B93FB60
:10535000F0F200FB123303F17300B64BC0B21978C0
:1053600004F076F9B44BB5491A78022A94BF013299
:1053700000221A701A7831F8120018287FF433AF1F
:105380000424022A02F1010294BFD2B2002231F8B1
:10539000120018287FF426AF013CF2D11A70FEF7F4
:1053A00010B8A34B1B88182B12D099F80020134477
:1053B000A3F118007F2840F334820C20973B93FB25
:1053C000F0F200FB123303F17300C0B204F064F991
:1053D000994A9A4B127833F81230182B7FF4B4AEF6
:1053E000FDF7A9BE964ADFF878B21288BBF8001024
:1053F000033291427FF7A5AC79E48D4A1288182ACE
:1054000012D01344A3F118007F2840F3F7810C2039
:10541000973B93FBF0F200FB123303F17300C0B231
:1054200098F8001004F014F9834B84491A78022A82
:1054300094BF013200221A701A7831F8120018282D
:105440007FF459AF0424022A02F1010294BFD2B2C0
:10545000002231F8120018287FF44CAF013CF2D141
:1054600028E7774ADFF8F8B11288BBF8001003325A
:1054700091427FF705ADD9E4724B01227F210720CD
:105480001A8004F0B5F87F210B2004F0B1F8FDF785
:10549000E6BE6D4B04227F2107201A8004F0A8F895
:1054A00000210B2004F0A4F8FDF7D2BE664B0222C7
:1054B0007F2107201A8004F09BF87F210B2004F045
:1054C00097F8FDF7C0BE604B002107201C8004F058
:1054D0008FF87F210B2004F08BF8FDF7AFBE5B4BFC
:1054E00000227F2107201A8004F082F87F210B2000
:1054F00004F07EF8FDF7BBBE554C2388002B40F02E
:10550000E581DFF85CB1534999F80000524A0988F7
:105510001788DFF848E1411A0C2291FBF2FC02FBEC
:105520001C114FF0900C0CFB07F702FB01716FF0A0
:105530000B075EF80110014407FB03107F2840F3BE
:10554000C2817F3890FBF2F302FB13007330C0B2CC
:1055500004F0A2F8BBF8002023881344022B21DDBD
:105560003C4B3D4A99F800001B88B2F800E03B4FE5
:10557000C31A0C2193FBF1F201FB1232902303FBBF
:105580000EF301FB02333B445B6818447F2840F371
:10559000B4817F3890FBF1F301FB13007330C0B28C
:1055A00004F07AF8BBF8002023881344032B21DD94
:1055B000284B294A99F800001B88B2F800E0274FD1
:1055C000C31A0C2193FBF1F201FB1232902303FB6F
:1055D0000EF301FB02333B449B6818447F2840F3E1
:1055E00089817F3890FBF1F301FB13007330C0B267
:1055F00004F052F8BBF8002023881344042B7EF7F4
:10560000BAA90F4B1B88012B7EF4B5A999F800208D
:10561000A2F10C007F287FF78AA88B3A0C2092FB1E
:10562000F0F300FB13207330FFF773B8242D010053
:10563000CA9CFF1F249DFF1F9489FF1F309EFF1FE0
:10564000D29CFF1F3E9DFF1F969EFF1F9C9CFF1F2D
:105650002C9DFF1FA09EFF1F509EFF1F6426010070
:10566000B89CFF1FAD4B1B88182B12D099F8002057
:105670001344A3F118007F2840F342810C20973B8C
:1056800093FBF0F200FB123303F17300C0B204F09D
:1056900003F8A34AA34B127833F81230182B3EF4C8
:1056A0006AA999F800201344A3F118007F287FF716
:1056B0003EA80C20973B93FBF0F200FB123303F162
:1056C0007300FFF726B8984A1288182A12D013449C
:1056D000A3F118007F2840F30A810C20973B93FB2D
:1056E000F0F200FB123303F17300C0B298F800101F
:1056F00003F0AEFF8A4B8D491A78022A94BF01321B
:1057000000221A701A7831F8120018287FF4F3ADCD
:105710000424022A02F1010294BFD2B2002231F81D
:10572000120018287FF4E6AD013CF2D1C2E5FAF789
:1057300093FF58E47C4B1A88182A13D03B68134413
:10574000A3F118007F2840F3E1800C20973B93FBE6
:10575000F0F200FB123303F17300754BC0B21978FD
:1057600003F076FF6E4B71491A78022A94BF01321A
:1057700000221A701A7831F8120018287FF433AD1D
:105780000424022A02F1010294BFD2B2002231F8AD
:10579000120018287FF426AD013CF2D11A70FDF7F3
:1057A00010BEFAF759FFFFF766BB5F4B1B88182B3B
:1057B00012D099F800201344A3F118007F2840F379
:1057C000A2800C20973B93FBF0F200FB123303F115
:1057D0007300C0B203F060FF514A544B127833F8A3
:1057E0001230182B7FF4B0ACFDF7A5BCFAF734FFEC
:1057F000FFF7A4BAFAF730FFFFF7F2BAFAF72CFF77
:105800000DE6FAF729FF36E5FAF726FFC8E4FAF7BE
:1058100023FF8EE4FAF720FFFFF757BBFAF71CFFD0
:105820009BE5FAF719FFD0E5FAF716FFFFF7AFBAD5
:10583000FAF712FFFFF773BBFAF70EFF27E4FAF748
:105840000BFFFFF7FABB384B1B88182B11D099F8C8
:1058500000201344A3F118007F2845DD0C20973B5E
:1058600093FBF0F200FB123303F17300C0B203F0BC
:1058700013FF2B4A2D4B127833F81230182B7FF47C
:1058800010AFFEF778B82B4B1B88182B11D099F866
:1058900000201344A3F118007F2822DD0C20973B41
:1058A00093FBF0F200FB123303F17300C0B203F07C
:1058B000F3FE1B4A204B127833F81230182B7FF47A
:1058C000F0AEFEF758B8FAF7C7FE40E61B4ADFF81D
:1058D00074B01288BBF80010033291427FF73AAEE1
:1058E00011E6FAF7B9FEE1E7FAF7B6FEBEE7FAF716
:1058F000B3FEFAE6FAF7B0FE79E6FAF7ADFE4EE649
:10590000FAF7AAFEC2E6FAF7A7FE62E7FAF7A4FEE4
:1059100023E70B4B0293FDF706BF00BFC09CFF1FA0
:105920009489FF1FBC9EFF1FCC9CFF1F389EFF1F4A
:10593000249DFF1FCA9CFF1F309EFF1FD29CFF1F8C
:105940004A9DFF1FB89CFF1F38B507F079FE0B4832
:1059500005F0B0FD00234FF07E5201210848FAF710
:1059600085FD084B084A0949802400251C7118460A
:105970001D60BDE838400BF069BC00BF3C9DFF1FB7
:10598000749EFF1F009FFF1F1C89FF1FFD05000065
:1059900010B50446A4206368198803F083FFE36808
:1059A000A6201988BDE8104003F07CBF43682A2078
:1059B000198803F077BF00BF10B504462220636842
:1059C000198803F06FFFE36824201988BDE81040B0
:1059D00003F068BF10B504460A206368198803F015
:1059E00061FFE3680C201988BDE8104003F05ABF3E
:1059F00010B5044606206368198803F053FFE36876
:105A000008201988BDE8104003F04CBF10B50446CB
:105A100002206368198803F045FFE36804201988B1
:105A2000BDE8104003F03EBF70B50E4C84B01225A7
:105A30000422012306460390029320468DE82400A9
:105A40001423102106F03AFF06220923029303963D
:105A50000195204600921423102106F02FFF04B078
:105A600070BD00BF789FFF1F70B5AE4CB4F9003019
:105A7000032B00F0E880002B4DD0022B6CD0052BBF
:105A800000F09880012B00F0C080042B00D070BD86
:105A900000244FF4AF75E1B2A34805F073FD013463
:105AA0008542A8BF05460C2CF5D1012008F048FE20
:105AB0000446002008F044FE323CA0F132039B492A
:105AC0006FF4957000FB03F300FB04F081FB0342CD
:105AD00081FB0041DB17C017C3EB6223C0EB6120E1
