:1000000000800020BD010000A9D7000061D70000DA
:1000100061D7000061D7000061D7000061D7000000
:1000200061D7000061D7000061D70000A9D70000A8
:10003000A9D7000061D7000029CE00002DCF000015
:10004000A9D70000A9D70000A9D70000A9D70000B0
:10005000A9D70000A9D70000A9D70000A9D70000A0
:10006000A9D70000A9D70000A9D70000A9D7000090
:10007000A9D70000A9D70000A9D70000A9D7000080
:10008000A9D70000A9D70000A9D70000A9D7000070
:10009000A9D70000A9D70000A9D70000A9D7000060
:1000A00065B3000071B30000A9D70000A9D7000014
:1000B000A9D70000A9D70000A9D70000A9D7000040
:1000C000A9D70000A9D70000A9D70000A9D7000030
:1000D000A9D70000A9D70000A9D70000A9D7000020
:1000E000A9D70000A9D70000A9D70000A9D7000010
:1000F000A9D70000C5FB0000A9D7000095E20000C9
:10010000A9D7000031E50000A9D70000A9D7000059
:10011000A9D70000A9D70000A9D70000A9D70000DF
:10012000A9D70000A9D70000A9D70000A9D70000CF
:10013000A9D70000A9D70000A9D70000A9D70000BF
:10014000A9D70000A9D70000A9D70000A9D70000AF
:1001500019D000002DD0000041D0000055D0000083
:10016000A9D700004DE80000A9D70000A9D70000DA
:10017000A9D70000A9D70000A9D70000A9D700007F
:10018000A9D70000A9D70000A9D70000A9D700006F
:10019000A9D70000A9D70000A9D70000A9D700005F
:1001A000A9D70000A9D70000A9D70000A9D700004F
:1001B000A9D70000A9D70000A9D70000564B4CF2E0
:1001C000205210B51A804DF628121A8000BF00BFC9
:1001D0000DF0EEFA514B4FF010621A60504A9A60DF
:1001E000504ADA60504A136813F4807304D14F49BF
:1001F0000B604FF4A85313604D4B1A78110703D5C9
:100200001A7842F008021A704A4B4B492A221A7097
:100210004A4A4B4B8B4204D252F8040F43F8040B6A
:10022000F8E7484B484900228B4202D243F8042B9E
:10023000FAE74649464A002352F8230041F82300D2
:1002400001336F2BF8D1434B434A802103F8011B44
:100250009342FBD1414B3D4A1A60414B8A221A70AE
:10026000A3F5805324225A70A0221A709A7992071B
:10027000FCD59A79D406FCD43A4A937903F00C035E
:10028000082B384BF9D103221A7140225A719A79FE
:100290009006FCD5334A9179324B4906FBD5324A58
:1002A000324911600221516020221A709A7902F0BD
:1002B0000C020C2AFAD12E4B2E4A1A602E4B2F4AD2
:1002C0001A6000225A60072243F8042C2C4AC3F813
:1002D0000C2D62B60DF01CFE144B1B68DA0705D519
:1002E00028480DF0E9FB284B284A1A60284B1B7858
:1002F0005B0609D5244C254B22689A4204D121483B
:100300000DF0DAFB0023236010F016FF0DF056FA13
:100310000DF084F9FEE700BF0E2005403080044058
:10032000823F04000100002B10D0034014D0034092
:1003300002D0074000E00740549CFF1F244D0100FD
:100340004088FF1F549CFF1F7CA4FF1F0082FF1FDB
:100350000000000000E400E05FE400E008ED00E0E1
:100360000050064000400640448004400000030165
:1003700004800440C010050014E000E0FF76010096
:10038000000020201D2631601CE00340A5C3945AC4
:1003900000F00740FFFFFFFFFFFFFFFFFFFFFFFF32
:1003A000FFFFFFFFFFFFFFFFFFFFFFFFFFFFFFFF5D
:1003B000FFFFFFFFFFFFFFFFFFFFFFFFFFFFFFFF4D
:1003C000FFFFFFFFFFFFFFFFFFFFFFFFFFFFFFFF3D
:1003D000FFFFFFFFFFFFFFFFFFFFFFFFFFFFFFFF2D
:1003E000FFFFFFFFFFFFFFFFFFFFFFFFFFFFFFFF1D
:1003F000FFFFFFFFFFFFFFFFFFFFFFFFFFFFFFFF0D
:10040000FFFFFFFFFFFFFFFFFFFFFFFFDEF9FFFF23
:1004100010B5054C237833B9044B13B10448AFF33E
:1004200000800123237010BD549CFF1F00000000BA
:10043000284D0100084B10B51BB108490848AFF31F
:1004400000800848036803B910BD074B002BFBD0A0
:10045000BDE81040184700BF00000000589CFF1F77
:10046000284D0100549CFF1F0000000038B50446D1
:10047000104621700A491D4610F040FC01464FF01D
:100480007E5010F0EFFC074910F038FCE56060602A
:10049000256165610DF0CCFCE061204638BD00BFF0
:1004A000DB0FC9400024744938B50446104621705A
:1004B00009491D4610F022FC01464FF07E5010F015
:1004C000D1FC064910F01AFCE560606025616561A9
:1004D0000DF0AEFCE06138BDDB0FC940002474496B
:1004E00038B503780446032B20D8DFE803F01A1848
:1004F0001002C168406910F0F7FA0D4905466068BE
:1005000010F0B0FC0146284610F0ACFC38BD08499C
:10051000406810F0A7FCE16810F0F0FB38BDC0683F
:1005200038BDC168406910F0DFFA38BD002038BD21
:100530000024744970B504460E460DF079FC05465A
:10054000E069281A10F086FBE3682361E5616661C3
:10055000A0610146606810F085FC0146A06010486B
:1005600010F080FC0FF056FF0FF0F6FB10F068FA69
:10057000054601464FF07E5010F0B6FA616910F062
:10058000BDFB21690646284610F0B8FB01463046FF
:1005900010F0ACFAE0602046BDE87040FFF7A0BF65
:1005A000000080BF08B50E200CF012FF114B1B8815
:1005B000012B19D0104B1B88984213DB40F6FF71BA
:1005C0008842D4BFC3EB0001C3EB0101C1EB013191
:1005D000C3F57F630F33282091FBF3F1BDE808409A
:1005E0000DF07CBA0021F3E70146BDE80840142075
:1005F0000DF074BAB09EFF1F449DFF1F10B5044656
:100600000CF0E8FC204610BD70B44C88A04220D904
:1006100001230133DBB21CB2660031F8144084427E
:100620001D46F6D3A04211D005F10045013D965B71
:1006300031F8151032F81530401AF21A00FB02F0AA
:10064000641A90FBF4F4E01870BC7047905B70BCC7
:10065000704702260125E5E700280CDA064A4342E6
:1006600082FB0320DA17C2EB600000EB4000A3EB33
:100670008000C0F10C007047ABAAAA2A38B5234B02
:100680001B78002B2CD015200CF0A2FE204B1860FC
:10069000204B1B88984203DA1F4C237863BB38BD7C
:1006A0001E4A1488A042A4EB0302A8BF20467F2A5A
:1006B0001CDDC01AC001541C90FBF4F4002CEBD0DC
:1006C000154B1A780AB901221A70154D2B689C42F5
:1006D00004D0144BE1B2187808F0EEFE2C6038BD5F
:1006E00011200DF091FF0A4B1860D1E7C01AC0EB42
:1006F000C01090FBF2F4E1E70A4B0021187808F0F3
:10070000DBFE0023064A2370136038BDC29EFF1F24
:10071000809CFF1FFE9CFF1F389FFF1FDC9EFF1F5A
:10072000349FFF1FD49CFF1F38B50F200DF06CFFC6
:100730001B4A1C4B12881860C0F53B600830904281
:1007400020DB194B1B889842A3EB0204A8BF184674
:10075000801A7F2CC6BFC0010134C0EBC01090FBD3
:10076000F4F47CB1114B1A780AB901221A70104DB9
:100770002B689C4204D00F4BE1B2187808F09CFE25
:100780002C6038BD094C237803B938BD094B0021D2
:10079000187808F091FE0023054A2370136038BDD5
:1007A000489DFF1F989CFF1FC89EFF1FEC9EFF1FC8
:1007B000089DFF1FF69CFF1FF0B40E8886420DD2E5
:1007C00003F10043013B31F81350854202D9F0BCDC
:1007D000FFF71ABF32F81300F0BC70471088F0BC66
:1007E000704700BF094B1B880C2B09D8084A80B200
:1007F00052F8232028B143F6FE73984203D9108C97
:100800007047108870470349FFF7FEBEAE9CFF1F7C
:1008100040270100DC2801004B4B4C4A2DE9F047F2
:100820001E8814684A4BB442B3F80080494B33DB4E
:100830004445A8BF4446A6421C60C8BF00202DDD29
:10084000C6EB0807B7F5804F33DB80037B1C90FBBA
:10085000F3F0FFF7C7FF404A404B15881B88C0F3F1
:10086000C61909FB05F57F2D8246A8BF7F252BB34E
:10087000A64253DC4445D4BFC6EB0404C6EB0804CF
:100880009F42CCBF03FB04445C43354BC8BF0137D8
:1008900094FBF7F71F6013E034461E60C6EB0807B1
:1008A000A045D4BFC6EB0800C6EB0400B7F5804FE7
:1008B000CBDAC0EB803090FBF7F0CAE7284A136030
:1008C000284C2368994508D0274B1B88002B34D12E
:1008D000264B1B886BBBC4F80090254C23689A45B7
:1008E00006D0214B1B885A1F032A19D9C4F800A02F
:1008F000204C23689D420FD01F4B188848B11A4BDB
:100900001E4A1B88D35C834203D0C0B2E9B208F010
:10091000D3FD2560BDE8F087BDE8F0870024AFE790
:10092000164AD05C2030C0B20AF07F0108F0C4FD46
:10093000DCE7484608F060FECDE7104A4946D05C47
:1009400008F0BAFDC4E700BF449DFF1FAC9EFF1F27
:100950000E9FFF1F789CFF1F889CFF1F8A9CFF1F14
:10096000149FFF1FF09CFF1F929EFF1F3A9DFF1FC9
:10097000A89CFF1F3C9DFF1FA29EFF1F9C89FF1F7D
:100980002DE9F04F17208BB00DF03EFEDFF870B36D
:10099000DFF870A3CBF8000016200DF035FEBA4B3F
:1009A000CAF800001B880C2B00F05E82B74EB84AD4
:1009B0003188B84B52F8214000221A70B64BB74A22
:1009C0001B88B7491288013B012A31F9133005937E
:1009D00000F0AE81B34B0193B34B0293B34FDFF8FA
:1009E000288300230093B24B1B88012B00F0F48175
:1009F000DFF81893AF4B0393D9F80050AE4B049334
:100A00000023AE4A1288013A032A00F24982DFE845
:100A100012F0A500ED000400C9002846059310F06F
:100A200019F9A74910F06AF9059B0546184610F018
:100A300011F9A44910F062F90146284610F056F861
:100A400010F022FB0546C9F80050386810F002F992
:100A50009B4910F053F98146009810F0FBF8994932
:100A600010F04CF90146484610F040F810F00CFB2D
:100A70003860954A954B17881988954BDBF800200C
:100A80001B88DFF88CE2C7EB050C3D44039FC7F8D9
:100A900000C0471A084404990D6001990F6002993B
:100AA000BEF8007008609A4280F2E7800025C3EB30
:100AB000070E7445DAF8000080F2D380611C98427A
:100AC00005FB01F50EF1010E95FBFEF5C0F25F830B
:100AD0008742A8BF0746FF1A01FB07F494FBFEF408
:100AE0009A4200F3A780984200F3A480794C2068D2
:100AF00010F0B0F8784910F001F978490FF0F6FFDE
:100B000010F0C2FAA0F5FF531C3B082B98BF4FF41E
:100B10000050D8F80030184400282060C0F29F80B0
:100B2000B0F5804F80F2F6806D4B1B781BB1B0F5AD
:100B3000005F40F0F7806B4D2B78002B40F0AB81CD
:100B4000694D20682B68634C984204D080B208F04D
:100B500083FC23682B600BB0BDE8F08F284605931B
:100B600010F078F8614910F0C9F8059B0546184661
:100B700010F070F85E4910F0C1F8014628460FF0F9
:100B8000B5FF10F081FA0546C9F80050386810F03A
:100B900061F8564910F0B2F88146009810F05AF802
:100BA00053495DE72846059310F054F84A4910F080
:100BB000A5F8059B0546184610F04CF84D4910F075
:100BC0009DF8014628460FF091FF10F05DFA0546AA
:100BD000C9F80050386810F03DF83F4910F08EF821
:100BE0008146009810F036F8424939E728460593C7
:100BF00010F030F8404910F081F8059B0546184682
:100C000010F028F83D4910F079F8014628460FF019
:100C10006DFF10F039FA0546C9F80050386810F039
:100C200019F8354910F06AF88146009810F012F86A
:100C3000324915E73388002B3FF458AF2B1B002BAC
:100C4000B8BF5B42092B00F32D81D8F80030214C4E
:100C50004FF40050184400282060BFF661AF002216
:100C60005AE0984205FB04F5B8BF002195FBFEF55C
:100C700080F2848291FBFEF432E7BA42D4BFC3EB28
:100C80000205C3EB070512E7DE9EFF1FE49CFF1F72
:100C90005889FF1F7E9CFF1F2089FF1FB29EFF1FE8
:100CA0006C2B0100D89CFF1F189DFF1F709CFF1F1D
:100CB000409EFF1FD09EFF1F449EFF1F2E89FF1FD7
:100CC000CDCC4C3FCDCC4C3EA889FF1F2C89FF1FBB
:100CD000A89EFF1F9089FF1F9A99193FCDCC4C45C4
:100CE000EA9FFF1F399DFF1F2489FF1F3333733F86
:100CF000CDCC4C3DCDCCCC3E6666663FCDCCCC3D1C
:100D0000E09CFF1FA49CFF1FE89EFF1FCC9EFF1FBF
:100D1000C09CFF1F43F6FF72C04B22601B78002B64
:100D20003FF409AF05F068FCBD4B01221A7007E7DC
:100D3000BC4BBD4A1B88BD491278013B31F91350A9
:100D4000002A40F0C78011200DF05EFC0090B84BE7
:100D50000193D3F80080009B984540F3C080B54BC9
:100D6000B54F1B88B54A012B3B68B2F80090B44AD6
:100D700002922046A3EB050500F0E2800FF06AFF27
:100D8000029A52F829100FF0B9FF014600200FF027
:100D9000ABFE10F079F9009BC8EB05029D42B8BF8D
:100DA0001D469042C8EB050580F2DE8000FB05552C
:100DB000013295FBF2F5A34BDFF8B4820293D8F829
:100DC00000302B4403EBD3735B10C8F800309E4B0C
:100DD0001B88012B7FF40CAE9C4B03931D460F2008
:100DE0000DF012FC2A6804929042034680F2CC80F7
:100DF000904A1288012A00F03F81904A0790128899
:100E00008F4D069220460FF025FF069ADFF8649278
:100E100055F82210D9F800500FF070FF014600205D
:100E20000FF062FE059BEA1A059210F02DF9059A63
:100E3000079B04999A42C1EB020EB8BF1A4670454F
:100E400080F24481521A00FB02220EF1010192FB52
:100E5000F1F2D8F800107E4804900A4402EBD272F6
:100E60005210C8F80020CCE57A4B1B78002B3FF4D9
:100E70009DAD794E794A3188794B52F82100012293
:100E80001A700FF0E7FE4FF07C510FF037FF10F0B3
:100E9000FBF8044692E505F0ABFB00232B704FE610
:100EA0003868E6E505F500500130001B0FF0D2FE72
:100EB0006C496D4C0FF022FF054620680FF0CAFE0A
:100EC0006A490FF01BFF014628460FF00FFE10F095
:100ED000DBF81EE615200CF07BFA009037E7594B43
:100EE0000293D3F80080009B984542DA514B524F51
:100EF0001B88524A012B3B68B2F80090504A03927B
:100F000020461D4400F0E9800FF0A4FE039A52F839
:100F100029100FF0F3FE10F0B7F8009B9D42C8EBCC
:100F20000502A8BF1D46C8EB05059042BABF00FBED
:100F300005550132454395FBF2F5DFF834813EE774
:100F40000FF088FE029A52F829100FF0D7FE10F029
:100F50009BF8009BC8EB05029D42B8BF1D4682422C
:100F6000C8EB05053FF722AF00FB05F595FBF2F551
:100F700021E7DFF8FC80304FD8F8003003EBD37363
:100F80005B10C8F800302EE5314A049212680692D0
:100F9000904237DD274A1288012A00F0BC80274A98
:100FA00009901188264A0891204607920FF052FEB8
:100FB000079A0899DFF8BC9052F82110D9F8005030
:100FC0000FF09CFE059B2B44059310F05DF80599EE
:100FD000099B069A9942C2EB010EA8BF19467045BB
:100FE00080F2BE80891A00FB01110EF1010291FB13
:100FF000F2F2D8F800100A4402EBD2725210C8F88C
:101000000020FEE4D8F80020DFF8689002EBD272EE
:101010005210D9F80050C8F80020F2E4EA9FFF1FF0
:10102000399DFF1FAC89FF1FC29EFF1F942801003E
:10103000D89CFF1F1E9DFF1F709CFF1FC89CFF1F99
:10104000842B0100189DFF1F409EFF1FD09EFF1F95
:10105000449EFF1F909EFF1FE49CFF1F5889FF1FA7
:101060007E9CFF1FCDCCCC3E9089FF1F9A99193FE3
:10107000E89EFF1FCC9EFF1F464A08901188464AF3
:101080000791204606920FF0E5FD069A0799DFF8D2
:101090000C9152F82110D9F800500FF02FFE059B4B
:1010A000E91A05910FF0F0FF0599089B049A9942FF
:1010B000C2EB010EB8BF1946704558DA891A00FB19
:1010C00001110EF1010291FBF2F2C2E60499521AEB
:1010D00000FB02F292FBFEF2BBE60FF0BBFD039AAF
:1010E00052F829100FF00AFE014600200FF0FCFC18
:1010F0000FF0CAFF009A9542C8EB0503A8BF15463A
:10110000C8EB05059842BABF00FB055501334543BE
:1011100095FBF3F511E71F491F4A089020460D88FB
:1011200007920FF097FD079ADFF8709052F825109C
:10113000D9F800500FF0E2FD014600200FF0D4FC7A
:10114000059B2B4405930FF09FFF0599089B069A7A
:101150009942C2EB010EA8BF19467045FFF642AF97
:10116000069A891A00FB01F191FBFEF241E7049A0D
:10117000891A00FB01F191FBFEF26AE6B842D4BF86
:10118000C3EB0001C3EB070104FB01F172E51F464D
:10119000A1E400BFC89CFF1F842B0100CC9EFF1F51
:1011A00008B5244B1B88FBB1234B1B78FBB1234BA9
:1011B0001B78E3B1224B1B78CBB1224B1B78B3B128
:1011C000214B22481A78C2B9214A22490088128844
:1011D00009680244B1EB620F09DD01221A70642034
:1011E000BDE8084005F01CBA174A117801B908BDDE
:1011F0001370BDE8084008F0D3B9154A16490088B5
:10120000128809680244B1EB620FF0DD00221A7007
:1012100008F0C6F9642005F003FA642005F000FA2E
:10122000642005F0FDF94FF41670BDE808400CF09D
:1012300021BE00BF509EFF1F3C9FFF1F089FFF1F46
:10124000099FFF1F0A9FFF1FAC9CFF1FC09CFF1F31
:10125000A89EFF1FE09CFF1FA49CFF1F38B5114CE8
:10126000232025780CF0B4F80F4A42F82500131F0C
:1012700002F1C400002253F8041F83420A44FAD149
:1012800023780A4907480A4C0133DBB2322B81FB31
:10129000025108BF0023D217C2EB21120370226053
:1012A00038BD00BF8C9CFF1F549DFF1F1F85EB5155
:1012B000A49EFF1F2DE9F04FB84CB94D2068B94FDF
:1012C00083B00FF0C7FCB8490FF018FD0646102098
:1012D0000DF09AF90FF0BEFCB4490FF00FFD314646
:1012E0000FF004FC0FF0D0FE2988206088423B8874
:1012F00043DA9E465B1A7F2B4FF0000247DDD20196
:101300005E1C92FBF6F2AA4EDFF8C882B6F800C067
:10131000C8F80020BCF1190F00F0DF80BCF11A0FF3
:1013200000F01881BCF11E0F00F021810126B146AA
:10133000A04A1288002A00F09D808842C0F20881ED
:101340007045D4BFC1EB0000C1EB0E009A42BABF9A
:1013500002FB00000133504390FBF3F3964A136005
:10136000964B1888C0B9964A1288AAB9954B197835
:1013700001B11A7003B0BDE8F08F9842D4BFC1EB41
:101380000002C1EB03029E465B1A7F2BB7DCC2EB67
:10139000C21292FBF3F2B6E72988D4F800E0DFF836
:1013A0000082DFF8F8A171456CDCDFF818C29CF808
:1013B0000020002A2ED14FF0010B04288CF800B039
:1013C00028D1002E40F095817D4B18880028D1D07F
:1013D000B9F1000FCED023682C883A88A34280F25E
:1013E00066810023141B7E2C774DD5BFC3EB83137E
:1013F000C3EBC3135B00013493FBF4F42B6801349B
:10140000A34203D0C0B2E1B208F056F82C6003B09A
:10141000BDE8F08F012800F0F780022800F0EC8092
:101420000328D1D1694B1B88092BCDD0002ECBD0FE
:1014300023682E883A88B34280F27C810023961B71
:101440007E2EDFF88CA1D5BFC3EB8313C3EBC31390
:101450005B00013693FBF6F6DAF800300136B34252
:1014600003D0F1B24A2008F027F8CAF80060ABE7D1
:1014700091460126BCF11E0F7FF472AF0022DFF807
:1014800058817FE04F4B1A78002A3FF473AF002455
:1014900001281C7000F0A480022840F00F81002E6B
:1014A00000F0A3804A4D2B68002B00F09E800420A2
:1014B000214608F001F8424B2C60188800283FF4C0
:1014C00059AFB9F1000F3FF455AFC0B2002107F09A
:1014D000F3FF3D4B00221A604CE7DFF8FC8098F8E0
:1014E0000020C2B1DFF8D890B9F800A0BAF1000F1F
:1014F00011D0DFF8E89099F800B0934578D05FFA02
:101500008AF07F2107F0D8FF98F80030B6F800C0C5
:1015100089F8003010E0DFF8C49099F800A09245F7
:1015200066D0274B0021187807F0C6FF98F80030E6
:10153000B6F800C089F800301E4B1A88002A97D0F0
:10154000BCF11E0F40F0078101264FF0000919E0A1
:101550000020FBE6DFF8808098F80020002A0BBF0F
:10156000012600264FF000094FF00109E0E6DFF800
:101570006880104B98F800601A88B6FA86F67609EB
:101580004FF0000998F80030002B3FF4E7AE2988AF
:10159000B7F800E02068C1EB0E03CEE6D09CFF1F39
:1015A000569EFF1F529EFF1F9A99193FCDCCCC3EED
:1015B000DE9EFF1F189FFF1F4C9DFF1FDE9CFF1F1D
:1015C000F09EFF1FE59EFF1FB49CFF1F929EFF1F12
:1015D000509DFF1FC49EFF1F909EFF1F929CFF1FE8
:1015E0001EB1624D2B68002B7CD1614B188865E7DA
:1015F00001264FF000099BE6002E3FF4E5AEDFF830
:101600006CA1DAF800202EE0002E3FF4DDAEB7F832
:101610000080F045D4BFC1EB0802C1EB0E02C1EB64
:101620000808B8F17E0FDFF844A1D5BFC2EB8212E3
:10163000C2EBC212520008F1010892FBF8F8DAF886
:10164000002008F10108424506D05FFA88F1012028
:10165000009307F031FF009B1888CAF80080022829
:101660007FF4DEAE42462168B5F8008038884145F7
:1016700059DA0021C8EB0008B8F17E0FD3BFC1EBE7
:101680008111C1EBC11108F10108490091FBF8F883
:1016900008F10108904506D05FFA88F10420009314
:1016A00007F00AFF009B1888CAF80080B8E693424A
:1016B000D4BFC4EB0303C4EB020393E6032827D192
:1016C0002C4B1B88092B90D0002E8ED0274D2B68D9
:1016D000002B8AD04A20214607F0EEFE244B2C60D6
:1016E0001888EBE6214607F0E7FE214B2C601888AE
:1016F000E4E640207F218DE80C0007F0DDFE019B31
:10170000009A188858451CD002287FF489AE76E7E5
:1017100004287FF46AAF002E3FF467AF21464020D3
:1017200007F0CAFE61E78142D4BFC8EB0101C8EBF4
:1017300000019FE79342D4BFC6EB0303C6EB02034D
:101740007DE6B8F80010DAF800E0B7F800808E45C2
:10175000FFF665AF5DE72988B7F800E02068C1EBC8
:101760000E0301264FF00009E7E500BF509DFF1F63
:10177000F09EFF1F929EFF1F08B5114B1B88022B86
:1017800009D0052B07D0032B15D0042B0BD00D4B04
:1017900001221A7008BD7F21412007F08DFE094B00
:1017A00001221A7008BD7F21092007F085FE054B34
:1017B00001221A7008BD4021092007F07DFEE6E7EE
:1017C0004A9DFF1F009DFF1F38B5074B074D1B8823
:1017D000052B044606D02B68834203D0C1B20520F6
:1017E00007F06AFE2C6038BD4A9DFF1FF49EFF1F64
:1017F00038B5124D124C2B88052B12D022684AB9ED
:10180000022B0ED0033B012B13D90E4A0023137079
:10181000236038BD0021052007F04EFE2B88022BE7
:1018200004D10021412007F047FEEEE7052BE9D166
:10183000F7E70021092007F03FFEE6E74A9DFF1F7A
:10184000F49EFF1F009DFF1F464B1B881D2B70B58C
:1018500041D0454D0024454B1B88022B16D0444BEC
:101860001B88022B54D02888424B002C1B780ADBA3
:101870008442A8BF044634B1002B3AD02046BDE8CC
:101880007040FFF7A1BF002B2FD170BD3A4B1B78E2
:10189000002B37D015200BF09BFD384B1860384AD1
:1018A0001288002ADBD0374A186811888142D6DCBA
:1018B000354B2A881B888342A3EB0106A8BF034649
:1018C0005B1AB242BABF02FB03330136534393FBA8
:1018D000F6F31C44C3E72A4B1C888CB12B4B224DDA
:1018E0001C78002CB7D02C88B5E7BDE87040FFF716
:1018F0007FBFFFF741FF2046BDE87040FFF764BFA0
:10190000194DA8E711200CF07FFE1C4B1860C6E7AC
:101910000F200CF079FE1A4B1D4A1B881060002B1B
:10192000A1D01C4AC0F53B63118808338B429ADB77
:10193000194A288812889342A2EB0105A8BF1346D2
:10194000A842A3EB010306DA00FB0333013593FB46
:10195000F5F31C4488E700FB03F292FBF5F31C440B
:1019600082E700BFDE9EFF1FE29EFF1FB29EFF1FA9
:10197000409EFF1F009DFF1FC29EFF1F809CFF1FF8
:101980004A9DFF1FFE9CFF1FDC9EFF1F909EFF1FB6
:10199000989CFF1F489DFF1FC89EFF1F38B5102051
:1019A0000CF032FEC830B0F5FA7FC0F2EE80B0F530
:1019B0007A6F0146A8BF4FF47A6101F51673B3F54B
:1019C0007A6FA8BF4FF47A639BB289B28E4A8F4C6C
:1019D00011802220238007F0C9FE21888C4D8D4C78
:1019E000242007F0C3FE0E200BF0F2FC40F6FF713E
:1019F000C8308842A8BF084620EAE07000F2DC52F6
:101A000083B28A42A8BF0A460220194622802B8050
:101A100007F0ACFE2188042007F0A8FE17200CF088
:101A2000F3FD044616200CF0EFFDA042B8BF20469F
:101A300000F1C801B1F5FA7FC0F2A280B1F57A6F6A
:101A4000A8BF4FF47A6101F54873B3F57A6FA8BF68
:101A50004FF47A639BB289B26F4A704C11800A20AE
:101A6000238007F083FE21880C2007F07FFE0F20E3
:101A70000CF0CAFDC0F53F610431B1F5AF6F7CDBFE
:101A8000B1F5FA6FA8BF4FF4FA6189B2644BC0F5A3
:101A90004360B0F5AF6F19806CDBB0F5FA6FA8BF8B
:101AA0004FF4FA6083B25F4CA420238007F05EFEFF
:101AB000A620218807F05AFE0B200CF0A5F900287B
:101AC00068D011200CF0A0FD00F1C801B1F52F7F06
:101AD0006EDA40F214534FF42F71534A1180534C75
:101AE0000620238007F042FE2188082007F03EFEF2
:101AF00000244FF4AF75E1B24D4809F0A7FC013462
:101B00008542A8BF05460C2CF5D101200CF07CFDC8
:101B1000044600200CF078FD323CA0F13203454928
:101B20006FF4957000FB03F300FB04F081FB0342AC
:101B300081FB0041DB17C017C3EB6223C0EB6120C0
:101B400003F5AF7200F5AF739342A8BF13469D42F1
:101B5000A8BF1D46A5F11401312938DC40F26C7391
:101B600032213548354A018013602A20BDE83840CB
:101B700007F0FCBD4FF4AF6395E74FF4AF6185E725
:101B800040F214534FF4FA7166E740F24C434FF4BD
:101B9000FA711BE715200BF01BFC00F59671B1F5EF
:101BA0002F7F96DB41F25C2399421FDD194694E7B3
:101BB00041F25C239942F9DC1B4A00F5487089B276
:101BC000B0F52F7F118019DA4FF42F7387E740F2B9
:101BD0003A72A5F5B9751A4B02FB05F583FB05238F
:101BE000ED17A5EB631389B23233BAE70E4A00F55D
:101BF000617089B2B0F52F7F1180E5DB8342A8BF09
:101C000003469BB26BE700BF569EFF1F529EFF1F0D
:101C1000449DFF1F0E9FFF1FA89EFF1FC09CFF1F1C
:101C2000489DFF1FC89EFF1FFE9CFF1FDC9EFF1FDD
:101C3000389DFF1F67BBCF46069FFF1F9889FF1F78
:101C4000B5814E1B2DE9F84F0C200BF08DFB0C20BD
:101C50000CF042F8C149DFF88CA314200CF04CF8CA
:101C6000BF49C04809F084F8022103200CF0DAF8DB
:101C7000022104200CF0D6F8022105200CF0D2F845
:101C8000022106200CF0CEF801210A200CF0CAF83F
:101C9000012109200CF0C6F801210D200CF0C2F83A
:101CA000012128200CF0BEF8012114200CF0BAF814
:101CB00002210B200CF0B6F801210C200CF0B2F838
:101CC00000210C200CF09AF8012121200CF0AAF838
:101CD00002211C200CF0A6F801211B200CF0A2F818
:101CE00000211B200CF08AF81C200CF08DF8B0FAB3
:101CF00080F35B091A208AF800300CF029FA1F20C3
:101D000000210CF0EBF904200CF07EF8002800F024
:101D1000EA8005200CF078F8002800F017810023F5
:101D2000914C062023700CF06FF8B0FA80F35B0939
:101D30004FF0000B8D4A137006F096F82378002BB5
:101D400040F0CD80584607F03BFD894B894A1B88FF
:101D500089491488894D8A4840F23A72A3F5AF73D5
:101D600002FB03F381FB0312DB17A3EB6213323395
:101D70002B60844B5A211C7009F0A4FB002800F052
:101D80003781814A81481268DFF85C920023012183
:101D9000FEF78AFB0B200CF037F8011E0CBF012365
:101DA000002389F8003000F0B780794F794D7A4EE2
:101DB000DFF8388200233B602B60336004240F205F
:101DC0000CF022FC336803440E2033600BF000FB60
:101DD0003B6899F8002018443860002A78D0152014
:101DE0000BF0F6FA2B681844286004F0010080F02C
:101DF000010004F005FCB8F80030002B14BF4B20A4
:101E0000DC200CF037F8013CD9D133683968604ADE
:101E10002868624F002BB8BF03330029B8BF0331D5
:101E2000891011605E495F4A098814889B10002858
:101E30003360B8BF03305C4E8210581A19442A60D0
:101E400031603860594D5A485A49161B22442E6059
:101E500002600B60BBF1000F62D1B8F80030002BBC
:101E60004DD0554B012404201C600BF0CDFF18B958
:101E7000524B444A1C701070514B1B881C2B56D07F
:101E8000504C04F1C80523200BF0A2FA44F8040FCB
:101E900001200BF0EFFFAC42F5D19AF800301BB1F6
:101EA000494B1B78002B4CD1002121200BF0A6FFC1
:101EB000464A474B1078187007F08AFA04F098FBEE
:101EC00045F6BF5243494448BDE8F84F0BF038B8D7
:101ED00011200CF099FB2B681844286085E7BDE8B9
:101EE000F84F08F055BE06200BF08EFF00287FF457
:101EF00010AF1D4C034620704FF0010B1AE74FF452
:101F0000FA7004F08DFB04F077FB06F001FB4FF450
:101F1000AF600BF0AFFFA4E711200BF083FF44E7A5
:101F2000FFF73CFDB8F80030002B9AD1E7E72B4BC8
:101F300018880028A4D02A4BC0B2197807F0BCFA40
:101F40009EE7012121200BF059FFB1E703200BF0A0
:101F50005BFFB0FA80F35B09E2E600BF001B374687
:101F600040420F005C91FF1FB29CFF1F489EFF1F65
:101F7000069FFF1FE09EFF1FB5814E1B9889FF1F24
:101F8000389DFF1F149DFF1F2889FF1F709EFF1F94
:101F9000849CFF1F709CFF1FCC9EFF1FD09EFF1FC5
:101FA000A889FF1F2C89FF1F449EFF1FD89CFF1F7D
:101FB000189DFF1F209FFF1FD89EFF1F9C9CFF1F87
:101FC000DE9EFF1F509DFF1F589EFF1F5A9EFF1F42
:101FD0003E9EFF1FA5050000FC9EFF1F1C9DFF1FCE
:101FE000CC9CFF1F429EFF1FC29EFF1F9E9EFF1F95
:101FF00003200BF009FF0028FAD104200BF004FFA6
:102000000028F5D105200BF0FFFE0028F0D10620B6
:102010000BF0FAFE0028EBD10CF016FC2DE9F04F86
:1020200089B005ADA14F2C4608AE611BC9B2A048CE
:1020300009F00CFA3B88834294BF0020012004F889
:10204000010BA642F1D19B489B4A9DF814E09B49A5
:1020500080F800E09DF81600994D10709DF818204A
:102060009DF81C30974E984C0A709DF81A102970F4
:1020700000253370257073B9002940F00F81934F0C
:102080001AB13B78002B40F01F82002800F0F2814B
:102090000222227005E0002A40F0B08005228B4F1A
:1020A00022708B4BDFF888929DF815109DF819006F
:1020B000DFF880A2DFF880B2864DDFF88082864E9E
:1020C0003A709DF81EE019709DF81F209DF81D10B4
:1020D0009DF817C09DF81B7089F80000012000933F
:1020E0008BF800E088F8001032708AF800C02F707A
:1020F0000CF08AFA79497A4AD1F800E0009B7045E1
:10210000CCBF0121002111707CDD764A1288182A8B
:1021100078D875490F880C3A002F78D1734993F815
:1021200000C00B7899F800909AF800109BF80070A6
:1021300095F800B02478A3EB4C03A9EB890A5B1A4D
:102140005344C7EB877AC7EB8A07DFF8A8A11F447F
:1021500098F80030BAF800A007EB4B0796F800B0EB
:102160003B440BFB0A33624F4FF00C0A1AFB043A54
:10217000C7F800A0B9F1000F0BD033784BB15D4B1D
:102180001B88042B0CBF0AF1020A0AF1040AC7F8E3
:1021900000A0594B594CDFF8A8B11B882488DBF804
:1021A00000B0574F574E3F883688033BC4EBC404FA
:1021B0005C4403EB4303DFF88CB10AEB83033B443D
:1021C000DBF800B0504FC6EBC60657F824404F4F1F
:1021D0005E440C3B134457F826601A193244BCF194
:1021E000000F27D02B782BB300295BD1B9FA89F9DE
:1021F000474B4FEA591983F8009023E006222270DA
:10220000324F4EE738490F880022002F86D0012F29
:1022100000F0CF80022F00F0FB80032F00F09480AD
:10222000334F9AF8001093F800C099F80090D7F84F
:1022300000A09FE7364B00241C7011B198F80030C5
:1022400023BB0021334B70451970C8BF324B334953
:10225000C8BFC3F800A00B689A4213D0304B314C72
:1022600018680390039820601B6804932E4C049B0D
:1022700024880A601B1AA34284BF2C4B1A6009B041
:10228000BDE8F08F2748264B0068EDE7BCF1000F52
:10229000D7D1B9F1000FD4D10121D3E704222270A4
:1022A0000A4FFEE61A4B00211970CAE7069FFF1F6E
:1022B000389DFF1F089FFF1F099FFF1F0A9FFF1FD9
:1022C0000B9FFF1F0C9FFF1F4A9EFF1F549EFF1F67
:1022D000399FFF1F3D9FFF1FE49EFF1F9889FF1F2F
:1022E000909EFF1FDE9EFF1F7C9CFF1FAA89FF1F81
:1022F000989EFF1FEC9CFF1FB69EFF1FD49EFF1FE2
:102300008E9CFF1F029DFF1F482901000024010031
:102310001A9FFF1F1B9FFF1F249FFF1FF89CFF1F7B
:1023200028A0FF1FE89CFF1FEE9EFF1F2C9FFF1F92
:102330003B9FFF1F3A9FFF1F3C9FFF1F3E9FFF1FBA
:102340004C9DFF1F149FFF1F664993F800C00B7838
:1023500099F800909AF800109BF8007094F800A08B
:102360002C78A3EB4C03A9EB890B5B1A5B444FF071
:10237000050B1BFB0733009398F800300193009B7B
:10238000DFF86CB1C7EBC707BA440533019FBBF850
:1023900000B003EB440334783B4404FB0B33524C52
:1023A000524F54F82A400C3303EB040AC7F800A03C
:1023B000E0E64C4993F800C00B7899F800909AF841
:1023C00000109BF8007095F800A02478A3EB4C0354
:1023D000A9EB890B5B1A5B44C7EB877BC7EB8B07C9
:1023E000DFF80CB13B4498F80070BBF800B003EB89
:1023F0004A0A3378BA44C4F1060403FB0BA3E4B2DF
:102400004FF00C0A394F1AFB043AC7F800A0B1E6A6
:10241000344993F800C00B7801932B780093019B0B
:102420009AF8001099F800909BF800A02478A3EB8C
:102430004C03A9EB890B5B1A5B44A3F1020B2C4BF9
:10244000CAEBCA0A54441B88DFF8C8A00193BDF840
:1024500000305AF824A098F8004017FB03BB3778E7
:10246000019B5C4407FB03431833204F9A44C7F891
:1024700000A07FE6BEF1000F29D13A78012A2FD9BA
:102480001C4B22701B882BB31B4B1B88013B9BB240
:10249000062B1FD8194B1B78E3B1194B1B68012B76
:1024A0007FF4FFAD1749184B0968184D83FB0130C5
:1024B000CB17C3EB600303EB4303A1EB83032B8038
:1024C000134B03211970ECE503222270E9E5012288
:1024D0002270E6E50A4B1B68012B7FF4E2ADEFE7C3
:1024E0007246DEE5AA89FF1FCC2C0100989EFF1FD3
:1024F000EC9CFF1FC09EFF1F5C9EFF1F469DFF1FA1
:10250000D89EFF1F2C9FFF1FABAAAA2A9C9EFF1FCD
:102510008C89FF1F342B01002DE9F04F3A4B1B78BB
:102520008BB0002B6BD10E200AF052FF0EF092FB05
:1025300001463648364E374DFDF7FCFF3348FDF770
:10254000CFFF0EF0A1FD80F30C003060FFF766FDB9
:102550002C68012C7AD0022C00F01283032C00F09E
:1025600038842D4E2D4C33682D4A2E4E0993099BED
:10257000316812882360591A013A9142274F00F2BC
:10258000FA82294E32689A1A0D2A00F2E382274E07
:1025900032689A1A132A00F2D882254E32689A1AA3
:1025A000252A1AD9234B1B88002B40F06481224B2B
:1025B0001B78002B40F05F81FEF750FE1F4B1B88FD
:1025C0001B3B9BB2022B04D81D4B1B78002B40F009
:1025D000558104F037F8236833601A4D2A689B1A36
:1025E000502B00F21982184B1B88012B00F031820E
:1025F00006F0E6FE06F0CAFD0BB0BDE8F08F08F06D
:102600004FF90BB0BDE8F08FB29CFF1F709EFF1F0B
:10261000AC9EFF1FD89EFF1F28A0FF1F6C9EFF1FB0
:102620009489FF1F409DFF1F2C9DFF1F0C9DFF1FC6
:10263000109DFF1F509EFF1FAC9CFF1FDE9EFF1FC3
:10264000909EFF1F609EFF1FB09EFF1FDFF8389314
:10265000A44AB9F800001378834204D0C3B21846E4
:10266000137006F09FFEDFF81C839F4AB8F8003015
:102670001178994204D09D4F3978002940F04E8757
:102680009B4A336812889B4E9A42C0F201819A4A53
:102690001278002A40F0FC80DFF8F0A2BAF800308F
:1026A00023B9964B1B88002B00F06585944A954B07
:1026B00011881B88944A0B4412685B109342934A1A
:1026C000126880F2078500219342B4BF01230B46B4
:1026D00004910093ACBF4FF0010B8B4605910E2087
:1026E0000AF076FE8A4B8B4A1B6817680393013306
:1026F000A7F25232002B8446029240F32087802BAF
:10270000A8BF8023844A854912780191002A00F0ED
:10271000C9800978914200F0C580B8F80010DFF850
:1027200064E2994201F00A817049AEF800307C4BB6
:102730004FF0010E81F800E01978DFF854E2019BB8
:102740008EF800101A70009B002B00F02381BAF85D
:102750000030002B00F01E81724B1B685A1C002AAF
:1027600040F3F186802A00F3ED866F4C6F49704884
:102770002488098800682144B0EB610FC1F25083BE
:10278000A3F148020F2A02D8473BA9F800300E20D7
:102790000AF01EFE6FF454731F44874202DC654B3F
:1027A00000221A7000200BF02FFF634A634B116860
:1027B000634C1B888842D4BF002201222270002B68
:1027C00000F07E845F4B1C78944243D0884241DD08
:1027D0005D490C78002C00F07A875C4991F800C0C4
:1027E000BCF1000F40F07187594F0097594F5A487C
:1027F0000297574F007887F800C0564F4FF0010EF0
:1028000087F800C081F800E0002841F0E7805349D4
:102810000978002901F03B80514903910C46097861
:10282000002941F031804F484A4F0078397001212A
:102830000297217070B14648444900904A480327E6
:102840000770002008700099029F08700399012406
:102850003C7008701A70454B1B88A3F11B02012ABB
:1028600040F222861D2B7FF47DAE3E4A404B12780B
:102870001A70404C77E6FEF793FC9DE63E4B1B78C2
:10288000002B3FF4A6AE2B68012B7FF4A2AEA2E68C
:1028900031683A4A069106983949106002220B6065
:1028A0002A60F9E61E49DFF8E8E0097800293FF4DC
:1028B00046AF9EF8000081423FF441AF03984B2899
:1028C00041F303801833802BB8F80000A8BF8023A1
:1028D00098423FF434AF2B4803800448012303702F
:1028E0002DE700BF3E9EFF1F149DFF1F9C9CFF1FF6
:1028F000449DFF1F28A0FF1FAC9CFF1F329DFF1FA0
:10290000C09CFF1FA89EFF1FE09CFF1FA49CFF1FF1
:10291000249FFF1F849CFF1F1A9FFF1FF49CFF1F13
:102920001B9FFF1F989EFF1F569EFF1F529EFF1F5B
:10293000D09CFF1F499EFF1F9889FF1F5C9EFF1FB1
:10294000C69CFF1F749CFF1F3C9FFF1FA09EFF1F84
:10295000F29EFF1F469DFF1F3D9FFF1F399FFF1FD8
:10296000759CFF1F909EFF1F8C89FF1FDE9EFF1F1F
:10297000929CFF1F6C9EFF1FE49EFF1F049DFF1F84
:10298000689EFF1FE09EFF1F5A9EFF1FFC9CFF1FBB
:10299000F59CFF1F029B9C45BFF6F9AEA54B1B881B
:1029A000002B3FF4F4AEBBF1000F7FF4D5AEA24B89
:1029B0001B881BB1059B002B7FF4CEAE049B002B24
:1029C0003FF4E5AE9D4B1A78002A7FF4E0AEDFF8C5
:1029D000109399F8004001221A70002C40F098835F
:1029E000974B1B78002B02F0BB80964B1B78002B7B
:1029F00002F09083944B1B78002B7FF4C8AE934B6E
:102A00001B78002B3FF4C3AEB8F8003090490A3B66
:102A1000A8F800300A70BAE605F06EFA8D4B1B7804
:102A200073B98D4B1B785BB98C4B1B7843B98C4BBE
:102A30001B782BB98B4B1B7813B903F0D9FD01E040
:102A400003F0E2FD23682B60874B1B88012B7FF48A
:102A5000CFAD864B864A1B6886481178183B2A22E0
:102A600002FB03F303608448A9B10268934200F3B8
:102A7000C58310DA814D2978002940F09C87804970
:102A80000D68D5F17F0548BF0335AD100135521BE8
:102A90009342B8BF13467B4A1268A92101FB02F298
:102AA000002ABCBF02F57F523F3277499213543A55
:102AB00009881344036051B3744A246852F8211002
:102AC000B4FBF1F2782901FB124200F35883C2EB08
:102AD0000212D20092FBF1F26D4C6E4954F82220A2
:102AE00009686D4CA2F2FF7201FB02F202F57D3221
:102AF00002F5607202EB4201C2EBC10284FB0241AB
:102B00001144D217C2EBA1420B3A1344036063494C
:102B1000634A0C88118804F65C72B2F57C6FA1F1EF
:102B20006400BABF04F65D725E495F4903FB02F2BE
:102B300081FB02311144D317C3EBE123C11881F3A8
:102B40000C0128200AF0CAFF52E5FEF77DFE23683B
:102B5000336022E5FDF714FFFEF7ACFB534B1B88F7
:102B6000032B00F01085524B1B88032B00F00785C8
:102B7000236833600BE5FDF74FFE3B68336000E5EB
:102B80004C4A34681288A24204DB364B1B78002B77
:102B900000F06083484E494833680793484B0799D3
:102BA00000681B88091A994200F2C180002B00F0CE
:102BB000BE80444B198800293FF4D4AC424B4348B3
:102BC0001B680088A342B8BF23469A4241F3218183
:102BD0003F4B1A60DFF80C8188F80010234FFDF797
:102BE0001BFE38687F2840F362853A4B7F3883FBB1
:102BF0000032C317C3EB620303EB4303A0EB830074
:102C00007330354B01931B883860002B40F07D8674
:102C1000124B00931B78002B00F0C7832F4C2378B6
:102C2000002B00F0C283DFF8C090DFF8A8A04FF0BF
:102C3000000B68E0329DFF1F649EFF1F499EFF1F2F
:102C4000399FFF1F3A9FFF1F3B9FFF1F3C9FFF1FA6
:102C50009C9CFF1F469DFF1FA09EFF1FF29EFF1F13
:102C6000759CFF1FAC9CFF1FB09EFF1F2C9FFF1F7A
:102C7000009DFF1F249DFF1F349DFF1FF89EFF1F17
:102C8000F49EFF1F9089FF1F909CFF1F00290100E9
:102C9000FC210100C49EFF1F4D261281309FFF1FA3
:102CA000049FFF1F81DFFF8183200882B29EFF1FE8
:102CB000409EFF1F449DFF1F28A0FF1F049DFF1F74
:102CC000309DFF1F949CFF1F689EFF1F0E9FFF1FDC
:102CD000789CFF1FABAAAA2ADC9CFF1F5489FF1F08
:102CE0004A9EFF1F209DFF1F2C89FF1F03F17300C9
:102CF000C0B298F8001006F00FFC23780BF1010B1E
:102D00005B4540F352833B6859F8040F1844A0F127
:102D10007F038AFB0321DA17C2EB610202EB420256
:102D20007F28A3EB8203E1DCFDF796FCE0E7554B3F
:102D300055491B6808885549A342B8BF23469A42A3
:102D400000F36F82524C09888342A8BF0346236078
:102D500000297FF43FAF9A42C8BF0B4640F3688218
:102D6000801AB0F5804FAABF9B03C3EB83330130B9
:102D700093FBF0F0FDF736FDC0F3C6100DF06AFFCF
:102D8000444B044618880DF065FF4349074620462A
:102D90000DF0B4FF014638460DF0B0FF21460DF0AE
:102DA000A5FE4FF07E5104460EF046F9002841F092
:102DB00025803A4920460EF05DF9002840F008864B
:102DC00020460EF087F9C0B2DFF8F08088F80000E6
:102DD00004E7334B34681988A14273DD314B1B780B
:102DE000002B6FD1DFF8D89099F800007F2840F3CE
:102DF000DE85A3F155337F3803F1004383FB0032B6
:102E0000C317C3EB620303EB4303A0EB83007330F0
:102E1000254B01931B88C0B289F80000002B40F0BD
:102E2000D887224B00931B78002B00F07D84204C28
:102E30002378002B00F078841E4FDFF87C804FF061
:102E4000000A0AE003F17300C0B206F089FB2378A0
:102E50000AF1010A534540F3678457F8043F99F893
:102E600000001844A0F17F0388FB0321DA17C2EBAE
:102E7000610202EB42027F28A3EB8203E2DCFDF752
:102E8000EBFBE1E7689EFF1F0E9FFF1F949CFF1F57
:102E9000789CFF1F1C9FFF1FCDCCCC3D0000FE4245
:102EA000449DFF1FAC9CFF1FDC9CFF1FF29EFF1F79
:102EB0005489FF1F2C89FF1FABAAAA2A209DFF1F40
:102EC000949EFF1FB24F38687F2840F3B881B14B02
:102ED0007F3883FB0032C317C3EB620303EB43036A
:102EE000A0EB83007330DFF8049399F800A08245CB
:102EF00000F00182A84B1B88002B43D1A74AA848A9
:102F000012680088914205DC8242D4BFC1EB020303
:102F1000C1EB0003411AB1F5804FA6BF9B030131FD
:102F2000C3EB833393FBF1F0FDF75CFCC0F3C610F9
:102F30000DF090FE9B4B044618880DF08BFE9A49CD
:102F4000804620460DF0DAFE014640460DF0D6FEE2
:102F500021460DF0CBFD4FF07E5104460EF06CF88B
:102F6000002840F0A686914920460EF083F80028FC
:102F700040F02B8520460EF0ADF8C0B2DFF870822D
:102F800088F80000BAF17F0F40F38D838148AAF1E1
:102F90007F0A80FB0A304FEAEA73C3EB600000EB64
:102FA0004000AAEB80007330814B00931B78C0B2C5
:102FB00089F80000002B40F0ED827E4B03931B78D4
:102FC000002B40F0D7847C4B02931B78002B40F001
:102FD00018877A4B0193029B1B78FBB1784B1B88B7
:102FE000012B00F0E485022B00F07087032B01F029
:102FF0008A81042B01F01183052B01F02D84062B0F
:1030000001F08285072B01F03587082B02F03B8009
:10301000092B02F07F810A2B02F09482009B1B781F
:10302000002B00F04484019B644C1988002900F0B7
:103030009A8438687F2840F3AA82564B7F3883FBF6
:103040000032C317C3EB620303EB4303A0EB83001F
:1030500073303860002940F04F84009B1B78002BB0
:1030600000F05581574C2378002B00F05081DFF899
:1030700084A1DFF87C814FF0000B0CE003F17300BA
:10308000C0B298F8001006F047FA23780BF1010B54
:103090005B4540F33C813B685AF8040F3D4A1844B5
:1030A000A0F17F0382FB0321DA17C2EB610202EB7E
:1030B00042027F28A3EB8203E0DCFDF7CDFADFE7D5
:1030C0003D4C41483A493B4A237003700B701370E2
:1030D000FFF7C1BB93424FF0000B80F2B380012396
:1030E000CDF800B0CDF814B00493FFF7F8BA374B21
:1030F0001B78002B7FF44BAB039B354A243B83F3B7
:103100004703D9B25B20136006F0D6F999F8004066
:10311000032C30D1DFF8E08098F80030002B42F02B
:1031200041812C4F3B78002B42F02F81274C237894
:10313000002B42F01D81284B1B78002B42F00B81A5
:10314000264A1380264B1B78002B42F0D181124B6C
:103150007F221A8098F800306BB93B785BB92378EE
:103160004BB9204A7F210720138006F0A5F97F2163
:103170000B2006F0A1F91C4B1F68FFF708BBC2EB40
:103180000214013102EBC40292FBF1F2A4E400BF8D
:103190002C9FFF1FABAAAA2A949CFF1F789CFF1F9D
:1031A0000E9FFF1F1C9FFF1FCDCCCC3D0000FE4299
:1031B000F29EFF1F759CFF1F469DFF1FDC9CFF1F9B
:1031C0005C9EFF1F5489FF1FA09EFF1F3C9FFF1F97
:1031D000BC9CFF1F3B9FFF1F3A9FFF1F3A9DFF1F95
:1031E0003D9FFF1F929EFF1F849CFF1F949EFF1F09
:1031F000209DFF1F2C89FF1F399FFF1FB3490D78AA
:10320000002D40F03783B2490968D1F17F0148BFF2
:10321000033102EBA1014A1C93420260A8BF13468E
:1032200039E4AC4B09881A6000297FF4D3AC13460B
:103230009842D4BFC2EB0003C2EB030390E5FDF755
:103240000BFA50E60123CDF810B0CDF800B005938D
:10325000FFF745BA01232B60FFF783B9029B1B7868
:10326000FBB19D4B1B88012B00F01A84022B00F050
:10327000AB86032B00F0CE87042B01F0F381052BE6
:1032800001F06E82062B01F03784072B01F03F8599
:10329000082B01F0AF86092B02F005800A2B02F003
:1032A0007681019B1B88002B00F02083009B1B78FC
:1032B0003BB9039B1B7823B9029B1B78002B00F0C2
:1032C0008987864B1B78002B00F0FE8084490B78A1
:1032D000082B00F2F98083483A680068824C013379
:1032E000DBB25F1E101A44F827000B707F4B346866
:1032F000198889F80020A1427D4EBFF633A93268B3
:103300007C4B0892089A7C4C1A60FFF72CB9039BFF
:103310001B78002BA2D03B68A3F10C007F2840F360
:10332000408376488B3B80FB0320DA17C2EB6000BA
:1033300000EB4000A3EB800303F17300DFF8D081C2
:10334000C0B298F8001006F0E7F8009B1B78002B3D
:1033500084D0634C2378002B80D0DFF8B8A14FF0E5
:10336000000B0CE003F17300C0B298F8001006F0F7
:10337000D3F823780BF1010B5B457FF76FAF3B6808
:103380005AF8040F5D4A1844A0F18B0382FB032115
:10339000DA17C2EB61020C3802EB42027F28A3EB82
:1033A0008203DFDCFDF758F9DEE74C4B1B78002B7E
:1033B00040F0B2823B68524A1278002A45D0A3F10D
:1033C0000C007F2840F3F0824C4A8B3B82FB0321A8
:1033D000DA17C2EB610202EB4202A3EB820303F1B4
:1033E0007300C0B298F8001006F096F8009B1B78A6
:1033F00053B33B4C23783BB3DFF81891DFF8FCA0C4
:103400004FF0000B0BE003F17300C0B298F800100E
:1034100006F082F823780BF1010B5B4514DD3B6865
:1034200059F8040F1844A0F18B038AFB0321DA1723
:10343000C2EB61020C3802EB42027F28A3EB82034D
:10344000E1DCFDF709F9E0E73B682E4A1278FAB1B2
:10345000214A1288012A00F02F84022A00F03586C2
:10346000032A00F0CA87042A01F02081052A01F00E
:103470005582062A01F06D83072A01F0A383082AEA
:1034800001F05B86092A01F0D1860A2A02F0BD808C
:10349000019A1288002A00F04A821B4A164C1370C7
:1034A00003232B60FFF75FB8DFF86C8098F80030DB
:1034B000002B40F00081154F3B78002B40F0B38487
:1034C0000D4C3B70FFF74FB83A680FE7F89EFF1FAF
:1034D000F49EFF1F789CFF1F5C9EFF1FA09EFF1F96
:1034E0005489FF1FA09CFF1F3089FF1F449DFF1FB1
:1034F00028A0FF1FD49FFF1F6C9EFF1FABAAAA2A04
:10350000759CFF1F469DFF1F949EFF1F929CFF1FEF
:10351000209DFF1F2C89FF1F909EFF1FDBB21846C6
:10352000137006F087F8A54BA5491A46A54B184617
:1035300000230B703B7013700370FFF7A1B80123D9
:10354000FFF7E0B88024A049A04BA14A09881B8856
:1035500012680B44B2EB630FBFF619A99D4B1B78A1
:10356000002B40F0F181B8F800309B4AA3423FF4B1
:103570000EA99A4B148001221A70FFF708B9FDF7C3
:10358000D3F8FFF7F5BAFDF779F8FFF7ECBAFDF7D6
:1035900063F85EE5924B01931B8863BB894B0393F1
:1035A000904B0293904C23787BB3DFF85882DFF87E
:1035B0003CA24FF0000B09E003F17300C0B205F02C
:1035C000CFFF23780BF1010B5B451EDD58F8043F5C
:1035D00099F800001844A0F17F038AFB0321DA1751
:1035E000C2EB610202EB42027F28A3EB8203E3DC21
:1035F000FDF732F8E2E7734B03937A4B029305F041
:10360000AFFF009B1B78002BCCD1039B1B78002BBA
:103610003FF4E1AC99F80030A3F10C007F2840F3AF
:10362000BD8172488B3B80FB0320DA17C2EB600040
:1036300000EB4000A3EB800303F17300C0B205F080
:103640008FFF009B1B78002B00F09D81664C237838
:10365000002B01F06282DFF8AC81DFF890A14FF01F
:10366000000B0AE003F17300C0B205F079FF237884
:103670000BF1010B5B457FF7AEAC58F8043F99F8AE
:1036800000001844A0F18B038AFB0321DA17C2EB78
:1036900061020C3802EB42027F28A3EB8203E1DCDB
:1036A000FCF7DAFFE0E75046FCF7D6FF7CE4FCF7D6
:1036B000D3FFFFF7A6BA4E4A1278002A40F09B814A
:1036C0004C4F4D4C3B70FEF74EBF002008704B49ED
:1036D000087840B1394900910978002900F07B81D0
:1036E000009F002139704649097800297FF494A889
:1036F000002C40F0CC80002840F0C980354C2F4F82
:1037000094F800E02F4C0394364C02942D4C2C4935
:103710002070344C0097087038702070BEF1000F94
:103720007FF48CA8FFF796B8264B1B78002B6BD044
:1037300099F80030A3F10C007F2840F399832B4ABD
:103740008B3B82FB0321DA17C2EB610202EB4202E0
:10375000A3EB820303F17300C0B205F001FF009BED
:103760001B78002B50D0204C2378002B4CD0254FB9
:10377000DFF878804FF0000A09E003F17300C0B26F
:1037800005F0EEFE23780AF1010A53453CDD57F8B7
:10379000043F99F800001844A0F18B0388FB032133
:1037A000DA17C2EB61020C3802EB42027F28A3EB6E
:1037B0008203E2DCFCF750FFE1E700BFF29EFF1F4F
:1037C000A09EFF1F759CFF1F569EFF1F529EFF1F4E
:1037D000D09CFF1F909EFF1FE09EFF1F9C9CFF1F21
:1037E000DC9CFF1F469DFF1F5489FF1FABAAAA2A1E
:1037F000E49EFF1F929CFF1F6C9EFF1F3D9FFF1FBB
:10380000399FFF1F2C89FF1F914B1B78FBB1914BF8
:103810001B88012B00F07A86022B00F07487032BA3
:1038200001F0ED80042B01F08381052B01F0C183B1
:10383000062B01F0E584072B01F0C085082B01F071
:103840001887092B01F091870A2B01F06F87019BE4
:103850001B88002B00F0B8827F4B1B78002B40F0B8
:10386000AE827E4B7E4A19883468002001231060A6
:103870002B6040E50135EDB2022D86BF00230B70B1
:103880000D701346FFF707B90398002101707549C1
:10389000097800293EF4DEAF6D49029109780029CC
:1038A00000F05787029800210170FEF7D3BF039BF9
:1038B0001B78002B7FF4B7AB029B1B78002B7FF4A7
:1038C000B2AB019B1988FFF7B4BB243B002BB8F8BF
:1038D000000040F3798498423EF431AF9BB26248D5
:1038E000A8F8003001230370FEF729BF5F4B38783A
:1038F000197805F011FED9E4DFF87081C0B298F8AC
:10390000001005F009FEFFF7A8BBC0B298F8001040
:1039100005F002FEFFF77CB97F21402005F0CCFDC9
:103920005349544A3B680B600021117043E5D8B2FB
:1039300098F8001005F0F0FD3B68AEE54E4BDFF85F
:1039400058E11978FEF7FBBE4B2C40F34682183441
:10395000802CB8F80030494AA8BF8024A3427FF4E5
:1039600008AEFEF714BF99F8000005F0F9FD2188B4
:10397000FFF75FBB424B01931B88002B41F036875A
:10398000334B029346E6029B1B78002B7FF426AB59
:10399000039B1B78002B7FF446AB92E7FCF75CFEA1
:1039A0004CE6FCF759FEC9E4FCF756FE19E5FCF7B6
:1039B00053FEFFF72DBA4B1CDBB2022B40F25B82A9
:1039C00000232B701346FFF766B87F20FFF7D6BAA7
:1039D0007F20FFF7F9B91E4F1F4902974FF0000CE7
:1039E00081F800C0009F02994FF0010E87F800E0B7
:1039F00081F800C077E6234F387802F073FE224B3F
:103A00001B78002B00F045823B887E2B00F2418220
:103A10001E4CDFF888902268D9F80010521A0F2A3D
:103A200040F22E821A4A0133108899B23980002858
:103A300000F04882C9B2C0B205F03EFD154F2268C1
:103A400098F80030C9F800203B70FEF78CBD00BF2D
:103A5000469DFF1F5C9EFF1FA09EFF1F449DFF1FF2
:103A6000789CFF1F909EFF1F9C9CFF1F209DFF1FA7
:103A7000A09CFF1F5489FF1F1B9FFF1FE09EFF1F7D
:103A8000DC9CFF1FCC9CFF1F3E9FFF1F6C9EFF1FF7
:103A90001C9DFF1F929CFF1FF59CFF1F289FFF1F6F
:103AA000DFF8B4A33868BAF80030E44AE44CC31A2B
:103AB00082FB031ED917C1EB6E0101EB4101A3EBA1
:103AC000810303EB430354F8233018447F2840F369
:103AD00090847F3882FB0032C317C3EB620303EB91
:103AE0004303A0EB83007330DFF87083DFF870B31B
:103AF00098F80010C0B205F00FFDBBF80030022BA3
:103B00007FF6CFAB3968BAF80030CC4ACB1A82FBCB
:103B1000030ED817C0EB6E0000EB4000A3EB800350
:103B200003EB430304EB8303586808447F2840F306
:103B300058877F3882FB0032C317C3EB620202EB67
:103B40004202A0EB82007330C0B298F8001005F07A
:103B5000E3FCBBF80030032B7FF6A3AB3968BAF85F
:103B60000030B64ACB1A82FB030ED817C0EB6E00AA
:103B700000EB4000A3EB800303EB430304EB83045F
:103B8000A06808447F2840F381817F3882FB00329F
:103B9000C317C3EB620202EB4202A0EB8200733058
:103BA00098F80010C0B205F0B7FCFFF77ABBDFF859
:103BB000A8A299F80000BAF80030A04AA04CC31A95
:103BC00082FB031ED917C1EB6E0101EB4101A3EB90
:103BD000810303EB430354F8233018447F2840F358
:103BE00083847F3882FB0032C317C3EB620303EB8D
:103BF0004303A0EB83007330DFF864B2C0B205F07A
:103C0000AFFCBBF80030022B7FF608AA99F8001031
:103C1000BAF80030894ACB1A82FB030ED817C0EBE2
:103C20006E0000EB4000A3EB800303EB430304EBC7
:103C30008303586808447F2840F3D7867F3882FB87
:103C40000032C317C3EB620202EB4202A0EB820018
:103C50007330C0B205F084FCBBF80030032B7FF654
:103C6000DDA999F80010BAF80030744ACB1A82FB2B
:103C7000030ED817C0EB6E0000EB4000A3EB8003EF
:103C800003EB430304EB8304A06808447F2840F35C
:103C9000E9807F3882FB0032C317C3EB620202EB7C
:103CA0004202A0EB82007330C0B205F059FCFFF76E
:103CB000B5B90120FFF762B9DFF89CA15F49BAF8F6
:103CC00000205F4C9A1A81FB020ED017C0EB6E00E9
:103CD00000EB4000A2EB800202EB420254F822000B
:103CE00018447F2840F30484A0F17F0381FB032163
:103CF000DA17C2EB610000EB4000A3EB80007330E9
:103D0000DFF85CB198F80010C0B205F005FCBBF814
:103D10000030022B50D93968BAF80030474ACB1A24
:103D200082FB030ED817C0EB6E0000EB4000A3EB44
:103D3000800303EB430304EB8303586808447F28A4
:103D400040F3C0867F3882FB0032C317C3EB6202A8
:103D500002EB4202A0EB82007330C0B298F8001070
:103D600005F0DAFBBBF80030032B25D93868BAF828
:103D70000030324AC31A82FB031ED917C1EB6E0111
:103D800001EB4101A3EB810303EB430304EB830449
:103D9000A36818447F2868DD7F3882FB0032C31790
:103DA000C3EB620202EB4202A0EB82007330C0B2AE
:103DB00098F8001005F0B0FB3B68FFF769BB0021E5
:103DC000402005F079FB4CE599F8000005F0C8FBB0
:103DD00042E505F0C5FBFFF724B8243C002CB8F8F9
:103DE000003040F30686A3423EF4D1ACA4B2154B9A
:103DF000A8F8004001221A70FEF7C9BC0120FEF7A6
:103E0000E3BF114B01931B88002B3FF4E4A8FFF79D
:103E1000F6BB0E4A8342A8BF03461360FEF7DABE24
:103E20001446FFF79BBB0A4B0A4C19886A2005F021
:103E30009DFC98F800303B70FEF795BBABAAAA2A10
:103E4000042801009C9CFF1FDC9CFF1F789CFF1F27
:103E5000CC9CFF1F6C9EFF1F9C9EFF1F209DFF1F81
:103E6000B09CFF1FFCF7F8FB1EE7FCF7F5FB9EE795
:103E7000FCF7F2FB70E42B701346FEF70CBEDA4C35
:103E8000DA4F98F800303B70FEF76DBBFCF7E4FBAF
:103E900086E6D74B1B78002BF1D03B88D54F002B03
:103EA000EDD0D14CDFF85C932268D9F80010521A9B
:103EB0000F2AE5D9D04A013B108899B239800028F1
:103EC0007FF4B8ADC8B205F097FBB7E5DFF838A3CB
:103ED00099F80000BAF80030C84AC94CC31A82FBEE
:103EE000031ED917C1EB6E0101EB4101A3EB810366
:103EF00003EB430354F8233018447F2840F3FA833C
:103F00007F3882FB0032C317C3EB620303EB43032A
:103F1000A0EB83007330DFF8F4B2C0B205F020FBF1
:103F2000BBF80030022B7FF679A899F80010BAF898
:103F30000030B24ACB1A82FB030ED817C0EB6E00DA
:103F400000EB4000A3EB800303EB430304EB83038C
:103F5000586808447F2840F3E7857F3882FB0032A9
:103F6000C317C3EB620303EB4303A0EB830073307F
:103F7000C0B205F0F5FABBF80030032B7FF64EA86F
:103F800099F80010BAF800309C4ACB1A82FB030E55
:103F9000D817C0EB6E0000EB4000A3EB800303EBEF
:103FA000430304EB8304A06808447F287FF75AAFDB
:103FB0007F3882FB0032C317C3EB620303EB43037A
:103FC000A0EB830073306FE6DFF83CA23868BAF8E4
:103FD00000308A4A8A4CC31A82FB031ED917C1EBF0
:103FE0006E0101EB4101A3EB810303EB430354F8A2
:103FF000233018447F2840F380837F3882FB0032CF
:10400000C317C3EB620303EB4303A0EB83007330DE
:10401000DFF8FC81DFF8F4B198F80010C0B205F0C9
:104020007BFABBF80030022B7FF63BA93968BAF85F
:104030000030724ACB1A82FB030ED817C0EB6E0019
:1040400000EB4000A3EB800303EB430304EB83038B
:10405000586808447F2840F374857F3882FB00321B
:10406000C317C3EB620303EB4303A0EB830073307E
:10407000C0B298F8001005F04FFABBF80030032BDF
:104080007FF60FA93868BAF800305C4AC31A82FB81
:10409000031ED917C1EB6E0101EB4101A3EB8103B4
:1040A00003EB430304EB8304A36818447F287FF7E2
:1040B000EDAE7F3882FB0032C317C3EB620303EB24
:1040C0004303A0EB830073306AE5DFF83CA14B4962
:1040D000BAF800204A4C9A1A81FB020ED017C0EBA6
:1040E0006E0000EB4000A2EB800202EB420254F8AB
:1040F000220018447F2840F30383A0F17F0381FB53
:104100000321DA17C2EB610000EB4000A3EB800053
:104110007330DFF8F8B098F80010C0B205F0FCF981
:10412000BBF80030022B7FF647AE3968BAF8003092
:10413000324ACB1A82FB030ED817C0EB6E0000EB9D
:104140004000A3EB800303EB430304EB83035868B5
:1041500008447F2840F3F9847F3882FB0032C3177C
:10416000C3EB620303EB4303A0EB83007330C0B2E5
:1041700098F8001005F0D0F9BBF80030032B7FF65B
:104180001BAE3868BAF800301C4AC31A82FB031E03
:10419000D917C1EB6E0101EB4101A3EB810303EBE6
:1041A000430304EB8304A36818447F287FF75DAEC4
:1041B0007F3882FB0032C317C3EB620303EB430378
:1041C000A0EB83007330F2E501283EF4B8AA012386
:1041D000FFF785BB4FF47A43013BFDD199F800000E
:1041E00005F0BEF9FFF76DB86C9EFF1F929CFF1F94
:1041F0003D9FFF1FCC9CFF1F1C9DFF1FABAAAA2A3F
:10420000F0290100289FFF1F9C9EFF1FB09CFF1FED
:10421000209DFF1FDFF8E8A23868BAF80030B64AE0
:10422000B64CC31A82FB031ED917C1EB6E0101EB1A
:104230004101A3EB810303EB430354F823301844FB
:104240007F2840F3DB817F3882FB0032C317C3EB4A
:10425000620202EB4202A0EB82007330DFF8A4821C
:10426000DFF8A4B298F80010C0B205F055F9BBF819
:104270000030022B7FF615A83868BAF800309E4A45
:10428000C31A82FB0321DA17C2EB610202EB42027E
:10429000A3EB820303EB430304EB83035B68184443
:1042A0007F2840F31C847F380C2290FBF2F302FB42
:1042B00013007330C0B298F8001005F02DF9BBF868
:1042C0000030032B7EF6EDAF3868BAF800308A4A2A
:1042D000C31A82FB0321DA17C2EB610202EB42022E
:1042E000A3EB820303EB430304EB8304A3681844AA
:1042F0007F287FF7CBAD7F380C2290FBF2F302FBD7
:10430000130073304CE4DFF8F8A199F80000BAF814
:104310000030794A794CC31A82FB031ED917C1EBCE
:104320006E0101EB4101A3EB810303EB430354F85E
:10433000233018447F2840F364817F3882FB0032A9
:10434000C317C3EB620202EB4202A0EB82007330A0
:10435000DFF8B4B1C0B205F003F9BBF80030022BAE
:104360007EF65CAE99F80000BAF80030624AC31AD3
:1043700082FB0321DA17C2EB610202EB4202A3EBDC
:10438000820303EB430304EB83035B6818447F2839
:1043900040F39C837F380C2290FBF2F302FB130066
:1043A0007330C0B205F0DCF8BBF80030032B7EF6AA
:1043B00035AE99F80000BAF800304F4AC31A82FBB4
:1043C0000321DA17C2EB610202EB4202A3EB820384
:1043D00003EB430304EB8304A36818447F287FF7AF
:1043E00041AD7F380C2290FBF2F302FB13007330D7
:1043F0005AE4FCF731F9FFF777BBDFF804A13E4937
:10440000BAF800203D4C9A1A81FB020ED017C0EB7F
:104410006E0000EB4000A2EB800202EB420254F877
:10442000220018447F2840F3EF80A0F17F0381FB36
:104430000321DA17C2EB610101EB4101A3EB81001B
:104440007330DFF8C4B098F80010C0B205F064F81B
:10445000BBF80030022B7FF6AFAC3868BAF80030FA
:10446000254AC31A82FB0321DA17C2EB610202EB71
:104470004202A3EB820303EB430304EB83035B6879
:1044800018447F2840F332837F380C2290FBF2F3EC
:1044900002FB13007330C0B298F8001005F03CF82E
:1044A000BBF80030032B7FF687AC3868BAF80030D1
:1044B000114AC31A82FB0321DA17C2EB610202EB35
:1044C0004202A3EB820303EB430304EB8304A368E0
:1044D00018447F287FF7C9AC7F380C2290FBF2F399
:1044E00002FB1300733062E4FCF7B6F8FFF784BBFD
:1044F000FCF7B2F804E400BFABAAAA2A802A0100A4
:104500009C9EFF1F209DFF1FB09CFF1FDFF83CA358
:1045100099F80000BAF80030C44AC54CC31A82FBAF
:104520000317D917C1EB670101EB4101A3EB81032D
:1045300003EB430354F8233018447F286ADD7F38A7
:1045400082FB0032C317C3EB620202EB4202A0EB14
:1045500082007330DFF8F8B2C0B205F001F8BBF8A2
:104560000030022B7FF673A999F80000BAF80030EA
:10457000AE4AC31A82FB0321DA17C2EB610202EBD7
:104580004202A3EB820303EB430304EB83035B6868
:1045900018447F2840F3AD827F380C2290FBF2F361
:1045A00002FB13007330C0B204F0DAFFBBF8003036
:1045B000032B7FF64CA999F80000BAF800309B4A0B
:1045C000C31A82FB0321DA17C2EB610202EB42023B
:1045D000A3EB820303EB430304EB8304A3681844B7
:1045E0007F2814DD7F380C2290FBF2F302FB1300CE
:1045F0007330C0B204F0B4FFFFF729B9FCF72CF810
:104600002CE6FCF729F8A3E6FCF726F819E7FCF7F7
:1046100023F8EEE7FCF720F89CE7DFF830A299F8E2
:104620000000BAF80030814A824CC31A82FB031E94
:10463000D917C1EB6E0101EB4101A3EB810303EB41
:10464000430354F8233018447F28DADD7F3882FB97
:104650000032C317C3EB620303EB4303A0EB8300F9
:10466000733075E6DFF8E4A13868BAF800306F4AB5
:10467000704CC31A82FB031ED917C1EB6E0101EB0C
:104680004101A3EB810303EB430354F823301844A7
:104690007F28B3DD7F3882FB0032C317C3EB620390
:1046A00003EB4303A0EB83007330D7E5DFF89CA155
:1046B0005E49BAF800205F4C9A1A81FB020ED017AF
:1046C000C0EB6E0000EB4000A2EB800202EB420266
:1046D00054F8220018447F2896DDA0F17F0381FB67
:1046E0000321DA17C2EB610000EB4000A3EB80006E
:1046F0007330A6E6FBF7B0FF0DE4FBF7ADFF87E4F0
:10470000FBF7AAFF05E5DFF844A199F80000BAF825
:104710000030464A484CC31A82FB0317D917C1EB35
:10472000670101EB4101A3EB810303EB430354F861
:10473000233018447F287FF76DAF7F3882FB00322B
:10474000C317C3EB620303EB4303A0EB8300733097
:1047500000E73A4800903A483A490390FEF76EB8AD
:10476000DFF8E8A03868BAF80030304A364CC31A8F
:1047700082FB0321DA17C2EB610202EB4202A3EBD8
:10478000820303EB430354F8233018447F2840F39B
:10479000A0817F380C2290FBF2F302FB13007330F0
:1047A000DFF8B080DFF8A8B098F80010C0B204F0CD
:1047B000B3FEBBF80030022B1AD93868BAF80030C3
:1047C0000C22C11A91FBF2F302FB131302FB034309
:1047D0005B6818447F2840F352847F3890FBF2F3E3
:1047E00002FB13007330C0B298F8001004F094FE7E
:1047F000BBF80030032B7EF654ADBAF800303868B1
:104800000C22C11A91FBF2F302FB131302FB0344C7
:10481000A36818447F287FF739AB7F3890FBF2F309
:1048200002FB13007330FFF7BBB900BFABAAAA2A83
:104830000428010070240100F0290100F29EFF1FEE
:10484000759CFF1FA09EFF1F042D01009C9EFF1F53
:10485000B09CFF1F209DFF1FDFF860A399F80000A8
:10486000BAF80030CC4ACD4CC31A82FB0321DA17C8
:10487000C2EB610202EB4202A3EB820303EB4303B0
:1048800054F8233018447F2840F32D817F380C22C0
:1048900090FBF2F302FB13007330DFF824B3C0B2D5
:1048A00004F05EFEBBF80030022B19D999F8000025
:1048B000BAF800300C22C11A91FBF2F302FB131379
:1048C00002FB03435B6818447F2840F390837F38E2
:1048D00090FBF2F302FB13007330C0B204F040FE11
:1048E000BBF80030032B7EF699ABBAF8003099F88C
:1048F00000000C22C11A91FBF2F302FB131302FB1E
:104900000344A36818447F287FF7ACAA7F3890FB44
:10491000F2F302FB13007330FFF7C6B9DFF89CA275
:104920009D49BAF800209D4C9A1A81FB0210D117BC
:10493000C1EB600101EB4101A2EB810202EB4202FB
:1049400054F8220018447F2840F3C680A0F17F036A
:104950000C2093FBF0F200FB12307330DFF860B2F2
:1049600098F80010C0B204F0D7FDBBF80030022B5D
:104970001AD93868BAF800300C22C11A91FBF2F348
:1049800002FB131302FB03435B6818447F2840F3C8
:104990002B837F3890FBF2F302FB13007330C0B21D
:1049A00098F8001004F0B8FDBBF80030032B7FF638
:1049B00003AABAF8003038680C22C11A91FBF2F34E
:1049C00002FB131302FB0344A36818447F287FF7FC
:1049D0004CAA7F3890FBF2F302FB13007330FFF711
:1049E000E6B9FBF739FEFFF7AFB8FBF735FEFFF787
:1049F00030B9012B3DF4CBAE0124FFF7F8B9DFF855
:104A0000BCA199F80000BAF80030634A644CC31A9C
:104A100082FB0321DA17C2EB610202EB4202A3EB35
:104A2000820303EB430354F8233018447F2846DD08
:104A30007F380C2290FBF2F302FB13007330DFF897
:104A400080B1C0B204F08CFDBBF80030022B19D944
:104A500099F80000BAF800300C22C11A91FBF2F369
:104A600002FB131302FB03435B6818447F2840F3E7
:104A70008F807F3890FBF2F302FB13007330C0B2DB
:104A800004F06EFDBBF80030032B7EF6E0AEBAF802
:104A9000003099F800000C22C11A91FBF2F302FBDE
:104AA000131302FB0344A36818447F287FF7AFADBC
:104AB0007F3890FBF2F302FB1300733099E5FBF7AC
:104AC000CBFDBCE7FBF7C8FDFFF747B9FBF7C4FD1B
:104AD00067E4FBF7C1FD63E6FBF7BEFD3EE7FBF7CE
:104AE000BBFDFFF7E7BBFBF7B7FDD6E6FBF7B4FD71
:104AF000D1E4FBF7B1FD56E5DFF8C0A03868BAF89D
:104B00000030254A274C32E6DFF8B0A099F80000C3
:104B1000BAF80030204A234CA6E6029B1B78002BF3
:104B20007EF45CAAFEF77FBAFBF796FDFFF720BA8A
:104B3000DFF888A099F80000BAF80030164A1A4C3D
:104B400065E7FBF789FDFFF793BAFBF785FDFFF7F4
:104B50000EBBDFF868A01049BAF80020114CE3E65C
:104B6000124B1B78002B00F0C282114B1B78002BDC
:104B70007DF40DAE0F4B1B78002B3DF408AEB8F85A
:104B800000300D490A33A8F800300A70FDF7FFBD68
:104B9000FBF762FD73E700BFABAAAA2A042D010050
:104BA000802A0100AC2B0100702401003A9FFF1FF6
:104BB0003B9FFF1F3C9FFF1F9C9CFF1F9C9EFF1F56
:104BC000B09CFF1FA44C2288002A00F02183A34937
:104BD000DFF89CB20988BBF800000331884227DD6A
:104BE0009F48A0490088B1F800E0DFF87CC2181A9D
:104BF0000C2190FBF1F901FB19004FF0900909FB22
:104C00000EFE01FB00E06FF00B0E5CF800000344A9
:104C10000EFB02307F2840F3F1847F3890FBF1F3E4
:104C200001FB13007330C0B298F8001004F074FC5C
:104C3000BBF8002023881344022B23DD884B894ACC
:104C400038681B88B2F800C0DFF81CE2C31A0C21D8
:104C500093FBF1F201FB1232902303FB0CF301FBF7
:104C6000023373445B6818447F2840F351857F38D2
:104C700090FBF1F301FB13007330C0B298F8001001
:104C800004F04AFCBBF8002023881344032B23DDE7
:104C9000734B744A38681B88B2F800C0DFF8C8E16B
:104CA000C31A0C2193FBF1F201FB1232902303FB98
:104CB0000CF301FB023373449B6818447F2840F3D4
:104CC0002B857F3890FBF1F301FB13007330C0B2EA
:104CD00098F8001004F020FCBBF80020238813444F
:104CE000042B7FF769A85D4B1B88012B7FF464A818
:104CF0003A68A2F10C007F287FF7B7A88B3A0C2006
:104D000092FBF0F300FB13207330FFF750B8524CC6
:104D10002388002B40F0BC82DFF854B15049514A3F
:104D20000988D7F80080B2F800E04F48C1EB080CC2
:104D30000C229CFBF2F102FB11C14FF0900C0CFB1A
:104D40000EFE02FB01E16FF00B0E405880440EFB9B
:104D500003807F2840F31784A0F17F0393FBF2F0D8
:104D600002FB10307330414BC0B2197804F0D4FB11
:104D7000BBF8002023881344022B23DD384A394B2B
:104D800011883868B3F800C0DFF8DCE0411A0C2263
:104D900091FBF2F302FB1311902303FB0CF302FBD4
:104DA000013373445B6818447F2840F3FD847F38E7
:104DB00090FBF2F302FB130073302C4BC0B2197856
:104DC00004F0AAFBBBF8002023881344032B23DD47
:104DD000234A244B11883868B3F800C0DFF888E014
:104DE000411A0C2291FBF2F302FB1311902303FBF7
:104DF0000CF302FB013373449B6818447F2840F393
:104E000077847F3890FBF2F302FB13007330174B6B
:104E1000C0B2197804F080FBBBF80020238813444B
:104E2000042B7EF73EAA0D4B1B88012B7EF439AA7A
:104E30003A68A2F10C007F2840F356818B3A0C208F
:104E400092FBF0F300FB13207330084BC0B21978CB
:104E500004F062FBFEF725BA289DFF1FCA9CFF1FC6
:104E60009C9EFF1F4C9EFF1F00250100209DFF1FE1
:104E7000B09CFF1FCB4C2388002B40F0CC81DFF887
:104E800054B3C949C94A098899F80000B2F800E04A
:104E9000DFF84483C1EB000C0C229CFBF2F102FB17
:104EA00011C14FF0900C0CFB0EFE02FB01E16FF004
:104EB0000B0E58F8011008440EFB03007F2840F346
:104EC000A183A0F17F0393FBF2F002FB103073305B
:104ED000C0B204F045FBBBF8002023881344022B2A
:104EE00022DDB14AB14B118899F80000B3F800C037
:104EF000DFF8E4E2411A0C2291FBF2F302FB1311FA
:104F0000902303FB0CF302FB013373445B681844EA
:104F10007F2840F3F1837F3890FBF2F302FB13000C
:104F20007330C0B204F01CFBBBF80020238813448C
:104F3000032B22DD9C4A9D4B118899F80000B3F8A1
:104F400000C0DFF894E2411A0C2291FBF2F302FB5D
:104F50001311902303FB0CF302FB013373449B6892
:104F600018447F2840F3CE837F3890FBF2F302FB96
:104F700013007330C0B204F0F3FABBF800202388AA
:104F80001344042B7EF74AA8894B1B88012B7EF41F
:104F900045A899F80020A2F10C007F287EF762AFA7
:104FA0008B3A0C2092FBF0F300FB13207330FEF7DA
:104FB0007BBEDFF8F4A199F80000BAF800307D4C10
:104FC000C11A0C2291FBF2F302FB131302FB03F351
:104FD000E35818447F287FF772AD7F3890FBF2F3D7
:104FE00002FB130073302AE5FBF736FBD7E4FBF72F
:104FF00033FB72E4704B1A88182A13D03B681344B1
:10500000A3F118007F2840F3D3830C20973B93FB38
:10501000F0F200FB123303F17300684BC0B2197851
:1050200004F07AFA664B67491A78022A94BF013273
:1050300000221A701A7831F81200182810D10424AE
:10504000022A02F10100C2B288BF002231F8120028
:10505000182804D1013CF3D11A70FEF722B91A7056
:105060003B680344A3F118007F283DDD0C20973BEB
:1050700093FBF0F200FB123303F17300E5E6FBF75C
:10508000EBFAFFF7B0BB4C4B1B88182B12D099F8EA
:1050900000201344A3F118007F2840F341830C2023
:1050A000973B93FBF0F200FB123303F17300C0B2A5
:1050B00004F056FA424A434B127833F81230182B58
:1050C0003DF4ACAF99F800201344A3F118007F28F9
:1050D0007EF7C8AE0C20973B93FBF0F200FB123337
:1050E00003F17300FEF7E0BDFBF7B6FAADE6364B11
:1050F0001B78002B7DF4FBAF344B1B78002B3DF469
:1051000046ABB8F8003032490133A8F800300A70D5
:10511000FDF73DBB2C4B1B78002B7DF438AB2B4BA4
:105120001B78002B3DF433ABB8F800302849013B25
:10513000A8F800300A70FDF72ABB1F4A1288182A07
:1051400012D01344A3F118007F2840F3DE820C2014
:10515000973B93FBF0F200FB123303F17300C0B2F4
:1051600098F8001004F0D8F9154B16491A78022A5D
:1051700094BF013200221A701A7831F812001828F0
:105180002DD10424022A02F10100C2B288BF0022FC
:1051900031F81200182821D1013CF3D11A703B6874
:1051A000FEF776B9289DFF1F9C9EFF1F4C9EFF1F98
:1051B000CA9CFF1F042D0100B89CFF1F209DFF1FEC
:1051C0008C89FF1FB89EFF1F3B9FFF1F3C9FFF1F47
:1051D0009C9CFF1FB09CFF1F002501001A703B68BC
:1051E0000344A3F118007F287EF73FAE0C20973BC5
:1051F00093FBF0F200FB123303F17300FEF7D7BD0F
:10520000DFF82CA399F80000BAF80030BF4CD7E6BD
:10521000DFF82CB3E4E4BE4ADFF824B31288BBF80D
:105220000010033291427FF756AE2AE6B94A12883F
:10523000182A12D01344A3F118007F2840F3738278
:105240000C20973B93FBF0F200FB123303F1730049
:10525000C0B298F8001004F05FF9AF4BAF491A786C
:10526000022A94BF013200221A701A7831F8120013
:105270001828B4D10424022A02F1010294BFD2B248
:10528000002231F812001828A8D1013CF3D185E79B
:105290009F4ADFF8ACB21288BBF80010033291428B
:1052A0007FF766AD3AE59B4B1A88182A13D03B6806
:1052B0001344A3F118007F2840F30C820C20973B85
:1052C00093FBF0F200FB123303F17300944BC0B276
:1052D000197804F021F9904B90491A78022A94BF6A
:1052E000013200221A701A7831F8120018287FF45F
:1052F000B7AE0424022A02F1010294BFD2B2002206
:1053000031F8120018287FF4AAAE013CF2D11A70CD
:10531000FDF7C7BF7F4B1B88182B12D099F80020D0
:105320001344A3F118007F2840F3E9810C20973B38
:1053300093FBF0F200FB123303F17300C0B204F0F0
:105340000FF9754A754B127833F81230182B7FF429
:10535000B9AEFDF763BE734B01227F2107201A808F
:1053600004F0AAF87F210B2004F0A6F8FDF7EABEAE
:105370006D4B04227F2107201A8004F09DF8002144
:105380000B2004F099F8FDF7D6BE674B02227F216F
:1053900007201A8004F090F87F210B2004F08CF88D
:1053A000FDF7C4BE604B002107201C8004F084F888
:1053B0007F210B2004F080F8FDF7B3BE5B4C2388FF
:1053C000002B40F08A81DFF878B1594999F8000044
:1053D000584A09881788DFF860E1411A0C2291FBCE
:1053E000F2FC02FB1C114FF0900C0CFB07F702FBC8
:1053F00001716FF00B075EF80110014407FB031009
:105400007F2840F3D8817F3890FBF2F302FB130032
:105410007330C0B204F0A4F8BBF800202388134412
:10542000022B21DD424B434A99F800001B88B2F859
:1054300000E0414FC31A0C2193FBF1F201FB123241
:10544000902303FB0EF301FB02333B445B681844DB
:105450007F2840F3C8817F3890FBF1F301FB1300F4
:105460007330C0B204F07CF8BBF8002023881344EA
:10547000032B21DD2E4B2F4A99F800001B88B2F830
:1054800000E02D4FC31A0C2193FBF1F201FB123205
:10549000902303FB0EF301FB02333B449B6818444B
:1054A0007F2840F38B817F3890FBF1F301FB1300E1
:1054B0007330C0B204F054F8BBF8002023881344C2
:1054C000042B7EF7C4A9124B1B88012B7EF4BFA9C5
:1054D00099F80020A2F10C007F287FF798A88B3A5A
:1054E0000C2092FBF0F300FB13207330FFF781B820
:1054F000124B00227F2107201A8003F0DDFF7F215D
:105500000B2003F0D9FFFDF725BE00BFAC2B010037
:10551000CA9CFF1FC29CFF1F8C89FF1F2C9EFF1F70
:10552000209DFF1F3A9DFF1F929EFF1F289DFF1F7A
:105530009C9EFF1F4C9EFF1F00250100949CFF1F97
:10554000B09CFF1FAB4B1B88182B12D099F8002082
:105550001344A3F118007F2840F33C810C20973BB3
:1055600093FBF0F200FB123303F17300C0B203F0BF
:10557000F7FFA14AA14B127833F81230182B7FF4B1
:10558000A1ADFDF74BBDFBF767F8FFF7ECBB994BFF
:105590001A88182A13D03B681344A3F118007F28F7
:1055A00040F31B810C20973B93FBF0F200FB12337E
:1055B00003F17300924BC0B2197803F0ADFF8E4B2C
:1055C0008E491A78022A94BF013200221A701A7882
:1055D00031F8120018287FF443AD0424022A02F1A6
:1055E000010294BFD2B2002231F8120018287FF4D1
:1055F00036AD013CF2D11A70FDF753BEFBF72CF823
:10560000FFF711BBFBF728F862E47A4A1288182AE0
:1056100012D01344A3F118007F2840F3D2800C204D
:10562000973B93FBF0F200FB123303F17300C0B21F
:1056300098F8001003F070FF6F4B70491A78022A37
:1056400094BF013200221A701A7831F8120018281B
:105650007FF4C5AD0424022A02F1010294BFD2B244
:10566000002231F8120018287FF4B8AD013CF2D1C5
:1056700094E5644B1B88182B12D099F80020134432
:10568000A3F118007F2840F3AB800C20973B93FBDD
:10569000F0F200FB123303F17300C0B203F060FFBD
:1056A000554A594B127833F81230182B3EF4CFA8D4
:1056B00099F800201344A3F118007F287EF7A7AFC4
:1056C0000C20973B93FBF0F200FB123303F17300C5
:1056D000FEF78FBFFAF7C0FFF8E54C4ADFF83CB1A0
:1056E0001288BBF80010033291427FF795AE6CE64A
:1056F000FAF7B2FFFFF78BBBFAF7AEFF11E4FAF748
:10570000ABFF1BE6FAF7A8FF34E4FAF7A5FF26E59E
:10571000FAF7A2FFFFF7B1BAFAF79EFFFFF7D7BA81
:10572000FAF79AFFC3E4FAF797FF91E5314B1B882C
:10573000182B11D099F800201344A3F118007F28EA
:1057400042DD0C20973B93FBF0F200FB123303F198
:105750007300C0B203F004FF274A284B127833F8D5
:105760001230182BA4D1FEF772B8294B1B88182BC6
:1057700011D099F800201344A3F118007F2826DDEA
:105780000C20973B93FBF0F200FB123303F1730004
:10579000C0B203F0E5FE184A1E4B127833F81230FF
:1057A000182B85D1FEF753B8FAF756FFFFF705BB64
:1057B000FAF752FF31E4FAF74FFF2AE6FAF74CFF07
:1057C00077E6FAF749FF32E7FAF746FFC1E7FAF75B
:1057D00043FFDDE7FAF740FFC8E6FAF73DFFE9E6E9
:1057E000FAF73AFF59E7FAF737FF3AE60A4B02931E
:1057F000FDF705BFC49CFF1F8C89FF1F349EFF1F50
:10580000209DFF1FB89CFF1FB89EFF1FCA9CFF1F53
:10581000C29CFF1F2C9EFF1F469DFF1FB09CFF1FB9
:1058200038B507F071FE0B4805F0A8FD00234FF0D6
:105830007E5201210848FAF719FE084B084A094927
:10584000802400251C7118461D60BDE838400BF00F
:1058500061BC00BF389DFF1F709EFF1FFC9EFF1F95
:105860001C89FF1FFD05000010B50446A4206368D5
:10587000198803F07BFFE368A6201988BDE8104073
:1058800003F074BF43682A20198803F06FBF00BF7C
:1058900010B5044622206368198803F067FFE368A7
:1058A00024201988BDE8104003F060BF10B50446FD
:1058B0000A206368198803F059FFE3680C201988EF
:1058C000BDE8104003F052BF10B5044606206368DF
:1058D000198803F04BFFE36808201988BDE81040E1
:1058E00003F044BF10B5044602206368198803F032
:1058F0003DFFE36804201988BDE8104003F036BF7F
:1059000070B50E4C84B01225042201230646039084
:10591000029320468DE824001423102106F032FF64
:105920000622092302930396019520460092142330
:10593000102106F027FF04B070BD00BF709FFF1F4D
:1059400070B5AE4CB4F90030032B00F0E880002BAA
:105950004DD0022B6CD0052B00F09880012B00F06D
:10596000C080042B00D070BD00244FF4AF75E1B2AD
:10597000A34805F06BFD01348542A8BF05460C2CF9
:10598000F5D1012008F040FE0446002008F03CFE5E
:10599000323CA0F132039B496FF4957000FB03F396
:1059A00000FB04F081FB034281FB0041DB17C017C1
:1059B000C3EB6223C0EB612003F5AF7200F5AF7358
:1059C0009342A8BF13469D42A8BF1D46A5F11401EE
:1059D000312900F3E28040F26C7332218A488B4A0D
:1059E0000180BDE870402A20136003F0BFBE0E2086
:1059F00007F0EEFC40F6FF71C8308842A8BF0846A9
:105A000020EAE07000F2DC5283B28A42804D814E7F
:105A1000A8BF0A460220194633802A8003F0A6FE5A
:105A20002988042003F0A2FEB4F90030022B92D1A1
:105A3000172008F0E9FD0546162008F0E5FDA8420C
:105A4000B8BF284600F1C801B1F5FA7FC0F2BF80A7
:105A5000B1F57A6FA8BF4FF47A6101F54873B3F5D9
:105A60007A6FA8BF4FF47A639BB289B26A4A6B4DD2
:105A700011800A202B8003F079FE29880C2003F086
:105A800075FEB4F90030052B7FF468AF0F2008F0E5
:105A9000BBFDC0F53F630433B3F5AF6FC0F28F8039
:105AA000B3F5FA6FA8BF4FF4FA6399B25C4BC0F537
:105AB0004360B0F5AF6F19807EDBB0F5FA6FA8BF19
:105AC0004FF4FA6083B2574DA4202B8003F04EFEB2
:105AD0002988A62003F04AFEB4F90030012B7FF498
