:1000000000800020BD01000055CF00000DCF000092
:100010000DCF00000DCF00000DCF00000DCF000070
:100020000DCF00000DCF00000DCF000055CF000018
:1000300055CF00000DCF0000D5C50000D9C6000087
:1000400055CF000055CF000055CF000055CF000020
:1000500055CF000055CF000055CF000055CF000010
:1000600055CF000055CF000055CF000055CF000000
:1000700055CF000055CF000055CF000055CF0000F0
:1000800055CF000055CF000055CF000055CF0000E0
:1000900055CF000055CF000055CF000055CF0000D0
:1000A00011AB00001DAB000055CF000055CF000084
:1000B00055CF000055CF000055CF000055CF0000B0
:1000C00055CF000055CF000055CF000055CF0000A0
:1000D00055CF000055CF000055CF000055CF000090
:1000E00055CF000055CF000055CF000055CF000080
:1000F00055CF0000C1EF000055CF0000EDF000002B
:1001000055CF00002DD9000055CF000055CF00007D
:1001100055CF000055CF000055CF000055CF00004F
:1001200055CF000055CF000055CF000055CF00003F
:1001300055CF000055CF000055CF000055CF00002F
:1001400055CF000055CF000055CF000055CF00001F
:10015000C5C70000D9C70000EDC7000001C80000F6
:1001600055CF000049DC000055CF000055CF0000FE
:1001700055CF000055CF000055CF000055CF0000EF
:1001800055CF000055CF000055CF000055CF0000DF
:1001900055CF000055CF000055CF000055CF0000CF
:1001A00055CF000055CF000055CF000055CF0000BF
:1001B00055CF000055CF000055CF0000564B4CF2F4
:1001C000205210B51A804DF628121A8000BF00BFC9
:1001D0000CF0C4FE514B4FF010621A60504A9A6006
:1001E000504ADA60504A136813F4807304D14F49BF
:1001F0000B604FF4A85313604D4B1A78110703D5C9
:100200001A7842F008021A704A4B4B492A221A7097
:100210004A4A4B4B8B4204D252F8040F43F8040B6A
:10022000F8E7484B484900228B4202D243F8042B9E
:10023000FAE74649464A002352F8230041F82300D2
:1002400001336F2BF8D1434B434A802103F8011B44
:100250009342FBD1414B3D4A1A60414B8A221A70AE
:10026000A3F5805324225A70A0221A709A7992071B
:10027000FCD59A79D406FCD43A4A937903F00C035E
:10028000082B384BF9D103221A7140225A719A79FE
:100290009006FCD5334A9179324B4906FBD5324A58
:1002A000324911600221516020221A709A7902F0BD
:1002B0000C020C2AFAD12E4B2E4A1A602E4B2F4AD2
:1002C0001A6000225A60072243F8042C2C4AC3F813
:1002D0000C2D62B60DF0F2F9144B1B68DA0705D548
:1002E00028480CF0BFFF284B284A1A60284B1B787F
:1002F0005B0609D5244C254B22689A4204D121483B
:100300000CF0B0FF0023236010F0AAF90CF02CFED3
:100310000CF05AFDFEE700BF0E200540308004407F
:10032000823F04000100002B10D0034014D0034092
:1003300002D0074000E007405C9BFF1F4C3F0100DC
:100340004088FF1F5C9BFF1F54A3FF1F0082FF1FFD
:100350000000000000E400E05FE400E008ED00E0E1
:100360000050064000400640448004400000030165
:1003700004800440C010050014E000E0FF76010096
:10038000000020208F763F5F1CE00340A5C3945AF5
:1003900000F00740FFFFFFFFFFFFFFFFFFFFFFFF32
:1003A000FFFFFFFFFFFFFFFFFFFFFFFFFFFFFFFF5D
:1003B000FFFFFFFFFFFFFFFFFFFFFFFFFFFFFFFF4D
:1003C000FFFFFFFFFFFFFFFFFFFFFFFFFFFFFFFF3D
:1003D000FFFFFFFFFFFFFFFFFFFFFFFFFFFFFFFF2D
:1003E000FFFFFFFFFFFFFFFFFFFFFFFFFFFFFFFF1D
:1003F000FFFFFFFFFFFFFFFFFFFFFFFFFFFFFFFF0D
:10040000FFFFFFFFFFFFFFFFFFFFFFFFDEF9FFFF23
:1004100010B5054C237833B9044B13B10448AFF33E
:1004200000800123237010BD5C9BFF1F00000000B3
:10043000503F0100084B10B51BB108490848AFF305
:1004400000800848036803B910BD074B002BFBD0A0
:10045000BDE81040184700BF00000000609BFF1F70
:10046000503F01005C9BFF1F0000000038B50446B0
:10047000104621700A491D460FF0D4FE01464FF088
:100480007E500FF083FF07490FF0CCFEE5606060FF
:10049000256165610DF0A2F8E061204638BD00BF1E
:1004A000DB0FC9400024744938B50446104621705A
:1004B00009491D460FF0B6FE01464FF07E500FF081
:1004C00065FF06490FF0AEFEE5606060256165617D
:1004D0000DF084F8E06138BDDB0FC9400024744999
:1004E00038B503780446032B20D8DFE803F01A1848
:1004F0001002C16840690FF08BFD0D490546606828
:100500000FF044FF014628460FF040FF38BD084970
:1005100040680FF03BFFE1680FF084FE38BDC06813
:1005200038BDC16840690FF073FD38BD002038BD8B
:100530000024744970B504460E460DF04FF8054688
:10054000E069281A0FF01AFEE3682361E56166612D
:10055000A061014660680FF019FF0146A0601048D5
:100560000FF014FF0FF0EAF90EF08AFE0FF0FCFC1A
:10057000054601464FF07E500FF04AFD61690FF0CD
:1005800051FE2169064628460FF04CFE01463046D2
:100590000FF040FDE0602046BDE87040FFF7A0BFCF
:1005A000000080BF08B50E200CF0E8FA114B1B8844
:1005B000012B19D0104B1B88984213DB40F6FF71BA
:1005C0008842D4BFC3EB0001C3EB0101C1EB013191
:1005D000C3F57F630F33282091FBF3F1BDE808409A
:1005E0000CF052BE0021F3E70146BDE8084014209C
:1005F0000CF04ABE949DFF1F2C9CFF1F10B50446B3
:100600000CF0BEF8204610BD70B44C88A04220D932
:1006100001230133DBB21CB2660031F8144084427E
:100620001D46F6D3A04211D005F10045013D965B71
:1006300031F8151032F81530401AF21A00FB02F0AA
:10064000641A90FBF4F4E01870BC7047905B70BCC7
:10065000704702260125E5E700280CDA064A4342E6
:1006600082FB0320DA17C2EB600000EB4000A3EB33
:100670008000C0F10C007047ABAAAA2AF0B40E8823
:1006800086420DD203F10043013B31F813508542FD
:1006900002D9F0BCFFF7B8BF32F81300F0BC7047C6
:1006A0001088F0BC704700BF094B1B880C2B09D881
:1006B000084A80B252F8232028B143F6FE739842CC
:1006C00003D9108C7047108870470349FFF79CBF0F
:1006D000B29BFF1FD0190100141C01004B4B4C4A68
:1006E0002DE9F0471E8814684A4BB442B3F80080E5
:1006F000494B33DB4445A8BF4446A6421C60C8BFF3
:1007000000202DDDC6EB0807B7F5804F33DB8003F3
:100710007B1C90FBF3F0FFF7C7FF404A404B158866
:100720001B88C0F3C61909FB05F57F2D8246A8BFBB
:100730007F252BB3A64253DC4445D4BFC6EB04044B
:10074000C6EB08049F42CCBF03FB04445C43354B1B
:10075000C8BF013794FBF7F71F6013E034461E60F3
:10076000C6EB0807A045D4BFC6EB0800C6EB0400E3
:10077000B7F5804FCBDAC0EB803090FBF7F0CAE7DB
:10078000284A1360284C2368994508D0274B1B88BA
:10079000002B34D1264B1B886BBBC4F80090254C32
:1007A00023689A4506D0214B1B885A1F032A19D962
:1007B000C4F800A0204C23689D420FD01F4B18881E
:1007C00048B11A4B1E4A1B88D35C834203D0C0B287
:1007D000E9B208F0C7FA2560BDE8F087BDE8F08708
:1007E0000024AFE7164AD05C2030C0B20AF07F0187
:1007F00008F0B8FADCE7484608F028FBCDE7104AD5
:100800004946D05C08F0AEFAC4E700BF2C9CFF1F3D
:10081000909DFF1FE89DFF1F809BFF1F949BFF1F64
:10082000969BFF1FF09DFF1FE09BFF1F769DFF1F04
:10083000229CFF1FAC9BFF1F249CFF1F869DFF1F58
:100840009889FF1F2DE9F04F172089B00DF0DAF8D5
:10085000AF4B186016200DF0D5F8AE4BAE4A1B8892
:1008600010600C2B00F03B81AC4BAD4A1988009313
:10087000AC4B52F8214000221A70AB4BAB4D1B8899
:10088000AB4A2E88013B32F91370002E5CD0A94B85
:10089000A94A1B88A9491278013B31F91380002A23
:1008A00040F0DF8011200DF0ADF8A54B0193D3F897
:1008B00000A00646B24540F3DF80A24BDFF8A492C9
:1008C0001B88A14A012BD9F80030B2F800B09F4A2A
:1008D00002922046C8EB030800F09A820FF04EFC0B
:1008E000029A52F82B100FF09DFC014600200FF0E9
:1008F0008FFB0FF05DFECAEB0802B045B8BFB046F3
:100900009042CAEB080880F2968200FB0888013208
:1009100098FBF2F08E4BDFF850820293D8F800304B
:10092000034403EBD3735B10C8F800302B88012B12
:1009300012D1884BDFF834B20393874BDBF80050B9
:1009400004934FF0000A47E07D4B0193DFF81492C7
:100950007F4BDFF8148202937E4B03931D460F20DA
:100960000DF050F82B689842824641DA754A128899
:10097000012A00F01D82744A05931288734D049277
:1009800020460FF0FBFB049ADFF8E0B155F8221087
:10099000DBF800500FF046FC014600200FF038FB5A
:1009A0000FF006FEEF1B059B5745A7EB0302B8BFF0
:1009B0005746FF1A9042BABF013200FB0777474300
:1009C00097FBF2F7D8F80020634B0493BB1803EBB6
:1009D000D3735B10C8F80030604B1B88013B032BBE
:1009E00000F2B082DFE813F06301A901C4008601C0
:1009F000594B04931B68984240F3C281514A1288B4
:100A0000012A00F0A682504A079311884F4A0691A6
:100A1000204605920FF0B2FB059A0699DFF84CB11B
:100A200052F82110DBF800500FF0FCFB0FF0C0FD76
:100A3000079B2F445745A7EB0302A8BF5746FF1A51
:100A4000D8F800309042BABF00FB07770132474325
:100A500097FBF2F73B4403EBD3735B10C8F800300D
:100A6000BAE715200CF08AF8354B0193D3F800A0B3
:100A70000646B2453FF721AF354B0293D3F800A0AD
:100A8000B24580F289812F4BDFF8D8901B882E4A1F
:100A9000012BD9F80030B2F800B02C4A039220465E
:100AA000984400F070820FF069FB039A52F82B1003
:100AB0000FF0B8FB0FF07CFDB045CAEB0802A8BFF1
:100AC000B046CAEB08089042B6BF00FB088800FB9E
:100AD00008F8013298FBF2F0DFF88C801EE7204B1B
:100AE0001B78002B3FF4C0AE0C4B0D4A19880093C5
:100AF0000C4B52F8210001221A700FF03FFB4FF00F
:100B00007C510FF08FFB0FF053FD0446B5E600BF9C
:100B1000D89BFF1FC29DFF1F0C9EFF1FDC9BFF1F6A
:100B20005889FF1F8A9BFF1F2089FF1F309DFF1FD1
:100B3000D81D0100A889FF1FA69DFF1FCC1B010027
:100B4000109EFF1F109CFF1FCC9BFF1FF01D01007C
:100B5000049CFF1FB49DFF1F289DFF1F2E89FF1FB0
:100B6000749DFF1F789BFF1FCC9DFF1FB09DFF1F33
:100B700028460FF003FBB2490FF054FB05465046E0
:100B80000FF0FCFAAF490FF04DFB014628460FF07D
:100B900041FA0FF00DFD0546CBF80050D9F80000E2
:100BA0000FF0ECFAA6490FF03DFB074630460FF078
:100BB000E5FAA4490FF036FB014638460FF02AFA51
:100BC0000FF0F6FCC9F800009F4AA04B1688198860
:100BD0009F4AA04B12681B889F4FC6EB050E3544F9
:100BE000039EC6F800E0461A084404990D60019976
:100BF0000E6002993E8808609A4280F28981002541
:100C0000C3EB060E954974450F6880F27681611C2E
:100C10009F4205FB01F50EF1010E95FBFEF5C0F2BA
:100C2000BE81BE42A8BF3E46F61A01FB06F494FB05
:100C3000FEF49A4200F33681BB42C0F23381884C05
:100C400020680FF09BFA87490FF0ECFA86490FF005
:100C5000E1F90FF0ADFCA0F5FF531C3B082B98BF4A
:100C60004FF40050D8F80030184400282060C0F23B
:100C70004281B0F5804F80F252817C4B1B781BB1D2
:100C8000B0F5005F40F05381794D2B78002B40F098
:100C90005481784D20682B68714C984204D080B202
:100CA00008F03EF923682B6009B0BDE8F08F2846B4
:100CB0000FF064FA70490FF0B5FA054650460FF090
:100CC0005DFA6E490FF0AEFA014628460FF0A2F920
:100CD0000FF06EFC0546CBF80050D9F800000FF07D
:100CE0004DFA65490FF09EFA074630460FF046FA76
:100CF00062495FE728460FF041FA5A490FF092FA2D
:100D0000054650460FF03AFA5D490FF08BFA01465E
:100D100028460FF07FF90FF04BFC0546CBF800504A
:100D2000D9F800000FF02AFA4E490FF07BFA074677
:100D300030460FF023FA52493CE728460FF01EFADE
:100D400050490FF06FFA054650460FF017FA4E491A
:100D50000FF068FA014628460FF05CF90FF028FC06
:100D60000546CBF80050D9F800000FF007FA4549C6
:100D70000FF058FA074630460FF000FA424919E7DB
:100D8000D8F80030DFF810B103EBD3735B10DBF859
:100D90000050C8F800301FE6DFF80081DFF800914E
:100DA000D8F8003003EBD3735B10C8F80030BDE512
:100DB000364A06931188364A059120460492DFF898
:100DC000D8B00FF0DBF9049A0599DBF8005052F81F
:100DD00021100FF027FA0FF0EBFBEF1B069B574596
:100DE000A7EB0302B8BF5746FF1AD8F8003090426D
:100DF000BABF013200FB0777474397FBF2F73B444A
:100E000003EBD373234A04925B10C8F80030E3E588
:100E10000FF0B4F9029A52F82B100FF003FA0FF00A
:100E2000C7FBCAEB0802B045B8BFB0468242CAEB66
:100E300008083FF76AAD00FB08F898FBF2F069E597
:100E4000CDCC4C3FCDCC4C3EA489FF1F2C89FF1F3D
:100E5000D89BFF1F8C9DFF1FC49BFF1F0C9EFF1F75
:100E60008C89FF1F9A99193FCDCC4C45C29EFF1F1C
:100E7000219CFF1F2489FF1F3333733FCDCC4C3D92
:100E8000CDCCCC3E6666663FCDCCCC3DCC9BFF1F27
:100E9000F01D0100289DFF1FB09DFF1FCC9DFF1F6F
:100EA000789BFF1F009B1B88002B3FF4C8AE2B1BB9
:100EB000002BB8BF5B42092B47DD05F50050013020
:100EC000001B0FF05BF93B493B4C0FF0ABF90546BB
:100ED00020680FF053F939490FF0A4F9014628466C
:100EE0000FF098F80FF064FBD8F800301844002891
:100EF0002060BFF6BEAE002213E09F4205FB04F562
:100F0000B8BF002195FBFEF54BDA91FBFEF490E6AD
:100F1000B242D4BFC3EB0205C3EB060570E643F64D
:100F2000FF72274B22601B78002B3FF4ADAE05F01B
:100F300093F9244B01221A70ABE605F089F90023DE
:100F40002B70A6E6D9F800003EE64FF400501A4C8C
:100F500088E61D491D4A069320460D8805920FF02C
:100F60000DF9059ADFF868B052F82510DBF800504B
:100F70000FF058F9014600200FF04AF80FF018FB67
:100F80002F44069B56E50FF0F9F8039A52F82B1000
:100F90000FF048F9014600200FF03AF88AE51E46A6
:100FA00042E6B742D4BFC3EB0701C3EB060104FB23
:100FB00001F1AAE7CDCCCC3E8C89FF1F9A99193F4D
:100FC000C29EFF1F219CFF1FCC9BFF1FF01D010035
:100FD000B09DFF1F08B5244B1B88FBB1234B1B782A
:100FE000FBB1234B1B78E3B1224B1B78CBB1224BD7
:100FF0001B78B3B1214B22481A78C2B9214A224941
:101000000088128809680244B1EB620F09DD0122F1
:101010001A706420BDE8084005F032B9174A11780B
:1010200001B908BD1370BDE8084007F043BF154A79
:1010300016490088128809680244B1EB620FF0DD9E
:1010400000221A7007F036FF642005F019F96420B9
:1010500005F016F9642005F013F94FF41670BDE899
:1010600008400CF0DDBA00BF329DFF1F179EFF1F26
:10107000E29DFF1FE39DFF1FE49DFF1FB09BFF1F2D
:10108000C49BFF1F8C9DFF1FD89BFF1F0C9EFF1F43
:1010900038B5114C232025780BF070FD0F4A42F82B
:1010A0002500131F02F1C400002253F8041F8342DD
:1010B0000A44FAD123780A4907480A4C0133DBB2C3
:1010C000322B81FB025108BF0023D217C2EB211241
:1010D0000370226038BD00BF989BFF1F3C9CFF1F20
:1010E0001F85EB51889DFF1F2DE9F04FB84CB94D7E
:1010F0002068B94F83B00FF041F8B8490FF092F86B
:10110000064610200CF07EFC0FF038F8B4490FF0C2
:1011100089F831460EF07EFF0FF04AFA29882060E8
:1011200088423B8843DA9E465B1A7F2B4FF00002D1
:1011300047DDD2015E1C92FBF6F2AA4EDFF8C882B0
:10114000B6F800C0C8F80020BCF1190F00F0DF802D
:10115000BCF11A0F00F01781BCF11E0F00F02081C6
:101160000126B146A04A1288002A00F09D808842DC
:10117000C0F207817045D4BFC1EB0000C1EB0E0087
:101180009A42BABF02FB00000133504390FBF3F3D5
:10119000964A1360964B1888C0B9964A1288AAB925
:1011A000954B197801B11A7003B0BDE8F08F9842E1
:1011B000D4BFC1EB0002C1EB03029E465B1A7F2B3A
:1011C000B7DCC2EBC21292FBF3F2B6E72988D4F87F
:1011D00000E0DFF80082DFF8F8A171456CDCDFF891
:1011E00018C29CF80020002A2ED14FF0010B0428D1
:1011F0008CF800B028D1002E40F094817D4B1888E7
:101200000028D1D0B9F1000FCED023682C883A88BD
:10121000A34280F265810023141B7E2C774DD5BF3D
:10122000C3EB8313C3EBC3135B00013493FBF4F4F0
:101230002B680134A34203D0C0B2E1B207F092FDA3
:101240002C6003B0BDE8F08F012800F0F680022882
:1012500000F0EB800328D1D1694B1B88092BCDD03E
:10126000002ECBD023682E883A88B34280F27B814F
:101270000023961B7E2EDFF88CA1D5BFC3EB831312
:10128000C3EBC3135B00013693FBF6F6DAF80030CC
:101290000136B34203D0F1B24A2007F063FDCAF829
:1012A0000060ABE716469146BCF11E0F7FF472AFAB
:1012B0000022DFF858817EE04F4B1A78002A3FF475
:1012C00073AF002401281C7000F0A480022840F0B5
:1012D0000E81002E00F0A3804A4D2B68002B00F0F9
:1012E0009E800420214607F03DFD424B2C6018886B
:1012F00000283FF459AFB9F1000F3FF455AFC0B229
:10130000002107F02FFD3D4B00221A604CE7DFF86B
:10131000FC8098F80020C2B1DFF8D890B9F800A09E
:10132000BAF1000F11D0DFF8E89099F800B09345BA
:1013300078D05FFA8AF07F2107F014FD98F800302A
:10134000B6F800C089F8003010E0DFF8C49099F8D2
:1013500000A0924566D0274B0021187807F002FDC7
:1013600098F80030B6F800C089F800301E4B1A8893
:10137000002A97D0BCF11E0F40F006810026B1462E
:1013800019E00020FCE6DFF8848098F80020002AAD
:101390000BBF012600264FF000094FF00109E1E6DE
:1013A000DFF86880104B98F800601A88B6FA86F665
:1013B00076094FF0000998F80030002B3FF4E8AEB2
:1013C0002988B7F800E02068C1EB0E03CFE600BF24
:1013D000D09BFF1F389DFF1F349DFF1F9A99193F17
:1013E000CDCCCC3EC29DFF1FF49DFF1F349CFF1F40
:1013F000D69BFF1FD29DFF1FC99DFF1FB89BFF1FDC
:10140000769DFF1F389CFF1FA89DFF1F749DFF1F27
:101410009C9BFF1F1EB1614D2B68002B7BD1604B45
:10142000188865E70026B1469CE6002E3FF4E6AE3C
:10143000DFF868A1DAF800202EE0002E3FF4DEAEDF
:10144000B7F80080F045D4BFC1EB0802C1EB0E0233
:10145000C1EB0808B8F17E0FDFF840A1D5BFC2EBA1
:101460008212C2EBC212520008F1010892FBF8F896
:10147000DAF8002008F10108424506D05FFA88F149
:101480000120009307F06EFC009B1888CAF80080CA
:1014900002287FF4DFAE42462168B5F80080388824
:1014A000414559DA0021C8EB0008B8F17E0FD3BFDF
:1014B000C1EB8111C1EBC11108F10108490091FB99
:1014C000F8F808F10108904506D05FFA88F1042089
:1014D000009307F047FC009B1888CAF80080B9E623
:1014E0009342D4BFC4EB0303C4EB020394E6032886
:1014F00027D12C4B1B88092B91D0002E8FD0274D44
:101500002B68002B8BD04A20214607F02BFC244B64
:101510002C601888ECE6214607F024FC204B2C6058
:101520001888E5E640207F218DE80C0007F01AFCC2
:10153000019B009A188858451CD002287FF48AAE77
:1015400076E704287FF46BAF002E3FF468AF2146A6
:10155000402007F007FC62E78142D4BFC8EB0101DD
:10156000C8EB00019FE79342D4BFC6EB0303C6EB71
:1015700002037EE6B8F80010DAF800E0B7F8008061
:101580008E45FFF665AF5DE72988B7F800E0206873
:101590000026C1EB0E03B146E9E500BF389CFF1FF2
:1015A000D29DFF1F769DFF1F08B5114B1B88022B94
:1015B00009D0052B07D0032B15D0042B0BD00D4BD6
:1015C00001221A7008BD7F21412007F0CBFB094B97
:1015D00001221A7008BD7F21092007F0C3FB054BCB
:1015E00001221A7008BD4021092007F0BBFBE6E785
:1015F000329CFF1FF09BFF1F38B5244B1B881D2B0F
:1016000040D0234B1B88012B25D0224A224B148823
:101610001B68224AA342128828DB21490988934289
:10162000D4BFC4EB0303C4EB0203121B914224DAC0
:1016300001FB0333541C93FBF4F41A4B1A4D1B8823
:10164000052B06D02B689C4203D0E1B2052007F0A1
:1016500089FB2C6038BD154B154A1B681488154A48
:10166000C3F53B630833A3421288D6DA0C490988D4
:10167000121B91424FF00003DADB03FB01F393FBF3
:10168000F2F4DAE7064B1C88D7E700BFC29DFF1FC4
:10169000309DFF1FAC9DFF1F8C9BFF1FC09DFF1F38
:1016A000C69DFF1F329CFF1F849BFF1F3C9DFF1F99
:1016B000309CFF1FAE9DFF1F38B5124D124C2B887A
:1016C000052B12D022684AB9022B0ED0033B012B06
:1016D00013D90E4A00231370236038BD0021052062
:1016E00007F040FB2B88022B04D10021412007F09A
:1016F00039FBEEE7052BE9D1F7E70021092007F0D8
:1017000031FBE6E7329CFF1F849BFF1FF09BFF1F0E
:1017100008B5284B1B78ABB115200BF02FFA264AE1
:10172000264B128818601D2A15D0254A1288DAB176
:10173000012A2BD0234B1B78002B3AD0BDE8084060
:10174000FFF7BABF11200CF05DF91B4A1B4B128842
:1017500018601D2AE9D11C4B1B88002BEAD01B4BBB
:101760001B78002BE6D008E0174A1288002AE1D047
:10177000174A1B6812889A42DCDC124B1B780BB9A3
:10178000FFF712FFBDE80840FFF736BF0F200CF04F
:1017900039F90D4B0F4A1B88106033B10E4BC0F561
:1017A0003B601B8808309842E7DA064B1B78002B19
:1017B000C4D108BDA69DFF1FC29DFF1F8C9BFF1FAC
:1017C000309DFF1FF09BFF1F329CFF1F749DFF1F6A
:1017D000AC9DFF1F3C9DFF1F309CFF1F38B51020A4
:1017E0000CF010F9C830B0F5FA7FC0F2EE80B0F519
:1017F0007A6F0146A8BF4FF47A6101F51673B3F50D
:101800007A6FA8BF4FF47A639BB289B28E4A8F4C2D
:1018100011802220238007F029FC21888C4D8D4CDB
:10182000242007F023FC0E200BF0A8F940F6FF71EE
:10183000C8308842A8BF084620EAE07000F5FA6286
:1018400083B28A42A8BF0A460220194622802B8012
:1018500007F00CFC2188042007F008FC17200CF08E
:10186000D1F8044616200CF0CDF8A042B8BF2046AF
:1018700000F1C801B1F5FA7FC0F2A280B1F57A6F2C
:10188000A8BF4FF47A6101F54873B3F57A6FA8BF2A
:101890004FF47A639BB289B26F4A704C11800A2070
:1018A000238007F0E3FB21880C2007F0DFFB0F20EB
:1018B0000CF0A8F8C0F53F610431B1F5AF6F7CDBE7
:1018C000B1F5FA6FA8BF4FF4FA6189B2644BC0F565
:1018D0004360B0F5AF6F19806CDBB0F5FA6FA8BF4D
:1018E0004FF4FA6083B25F4CA420238007F0BEFB64
:1018F000A620218807F0BAFB0B200BF05BFE002826
:1019000068D011200CF07EF800F1C801B1F52F7FEE
:101910006EDA40F214534FF42F71534A1180534C36
:101920000620238007F0A2FB2188082007F09EFBF9
:1019300000244FF4AF75E1B24D4809F05DF9013470
:101940008542A8BF05460C2CF5D101200CF05AF8B1
:10195000044600200CF056F8323CA0F13203454911
:101960006FF4957000FB03F300FB04F081FB03426E
:1019700081FB0041DB17C017C3EB6223C0EB612082
:1019800003F5AF7200F5AF739342A8BF13469D42B3
:10199000A8BF1D46A5F11401312938DC40F26C7353
:1019A00032213548354A018013602A20BDE838408D
:1019B00007F05CBB4FF4AF6395E74FF4AF6185E789
:1019C00040F214534FF4FA7166E740F24C434FF47F
:1019D000FA711BE715200BF0D1F800F59671B1F5FF
:1019E0002F7F96DB41F25C2399421FDD194694E775
:1019F00041F25C239942F9DC1B4A00F5487089B238
:101A0000B0F52F7F118019DA4FF42F7387E740F27A
:101A10003A72A5F5B9751A4B02FB05F583FB052350
:101A2000ED17A5EB631389B23233BAE70E4A00F51E
:101A3000617089B2B0F52F7F1180E5DB8342A8BFCA
:101A400003469BB26BE700BF389DFF1F349DFF1F0D
:101A50002C9CFF1FE89DFF1F8C9DFF1FC49BFF1F39
:101A6000309CFF1FAE9DFF1FAC9DFF1FC09DFF1F41
:101A7000209CFF1F67BBCF46E09DFF1F9489FF1F7F
:101A8000B5814E1B2DE9F84F0C200BF043F80C20CC
:101A90000BF0F8FCA14914200BF004FDA049A1486B
:101AA00008F03CFD022103200BF092FD02210420EE
:101AB0000BF08EFD022105200BF08AFD022106208D
:101AC0000BF086FD01210A200BF082FD0121092087
:101AD0000BF07EFD01210D200BF07AFD0121282065
:101AE0000BF076FD012114200BF072FD02210B207A
:101AF0000BF06EFD01210C200BF06AFD0C20002183
:101B00000BF052FD04200BF055FD70B305200BF0D7
:101B100051FD044680B300242046834D287005F013
:101B2000B3FE2B78EBB9204607F0CAFA7F4B804909
:101B30001B88804D0988804A2970A3F5AF7140F257
:101B40003A7303FB01F382FB0312DB177B4E7C48E5
:101B5000A3EB621332335A21336009F089F890B94C
:101B6000FEE7BDE8F84F08F0E9BB06200BF022FDC8
:101B70000028CBD10124D0E703200BF01BFDB0FAE5
:101B800080F04009C9E76F4A6F481268DFF800B279
:101B900000230121FEF788FC0B200BF00BFD011E3A
:101BA0000CBF012300238BF8003002D111200BF071
:101BB0000FFDDFF8A091654FDFF8D881644E002358
:101BC000C9F800303B60C8F800304FF0040A14E058
:101BD0000AF0D4FF3B68184438600AF0010080F036
:101BE000010004F03DFB3388002B14BF4B20DC20A8
:101BF0000BF016FDBAF1010A1BD00F200BF002FF0B
:101C0000D8F8003003440E20C8F800300AF0B6FFC0
:101C1000D9F800309BF800200344C9F800301520A3
:101C2000002AD5D111200BF0EDFE3B681844386036
:101C3000D3E7D8F80030D9F8002046493868DFF8F3
:101C400058E1DFF858C1002BB8BF0333002AB8BFF2
:101C5000033292100A604049404A098812880028DD
:101C6000B8BF03309B10801038605F1A1944CEF85B
:101C70000070CCF80010DFF828E1394F3949C8F876
:101C80000030C2EB000C0244CEF800C03A600B609A
:101C90000CB1FFF7A3FD33885BB94FF4FA7004F081
:101CA000EFFA04F0D9FA06F001F94FF4AF600BF047
:101CB000B7FC2D4B012404201C600BF07BFC10B9F9
:101CC0002A4B28701C702A4B1B881C2B1CD0294CBB
:101CD00004F1C80523200AF051FF44F8040F012045
:101CE0000BF09EFCA542F5D1234A244B10781870C6
:101CF00007F0F0F804F0ACFA45F6BF52204921484D
:101D0000BDE8F84F0AF0F2BC1F4B18880028DED05F
:101D10001E4BC0B2197807F025F8D8E7001B3746EC
:101D200040420F006890FF1FB69BFF1FE09DFF1F02
:101D3000C49DFF1F009CFF1FB5814E1B9489FF1F90
:101D4000209CFF1F2889FF1F549DFF1F789BFF1FAA
:101D5000829DFF1F909BFF1FA489FF1F2C89FF1FDF
:101D6000049CFF1FFC9DFF1FBC9DFF1FA09BFF1F2E
:101D7000C29DFF1F389CFF1F409DFF1F269DFF1F18
:101D8000A5050000D89DFF1F089CFF1FCE9BFF1FCD
:101D9000A69DFF1FB09DFF1FB49DFF1F289DFF1F25
:101DA000109EFF1F2DE9F04F8BB007ADC04F2C46A2
:101DB0000AAE611BC9B2BF4808F01EFF3B888342D0
:101DC00094BF0020012004F8010BA642F1D1BA48CB
:101DD000BA4A9DF81C70BA4907709DF81E00B94DAB
:101DE00010709DF820209DF82430B74EB74C0A7033
:101DF0009DF82210297000253370257073B90029D1
:101E000040F01A81B2491AB10B78002B40F00882D9
:101E1000002800F0DB810223237005E0002A40F057
:101E2000BB800523AA492370DFF8F8B2DFF8F882F7
:101E30009DF81D209DF82100DFF8F092DFF8F0A258
:101E4000A44DA54FA54E0B709DF81FC09DF8231003
:101E50009DF827309DF826E08BF8002088F80000D8
:101E60009DF82520297001203A70337089F800C050
:101E70008AF800E00BF0C6FD994A9A4B1168884237
:101E8000CCBF012200221A7040F38A80964B1B8837
:101E9000182B00F28580954AB2F800E00C3B0093C5
:101EA000BEF1000F40F08580914A9BF800C092F887
:101EB00000B098F8008099F800209AF8009094F803
:101EC00000A02C78ABEB4C0BC2EB0B0BA8EB880EF5
:101ED000DE44C9EB897BC9EB8B09DFF81CB2F14406
:101EE00097F800E0BBF800B009EB44093478CE4421
:101EF00004FB0BEE4FF00C097E4C19FB0AEEC4F804
:101F000000E0B8F1000F0BD036784EB17A4E36882B
:101F1000042E0CBF0EF1020E0EF1040EC4F800E008
:101F2000764E774CDFF80CB23688DBF800B02488A8
:101F3000DFF804A2DFF80492BAF800A0B9F8009024
:101F4000009BC6EBC6065E44033CDFF8F4B104EB2D
:101F50004404DBF800B00EEB84045444C9EBC90917
:101F6000DFF8E0A1D944DFF8E0B15AF826605BF869
:101F700029900C3C1C44A3194B44BCF1000F29D000
:101F80002C783CB3002A5BD1B8FA88F85D4C4FEA54
:101F9000581884F8008024E0062323704C4943E756
:101FA000524AB2F800E000230093BEF1000F3FF464
:101FB0007BAFBEF1010F47D0BEF1020F00F0C88029
:101FC0004C4C9BF800C099F8002098F80080D4F899
:101FD00000E096E74B4C002525700AB13A781ABB11
:101FE0000022494C884222704849C4BF484AC2F87E
:101FF00000E00A68934213D0464A474C10680590A7
:102000000598206012680692444C069A24880B605A
:10201000121AA24284BF424A13600BB0BDE8F08F8F
:102020003D483C4A0068EDE7BCF1000FD8D1B8F15B
:10203000000FD5D10122D4E7042323702449F3E60D
:10204000304A00241470CBE7294A9BF800C092F86C
:1020500000E098F8008099F8002094F800B09AF811
:1020600000902C780194AEEB4C0EC2EB0E0EA8EB58
:1020700088047444C9EBC909D944A31EDFF878A0C9
:10208000DFF8C8E0019C97F800B05EF829E0BAF8E4
:1020900000A096F8009003EB44045C4409FB0A4955
:1020A00009F11809134CCE44C4F800E029E700BF39
:1020B000E09DFF1F209CFF1FE29DFF1FE39DFF1F70
:1020C000E49DFF1FE59DFF1FE69DFF1F2D9DFF1F48
:1020D000369DFF1F189EFF1F199EFF1FC89DFF1FE3
:1020E0009489FF1F749DFF1FC29DFF1F889BFF1FC8
:1020F000A689FF1F7C9DFF1FDE9BFF1FB89DFF1F52
:10210000989DFF1FF69DFF1FF79DFF1FE89BFF1F78
:10211000009EFF1F009FFF1F0C9CFF1FD09DFF1FF5
:10212000089EFF1F149EFF1F169EFF1F159EFF1F78
:10213000179EFF1F349CFF1F9A9BFF1FF29BFF1FE0
:10214000F09DFF1F041A010020170100A01D0100CF
:10215000374A9BF800C092F800B0247899F8002024
:1021600098F800800394ABEB4C049AF80090314B44
:1021700095F800A0CDF804A0A8EB880BA41A5C4445
:102180004FF0050B1BFB094B039C97F800A0CDF803
:1021900008A0C9EBC909B3F800A009EB0403BDF816
:1021A0000490029C0BF1050B1EFB09BE96F800B0D3
:1021B000DFF8A490A6440BFB0AEE59F823901E4CBE
:1021C0000EF10C0ECE44C4F800E09AE65FBB0B782B
:1021D000012B2BD9194A23701288002A3FF424AE10
:1021E000174A1288013A92B2062A3FF61DAE154AE6
:1021F0001278002A3FF418AE134A1268012A7FF4BD
:1022000013AE1248124A0068124E82FB0025C21714
:10221000C2EB650202EB4202A0EB8202328003E6CF
:102220000323237000E601232370FDE53B46FBE515
:10223000A689FF1FDE9BFF1F7C9DFF1FA49DFF1F24
:10224000429DFF1F2E9CFF1FBC9DFF1F089EFF1F6E
:10225000ABAAAA2A809DFF1FC81F01002DE9F04FDD
:102260003A4B1B788BB0002B6BD10E200AF086FC0A
:102270000DF084FF01463648364E374DFEF75AF9C9
:102280003348FEF72DF90EF093F980F30C0030601F
:10229000FFF788FD2C68012C7AD0022C00F0A78271
:1022A000032C00F0B5832D4E2D4C33682D4A2E4E55
:1022B0000993099B316812882360591A013A9142A7
:1022C000274F00F28F82294E32689A1A0D2A00F2A7
:1022D0008282274E32689A1A132A00F27782254E9C
:1022E00032689A1A252A1AD9234B1B88002B40F0F2
:1022F0005D81224B1B78002B40F05881FEF7C8FE11
:102300001F4B1B881B3B9BB2022B04D81D4B1B7819
:10231000002B40F04E8103F0C5FF236833601A4D57
:102320002A689B1A502B00F20D82184B1B88012B38
:1023300000F0258206F0AAFD06F0D8FB0BB0BDE840
:10234000F08F07F083FE0BB0BDE8F08FB69BFF1F48
:10235000549DFF1F909DFF1FBC9DFF1F009FFF1FEF
:10236000509DFF1F9089FF1F289CFF1F189CFF1F77
:10237000F89BFF1FFC9BFF1F329DFF1FB09BFF1FA1
:10238000C29DFF1F749DFF1F449DFF1F949DFF1F53
:10239000DFF82093A04AB9F800001378834204D0F4
:1023A000C3B21846137006F0ADFCDFF804839B4AF5
:1023B000B8F800301178994204D0994F3978002943
:1023C00040F0E486974A33681288974E9A42C0F2EA
:1023D000FA80964A1278002A40F0F580DFF8D8A2F9
:1023E000BAF8003023B9924B1B88002B00F0EE8422
:1023F000904A914B11881B88904A0B4412685B10DD
:1024000093428F4A126880F2908400219342B4BFB5
:1024100001230B4604910093ACBF4FF0010B8B4698
:1024200005910E200AF0AAFB864B874A1B681768A5
:1024300003930133A7F25232002B8446029240F3F9
:10244000CC86802BA8BF8023804A814912780191D5
:10245000002A00F0C2800978914200F0BE80B8F8EE
:102460000010DFF84CE2994201F0E1806C49AEF8CF
:102470000030784B4FF0010E81F800E01978DFF85A
:102480003CE2019B8EF800101A70009B002B00F0BC
:102490001781BAF80030002B00F012816E4B1B68D8
:1024A0005A1C002A40F39D86802A00F399866B4CC3
:1024B0006B496C482488098800682144B0EB610F9F
:1024C000C1F22A83A3F148020F2A02D8473BA9F898
:1024D00000300E200AF052FB6FF454731F44874201
:1024E00002DC614B00221A7000200BF08BFA5F4A6D
:1024F0005F4B11685F4C1B888842D4BF00220122C9
:102500002270002B00F008845B4B1C78944240D072
:1025100088423EDD59490C78002C00F01E8758494E
:1025200091F800C0BCF1000F40F01587554F00979F
:10253000554F56480297534F007887F800C0524FC6
:102540004FF0010E87F800C081F800E0002841F04C
:10255000C5804F490978002900F0E1874D49039172
:102560000C460978002940F0D7874B48464F007841
:10257000397001210297217058B1424840490090BA
:10258000002008700099029F0870039901243C7094
:1025900008701A70414B1B88A3F11B02012A40F2FC
:1025A000B9851D2B00F003863D4C7EE6FEF712FD3B
:1025B000A4E63C4B1B78002B3FF4ADAE2B68012BFF
:1025C0007FF4A9AEA9E63168374A069106983749E3
:1025D000106002220B602A6000E71E49DFF8DCE091
:1025E000097800293FF44DAF9EF8000081423FF486
:1025F00048AF03984B2840F3E1871833802BB8F895
:102600000000A8BF802398423FF43BAF28480380D6
:1026100003480123037034E7269DFF1F009CFF1F22
:10262000A09BFF1F2C9CFF1F009FFF1FB09BFF1F45
:102630001E9CFF1FC49BFF1F8C9DFF1FD89BFF1F6D
:102640000C9EFF1F009EFF1F909BFF1FF69DFF1F0C
:10265000E49BFF1FF79DFF1F7C9DFF1F389DFF1F01
:10266000349DFF1FD09BFF1F2C9DFF1F9489FF1FD0
:10267000429DFF1FCA9BFF1F7C9BFF1F179EFF1FD2
:10268000849DFF1FD49DFF1F2E9CFF1F189EFF1FC0
:10269000149EFF1F7D9BFF1F749DFF1FC29DFF1F88
:1026A000509DFF1FC89DFF1FF49BFF1F4C9DFF1FE8
:1026B000C49DFF1F409DFF1FEC9BFF1FE59BFF1F5D
:1026C000029B9C45BFF605AF864B1B88002B3FF451
:1026D00000AFBBF1000F7FF4E1AE834B1B881BB151
:1026E000059B002B7FF4DAAE049B002B3FF4F1AE88
:1026F0007E4B1A78002A7FF4ECAEDFF8649299F8EA
:10270000004001221A70002C40F02D83784B1B787A
:10271000002B02F0C680774B1B78002B02F09A83C7
:10272000754B1B78002B7FF4D4AE744B1B78002BB9
:102730003FF4CFAEB8F8003071490A3BA8F800303A
:102740000A70C6E605F0E8F86E4B1B7873B96E4B5D
:102750001B785BB96D4B1B7843B96D4B1B782BB95C
:102760006C4B1B7813B903F073FD01E003F07CFDA3
:1027700023682B60684B1B88012B7FF4DBAD674A15
:10278000674B116867481A78A1F118032A2101FBE9
:1027900003F10160002A00F0A982634C236899428A
:1027A00000F3528310DA61480278002A40F07C87F7
:1027B0005F4A1068D0F17F0048BF033080100130BD
:1027C0001B1A994242F3BF86216091E2FEF7A0FFF7
:1027D0002368336083E5FEF735F8FEF785FC236850
:1027E000336076E5FDF77AFF3B6833606BE5514A6D
:1027F00034681188A14204DB464B1B78002B00F0A3
:102800005D834D4E4D48336807934D4B079A0068E2
:102810001B88121A9A4200F2A980002B00F0A680B1
:10282000484B1A88002A3FF4BFAE474B47481B6805
:102830000088A342B8BF2346994241F36681444BC6
:102840001960DFF8208188F80020344FFDF746FF3B
:1028500038687F2840F371853E4B7F3883FB003218
:10286000C317C3EB620303EB4303A0EB8300733096
:10287000394B01931B883860002B40F0CA86234BEC
:1028800000931B78002B00F0C683344C2378002B78
:1028900000F0C183DFF8D090DFF8B8A04FF0000B54
:1028A0000CE003F17300C0B298F8001006F082FA51
:1028B00023780BF1010B5B4540F3AD833B6859F87E
:1028C000040F1844A0F17F038AFB0321DA17C2EB3F
:1028D000610202EB42027F28A3EB8203E1DCFDF7F9
:1028E000BBFEE0E71E9CFF1F489DFF1F2C9DFF1FA6
:1028F000149EFF1F159EFF1F169EFF1F179EFF1F92
:10290000A09BFF1F2E9CFF1F849DFF1FD49DFF1FB8
:102910007D9BFF1FB09BFF1F949DFF1F089EFF1F05
:10292000F09BFF1FEC9DFF1FA89BFF1FD59DFF1F66
:10293000849BFF1F2C9CFF1F009FFF1FF49BFF1F0A
:102940001C9CFF1F9E9BFF1F4C9DFF1FE89DFF1FB0
:10295000809BFF1FABAAAA2AD49BFF1F5489FF1F8D
:102960002D9DFF1F129CFF1F2C89FF1F554B564AA0
:102970001B681088554AA342B8BF2346994200F30A
:102980007A82534C12888342A8BF03462360002AF0
:102990007FF457AF9942C8BF134640F37382401A81
:1029A000B0F5804FAABF9B03C3EB8333013093FB89
:1029B000F0F0FDF779FEC0F3C6100DF0DFFB454BDC
:1029C000044618880DF0DAFB4349074620460DF00F
:1029D00029FC014638460DF025FC21460DF01AFB76
:1029E0004FF07E5104460DF0BBFD002841F0718090
:1029F0003A4920460DF0D2FD002840F06986204675
:102A00000DF0FCFDC0B2DFF8F48088F800001CE790
:102A1000334B34681988A14274DD324B1B78002B8C
:102A200070D1DFF8DC9099F800007F2840F33886F9
:102A3000A3F155337F3803F1004383FB0032C31702
:102A4000C3EB620303EB4303A0EB83007330264B1D
:102A500001931B88C0B289F80000002B41F035803B
:102A6000224B00931B78002B00F0A484204C237889
:102A7000002B00F09F841F4FDFF87C804FF0000A8E
:102A80000AE003F17300C0B206F0BCF923780AF142
:102A9000010A534540F38E8457F8043F99F800002B
:102AA0001844A0F17F0388FB0321DA17C2EB61020F
:102AB00002EB42027F28A3EB8203E2DCFDF7CCFDB0
:102AC000E1E700BF4C9DFF1FE89DFF1F9E9BFF1F7E
:102AD000809BFF1FF89DFF1FCDCCCC3D0000FE4228
:102AE0002C9CFF1FB09BFF1FD49BFF1FD49DFF1F7B
:102AF0005489FF1F2C89FF1FABAAAA2A129CFF1F13
:102B0000789DFF1FB34F38687F2800F3C281FDF71F
:102B1000A3FDDFF8249399F800A0824500F02182FC
:102B2000AD4B1B88002B43D1AC4AAD4812680088DE
:102B3000914205DC8242D4BFC1EB0203C1EB00032A
:102B4000411AB1F5804FA6BF9B030131C3EB83331C
:102B500093FBF1F0FDF7A8FDC0F3C6100DF00EFBDE
:102B6000A04B044618880DF009FB9F49804620467B
:102B70000DF058FB014640460DF054FB21460DF088
:102B800049FA4FF07E5104460DF0EAFC002840F06F
:102B90008F87964920460DF001FD002840F095856D
:102BA00020460DF02BFDC0B2DFF8908288F80000BF
:102BB000BAF17F0F40F3BD838D48AAF17F0A80FBF5
:102BC0000A304FEAEA73C3EB600000EB4000AAEB67
:102BD00080007330874B00931B78C0B289F80000E7
:102BE000002B40F01A83844B03931B78002B40F09A
:102BF0004B85824B02931B78002B40F07E87804BE5
:102C00000193029B1B78FBB17E4B1B88012B00F0CC
:102C1000C385022B01F05380032B01F09281042B1A
:102C200001F09D83052B01F03E84062B01F00D86FB
:102C3000072B01F0C187082B02F07880092B02F0E6
:102C40008C810A2B02F0C283009B1B78002B00F0C2
:102C50007684019B6A4C1988002900F0FD8438684D
:102C60007F2840F36383624B7F3883FB0032C317B6
:102C7000C3EB620303EB4303A0EB830073303860C4
:102C8000002940F0AC84009B1B78002B00F075817C
:102C90005D4C2378002B00F07081DFF8A4A1DFF8F1
:102CA0009C814FF0000B0CE003F17300C0B298F868
:102CB000001006F07FF823780BF1010B5B4540F321
:102CC0005C813B685AF8040F494A1844A0F17F031D
:102CD00082FB0321DA17C2EB610202EB42027F287A
:102CE000A3EB8203E0DCFDF7B7FCDFE7474B19609D
:102CF000474B1B68A92202FB03F3002BBCBF03F563
:102D00007F533F339B13543B194481F30C0128201C
:102D10000AF0BAFAFFF70EBB384C3E483549364A3E
:102D2000237003700B70137034E493424FF0000B68
:102D300080F2BC800123CDF800B0CDF814B004932C
:102D4000FFF76FBB344B1B78002B7FF4C2AB039BA8
:102D5000324A243B83F34703D9B25B20136006F069
:102D600001F899F80040032C30D1DFF8D88098F8AA
:102D70000030002B42F0BD81294F3B78002B42F000
:102D8000AB81254C2378002B42F09981254B1B7891
:102D9000002B42F08781244A1380244B1B78002BA0
:102DA00042F04D820C4B7F221A8098F800306BB9AC
:102DB0003B785BB923784BB91D4A7F2107201380EC
:102DC00005F0D0FF7F210B2005F0CCFF194B1F68C9
:102DD000FFF77FBB089EFF1F9E9BFF1F809BFF1F6F
:102DE000E89DFF1FF89DFF1FCDCCCC3D0000FE42AB
:102DF000ABAAAA2AD49DFF1F7D9BFF1F2E9CFF1FFD
:102E0000D49BFF1F429DFF1F5489FF1FA89BFF1FDC
:102E10008C89FF1F849DFF1F179EFF1FC09BFF1FF4
:102E2000169EFF1F159EFF1F229CFF1F189EFF1F4F
:102E3000769DFF1F909BFF1F789DFF1F129CFF1F19
:102E40002C89FF1F149EFF1FBA4A1078002840F0FB
:102E50005983B94A1268D2F17F0248BF033203EBAB
:102E6000A202531CB54A23609942B8BF1160FFF615
:102E70003FAF19463CE7B24B12881960002A7FF435
:102E8000E0AC0B469842D4BFC1EB0003C1EB030397
:102E900085E5AC4B7F3883FB0032C317C3EB62037D
:102EA00003EB4303A0EB8300733032E60123CDF83C
:102EB00010B0CDF800B00593FFF7B3BA01232B6033
:102EC000A14EA24CFFF7F1B9029B1B78FBB1A04BBE
:102ED0001B88012B00F0E284022B00F06F86032B8D
:102EE00001F0A580042B01F05F82052B01F05283D5
:102EF000062B01F0A284072B01F00685082B01F0B8
:102F00004C87092B02F04A800A2B02F02882019B91
:102F10001B88002B00F06C83009B1B783BB9039B44
:102F20001B7823B9029B1B78002B01F00080894B92
:102F30001B78002B00F0288187490B78082B00F2C2
:102F4000238186483A680068854C0133DBB25F1EF6
:102F5000101A44F827000B70824B3468198889F8DE
:102F60000020A142784EBFF61FAB32687E4B08921C
:102F7000089A764C1A60FFF798B9039B1B78002BD0
:102F8000A2D03B68A3F10C007F2840F36C836D480E
:102F90008B3B80FB0320DA17C2EB600000EB4000A4
:102FA000A3EB800303F17300DFF8D081C0B298F87F
:102FB000001005F0FFFE009B1B78002B84D0664CB0
:102FC0002378002B80D0DFF8B8A14FF0000B0CE085
:102FD00003F17300C0B298F8001005F0EBFE2378FF
:102FE0000BF1010B5B457FF76FAF3B685AF8040F9D
:102FF000544A1844A0F18B0382FB0321DA17C2EB79
:1030000061020C3802EB42027F28A3EB8203DFDC73
:10301000FDF722FBDEE74F4B1B78002B40F0EE82E2
:103020003B68524A1278002A45D0A3F10C007F2851
:1030300040F33383434A8B3B82FB0321DA17C2EB15
:10304000610202EB4202A3EB820303F17300C0B200
:1030500098F8001005F0AEFE009B1B7853B33E4C71
:1030600023783BB3DFF81891DFF8D8A04FF0000BBE
:103070000BE003F17300C0B298F8001005F09AFE5F
:1030800023780BF1010B5B4514DD3B6859F8040F05
:103090001844A0F18B038AFB0321DA17C2EB61020B
:1030A0000C3802EB42027F28A3EB8203E1DCFDF740
:1030B000D3FAE0E73B682E4A1278FAB1244A128824
:1030C000012A00F07284022A00F07786032A01F0B8
:1030D0002F80042A01F08C81052A01F0CE82062A75
:1030E00001F0D883072A01F0B484082A01F0CD86C4
:1030F000092A01F098870A2A02F0F980019A1288B9
:10310000002A00F08D821B4A104C137003232B60A1
:10311000FFF7CBB8DFF86C8098F80030002B40F058
:103120001081154F3B78002B40F0F984074C3B7021
:10313000FFF7BBB8D59DFF1F849BFF1FA89BFF1FF8
:10314000809BFF1FABAAAA2A009FFF1F509DFF1F55
:10315000429DFF1F849DFF1F5489FF1FA49BFF1FDB
:103160003089FF1F2C9CFF1FAC9EFF1F7D9BFF1F04
:103170002E9CFF1F789DFF1F9C9BFF1F129CFF1F13
:103180002C89FF1F749DFF1F3A68E5E6DBB21846E5
:10319000137005F0C5FDAC4BAC491A46AC4B184654
:1031A00000230B703B7013700370FFF70BB9DFF84F
:1031B000BC8298F80030002B40F0CF81A54F3B78BF
:1031C000002BB3D0A44BA54C1988A22005F04EFFCC
:1031D00098F800303B70FFF768B80123FFF734B967
:1031E00080249F499F4BA04A09881B8812680B4482
:1031F000B2EB630FBFF66DA99C4B1B78002B40F020
:103200001C82B8F800309A4AA3423FF462A9994B55
:10321000148001221A70FFF75CB9974B01931B8849
:10322000002B42F08A818A4B0393944B0293944C77
:1032300023786BB3DFF85C82DFF848A24FF0000B15
:1032400009E003F17300C0B205F0DCFD23780BF157
:10325000010B5B451CDD58F8043F99F80000184449
:10326000A0F17F038AFB0321DA17C2EB610202EBB4
:1032700042027F28A3EB8203E3DCFDF7EDF9E2E7EE
:103280007E4B029305F0BEFD009B1B78002BCED138
:10329000039B1B78002B3FF4B4AC99F80030A3F1EA
:1032A0000C007F2840F3ED8176488B3B80FB0320A8
:1032B000DA17C2EB600000EB4000A3EB800303F1E0
:1032C0007300C0B205F09EFD009B1B78002B00F040
:1032D000CD816B4C2378002B01F0C082DFF8B481E4
:1032E000DFF8A0A14FF0000B0AE003F17300C0B2B9
:1032F00005F088FD23780BF1010B5B457FF781AC6E
:1033000058F8043F99F800001844A0F18B038AFB99
:103310000321DA17C2EB61020C3802EB42027F286C
:10332000A3EB8203E1DCFDF797F9E0E7FDF794F901
:10333000A5E45046FDF790F94CE4FDF78DF9FFF751
:1033400097BA514A1278002A40F0D581414F434C38
:103350003B70FEF7AABF002008704C49087840B1C6
:10336000394900910978002900F0B581009F0021BA
:1033700039704749097800297FF4F0A8002C40F003
:10338000CE80002840F0CB80384C2F4F94F800E0DE
:103390002F4C0394394C02942D4C2C492070374CFF
:1033A0000097087038702070BEF1000F7FF4E8A815
:1033B000FFF7EFB8264B1B78002B6DD099F8003043
:1033C000A3F10C007F2840F3CC832E4A8B3B82FB79
:1033D0000321DA17C2EB610202EB4202A3EB820384
:1033E00003F17300C0B205F00DFD009B1B78002BAC
:1033F00052D0234C2378002B4ED0264FDFF8848008
:103400004FF0000A09E003F17300C0B205F0FAFCC6
:1034100023780AF1010A53453EDD57F8043F99F835
:1034200000001844A0F18B0388FB0321DA17C2EBDC
:1034300061020C3802EB42027F28A3EB8203E2DC3C
:10344000FDF70AF9E1E700BFD49DFF1F849DFF1F30
:103450007D9BFF1F9C9BFF1FC69DFF1F509DFF1F55
:10346000389DFF1F349DFF1FD09BFF1F749DFF1FC2
:10347000C49DFF1FA09BFF1FD49BFF1F2E9CFF1FFF
:103480005489FF1FABAAAA2AC89DFF1F189EFF1FC1
:10349000149EFF1F2C89FF1FA84B1B78FBB1A84B64
:1034A0001B88012B00F0D486022B00F0CF87032B62
:1034B00001F04A81042B01F0E481052B01F01B840B
:1034C000062B01F0DA84072B01F01F86082B01F090
:1034D000DD86092B01F0C9870A2B01F0A687019B25
:1034E0001B88002B00F0EC82964B1B78002B40F0E1
:1034F000E282954B954A19883468002001231060B8
:103500002B602EE50130C0B2022886BF0021117069
:1035100010701946FFF7ECBB0398002101708C492D
:10352000097800293FF435A88449029109780029D7
:1035300000F0B287029800210170FFF72AB8039BC0
:103540001B78002B7FF485AB029B1B78002B7FF44C
:1035500080AB019B1988FFF782BB7E4A1278002A54
:103560003FF4F4AE7C4F387802F0ECFE7B4B1B78D6
:10357000002B00F0BB8439887E2900F2B784784C98
:10358000DFF80C922368D9F800209B1A0F2B40F229
:103590009680744B01311B8889B239802BB1052B81
:1035A00003D0C9B2052005F0DDFB6F4F226898F803
:1035B0000030C9F800203B70FEF777BE243B002B9B
:1035C000B8F8000040F3788498423EF45AAF9BB2BA
:1035D0006648A8F8003001230370FEF752BFDFF8F9
:1035E0009081C0B298F8001005F0E4FBFFF74BBBE8
:1035F0005F4B3878197805F0DDFB8DE47F214020A2
:1036000005F0B0FB5B495C4A3B680B600021117020
:1036100007E5C0B298F8001005F0CCFBFFF72FB912
:10362000D8B298F8001005F0C5FB3B686BE5534B2A
:10363000DFF860E11978FEF724BF4B2C40F34C8291
:103640001834802CB8F800304D4AA8BF8024A3421B
:103650007FF4DDADFEF73DBF99F8000005F0D2FB29
:103660002188FFF7FCBAFCF7F7FF9DE4029B1B786B
:10367000002B7FF4C9AA039B1B78002B7FF4E9AAD7
:1036800067E7FCF7E9FF1CE63E4B01931B88002B24
:103690007FF4F6AD294B0293FFE5FCF7DDFFD6E49E
:1036A000FCF7DAFFFFF7D3B90132D2B2022A40F2B7
:1036B0005E82002202701946FFF71ABB284C2A4F7F
:1036C00098F800303B70FEF7F0BD7F20FFF76CBA32
:1036D0007F20FFF798B9194F1A4902974FF0000C55
:1036E00081F800C0009F02994FF0010E87F800E0BA
:1036F00081F800C03DE6244F387802F023FE174BD6
:103700001B78002B00F03A8239887E2900F236823D
:10371000134CDFF87C902368D9F800209B1A0F2BFC
:10372000CDD91A4B0131188889B23980002800F0B0
:103730004182C9B2C0B205F015FB36E72E9CFF1FCF
:10374000429DFF1F849DFF1F2C9CFF1F809BFF1F1E
:10375000749DFF1FC89DFF1FC69DFF1F199EFF1F61
:10376000509DFF1F329CFF1F9C9BFF1FA09BFF1FB4
:10377000129CFF1FA49BFF1F5489FF1FF79DFF1F73
:10378000C49DFF1FD49BFF1FCE9BFF1F089CFF1FE4
:10379000049EFF1FE59BFF1FDFF8B4A399F800000C
:1037A000BAF80030E34AE44CC31A82FB031ED9176F
:1037B000C1EB6E0101EB4101A3EB810303EB43037A
:1037C00054F8233018447F2840F3AE847F3882FBBE
:1037D0000032C317C3EB620303EB4303A0EB830088
:1037E0007330DFF870B3C0B205F00CFBBBF80030EB
:1037F000022B7FF629AA99F80010BAF80030CD4ABA
:10380000CB1A82FB030ED817C0EB6E0000EB400012
:10381000A3EB800303EB430304EB830358680844E2
:103820007F2840F320877F3882FB0032C317C3EB29
:10383000620202EB4202A0EB82007330C0B205F0DC
:10384000E1FABBF80030032B7FF6FEA999F80010CF
:10385000BAF80030B74ACB1A82FB030ED817C0EB78
:103860006E0000EB4000A3EB800303EB430304EB8B
:103870008304A06808447F2840F370817F3882FB6E
:103880000032C317C3EB620202EB4202A0EB8200DC
:103890007330C0B205F0B6FAFFF7D6B9DFF8B0A2C0
:1038A0003868BAF80030A34AA34CC31A82FB031E3F
:1038B000D917C1EB6E0101EB4101A3EB810303EBCF
:1038C000430354F8233018447F2840F329847F3879
:1038D00082FB0032C317C3EB620303EB4303A0EB8D
:1038E00083007330DFF87082DFF868B298F8001058
:1038F000C0B205F05FFABBF80030022B7FF607ABD1
:103900003968BAF800308B4ACB1A82FB030ED817FD
:10391000C0EB6E0000EB4000A3EB800303EB43031E
:1039200004EB8303586808447F2840F398867F3867
:1039300082FB0032C317C3EB620202EB4202A0EB30
:1039400082007330C0B298F8001005F033FABBF86B
:103950000030032B7FF6DBAA3968BAF80030754ACD
:10396000CB1A82FB030ED817C0EB6E0000EB4000B1
:10397000A3EB800303EB430304EB8304A068084438
:103980007F2840F3F8807F3882FB0032C317C3EBF7
:10399000620202EB4202A0EB8200733098F8001042
:1039A000C0B205F007FAFFF7B2BADFF8A4A1614987
:1039B000BAF80020604C9A1A81FB020ED017C0EBB7
:1039C0006E0000EB4000A2EB800202EB420254F8D2
:1039D000220018447F2840F32284A0F17F0381FB5A
:1039E0000321DA17C2EB610000EB4000A3EB80007B
:1039F0007330DFF860B198F80010C0B205F0DAF962
:103A0000BBF80030022B50D93968BAF80030494A67
:103A1000CB1A82FB030ED817C0EB6E0000EB400000
:103A2000A3EB800303EB430304EB830358680844D0
:103A30007F2840F385867F3882FB0032C317C3EBB3
:103A4000620202EB4202A0EB82007330C0B298F82F
:103A5000001005F0AFF9BBF80030032B25D938680A
:103A6000BAF80030334AC31A82FB031ED917C1EBE0
:103A70006E0101EB4101A3EB810303EB430304EB74
:103A80008304A36818447F286EDD7F3882FB0032F0
:103A9000C317C3EB620202EB4202A0EB8200733059
:103AA000C0B298F8001005F085F93B68FFF726BB17
:103AB0000120FFF779B80021402005F053F918E5FF
:103AC00099F8000005F09EF90EE505F09BF9FEF768
:103AD000C7BF0120FEF797BF243C002CB8F8003088
:103AE00040F3C585A3423EF4F4ACA4B2134BA8F84E
:103AF000004001221A70FEF7ECBC114B01931B88A9
:103B0000002B7FF4BFABFFF77CB80E498342A8BF00
:103B100003460B60FEF795BE1446FFF76DBB0A4BDC
:103B20000A4C19886A2005F0A1FA98F800303B7019
:103B3000FEF7BBBBABAAAA2A3C1B0100A09BFF1F40
:103B4000D49BFF1F809BFF1FCE9BFF1F509DFF1F1D
:103B5000809DFF1FB49BFF1F129CFF1FFCF77CFD85
:103B600097E6FCF779FD3DE4FCF776FD98E70270F7
:103B70001946FFF7BDB8FCF76FFD0FE7D14B1B7877
:103B8000002B3FF49BAD3B88CF4F002B3FF496AD0D
:103B9000CE4CDFF848932268D9F80010521A0F2A49
:103BA0007FF68DADCA4A013B108899B23980002852
:103BB0007FF4BFADC8B205F049F9F6E4DFF820A301
:103BC0003868BAF80030C34AC34CC31A82FB031EDC
:103BD000D917C1EB6E0101EB4101A3EB810303EBAC
:103BE000430354F8233018447F2840F325847F385A
:103BF00082FB0032C317C3EB620303EB4303A0EB6A
:103C000083007330DFF8DC82DFF8DCB298F8001054
:103C1000C0B205F0CFF8BBF80030022B7FF677A9D1
:103C20003968BAF80030AB4ACB1A82FB030ED817BA
:103C3000C0EB6E0000EB4000A3EB800303EB4303FB
:103C400004EB8303586808447F2840F30E867F38CE
:103C500082FB0032C317C3EB620303EB4303A0EB09
:103C600083007330C0B298F8001005F0A3F8BBF8D9
:103C70000030032B7FF64BA93868BAF80030954A1C
:103C8000C31A82FB031ED917C1EB6E0101EB410180
:103C9000A3EB810303EB430304EB8304A368184401
:103CA0007F287FF768AF7F3882FB0032C317C3EBF2
:103CB000620303EB4303A0EB830073306EE6DFF88F
:103CC00020A299F80000BAF80030824A824CC31A48
:103CD00082FB031ED917C1EB6E0101EB4101A3EB7F
:103CE000810303EB430354F8233018447F2840F347
:103CF000A7837F3882FB0032C317C3EB620303EB59
:103D00004303A0EB83007330DFF8DCB1C0B205F0F1
:103D100079F8BBF80030022B7EF696AF99F80010C8
:103D2000BAF800306B4ACB1A82FB030ED817C0EBEF
:103D30006E0000EB4000A3EB800303EB430304EBB6
:103D40008303586808447F2840F393857F3882FBBB
:103D50000032C317C3EB620303EB4303A0EB830002
:103D60007330C0B205F04EF8BBF80030032B7EF67E
:103D70006BAF99F80010BAF80030564ACB1A82FBA4
:103D8000030ED817C0EB6E0000EB4000A3EB8003DE
:103D900003EB430304EB8304A06808447F287FF708
:103DA000DDAE7F3882FB0032C317C3EB620303EB47
:103DB0004303A0EB830073306BE5DFF824A1454992
:103DC000BAF80020444C9A1A81FB020ED017C0EBBF
:103DD0006E0000EB4000A2EB800202EB420254F8BE
:103DE000220018447F2840F32E83A0F17F0381FB3B
:103DF0000321DA17C2EB610000EB4000A3EB800067
:103E00007330DFF8E4B098F80010C0B204F0D2FFCD
:103E1000BBF80030022B7FF648AE3968BAF80030A4
:103E20002C4ACB1A82FB030ED817C0EB6E0000EBB6
:103E30004000A3EB800303EB430304EB83035868C8
:103E400008447F2840F319857F3882FB0032C3176E
:103E5000C3EB620303EB4303A0EB83007330C0B2F8
:103E600098F8001004F0A6FFBBF80030032B7FF693
:103E70001CAE3868BAF80030164AC31A82FB031E1B
:103E8000D917C1EB6E0101EB4101A3EB810303EBF9
:103E9000430304EB8304A36818447F287FF764AED0
:103EA0007F3882FB0032C317C3EB620303EB43038B
:103EB000A0EB83007330F3E501283EF4E2AA01236E
:103EC000FFF786BB189EFF1FCE9BFF1F509DFF1F55
:103ED000089CFF1FABAAAA2A5C1C0100049EFF1FBE
:103EE000809DFF1F129CFF1FB49BFF1FCE4B1B78B2
:103EF000002B3FF4E3AB3B88CC48002B3FF4DEAB18
:103F0000CB4CDFF83C932268D9F80010521A0F2AE4
:103F10007FF6D5ABC74A013B128899B20180002ACF
:103F20003FF443AB052A7FF43CABFFF73EBB4FF4B5
:103F30007A43013BFDD199F8000004F063FFFEF7DE
:103F4000F6BFDFF800A399F80000BAF80030BA4ACB
:103F5000BA4CC31A82FB031ED917C1EB6E0101EBE9
:103F60004101A3EB810303EB430354F823301844CE
:103F70007F2840F3E8817F3882FB0032C317C3EB10
:103F8000620202EB4202A0EB82007330DFF8B8B2AB
:103F9000C0B204F037FFBBF80030022B7EF654AEFF
:103FA00099F80000BAF80030A34AC31A82FB032133
:103FB000DA17C2EB610202EB4202A3EB820303EBCE
:103FC000430304EB83035B6818447F2840F31F849A
:103FD0007F380C2290FBF2F302FB13007330C0B267
:103FE00004F010FFBBF80030032B7EF62DAE99F8DD
:103FF0000000BAF80030904AC31A82FB0321DA1796
:10400000C2EB610202EB4202A3EB820303EB430328
:1040100004EB8304A36818447F287FF79FAD7F38A3
:104020000C2290FBF2F302FB1300733031E4DFF853
:1040300014A23868BAF800307F4A804CC31A82FB59
:10404000031ED917C1EB6E0101EB4101A3EB810304
:1040500003EB430354F8233018447F2840F3708166
:104060007F3882FB0032C317C3EB620202EB4202CD
:10407000A0EB82007330DFF8D481DFF8CCB198F880
:104080000010C0B204F096FEBBF80030022B7EF6A2
:104090003EAF3868BAF80030674AC31A82FB032182
:1040A000DA17C2EB610202EB4202A3EB820303EBDD
:1040B000430304EB83035B6818447F2840F3AB831E
:1040C0007F380C2290FBF2F302FB13007330C0B276
:1040D00098F8001004F06EFEBBF80030032B7EF65B
:1040E00016AF3868BAF80030534AC31A82FB03216E
:1040F000DA17C2EB610202EB4202A3EB820303EB8D
:10410000430304EB8304A36818447F287FF733AD8F
:104110007F380C2290FBF2F302FB130073303DE476
:10412000FCF79AFAFFF7DEBBFCF796FAFFF759BBEC
:10413000DFF810A14049BAF80020404C9A1A81FBE0
:10414000020ED017C0EB6E0000EB4000A2EB800225
:1041500002EB420254F8220018447F2840F3F68014
:10416000A0F17F0381FB0321DA17C2EB610101EBB0
:104170004101A3EB81007330DFF8CCB098F8001058
:10418000C0B204F017FEBBF80030022B7FF68DACF6
:104190003868BAF80030284AC31A82FB0321DA17BC
:1041A000C2EB610202EB4202A3EB820303EB430387
:1041B00004EB83035B6818447F2840F338837F381F
:1041C0000C2290FBF2F302FB13007330C0B298F89C
:1041D000001004F0EFFDBBF80030032B7FF665AC58
:1041E0003868BAF80030144AC31A82FB0321DA1780
:1041F000C2EB610202EB4202A3EB820303EB430337
:1042000004EB8304A36818447F287FF7ADAC7F38A4
:104210000C2290FBF2F302FB1300733040E4FCF736
:104220001BFAFFF7E6BB00BF189EFF1FC69DFF1FCE
:10423000509DFF1F329CFF1FABAAAA2AEC1C010055
:10424000049EFF1F809DFF1FB49BFF1F129CFF1F3A
:10425000DFF838A399F80000BAF80030C34AC44C1C
:10426000C31A82FB0317D917C1EB670101EB4101A8
:10427000A3EB810303EB430354F8233018447F2856
:104280006ADD7F3882FB0032C317C3EB620202EBA8
:104290004202A0EB82007330DFF8F4B2C0B204F047
:1042A000B1FDBBF80030022B7FF619A999F8000088
:1042B000BAF80030AD4AC31A82FB0321DA17C2EB09
:1042C000610202EB4202A3EB820303EB430304EB24
:1042D00083035B6818447F2840F3AC827F380C224C
:1042E00090FBF2F302FB13007330C0B204F08AFDBE
:1042F000BBF80030032B7FF6F2A899F80000BAF85B
:1043000000309A4AC31A82FB0321DA17C2EB61021A
:1043100002EB4202A3EB820303EB430304EB8304AF
:10432000A36818447F2814DD7F380C2290FBF2F339
:1043300002FB13007330C0B204F064FDFFF7CFB886
:10434000FCF78AF997E6FCF787F91FE6FCF784F992
:1043500012E7FCF781F9EEE7FCF77EF99CE7DFF85E
:104360002CA299F80000BAF80030804A814CC31A98
:1043700082FB031ED917C1EB6E0101EB4101A3EBD8
:10438000810303EB430354F8233018447F28DADD1C
:104390007F3882FB0032C317C3EB620303EB430396
:1043A000A0EB83007330F1E5DFF8E0A13868BAF8DC
:1043B00000306E4A6F4CC31A82FB031ED917C1EB43
:1043C0006E0101EB4101A3EB810303EB430354F8BE
:1043D000233018447F28B3DD7F3882FB0032C317B7
:1043E000C3EB620303EB4303A0EB8300733042E6AD
:1043F000DFF898A15D49BAF800205E4C9A1A81FB5B
:10440000020ED017C0EB6E0000EB4000A2EB800262
:1044100002EB420254F8220018447F2896DDA0F1F6
:104420007F0381FB0321DA17C2EB610000EB400040
:10443000A3EB800073309FE6FCF70EF9FFF7E2BBB9
:10444000FCF70AF960E4FCF707F9DAE4DFF83CA1CD
:1044500099F80000BAF80030444A474CC31A82FB6E
:104460000317D917C1EB670101EB4101A3EB8103EE
:1044700003EB430354F8233018447F287FF76CAFD5
:104480007F3882FB0032C317C3EB620303EB4303A5
:10449000A0EB83007330FFE6384800903848394974
:1044A0000390FEF76DB8DFF8E4A099F80000BAF8C1
:1044B00000302E4A344CC31A82FB0321DA17C2EBB8
:1044C000610202EB4202A3EB820303EB430354F8C5
:1044D000233018447F2840F3A7817F380C2290FBBB
:1044E000F2F302FB13007330DFF8A4B0C0B204F0A3
:1044F00089FCBBF80030022B19D999F80000BAF8F2
:1045000000300C22C11A91FBF2F302FB131302FBE1
:1045100003435B6818447F2840F385847F3890FB11
:10452000F2F302FB13007330C0B204F06BFCBBF873
:104530000030032B7EF688ABBAF8003099F8000003
:104540000C22C11A91FBF2F302FB131302FB03448A
:10455000A36818447F287FF701AB7F3890FBF2F304
:1045600002FB13007330FFF794B900BFABAAAA2A6D
:104570003C1B0100A81E01005C1C0100D49DFF1F14
:104580007D9BFF1F849DFF1F00200100809DFF1F5A
:10459000B49BFF1FDFF864A33868BAF80030CE4A36
:1045A000CE4CC31A82FB0321DA17C2EB610202EB85
:1045B0004202A3EB820303EB430354F82330184475
:1045C0007F2840F32E817F380C2290FBF2F302FB10
:1045D00013007330DFF82883DFF828B398F8001051
:1045E000C0B204F0E7FBBBF80030022B1AD93868E0
:1045F000BAF800300C22C11A91FBF2F302FB13133C
:1046000002FB03435B6818447F2840F3C3837F3871
:1046100090FBF2F302FB13007330C0B298F8001065
:1046200004F0C8FBBBF80030032B7EF670ACBAF880
:10463000003038680C22C11A91FBF2F302FB13130D
:1046400002FB0344A36818447F287FF794AA7F38AD
:1046500090FBF2F302FB13007330FFF79FB9FBF7F7
:10466000FBFFFFF76FB9FBF7F7FFFFF7E7B8012B89
:104670003DF42FAF0124FFF739BADFF880A2964945
:10468000BAF80020954C9A1A81FB0210D117C1EBA1
:10469000600101EB4101A2EB810202EB420254F8FE
:1046A000220018447F2840F3B980A0F17F030C203A
:1046B00093FBF0F200FB12307330DFF848B298F849
:1046C0000010C0B204F076FBBBF80030022B1AD900
:1046D0003868BAF800300C22C11A91FBF2F302FBE1
:1046E000131302FB03435B6818447F2840F34F8396
:1046F0007F3890FBF2F302FB13007330C0B298F8DE
:10470000001004F057FBBBF80030032B7FF6CDA957
:10471000BAF8003038680C22C11A91FBF2F302FBA0
:10472000131302FB0344A36818447F287FF71CAAD5
:104730007F3890FBF2F302FB13007330FFF7B0B940
:10474000FBF78AFFFFF782B9DFF8B0A199F8000004
:10475000BAF80030604A624CC31A82FB0321DA17B0
:10476000C2EB610202EB4202A3EB820303EB4303C1
:1047700054F8233018447F2846DD7F380C2290FB04
:10478000F2F302FB13007330DFF878B1C0B204F02B
:1047900039FBBBF80030022B19D999F80000BAF8A0
:1047A00000300C22C11A91FBF2F302FB131302FB3F
:1047B00003435B6818447F2840F38B807F3890FB6D
:1047C000F2F302FB13007330C0B204F01BFBBBF822
:1047D0000030032B7EF683AEBAF8003099F8000063
:1047E0000C22C11A91FBF2F302FB131302FB0344E8
:1047F000A36818447F287FF7ACAD7F3890FBF2F3B5
:1048000002FB1300733096E5FBF726FFBCE7FBF7CE
:1048100023FFFFF7E4BBFBF71FFF58E4FBF71CFF88
:104820004BE7FBF719FFD5E6FBF716FF5CE6FBF756
:1048300013FFCBE4FBF710FF57E5DFF8C0A03868A3
:10484000BAF80030244A274CABE6DFF8B0A099F85C
:104850000000BAF80030204A224C2CE6029B1B785C
:10486000002B7EF4D1A9FEF7F4B9FBF7F5FEFFF7B4
:10487000F9B9FBF7F1FEFFF774BAFBF7EDFEFFF7AE
:10488000EEBADFF878A099F80000BAF80030124AC2
:10489000154C61E7DFF864A00F49BAF80020114C0D
:1048A000F1E6124B1B78002B00F0C182104B1B78F5
:1048B000002B7DF40EAE0F4B1B78002B3DF409AEA0
:1048C000B8F800300C490A33A8F800300A70FDF738
:1048D00000BEFBF7C1FE77E7ABAAAA2A00200100C1
:1048E000EC1C0100181E0100A81E0100159EFF1FF0
:1048F000169EFF1F179EFF1FA09BFF1F809DFF1F7F
:10490000129CFF1FB49BFF1FA44C2388002B40F078
:10491000BE83DFF8A0B2A249A24A0988D7F8008076
:10492000B2F800E0A048C1EB080C0C229CFBF2F1AD
:1049300002FB11C14FF0900C0CFB0EFE02FB01E1DB
:104940006FF00B0E405880440EFB03807F2840F32D
:104950000285A0F17F0393FBF2F002FB103073306D
:10496000924BC0B2197804F025FABBF800202388D6
:104970001344022B23DD8A4A8A4B11883868B3F826
:1049800000C0DFF824E2411A0C2291FBF2F302FB93
:104990001311902303FB0CF302FB013373445B6898
:1049A00018447F2840F3AD857F3890FBF2F302FB7B
:1049B000130073307D4BC0B2197804F0FBF9BBF8DB
:1049C000002023881344032B23DD754A754B11887F
:1049D0003868B3F800C0DFF8D0E1411A0C2291FB2F
:1049E000F2F302FB1311902303FB0CF302FB0133E0
:1049F00073449B6818447F2840F35D857F3890FBA3
:104A0000F2F302FB13007330684BC0B2197804F064
:104A1000D1F9BBF8002023881344042B7EF777AA32
:104A2000634B1B88012B7EF472AA3A68A2F10C003A
:104A30007F2840F38F828B3A0C2092FBF0F300FB2F
:104A400013207330594BC0B2197804F0B3F9FEF754
:104A50005EBA524C2288002A00F0D7825449DFF80F
:104A600054B10988BBF800000331884227DD4C4867
:104A70004C490088B1F800E0DFF82CC1181A0C216D
:104A800090FBF1F901FB19004FF0900909FB0EFEB4
:104A900001FB00E06FF00B0E5CF8000003440EFB1E
:104AA00002307F2840F3B7847F3890FBF1F301FB9D
:104AB00013007330C0B298F8001004F07BF9BBF813
:104AC000002023881344022B23DD354B354A3868F8
:104AD0001B88B2F800C0DFF8D0E0C31A0C2193FBAA
:104AE000F1F201FB1232902303FB0CF301FB0233C2
:104AF00073445B6818447F2840F3E4847F3890FB5C
:104B0000F1F301FB13007330C0B298F8001004F009
:104B100051F9BBF8002023881344032B23DD204BDD
:104B2000204A38681B88B2F800C0DFF87CE0C31A5E
:104B30000C2193FBF1F201FB1232902303FB0CF3E7
:104B400001FB023373449B6818447F2840F3C184FF
:104B50007F3890FBF1F301FB13007330C0B298F87B
:104B6000001004F027F9BBF8002023881344042B1D
:104B70007EF79BAF0E4B1B88012B7EF496AF3A68F5
:104B8000A2F10C007F287EF7EFAF8B3A0C2092FB4E
:104B9000F0F300FB13207330FEF782BF149CFF1F5D
:104BA000809DFF1F2E9DFF1F90170100129CFF1F6D
:104BB000EE9BFF1FB49BFF1FCE4C2388002B40F0C1
:104BC0002782DFF864B3CC49CC4A098899F8000001
:104BD000B2F800E0DFF85483C1EB000C0C229CFB20
:104BE000F2F102FB11C14FF0900C0CFB0EFE02FB28
:104BF00001E16FF00B0E58F8011008440EFB0300A2
:104C00007F2840F30484A0F17F0393FBF2F002FBC2
:104C100010307330C0B204F0F5F8BBF800202388E0
:104C20001344022B22DDB44AB44B118899F80000DA
:104C3000B3F800C0DFF8F4E2411A0C2291FBF2F362
:104C400002FB1311902303FB0CF302FB01337344AB
:104C50005B6818447F2840F3E5837F3890FBF2F3CC
:104C600002FB13007330C0B204F0CCF8BBF8002094
:104C700023881344032B22DD9F4AA04B118899F807
:104C80000000B3F800C0DFF8A4E2411A0C2291FB47
:104C9000F2F302FB1311902303FB0CF302FB01332D
:104CA00073449B6818447F2840F302847F3890FB4C
:104CB000F2F302FB13007330C0B204F0A3F8BBF8A8
:104CC000002023881344042B7DF7BEAF8C4B1B8838
:104CD000012B7DF4B9AF99F80020A2F10C007F28D8
:104CE0007EF73CAF8B3A0C2092FBF0F300FB1320D5
:104CF0007330FEF7CEBDDFF800A299F80000BAF8D5
:104D00000030804CC11A0C2291FBF2F302FB13130A
:104D100002FB03F3E35818447F287FF775AD7F3813
:104D200090FBF2F302FB130073302DE5764B1B88EA
:104D3000182B12D099F800201344A3F118007F28F3
:104D400040F3DC830C20973B93FBF0F200FB123323
:104D500003F17300C0B204F055F86C4A6C4B127842
:104D600033F81230182B3DF46FAF99F8002013443C
:104D7000A3F118007F287EF7F1AE0C20973B93FB40
:104D8000F0F200FB123303F17300FEF782BDFBF774
:104D900063FCB3E4FBF760FC3FE45B4B1A88182A22
:104DA00013D03B681344A3F118007F2840F37D83A0
:104DB0000C20973B93FBF0F200FB123303F17300DE
:104DC000544BC0B2197803F0F5FF504B50491A7894
:104DD000022A94BF013200221A701A7831F81200A8
:104DE000182810D10424022A02F10100C2B288BF9F
:104DF000002231F81200182804D1013CF3D11A70B6
:104E0000FEF785B81A703B680344A3F118007F28A9
:104E100040F3A0800C20973B93FBF0F200FB123391
:104E200003F173000EE6FBF717FCFFF77DBB3A4B6F
:104E30001B78002B7DF486AF384B1B78002B3DF49C
:104E400048ABB8F8003036490133A8F800300A7092
:104E5000FDF73FBB304B1B78002B7DF43AAB2F4B5B
:104E60001B78002B3DF435ABB8F800302C49013BE2
:104E7000A8F800300A70FDF72CBBDFF87CA099F889
:104E80000000BAF80030274C3CE71F4A1288182A65
:104E900012D01344A3F118007F2840F3C0820C20E5
:104EA000973B93FBF0F200FB123303F17300C0B2A7
:104EB00098F8001003F07EFF144B15491A78022A67
:104EC00094BF013200221A701A7831F812001828A3
:104ED0002FD10424022A02F10100C2B288BF0022AD
:104EE00031F81200182823D1013CF3D11A703B6825
:104EF000FEF704B9149CFF1F809DFF1F2E9DFF1F0E
:104F0000EE9BFF1F00200100BE9BFF1F139CFF1F95
:104F10009C9DFF1F129CFF1F169EFF1F179EFF1FC9
:104F2000A09BFF1F181E0100B49BFF1F90170100DC
:104F30001A703B680344A3F118007F287EF714AE73
:104F40000C20973B93FBF0F200FB123303F173004C
:104F5000FEF7A6BDFBF780FB74E5BF4B1B88182B43
:104F600012D099F800201344A3F118007F2840F3D1
:104F7000AD820C20973B93FBF0F200FB123303F160
:104F80007300C0B203F03EFFB44AB54B127833F859
:104F90001230182B7FF4E9AEFDF756BEAE4B1A88DF
:104FA000182A13D03B681344A3F118007F2840F35C
:104FB00086820C20973B93FBF0F200FB123303F147
:104FC0007300A84BC0B2197803F0F4FEA34BA449B8
:104FD0001A78022A94BF013200221A701A7831F826
:104FE000120018287FF40FAF0424022A02F10102F4
:104FF00094BFD2B2002231F8120018287FF402AF19
:10500000013CF2D11A70FDF782BFDFF87CB22EE5C9
:10501000954ADFF874B21288BBF80010033291424F
:105020007FF7FBADCFE58C4A1288182A12D01344C3
:10503000A3F118007F2840F35E820C20973B93FB7E
:10504000F0F200FB123303F17300C0B298F80010C5
:1050500003F0B0FE814B82491A78022A94BF0132D4
:1050600000221A701A7831F8120018287FF461AF04
:105070000424022A02F1010294BFD2B2002231F8C4
:10508000120018287FF454AF013CF2D12EE7764A83
:10509000DFF8F4B11288BBF80010033291427FF7B9
:1050A00064AC38E4714B01227F2107201A8003F0A1
:1050B00059FE7F210B2003F055FEFDF76EBE6C4BB1
:1050C00004227F2107201A8003F04CFE00210B20D0
:1050D00003F048FEFDF75ABE654B02227F210720F0
:1050E0001A8003F03FFE7F210B2003F03BFEFDF70B
:1050F00048BE5F4B002107201C8003F033FE7F2158
:105100000B2003F02FFEFDF737BE5A4C2388002BEF
:1051100040F0E681DFF870B1574999F80000574A2E
:1051200009881788DFF858E1411A0C2291FBF2FC3C
:1051300002FB1C114FF0900C0CFB07F702FB0171F6
:105140006FF00B075EF80110014407FB03107F2886
:1051500040F3C3817F3890FBF2F302FB13007330FE
:10516000C0B203F04FFEBBF8002023881344022B8B
:1051700021DD414B414A99F800001B88B2F800E05C
:105180003F4FC31A0C2193FBF1F201FB1232902323
:1051900003FB0EF301FB02333B445B6818447F289A
:1051A00040F3C8817F3890FBF1F301FB13007330AB
:1051B000C0B203F027FEBBF8002023881344032B62
:1051C00021DD2D4B2D4A99F800001B88B2F800E034
:1051D0002B4FC31A0C2193FBF1F201FB12329023E7
:1051E00003FB0EF301FB02333B449B6818447F280A
:1051F00040F39D817F3890FBF1F301FB1300733086
:10520000C0B203F0FFFDBBF8002023881344042B39
:105210007EF765A9144B1B88012B7EF460A999F8D1
:105220000020A2F10C007F287FF793A88B3A0C2076
:1052300092FBF0F300FB13207330FFF77CB8114BA7
:1052400000227F2107201A8003F08CFD7F210B2094
:1052500003F088FDFDF7A9BDC69BFF1F139CFF1F30
:10526000149DFF1F129CFF1FEE9BFF1F229CFF1F20
:10527000769DFF1F149CFF1F809DFF1F2E9DFF1F0B
:10528000901701009E9BFF1FB49BFF1FB04B1B8814
:10529000182B12D099F800201344A3F118007F288E
:1052A00040F33C810C20973B93FBF0F200FB123360
:1052B00003F17300C0B203F0A5FDA64AA64B127815
:1052C00033F81230182B3EF40AA999F80020134441
:1052D000A3F118007F287FF73CA80C20973B93FB95
:1052E000F0F200FB123303F17300FFF724B89B4A7E
:1052F0001288182A12D01344A3F118007F2840F313
:1053000007810C20973B93FBF0F200FB123303F173
:105310007300C0B298F8001003F04CFD8D4B90491B
:105320001A78022A94BF013200221A701A7831F8D2
:10533000120018287FF4FDAD0424022A02F10102B4
:1053400094BFD2B2002231F8120018287FF4F0ADD9
:10535000013CF2D1CAE5FBF77FF9FFF701BB7F4BB8
:105360001A88182A13D03B681344A3F118007F2829
:1053700040F3DA800C20973B93FBF0F200FB1233F2
:1053800003F17300774BC0B2197803F013FD714B32
:1053900073491A78022A94BF013200221A701A78CF
:1053A00031F8120018287FF42EAD0424022A02F1ED
:1053B000010294BFD2B2002231F8120018287FF403
:1053C00021AD013CF2D11A70FDF7A1BD634B1B88E2
:1053D000182B12D099F800201344A3F118007F284D
:1053E00040F393800C20973B93FBF0F200FB1233C9
:1053F00003F17300C0B203F005FD564A584B127812
:1054000033F81230182B7FF4B0ACFDF71DBCFBF75E
:1054100023F9FFF7FFBBFBF71FF9FFF74BBBFBF7C8
:105420001BF944E5FBF718F91DE44C4B1B88182BBE
:1054300011D099F800201344A3F118007F286ADDE9
:105440000C20973B93FBF0F200FB123303F1730047
:10545000C0B203F0D7FC3F4A414B127833F8123008
:10546000182B7FF432AFFEF73AB83F4B1B88182B4E
:1054700011D099F800201344A3F118007F2850DDC3
:105480000C20973B93FBF0F200FB123303F1730007
:10549000C0B203F0B7FC2F4A344B127833F8123005
:1054A000182B7FF412AFFEF71AB8FBF7D5F887E494
:1054B000FBF7D2F800E4FBF7CFF8FFF7A5BAFBF74C
:1054C000CBF87EE5FBF7C8F8FFF71EBBFBF7C4F887
:1054D00057E5FBF7C1F8FFF741BBFBF7BDF83FE627
:1054E000234ADFF898B01288BBF8001003329142CB
:1054F0007FF739AE10E6FBF7AFF8A6E5FBF7ACF89F
:1055000028E4FBF7A9F8FFF755BAFBF7A5F871E710
:10551000FBF7A2F8FDE6FBF79FF899E7FBF79CF88D
:10552000C8E6FBF799F8B3E7FBF796F82AE7FBF72D
:1055300093F865E6FBF790F83AE60E4B03930E4BB3
:105540000293FDF79FBE23601946FDF7D1BB00BF54
:10555000BE9BFF1F139CFF1F9C9DFF1FC89BFF1F2F
:105560001C9DFF1F129CFF1FC69BFF1F149DFF1F4A
:10557000EE9BFF1F7D9BFF1F2E9CFF1FB49BFF1FF9
:1055800038B507F097FB0B4805F0CEFA00234FF033
:105590007E5201210848FAF769FF084B084A094979
:1055A000802400251C7118461D60BDE838400BF0B2
:1055B00045B800BF209CFF1F549DFF1FD89DFF1FB3
:1055C0001C89FF1FFD05000010B50446A420636878
:1055D000198803F04BFDE368A6201988BDE8104048
:1055E00003F044BD43682A20198803F03FBD00BF83
:1055F00010B5044622206368198803F037FDE3687C
:1056000024201988BDE8104003F030BD10B50446D1
:105610000A206368198803F029FDE3680C201988C3
:10562000BDE8104003F022BD10B5044606206368B3
:10563000198803F01BFDE36808201988BDE81040B5
:1056400003F014BD10B5044602206368198803F006
:105650000DFDE36804201988BDE8104003F006BD85
:1056600070B50E4C84B01225042201230646039027
:10567000029320468DE824001423102106F058FCE4
:1056800006220923029303960195204600921423D3
:10569000102106F04DFC04B070BD00BF489EFF1FF6
:1056A00070B5AE4CB4F90030032B00F0E880002B4D
:1056B0004DD0022B6CD0052B00F09880012B00F010
:1056C000C080042B00D070BD00244FF4AF75E1B250
:1056D000A34805F091FA01348542A8BF05460C2C79
:1056E000F5D1012008F08EF90446002008F08AF96F
:1056F000323CA0F132039B496FF4957000FB03F339
:1057000000FB04F081FB034281FB0041DB17C01763
:10571000C3EB6223C0EB612003F5AF7200F5AF73FA
:105720009342A8BF13469D42A8BF1D46A5F1140190
:10573000312900F3E28040F26C7332218A488B4AAF
:105740000180BDE870402A20136003F08FBC0E205A
:1057500007F014FA40F6FF71C8308842A8BF084627
:1057600020EAE07000F5FA6283B28A42804D814EF1
:10577000A8BF0A460220194633802A8003F076FC2F
:105780002988042003F072FCB4F90030022B92D176
:10579000172008F037F90546162008F033F9A8421B
:1057A000B8BF284600F1C801B1F5FA7FC0F2BF804A
:1057B000B1F57A6FA8BF4FF47A6101F54873B3F57C
:1057C0007A6FA8BF4FF47A639BB289B26A4A6B4D75
:1057D00011800A202B8003F049FC29880C2003F05B
:1057E00045FCB4F90030052B7FF468AF0F2008F0BA
:1057F00009F9C0F53F630433B3F5AF6FC0F28F8092
:10580000B3F5FA6FA8BF4FF4FA6399B25C4BC0F5D9
:105810004360B0F5AF6F19807EDBB0F5FA6FA8BFBB
:105820004FF4FA6083B2574DA4202B8003F01EFC86
:105830002988A62003F01AFCB4F90030012B7FF46C
:1058400040AF0B2007F0B6FE00283CD0112008F036
:10585000D9F800F1C801B1F52F7F3CDB41F25C23A0
:10586000994278DC484A00F5487089B2B0F52F7F3C
:1058700011806DDB8342A8BF03469BB231E010204C
:1058800008F0C0F8C830B0F5FA7F4BDBB0F57A6F9E
:105890000146A8BF4FF47A6101F51673B3F57A6F2C
:1058A000A8BF4FF47A639BB289B2384A384D118051
:1058B00022202B8003F0DAFB2988242003F0D6FB7A
:1058C000B4F90030F3E6152007F058F900F59671A9
:1058D000B1F52F7F30DA40F214534FF42F712A4A7A
:1058E00011802C4D06202B8003F0C0FB2988082056
:1058F00003F0BCFBB4F90030E3E640F23A72A5F5E0
:10590000B975254B02FB05F583FB0523ED17A5EBC8
:10591000631389B2323311E74FF4AF6383E74FF477
:10592000AF6173E740F24C434FF4FA71BDE740F2C8
:1059300014534FF4FA7149E741F25C2399420ADCAF
:10594000114A00F5617089B2B0F52F7F118091DAAC
:105950004FF42F73C5E71946C1E700BF229EFF1F12
:10596000209CFF1F67BBCF46E09DFF1F9489FF1F50
:10597000E89DFF1F2C9CFF1F8C9DFF1FC49BFF1FDA
:10598000309CFF1FAE9DFF1FAC9DFF1F389DFF1F6A
:10599000349DFF1FC09DFF1FB5814E1B2DE9F041B7
:1059A000224D82B0012602B284B2009228460196AE
:1059B0007823192106F002FA04F10C0212B28DE8E4
:1059C00044002846A7197823192104F1020806F09B
:1059D000F5F93FB20FFA88F819233A4628461946D6
:1059E0000196CDF8008006F0E9F978233A4628467A
:1059F0001946CDF80080019604F10A070B3406F031
:105A0000DDF93FB224B278233A46284619468DE89C
:105A1000500006F0D3F9192300943A46019628461F
:105A2000194606F0CBF902B0BDE8F081489EFF1F91
:105A300030B583B000230C4605B2009326225B23C9
:105A40001C210C4805F00AFF29460123262209489B
:105A500005F014FA002C24B205DB2146012326228E
:105A6000044805F00BFA044A044B15801C8003B06F
:105A700030BD00BF489EFF1FAA89FF1FAC89FF1FD2
:105A800070B59F4C237882B01BB19E4B4FF6FF72CE
:105A90001A809D4BB3F90030C3B99C4A994B1068EA
:105AA000B3F9002080F30C005B2303FB00F000132C
:105AB0001C30824243D04FF0FF31FFF7B9FF9448CA
:105AC00005F030FF0023237002B070BD012B1BD006
:105AD000022B53D0032B38D0042B00F08D80052BE4
