:1000000000800020BD01000099DA000051DA0000F4
:1000100051DA000051DA000051DA000051DA000034
:1000200051DA000051DA000051DA000099DA0000DC
:1000300099DA000051DA00009104010095040100F2
:1000400099DA000099DA000099DA000099DA0000E4
:1000500099DA000099DA000099DA000099DA0000D4
:1000600099DA000099DA000099DA000099DA0000C4
:1000700099DA000099DA000099DA000099DA0000B4
:1000800099DA000099DA000099DA000099DA0000A4
:1000900099DA000099DA000099DA000099DA000094
:1000A00029B1000035B1000099DA000099DA0000AA
:1000B00099DA000099DA000099DA000099DA000074
:1000C00099DA000099DA000099DA000099DA000064
:1000D00099DA000099DA000099DA000099DA000054
:1000E00099DA000099DA000099DA000099DA000044
:1000F00099DA000099DA000099DA0000E1E80000DE
:1001000099DA000065EE000099DA000099DA000043
:1001100099DA000099DA000099DA000099DA000013
:1001200099DA000099DA000099DA000099DA000003
:1001300099DA000099DA000099DA000099DA0000F3
:1001400099DA000099DA000099DA000099DA0000E3
:100150004108010055080100690801007D080100FF
:1001600099DA000081F1000099DA000099DA0000C4
:1001700099DA000099DA000099DA000099DA0000B3
:1001800099DA000099DA000099DA000099DA0000A3
:1001900099DA000099DA000099DA000099DA000093
:1001A00099DA000099DA000099DA000099DA000083
:1001B00099DA000099DA000099DA0000564B4CF207
:1001C000205210B51A804DF628121A8000BF00BFC9
:1001D0000DF066FC514B4FF010621A60504A9A6065
:1001E000504ADA60504A136813F4807304D14F49BF
:1001F0000B604FF4A85313604D4B1A78110703D5C9
:100200001A7842F008021A704A4B4B492A221A7097
:100210004A4A4B4B8B4204D252F8040F43F8040B6A
:10022000F8E7484B484900228B4202D243F8042B9E
:10023000FAE74649464A002352F8230041F82300D2
:1002400001336F2BF8D1434B434A802103F8011B44
:100250009342FBD1414B3D4A1A60414B8A221A70AE
:10026000A3F5805324225A70A0221A709A7992071B
:10027000FCD59A79D406FCD43A4A937903F00C035E
:10028000082B384BF9D103221A7140225A719A79FE
:100290009006FCD5334A9179324B4906FBD5324A58
:1002A000324911600221516020221A709A7902F0BD
:1002B0000C020C2AFAD12E4B2E4A1A602E4B2F4AD2
:1002C0001A6000225A60072243F8042C2C4AC3F813
:1002D0000C2D62B60DF06EFF144B1B68DA0705D5C6
:1002E00028480DF03BFD284B284A1A60284B1B7804
:1002F0005B0609D5244C254B22689A4204D121483B
:100300000DF02CFD0023236011F026FE0DF0CEFB36
:1003100010F02CFBFEE700BF0E20054030800440AB
:10032000823F04000100002B10D0034014D0034092
:1003300002D0074000E00740049CFF1FA4590100C1
:100340004088FF1F049CFF1F98A3FF1F0082FF1F10
:100350000000000000E400E05FE400E008ED00E0E1
:100360000050064000400640448004400000030165
:1003700004800440C010050014E000E0FF76010096
:1003800000002020611EEF5F1CE00340A5C3945ACB
:1003900000F00740FFFFFFFFFFFFFFFFFFFFFFFF32
:1003A000FFFFFFFFFFFFFFFFFFFFFFFFFFFFFFFF5D
:1003B000FFFFFFFFFFFFFFFFFFFFFFFFFFFFFFFF4D
:1003C000FFFFFFFFFFFFFFFFFFFFFFFFFFFFFFFF3D
:1003D000FFFFFFFFFFFFFFFFFFFFFFFFFFFFFFFF2D
:1003E000FFFFFFFFFFFFFFFFFFFFFFFFFFFFFFFF1D
:1003F000FFFFFFFFFFFFFFFFFFFFFFFFFFFFFFFF0D
:10040000FFFFFFFFFFFFFFFFFFFFFFFFDEF9FFFF23
:1004100010B5054C237833B9044B13B10448AFF33E
:1004200000800123237010BD049CFF1F000000000A
:10043000A0590100084B10B51BB108490848AFF39B
:1004400000800848036803B910BD074B002BFBD0A0
:10045000BDE81040184700BF00000000089CFF1FC7
:10046000A0590100049CFF1F0000000038B504469D
:10047000104621700A491D4611F056FB01464FF007
:100480007E5011F005FC074911F04EFBE5606060FD
:10049000256165610DF01EFEE061204638BD00BF9C
:1004A000DB0FC9400024744938B50446104621705A
:1004B00009491D4611F038FB01464FF07E5011F0FE
:1004C000E7FB064911F030FBE5606060256165617E
:1004D0000DF000FEE06138BDDB0FC9400024744917
:1004E00038B503780446032B20D8DFE803F01A1848
:1004F0001002C168406911F00DFA0D4905466068A7
:1005000011F0C6FB0146284611F0C2FB38BD084970
:10051000406811F0BDFBE16811F006FB38BDC06812
:1005200038BDC168406911F0F5F938BD002038BD0B
:100530000024744970B504460E460DF0CBFD054607
:10054000E069281A11F09CFAE3682361E5616661AD
:10055000A0610146606811F09BFB0146A060104855
:1005600011F096FB10F06CFE10F006FB11F07EF916
:10057000054601464FF07E5011F0CCF9616911F04B
:10058000D3FA21690646284611F0CEFA01463046D4
:1005900011F0C2F9E0602046BDE87040FFF7A0BF4F
:1005A000000080BF08B50E200DF02CF9114B1B8800
:1005B000012B19D0104B1B88984213DB40F6FF71BA
:1005C0008842D4BFC3EB0001C3EB0101C1EB013191
:1005D000C3F57F630F33282091FBF3F1BDE808409A
:1005E0000DF0CEBB0021F3E70146BDE80840142022
:1005F0000DF0C6BB609EFF1FF49CFF1F10B50446A4
:1006000010F0FCF8204610BD70B44C88A04220D9F0
:1006100001230133DBB21CB2660031F8144084427E
:100620001D46F6D3A04211D005F10045013D965B71
:1006300031F8151032F81530401AF21A00FB02F0AA
:10064000641A90FBF4F4E01870BC7047905B70BCC7
:10065000704702260125E5E700280CDA064A4342E6
:1006600082FB0320DA17C2EB600000EB4000A3EB33
:100670008000C0F10C007047ABAAAA2A38B5234B02
:100680001B78002B2CD015200DF0BCF8204B1860E7
:10069000204B1B88984203DA1F4C237863BB38BD7C
:1006A0001E4A1488A042A4EB0302A8BF20467F2A5A
:1006B0001CDDC01AC001541C90FBF4F4002CEBD0DC
:1006C000154B1A780AB901221A70154D2B689C42F5
:1006D00004D0144BE1B2187808F002FE2C6038BD4B
:1006E00011200EF02BFC0A4B1860D1E7C01AC0EBAA
:1006F000C01090FBF2F4E1E70A4B0021187808F0F3
:10070000EFFD0023064A2370136038BD729EFF1F61
:10071000309CFF1FAA9CFF1FE09EFF1F8C9EFF1FA7
:10072000DC9EFF1F809CFF1F38B50F200EF006FCDB
:100730001B4A1C4B12881860C0F53B600830904281
:1007400020DB194B1B889842A3EB0204A8BF184674
:10075000801A7F2CC6BFC0010134C0EBC01090FBD3
:10076000F4F47CB1114B1A780AB901221A70104DB9
:100770002B689C4204D00F4BE1B2187808F0B0FD12
:100780002C6038BD094C237803B938BD094B0021D2
:10079000187808F0A5FD0023054A2370136038BDC2
:1007A000F89CFF1F449CFF1F789EFF1F9C9EFF1F0D
:1007B000B49CFF1FA29CFF1FF0B40E8886420DD28E
:1007C00003F10043013B31F81350854202D9F0BCDC
:1007D000FFF71ABF32F81300F0BC70471088F0BC66
:1007E000704700BF094B1B880C2B09D8084A80B200
:1007F00052F8232028B143F6FE73984203D9108C97
:100800007047108870470349FFF7FEBE5A9CFF1FD0
:1008100060330100FC3401004B4B4C4A2DE9F0479A
:100820001E8814684A4BB442B3F80080494B33DB4E
:100830004445A8BF4446A6421C60C8BF00202DDD29
:10084000C6EB0807B7F5804F33DB80037B1C90FBBA
:10085000F3F0FFF7C7FF404A404B15881B88C0F3F1
:10086000C61909FB05F57F2D8246A8BF7F252BB34E
:10087000A64253DC4445D4BFC6EB0404C6EB0804CF
:100880009F42CCBF03FB04445C43354BC8BF0137D8
:1008900094FBF7F71F6013E034461E60C6EB0807B1
:1008A000A045D4BFC6EB0800C6EB0400B7F5804FE7
:1008B000CBDAC0EB803090FBF7F0CAE7284A136030
:1008C000284C2368994508D0274B1B88002B34D12E
:1008D000264B1B886BBBC4F80090254C23689A45B7
:1008E00006D0214B1B885A1F032A19D9C4F800A02F
:1008F000204C23689D420FD01F4B188848B11A4BDB
:100900001E4A1B88D35C834203D0C0B2E9B208F010
:10091000E7FC2560BDE8F087BDE8F0870024AFE77D
:10092000164AD05C2030C0B20AF07F0108F0D8FC33
:10093000DCE7484608F074FDCDE7104A4946D05C34
:1009400008F0CEFCC4E700BFF49CFF1F5C9EFF1FB5
:10095000BC9EFF1F289CFF1F389CFF1F3A9CFF1F57
:10096000C09EFF1F9C9CFF1F429EFF1FEA9CFF1F13
:10097000549CFF1FEC9CFF1F529EFF1FB089FF1F5E
:100980002DE9F04F17208BB00EF0D8FADFF870B3D6
:10099000DFF870A3CBF8000016200EF0CFFABA4BA8
:1009A000CAF800001B880C2B00F05E82B74EB84AD4
:1009B0003188B84B52F8214000221A70B64BB74A22
:1009C0001B88B7491288013B012A31F9133005937E
:1009D00000F0AE81B34B0193B34B0293B34FDFF8FA
:1009E000288300230093B24B1B88012B00F0F48175
:1009F000DFF81893AF4B0393D9F80050AE4B049334
:100A00000023AE4A1288013A032A00F24982DFE845
:100A100012F0A500ED000400C9002846059311F06E
:100A20002FF8A74911F080F8059B0546184611F0EC
:100A300027F8A44911F078F80146284610F06CFF19
:100A400011F038FA0546C9F80050386811F018F866
:100A50009B4911F069F88146009811F011F8994905
:100A600011F062F80146484610F056FF11F022FAE4
:100A70003860954A954B17881988954BDBF800200C
:100A80001B88DFF88CE2C7EB050C3D44039FC7F8D9
:100A900000C0471A084404990D6001990F6002993B
:100AA000BEF8007008609A4280F2E7800025C3EB30
:100AB000070E7445DAF8000080F2D380611C98427A
:100AC00005FB01F50EF1010E95FBFEF5C0F25F830B
:100AD0008742A8BF0746FF1A01FB07F494FBFEF408
:100AE0009A4200F3A780984200F3A480794C2068D2
:100AF00010F0C6FF784911F017F8784910F00CFF94
:100B000011F0D8F9A0F5FF531C3B082B98BF4FF408
:100B10000050D8F80030184400282060C0F29F80B0
:100B2000B0F5804F80F2F6806D4B1B781BB1B0F5AD
:100B3000005F40F0F7806B4D2B78002B40F0AB81CD
:100B4000694D20682B68634C984204D080B208F04D
:100B500097FB23682B600BB0BDE8F08F2846059308
:100B600010F08EFF614910F0DFFF059B0546184627
:100B700010F086FF5E4910F0D7FF0146284610F0BE
:100B8000CBFE11F097F90546C9F80050386810F00F
:100B900077FF564910F0C8FF8146009810F070FFAB
:100BA00053495DE72846059310F06AFF4A4910F063
:100BB000BBFF059B0546184610F062FF4D4910F03B
:100BC000B3FF0146284610F0A7FE11F073F9054661
:100BD000C9F80050386810F053FF3F4910F0A4FFE7
:100BE0008146009810F04CFF424939E728460593AA
:100BF00010F046FF404910F097FF059B0546184648
:100C000010F03EFF3D4910F08FFF0146284610F0DE
:100C100083FE11F04FF90546C9F80050386810F00E
:100C20002FFF354910F080FF8146009810F028FF13
:100C3000324915E73388002B3FF458AF2B1B002BAC
:100C4000B8BF5B42092B00F32D81D8F80030214C4E
:100C50004FF40050184400282060BFF661AF002216
:100C60005AE0984205FB04F5B8BF002195FBFEF55C
:100C700080F2848291FBFEF432E7BA42D4BFC3EB28
:100C80000205C3EB070512E78E9EFF1F909CFF1F16
:100C90006C89FF1F2E9CFF1F3689FF1F629EFF1F5E
:100CA00068370100849CFF1FC49CFF1F209CFF1F0E
:100CB000F09DFF1F809EFF1FF49DFF1F4289FF1FB5
:100CC000CDCC4C3FCDCC4C3EBC89FF1F4089FF1F93
:100CD000589EFF1FA489FF1F9A99193FCDCC4C4500
:100CE000969FFF1FE89CFF1F3889FF1F3333733F18
:100CF000CDCC4C3DCDCCCC3E6666663FCDCCCC3D1C
:100D00008C9CFF1F509CFF1F989EFF1F7C9EFF1F07
:100D10006C9CFF1F43F6FF72C04B22601B78002BB8
:100D20003FF409AF05F024FCBD4B01221A7007E720
:100D3000BC4BBD4A1B88BD491278013B31F91350A9
:100D4000002A40F0C78011200EF0F8F80090B84B50
:100D50000193D3F80080009B984540F3C080B54BC9
:100D6000B54F1B88B54A012B3B68B2F80090B44AD6
:100D700002922046A3EB050500F0E28010F080FE11
:100D8000029A52F8291010F0CFFE0146002010F010
:100D9000C1FD11F08FF8009BC8EB05029D42B8BF62
:100DA0001D469042C8EB050580F2DE8000FB05552C
:100DB000013295FBF2F5A34BDFF8B4820293D8F829
:100DC00000302B4403EBD3735B10C8F800309E4B0C
:100DD0001B88012B7FF40CAE9C4B03931D460F2008
:100DE0000EF0ACF82A6804929042034680F2CC8060
:100DF000904A1288012A00F03F81904A0790128899
:100E00008F4D0692204610F03BFE069ADFF8649262
:100E100055F82210D9F8005010F086FE0146002047
:100E200010F078FD059BEA1A059211F043F8059A37
:100E3000079B04999A42C1EB020EB8BF1A4670454F
:100E400080F24481521A00FB02220EF1010192FB52
:100E5000F1F2D8F800107E4804900A4402EBD272F6
:100E60005210C8F80020CCE57A4B1B78002B3FF4D9
:100E70009DAD794E794A3188794B52F82100012293
:100E80001A7010F0FDFD4FF07C5110F04DFE11F086
:100E900011F8044692E505F067FB00232B704FE63E
:100EA0003868E6E505F500500130001B10F0E8FD5C
:100EB0006C496D4C10F038FE0546206810F0E0FDDE
:100EC0006A4910F031FE0146284610F025FD10F069
:100ED000F1FF1EE615200CF095FC009037E7594B0A
:100EE0000293D3F80080009B984542DA514B524F51
:100EF0001B88524A012B3B68B2F80090504A03927B
:100F000020461D4400F0E98010F0BAFD039A52F823
:100F1000291010F009FE10F0CDFF009B9D42C8EB98
:100F20000502A8BF1D46C8EB05059042BABF00FBED
:100F300005550132454395FBF2F5DFF834813EE774
:100F400010F09EFD029A52F8291010F0EDFD10F0FD
:100F5000B1FF009BC8EB05029D42B8BF1D4682420F
:100F6000C8EB05053FF722AF00FB05F595FBF2F551
:100F700021E7DFF8FC80304FD8F8003003EBD37363
:100F80005B10C8F800302EE5314A049212680692D0
:100F9000904237DD274A1288012A00F0BC80274A98
:100FA00009901188264A08912046079210F068FDA2
:100FB000079A0899DFF8BC9052F82110D9F8005030
:100FC00010F0B2FD059B2B44059310F073FF0599BB
:100FD000099B069A9942C2EB010EA8BF19467045BB
:100FE00080F2BE80891A00FB01110EF1010291FB13
:100FF000F2F2D8F800100A4402EBD2725210C8F88C
:101000000020FEE4D8F80020DFF8689002EBD272EE
:101010005210D9F80050C8F80020F2E4969FFF1F44
:10102000E89CFF1FC089FF1F729EFF1FB4340100A0
:10103000849CFF1FCA9CFF1F209CFF1F749CFF1FE6
:1010400080370100C49CFF1FF09DFF1F809EFF1F83
:10105000F49DFF1F409EFF1F909CFF1F6C89FF1F88
:101060002E9CFF1FCDCCCC3EA489FF1F9A99193F1F
:10107000989EFF1F7C9EFF1F464A08901188464A93
:1010800007912046069210F0FBFC069A0799DFF8BC
:101090000C9152F82110D9F8005010F045FD059B35
:1010A000E91A059110F006FF0599089B049A9942E8
:1010B000C2EB010EB8BF1946704558DA891A00FB19
:1010C00001110EF1010291FBF2F2C2E60499521AEB
:1010D00000FB02F292FBFEF2BBE610F0D1FC039A99
:1010E00052F8291010F020FD0146002010F012FCEB
:1010F00010F0E0FE009A9542C8EB0503A8BF154624
:10110000C8EB05059842BABF00FB055501334543BE
:1011100095FBF3F511E71F491F4A089020460D88FB
:10112000079210F0ADFC079ADFF8709052F8251086
:10113000D9F8005010F0F8FC0146002010F0EAFB4E
:10114000059B2B44059310F0B5FE0599089B069A64
:101150009942C2EB010EA8BF19467045FFF642AF97
:10116000069A891A00FB01F191FBFEF241E7049A0D
:10117000891A00FB01F191FBFEF26AE6B842D4BF86
:10118000C3EB0001C3EB070104FB01F172E51F464D
:10119000A1E400BF749CFF1F803701007C9EFF1FED
:1011A00008B5244B1B88FBB1234B1B78FBB1234BA9
:1011B0001B78E3B1224B1B78CBB1224B1B78B3B128
:1011C000214B22481A78C2B9214A22490088128844
:1011D00009680244B1EB620F09DD01221A70642034
:1011E000BDE8084005F0D8B9174A117801B908BD23
:1011F0001370BDE8084008F0E7B8154A16490088A2
:10120000128809680244B1EB620FF0DD00221A7007
:1012100008F0DAF8642005F0BFF9642005F0BCF9A5
:10122000642005F0B9F94FF41670BDE808400CF0E1
:1012300073BF00BF009EFF1FE49EFF1FB69EFF1FEF
:10124000B79EFF1FB89EFF1F589CFF1F6C9CFF1F7F
:10125000589EFF1F8C9CFF1F509CFF1F38B5114CE0
:10126000232025780CF0CEFA0F4A42F82500131FF0
:1012700002F1C400002253F8041F83420A44FAD149
:1012800023780A4907480A4C0133DBB2322B81FB31
:10129000025108BF0023D217C2EB21120370226053
:1012A00038BD00BF3C9CFF1F049DFF1F1F85EB51F5
:1012B000549EFF1F2DE9F04FB84CB94D2068B94F2F
:1012C00083B010F0DDFBB84910F02EFC064610206C
:1012D0000DF034FE10F0D4FBB44910F025FC31467B
:1012E00010F01AFB10F0E6FD2988206088423B8848
:1012F00043DA9E465B1A7F2B4FF0000247DDD20196
:101300005E1C92FBF6F2AA4EDFF8C882B6F800C067
:10131000C8F80020BCF1190F00F0DF80BCF11A0FF3
:1013200000F01781BCF11E0F00F020810126B146AC
:10133000A04A1288002A00F09D808842C0F20781EE
:101340007045D4BFC1EB0000C1EB0E009A42BABF9A
:1013500002FB00000133504390FBF3F3964A136005
:10136000964B1888C0B9964A1288AAB9954B197835
:1013700001B11A7003B0BDE8F08F9842D4BFC1EB41
:101380000002C1EB03029E465B1A7F2BB7DCC2EB67
:10139000C21292FBF3F2B6E72988D4F800E0DFF836
:1013A0000082DFF8F8A171456CDCDFF818C29CF808
:1013B0000020002A2ED14FF0010B04288CF800B039
:1013C00028D1002E40F094817D4B18880028D1D080
:1013D000B9F1000FCED023682C883A88A34280F25E
:1013E00065810023141B7E2C774DD5BFC3EB83137F
:1013F000C3EBC3135B00013493FBF4F42B6801349B
:10140000A34203D0C0B2E1B207F06AFF2C6003B080
:10141000BDE8F08F012800F0F680022800F0EB8094
:101420000328D1D1694B1B88092BCDD0002ECBD0FE
:1014300023682E883A88B34280F27B810023961B72
:101440007E2EDFF88CA1D5BFC3EB8313C3EBC31390
:101450005B00013693FBF6F6DAF800300136B34252
:1014600003D0F1B24A2007F03BFFCAF80060ABE7B7
:1014700016469146BCF11E0F7FF472AF0022DFF8D2
:1014800058817EE04F4B1A78002A3FF473AF002456
:1014900001281C7000F0A480022840F00E81002E6C
:1014A00000F0A3804A4D2B68002B00F09E800420A2
:1014B000214607F015FF424B2C60188800283FF4A6
:1014C00059AFB9F1000F3FF455AFC0B2002107F09A
:1014D00007FF3D4B00221A604CE7DFF8FC8098F8CC
:1014E0000020C2B1DFF8D890B9F800A0BAF1000F1F
:1014F00011D0DFF8E89099F800B0934578D05FFA02
:101500008AF07F2107F0ECFE98F80030B6F800C0B2
:1015100089F8003010E0DFF8C49099F800A09245F7
:1015200066D0274B0021187807F0DAFE98F80030D3
:10153000B6F800C089F800301E4B1A88002A97D0F0
:10154000BCF11E0F40F006810026B14619E00020D4
:10155000FCE6DFF8848098F80020002A0BBF012603
:1015600000264FF000094FF00109E1E6DFF868803E
:10157000104B98F800601A88B6FA86F676094FF094
:10158000000998F80030002B3FF4E8AE2988B7F83E
:1015900000E02068C1EB0E03CFE600BF7C9CFF1F7C
:1015A000069EFF1F029EFF1F9A99193FCDCCCC3E8D
:1015B0008E9EFF1FC49EFF1FFC9CFF1F8A9CFF1F67
:1015C000A09EFF1F959EFF1F609CFF1F429EFF1F56
:1015D000009DFF1F749EFF1F409EFF1F409CFF1F2A
:1015E0001EB1614D2B68002B7BD1604B188865E7DD
:1015F0000026B1469CE6002E3FF4E6AEDFF868A177
:10160000DAF800202EE0002E3FF4DEAEB7F80080BE
:10161000F045D4BFC1EB0802C1EB0E02C1EB0808D4
:10162000B8F17E0FDFF840A1D5BFC2EB8212C2EB4A
:10163000C212520008F1010892FBF8F8DAF8002013
:1016400008F10108424506D05FFA88F101200093B5
:1016500007F046FE009B1888CAF8008002287FF435
:10166000DFAE42462168B5F800803888414559DA36
:101670000021C8EB0008B8F17E0FD3BFC1EB811188
:10168000C1EBC11108F10108490091FBF8F808F11C
:101690000108904506D05FFA88F10420009307F016
:1016A0001FFE009B1888CAF80080B9E69342D4BF99
:1016B000C4EB0303C4EB020394E6032827D12C4BAD
:1016C0001B88092B91D0002E8FD0274D2B68002B23
:1016D0008BD04A20214607F003FE244B2C6018884B
:1016E000ECE6214607F0FCFD204B2C601888E5E66F
:1016F00040207F218DE80C0007F0F2FD019B009A4D
:10170000188858451CD002287FF48AAE76E7042852
:101710007FF46BAF002E3FF468AF2146402007F006
:10172000DFFD62E78142D4BFC8EB0101C8EB0001D5
:101730009FE79342D4BFC6EB0303C6EB02037EE6EA
:10174000B8F80010DAF800E0B7F800808E45FFF630
:1017500065AF5DE72988B7F800E020680026C1EB97
:101760000E03B146E9E500BF009DFF1FA09EFF1FCD
:10177000429EFF1F08B5114B1B88022B09D0052B79
:1017800007D0032B15D0042B0BD00D4B01221A7060
:1017900008BD7F21412007F0A3FD094B01221A70EB
:1017A00008BD7F21092007F09BFD054B01221A701F
:1017B00008BD4021092007F093FDE6E7FA9CFF1FD2
:1017C000AC9CFF1F38B5074B074D1B88052B044603
:1017D00006D02B68834203D0C1B2052007F080FDFC
:1017E0002C6038BDFA9CFF1FA49EFF1F38B5124D18
:1017F000124C2B88052B12D022684AB9022B0ED02E
:10180000033B012B13D90E4A00231370236038BD0C
:101810000021052007F064FD2B88022B04D1002154
:10182000412007F05DFDEEE7052BE9D1F7E7002148
:10183000092007F055FDE6E7FA9CFF1FA49EFF1F55
:10184000AC9CFF1F464B1B881D2B70B541D0454DEE
:101850000024454B1B88022B16D0444B1B88022BBF
:1018600054D02888424B002C1B780ADB8442A8BF46
:10187000044634B1002B3AD02046BDE87040FFF753
:10188000A1BF002B2FD170BD3A4B1B78002B37D056
:1018900015200BF0B7FF384B1860384A1288002A21
:1018A000DBD0374A186811888142D6DC354B2A884C
:1018B0001B888342A3EB0106A8BF03465B1AB24212
:1018C000BABF02FB03330136534393FBF6F31C44C8
:1018D000C3E72A4B1C888CB12B4B224D1C78002C63
:1018E000B7D02C88B5E7BDE87040FFF77FBFFFF7A2
:1018F00041FF2046BDE87040FFF764BF194DA8E7DF
:1019000011200DF01BFB1C4B1860C6E70F200DF0DB
:1019100015FB1A4B1D4A1B881060002BA1D01C4AD6
:10192000C0F53B63118808338B429ADB194A28883B
:1019300012889342A2EB0105A8BF1346A842A3EB6D
:10194000010306DA00FB0333013593FBF5F31C4476
:1019500088E700FB03F292FBF5F31C4482E700BF2B
:101960008E9EFF1F929EFF1F629EFF1FF09DFF1F16
:10197000AC9CFF1F729EFF1F309CFF1FFA9CFF1F35
:10198000AA9CFF1F8C9EFF1F409EFF1F449CFF1FB1
:10199000F89CFF1F789EFF1F38B510200DF0CEFA7F
:1019A000C830B0F5FA7FC0F2EE80B0F57A6F01462C
:1019B000A8BF4FF47A6101F51673B3F57A6FA8BF2B
:1019C0004FF47A639BB289B28E4A8F4C11802220E9
:1019D000238007F007FE21888C4D8D4C242007F0D2
:1019E00001FE0E200BF00EFF40F6FF71C83088425A
:1019F000A8BF084620EAE07000F2DC5283B28A42B7
:101A0000A8BF0A460220194622802B8007F0EAFD73
:101A10002188042007F0E6FD17200DF08FFA044618
:101A200016200DF08BFAA042B8BF204600F1C80185
:101A3000B1F5FA7FC0F2A280B1F57A6FA8BF4FF47A
:101A40007A6101F54873B3F57A6FA8BF4FF47A63F2
:101A50009BB289B26F4A704C11800A20238007F034
:101A6000C1FD21880C2007F0BDFD0F200DF066FAA6
:101A7000C0F53F610431B1F5AF6F7CDBB1F5FA6FB2
:101A8000A8BF4FF4FA6189B2644BC0F54360B0F56A
:101A9000AF6F19806CDBB0F5FA6FA8BF4FF4FA6036
:101AA00083B25F4CA420238007F09CFDA6202188F0
:101AB00007F098FD0B200CF0F9FA002868D01120EF
:101AC0000DF03CFA00F1C801B1F52F7F6EDA40F25B
:101AD00014534FF42F71534A1180534C0620238026
:101AE00007F080FD2188082007F07CFD00244FF4DA
:101AF000AF75E1B24D4809F04DFB01348542A8BFF6
:101B000005460C2CF5D101200DF018FA04460020F2
:101B10000DF014FA323CA0F1320345496FF4957090
:101B200000FB03F300FB04F081FB034281FB004157
:101B3000DB17C017C3EB6223C0EB612003F5AF7264
:101B400000F5AF739342A8BF13469D42A8BF1D4640
:101B5000A5F11401312938DC40F26C73322135488B
:101B6000354A018013602A20BDE8384007F03ABDAD
:101B70004FF4AF6395E74FF4AF6185E740F214533C
:101B80004FF4FA7166E740F24C434FF4FA711BE7E9
:101B900015200BF037FE00F59671B1F52F7F96DB1F
:101BA00041F25C2399421FDD194694E741F25C2320
:101BB0009942F9DC1B4A00F5487089B2B0F52F7FD5
:101BC000118019DA4FF42F7387E740F23A72A5F5C6
:101BD000B9751A4B02FB05F583FB0523ED17A5EB41
:101BE000631389B23233BAE70E4A00F5617089B2E5
:101BF000B0F52F7F1180E5DB8342A8BF03469BB27F
:101C00006BE700BF069EFF1F029EFF1FF49CFF1F95
:101C1000BC9EFF1F589EFF1F6C9CFF1FF89CFF1F60
:101C2000789EFF1FAA9CFF1F8C9EFF1FE49CFF1F36
:101C300067BBCF46B49EFF1FAC89FF1FB5814E1B0B
:101C40002DE9F04F0C2083B00BF0A8FD0C200CF018
:101C500095F9C149DFF888A314200CF09FF9BF491A
:101C6000BF4808F067FF022103200CF02DFA022183
:101C700004200CF029FA022105200CF025FA02219B
:101C800006200CF021FA01210A200CF01DFA012196
:101C900009200CF019FA01210D200CF015FA012190
:101CA00028200CF011FA012114200CF00DFA022169
:101CB0000B200CF009FA01210C200CF005FA002190
:101CC0000C200CF0EDF9012121200CF0FDF902218E
:101CD0001C200CF0F9F901211B200CF0F5F9002172
:101CE0001B200CF0DDF91C200CF0E0F9B0FA80F3B9
:101CF0005B091A208AF800300CF026FC1F20002116
:101D00000CF0E8FB04200CF0D1F9002800F0F08082
:101D100005200CF0CBF9002800F068810023914CDD
:101D2000062023700CF0C2F9B0FA80F35B094FF083
:101D3000000B8D4A137005F0EFFF2378002B40F065
:101D4000D280584607F078FC884B894A1B88148853
:101D500088498948894DA3F5AF7240F23A7303FB75
:101D600002F381FB0321DB17A3EB61113231062360
:101D700000937B4A01600C235A2181482C7009F0A2
:101D800071FA002800F039817E4A7F481268DFF836
:101D9000549200230121FEF787FB0B200CF086F9FB
:101DA000011E0CBF0123002389F8003000F0B98028
:101DB000764F774D774EDFF8308200233B602B6003
:101DC000336004240F200DF0B9F8336803440E206B
:101DD00033600BF017FD3B6899F800201844386019
:101DE000002A79D015200BF00DFD2B6818442860CF
:101DF00004F0010080F0010004F0BEFBB8F80030F0
:101E0000002B14BF4B20DC200CF086F9013CD9D10B
:101E1000336839685D4A28685F4F002BB8BF0333C9
:101E20000029B8BF0331891011605C495C4A0988F8
:101E300014889B1000283360B8BF0330594E8210BD
:101E4000581A19442A6031603860574D574858492C
:101E5000161B22442E6002600B60BBF1000F64D1A0
:101E6000B8F80030002B4FD0524B012404201C60E6
:101E70000CF01CF918B9504B404A1C7010704F4BB5
:101E80001B881C2B58D04E4C04F1C80523200BF0A6
:101E9000B9FC44F8040F01200CF03EF9AC42F5D136
:101EA0009AF800301BB1474B1B78002B4ED1002114
:101EB00021200CF0F5F8444A444B1078187007F0D4
:101EC00057FB04F051FB4249424845F6BF5203B06C
:101ED000BDE8F04F0EF048BC11200DF02FF82B6834
:101EE0001844286084E703B0BDE8F04F08F036BD21
:101EF00006200CF0DBF800287FF40AAF194C0346EB
:101F000020704FF0010B14E74FF4FA7004F044FB1B
:101F100004F02EFB06F036FA4FF4AF600CF0FCF83C
:101F2000A2E711200CF0D0F842E7FFF735FDB8F832
:101F30000030002B98D1E7E7274B18880028A2D063
:101F4000264BC0B2197807F0CBF99CE7012121207C
:101F50000CF0A6F8AFE700BF001B374640420F0069
:101F6000E090FF1F5E9CFF1FF89DFF1FB49EFF1FA8
:101F7000909EFF1FB5814E1BAC89FF1FC09CFF1FA9
:101F8000E49CFF1F3C89FF1F209EFF1F349CFF1F06
:101F9000209CFF1F7C9EFF1F809EFF1FBC89FF1F90
:101FA0004089FF1FF49DFF1F849CFF1FC49CFF1FDF
:101FB000CC9EFF1F889EFF1F489CFF1F8E9EFF1F09
:101FC000009DFF1F089EFF1F0A9EFF1FEE9DFF1F23
:101FD000A5050000AC9EFF1FC89CFF1F789CFF1F3B
:101FE000F29DFF1F729EFF1F4E9EFF1F03200CF0ED
:101FF0005DF8B0FA80F35B0991E603200CF056F827
:102000000028FAD104200CF051F80028F5D1052061
:102010000CF04CF80028F0D106200CF047F800280E
:10202000EBD10DF0ABF800BF2DE9F04F89B005AD55
:10203000A14F2C4608AE611BC9B2A04809F0AAF80E
:102040003B88834294BF0020012004F8010BA64284
:10205000F1D19B489B4A9DF814E09B4980F800E031
:102060009DF81600994D10709DF818209DF81C30B1
:10207000974E984C0A709DF81A10297000253370FD
:10208000257073B9002940F00F81934F1AB13B7846
:10209000002B40F01F82002800F0F2810222227003
:1020A00005E0002A40F0B08005228B4F22708B4B58
:1020B000DFF888929DF815109DF81900DFF880A2CE
:1020C000DFF880B2864DDFF88082864E3A709DF848
:1020D0001EE019709DF81F209DF81D109DF817C077
:1020E0009DF81B7089F80000012000938BF800E038
:1020F00088F8001032708AF800C02F700CF01EFFB4
:1021000079497A4AD1F800E0009B7045CCBF0121A3
:10211000002111707CDD764A1288182A78D875491A
:102120000F880C3A002F78D1734993F800C00B78D0
:1021300099F800909AF800109BF8007095F800B09C
:102140002478A3EB4C03A9EB890A5B1A5344C7EB31
:10215000877AC7EB8A07DFF8A8A11F4498F80030F8
:10216000BAF800A007EB4B0796F800B03B440BFB16
:102170000A33624F4FF00C0A1AFB043AC7F800A06A
:10218000B9F1000F0BD033784BB15D4B1B88042B9A
:102190000CBF0AF1020A0AF1040AC7F800A0594B61
:1021A000594CDFF8A8B11B882488DBF800B0574FE2
:1021B000574E3F883688033BC4EBC4045C4403EBB2
:1021C0004303DFF88CB10AEB83033B44DBF800B038
:1021D000504FC6EBC60657F824404F4F5E440C3BA9
:1021E000134457F826601A193244BCF1000F27D067
:1021F0002B782BB300295BD1B9FA89F9474B4FEA09
:10220000591983F8009023E006222270324F4EE7DE
:1022100038490F880022002F86D0012F00F0CF8090
:10222000022F00F0FB80032F00F09480334F9AF8C8
:10223000001093F800C099F80090D7F800A09FE72D
:10224000364B00241C7011B198F8003023BB0021DC
:10225000334B70451970C8BF324B3349C8BFC3F800
:1022600000A00B689A4213D0304B314C1868039091
:10227000039820601B6804932E4C049B24880A60FA
:102280001B1AA34284BF2C4B1A6009B0BDE8F08F23
:102290002748264B0068EDE7BCF1000FD7D1B9F114
:1022A000000FD4D10121D3E7042222700A4FFEE6A9
:1022B0001A4B00211970CAE7B49EFF1FE49CFF1F50
:1022C000B69EFF1FB79EFF1FB89EFF1FB99EFF1F40
:1022D000BA9EFF1FFA9DFF1F049EFF1FE19EFF1F76
:1022E000E59EFF1F949EFF1FAC89FF1F409EFF1FAE
:1022F0008E9EFF1F2C9CFF1FBE89FF1F489EFF1F45
:10230000989CFF1F669EFF1F849EFF1F3E9CFF1F21
:10231000AE9CFF1F4435010020300100C69EFF1F08
:10232000C79EFF1FD09EFF1FA49CFF1FB49FFF1FCF
:10233000949CFF1F9E9EFF1FD89EFF1FE39EFF1FC2
:10234000E29EFF1FE49EFF1FE69EFF1FFC9CFF1FF7
:10235000C09EFF1F664993F800C00B7899F8009063
:102360009AF800109BF8007094F800A02C78A3EB6A
:102370004C03A9EB890B5B1A5B444FF0050B1BFB6D
:102380000733009398F800300193009BDFF86CB19D
:10239000C7EBC707BA440533019FBBF800B003EB96
:1023A000440334783B4404FB0B33524C524F54F8F3
:1023B0002A400C3303EB040AC7F800A0E0E64C49BE
:1023C00093F800C00B7899F800909AF800109BF8E9
:1023D000007095F800A02478A3EB4C03A9EB890BBF
:1023E0005B1A5B44C7EB877BC7EB8B07DFF80CB14D
:1023F0003B4498F80070BBF800B003EB4A0A33780E
:10240000BA44C4F1060403FB0BA3E4B24FF00C0A78
:10241000394F1AFB043AC7F800A0B1E6344993F8E3
:1024200000C00B7801932B780093019B9AF8001061
:1024300099F800909BF800A02478A3EB4C03A9EB3B
:10244000890B5B1A5B44A3F1020B2C4BCAEBCA0A43
:1024500054441B88DFF8C8A00193BDF800305AF837
:1024600024A098F8004017FB03BB3778019B5C441D
:1024700007FB03431833204F9A44C7F800A07FE6B8
:10248000BEF1000F29D13A78012A2FD91C4B2270B6
:102490001B882BB31B4B1B88013B9BB2062B1FD801
:1024A000194B1B78E3B1194B1B68012B7FF4FFAD6F
:1024B0001749184B0968184D83FB0130CB17C3EB44
:1024C000600303EB4303A1EB83032B80134B032136
:1024D0001970ECE503222270E9E501222270E6E59D
:1024E0000A4B1B68012B7FF4E2ADEFE77246DEE595
:1024F000BE89FF1FC8380100489EFF1F989CFF1F20
:10250000709EFF1F0C9EFF1FF69CFF1F889EFF1FE3
:10251000D89EFF1FABAAAA2A4C9EFF1FA089FF1FAF
:10252000303701002DE9F04F3A4B1B788BB0002B70
:102530006BD10E200BF066F90FF0A2FA0146364877
:10254000364E374DFDF7F6FF3348FDF7C9FF0FF064
:10255000B1FC80F30C003060FFF766FD2C68012CA5
:102560007AD0022C00F0BD82032C00F0CF832D4ED8
:102570002D4C33682D4A2E4E0993099B31681288E1
:102580002360591A013A9142274F00F2A582294E41
:1025900032689A1A0D2A00F28E82274E32689A1AF1
:1025A000132A00F28382254E32689A1A252A1AD9F4
:1025B000234B1B88002B40F06481224B1B78002B9F
:1025C00040F05F81FEF74AFE1F4B1B881B3B9BB20E
:1025D000022B04D81D4B1B78002B40F0558103F0D3
:1025E000EDFF236833601A4D2A689B1A502B00F2C6
:1025F0001982184B1B88012B00F0318206F016FE61
:1026000006F0FAFC0BB0BDE8F08F08F033F80BB021
:10261000BDE8F08F5E9CFF1F209EFF1F5C9EFF1F8A
:10262000889EFF1FB49FFF1F1C9EFF1FA889FF1FCE
:10263000F09CFF1FD89CFF1FB89CFF1FBC9CFF1F76
:10264000009EFF1F589CFF1F8E9EFF1F409EFF1F76
:10265000109EFF1F609EFF1FDFF83893A44AB9F851
:1026600000001378834204D0C3B21846137006F0FA
:10267000CFFDDFF81C839F4AB8F8003011789942EB
:1026800004D09D4F3978002940F0FC869B4A33687E
:1026900012889B4E9A42C0F201819A4A1278002A0F
:1026A00040F0FC80DFF8F0A2BAF8003023B9964B76
:1026B0001B88002B00F01285944A954B11881B88CB
:1026C000944A0B4412685B109342934A126880F25A
:1026D000B48400219342B4BF01230B4604910093BC
:1026E000ACBF4FF0010B8B4605910E200BF08AF822
:1026F0008A4B8B4A1B68176803930133A7F2523247
:10270000002B8446029240F3CE86802BA8BF802304
:10271000844A854912780191002A00F0C98009781D
:10272000914200F0C580B8F80010DFF864E29942E9
:1027300001F0B7807049AEF800307C4B4FF0010ECD
:1027400081F800E01978DFF854E2019B8EF8001060
:102750001A70009B002B00F02381BAF80030002B88
:1027600000F01E81724B1B685A1C002A40F39F86A2
:10277000802A00F39B866F4C6F4970482488098833
:1027800000682144B0EB610FC1F2FF82A3F148025F
:102790000F2A02D8473BA9F800300E200BF032F880
:1027A0006FF454731F44874202DC654B00221A7099
:1027B00000200CF0C3FB634A634B1168634C1B8819
:1027C0008842D4BF002201222270002B00F02C840A
:1027D0005F4B1C78944243D0884241DD5D490C78C0
:1027E000002C00F028875C4991F800C0BCF1000F74
:1027F00040F01F87594F0097594F5A480297574F3B
:10280000007887F800C0564F4FF0010E87F800C0DF
:1028100081F800E0002841F09480534909780029AC
:1028200000F0E887514903910C460978002940F0EF
:10283000DE874F484A4F0078397001210297217096
:1028400070B14648444900904A4803270770002069
:1028500008700099029F0870039901243C70087069
:102860001A70454B1B88A3F11B02012A40F2CE854A
:102870001D2B7FF47DAE3E4A404B12781A70404CBF
:1028800077E6FEF78DFC9DE63E4B1B78002B3FF470
:10289000A6AE2B68012B7FF4A2AEA2E631683A4ABD
:1028A000069106983949106002220B602A60F9E609
:1028B0001E49DFF8E8E0097800293FF446AF9EF8AA
:1028C000000081423FF441AF03984B2840F3B087AA
:1028D0001833802BB8F80000A8BF802398423FF43B
:1028E00034AF2B4803800448012303702DE700BF59
:1028F000EE9DFF1FC09CFF1F489CFF1FF49CFF1F05
:10290000B49FFF1F589CFF1FDE9CFF1F6C9CFF1F86
:10291000589EFF1F8C9CFF1F509CFF1FD09EFF1FC7
:10292000349CFF1FC69EFF1FA09CFF1FC79EFF1F5A
:10293000489EFF1F069EFF1F029EFF1F7C9CFF1FDD
:10294000F99DFF1FAC89FF1F0C9EFF1F729CFF1F8C
:10295000249CFF1FE49EFF1F509EFF1FA29EFF1F8F
:10296000F69CFF1FE59EFF1FE19EFF1F259CFF1F9A
:10297000409EFF1FA089FF1F8E9EFF1F409CFF1FD0
:102980001C9EFF1F949EFF1FB09CFF1F189EFF1FE1
:10299000909EFF1F0A9EFF1FA89CFF1FA19CFF1F68
:1029A000029B9C45BFF6F9AE8B4B1B88002B3FF476
:1029B000F4AEBBF1000F7FF4D5AE884B1B881BB182
:1029C000059B002B7FF4CEAE049B002B3FF4E5AEBD
:1029D000834B1A78002A7FF4E0AEDFF8809299F8F2
:1029E000004001221A70002C40F045837D4B1B787B
:1029F000002B02F060807C4B1B78002B02F03E83A2
:102A00007A4B1B78002B7FF4C8AE794B1B78002BD8
:102A10003FF4C3AEB8F8003076490A3BA8F800305E
:102A20000A70BAE605F0C0F9734B1B7873B9734BA3
:102A30001B785BB9724B1B7843B9724B1B782BB96F
:102A4000714B1B7813B903F08FFD01E003F098FD83
:102A500023682B606D4B1B88012B7FF4CFAD6C4A34
:102A60006C4B11686C481A78A1F118032A2101FBFC
:102A700003F10160002A00F0C182684C236899428A
:102A800000F36A8310DA66480278002A40F046872D
:102A9000644A1068D0F17F0048BF033080100130D5
:102AA0001B1A994242F34E862160A9E2FEF7CAFE44
:102AB0002368336077E5FDF763FFFEF7FBFB5A4BB6
:102AC0001B88032B00F01385584B1B88032B00F049
:102AD0000A852368336060E5FDF79EFE3B6833603E
:102AE00055E5534A34681188A14204DB464B1B78F4
:102AF000002B00F061834F4E4F48336807934F4BD4
:102B0000079A00681B88121A9A4200F2AD80002BC7
:102B100000F0AA804A4B1A88002A3FF429AD494B9D
:102B200049481B680088A342B8BF2346994241F335
:102B30002281464B1960DFF8288188F80020344F45
:102B4000FDF76AFE38687F2840F36F85404B7F3879
:102B500083FB0032C317C3EB620303EB4303A0EB19
:102B6000830073303B4B01931B883860002B40F08F
:102B70009186234B00931B78002B00F0C883364CC2
:102B80002378002B00F0C383DFF8D890DFF8C0A0D3
:102B90004FF0000B0CE003F17300C0B298F8001086
:102BA00006F0CEFB23780BF1010B5B4540F3AF83BE
:102BB0003B6859F8040F1844A0F17F038AFB0321F6
:102BC000DA17C2EB610202EB42027F28A3EB820319
:102BD000E1DCFDF741FDE0E7DE9CFF1F149EFF1FD7
:102BE000F99DFF1FE19EFF1FE29EFF1FE39EFF1F57
:102BF000E49EFF1F489CFF1FF69CFF1F509EFF1F77
:102C0000A29EFF1F259CFF1F589CFF1F609EFF1F59
:102C1000D89EFF1FAC9CFF1FD09CFF1FE09CFF1F96
:102C2000A89EFF1FA49EFF1F629EFF1FF09DFF1F17
:102C3000F49CFF1FB49FFF1FB09CFF1FDC9CFF1F75
:102C4000429CFF1F189EFF1FBC9EFF1F289CFF1F5A
:102C5000ABAAAA2A889CFF1F6889FF1FFA9DFF1F45
:102C6000CC9CFF1F4089FF1F554B564A1B6810889C
:102C7000554AA342B8BF2346994200F38482534C7D
:102C800012888342A8BF03462360002A7FF453AF13
:102C90009942C8BF134640F37D82401AB0F5804F79
:102CA000AABF9B03C3EB8333013093FBF0F0FDF726
:102CB00099FDC0F3C6100EF0E3FE454B044618889C
:102CC0000EF0DEFE4349074620460EF02DFF01467A
:102CD00038460EF029FF21460EF01EFE4FF07E51C1
:102CE00004460FF0BFF8002841F03A803A492046E8
:102CF0000FF0D6F8002840F01E8620460FF000F9AD
:102D0000C0B2DFF8F48088F8000018E7334B34686D
:102D10001988A14274DD324B1B78002B70D1DFF88B
:102D2000DC9099F800007F2840F3F485A3F1553337
:102D30007F3803F1004383FB0032C317C3EB620308
:102D400003EB4303A0EB83007330264B01931B88F6
:102D5000C0B289F80000002B40F0E387224B0093BB
:102D60001B78002B00F09484204C2378002B00F07B
:102D70008F841F4FDFF87C804FF0000A0AE003F1D8
:102D80007300C0B206F000FB23780AF1010A534534
:102D900040F37E8457F8043F99F800001844A0F1EE
:102DA0007F0388FB0321DA17C2EB610202EB4202C8
:102DB0007F28A3EB8203E2DCFDF74EFCE1E700BFD6
:102DC000189EFF1FBC9EFF1F429CFF1F289CFF1FD9
:102DD000C89EFF1FCDCCCC3D0000FE42F49CFF1FDF
:102DE000589CFF1F889CFF1FA29EFF1F6889FF1F22
:102DF0004089FF1FABAAAA2ACC9CFF1F449EFF1F3D
:102E0000B84F38687F2840F3CC81B74B7F3883FBBD
:102E10000032C317C3EB620303EB4303A0EB830051
:102E20007330DFF8249399F800A0824500F01582F2
:102E3000AE4B1B88002B43D1AD4AAE4812680088C8
:102E4000914205DC8242D4BFC1EB0203C1EB000317
:102E5000411AB1F5804FA6BF9B030131C3EB833309
:102E600093FBF1F0FDF7BEFCC0F3C6100EF008FEB8
:102E7000A14B044618880EF003FEA0498046204668
:102E80000EF052FE014640460EF04EFE21460EF078
:102E900043FD4FF07E5104460EF0E4FF002840F061
:102EA000BA86974920460EF0FBFF002840F0408587
:102EB00020460FF025F8C0B2DFF8908288F80000B5
:102EC000BAF17F0F40F3A3838748AAF17F0A80FB02
:102ED0000A304FEAEA73C3EB600000EB4000AAEB54
:102EE00080007330874B00931B78C0B289F80000D4
:102EF000002B40F00383844B03931B78002B40F09E
:102F0000EC84824B02931B78002B40F02C87804B83
:102F10000193029B1B78FBB17E4B1B88012B00F0B9
:102F2000F885022B00F08087032B01F02181042B10
:102F300001F02183052B01F0C183062B01F0878569
:102F4000072B01F04387082B02F04980092B02F080
:102F500010810A2B02F01083009B1B78002B00F0DD
:102F60005984019B6A4C1988002900F0AF843868A5
:102F70007F2840F3C0825C4B7F3883FB0032C3174D
:102F8000C3EB620303EB4303A0EB830073303860B1
:102F9000002940F05E84009B1B78002B00F06981C3
:102FA0005D4C2378002B00F06481DFF8A4A1DFF8EA
:102FB0009C814FF0000B0CE003F17300C0B298F855
:102FC000001006F0BDF923780BF1010B5B4540F3CF
:102FD00050813B685AF8040F434A1844A0F17F031C
:102FE00082FB0321DA17C2EB610202EB42027F2867
:102FF000A3EB8203E0DCFDF72FFBDFE7474B196013
:10300000474B1B68A92202FB03F3002BBCBF03F54F
:103010007F533F339B13543B194481F30C01282009
:103020000AF0AEFEFFF7EABA384C3E483549364A58
:10303000237003700B70137013E493424FF0000B76
:1030400080F2B2800123CDF800B0CDF814B0049323
:10305000FFF74BBB344B1B78002B7FF49EAB039BDD
:10306000324A243B83F34703D9B25B20136006F056
:1030700037F999F80040032C30D1DFF8D88098F860
:103080000030002B42F0E381294F3B78002B42F0C7
:10309000D181254C2378002B42F0BF81254B1B7832
:1030A000002B42F0AD81244A1380244B1B78002B67
:1030B00042F0FF800D4B7F221A8098F800306BB9E8
:1030C0003B785BB923784BB91D4A7F2107201380D9
:1030D00006F006F97F210B2006F002F9194B1F6854
:1030E000FFF75BBBD89EFF1FABAAAA2A429CFF1F1B
:1030F000289CFF1FBC9EFF1FC89EFF1FCDCCCC3D50
:103100000000FE42A29EFF1F259CFF1FF69CFF1F92
:10311000889CFF1F0C9EFF1F6889FF1FE09CFF1FFC
:10312000A489FF1F509EFF1FE49EFF1F689CFF1F86
:10313000E39EFF1FE29EFF1FEA9CFF1FE59EFF1F0D
:10314000429EFF1F349CFF1F449EFF1FCC9CFF1F0D
:103150004089FF1FE19EFF1FB54A1078002840F00C
:103160003D83B44A1268D2F17F0248BF033203EBB9
:10317000A202531CB04A23609942B8BF1160FFF607
:103180003FAF19463CE7AD4B12881960002A7FF427
:10319000D2AC0B469842D4BFC1EB0003C1EB030392
:1031A0007BE5FDF759FA3CE60123CDF810B0CDF8E8
:1031B00000B00593FFF799BA01232B60FFF7D7B949
:1031C000029B1B78FBB19E4B1B88012B00F01A84DD
:1031D000022B00F0A786032B01F04080042B01F0A6
:1031E000EF81052B01F0E082062B01F03984072BDB
:1031F00001F03985082B01F0A386092B02F022800B
:103200000A2B02F07F81019B1B88002B00F02A8390
:10321000009B1B783BB9039B1B7823B9029B1B784F
:10322000002B00F09B87874B1B78002B00F0FE8063
:1032300085490B78082B00F2F98084483A680068C9
:10324000834C0133DBB25F1E101A44F827000B7069
:10325000804B3468198889F800208C427E4E7FF7B5
:1032600087A932687D4B0892089A7D4C1A60FFF757
:1032700080B9039B1B78002BA2D03B68A3F10C0004
:103280007F2840F3338377488B3B80FB0320DA179A
:10329000C2EB600000EB4000A3EB800303F173007E
:1032A000DFF8D481C0B298F8001006F049F8009B0E
:1032B0001B78002B84D0644C2378002B80D0DFF85F
:1032C000BCA14FF0000B0CE003F17300C0B298F802
:1032D000001006F035F823780BF1010B5B457FF702
:1032E0006FAF3B685AF8040F5E4A1844A0F18B0395
:1032F00082FB0321DA17C2EB61020C3802EB4202B7
:103300007F28A3EB8203DFDCFDF7A6F9DEE74D4B58
:103310001B78002B40F0AC823B68534A1278002A9D
:1033200045D0A3F10C007F2840F3F1824D4A8B3B3E
:1033300082FB0321DA17C2EB610202EB4202A3EB2C
:10334000820303F17300C0B298F8001005F0F8FF93
:10335000009B1B7853B33C4C23783BB3DFF81C91A4
:10336000DFF800A14FF0000B0BE003F17300C0B2D7
:1033700098F8001005F0E4FF23780BF1010B5B4592
:1033800014DD3B6859F8040F1844A0F18B038AFB45
:103390000321DA17C2EB61020C3802EB42027F28EC
:1033A000A3EB8203E1DCFDF757F9E0E73B682F4A26
:1033B0001278FAB1224A1288012A00F02F84022AD8
:1033C00000F03186032A00F0C687042A01F01F812D
:1033D000052A01F05C82062A01F06683072A01F0C3
:1033E0009D83082A01F05D86092A01F0F9860A2AE0
:1033F00002F05480019A1288002A00F044821C4A8C
:10340000174C137003232B60FFF7B3B8DFF87080FD
:1034100098F80030002B40F0FE80164F3B78002BD0
:1034200040F0C6840E4C3B70FFF7A3B83A680FE734
:10343000A89EFF1FA49EFF1FE09CFF1F289CFF1F4C
:103440000C9EFF1F509EFF1F6889FF1F4C9CFF1F93
:103450004489FF1FF49CFF1FB49FFF1F809FFF1F25
:103460001C9EFF1FABAAAA2A259CFF1FF69CFF1FCC
:10347000449EFF1F409CFF1FCC9CFF1F4089FF1FE5
:10348000409EFF1FDBB21846137005F0E7FFA54B07
:10349000A5491A46A54B184600230B703B701370C4
:1034A0000370FFF7F3B80123FFF732B98024A04976
:1034B000A04BA14A09881B8812680B44B2EB630F2A
:1034C000BFF66BA99D4B1B78002B40F0F081B8F83C
:1034D00000309B4AA3423FF460A99A4B148001221A
:1034E0001A70FFF75AB9FDF71FF9FFF7F2BAFDF7A7
:1034F000C5F8FFF7E9BAFDF7AFF848E5924B01933D
:103500001B8863BB894B0393904B0293904C2378A9
:103510007BB3DFF85882DFF83CA24FF0000B09E0E4
:1035200003F17300C0B205F02FFF23780BF1010BFC
:103530005B451EDD58F8043F99F800001844A0F1DF
:103540007F038AFB0321DA17C2EB610202EB42021E
:103550007F28A3EB8203E3DCFDF77EF8E2E7734B01
:1035600003937A4B029305F00FFF009B1B78002B0F
:10357000CCD1039B1B78002B3FF4CBAC99F80030E7
:10358000A3F10C007F2840F3BF8172488B3B80FB86
:103590000320DA17C2EB600000EB4000A3EB8003CE
:1035A00003F17300C0B205F0EFFE009B1B78002B07
:1035B00000F09F81664C2378002B01F05D82DFF8DC
:1035C000AC81DFF890A14FF0000B0AE003F173002B
:1035D000C0B205F0D9FE23780BF1010B5B457FF7F4
:1035E00098AC58F8043F99F800001844A0F18B03F8
:1035F0008AFB0321DA17C2EB61020C3802EB4202AC
:103600007F28A3EB8203E1DCFDF726F8E0E75046D4
:10361000FDF722F866E4504A1278002A40F09E81B5
:103620004E4F4F4C3B70FEF7A4BFFDF715F8FFF768
:1036300099BA002008704B49087840B13949009187
:103640000978002900F07A81009F002139704649ED
:10365000097800297FF4E6A8002C40F0CB800028F0
:1036600040F0C880354C2F4F94F800E02F4C039465
:10367000364C02942D4C2C492070344C0097087025
:1036800038702070BEF1000F7FF4DEA8FFF7E8B8B5
:10369000264B1B78002B6BD099F80030A3F10C005F
:1036A0007F2840F390832B4A8B3B82FB0321DA1760
:1036B000C2EB610202EB4202A3EB820303F173004F
:1036C000C0B205F061FE009B1B78002B50D0204C4F
:1036D0002378002B4CD0254FDFF878804FF0000A7C
:1036E00009E003F17300C0B205F04EFE23780AF141
:1036F000010A53453CDD57F8043F99F8000018448F
:10370000A0F18B0388FB0321DA17C2EB61020C38AE
:1037100002EB42027F28A3EB8203E2DCFCF79CFF72
:10372000E1E700BFA29EFF1F509EFF1F259CFF1FC9
:10373000069EFF1F029EFF1F7C9CFF1F409EFF1FD7
:10374000909EFF1F489CFF1F889CFF1FF69CFF1F39
:103750006889FF1FABAAAA2A949EFF1F409CFF1FE7
:103760001C9EFF1FE59EFF1FE19EFF1F4089FF1F5C
:10377000904B1B78FBB1904B1B88012B00F074869B
:10378000022B00F06E87032B01F0E480042B01F084
:103790007E81052B01F0B983062B01F05484072BA1
:1037A00001F09485082B01F01087092B01F07E872A
:1037B0000A2B01F05C87019B1B88002B00F0BA826A
:1037C0007E4B1B78002B40F0B0827D4B7D4A1988E0
:1037D00034680020012310602B603EE50130C0B248
:1037E000022886BF002111701070194608E4039862
:1037F000002101707449097800293FF431A86D490E
:1038000002910978002900F0528702980021017086
:10381000FFF726B8039B1B78002B7FF4A2AB029B1B
:103820001B78002B7FF49DAB019B1988FFF79FBB92
:10383000243B002BB8F8000040F3748498423EF417
:1038400084AF9BB26148A8F8003001230370FEF7F3
:103850007CBFDFF87C81C0B298F8001005F070FDE5
:10386000FFF799BB5A4B3878197805F069FDCFE41A
:103870007F21402005F034FD5649574A3B680B60D4
:103880000021117049E5D8B298F8001005F058FDF4
:103890003B68B4E5C0B298F8001005F051FDFFF7A1
:1038A00068B94E4BDFF854E11978FEF74EBF4B2C48
:1038B00040F345821834802CB8F80030484AA8BF3D
:1038C0008024A3427FF409AEFEF767BF99F8000099
:1038D00005F05AFD2188FFF74ABB424B01931B8834
:1038E000002B41F03387334B029347E6FCF7B4FEDD
:1038F000D6E4029B1B78002B7FF40EAB039B1B7856
:10390000002B7FF42EAB8FE7FCF7A6FE4AE6FCF710
:10391000A3FE18E5FCF7A0FEFFF717BA0132D2B2FA
:10392000022A40F25682002202701946FFF768BB55
:103930007F20FFF7C1BA7F20FFF7E3B91D4F1F4972
:1039400002974FF0000C81F800C0009F02994FF0E1
:10395000010E87F800E081F800C078E6224F387841
:1039600002F07CFE214B1B78002B00F040823B884C
:103970007E2B00F23C821E4CDFF884902268D9F83E
:103980000010521A0F2A40F229821A4A0133108875
:1039900099B23980002800F04382C9B2C0B205F064
:1039A0009FFC154F226898F80030C9F800203B7042
:1039B000FEF7DFBDF69CFF1F0C9EFF1F509EFF1FF2
:1039C000F49CFF1F289CFF1F409EFF1F489CFF1F69
:1039D000CC9CFF1F4C9CFF1F6889FF1FC79EFF1FC9
:1039E000909EFF1F889CFF1F789CFF1FE69EFF1F75
:1039F0001C9EFF1FC89CFF1F409CFF1FA19CFF1F18
:103A0000D49EFF1FDFF89CA33868BAF80030E04A64
:103A1000E04CC31A82FB031ED917C1EB6E0101EB08
:103A20004101A3EB810303EB430354F82330184413
:103A30007F2840F307857F3882FB0032C317C3EB32
:103A4000620303EB4303A0EB83007330DFF858837A
:103A5000DFF858B398F80010C0B205F071FCBBF85D
:103A60000030022B7FF6CFAB3968BAF80030C84A75
:103A7000CB1A82FB030ED817C0EB6E0000EB4000A0
:103A8000A3EB800303EB430304EB83035868084470
:103A90007F2840F3EE867F3882FB0032C317C3EBEA
:103AA000620202EB4202A0EB82007330C0B298F8CF
:103AB000001005F045FCBBF80030032B7FF6A3ABEC
:103AC0003968BAF80030B24ACB1A82FB030ED81715
:103AD000C0EB6E0000EB4000A3EB800303EB43035D
:103AE00004EB8304A06808447F2840F37D817F387D
:103AF00082FB0032C317C3EB620202EB4202A0EB6F
:103B00008200733098F80010C0B205F019FCFFF77E
:103B10007ABBDFF890A299F80000BAF800309C4A0E
:103B20009C4CC31A82FB031ED917C1EB6E0101EB3B
:103B30004101A3EB810303EB430354F82330184402
:103B40007F2840F305847F3882FB0032C317C3EB24
:103B5000620303EB4303A0EB83007330DFF84CB246
:103B6000C0B205F011FCBBF80030022B7FF6F4A9BF
:103B700099F80010BAF80030854ACB1A82FB030E80
:103B8000D817C0EB6E0000EB4000A3EB800303EB03
:103B9000430304EB8303586808447F2840F36D8691
:103BA0007F3882FB0032C317C3EB620202EB420292
:103BB000A0EB82007330C0B205F0E6FBBBF800302A
:103BC000032B7FF6C9A999F80010BAF80030704AA3
:103BD000CB1A82FB030ED817C0EB6E0000EB40003F
:103BE000A3EB800303EB430304EB8304A0680844C6
:103BF0007F2840F3C7807F3882FB0032C317C3EBB6
:103C0000620202EB4202A0EB82007330C0B205F008
:103C1000BBFBFFF7A1B90120FFF74EB9DFF884A184
:103C20005B49BAF800205B4C9A1A81FB020ED01750
:103C3000C0EB6E0000EB4000A2EB800202EB420200
:103C400054F8220018447F2840F30084A0F17F0339
:103C500081FB0321DA17C2EB610000EB4000A3EB0C
:103C600080007330DFF844B198F80010C0B205F05E
:103C700067FBBBF80030022B50D93968BAF8003026
:103C8000434ACB1A82FB030ED817C0EB6E0000EB41
:103C90004000A3EB800303EB430304EB830358686A
:103CA00008447F2840F3B9867F3882FB0032C3176F
:103CB000C3EB620202EB4202A0EB82007330C0B29F
:103CC00098F8001005F03CFBBBF80030032B25D919
:103CD0003868BAF800302E4AC31A82FB031ED9177F
:103CE000C1EB6E0101EB4101A3EB810303EB430345
:103CF00004EB8304A36818447F2867DD7F3882FBC8
:103D00000032C317C3EB620202EB4202A0EB820057
:103D10007330C0B298F8001005F012FB3B68FFF753
:103D200069BB05F031FBFFF719B80021402005F011
:103D3000D7FA4AE599F8000005F026FB40E5243C57
:103D4000002CB8F8003040F39C85A3423EF425AD2A
:103D5000A4B2114BA8F8004001221A70FEF71DBD55
:103D60000120FEF7CEBF0D4B01931B88002B3FF4C3
:103D7000D0A8FFF7F8BB0A498342A8BF03460B60EF
:103D8000FEF7D9BEFCF768FC40E71446FFF79ABB84
:103D9000ABAAAA2A24340100489CFF1F889CFF1F5D
:103DA000289CFF1F4C9EFF1FCC9CFF1F5C9CFF1F8D
:103DB000DF4BE04C19886A2005F014FC98F80030BD
:103DC0003B70FEF7D6BBFCF747FC79E4FCF744FCFC
:103DD0009FE702701946FFF713B9D64CD64F98F8F3
:103DE00000303B70FEF7C5BBFCF736FC8AE6D34BD0
:103DF0001B78002BF1D03B88CD4F002BEDD0CD4C64
:103E0000DFF848932268D9F80010521A0F2AE5D932
:103E1000CB4A013B108899B2398000287FF4BDADB0
:103E2000C8B205F0FDFABCE5DFF824A399F800005C
:103E3000BAF80030C34AC44CC31A82FB031ED91718
:103E4000C1EB6E0101EB4101A3EB810303EB4303E3
:103E500054F8233018447F2840F3FD837F3882FBD9
:103E60000032C317C3EB620303EB4303A0EB8300F1
:103E70007330DFF8E0B2C0B205F086FABBF800306C
:103E8000022B7FF669A899F80010BAF80030AD4A05
:103E9000CB1A82FB030ED817C0EB6E0000EB40007C
:103EA000A3EB800303EB430304EB8303586808444C
:103EB0007F2840F3DD857F3882FB0032C317C3EBD8
:103EC000620303EB4303A0EB83007330C0B205F041
:103ED0005BFABBF80030032B7FF63EA899F8001080
:103EE000BAF80030974ACB1A82FB030ED817C0EB02
:103EF0006E0000EB4000A3EB800303EB430304EBF5
:103F00008304A06808447F287FF73CAF7F3882FB9A
:103F10000032C317C3EB620303EB4303A0EB830040
:103F2000733073E6DFF828A23868BAF80030854AA3
:103F3000854CC31A82FB031ED917C1EB6E0101EB3E
:103F40004101A3EB810303EB430354F823301844EE
:103F50007F2840F359837F3882FB0032C317C3EBBD
:103F6000620303EB4303A0EB83007330DFF8E881C7
:103F7000DFF8E0B198F80010C0B205F0E1F9BBF845
:103F80000030022B7FF63FA93968BAF800306D4A3D
:103F9000CB1A82FB030ED817C0EB6E0000EB40007B
:103FA000A3EB800303EB430304EB8303586808444B
:103FB0007F2840F368857F3882FB0032C317C3EB4C
:103FC000620303EB4303A0EB83007330C0B298F8A5
:103FD000001005F0B5F9BBF80030032B7FF613A9EC
:103FE0003868BAF80030574AC31A82FB031ED91743
:103FF000C1EB6E0101EB4101A3EB810303EB430332
:1040000004EB8304A36818447F287FF7EDAE7F3864
:1040100082FB0032C317C3EB620303EB4303A0EB45
:10402000830073306EE5DFF828A14649BAF8002016
:10403000454C9A1A81FB020ED017C0EB6E0000EBC4
:104040004000A2EB800202EB420254F82200184426
:104050007F2840F30383A0F17F0381FB0321DA175C
:10406000C2EB610000EB4000A3EB80007330DFF88F
:10407000E4B098F80010C0B205F062F9BBF8003067
:10408000022B7FF64BAE3968BAF800302D4ACB1AB6
:1040900082FB030ED817C0EB6E0000EB4000A3EBD1
:1040A000800303EB430304EB8303586808447F2831
:1040B00040F3F6847F3882FB0032C317C3EB620300
:1040C00003EB4303A0EB83007330C0B298F80010F9
:1040D00005F036F9BBF80030032B7FF61FAE3868C9
:1040E000BAF80030174AC31A82FB031ED917C1EB76
:1040F0006E0101EB4101A3EB810303EB430304EBEE
:104100008304A36818447F287FF760AE7F3882FB62
:104110000032C317C3EB620303EB4303A0EB83003E
:104120007330F6E501283EF410AB0123FFF78ABB9C
:10413000789CFF1F1C9EFF1F409CFF1FE59EFF1FDA
:10414000C89CFF1FABAAAA2AEC350100D49EFF1F12
:104150004C9EFF1F5C9CFF1FCC9CFF1F4FF47A43BB
:10416000013BFDD199F8000005F00EF9FFF75BB8AF
:10417000DFF8E8A299F80000BAF80030B54AB64C6A
:10418000C31A82FB031ED917C1EB6E0101EB41017B
:10419000A3EB810303EB430354F8233018447F2837
:1041A00040F3DD817F3882FB0032C317C3EB62022C
:1041B00002EB4202A0EB82007330DFF8A4B2C0B27F
:1041C00005F0E2F8BBF80030022B7EF6C5AE99F898
:1041D0000000BAF800309F4AC31A82FB0321DA17A5
:1041E000C2EB610202EB4202A3EB820303EB430347
:1041F00004EB83035B6818447F2840F312847F3804
:104200000C2290FBF2F302FB13007330C0B205F0F6
:10421000BBF8BBF80030032B7EF69EAE99F8000089
:10422000BAF800308B4AC31A82FB0321DA17C2EBBB
:10423000610202EB4202A3EB820303EB430304EBB4
:104240008304A36818447F287FF79CAD7F380C2235
:1042500090FBF2F302FB13007330D7E4DFF8FCA10C
:104260003868BAF800307B4A7B4CC31A82FB031EC5
:10427000D917C1EB6E0101EB4101A3EB810303EB05
:10428000430354F8233018447F2840F365817F3876
:1042900082FB0032C317C3EB620202EB4202A0EBC7
:1042A00082007330DFF8BC81DFF8B4B198F80010F9
:1042B000C0B205F045F8BBF80030022B7EF6A3AF84
:1042C0003868BAF80030634AC31A82FB0321DA1750
:1042D000C2EB610202EB4202A3EB820303EB430356
:1042E00004EB83035B6818447F2840F3A7837F387F
:1042F0000C2290FBF2F302FB13007330C0B298F86B
:10430000001005F01DF8BBF80030032B7EF67BAFE4
:104310003868BAF800304F4AC31A82FB0321DA1713
:10432000C2EB610202EB4202A3EB820303EB430305
:1043300004EB8304A36818447F287FF755AD7F38CA
:104340000C2290FBF2F302FB13007330FFF7DABB91
:10435000FCF782F902E4DFF804A13E49BAF8002034
:104360003D4C9A1A81FB020ED017C0EB6E0000EB99
:104370004000A2EB800202EB420254F822001844F3
:104380007F2840F3EF80A0F17F0381FB0321DA1740
:10439000C2EB610101EB4101A3EB81007330DFF857
:1043A000C0B098F80010C0B204F0CAFFBBF80030EB
:1043B000022B7FF6B3AC3868BAF80030254AC31A2E
:1043C00082FB0321DA17C2EB610202EB4202A3EB8C
:1043D000820303EB430304EB83035B6818447F28E9
:1043E00040F32F837F380C2290FBF2F302FB130083
:1043F0007330C0B298F8001004F0A2FFBBF8003090
:10440000032B7FF68BAC3868BAF80030114AC31A18
:1044100082FB0321DA17C2EB610202EB4202A3EB3B
:10442000820303EB430304EB8304A36818447F284F
:104430007FF7CCAC7F380C2290FBF2F302FB130029
:10444000733066E4FCF708F9FFF700BBFCF704F9EA
:1044500008E400BFABAAAA2A7C3601004C9EFF1FCD
:104460005C9CFF1FCC9CFF1FDFF834A399F8000071
:10447000BAF80030C24AC34CC31A82FB0317D917DB
:10448000C1EB670101EB4101A3EB810303EB4303A4
:1044900054F8233018447F286ADD7F3882FB0032CD
:1044A000C317C3EB620202EB4202A0EB820073303F
:1044B000DFF8F0B2C0B204F067FFBBF80030022BA7
:1044C0007FF679A999F80000BAF80030AC4AC31A0F
:1044D00082FB0321DA17C2EB610202EB4202A3EB7B
:1044E000820303EB430304EB83035B6818447F28D8
:1044F00040F3AA827F380C2290FBF2F302FB1300F8
:104500007330C0B204F040FFBBF80030032B7FF6DD
:1045100052A999F80000BAF80030994AC31A82FBF0
:104520000321DA17C2EB610202EB4202A3EB820322
:1045300003EB430304EB8304A36818447F2814DDD2
:104540007F380C2290FBF2F302FB13007330C0B2F1
:1045500004F01AFFFFF72FB9FCF77EF8A2E6FCF78C
:104560007BF82AE6FCF778F819E7FCF775F8EEE730
:10457000FCF772F89CE7DFF828A299F80000BAF877
:1045800000307F4A804CC31A82FB031ED917C1EB4F
:104590006E0101EB4101A3EB810303EB430354F8EC
:1045A000233018447F28DADD7F3882FB0032C317BE
:1045B000C3EB620303EB4303A0EB83007330FCE522
:1045C000DFF8DCA13868BAF800306D4A6E4CC31AC7
:1045D00082FB031ED917C1EB6E0101EB4101A3EB76
:1045E000810303EB430354F8233018447F28B3DDE1
:1045F0007F3882FB0032C317C3EB620303EB430334
:10460000A0EB830073304DE6FCF726F8AEE4DFF84C
:1046100090A15B49BAF800205B4C9A1A81FB020E0C
:10462000D017C0EB6E0000EB4000A2EB800202EB63
:10463000420254F8220018447F2893DDA0F17F0342
:1046400081FB0321DA17C2EB610000EB4000A3EB12
:1046500080007330A3E6FBF7FFFF0AE4FBF7FCFFE3
:1046600005E5DFF83CA199F80000BAF80030444AAB
:10467000464CC31A82FB0317D917C1EB670101EB44
:104680004101A3EB810303EB430354F823301844A7
:104690007F287FF76DAF7F3882FB0032C317C3EBF3
:1046A000620303EB4303A0EB8300733000E7384859
:1046B0000090384838490390FEF7C6B8DFF8E0A00C
:1046C00099F80000BAF800302D4A344CC31A82FB26
:1046D0000321DA17C2EB610202EB4202A3EB820371
:1046E00003EB430354F8233018447F2840F3A081A0
:1046F0007F380C2290FBF2F302FB13007330DFF8DB
:10470000A4B0C0B204F040FEBBF80030022B19D9AF
:1047100099F80000BAF800300C22C11A91FBF2F3AC
:1047200002FB131302FB03435B6818447F2840F32A
:1047300052847F3890FBF2F302FB13007330C0B257
:1047400004F022FEBBF80030032B7EF605ACBAF86D
:10475000003099F800000C22C11A91FBF2F302FB21
:10476000131302FB0344A36818447F287FF70AABA6
:104770007F3890FBF2F302FB13007330FFF746BA69
:10478000ABAAAA2A2434010090300100EC350100C4
:10479000A29EFF1F259CFF1F509EFF1F0039010096
:1047A0004C9EFF1F5C9CFF1FDFF864A33868BAF8BB
:1047B0000030CE4ACE4CC31A82FB0321DA17C2EB7B
:1047C000610202EB4202A3EB820303EB430354F8C2
:1047D000233018447F2840F328817F380C2290FB37
:1047E000F2F302FB13007330DFF82883DFF828B3FD
:1047F00098F80010C0B204F0A3FDBBF80030022B03
:104800001AD93868BAF800300C22C11A91FBF2F3B9
:1048100002FB131302FB03435B6818447F2840F339
:10482000D4837F3890FBF2F302FB13007330C0B2E5
:1048300098F8001004F084FDBBF80030032B7EF6DE
:10484000E2ACBAF8003038680C22C11A91FBF2F3DE
:1048500002FB131302FB0344A36818447F287FF76D
:10486000C3AA7F3890FBF2F302FB13007330FFF70B
:1048700049B9FBF7F1FEFFF719B9FBF7EDFEFFF7BA
:104880009AB9012B3DF489AF0124FFF762BADFF832
:1048900080A29649BAF80020954C9A1A81FB021022
:1048A000D117C1EB600101EB4101A2EB810202EBE8
:1048B000420254F8220018447F2840F3BC80A0F143
:1048C0007F030C2093FBF0F200FB12307330DFF813
:1048D00048B298F80010C0B204F032FDBBF80030C6
:1048E000022B1AD93868BAF800300C22C11A91FB91
:1048F000F2F302FB131302FB03435B6818447F28A7
:1049000040F366837F3890FBF2F302FB13007330B1
:10491000C0B298F8001004F013FDBBF80030032B70
:104920007FF6FCA9BAF8003038680C22C11A91FB56
:10493000F2F302FB131302FB0344A36818447F281D
:104940007FF744AA7F3890FBF2F302FB1300733029
:10495000FFF7DFB9DFF8B8A199F80000BAF8003026
:10496000624A644CC31A82FB0321DA17C2EB61026C
:1049700002EB4202A3EB820303EB430354F8233020
:1049800018447F2846DD7F380C2290FBF2F302FBAF
:1049900013007330DFF880B1C0B204F0F5FCBBF84F
:1049A0000030022B19D999F80000BAF800300C2217
:1049B000C11A91FBF2F302FB131302FB03435B6882
:1049C00018447F2840F38F807F3890FBF2F302FB7E
:1049D00013007330C0B204F0D7FCBBF80030032BD7
:1049E0007EF6E9AEBAF8003099F800000C22C11A40
:1049F00091FBF2F302FB131302FB0344A368184478
:104A00007F287FF7B2AD7F3890FBF2F302FB1300F3
:104A100073309CE5FBF720FEBCE7FBF71DFEFFF7BC
:104A20004EB9FBF719FEFFF7F1BBFBF715FEDBE60E
:104A3000FBF712FE63E6FBF70FFE48E7FBF70CFE01
:104A40005CE4FBF709FED4E4FBF706FE59E5DFF86A
:104A5000C0A099F80000BAF80030244A264C35E688
:104A6000DFF8ACA03868BAF80030204A224CA2E641
:104A7000FBF7F2FDFFF72ABA029B1B78002B7EF4AE
:104A80004BAAFEF76EBAFBF7E7FDFFF79FBADFF818
:104A900080A099F80000BAF80030144A174C61E77A
:104AA000FBF7DAFDFFF711BBDFF864A00F49BAF896
:104AB0000020114CF1E6124B1B78002B00F0CB824A
:104AC000104B1B78002B7DF468AE0F4B1B78002B2E
:104AD0003DF463AEB8F800300C490A33A8F8003052
:104AE0000A70FDF75ABEFBF7B7FD73E7ABAAAA2A17
:104AF000003901007C360100A83701009030010028
:104B0000E29EFF1FE39EFF1FE49EFF1F489CFF1FC6
:104B10004C9EFF1FCC9CFF1F5C9CFF1FA44C228857
:104B2000002A00F02383A349DFF89CB20988BBF870
:104B300000000331884227DD9F48A0490088B1F872
:104B400000E0DFF87CC2181A0C2190FBF1F901FBA0
:104B500019004FF0900909FB0EFE01FB00E06FF019
:104B60000B0E5CF8000003440EFB02307F2840F37C
:104B700028857F3890FBF1F301FB13007330C0B23E
:104B800098F8001004F0DCFBBBF8002023881344E5
:104B9000022B23DD884B894A38681B88B2F800C095
:104BA000DFF81CE2C31A0C2193FBF1F201FB123275
:104BB000902303FB0CF301FB023373445B6818443E
:104BC0007F2840F3A3857F3890FBF1F301FB1300AE
:104BD0007330C0B298F8001004F0B2FBBBF80020AC
:104BE00023881344032B23DD734B744A38681B88D6
:104BF000B2F800C0DFF8C8E1C31A0C2193FBF1F250
:104C000001FB1232902303FB0CF301FB02337344CC
:104C10009B6818447F2840F326857F3890FBF1F38A
:104C200001FB13007330C0B298F8001004F088FB49
:104C3000BBF8002023881344042B7FF76FA85D4B3B
:104C40001B88012B7FF46AA83A68A2F10C007F2828
:104C50007FF7BCA88B3A0C2092FBF0F300FB1320EB
:104C60007330FFF756B8524C2388002B40F0A282D5
:104C7000DFF854B15049514A0988D7F80080B2F89A
:104C800000E04F48C1EB080C0C229CFBF2F102FB48
:104C900011C14FF0900C0CFB0EFE02FB01E16FF016
:104CA0000B0E405880440EFB03807F2840F3858420
:104CB000A0F17F0393FBF2F002FB10307330414B05
:104CC000C0B2197804F03CFBBBF8002023881344E1
:104CD000022B23DD384A394B11883868B3F800C0FD
:104CE000DFF8DCE0411A0C2291FBF2F302FB131116
:104CF000902303FB0CF302FB013373445B681844FD
:104D00007F2840F3A3847F3890FBF2F302FB13006B
:104D100073302C4BC0B2197804F012FBBBF80020A2
:104D200023881344032B23DD234A244B118838683E
:104D3000B3F800C0DFF888E0411A0C2291FBF2F3CF
:104D400002FB1311902303FB0CF302FB01337344AA
:104D50009B6818447F2840F36C847F3890FBF2F303
:104D600002FB13007330174BC0B2197804F0E8FA55
:104D7000BBF8002023881344042B7EF744AA0D4B74
:104D80001B88012B7EF43FAA3A68A2F10C007F2811
:104D900040F356818B3A0C2092FBF0F300FB13207A
:104DA0007330084BC0B2197804F0CAFAFEF72BBA78
:104DB000D49CFF1F769CFF1F4C9EFF1FFC9DFF1F76
:104DC00020310100CC9CFF1F5C9CFF1FCF4C23882F
:104DD000002B40F0FA81DFF868B3CD49CD4A09884D
:104DE00099F80000B2F800E0DFF85883C1EB000C3E
:104DF0000C229CFBF2F102FB11C14FF0900C0CFB5A
:104E00000EFE02FB01E16FF00B0E58F80110084492
:104E10000EFB03007F2840F3AC83A0F17F0393FBDC
:104E2000F2F002FB10307330C0B204F0ADFABBF800
:104E3000002023881344022B22DDB54AB54B11888C
:104E400099F80000B3F800C0DFF8F8E2411A0C222C
:104E500091FBF2F302FB1311902303FB0CF302FB13
:104E6000013373445B6818447F2840F3F3837F3831
:104E700090FBF2F302FB13007330C0B204F084FA2B
:104E8000BBF8002023881344032B22DDA04AA14B4A
:104E9000118899F80000B3F800C0DFF8A8E2411AC1
:104EA0000C2291FBF2F302FB1311902303FB0CF392
:104EB00002FB013373449B6818447F2840F3BD8391
:104EC0007F3890FBF2F302FB13007330C0B204F0A2
:104ED0005BFABBF8002023881344042B7EF73CA820
:104EE0008D4B1B88012B7EF437A899F80020A2F186
:104EF0000C007F287EF746AF8B3A0C2092FBF0F334
:104F000000FB13207330FEF781BEDFF804A299F88E
:104F10000000BAF80030814CC11A0C2291FBF2F368
:104F200002FB131302FB03F3E35818447F287FF7B7
:104F300071AD7F3890FBF2F302FB1300733029E56B
:104F4000774B1A88182A13D03B681344A3F1180032
:104F50007F2840F385830C20973B93FBF0F200FB06
:104F6000123303F173006F4BC0B2197804F0E8F903
:104F70006D4B6E491A78022A94BF013200221A70D2
:104F80001A7831F81200182810D10424022A02F1EC
:104F90000100C2B288BF002231F81200182804D1E3
:104FA000013CF3D11A70FEF72EB91A703B68034426
:104FB000A3F118007F2843DD0C20973B93FBF0F210
:104FC00000FB123303F17300EBE6FBF745FB2EE425
:104FD000FBF742FB9CE4FBF73FFBFFF7B0BB504BFA
:104FE0001B88182B12D099F800201344A3F1180045
:104FF0007F2840F31B830C20973B93FBF0F200FBD0
:10500000123303F17300C0B204F0BEF9464A474BB5
:10501000127833F81230182B3DF49EAF99F8002027
:105020001344A3F118007F287EF7ACAE0C20973B09
:1050300093FBF0F200FB123303F17300FEF7E6BDC1
:10504000FBF70AFBADE6DFF8C8A099F80000BAF854
:105050000030374C60E7374B1B78002B7DF4FAAFFC
:10506000354B1B78002B3DF498ABB8F80030334932
:105070000133A8F800300A70FDF78FBB2D4B1B7869
:10508000002B7DF48AAB2C4B1B78002B3DF485ABB9
:10509000B8F800302949013BA8F800300A70FDF744
:1050A0007CBB1F4A1288182A12D01344A3F118009F
:1050B0007F2840F3D2820C20973B93FBF0F200FB59
:1050C000123303F17300C0B298F8001004F038F9FD
:1050D000154B16491A78022A94BF013200221A7021
:1050E0001A7831F8120018282FD10424022A02F16C
:1050F0000100C2B288BF002231F81200182823D163
:10510000013CF3D11A703B68FEF774B9D49CFF1FC1
:105110004C9EFF1FFC9DFF1F769CFF1F0039010066
:10512000649CFF1FCC9CFF1FA089FF1F689EFF1F70
:10513000A8370100E39EFF1FE49EFF1F489CFF1F4E
:105140005C9CFF1F203101001A703B680344A3F1EF
:1051500018007F287EF73AAE0C20973B93FBF0F2C5
:1051600000FB123303F17300FEF7D3BDDFF828B361
:10517000E2E4BD4B1B88182B12D099F80020134491
:10518000A3F118007F2840F35B820C20973B93FB30
:10519000F0F200FB123303F17300C0B204F0F4F834
:1051A000B24AB34B127833F81230182B7FF436AF73
:1051B000FDF7D2BEAF4ADFF8E0B21288BBF80010AC
:1051C000033291427FF780AD54E5AA4ADFF8C8B2B6
:1051D0001288BBF80010033291427FF728AEFCE53D
:1051E000A14A1288182A12D01344A3F118007F286C
:1051F00040F37B820C20973B93FBF0F200FB1233D1
:1052000003F17300C0B298F8001004F099F8974BBE
:1052100097491A78022A94BF013200221A701A782C
:1052200031F81200182890D10424022A02F1010258
:1052300094BFD2B2002231F81200182884D1013C68
:10524000F3D15FE7884B1A88182A13D03B681344C0
:10525000A3F118007F2840F3F6810C20973B93FBC5
:10526000F0F200FB123303F17300834BC0B21978E4
:1052700004F066F87D4B7E491A78022A94BF013209
:1052800000221A701A7831F8120018287FF48EAEB6
:105290000424022A02F1010294BFD2B2002231F8A2
:1052A000120018287FF481AE013CF2D11A70FDF78C
:1052B000AABF724B00227F2107201A8004F010F849
:1052C0007F210B2004F00CF8FDF7F7BE6C4C23880F
:1052D000002B40F01082DFF8C0B16A4999F8000055
:1052E000694A09881788DFF8A4E1411A0C2291FB6A
:1052F000F2FC02FB1C114FF0900C0CFB07F702FBB9
:1053000001716FF00B075EF80110014407FB0310F9
:105310007F2840F3ED817F3890FBF2F302FB13000E
:105320007330C0B204F030F8BBF800202388134477
:10533000022B21DD534B544A99F800001B88B2F828
:1053400000E0524FC31A0C2193FBF1F201FB123221
:10535000902303FB0EF301FB02333B445B681844CC
:105360007F2840F3DA817F3890FBF1F301FB1300D3
:105370007330C0B204F008F8BBF80020238813444F
:10538000032B21DD3F4B404A99F800001B88B2F8FF
:1053900000E03E4FC31A0C2193FBF1F201FB1232E5
:1053A000902303FB0EF301FB02333B449B6818443C
:1053B0007F2840F3AF817F3890FBF1F301FB1300AE
:1053C0007330C0B203F0E0FFBBF800202388134421
:1053D000042B7EF7F0A9274B1B88012B7EF4EBA949
:1053E00099F80020A2F10C007F287FF7BEA88B3A25
:1053F0000C2092FBF0F300FB13207330FFF7A7B8EB
:10540000234B01227F2107201A8003F069FF7F21AF
:105410000B2003F065FFFDF748BE1E4B04227F21E1
:1054200007201A8003F05CFF00210B2003F058FFD7
:10543000FDF734BE174B02227F2107201A8003F0AC
:105440004FFF7F210B2003F04BFFFDF722BE114BD6
:10545000002107201C8003F043FF7F210B2003F075
:105460003FFFFDF711BE00BF6E9CFF1FA089FF1F0D
:10547000DC9DFF1F769CFF1FCC9CFF1F429CFF1FE3
:10548000D49CFF1F4C9EFF1FFC9DFF1F203101007D
:10549000EA9CFF1F429EFF1F5C9CFF1FAD4A1288C3
:1054A000182A12D01344A3F118007F2840F3478133
:1054B0000C20973B93FBF0F200FB123303F17300D7
:1054C000C0B298F8001003F03BFFA34BA3491A7831
:1054D000022A94BF013200221A701A7831F81200A1
:1054E00018287FF432AE0424022A02F1010294BF8C
:1054F000D2B2002231F8120018287FF425AE013C08
:10550000F2D1FFE5934B1A88182A13D03B68134455
:10551000A3F118007F2840F309810C20973B93FBEF
:10552000F0F200FB123303F173008D4BC0B2197817
:1055300003F006FF884B89491A78022A94BF01328A
:1055400000221A701A7831F8120018287FF42EAD54
:105550000424022A02F1010294BFD2B2002231F8DF
:10556000120018287FF421AD013CF2D11A70FDF72A
:105570004ABEFBF771F857E4764B1B88182B12D004
:1055800099F800201344A3F118007F2840F3CB8042
:105590000C20973B93FBF0F200FB123303F17300F6
:1055A000C0B203F0F1FE6C4A6C4B127833F8123043
:1055B000182B7FF433ADFDF7CFBCFBF74DF8FFF7A9
:1055C0007EBBFBF749F8FFF7DABA664B1B88182B4E
:1055D00012D099F800201344A3F118007F2840F35B
:1055E0009F800C20973B93FBF0F200FB123303F1FA
:1055F0007300C0B203F0C8FE574A5B4B127833F811
:105600001230182B3EF4D7A899F800201344A3F1C8
:1056100018007F287EF7A9AF0C20973B93FBF0F290
:1056200000FB123303F17300FEF791BFFBF714F890
:10563000E9E4FBF711F8FFF796BBFBF70DF845E43B
:10564000FBF70AF8A9E5FBF707F80EE6FBF704F805
:10565000FFF75FBBFBF700F80FE4FAF7FDFF32E559
:10566000FAF7FAFF7FE4FAF7F7FFFFF7DCBA394BF6
:105670001B88182B11D099F800201344A3F11800AF
:105680007F2856DD0C20973B93FBF0F200FB123392
:1056900003F17300C0B203F077FE2F4A2F4B12784C
:1056A00033F81230182BAFD1FEF785B82F4B1B887B
:1056B000182B11D099F800201344A3F118007F286B
:1056C0003ADD0C20973B93FBF0F200FB123303F121
:1056D0007300C0B203F058FE1F4A254B127833F80E
:1056E0001230182B90D1FEF766B8FAF7B5FF89E5AE
:1056F000FAF7B2FF15E61F4ADFF880B01288BBF850
:105700000010033291427FF70FAEE6E5FAF7A4FFEF
:10571000FFF75FBAFAF7A0FF53E6FAF79DFF28E616
:10572000FAF79AFF65E7FAF797FF39E7FAF794FF78
:10573000FBE6FAF791FFADE7FAF78EFFC9E7FAF754
:105740008BFFBDE623601946FDF75ABC0A4B029356
:10575000FDF709BF709CFF1FA089FF1FE49DFF1F7D
:10576000CC9CFF1F649CFF1F689EFF1F6E9CFF1F49
:10577000DC9DFF1F769CFF1FF69CFF1F5C9CFF1F9C
:1057800038B508F0DBF80B4805F0DAFC00234FF0E1
:105790007E5201210848FAF769FE084B084A094978
:1057A000802400251C7118461D60BDE838400BF0B0
:1057B000DDBB00BFE49CFF1F209EFF1FAC9EFF1FB0
:1057C0001C89FF1FFD05000010B50446A420636876
:1057D000198803F007FFE368A6201988BDE8104088
:1057E00003F000BF43682A20198803F0FBBE00BF06
:1057F00010B5044622206368198803F0F3FEE368BD
:1058000024201988BDE8104003F0ECBE10B5044612
:105810000A206368198803F0E5FEE3680C20198804
:10582000BDE8104003F0DEBE10B5044606206368F4
:10583000198803F0D7FEE36808201988BDE81040F6
:1058400003F0D0BE10B5044602206368198803F047
:10585000C9FEE36804201988BDE8104003F0C2BE09
:1058600070B50E4C84B01225042201230646039025
:10587000029320468DE824001423102107F00AFB30
:1058800006220923029303960195204600921423D1
:10589000102107F0FFFA04B070BD00BF149FFF1F76
:1058A00070B5AE4CB4F90030032B00F0E880002B4B
:1058B0004DD0022B6CD0052B00F09880012B00F00E
:1058C000C080042B00D070BD00244FF4AF75E1B24E
:1058D000A34805F05FFC01348542A8BF05460C2CA7
:1058E000F5D1012009F02AFB0446002009F026FB2F
:1058F000323CA0F132039B496FF4957000FB03F337
:1059000000FB04F081FB034281FB0041DB17C01761
:10591000C3EB6223C0EB612003F5AF7200F5AF73F8
:105920009342A8BF13469D42A8BF1D46A5F114018E
:10593000312900F3E28040F26C7332218A488B4AAD
:105940000180BDE870402A20136003F04BBE0E209A
:1059500007F058FF40F6FF71C8308842A8BF0846DC
:1059600020EAE07000F2DC5283B28A42804D814E20
:10597000A8BF0A460220194633802A8003F032FE6F
:105980002988042003F02EFEB4F90030022B92D1B6
:10599000172009F0D3FA0546162009F0CFFAA842DD
:1059A000B8BF284600F1C801B1F5FA7FC0F2BF8048
:1059B000B1F57A6FA8BF4FF47A6101F54873B3F57A
:1059C0007A6FA8BF4FF47A639BB289B26A4A6B4D73
:1059D00011800A202B8003F005FE29880C2003F09B
:1059E00001FEB4F90030052B7FF468AF0F2009F0F9
:1059F000A5FAC0F53F630433B3F5AF6FC0F28F80F3
:105A0000B3F5FA6FA8BF4FF4FA6399B25C4BC0F5D7
:105A10004360B0F5AF6F19807EDBB0F5FA6FA8BFB9
:105A20004FF4FA6083B2574DA4202B8003F0DAFDC7
:105A30002988A62003F0D6FDB4F90030012B7FF4AD
:105A400040AF0B2008F032FB00283CD0112009F0B9
:105A500075FA00F1C801B1F52F7F3CDB41F25C2300
:105A6000994278DC484A00F5487089B2B0F52F7F3A
:105A700011806DDB8342A8BF03469BB231E010204A
:105A800009F05CFAC830B0F5FA7F4BDBB0F57A6FFD
:105A90000146A8BF4FF47A6101F51673B3F57A6F2A
:105AA000A8BF4FF47A639BB289B2384A384D11804F
:105AB00022202B8003F096FD2988242003F092FDFC
:105AC000B4F90030F3E6152007F09CFE00F596715E
:105AD000B1F52F7F30DA40F214534FF42F712A4A78
