:1000000000800020BD01000071C5000029C500006E
:1000100029C5000029C5000029C5000029C5000028
:1000200029C5000029C5000029C5000071C50000D0
:1000300071C5000029C50000F1BB0000F5BC00003F
:1000400071C5000071C5000071C5000071C50000D8
:1000500071C5000071C5000071C5000071C50000C8
:1000600071C5000071C5000071C5000071C50000B8
:1000700071C5000071C5000071C5000071C50000A8
:1000800071C5000071C5000071C5000071C5000098
:1000900071C5000071C5000071C5000071C5000088
:1000A0002DA1000039A1000071C5000071C500003C
:1000B00071C5000071C5000071C5000071C5000068
:1000C00071C5000071C5000071C5000071C5000058
:1000D00071C5000071C5000071C5000071C5000048
:1000E00071C5000071C5000071C5000071C5000038
:1000F00071C50000DDE5000071C5000009E70000E2
:1001000071C5000049CF000071C5000071C5000035
:1001100071C5000071C5000071C5000071C5000007
:1001200071C5000071C5000071C5000071C50000F7
:1001300071C5000071C5000071C5000071C50000E7
:1001400071C5000071C5000071C5000071C50000D7
:10015000E1BD0000F5BD000009BE00001DBE0000AD
:1001600071C5000065D2000071C5000071C50000B6
:1001700071C5000071C5000071C5000071C50000A7
:1001800071C5000071C5000071C5000071C5000097
:1001900071C5000071C5000071C5000071C5000087
:1001A00071C5000071C5000071C5000071C5000077
:1001B00071C5000071C5000071C50000564B4CF2BE
:1001C000205210B51A804DF628121A8000BF00BFC9
:1001D0000CF0D2F9514B4FF010621A60504A9A60FD
:1001E000504ADA60504A136813F4807304D14F49BF
:1001F0000B604FF4A85313604D4B1A78110703D5C9
:100200001A7842F008021A704A4B4B492A221A7097
:100210004A4A4B4B8B4204D252F8040F43F8040B6A
:10022000F8E7484B484900228B4202D243F8042B9E
:10023000FAE74649464A002352F8230041F82300D2
:1002400001336F2BF8D1434B434A802103F8011B44
:100250009342FBD1414B3D4A1A60414B8A221A70AE
:10026000A3F5805324225A70A0221A709A7992071B
:10027000FCD59A79D406FCD43A4A937903F00C035E
:10028000082B384BF9D103221A7140225A719A79FE
:100290009006FCD5334A9179324B4906FBD5324A58
:1002A000324911600221516020221A709A7902F0BD
:1002B0000C020C2AFAD12E4B2E4A1A602E4B2F4AD2
:1002C0001A6000225A60072243F8042C2C4AC3F813
:1002D0000C2D62B60CF000FD144B1B68DA0705D537
:1002E00028480CF0CDFA284B284A1A60284B1B7876
:1002F0005B0609D5244C254B22689A4204D121483B
:100300000CF0BEFA002323600FF0B6FC0CF03AF9B3
:100310000CF068F8FEE700BF0E2005403080044076
:10032000823F04000100002B10D0034014D0034092
:1003300002D0074000E00740349BFF1F94340100C7
:100340004088FF1F349BFF1F24A3FF1F0082FF1F55
:100350000000000000E400E05FE400E008ED00E0E1
:100360000050064000400640448004400000030165
:1003700004800440C010050014E000E0FF76010096
:1003800000002020BF32185F1CE00340A5C3945A30
:1003900000F00740FFFFFFFFFFFFFFFFFFFFFFFF32
:1003A000FFFFFFFFFFFFFFFFFFFFFFFFFFFFFFFF5D
:1003B000FFFFFFFFFFFFFFFFFFFFFFFFFFFFFFFF4D
:1003C000FFFFFFFFFFFFFFFFFFFFFFFFFFFFFFFF3D
:1003D000FFFFFFFFFFFFFFFFFFFFFFFFFFFFFFFF2D
:1003E000FFFFFFFFFFFFFFFFFFFFFFFFFFFFFFFF1D
:1003F000FFFFFFFFFFFFFFFFFFFFFFFFFFFFFFFF0D
:10040000FFFFFFFFFFFFFFFFFFFFFFFFDEF9FFFF23
:1004100010B5054C237833B9044B13B10448AFF33E
:1004200000800123237010BD349BFF1F00000000DB
:1004300098340100084B10B51BB108490848AFF3C8
:1004400000800848036803B910BD074B002BFBD0A0
:10045000BDE81040184700BF00000000389BFF1F98
:1004600098340100349BFF1F0000000038B504469B
:10047000104621700A491D460FF0E0F901464FF081
:100480007E500FF08FFA07490FF0D8F9E5606060F1
:10049000256165610CF0B0FBE061204638BD00BF0E
:1004A000DB0FC9400024744938B50446104621705A
:1004B00009491D460FF0C2F901464FF07E500FF07A
:1004C00071FA06490FF0BAF9E5606060256165616F
:1004D0000CF092FBE06138BDDB0FC9400024744989
:1004E00038B503780446032B20D8DFE803F01A1848
:1004F0001002C16840690FF097F80D490546606821
:100500000FF050FA014628460FF04CFA38BD084962
:1005100040680FF047FAE1680FF090F938BDC06805
:1005200038BDC16840690FF07FF838BD002038BD84
:100530000024744970B504460E460CF05DFB054678
:10054000E069281A0FF026F9E3682361E561666126
:10055000A061014660680FF025FA0146A0601048CE
:100560000FF020FA0EF0F6FC0EF096F90FF008F8F6
:10057000054601464FF07E500FF056F861690FF0C6
:100580005DF92169064628460FF058F901463046C4
:100590000FF04CF8E0602046BDE87040FFF7A0BFC8
:1005A000000080BF08B50E200BF0F6FD114B1B8834
:1005B000012B19D0104B1B88984213DB40F6FF71BA
:1005C0008842D4BFC3EB0001C3EB0101C1EB013191
:1005D000C3F57F630F33282091FBF3F1BDE808409A
:1005E0000CF060B90021F3E70146BDE80840142093
:1005F0000CF058B9609DFF1F109CFF1F10B50446FA
:100600000BF0CCFB204610BD70B44C88A04220D922
:1006100001230133DBB21CB2660031F8144084427E
:100620001D46F6D3A04211D005F10045013D965B71
:1006300031F8151032F81530401AF21A00FB02F0AA
:10064000641A90FBF4F4E01870BC7047905B70BCC7
:10065000704702260125E5E700280CDA064A4342E6
:1006600082FB0320DA17C2EB600000EB4000A3EB33
:100670008000C0F10C007047ABAAAA2A2DE9F04710
:100680000C200BF055FD0C200CF00AFA9C491420AC
:100690000CF016FA9B499C4809F04EFA02210320FF
:1006A0000CF0A4FA022104200CF0A0FA022105208B
:1006B0000CF09CFA022106200CF098FA01210A2085
:1006C0000CF094FA012109200CF090FA01210D2080
:1006D0000CF08CFA012128200CF088FA012114205A
:1006E0000CF084FA02210B200CF080FA01210C207E
:1006F0000CF07CFA0C2000210CF064FA04200CF0C1
:1007000067FA70B305200CF063FA044680B3002446
:1007100020467E4D287006F04FFC2B78EBB9204622
:1007200008F05CF87A4B7B491B887B4C09887B4A34
:100730002170A3F5AF7140F23A7303FB01F382FB22
:100740000312DB17764D7748A3EB621332335A213D
:100750002B6009F09BFD90B9FEE7BDE8F04709F07A
:10076000FBB806200CF034FA0028CBD10124D0E7E6
:1007700003200CF02DFAB0FA80F04009C9E76A4A6C
:100780006A481268DFF8F8A100230121FFF78CFE08
:100790000B200CF01DFA011E0CBF012300238AF868
:1007A000003002D111200CF021FADFF89081604E68
:1007B000604F614D0023C8F8003033603B604FF05C
:1007C000040914E00BF0E8FC33681844306009F0C9
:1007D000010080F0010005F013F92B88002B14BFF5
:1007E0004B20DC200CF02AFAB9F1010919D00F20B6
:1007F0000CF016FC3B6803440E203B600BF0CCFC75
:10080000D8F800309AF800200344C8F800301520CA
:10081000002AD7D111200CF003FC33681844306053
:10082000D5E73B68D8F8002044493068DFF854E148
:100830002D88002BB8BF0333002AB8BF03329210B3
:100840000A603F493F4A0988128800284FEAA303FB
:10085000B8BF03303B6080103B4F30605E1A1944D4
:100860003E60CEF80010394F394E3A49C2EB000EC7
:100870000244C7F800E032600B605DB94FF4FA70D3
:1008800005F0CEF805F0B8F806F09EFE4FF4AF6024
:100890000CF0D4F9304B012504201D600CF098F9C0
:1008A00010B92E4B20701D702D4B1B881C2B1CD09B
:1008B0002C4C04F1C80523200BF06EFC44F8040F07
:1008C00001200CF0BBF9A542F5D1274A274B10783F
:1008D000187007F08DFE05F08BF845F6BF522449DD
:1008E0002448BDE8F0470BF00FBA234B18880028C6
:1008F000DED0224BC0B2197807F0C2FDD8E700BFA6
:10090000001B374640420F003C90FF1F949BFF1F87
:10091000B49DFF1F949DFF1FE49BFF1FB5814E1BDD
:100920009489FF1F049CFF1F2489FF1F289DFF1F20
:10093000509BFF1F809DFF1F569DFF1F689BFF1F41
:10094000A689FF1F2C89FF1F849DFF1FDC9DFF1FB1
:10095000E89BFF1FD09DFF1F8C9DFF1F829BFF1FE9
:10096000929DFF1F1C9CFF1F149DFF1FFA9CFF1FE1
:10097000A5050000A89DFF1FEC9BFF1FB09BFF1F5C
:10098000709DFF1FFC9CFF1FF0B40E8886420DD2A5
:1009900003F10043013B31F81350854202D9F0BC0A
:1009A000FFF732BE32F81300F0BC70471088F0BC7D
:1009B000704700BF094B1B880C2B09D8084A80B22E
:1009C00052F8232028B143F6FE73984203D9108CC5
:1009D0007047108870470349FFF716BE909BFF1FB2
:1009E000A00F0100A4110100374A38491088384A85
:1009F000F8B5384B12881B68834248DB9342A8BF86
:100A0000134698420B60C8BF002342DD101AB0F5B0
:100A1000804FAABF9B03C3EB8333013093FBF0F0FD
:100A2000FFF7C8FF2C4B2D4F1C883B68C0F3C61541
:100A300005FB04F47F2CA8BF7F249D42064608D006
:100A4000274B1B88002B38D1264B1B88002B30D11D
:100A50003D60254D2B689E4205D0214B1B885A1FB7
:100A6000032A1DD92E60214D2B689C420ED0204BAD
:100A7000188848B11A4B1F4A1B88D35C834203D0A5
:100A8000C0B2E1B207F0FCFC2C60F8BDF8BD034633
:100A900008609A42D4BFC0EB0203C0EB0303B5E782
:100AA000144AD05C2030C0B206F07F0107F0E8FCA9
:100AB000D8E7284607F058FDCAE70E4A2946D05C19
:100AC00007F0DEFCC0E700BF109CFF1F589BFF1F14
:100AD000BC9DFF1F5C9DFF1FA09BFF1FC49BFF1FB2
:100AE0004A9DFF1F069CFF1FC89DFF1F089CFF1FFC
:100AF000969DFF1F9889FF1F2DE9F04F172089B0A1
:100B00000CF08EFAAF4B186016200CF089FAAE4B41
:100B1000AE4A1B8810600C2B00F03B81AC4BAD4AF9
:100B200019880093AC4B52F8214000221A70AB4B4D
:100B3000AB4D1B88AB4A2E88013B32F91370002E57
:100B40005CD0A94BA94A1B88A9491278013B31F90D
:100B50001380002A40F0DF8011200CF061FAA54BD1
:100B60000193D3F800A00646B24540F3DF80A24BC4
:100B7000DFF8A4921B88A14A012BD9F80030B2F803
:100B800000B09F4A02922046C8EB030800F09A8208
:100B90000EF000FE029A52F82B100EF04FFE0146A6
:100BA00000200EF041FD0FF00FF8CAEB0802B0452F
:100BB000B8BFB0469042CAEB080880F2968200FBAC
:100BC0000888013298FBF2F08E4BDFF850820293D6
:100BD000D8F80030034403EBD3735B10C8F800303F
:100BE0002B88012B12D1884BDFF834B20393874B4B
:100BF000DBF8005004934FF0000A47E07D4B01936F
:100C0000DFF814927F4BDFF8148202937E4B03933C
:100C10001D460F200CF004FA2B689842824641DAF8
:100C2000754A1288012A00F01D82744A05931288C1
:100C3000734D049220460EF0ADFD049ADFF8E0B14A
:100C400055F82210DBF800500EF0F8FD01460020A8
:100C50000EF0EAFC0EF0B8FFEF1B059B5745A7EB23
:100C60000302B8BF5746FF1A9042BABF013200FBD9
:100C70000777474397FBF2F7D8F80020634B0493BC
:100C8000BB1803EBD3735B10C8F80030604B1B88B4
:100C9000013B032B00F2B082DFE813F06301A901EE
:100CA000C4008601594B04931B68984240F3C281EB
:100CB000514A1288012A00F0A682504A07931188EF
:100CC0004F4A0691204605920EF064FD059A06995A
:100CD000DFF84CB152F82110DBF800500EF0AEFDF9
:100CE0000EF072FF079B2F445745A7EB0302A8BFE6
:100CF0005746FF1AD8F800309042BABF00FB07777A
:100D00000132474397FBF2F73B4403EBD3735B108D
:100D1000C8F80030BAE715200BF03EFA354B0193C6
:100D2000D3F800A00646B2453FF721AF354B0293FA
:100D3000D3F800A0B24580F289812F4BDFF8D8901C
:100D40001B882E4A012BD9F80030B2F800B02C4A8B
:100D500003922046984400F070820EF01BFD039A27
:100D600052F82B100EF06AFD0EF02EFFB045CAEBC4
:100D70000802A8BFB046CAEB08089042B6BF00FB05
:100D8000088800FB08F8013298FBF2F0DFF88C804D
:100D90001EE7204B1B78002B3FF4C0AE0C4B0D4AD6
:100DA000198800930C4B52F8210001221A700EF0A2
:100DB000F1FC4FF07C510EF041FD0EF005FF0446B2
:100DC000B5E600BFBC9BFF1F929DFF1FD89DFF1F74
:100DD000C09BFF1F5889FF1F629BFF1FA489FF1F35
:100DE000049DFF1F8C130100AA89FF1F709DFF1F28
:100DF00080110100DC9DFF1FF49BFF1F8C9BFF1FD8
:100E0000A4130100E89BFF1F849DFF1FFC9CFF1F94
:100E10002E89FF1F489DFF1F509BFF1F9C9DFF1F9A
:100E2000809DFF1F28460EF0B5FCB2490EF006FD6E
:100E3000054650460EF0AEFCAF490EF0FFFC0146F1
:100E400028460EF0F3FB0EF0BFFE0546CBF800502F
:100E5000D9F800000EF09EFCA6490EF0EFFC074604
:100E600030460EF097FCA4490EF0E8FC01463846E7
:100E70000EF0DCFB0EF0A8FEC9F800009F4AA04B64
:100E8000168819889F4AA04B12681B889F4FC6EB93
:100E9000050E3544039EC6F800E0461A084404993E
:100EA0000D6001990E6002993E8808609A4280F2B6
:100EB00089810025C3EB060E954974450F6880F2C1
:100EC0007681611C9F4205FB01F50EF1010E95FB39
:100ED000FEF5C0F2BE81BE42A8BF3E46F61A01FB37
:100EE00006F494FBFEF49A4200F33681BB42C0F252
:100EF0003381884C20680EF04DFC87490EF09EFC33
:100F000086490EF093FB0EF05FFEA0F5FF531C3BED
:100F1000082B98BF4FF40050D8F800301844002830
:100F20002060C0F24281B0F5804F80F252817C4B4C
:100F30001B781BB1B0F5005F40F05381794D2B78E1
:100F4000002B40F05481784D20682B68714C9842FA
:100F500004D080B207F072FB23682B6009B0BDE8B3
:100F6000F08F28460EF016FC70490EF067FC05461F
:100F700050460EF00FFC6E490EF060FC014628460C
:100F80000EF054FB0EF020FE0546CBF80050D9F8C9
:100F900000000EF0FFFB65490EF050FC074630469E
:100FA0000EF0F8FB62495FE728460EF0F3FB5A4962
:100FB0000EF044FC054650460EF0ECFB5D490EF089
:100FC0003DFC014628460EF031FB0EF0FDFD0546C6
:100FD000CBF80050D9F800000EF0DCFB4E490EF0C3
:100FE0002DFC074630460EF0D5FB52493CE728461B
:100FF0000EF0D0FB50490EF021FC054650460EF095
:10100000C9FB4E490EF01AFC014628460EF00EFBB5
:101010000EF0DAFD0546CBF80050D9F800000EF0CE
:10102000B9FB45490EF00AFC074630460EF0B2FB0C
:10103000424919E7D8F80030DFF810B103EBD37359
:101040005B10DBF80050C8F800301FE6DFF80081C5
:10105000DFF80091D8F8003003EBD3735B10C8F8C9
:101060000030BDE5364A06931188364A0591204680
:101070000492DFF8D8B00EF08DFB049A0599DBF8E6
:10108000005052F821100EF0D9FB0EF09DFDEF1B21
:10109000069B5745A7EB0302B8BF5746FF1AD8F87F
:1010A00000309042BABF013200FB0777474397FBFD
:1010B000F2F73B4403EBD373234A04925B10C8F866
:1010C0000030E3E50EF066FB029A52F82B100EF0AA
:1010D000B5FB0EF079FDCAEB0802B045B8BFB046CB
:1010E0008242CAEB08083FF76AAD00FB08F898FB9C
:1010F000F2F069E5CDCC4C3FCDCC4C3EA689FF1F2C
:101100002C89FF1FBC9BFF1F5A9DFF1FA29BFF1F27
:10111000D89DFF1F8C89FF1F9A99193FCDCC4C4554
:101120008E9EFF1F059CFF1F2089FF1F3333733FD7
:10113000CDCC4C3DCDCCCC3E6666663FCDCCCC3DD7
:101140008C9BFF1FA4130100FC9CFF1F809DFF1FB1
:101150009C9DFF1F509BFF1F009B1B88002B3FF493
:10116000C8AE2B1B002BB8BF5B42092B47DD05F532
:1011700000500130001B0EF00DFB3B493B4C0EF0C4
:101180005DFB054620680EF005FB39490EF056FB65
:10119000014628460EF04AFA0EF016FDD8F8003047
:1011A000184400282060BFF6BEAE002213E09F4224
:1011B00005FB04F5B8BF002195FBFEF54BDA91FB6A
:1011C000FEF490E6B242D4BFC3EB0205C3EB0605C2
:1011D00070E643F6FF72274B22601B78002B3FF42A
:1011E000ADAE04F009FC244B01221A70ABE604F00A
:1011F000FFFB00232B70A6E6D9F800003EE64FF473
:1012000000501A4C88E61D491D4A069320460D8859
:1012100005920EF0BFFA059ADFF868B052F8251073
:10122000DBF800500EF00AFB014600200EF0FCF93E
:101230000EF0CAFC2F44069B56E50EF0ABFA039A5B
:1012400052F82B100EF0FAFA014600200EF0ECF9DD
:101250008AE51E4642E6B742D4BFC3EB0701C3EBA3
:10126000060104FB01F1AAE7CDCCCC3E8C89FF1F1F
:101270009A99193F8E9EFF1F059CFF1F8C9BFF1F95
:10128000A4130100809DFF1F08B5244B1B88FBB1F0
:10129000234B1B78FBB1234B1B78E3B1224B1B780C
:1012A000CBB1224B1B78B3B1214B22481A78C2B97B
:1012B000214A22490088128809680244B1EB620F72
:1012C00009DD01221A706420BDE8084004F0A8BBC3
:1012D000174A117801B908BD1370BDE8084007F03E
:1012E00077B9154A16490088128809680244B1EB9B
:1012F000620FF0DD00221A7007F06AF9642004F032
:101300008FFB642004F08CFB642004F089FB4FF415
:101310001670BDE808400BF091BC00BF069DFF1F92
:10132000E59DFF1FB69DFF1FB79DFF1FB89DFF1FC7
:101330008E9BFF1FA29BFF1F5A9DFF1FBC9BFF1F81
:10134000D89DFF1F38B5114C232025780AF024FFC3
:101350000F4A42F82500131F02F1C400002253F87F
:10136000041F83420A44FAD123780A4907480A4CE9
:101370000133DBB2322B81FB025108BF0023D217AD
:10138000C2EB21120370226038BD00BF7A9BFF1FA1
:10139000209CFF1F1F85EB517C9DFF1F2DE9F04F07
:1013A000B84CB94D2068B94F83B00EF0F3F9B84985
:1013B0000EF044FA064610200BF032FE0EF0EAF969
:1013C000B4490EF03BFA31460EF030F90EF0FCFB5A
:1013D0002988206088423B8843DA9E465B1A7F2B2F
:1013E0004FF0000247DDD2015E1C92FBF6F2AA4EDE
:1013F000DFF8C882B6F800C0C8F80020BCF1190FA9
:1014000000F0DF80BCF11A0F00F01781BCF11E0F55
:1014100000F020810126B146A04A1288002A00F07F
:101420009D808842C0F207817045D4BFC1EB0000A7
:10143000C1EB0E009A42BABF02FB000001335043D9
:1014400090FBF3F3964A1360964B1888C0B9964AFE
:101450001288AAB9954B197801B11A7003B0BDE88A
:10146000F08F9842D4BFC1EB0002C1EB03029E464D
:101470005B1A7F2BB7DCC2EBC21292FBF3F2B6E72A
:101480002988D4F800E0DFF80082DFF8F8A1714580
:101490006CDCDFF818C29CF80020002A2ED14FF037
:1014A000010B04288CF800B028D1002E40F0948164
:1014B0007D4B18880028D1D0B9F1000FCED0236819
:1014C0002C883A88A34280F265810023141B7E2C6D
:1014D000774DD5BFC3EB8313C3EBC3135B0001345C
:1014E00093FBF4F42B680134A34203D0C0B2E1B201
:1014F00006F0C6FF2C6003B0BDE8F08F012800F0B5
:10150000F680022800F0EB800328D1D1694B1B88BC
:10151000092BCDD0002ECBD023682E883A88B34239
:1015200080F27B810023961B7E2EDFF88CA1D5BF35
:10153000C3EB8313C3EBC3135B00013693FBF6F6D7
:10154000DAF800300136B34203D0F1B24A2006F097
:1015500097FFCAF80060ABE716469146BCF11E0F34
:101560007FF472AF0022DFF858817EE04F4B1A788B
:10157000002A3FF473AF002401281C7000F0A480FF
:10158000022840F00E81002E00F0A3804A4D2B6807
:10159000002B00F09E800420214606F071FF424B94
:1015A0002C60188800283FF459AFB9F1000F3FF4C0
:1015B00055AFC0B2002106F063FF3D4B00221A6018
:1015C0004CE7DFF8FC8098F80020C2B1DFF8D89033
:1015D000B9F800A0BAF1000F11D0DFF8E89099F83F
:1015E00000B0934578D05FFA8AF07F2106F048FF7B
:1015F00098F80030B6F800C089F8003010E0DFF845
:10160000C49099F800A0924566D0274B0021187825
:1016100006F036FF98F80030B6F800C089F80030C0
:101620001E4B1A88002A97D0BCF11E0F40F006818D
:101630000026B14619E00020FCE6DFF8848098F827
:101640000020002A0BBF012600264FF000094FF0B2
:101650000109E1E6DFF86880104B98F800601A880D
:10166000B6FA86F676094FF0000998F80030002B9C
:101670003FF4E8AE2988B7F800E02068C1EB0E031C
:10168000CFE600BFB49BFF1F0C9DFF1F089DFF1FEF
:101690009A99193FCDCCCC3E929DFF1FC49DFF1F50
:1016A000189CFF1FBA9BFF1FA29DFF1F999DFF1F44
:1016B000989BFF1F4A9DFF1F1C9CFF1F749DFF1FCF
:1016C000489DFF1F7E9BFF1F1EB1614D2B68002BA5
:1016D0007BD1604B188865E70026B1469CE6002E5A
:1016E0003FF4E6AEDFF868A1DAF800202EE0002E25
:1016F0003FF4DEAEB7F80080F045D4BFC1EB08027E
:10170000C1EB0E02C1EB0808B8F17E0FDFF840A173
:10171000D5BFC2EB8212C2EBC212520008F101081F
:1017200092FBF8F8DAF8002008F10108424506D0EB
:101730005FFA88F10120009306F0A2FE009B188852
:10174000CAF8008002287FF4DFAE42462168B5F86F
:1017500000803888414559DA0021C8EB0008B8F10B
:101760007E0FD3BFC1EB8111C1EBC11108F101089C
:10177000490091FBF8F808F10108904506D05FFA9E
:1017800088F10420009306F07BFE009B1888CAF8BD
:101790000080B9E69342D4BFC4EB0303C4EB020359
:1017A00094E6032827D12C4B1B88092B91D0002EBF
:1017B0008FD0274D2B68002B8BD04A20214606F076
:1017C0005FFE244B2C601888ECE6214606F058FE9C
:1017D000204B2C601888E5E640207F218DE80C0026
:1017E00006F04EFE019B009A188858451CD002282E
:1017F0007FF48AAE76E704287FF46BAF002E3FF4C7
:1018000068AF2146402006F03BFE62E78142D4BF2C
:10181000C8EB0101C8EB00019FE79342D4BFC6EBC0
:101820000303C6EB02037EE6B8F80010DAF800E026
:10183000B7F800808E45FFF665AF5DE72988B7F8F9
:1018400000E020680026C1EB0E03B146E9E500BFC9
:101850001C9CFF1FA29DFF1F4A9DFF1F08B50F4B39
:101860001B88022B0FD0032B12D0042B03D00C4B60
:1018700001221A7008BD7F21092006F001FE084BE5
:1018800001221A7008BD7F21412006F0F9FDEEE724
:101890004021092006F0F4FDE9E700BF149CFF1F7A
:1018A000D49BFF1F38B51C4B1B881D2B26D01B4B10
:1018B0001B88012B25D01A4A1A4B14881B681A4A18
:1018C000A342128818DB9342D4BFC4EB0303C4EBDA
:1018D0000203141B7F2CC6BFDB010134C3EBC3130F
:1018E00093FBF4F4114D2B689C4203D0E1B2052028
:1018F00006F0C6FD2C6038BD0023EAE70C4B1C88BF
:10190000F0E70C4B0C4A0D491B6812680C689B1AD7
:101910001C1B84F30704E5E7929DFF1F049DFF1F36
:10192000789DFF1F649BFF1F909DFF1F5C9BFF1F07
:10193000B09BFF1FD09DFF1F2889FF1F109DFF1F19
:1019400010B50F4C23685BB90E4B1B88022B11D0CE
:10195000033B012B09D90C4A00231370236010BDEF
:101960000021052006F08CFDEEE70021092006F09D
:1019700087FDF0E70021412006F082FDEBE700BF84
:101980005C9BFF1F149CFF1FD49BFF1F08B5274BB8
:101990001B78ABB115200AF0FFFB254A254B1288B6
:1019A00018601D2A15D0244A1288EAB1012A25D0D0
:1019B000224B1B78002B34D0BDE80840FFF7C0BF96
:1019C00011200BF02DFB1A4A1A4B128818601D2AA1
:1019D000E9D11B4B1B78002BEAD0184B1B780BB3BB
:1019E000BDE80840FFF75EBF164A1288002ADFD024
:1019F000154A1B6812889A42DADCEEE70F200BF0DA
:101A00000FFB104B114A1B88106033B1104B114A69
:101A10001B6812689B1A9842DFDD084B1B78002B6D
:101A2000CAD108BDFFF71AFFDAE700BF709DFF1F9C
:101A3000929DFF1F649BFF1F049DFF1FD49BFF1FF0
:101A4000489DFF1F149CFF1F789DFF1F109DFF1FC7
:101A5000D09DFF1F2889FF1F2DE9F04F8BB007ADE8
:101A6000B54F2C460AAE611BC9B2B44808F0D2FB90
:101A70003B88834294BF0020012004F8010BA6425A
:101A8000F1D1AF48AF4A9DF81C70AF4907709DF87F
:101A90001E00AE4D10709DF820209DF82430AC4EF5
:101AA000AC4C0A709DF82210297000253370257007
:101AB00073B9002940F00581A7491AB10B78002BB2
:101AC00040F0EC81002800F0BF810223237005E084
:101AD000002A40F0A78005239F492370DFF8D0B289
:101AE000DFF8D0829DF81D209DF82100DFF8C89214
:101AF000DFF8C8A2994D9A4F9A4E0B709DF81FC0FF
:101B00009DF823109DF827309DF826E08BF80020E3
:101B100088F800009DF82520297001203A70337064
:101B200089F800C08AF800E00BF07AFA8E4A8F4BF1
:101B300011688842CCBF012200221A7076DD8C4BDE
:101B40001B88182B72D88B4AB2F800E00C3B00932C
:101B5000BEF1000F72D1884A9BF800C092F800B025
:101B600098F8008099F800209AF8009094F800A066
:101B70002C78ABEB4C0BC2EB0B0BA8EB880EDE44C6
:101B8000C9EB897BC9EB8B09DFF8F4B1F14497F815
:101B900000E0BBF800B009EB44093478CE4404FB04
:101BA0000BEE4FF00C09754C19FB0AEEC4F800E07F
:101BB000B8F1000F0BD036784EB1714E3688042E36
:101BC0000CBF0EF1020E0EF1040EC4F800E06D4CD5
:101BD000DFF8EC912488B9F800A06B4EDFF8E491AF
:101BE0003688D9F80090009B033C04EB4404CAEB10
:101BF000CA0A0EEB84043444D144644E0C3C56F8BB
:101C000029601C44A319BCF1000F28D02C7834B3F0
:101C1000002A5AD1B8FA88F85D4C4FEA581884F86F
:101C2000008023E0062323704B4957E7514AB2F85E
:101C300000E000230093BEF1000F8CD0BEF1010F35
:101C400047D0BEF1020F00F0C1804C4C9BF800C0A1
:101C500099F8002098F80080D4F800E0A8E74C4CF0
:101C6000002525700AB13A781ABB0022494C8842F7
:101C700022704949C4BF494AC2F800E00A68934249
:101C800013D0474A474C10680590059820601268A9
:101C90000692454C069A24880B60121AA24284BF11
:101CA000424A13600BB0BDE8F08F3E483C4A0068E2
:101CB000EDE7BCF1000FD8D1B8F1000FD5D101226A
:101CC000D4E704232370244908E7314A0024147020
:101CD000CBE7294A9BF800C092F800E098F8008012
:101CE00099F8002094F800B09AF800902C780194AC
:101CF000AEEB4C0EC2EB0E0EA8EB88047444C9EB9D
:101D0000C909D944A31EDFF878A0DFF8BCE0019C24
:101D100097F800B05EF829E0BAF800A096F80090B5
:101D200003EB44045C4409FB0A4909F11809134C0C
:101D3000CE44C4F800E03BE7B49DFF1F049CFF1FA6
:101D4000B69DFF1FB79DFF1FB89DFF1FB99DFF1FC9
:101D5000BA9DFF1F019DFF1F0A9DFF1FE69DFF1FEC
:101D6000E79DFF1F989DFF1F9489FF1F489DFF1F40
:101D7000929DFF1F609BFF1FA889FF1F509DFF1FA3
:101D8000C29BFF1F649DFF1F7C9BFF1FD40F0100A0
:101D9000CC9DFF1FCD9DFF1FCC9BFF1FAC9BFF1F4A
:101DA000D09EFF1FF09BFF1FA09DFF1FD49DFF1F14
:101DB000E29DFF1FE49DFF1FE39DFF1FE59DFF1FA9
:101DC000889DFF1F189CFF1F54130100374A9BF882
:101DD00000C092F800B0247899F8002098F80080AC
:101DE0000394ABEB4C049AF80090314B95F800A0AB
:101DF000CDF804A0A8EB880BA41A5C444FF0050BA7
:101E00001BFB094B039C97F800A0CDF808A0C9EB79
:101E1000C909B3F800A009EB0403BDF80490029CC3
:101E20000BF1050B1EFB09BE96F800B0DFF8A4907D
:101E3000A6440BFB0AEE59F823901E4C0EF10C0E33
:101E4000CE44C4F800E0B3E65FBB0B78012B2BD97E
:101E5000194A23701288002A3FF440AE174A1288AC
:101E6000013A92B2062A3FF639AE154A1278002A94
:101E70003FF434AE134A1268012A7FF42FAE1248A1
:101E8000124A0068124E82FB0025C217C2EB65029F
:101E900002EB4202A0EB820232801FE60323237092
:101EA0001CE60123237019E63B4617E6A889FF1FAD
:101EB000C29BFF1F509DFF1FE09DFF1F169DFF1F30
:101EC000129CFF1F8C9DFF1FD49DFF1FABAAAA2A47
:101ED000549DFF1F7C1501002DE9F04F3A4B1B78F4
:101EE0008BB0002B6AD10E200AF056F90DF052FC8F
:101EF00001463648364E374DFEF71CFB3348FEF799
:101F0000EFFA0DF061FE80F30C003060FFF7A4FDE6
:101F10002C68012C7AD0022C00F0AB82032C00F04C
:101F2000B9832D4E33682D4A2D4E0993099B316894
:101F300012882C4C591A013A9142236000F2948283
:101F4000294E32689A1A0D2A00F28782274E32688B
:101F50009A1A132A00F27C82254E32689A1A252A90
:101F60001AD9244B1B88002B40F06881224B1B7828
:101F7000002B40F06381FFF7E5F9204B1B881B3BEA
:101F80009BB2022B04D81E4B1B78002B40F05981CA
:101F900003F058FD236833601A4D2A689B1A502BB2
:101FA00000F21282184B1B88012B00F02A8206F0E7
:101FB000FBFA06F029F90BB0BDE8F08F07F054FBEF
:101FC0000BB0BDE8F08F00BF949BFF1F289DFF1F43
:101FD0005C9DFF1F8C9DFF1FD09EFF1F9089FF1FE0
:101FE0000C9CFF1F249DFF1FFC9BFF1FDC9BFF1F02
:101FF000E09BFF1F069DFF1F8E9BFF1F929DFF1FF3
:10200000489DFF1F189DFF1F609DFF1FDFF828934D
:10201000A34AB9F800001378834204D0C3B218462B
:10202000137006F0FDF9DFF80C839E4AB8F8003013
:102030001178994204D09C4F3978002940F0FD86F0
:102040009A4A336812889A4E9A42C0F2FF80994A9F
:102050001278002A40F0FA80DFF8E0A2BAF80030E7
:1020600023B9954B1B88002B00F0FC84934A944BBA
:1020700011881B88934A0B4412685B109342924A62
:10208000126880F29E8400219342B4BF01230B4664
:1020900004910093ACBF4FF0010B8B4605910E20CD
:1020A0000AF07AF8894B8A4A1B6817680393013350
:1020B000A7F25232002B8446029240F3CF86802B47
:1020C000A8BF8023834A844912780191002A00F036
:1020D000C7800978914200F0C380B8F80010DFF89B
:1020E00054E2994201F0A7806F49AEF800307B4B73
:1020F0004FF0010E81F800E01978DFF844E2019B0F
:102100008EF800101A70009B002B00F01B81BAF8AB
:102110000030002B00F01681714B1B685A1C002AFE
:1021200040F3A086802A00F39C866E4C6E496F486F
:102130002488098800682144B0EB610FC1F2EE8267
:10214000A3F148020F2A02D8473BA9F800300E201D
:102150000AF022F86FF454731F44874202DC644B88
:1021600000221A7000200AF05BFF624A624B11687D
:10217000624C1B888842D4BF002201222270002BAF
:1021800000F016845E4B1C78944240D088423EDDBD
:102190005C490C78002C00F017875B4991F800C06F
:1021A000BCF1000F40F00E87584F0097584F594828
:1021B0000297564F007887F800C0554F4FF0010E38
:1021C00087F800C081F800E0002841F0B48052494F
:1021D0000978002900F0D887504903910C46097806
:1021E000002940F0CE874E48494F007839700121D0
:1021F0000297217058B1454843490090002008706B
:102200000099029F0870039901243C7008701A70AD
:10221000444B1B88A3F11B02012A40F2E9851D2BC8
:102220007FF480AE3E4F3B78002B41F04B803E4C1C
:102230002378002B40F08984237073E6FFF724F89D
:1022400099E62B68012B7FF4A3AEA3E63168374AE9
:10225000069106983649106002220B602A60FBE660
:102260001E49DFF8DCE0097800293FF448AF9EF80A
:10227000000081423FF443AF03984B2840F3A2870C
:102280001833802BB8F80000A8BF802398423FF491
:1022900036AF284803800448012303702FE700BFAE
:1022A000FA9CFF1FE49BFF1F829BFF1F109CFF1FD8
:1022B000D09EFF1F8E9BFF1F029CFF1FA29BFF1F34
:1022C0005A9DFF1FBC9BFF1FD89DFF1FAC9BFF1F8C
:1022D000689BFF1FCC9DFF1FC89BFF1FCD9DFF1F4D
:1022E000509DFF1F0C9DFF1F089DFF1FB49BFF1FEC
:1022F000009DFF1F9489FF1F169DFF1FA89BFF1FB6
:10230000549BFF1FE59DFF1F589DFF1FA49DFF1FAE
:10231000129CFF1FE69DFF1FE29DFF1F559BFF1FA5
:10232000489DFF1F929DFF1F7E9BFF1FD89BFF1F95
:10233000209DFF1F949DFF1F149DFF1FD09BFF1F1B
:10234000C99BFF1F029B9C45BFF601AF864B1B88B4
:10235000002B3FF4FCAEBBF1000F7FF4DDAE834BEE
:102360001B881BB1059B002B7FF4D6AE049B002B72
:102370003FF4EDAE7E4B1A78002A7FF4E8AEDFF82A
:10238000649299F8004001221A70002C40F03783C3
:10239000784B1B78002B02F03780774B1B78002B93
:1023A00002F00283754B1B78002B7FF4D0AE744B88
:1023B0001B78002B3FF4CBAEB8F8003071490A3BD4
:1023C000A8F800300A70C2E604F03EFE6E4B1B789F
:1023D00073B96E4B1B785BB96D4B1B7843B96D4B72
:1023E0001B782BB96C4B1B7813B903F001FB01E090
:1023F00003F00AFB23682B60684B1B88012B7FF4DA
:10240000D6AD674A674B116867481A78A1F118037F
:102410002A2101FB03F10160002A00F0B382634C22
:102420002368994200F35C8310DA61480278002A3D
:1024300040F03E875F4A1068D0F17F0048BF03300C
:10244000801001301B1A994242F3428621609BE2C0
:10245000FFF79CFA236833607EE5FEF74DFBFEF73D
:102460009DFF2368336071E5FEF7BEFA2368336091
:1024700066E5514A34681188A14204DB464B1B785B
:10248000002B00F05D834D4E4D48336807934D4B54
:10249000079A00681B88121A9A4200F2A980002B42
:1024A00000F0A680484B1A88002A3FF43BAD474B0A
:1024B00047481B680088A342B8BF2346994241F3AE
:1024C0002681444B1960DFF8208188F80020344FC2
:1024D000FEF78AFA38687F2840F370853E4B7F38D4
:1024E00083FB0032C317C3EB620303EB4303A0EB90
:1024F00083007330394B01931B883860002B40F008
:102500008C86234B00931B78002B00F0CD83344C3A
:102510002378002B00F0C883DFF8D090DFF8B8A054
:102520004FF0000B0CE003F17300C0B298F80010FC
:1025300005F0CEFF23780BF1010B5B4540F3B4832C
:102540003B6859F8040F1844A0F17F038AFB03216C
:10255000DA17C2EB610202EB42027F28A3EB82038F
:10256000E1DCFEF779F8E0E7029CFF1F1C9DFF1FEE
:10257000009DFF1FE29DFF1FE39DFF1FE49DFF1FC6
:10258000E59DFF1F829BFF1F129CFF1F589DFF1F91
:10259000A49DFF1F559BFF1F8E9BFF1F609DFF1F6C
:1025A000D49DFF1FD49BFF1FC09DFF1F889BFF1F53
:1025B000A59DFF1F5C9BFF1F109CFF1FD09EFF1F50
:1025C000D89BFF1F009CFF1F809BFF1F209DFF1FAC
:1025D000BC9DFF1F589BFF1FABAAAA2AB89BFF1FD9
:1025E0005489FF1F019DFF1FF69BFF1F2C89FF1FB2
:1025F000554B564A1B681088554AA342B8BF23461C
:10260000994200F38482534C12888342A8BF034648
:102610002360002A7FF457AF9942C8BF134640F3A6
:102620007D82401AB0F5804FAABF9B03C3EB833372
:10263000013093FBF0F0FEF7BDF9C0F3C6100DF0CA
:10264000A9F8454B044618880DF0A4F843490746FD
:1026500020460DF0F3F8014638460DF0EFF821461C
:102660000CF0E4FF4FF07E5104460DF085FA00288F
:1026700041F031803A4920460DF09CFA002840F0A4
:10268000548620460DF0C6FAC0B2DFF8F48088F810
:1026900000001CE7334B34681988A14274DD324BCB
:1026A0001B78002B70D1DFF8DC9099F800007F28B0
:1026B00040F3FA85A3F155337F3803F1004383FBE0
:1026C0000032C317C3EB620303EB4303A0EB8300A9
:1026D0007330264B01931B88C0B289F80000002B91
:1026E00040F0EB87224B00931B78002B00F099847D
:1026F000204C2378002B00F094841F4FDFF87C805F
:102700004FF0000A0AE003F17300C0B205F008FFC1
:1027100023780AF1010A534540F3838457F8043FB4
:1027200099F800001844A0F17F0388FB0321DA1711
:10273000C2EB610202EB42027F28A3EB8203E2DCE0
:10274000FDF78AFFE1E700BF209DFF1FBC9DFF1F33
:10275000809BFF1F589BFF1FCE9DFF1FCDCCCC3D04
:102760000000FE42109CFF1F8E9BFF1FB89BFF1FA7
:10277000A49DFF1F5489FF1F2C89FF1FABAAAA2A03
:10278000F69BFF1F4C9DFF1FB84F38687F2840F312
:10279000CC81B74B7F3883FB0032C317C3EB620396
:1027A00003EB4303A0EB83007330DFF8249399F825
:1027B00000A0824500F01F82AE4B1B88002B43D146
:1027C000AD4AAE4812680088914205DC8242D4BF0F
:1027D000C1EB0203C1EB0003411AB1F5804FA6BF64
:1027E0009B030131C3EB833393FBF1F0FEF7E2F877
:1027F000C0F3C6100CF0CEFFA14B044618880CF0B5
:10280000C9FFA049804620460DF018F80146404611
:102810000DF014F821460CF009FF4FF07E510446EC
:102820000DF0AAF9002840F0C286974920460DF025
:10283000C1F9002840F0768520460DF0EBF9C0B2D2
:10284000DFF8908288F80000BAF17F0F40F3B2837E
:102850008748AAF17F0A80FB0A304FEAEA73C3EB8C
:10286000600000EB4000AAEB80007330874B0093C0
:102870001B78C0B289F80000002B40F01283844B13
:1028800003931B78002B40F0F584824B02931B7856
:10289000002B40F03487804B0193029B1B78FBB1E7
:1028A0007E4B1B88012B00F00086022B00F059871D
:1028B000032B01F0EB80042B01F0EB82052B01F0E0
:1028C0000784062B01F06085072B01F0D185082BCA
:1028D00002F02A80092B02F02F810A2B02F082825B
:1028E000009B1B78002B00F05F84019B6A4C1988C9
:1028F000002900F0B58438687F2840F3CF825C4B14
:102900007F3883FB0032C317C3EB620303EB43033F
:10291000A0EB830073303860002940F06484009B92
:102920001B78002B00F072815D4C2378002B00F0A7
:102930006D81DFF8A4A1DFF89C814FF0000B0CE063
:1029400003F17300C0B298F8001005F0C1FD2378C0
:102950000BF1010B5B4540F359813B685AF8040FBA
:10296000434A1844A0F17F0382FB0321DA17C2EB2C
:10297000610202EB42027F28A3EB8203E0DCFDF759
:102980006BFEDFE7474B1960474B1B68A92202FB30
:1029900003F3002BBCBF03F57F533F339B13543B22
:1029A000194481F30C01282009F07CFFFFF7FFBADE
:1029B000384C3E483549364A237003700B7013700B
:1029C00026E493424FF0000B80F2B2800123CDF851
:1029D00000B0CDF814B00493FFF761BB344B1B7803
:1029E000002B7FF4B4AB039B324A243B83F34703B1
:1029F000D9B25B20136005F043FD99F80040032C29
:102A000030D1DFF8D88098F80030002B42F02181D7
:102A1000294F3B78002B42F00F81254C2378002B67
:102A200042F0FD80254B1B78002B42F0EB80244ABE
:102A30001380244B1B78002B42F017810D4B7F2213
:102A40001A8098F800306BB93B785BB923784BB9A2
:102A50001D4A7F210720138005F012FD7F210B20E6
:102A600005F00EFD194B1F68FFF771BBD49DFF1FCA
:102A7000ABAAAA2A809BFF1F589BFF1FBC9DFF1F6C
:102A8000CE9DFF1FCDCCCC3D0000FE42A49DFF1F7C
:102A9000559BFF1F129CFF1FB89BFF1F169DFF1F1A
:102AA0005489FF1F889BFF1F8C89FF1F589DFF1FA4
:102AB000E59DFF1FB09DFF1FE49DFF1FE39DFF1FCE
:102AC000069CFF1FE69DFF1F4A9DFF1F689BFF1F7F
:102AD0004C9DFF1FF69BFF1F2C89FF1FE29DFF1FD0
:102AE000B04A1078002840F04383AF4A1268D2F110
:102AF0007F0248BF033203EBA202531CAB4A2360A0
:102B00009942B8BF1160FFF63FAF19463CE7A84BAA
:102B100012881960002A7FF4D6AC0B469842D4BFC5
:102B2000C1EB0003C1EB03037BE5FDF795FD3CE63C
:102B30000123CDF810B0CDF800B00593FFF7AFBA80
:102B400001232B609B4EFFF7EDB99B4B6A20198840
:102B500005F01AFE3B782370FFF7E4B9029B1B785F
:102B6000FBB1964B1B88012B00F01884022B00F060
:102B70007686032B01F00080042B01F0AF81052B3A
:102B800001F02A82062B01F01484072B01F0C08586
:102B9000082B01F07D86092B01F0EF870A2B02F04C
:102BA000B281019B1B88002B00F02683009B1B78C1
:102BB0003BB9039B1B7823B9029B1B78002B00F0C9
:102BC00054877F4B1B78002B00F035817D490B78B3
:102BD000082B00F230817C483A6800687B4C013356
:102BE000DBB25F1E101A44F827000B70784B346874
:102BF000198889F800208C426E4E7FF793A93268BD
:102C0000744B0892089A1A60FFF78CB9039B1B78E3
:102C1000002BA3D03B68A3F10C007F2840F327834F
:102C20006D488B3B80FB0320DA17C2EB600000EBA2
:102C30004000A3EB800303F17300DFF8AC81C0B266
:102C400098F8001005F044FC009B1B78002B85D001
:102C50005C4C2378002B81D0DFF890A14FF0000B63
:102C60000CE003F17300C0B298F8001005F030FCDE
:102C700023780BF1010B5B457FF770AF3B685AF887
:102C8000040F554A1844A0F18B0382FB0321DA1785
:102C9000C2EB61020C3802EB42027F28A3EB8203F5
:102CA000DFDCFDF7D9FCDEE7454B1B78002B40F05D
:102CB000A9823B68494A1278002A45D0A3F10C004A
:102CC0007F2840F3EE82444A8B3B82FB0321DA17D4
:102CD000C2EB610202EB4202A3EB820303F1730039
:102CE000C0B298F8001005F0F3FB009B1B7853B3BB
:102CF000344C23783BB3DFF8F490DFF8DCA04FF0DE
:102D0000000B0BE003F17300C0B298F8001005F05F
:102D1000DFFB23780BF1010B5B4514DD3B6859F8B1
:102D2000040F1844A0F18B038AFB0321DA17C2EBCE
:102D300061020C3802EB42027F28A3EB8203E1DC44
:102D4000FDF78AFCE0E73B68254A1278FAB11B4A96
:102D50001288012A00F02E84022A00F00186032A3C
:102D600000F08387042A01F0E080052A01F0188230
:102D7000062A01F02A83072A01F01984082A01F0A3
:102D80005786092A01F09B860A2A02F08880019A58
:102D90001288002A00F04882124903220B702A6030
:102DA000FFF7C0B8A59DFF1F5C9BFF1F889BFF1FFF
:102DB000589BFF1FD09EFF1FB09BFF1F169DFF1F3C
:102DC000589DFF1F5489FF1F849BFF1F3089FF1FE1
:102DD000109CFF1F789EFF1FABAAAA2A559BFF1FBE
:102DE000129CFF1F4C9DFF1FF69BFF1F2C89FF1F8E
:102DF000B04F3B78002B3FF41AAAAF4C207802F07A
:102E000071FEAE4B1B78002B00F0748223887E2B62
:102E100000F27082AA4A0133108899B221800028FA
:102E200000F07882C9B2C0B2A64C05F029FB3B780D
:102E30002370FFF777B83A68D8E6DBB2184613700C
:102E400005F0FCFAA04BA1491A46A14B18460023F5
:102E50000B703B7013700370FFF7F2B80123FFF79C
:102E600031B980249B499C4B9C4A09881B88126875
:102E70000B44B2EB630FBFF66AA98E4B1B78002B95
:102E800040F0DF81B8F80030954AA3423FF45FA9D3
:102E9000944B148001221A70FFF759B9FDF7DCFB3F
:102EA00039E5914B01931B88002B42F00B81884B35
:102EB00003938E4B02938E4C23786BB3DFF84082E2
:102EC000DFF830A24FF0000B09E003F17300C0B24D
:102ED00005F026FB23780BF1010B5B451CDD58F850
:102EE000043F99F800001844A0F17F038AFB0321F6
:102EF000DA17C2EB610202EB42027F28A3EB8203E6
:102F0000E3DCFDF7A9FBE2E7784B029305F008FB51
:102F1000009B1B78002BCED1039B1B78002B3FF42A
:102F2000BCAC99F80030A3F10C007F2840F3B681C7
:102F300070488B3B80FB0320DA17C2EB600000EB8C
:102F40004000A3EB800303F17300C0B205F0E8FA80
:102F5000009B1B78002B00F09681654C2378002B9A
:102F600001F04B82DFF89881DFF888A14FF0000B69
:102F70000AE003F17300C0B205F0D2FA23780BF136
:102F8000010B5B457FF789AC58F8043F99F80000C6
:102F90001844A0F18B038AFB0321DA17C2EB61020C
:102FA0000C3802EB42027F28A3EB8203E1DCFDF741
:102FB00053FBE0E75046FDF74FFB57E4FDF74CFBB2
:102FC000FFF798BA002008704B49087840B13E4995
:102FD00000910978002900F0AB81009F0021397031
:102FE0004649097800297FF4F7A8002C40F0CC80EE
:102FF000002840F0C9802F4C334F94F800E0344C47
:1030000003943A4C0294324C30492070374C00976C
:10301000087038702070BEF1000F7FF4EFA8FFF742
:10302000F6B82B4B1B78002B6CD099F80030A3F12D
:103030000C007F2840F37B832E4A8B3B82FB0321CD
:10304000DA17C2EB610202EB4202A3EB820303F147
:103050007300C0B205F064FA009B1B78002B51D0BE
:10306000234C2378002B4DD0254FDFF888804FF07C
:10307000000A09E003F17300C0B205F051FA2378A9
:103080000AF1010A53453DDD57F8043F99F8000065
:103090001844A0F18B0388FB0321DA17C2EB61020D
:1030A0000C3802EB42027F28A3EB8203E2DCFDF73F
:1030B000D3FAE1E7489DFF1FB09BFF1FE79DFF1F6D
:1030C000EC9BFF1F7E9BFF1FA49DFF1F589DFF1FB2
:1030D000559BFF1F0C9DFF1F089DFF1FB49BFF1FEB
:1030E000949DFF1F829BFF1FB89BFF1F129CFF1F19
:1030F0005489FF1FABAAAA2AE69DFF1FE29DFF1F6E
:103100002C89FF1F924B1B78FBB1924B1B88012B24
:1031100000F03886022B00F03287032B01F0AB80E1
:10312000042B01F05D81052B01F09783062B01F044
:103130003084072B01F0BC85082B01F07B86092B1E
:1031400001F088870A2B01F06587019B1B88002B03
:1031500000F0BC82804B1B78002B40F0B2827F4B8A
:103160007F4A198834680020012310602B6042E5F3
:103170000130C0B2022886BF0021117010701946BC
:1031800002E40398002101707649097800293FF490
:103190003EA86F4902910978002900F0168702982D
:1031A00000210170FFF733B8039B1B78002B7FF4DD
:1031B0009CAB029B1B78002B7FF497AB019B19887B
:1031C000FFF799BB243B002BB8F8000040F347847D
:1031D00098423EF494AF9BB26348A8F800300123B4
:1031E0000370FEF78CBFDFF88481C0B298F800103E
:1031F00005F06EF9FFF793BB5C4B3878197805F052
:1032000067F9D3E47F21402005F03AF95849594A3B
:103210003B680B60002111704CE5C0B298F80010BB
:1032200005F056F9FFF76DB9D8B298F8001005F01F
:103230004FF93B68B0E5504BDFF85CE11978FEF7D9
:103240005EBF4B2C40F34A821834802CB8F8003013
:103250004A4AA8BF8024A3427FF41AAEFEF777BF84
:1032600099F8000005F05CF92188FFF744BBFDF7F1
:10327000F3F9E2E4424B01931B88002B7FF444AE48
:10328000334B02934DE6029B1B78002B7FF408AB77
:10329000039B1B78002B7FF428AB8FE7FDF7DCF94D
:1032A00053E6FDF7D9F91BE5FDF7D6F9FFF711BA9B
:1032B0000132D2B2022A40F23D8200220270194647
:1032C000FFF762BB2F4C207802F00CFC2E4B1B78D2
:1032D0001BB123887E2B41F23B802C4B1B7823B102
:1032E0002388284A002B41F05880294C3B782370D2
:1032F000FEF718BE254B1B78002BF6D02388214AF9
:10330000002BF2D02349013B088899B21180002894
:103310007FF488ADC8B21E4C05F026F93B782370C7
:10332000FEF700BE7F20FFF78BBA7F20FFF7ADB915
:10333000074F094902974FF0000C81F800C0009F29
:1033400002994FF0010E87F800E081F800C047E6CF
:10335000129CFF1F169DFF1F589DFF1F109CFF1FF3
:10336000589BFF1F489DFF1F829BFF1FF69BFF1F5F
:10337000849BFF1F5489FF1FCD9DFF1F949DFF1F3E
:10338000B89BFF1FB09BFF1FE79DFF1FE69DFF1F20
:103390007E9BFF1FEC9BFF1FC99BFF1FDFF8B0A3A5
:1033A0003868BAF80030E54AE54CC31A82FB031EC0
:1033B000D917C1EB6E0101EB4101A3EB810303EBD4
:1033C000430354F8233018447F2840F3C9847F38DE
:1033D00082FB0032C317C3EB620303EB4303A0EB92
:1033E00083007330DFF86C83DFF86CB398F800105B
:1033F000C0B205F06DF8BBF80030022B7FF6D1AB00
:103400003968BAF80030CD4ACB1A82FB030ED817C0
:10341000C0EB6E0000EB4000A3EB800303EB430323
:1034200004EB8303586808447F2840F320877F38E3
:1034300082FB0032C317C3EB620202EB4202A0EB35
:1034400082007330C0B298F8001005F041F8BBF864
:103450000030032B7FF6A5AB3968BAF80030B74AC5
:10346000CB1A82FB030ED817C0EB6E0000EB4000B6
:10347000A3EB800303EB430304EB8304A06808443D
:103480007F2840F36B817F3882FB0032C317C3EB88
:10349000620202EB4202A0EB8200733098F8001047
:1034A000C0B205F015F8FFF77CBBDFF8A4A299F8CD
:1034B0000000BAF80030A14AA14CC31A82FB031ED7
:1034C000D917C1EB6E0101EB4101A3EB810303EBC3
:1034D000430354F8233018447F2840F33D847F3859
:1034E00082FB0032C317C3EB620303EB4303A0EB81
:1034F00083007330DFF860B2C0B205F011F8BBF89A
:103500000030022B7FF6ECA999F80010BAF80030D1
:103510008A4ACB1A82FB030ED817C0EB6E0000EB71
:103520004000A3EB800303EB430304EB83035868E1
:1035300008447F2840F397867F3882FB0032C31708
:10354000C3EB620202EB4202A0EB82007330C0B216
:1035500004F0E6FFBBF80030032B7FF6C1A999F811
:103560000010BAF80030754ACB1A82FB030ED81748
:10357000C0EB6E0000EB4000A3EB800303EB4303C2
:1035800004EB8304A06808447F2840F3CA807F3896
:1035900082FB0032C317C3EB620202EB4202A0EBD4
:1035A00082007330C0B204F0BBFFFFF799B901206D
:1035B000FFF746B9DFF898A16049BAF80020604CDF
:1035C0009A1A81FB020ED017C0EB6E0000EB400090
:1035D000A2EB800202EB420254F8220018447F283A
:1035E00040F3C283A0F17F0381FB0321DA17C2EB12
:1035F000610000EB4000A3EB80007330DFF858B1AE
:1036000098F80010C0B204F063FFBBF80030022B42
:1036100050D93968BAF80030484ACB1A82FB030EF9
:10362000D817C0EB6E0000EB4000A3EB800303EB68
:10363000430304EB8303586808447F2840F37E86E5
:103640007F3882FB0032C317C3EB620202EB4202F7
:10365000A0EB82007330C0B298F8001004F038FF7D
:10366000BBF80030032B25D93868BAF80030334A4C
:10367000C31A82FB031ED917C1EB6E0101EB410196
:10368000A3EB810303EB430304EB8304A368184417
:103690007F2849DD7F3882FB0032C317C3EB62020B
:1036A00002EB4202A0EB82007330C0B298F8001027
:1036B00004F00EFF3B68FFF76ABB04F031FFFFF731
:1036C00011B80021402004F0DBFE48E599F8000025
:1036D00004F026FF3EE50120FEF7D7BF243C002C76
:1036E000B8F8003040F35685A3423EF430ADA4B2A2
:1036F000144BA8F8004001221A70FEF728BD124BA7
:1037000001931B88002B7FF401ACFFF7C6B80F496B
:103710008342A8BF03460B60FEF7D5BE1446FFF7F1
:10372000ACBBFCF799FF3DE7FCF796FFBDE7FCF764
:1037300093FF8EE402701946FFF726B9ABAAAA2AB6
:10374000F0100100829BFF1FB89BFF1F589BFF1FBB
:10375000549DFF1FF69BFF1F929BFF1FFCF77CFFF2
:103760009CE6DFF81CA399F80000BAF80030C24AC2
:10377000C24CC31A82FB031ED917C1EB6E0101EBC9
:103780004101A3EB810303EB430354F823301844B6
:103790007F2840F3C7837F3882FB0032C317C3EB17
:1037A000620303EB4303A0EB83007330DFF8D4B272
:1037B000C0B204F0B5FEBBF80030022B7FF690A833
:1037C00099F80010BAF80030AB4ACB1A82FB030E0E
:1037D000D817C0EB6E0000EB4000A3EB800303EBB7
:1037E000430304EB8303586808447F2840F30186B1
:1037F0007F3882FB0032C317C3EB620303EB430342
:10380000A0EB83007330C0B204F08AFEBBF8003036
:10381000032B7FF665A899F80010BAF80030964A95
:10382000CB1A82FB030ED817C0EB6E0000EB4000F2
:10383000A3EB800303EB430304EB8304A068084479
:103840007F287FF76EAF7F3882FB0032C317C3EB50
:10385000620303EB4303A0EB83007330A2E6DFF8BF
:1038600020A23868BAF80030834A844CC31A82FB1D
:10387000031ED917C1EB6E0101EB4101A3EB8103DC
:1038800003EB430354F8233018447F2840F371833B
:103890007F3882FB0032C317C3EB620303EB4303A1
:1038A000A0EB83007330DFF8E081DFF8D8B198F83F
:1038B0000010C0B204F00CFEBBF80030022B7FF603
:1038C00070A93968BAF800306B4ACB1A82FB030E34
:1038D000D817C0EB6E0000EB4000A3EB800303EBB6
:1038E000430304EB8303586808447F2840F374853E
:1038F0007F3882FB0032C317C3EB620303EB430341
:10390000A0EB83007330C0B298F8001004F0E0FD23
:10391000BBF80030032B7FF644A93868BAF80030B2
:10392000554AC31A82FB031ED917C1EB6E0101EB86
:103930004101A3EB810303EB430304EB8304A3687E
:1039400018447F287FF70AAF7F3882FB0032C31705
:10395000C3EB620303EB4303A0EB830073309DE5ED
:10396000DFF81CA14449BAF80020444C9A1A81FBA4
:10397000020ED017C0EB6E0000EB4000A2EB8002FD
:1039800002EB420254F8220018447F2840F3F482EC
:10399000A0F17F0381FB0321DA17C2EB610000EB8A
:1039A0004000A3EB80007330DFF8D8B098F8001027
:1039B000C0B204F08DFDBBF80030022B7FF67AAE6A
:1039C0003968BAF800302C4ACB1A82FB030ED8179C
:1039D000C0EB6E0000EB4000A3EB800303EB43035E
:1039E00004EB8303586808447F2840F3EA847F3857
:1039F00082FB0032C317C3EB620303EB4303A0EB6C
:103A000083007330C0B298F8001004F061FDBBF879
:103A10000030032B7FF64EAE3868BAF80030164AF5
:103A2000C31A82FB031ED917C1EB6E0101EB4101E2
:103A3000A3EB810303EB430304EB8304A368184463
:103A40007F287FF771AE7F3882FB0032C317C3EB4C
:103A5000620303EB4303A0EB8300733025E60128E8
:103A60003EF44DAB0123FFF7B7BB99F8000004F01B
:103A700057FDFFF7A6B800BFABAAAA2AEC110100B8
:103A8000549DFF1F929BFF1FF69BFF1FDFF8E8A2CC
:103A900099F80000BAF80030B54AB64CC31A82FB58
:103AA000031ED917C1EB6E0101EB4101A3EB8103AA
:103AB00003EB430354F8233018447F2840F3DD819F
:103AC0007F3882FB0032C317C3EB620202EB420273
:103AD000A0EB82007330DFF8A4B2C0B204F020FD86
:103AE000BBF80030022B7EF6FBAE99F80000BAF866
:103AF00000309F4AC31A82FB0321DA17C2EB61022E
:103B000002EB4202A3EB820303EB430304EB8303C8
:103B10005B6818447F2840F327847F380C2290FB91
:103B2000F2F302FB13007330C0B204F0F9FCBBF8EF
:103B30000030032B7EF6D4AE99F80000BAF80030BE
:103B40008B4AC31A82FB0321DA17C2EB610202EB34
:103B50004202A3EB820303EB430304EB8304A36859
:103B600018447F287FF7DDAD7F380C2290FBF2F3FD
:103B700002FB1300733015E5DFF8FCA13868BAF8D2
:103B800000307B4A7B4CC31A82FB031ED917C1EB62
:103B90006E0101EB4101A3EB810303EB430354F8F6
:103BA000233018447F2840F365817F3882FB003240
:103BB000C317C3EB620202EB4202A0EB8200733038
:103BC000DFF8BC81DFF8B4B198F80010C0B204F09F
:103BD0007FFCBBF80030022B7EF6E3AF3868BAF802
:103BE0000030634AC31A82FB0321DA17C2EB610279
:103BF00002EB4202A3EB820303EB430304EB8303D8
:103C00005B6818447F2840F3A0837F380C2290FB28
:103C1000F2F302FB13007330C0B298F8001004F006
:103C200057FCBBF80030032B7EF6BBAF3868BAF800
:103C300000304F4AC31A82FB0321DA17C2EB61023C
:103C400002EB4202A3EB820303EB430304EB830486
:103C5000A36818447F287FF781AD7F380C2290FB42
:103C6000F2F302FB1300733018E4DFF80CA14049B3
:103C7000BAF800203F4C9A1A81FB020ED017C0EB15
:103C80006E0000EB4000A2EB800202EB420254F80F
:103C9000220018447F2840F3F380A0F17F0381FBCA
:103CA0000321DA17C2EB610101EB4101A3EB8100B3
:103CB0007330DFF8C8B098F80010C0B204F008FC08
:103CC000BBF80030022B7FF6F5AC3868BAF800304C
:103CD000274AC31A82FB0321DA17C2EB610202EB07
:103CE0004202A3EB820303EB430304EB83035B6811
:103CF00018447F2840F345837F380C2290FBF2F371
:103D000002FB13007330C0B298F8001004F0E0FB1F
:103D1000BBF80030032B7FF6CDAC3868BAF8003022
:103D2000134AC31A82FB0321DA17C2EB610202EBCA
:103D30004202A3EB820303EB430304EB8304A36877
:103D400018447F287FF7F0AC7F380C2290FBF2F309
:103D500002FB13007330A8E4FCF77EFCFFF7CABB3C
:103D6000FCF77AFCFFF73EBBFCF776FC46E400BFAD
:103D7000ABAAAA2A7C120100549DFF1F929BFF1F31
:103D8000F69BFF1FDFF83CA399F80000BAF800305B
:103D9000C44AC54CC31A82FB0317D917C1EB67018C
:103DA00001EB4101A3EB810303EB430354F8233000
:103DB00018447F286ADD7F3882FB0032C317C3EBCB
:103DC000620202EB4202A0EB82007330DFF8F8B22D
:103DD000C0B204F0A5FBBBF80030022B7FF6B5A9FA
:103DE00099F80000BAF80030AE4AC31A82FB0321EA
:103DF000DA17C2EB610202EB4202A3EB820303EB90
:103E0000430304EB83035B6818447F2840F3B682C6
:103E10007F380C2290FBF2F302FB13007330C0B228
:103E200004F07EFBBBF80030032B7FF68EA999F8D7
:103E30000000BAF800309B4AC31A82FB0321DA174C
:103E4000C2EB610202EB4202A3EB820303EB4303EA
:103E500004EB8304A36818447F2814DD7F380C2208
:103E600090FBF2F302FB13007330C0B204F058FB76
:103E7000FFF76BB9FCF7F0FBA2E6FCF7EDFB2AE6D7
:103E8000FCF7EAFB15E7FCF7E7FBEEE7FCF7E4FBE2
:103E90009CE7DFF830A299F80000BAF80030814AB8
:103EA000824CC31A82FB031ED917C1EB6E0101EBD2
:103EB0004101A3EB810303EB430354F8233018447F
:103EC0007F28DADD7F3882FB0032C317C3EB620341
:103ED00003EB4303A0EB83007330FCE5DFF8E4A1C0
:103EE0003868BAF800306F4A704CC31A82FB031E60
:103EF000D917C1EB6E0101EB4101A3EB810303EB89
:103F0000430354F8233018447F28B3DD7F3882FB05
:103F10000032C317C3EB620303EB4303A0EB830040
:103F200073304DE6FCF798FB40E4DFF898A15D495B
:103F3000BAF800205D4C9A1A81FB020ED017C0EB34
:103F40006E0000EB4000A2EB800202EB420254F84C
:103F5000220018447F2893DDA0F17F0381FB032119
:103F6000DA17C2EB610000EB4000A3EB8000733076
:103F70009FE6FCF771FB96E4FCF76EFB14E5DFF8B7
:103F800044A199F80000BAF80030464A484CC31AD8
:103F900082FB0317D917C1EB670101EB4101A3EBCA
:103FA000810303EB430354F8233018447F287FF741
:103FB0006DAF7F3882FB0032C317C3EB620303EBA4
:103FC0004303A0EB8300733000E73A4800903A487F
:103FD0003A490390FEF712B9DFF8E8A03868BAF85A
:103FE0000030304A364CC31A82FB0321DA17C2EB89
:103FF000610202EB4202A3EB820303EB430354F89A
:10400000233018447F2840F3B6817F380C2290FB80
:10401000F2F302FB13007330DFF8B080DFF8A8B0D2
:1040200098F80010C0B204F053FABBF80030022B2D
:104030001AD93868BAF800300C22C11A91FBF2F391
:1040400002FB131302FB03435B6818447F2840F311
:1040500067847F3890FBF2F302FB13007330C0B229
:1040600098F8001004F034FABBF80030032B7EF609
:1040700098ADBAF8003038680C22C11A91FBF2F3FF
:1040800002FB131302FB0344A36818447F287FF745
:1040900065AB7F3890FBF2F302FB13007330FFF740
:1040A000FDB900BFABAAAA2AF01001005C14010000
:1040B000EC110100A49DFF1F559BFF1F589DFF1F82
:1040C000B4150100549DFF1F929BFF1FF69BFF1F1D
:1040D000DFF894A399F80000BAF80030D84AD94C18
:1040E000C31A82FB0321DA17C2EB610202EB420220
:1040F000A3EB820303EB430354F8233018447F28D7
:1041000040F320817F380C2290FBF2F302FB130076
:104110007330DFF858B3C0B204F002FABBF80030D5
:10412000022B19D999F80000BAF800300C22C11AF4
:1041300091FBF2F302FB131302FB03435B68184489
:104140007F2840F322847F3890FBF2F302FB1300B8
:104150007330C0B204F0E4F9BBF80030032B7EF6F4
:10416000BFABBAF8003099F800000C22C11A91FBDD
:10417000F2F302FB131302FB0344A36818447F28E5
:104180007FF7CFAA7F3890FBF2F302FB1300733066
:10419000FFF708BA012B3DF4DAAF0124FFF7A8BA04
:1041A000DFF8C4A2A649BAF80020A64C9A1A81FBEF
:1041B0000210D117C1EB600101EB4101A2EB8102BA
:1041C00002EB420254F8220018447F2840F3D080CA
:1041D000A0F17F030C2093FBF0F200FB1230733050
:1041E000DFF888B298F80010C0B204F071F9BBF89B
:1041F0000030022B1AD93868BAF800300C22C11AE4
:1042000091FBF2F302FB131302FB03435B681844B8
:104210007F2840F382837F3890FBF2F302FB130088
:104220007330C0B298F8001004F052F9BBF80030B7
:10423000032B7FF63FAABAF8003038680C22C11A67
:1042400091FBF2F302FB131302FB0344A36818442F
:104250007F287FF769AA7F3890FBF2F302FB1300F7
:104260007330FFF722BAFCF7F7F9FFF770B9FCF7E4
:10427000F3F9FFF7E7B8DFF8F0A199F80000BAF812
:1042800000306F4A704CC31A82FB0321DA17C2EB6D
:10429000610202EB4202A3EB820303EB430354F8F7
:1042A000233018447F2846DD7F380C2290FBF2F340
:1042B00002FB13007330DFF8B4B1C0B204F030F980
:1042C000BBF80030022B19D999F80000BAF8003079
:1042D0000C22C11A91FBF2F302FB131302FB0343FE
:1042E0005B6818447F2840F3A7807F3890FBF2F387
:1042F00002FB13007330C0B204F012F9BBF80030B7
:10430000032B7EF622AFBAF8003099F800000C2299
:10431000C11A91FBF2F302FB131302FB0344A368DF
:1043200018447F287FF7AFAD7F3890FBF2F302FB94
:104330001300733099E5FCF78FF9BCE7FCF78CF9B3
:10434000FFF789B9FCF788F9E3E6FCF785F963E440
:1043500001339BB22380D9B205203C4C04F090F885
:104360003B782370FDF7DEBDFCF776F9FFF7DCBB89
:10437000FCF772F934E7FCF76FF94DE6FCF76CF9DE
:104380004DE5FCF769F9BEE4DFF8DCA099F8000020
:10439000BAF800302A4A2E4CA2E6013B9BB2D9B2B1
:1043A00005202A4C138004F06BF83B782370FDF74E
:1043B000B9BDDFF8B4A03868BAF80030204A244C00
:1043C00011E6FCF749F9FFF71DBBDFF89CA01C497B
:1043D000BAF800201E4CE9E6FCF73EF9FFF793BA65
:1043E000DFF884A099F80000BAF80030144A194C9C
:1043F00049E7FCF731F9FFF706BA029B1B78002B5F
:104400007EF44EAAFEF771BA134B1B78002B00F016
:10441000DE82124B1B78002B7DF499AE104B1B787B
:10442000002B3DF494AEB8F800300E490A33A8F8DA
:1044300000300A70FDF78BBEFCF70EF95BE700BF9A
:10444000ABAAAA2AB41501007C1201007E9BFF1FB3
:10445000CC1301005C140100E39DFF1FE49DFF1FCE
:10446000E59DFF1F829BFF1F549DFF1F929BFF1F17
:10447000A14C2388002B40F05483DFF890B29F4971
:104480009F4A098899F80000B2F800E0DFF87882C6
:10449000C1EB000C0C229CFBF2F102FB11C14FF0AE
:1044A000900C0CFB0EFE02FB01E16FF00B0E58F8B6
:1044B000011008440EFB03007F2840F3EC84A0F1B8
:1044C0007F0393FBF2F002FB10307330C0B204F0B4
:1044D00027F8BBF8002023881344022B22DD874AEB
:1044E000874B118899F80000B3F800C0DFF818E294
:1044F000411A0C2291FBF2F302FB1311902303FBF0
:104500000CF302FB013373445B6818447F2840F3CB
:1045100050857F3890FBF2F302FB13007330C0B27A
:1045200003F0FEFFBBF8002023881344032B22DD99
:10453000724A734B118899F80000B3F800C0DFF895
:10454000C8E1411A0C2291FBF2F302FB13119023F4
:1045500003FB0CF302FB013373449B6818447F2870
:1045600040F338857F3890FBF2F302FB1300733081
:10457000C0B203F0D5FFBBF8002023881344042BFE
:104580007EF7AEA95F4B1B88012B7EF4A9A999F891
:104590000020A2F10C007F287FF7C3A88B3A0C20E3
:1045A00092FBF0F300FB13207330FEF7FBBF524C7D
:1045B0002288002A00F018835249DFF850B1098898
:1045C000BBF800000331884227DD4C484C49008885
:1045D000B1F800E0DFF830C1181A0C2190FBF1F9B6
:1045E00001FB19004FF0900909FB0EFE01FB00E0F2
:1045F0006FF00B0E5CF8000003440EFB02307F28C6
:1046000040F311847F3890FBF1F301FB130073300A
:10461000C0B298F8001003F05BFFBBF800202388BD
:104620001344022B23DD354B354A38681B88B2F81A
:1046300000C0DFF8D4E0C31A0C2193FBF1F201FBB8
:104640001232902303FB0CF301FB023373445B68CB
:1046500018447F2840F3A5847F3890FBF1F301FBD9
:1046600013007330C0B298F8001003F031FFBBF8AC
:10467000002023881344032B23DD204B204A386875
:104680001B88B2F800C0DFF880E0C31A0C2193FB4E
:10469000F1F201FB1232902303FB0CF301FB023316
:1046A00073449B6818447F2840F37F847F3890FBD5
:1046B000F1F301FB13007330C0B298F8001003F05F
:1046C00007FFBBF8002023881344042B7EF7F2AFCA
:1046D0000C4B1B88012B7EF4EDAF3A68A2F10C0065
:1046E0007F287FF721A88B3A0C2092FBF0F300FB88
:1046F00013207330FEF7D9BFF89BFF1F549DFF1F97
:10470000029DFF1FD29BFF1F600D0100929BFF1FA8
:10471000B84C2388002B40F06A82DFF810B3B6490A
:10472000B64A0988D7F80080B2F800E0B448C1EB77
:10473000080C0C229CFBF2F102FB11C14FF0900C13
:104740000CFB0EFE02FB01E16FF00B0E40588044A3
:104750000EFB03807F2840F36A83A0F17F0393FB65
:10476000F2F002FB10307330A64BC0B2197803F0A0
:10477000AFFEBBF8002023881344022B23DD9E4AA2
:104780009E4B11883868B3F800C0DFF874E2411A14
:104790000C2291FBF2F302FB1311902303FB0CF3A9
:1047A00002FB013373445B6818447F2840F30B8499
:1047B0007F3890FBF2F302FB13007330914BC0B2D1
:1047C000197803F085FEBBF8002023881344032BDF
:1047D00023DD894A894B11883868B3F800C0DFF8B7
:1047E00020E2411A0C2291FBF2F302FB13119023F9
:1047F00003FB0CF302FB013373449B6818447F28CE
:1048000040F3DE837F3890FBF2F302FB130073303A
:104810007C4BC0B2197803F05BFEBBF80020238804
:104820001344042B7EF7BDA9774B1B88012B7EF424
:10483000B8A93A68A2F10C007F2840F3B2808B3A05
:104840000C2092FBF0F300FB132073306D4BC0B2D1
:10485000197803F03DFEFEF7A4B9DFF89CA199F8A2
:104860000000BAF80030694CC11A0C2291FBF2F337
:1048700002FB131302FB03F3E35818447F287FF76E
:104880005AAD7F3890FBF2F302FB1300733012E550
:104890005F4B1A88182A13D03B681344A3F1180001
:1048A0007F2840F37B830C20973B93FBF0F200FBC7
:1048B000123303F17300534BC0B2197803F008FEB2
:1048C000544B55491A78022A94BF013200221A70BB
:1048D0001A7831F81200182810D10424022A02F1A3
:1048E0000100C2B288BF002231F81200182804D19A
:1048F000013CF3D11A70FEF754B91A703B680344B7
:10490000A3F118007F284CDD0C20973B93FBF0F2BD
:1049100000FB123303F1730098E7FBF79DFE80E480
:10492000FBF79AFEFFF79BBB394B1B88182B12D065
:1049300099F800201344A3F118007F2840F33D8329
:104940000C20973B93FBF0F200FB123303F1730052
:10495000C0B203F0E5FD2F4A2F4B127833F8123026
:10496000182B3DF4BDAF99F800201344A3F11800B3
:104970007F287EF7D6AE0C20973B93FBF0F200FB2E
:10498000123303F17300FEF70DBEFBF765FEFFF770
:10499000E0BBDFF864A099F80000BAF800301F4CC3
:1049A00062E7FBF759FE51E71D4B1B78002B7DF4A6
:1049B000CEAB1C4B1B78002B3DF4C9ABB8F80030D4
:1049C0001949013BA8F800300A70FDF7C0BB144B31
:1049D0001B78002B7EF402A8124B1B78002B3DF4B1
:1049E000B6ABB8F8003010490133A8F800300A70AF
:1049F000FDF7ADBBF89BFF1F549DFF1F029DFF1FDE
:104A0000600D0100F69BFF1FD29BFF1FB415010034
:104A10009E9BFF1FF79BFF1F689DFF1FCC1301008C
:104A2000E49DFF1FE59DFF1F829BFF1F929BFF1FC1
:104A3000944A1288182A12D01344A3F118007F2830
:104A400040F3CC820C20973B93FBF0F200FB123337
:104A500003F17300C0B298F8001003F039FD8A4BDF
:104A60008A491A78022A94BF013200221A701A78F1
:104A700031F81200182811D10424022A02F1010091
:104A8000C2B288BF002231F81200182805D1013CBB
:104A9000F3D11A703B68FEF77AB91A703B68034489
:104AA000A3F118007F287EF73FAE0C20973B93FBC5
:104AB000F0F200FB123303F17300FEF7F6BD744A07
:104AC0001288182A12D01344A3F118007F2840F34B
:104AD0007E820C20973B93FBF0F200FB123303F134
:104AE0007300C0B298F8001003F0F2FC664B6949FD
:104AF0001A78022A94BF013200221A701A7831F80B
:104B000012001828CAD10424022A02F1010294BF1B
:104B1000D2B2002231F812001828BED1013CF3D1E4
:104B2000B7E75D4ADFF884B11288BBF800100332A2
:104B300091427FF7CEACA2E4554B1B88182B12D0C4
:104B400099F800201344A3F118007F2840F3238232
:104B50000C20973B93FBF0F200FB123303F1730040
:104B6000C0B203F0DDFC484A4A4B127833F81230E9
:104B7000182B7FF4F8AEFDF7B3BE454B1A88182A00
:104B800013D03B681344A3F118007F2840F3F2814F
:104B90000C20973B93FBF0F200FB123303F1730000
:104BA0003E4BC0B2197803F093FC374B39491A7861
:104BB000022A94BF013200221A701A7831F81200CA
:104BC00018287FF49BAE0424022A02F1010294BF4C
:104BD000D2B2002231F8120018287FF48EAE013CC8
:104BE000F2D11A70FDF7DDBFDFF8C0B0EDE42A4A5C
:104BF000DFF8B8B01288BBF80010033291427FF79B
:104C0000B8AD8CE5264B01227F2107201A8003F0E6
:104C100037FC7F210B2003F033FCFDF70ABF214B4B
:104C200004227F2107201A8003F02AFC00210B2098
:104C300003F026FCFDF7F6BE1A4B02227F21072067
:104C40001A8003F01DFC7F210B2003F019FCFDF7F7
:104C5000E4BE144B002107201C8003F011FC7F21CF
:104C60000B2003F00DFCFDF7D3BE0F4B00227F217C
:104C700007201A8003F004FC7F210B2003F000FCC6
:104C8000FDF7DFBE9E9BFF1FF79BFF1F689DFF1F69
:104C9000A49BFF1FE89CFF1FD29BFF1FF69BFF1FDB
:104CA000069CFF1F4A9DFF1F809BFF1F929BFF1FBB
:104CB000CC4C2388002B40F06381DFF854B3CA4901
:104CC00099F80000C94A09881788DFF824E3411AD7
:104CD0000C2291FBF2FC02FB1C114FF0900C0CFB20
:104CE00007F702FB01716FF00B075EF8011001443A
:104CF00007FB03107F2840F340817F3890FBF2F3DD
:104D000002FB13007330C0B203F00AFCBBF80020B2
:104D100023881344022B21DDB34BB44A99F80000D9
:104D20001B88B2F800E0B24FC31A0C2193FBF1F2DA
:104D300001FB1232902303FB0EF301FB02333B44D1
:104D40005B6818447F2840F3B1817F3890FBF1F312
:104D500001FB13007330C0B203F0E2FBBBF800208C
:104D600023881344032B21DD9F4BA04A99F80000B0
:104D70001B88B2F800E09E4FC31A0C2193FBF1F29E
:104D800001FB1232902303FB0EF301FB02333B4481
:104D90009B6818447F2840F386817F3890FBF1F3AD
:104DA00001FB13007330C0B203F0BAFBBBF8002064
:104DB00023881344042B7EF7C8A98E4B1B88012B34
:104DC0007EF4C3A999F80020A2F10C007F287FF798
:104DD0005AA88B3A0C2092FBF0F300FB132073309F
:104DE000FFF743B8844B1B88182B12D099F800208A
:104DF0001344A3F118007F2840F35B810C20973BFC
:104E000093FBF0F200FB123303F17300C0B203F026
:104E100087FB7A4A7A4B127833F81230182B7FF4DA
:104E2000A2ADFDF75DBDFBF717FCFFF7F1BBFBF78C
:104E300013FC99E4734B1B88182B12D099F80020AF
:104E40001344A3F118007F2840F339810C20973BCD
:104E500093FBF0F200FB123303F17300C0B203F0D6
:104E60005FFB664A684B127833F81230182B3EF419
:104E70006CA999F800201344A3F118007F287FF74C
:104E800002A80C20973B93FBF0F200FB123303F1D6
:104E90007300FEF7EABFFBF7DFFBFFF717BB564ACD
:104EA0001288182A12D01344A3F118007F2840F367
:104EB00003810C20973B93FBF0F200FB123303F1CC
:104EC0007300C0B298F8001003F002FB4B4B4C4942
:104ED0001A78022A94BF013200221A701A7831F827
:104EE000120018287FF4DAAD0424022A02F101022C
:104EF00094BFD2B2002231F8120018287FF4CDAD51
:104F0000013CF2D1C5E53C4B1A88182A13D03B6806
:104F10001344A3F118007F2840F3C2800C20973B74
:104F200093FBF0F200FB123303F17300374BC0B276
:104F3000197803F0CDFA314B31491A78022A94BF1F
:104F4000013200221A701A7831F8120018287FF402
:104F5000D5AC0424022A02F1010294BFD2B200228D
:104F600031F8120018287FF4C8AC013CF2D11A7055
:104F7000FDF717BEFBF770FB12E6FBF76DFBC2E611
:104F80001C4ADFF88CB01288BBF800100332914243
:104F90007FF7BCAE93E6FBF75FFBE1E5FBF75CFB5D
:104FA00089E4FBF759FBFFF75DBBFBF755FBFFF708
:104FB00083BBFBF751FBFFF7B2BAFBF74DFBC7E42E
:104FC000FBF74AFB24E4FBF747FBFFF7F7BBFBF7D4
:104FD00043FB86E5FBF740FBFFF7CABAFBF73CFB58
:104FE00038E500BFF89BFF1F549DFF1F029DFF1F68
:104FF000600D0100D29BFF1FA69BFF1FF79BFF1FA9
:10500000F09CFF1F9E9BFF1F689DFF1FF69BFF1FCD
:10501000929BFF1F304B1B88182B11D099F8002052
:105020001344A3F118007F2834DD0C20973B93FB39
:10503000F0F200FB123303F17300C0B203F070FA18
:10504000264A274B127833F81230182B7FF411AF11
:10505000FEF77BB8234B1B88182B11D099F8002042
:105060001344A3F118007F2817DD0C20973B93FB16
:10507000F0F200FB123303F17300C0B203F050FAF8
:10508000164A194B127833F81230182B7FF4F1AE10
:10509000FEF75BB8FBF7E0FACFE7FBF7DDFAECE7EA
:1050A000FBF7DAFA42E7FBF7D7FA7CE6FBF7D4FA2C
:1050B00051E6FBF7D1FAA9E6FBF7CEFA01E7FBF7D9
:1050C000CBFACBE6094B0393094B0293FDF71EBFC6
:1050D00023601946FDF758BCA69BFF1FF79BFF1FD7
:1050E000F09CFF1FA49BFF1FE89CFF1F559BFF1F09
:1050F000129CFF1F38B507F0EBF80B4805F022F8BB
:1051000000234FF07E5201210848FBF7AFF9084B0E
:10511000084A0949802400251C7118461D60BDE815
:1051200038400AF097BD00BF049CFF1F289DFF1F59
:10513000A89DFF1F1C89FF1FFD05000043682A2052
:10514000198803F021BB00BF10B504462220636814
:10515000198803F019FBE36824201988BDE8104082
:1051600003F012BB10B504460A206368198803F0E7
:105170000BFBE3680C201988BDE8104003F004BB6A
:1051800010B5044606206368198803F0FDFAE36849
:1051900008201988BDE8104003F0F6BA10B504469F
:1051A00002206368198803F0EFFAE3680420198885
:1051B000BDE8104003F0E8BA70B50E4C84B012257B
:1051C0000422012306460390029320468DE8240022
:1051D0001423102106F0BAF906220923029303963C
:1051E0000195204600921423102106F0AFF904B077
:1051F00070BD00BF149EFF1F2DE9F041224D82B00B
:10520000012602B284B20092284601967823192121
:1052100006F0E2F804F10C0212B28DE844002846D0
:10522000A7197823192104F1020806F0D5F83FB236
:105230000FFA88F819233A46284619460196CDF800
:10524000008006F0C9F878233A4628461946CDF87A
:105250000080019604F10A070B3406F0BDF83FB256
:1052600024B278233A46284619468DE8500006F0C5
:10527000B3F8192300943A4601962846194606F0D9
:10528000ABF802B0BDE8F081149EFF1F2DE9F0419C
:105290001E4682B01446002A6AD0099B4D4A00EB94
:1052A000C305012C6F8929896868A7EB010382FB7C
:1052B00003E21A444FEAE373C3EBA21302887BD0E4
:1052C000042C38D112FA83F3994203DC9F42394609
:1052D000A8BF1946089A0180B6F90030BDF92080B0
:1052E0003D48971D4FF0000E3FB2194642460097C9
:1052F000CDF804E006F070F829896A896B68521AC3
:105300001B885C2AA3EB010359DD03EB4303013245
:10531000C3EB431393FBF2F303F11B0213B201201F
:10532000328019464246019000972B4806F054F807
:105330002A4B00221A702A4B022CB3F9001045D0D8
:10534000082C31D100221A8091422DD0089AB6F94A
:10535000003021480632012412B20092194601940D
:10536000BDF9202006F038F8204602B0BDE8F081F3
:105370001C4D1D4A2B681268CB1A93420F4617D951
:10538000164A338811781448012918BF0124147073
:10539000089A06321BB212B28DE814001946BDF904
:1053A000202006F019F82F60012002B0BDE8F0813E
:1053B000204602B0BDE8F0819BB2D31A84E75C219D
:1053C00001FB03F393FBF2F21B32A7E74A1C12B274
:1053D0001A80B9E7C94216B2149EFF1F8D9EFF1FA7
:1053E000F49DFF1F789EFF1F4025010030B583B05C
:1053F00000230C4605B2009326225B231C210C4897
:1054000005F03AFD294601232622094805F044F813
:10541000002C24B205DB214601232622044805F096
:105420003BF8044A044B15801C8003B030BD00BF1C
:10543000149EFF1FAC89FF1FAE89FF1F70B5944CEF
:10544000237882B01BB1934B4FF6FF721A80924BB8
:10545000B3F90030C3B9914A8E4B1068B3F90020FC
:1054600080F30C005B2303FB00F000131C3082422E
:105470005AD04FF0FF31FFF7B9FF894805F060FDC2
:105480000023237002B070BD012B32D0022B6AD0F2
:10549000032B4FD0042BF3D1272200258DE82400C5
:1054A00076231C217E487F4E05F096FF17E0B0F56D
:1054B000AF7FA8BF4FF4AF70323803FB00F386FB19
:1054C0000321DB17C3EB61111C3109B201231D4419
:1054D0002722734804F0E0FF0C2D00F08180E9B230
:1054E000714804F097FE31284FF05B03DFDC1C218C
:1054F000ECE76E4B1A68B2F52F7F32DB41F25C238A
:105500009342A8BF1346A3F52F735B22684802FBA2
:1055100003F380FB0320DB17C3EBA0201C305D4BA3
:10552000B3F900308342A4D1624BB3F900300133A8
:105530009FD1A5E7604B1B68B3F5FA7F11DBB3F58C
:105540007A6FA8BF4FF47A63A3F5FA725B485B23C6
:1055500003FB02F380FB0320DB17C3EB20201C308E
:10556000DDE71C20DBE7564B1B68B3F5FA7F33DB26
:10557000B3F57A6FA8BF4FF47A63A3F5FA724F4878
:105580005B2303FB02F380FB0320DB17C3EB20202C
:105590001C304C4B1B68B3F5FA7F1FDBB3F57A6FF9
:1055A000A8BF4FF47A63A3F5FA7244495B2303FB67
:1055B00002F381FB0321DB17C3EB21211C31354BA7
:1055C000B3F9003083427FF456AF3A4BB3F9003061
:1055D0008B427FF450AF53E71C20DAE71C21EEE743
:1055E000012007F01DFD6FF495733238364A03FB36
:1055F00000F082FB0023C017C0EB632303F5AF73F9
:10560000312B3ADDB3F5AF7FA8BF4FF4AF735B2208
:10561000323B244D02FB03F385FB0325DB17C3EB71
:1056200065151C35002007F0FBFC6FF495733238CC
:10563000254A03FB00F082FB0023C017C0EB632365
:1056400003F5AF73312B1ADDB3F5AF7FA8BF4FF46D
:10565000AF735B22323B134902FB03F381FB03214F
:10566000DB17C3EB61111C310A4BB3F90030AB42BD
:1056700007D02846FFF7BAFEFFE61C25D2E71C211B
:10568000F2E70C4BB3F900308B42F2D1F5E600BFE4
:10569000EA9DFF1FAC89FF1FF09DFF1F5C9DFF1F50
:1056A000149EFF1F4B48371B049CFF1F649BFF1F6A
:1056B000D3058541AE89FF1FB49BFF1F011FB812A0
:1056C000BC9BFF1FD89DFF1F67BBCF462DE9F04F46
:1056D000DFF8EC82B74CB8F900604D7854F82640FA
:1056E00087B08246039305B10D78DFF8FCB2002A3B
:1056F00034D19BF800308BBBAF4EB6F900000028C8
:1057000000F0CE80012800F02481012032232A46B7
:10571000019000935146A94B2046FFF7B7FD0025A5
:105720000746B6F90030022B40F3F48000233380A3
:10573000B8F90030A24A002BC0F2F880042BC4BF95
:1057400000231380039B002B40F0F680002D0CBF3C
:1057500038464FF0FF3007B0BDE8F08F964EE36853
:105760002268984804930027059237808BF80070D0
:1057700005F0DAFA1120FFF73FFD4FF00109192378
:105780002821CDF804900091242219468D4805F077
:1057900023FE782328212422CDF804900091894803
:1057A000194605F019FE4946864806F0ABF9022273
:1057B0001921844806F0A2F9DDF8149048460BF050
:1057C0001FF8494602467F4806F032FB7D4806F046
:1057D00045FB394614227B4806F090F903227A49AA
:1057E000784806F025FB774806F038FB3946232237
:1057F000744806F083F903227449724806F018FBD6
:10580000704806F02BFB049B002B72D10123704AD9
:1058100018461370FFF7D0FC208963896768191A4E
:105820005C293A885BDC131A5C2202FB03F292FBD0
:10583000F1F31B33674A6348138001271BB21A2216
:1058400019468DE88400142205F0C6FD049BDBB1E7
:10585000218A638AE768581A5C283A886FDD521AF1
:1058600002EB4202C2EB4212431C92FBF3F31B33E6
:10587000524A54481380012738221BB28DE8840015
:105880001946322205F0A8FD534A544BB6F90000E0
:10589000012111704FF6FF721A8000287FF432AF99
:1058A000DFF848914E4AD9F800301268C3EB0A037A
:1058B00093424CD9464B1A78012A18BF0120187020
:1058C0000127FFF779FCC9F800A0012D4ED0042D67
:1058D00059D0022D60D0082D64D0002521E7121A7E
:1058E00002EB4202C2EB42124B1C92FBF3F31B335E
:1058F000A0E72F20FFF780FC39463222314806F01E
:10590000FDF8032237492F4806F092FA2D4806F099
:10591000A5FA7BE77FF40CAFE368002B3FF406AFFA
:10592000B8F90030264A002BBFF608AF04231380D5
:10593000039B002B3FF40AAFFFF780FD06E7511AE7
:105940005C2202FB01F292FBF0F31B3390E7074667
:10595000BBE7002714238DE888002A4651461D4BDB
:105960002046FFF793FC3D460746DAE6B8F80030DC
:105970008BF800500133A8F80030636983B100252B
:1059800020469847CDE6B8F800300122013BA8F840
:1059900000308BF80020F0E7012333800025C7E6B4
:1059A0001D46BEE66369002232804FF0FF35002BB2
:1059B000E6D1BDE6B089FF1FF49DFF1FEE9DFF1FDE
:1059C000F09DFF1F149EFF1F741601007816010042
:1059D0008D9EFF1FEC9DFF1FEA9DFF1FAC89FF1FDF
:1059E000402501007C160100F29DFF1F789EFF1FDD
:1059F00001210D2007F0E6B800210D2007F0E2B8E4
:105A000001460D2007F0DEB808B50D2007F0E0F8DC
:105A1000B0FA80F149090D20BDE8084007F0D2B87E
:105A200010B5002144080D2007F0CCF8204607F0FF
:105A300005F90D20012107F0C5F82046BDE810400A
:105A400007F0FCB8214A224B10881B68984210B519
:105A500035DA204A1288141A9A42A8BF1A46B4F5B9
:105A6000157F22DA121A40F2532303FB02F393FB51
:105A7000F4F105310A2006F015FF174B197801B330
:105A8000164B17491B6840F2271283F3070302FBEA
:105A900003F381FB03211944DB17C3EBA11105318B
:105AA0000920BDE8104006F0FDBE131A4FF4157230
:105AB000611C02FB03F393FBF1F10531DAE70021EE
:105AC000D8E70920BDE8104006F0ECBE109CFF1F8F
:105AD000589BFF1FBC9DFF1FD49BFF1F5C9BFF1F9C
