:1000000000800020BD01000071D4000029D4000050
:1000100029D4000029D4000029D4000029D40000EC
:1000200029D4000029D4000029D4000071D4000094
:1000300071D4000029D40000F1CA0000F5CB000003
:1000400071D4000071D4000071D4000071D400009C
:1000500071D4000071D4000071D4000071D400008C
:1000600071D4000071D4000071D4000071D400007C
:1000700071D4000071D4000071D4000071D400006C
:1000800071D4000071D4000071D4000071D400005C
:1000900071D4000071D4000071D4000071D400004C
:1000A0002DB0000039B0000071D4000071D4000000
:1000B00071D4000071D4000071D4000071D400002C
:1000C00071D4000071D4000071D4000071D400001C
:1000D00071D4000071D4000071D4000071D400000C
:1000E00071D4000071D4000071D4000071D40000FC
:1000F00071D40000DDF4000071D4000009F60000A6
:1001000071D4000049DE000071D4000071D40000F9
:1001100071D4000071D4000071D4000071D40000CB
:1001200071D4000071D4000071D4000071D40000BB
:1001300071D4000071D4000071D4000071D40000AB
:1001400071D4000071D4000071D4000071D400009B
:10015000E1CC0000F5CC000009CD00001DCD000071
:1001600071D4000065E1000071D4000071D400007A
:1001700071D4000071D4000071D4000071D400006B
:1001800071D4000071D4000071D4000071D400005B
:1001900071D4000071D4000071D4000071D400004B
:1001A00071D4000071D4000071D4000071D400003B
:1001B00071D4000071D4000071D40000564B4CF291
:1001C000205210B51A804DF628121A8000BF00BFC9
:1001D0000DF052F9514B4FF010621A60504A9A607C
:1001E000504ADA60504A136813F4807304D14F49BF
:1001F0000B604FF4A85313604D4B1A78110703D5C9
:100200001A7842F008021A704A4B4B492A221A7097
:100210004A4A4B4B8B4204D252F8040F43F8040B6A
:10022000F8E7484B484900228B4202D243F8042B9E
:10023000FAE74649464A002352F8230041F82300D2
:1002400001336F2BF8D1434B434A802103F8011B44
:100250009342FBD1414B3D4A1A60414B8A221A70AE
:10026000A3F5805324225A70A0221A709A7992071B
:10027000FCD59A79D406FCD43A4A937903F00C035E
:10028000082B384BF9D103221A7140225A719A79FE
:100290009006FCD5334A9179324B4906FBD5324A58
:1002A000324911600221516020221A709A7902F0BD
:1002B0000C020C2AFAD12E4B2E4A1A602E4B2F4AD2
:1002C0001A6000225A60072243F8042C2C4AC3F813
:1002D0000C2D62B60DF080FC144B1B68DA0705D5B7
:1002E00028480DF04DFA284B284A1A60284B1B78F5
:1002F0005B0609D5244C254B22689A4204D121483B
:100300000DF03EFA0023236010F036FC0DF0BAF831
:100310000CF0E8FFFEE700BF0E20054030800440EF
:10032000823F04000100002B10D0034014D0034092
:1003300002D0074000E00740DC9BFF1F1C45010086
:100340004088FF1FDC9BFF1FF4A3FF1F0082FF1FDD
:100350000000000000E400E05FE400E008ED00E0E1
:100360000050064000400640448004400000030165
:1003700004800440C010050014E000E0FF76010096
:1003800000002020BB02825F1CE00340A5C3945AFA
:1003900000F00740FFFFFFFFFFFFFFFFFFFFFFFF32
:1003A000FFFFFFFFFFFFFFFFFFFFFFFFFFFFFFFF5D
:1003B000FFFFFFFFFFFFFFFFFFFFFFFFFFFFFFFF4D
:1003C000FFFFFFFFFFFFFFFFFFFFFFFFFFFFFFFF3D
:1003D000FFFFFFFFFFFFFFFFFFFFFFFFFFFFFFFF2D
:1003E000FFFFFFFFFFFFFFFFFFFFFFFFFFFFFFFF1D
:1003F000FFFFFFFFFFFFFFFFFFFFFFFFFFFFFFFF0D
:10040000FFFFFFFFFFFFFFFFFFFFFFFFDEF9FFFF23
:1004100010B5054C237833B9044B13B10448AFF33E
:1004200000800123237010BDDC9BFF1F0000000033
:1004300020450100084B10B51BB108490848AFF32F
:1004400000800848036803B910BD074B002BFBD0A0
:10045000BDE81040184700BF00000000E09BFF1FF0
:1004600020450100DC9BFF1F0000000038B504465A
:10047000104621700A491D4610F060F901464FF000
:100480007E5010F00FFA074910F058F9E5606060EF
:10049000256165610DF030FBE061204638BD00BF8D
:1004A000DB0FC9400024744938B50446104621705A
:1004B00009491D4610F042F901464FF07E5010F0F8
:1004C000F1F9064910F03AF9E5606060256165616F
:1004D0000DF012FBE06138BDDB0FC9400024744908
:1004E00038B503780446032B20D8DFE803F01A1848
:1004F0001002C168406910F017F80D4905466068A0
:1005000010F0D0F90146284610F0CCF938BD084962
:10051000406810F0C7F9E16810F010F938BDC06804
:1005200038BDC16840690FF0FFFF38BD002038BDFD
:100530000024744970B504460E460DF0DDFA0546F8
:10054000E069281A10F0A6F8E3682361E5616661A6
:10055000A0610146606810F0A5F90146A06010484E
:1005600010F0A0F90FF076FC0FF016F90FF088FFED
:10057000054601464FF07E500FF0D6FF616910F03E
:10058000DDF821690646284610F0D8F801463046C5
:100590000FF0CCFFE0602046BDE87040FFF7A0BF41
:1005A000000080BF08B50E200CF076FD114B1B88B3
:1005B000012B19D0104B1B88984213DB40F6FF71BA
:1005C0008842D4BFC3EB0001C3EB0101C1EB013191
:1005D000C3F57F630F33282091FBF3F1BDE808409A
:1005E0000DF0E0B80021F3E70146BDE80840142013
:1005F0000DF0D8B8309EFF1FC49CFF1F10B50446F5
:100600000CF04CFB204610BD70B44C88A04220D9A1
:1006100001230133DBB21CB2660031F8144084427E
:100620001D46F6D3A04211D005F10045013D965B71
:1006300031F8151032F81530401AF21A00FB02F0AA
:10064000641A90FBF4F4E01870BC7047905B70BCC7
:10065000704702260125E5E700280CDA064A4342E6
:1006600082FB0320DA17C2EB600000EB4000A3EB33
:100670008000C0F10C007047ABAAAA2A38B5234B02
:100680001B78002B2CD015200CF006FD204B186099
:10069000204B1B88984203DA1F4C237863BB38BD7C
:1006A0001E4A1488A042A4EB0302A8BF20467F2A5A
:1006B0001CDDC01AC001541C90FBF4F4002CEBD0DC
:1006C000154B1A780AB901221A70154D2B689C42F5
:1006D00004D0144BE1B2187808F07AFD2C6038BDD4
:1006E00011200DF01DFC0A4B1860D1E7C01AC0EBB9
:1006F000C01090FBF2F4E1E70A4B0021187808F0F3
:1007000067FD0023064A2370136038BD429EFF1F19
:10071000089CFF1F7E9CFF1FB09EFF1F5C9EFF1F5B
:10072000AC9EFF1F549CFF1F38B50F200DF0F8FB47
:100730001B4A1C4B12881860C0F53B600830904281
:1007400020DB194B1B889842A3EB0204A8BF184674
:10075000801A7F2CC6BFC0010134C0EBC01090FBD3
:10076000F4F47CB1114B1A780AB901221A70104DB9
:100770002B689C4204D00F4BE1B2187808F028FD9A
:100780002C6038BD094C237803B938BD094B0021D2
:10079000187808F01DFD0023054A2370136038BD4A
:1007A000C89CFF1FD89DFF1F489EFF1F6C9EFF1F08
:1007B000889CFF1F769CFF1FF0B40E8886420DD2E6
:1007C00003F10043013B31F81350854202D9F0BCDC
:1007D000FFF71ABF32F81300F0BC70471088F0BC66
:1007E000704700BF094B1B880C2B09D8084A80B200
:1007F00052F8232028B143F6FE73984203D9108C97
:100800007047108870470349FFF7FEBE2E9CFF1FFC
:10081000A01F01003C2101004B4B4C4A2DE9F04741
:100820001E8814684A4BB442B3F80080494B33DB4E
:100830004445A8BF4446A6421C60C8BF00202DDD29
:10084000C6EB0807B7F5804F33DB80037B1C90FBBA
:10085000F3F0FFF7C7FF404A404B15881B88C0F3F1
:10086000C61909FB05F57F2D8246A8BF7F252BB34E
:10087000A64253DC4445D4BFC6EB0404C6EB0804CF
:100880009F42CCBF03FB04445C43354BC8BF0137D8
:1008900094FBF7F71F6013E034461E60C6EB0807B1
:1008A000A045D4BFC6EB0800C6EB0400B7F5804FE7
:1008B000CBDAC0EB803090FBF7F0CAE7284A136030
:1008C000284C2368994508D0274B1B88002B34D12E
:1008D000264B1B886BBBC4F80090254C23689A45B7
:1008E00006D0214B1B885A1F032A19D9C4F800A02F
:1008F000204C23689D420FD01F4B188848B11A4BDB
:100900001E4A1B88D35C834203D0C0B2E9B208F010
:100910005FFC2560BDE8F087BDE8F0870024AFE705
:10092000164AD05C2030C0B20AF07F0108F050FCBB
:10093000DCE7484608F0C0FCCDE7104A4946D05CE9
:1009400008F046FCC4E700BFC49CFF1F2C9EFF1F9D
:100950008C9EFF1F009CFF1F109CFF1F129CFF1FFF
:10096000909EFF1F709CFF1F129EFF1FBA9CFF1FCF
:10097000289CFF1FBC9CFF1F229EFF1F9C89FF1FFE
:100980002DE9F04F17208BB00DF0CAFADFF870B3E5
:10099000DFF870A3CBF8000016200DF0C1FABA4BB7
:1009A000CAF800001B880C2B00F05E82B74EB84AD4
:1009B0003188B84B52F8214000221A70B64BB74A22
:1009C0001B88B7491288013B012A31F9133005937E
:1009D00000F0AE81B34B0193B34B0293B34FDFF8FA
:1009E000288300230093B24B1B88012B00F0F48175
:1009F000DFF81893AF4B0393D9F80050AE4B049334
:100A00000023AE4A1288013A032A00F24982DFE845
:100A100012F0A500ED000400C900284605930FF070
:100A200039FEA7490FF08AFE059B054618460FF0D0
:100A300031FEA4490FF082FE014628460FF076FDF4
:100A400010F042F80546C9F8005038680FF022FE51
:100A50009B490FF073FE814600980FF01BFE9949E9
:100A60000FF06CFE014648460FF060FD10F02CF8C8
:100A70003860954A954B17881988954BDBF800200C
:100A80001B88DFF88CE2C7EB050C3D44039FC7F8D9
:100A900000C0471A084404990D6001990F6002993B
:100AA000BEF8007008609A4280F2E7800025C3EB30
:100AB000070E7445DAF8000080F2D380611C98427A
:100AC00005FB01F50EF1010E95FBFEF5C0F25F830B
:100AD0008742A8BF0746FF1A01FB07F494FBFEF408
:100AE0009A4200F3A780984200F3A480794C2068D2
:100AF0000FF0D0FD78490FF021FE78490FF016FD78
:100B00000FF0E2FFA0F5FF531C3B082B98BF4FF4FA
:100B10000050D8F80030184400282060C0F29F80B0
:100B2000B0F5804F80F2F6806D4B1B781BB1B0F5AD
:100B3000005F40F0F7806B4D2B78002B40F0AB81CD
:100B4000694D20682B68634C984204D080B208F04D
:100B50001DFC23682B600BB0BDE8F08F2846059381
:100B60000FF098FD61490FF0E9FD059B0546184619
:100B70000FF090FD5E490FF0E1FD014628460FF0B1
:100B8000D5FC0FF0A1FF0546C9F8005038680FF0FA
:100B900081FD56490FF0D2FD814600980FF07AFD95
:100BA00053495DE7284605930FF074FD4A490FF05D
:100BB000C5FD059B054618460FF06CFD4D490FF02D
:100BC000BDFD014628460FF0B1FC0FF07DFF054644
:100BD000C9F8005038680FF05DFD3F490FF0AEFDD9
:100BE000814600980FF056FD424939E728460593A3
:100BF0000FF050FD40490FF0A1FD059B054618463A
:100C00000FF048FD3D490FF099FD014628460FF0D1
:100C10008DFC0FF059FF0546C9F8005038680FF0F9
:100C200039FD35490FF08AFD814600980FF032FDFD
:100C3000324915E73388002B3FF458AF2B1B002BAC
:100C4000B8BF5B42092B00F32D81D8F80030214C4E
:100C50004FF40050184400282060BFF661AF002216
:100C60005AE0984205FB04F5B8BF002195FBFEF55C
:100C700080F2848291FBFEF432E7BA42D4BFC3EB28
:100C80000205C3EB070512E75E9EFF1F649CFF1F72
:100C90005889FF1F069CFF1F2089FF1F329EFF1FE0
:100CA000A8230100589CFF1F989CFF1FF89BFF1F63
:100CB000C09DFF1F509EFF1FC49DFF1F2E89FF1F59
:100CC000CDCC4C3FCDCC4C3EA889FF1F2C89FF1FBB
:100CD000289EFF1F9089FF1F9A99193FCDCC4C4544
:100CE000629FFF1FB99CFF1F2489FF1F3333733F8F
:100CF000CDCC4C3DCDCCCC3E6666663FCDCCCC3D1C
:100D0000609CFF1F249CFF1F689EFF1F4C9EFF1FBF
:100D1000409CFF1F43F6FF72C04B22601B78002BE4
:100D20003FF409AF05F020FCBD4B01221A7007E724
:100D3000BC4BBD4A1B88BD491278013B31F91350A9
:100D4000002A40F0C78011200DF0EAF80090B84B5F
:100D50000193D3F80080009B984540F3C080B54BC9
:100D6000B54F1B88B54A012B3B68B2F80090B44AD6
:100D700002922046A3EB050500F0E2800FF08AFC0A
:100D8000029A52F829100FF0D9FC014600200FF00A
:100D9000CBFB0FF099FE009BC8EB05029D42B8BF4C
:100DA0001D469042C8EB050580F2DE8000FB05552C
:100DB000013295FBF2F5A34BDFF8B4820293D8F829
:100DC00000302B4403EBD3735B10C8F800309E4B0C
:100DD0001B88012B7FF40CAE9C4B03931D460F2008
:100DE0000DF09EF82A6804929042034680F2CC806F
:100DF000904A1288012A00F03F81904A0790128899
:100E00008F4D069220460FF045FC069ADFF864925B
:100E100055F82210D9F800500FF090FC0146002040
:100E20000FF082FB059BEA1A05920FF04DFE059A22
:100E3000079B04999A42C1EB020EB8BF1A4670454F
:100E400080F24481521A00FB02220EF1010192FB52
:100E5000F1F2D8F800107E4804900A4402EBD272F6
:100E60005210C8F80020CCE57A4B1B78002B3FF4D9
:100E70009DAD794E794A3188794B52F82100012293
:100E80001A700FF007FC4FF07C510FF057FC0FF079
:100E90001BFE044692E505F063FB00232B704FE632
:100EA0003868E6E505F500500130001B0FF0F2FB55
:100EB0006C496D4C0FF042FC054620680FF0EAFBD0
:100EC0006A490FF03BFC014628460FF02FFB0FF05C
:100ED000FBFD1EE615200CF0DFF8009037E7594BBC
:100EE0000293D3F80080009B984542DA514B524F51
:100EF0001B88524A012B3B68B2F80090504A03927B
:100F000020461D4400F0E9800FF0C4FB039A52F81C
:100F100029100FF013FC0FF0D7FD009B9D42C8EB8A
:100F20000502A8BF1D46C8EB05059042BABF00FBED
:100F300005550132454395FBF2F5DFF834813EE774
:100F40000FF0A8FB029A52F829100FF0F7FB0FF0F0
:100F5000BBFD009BC8EB05029D42B8BF1D46824207
:100F6000C8EB05053FF722AF00FB05F595FBF2F551
:100F700021E7DFF8FC80304FD8F8003003EBD37363
:100F80005B10C8F800302EE5314A049212680692D0
:100F9000904237DD274A1288012A00F0BC80274A98
:100FA00009901188264A0891204607920FF072FB9B
:100FB000079A0899DFF8BC9052F82110D9F8005030
:100FC0000FF0BCFB059B2B4405930FF07DFD0599AD
:100FD000099B069A9942C2EB010EA8BF19467045BB
:100FE00080F2BE80891A00FB01110EF1010291FB13
:100FF000F2F2D8F800100A4402EBD2725210C8F88C
:101000000020FEE4D8F80020DFF8689002EBD272EE
:101010005210D9F80050C8F80020F2E4629FFF1F78
:10102000B99CFF1FAC89FF1F429EFF1FF4200100E7
:10103000589CFF1F9E9CFF1FF89BFF1F489CFF1F93
:10104000C0230100989CFF1FC09DFF1F509EFF1FE3
:10105000C49DFF1F109EFF1F649CFF1F5889FF1F28
:10106000069CFF1FCDCCCC3E9089FF1F9A99193F5B
:10107000689EFF1F4C9EFF1F464A08901188464AF3
:101080000791204606920FF005FB069A0799DFF8B4
:101090000C9152F82110D9F800500FF04FFB059B2E
:1010A000E91A05910FF010FD0599089B049A9942E1
:1010B000C2EB010EB8BF1946704558DA891A00FB19
:1010C00001110EF1010291FBF2F2C2E60499521AEB
:1010D00000FB02F292FBFEF2BBE60FF0DBFA039A92
:1010E00052F829100FF02AFB014600200FF01CFADD
:1010F0000FF0EAFC009A9542C8EB0503A8BF15461D
:10110000C8EB05059842BABF00FB055501334543BE
:1011100095FBF3F511E71F491F4A089020460D88FB
:1011200007920FF0B7FA079ADFF8709052F825107F
:10113000D9F800500FF002FB014600200FF0F4F93F
:10114000059B2B4405930FF0BFFC0599089B069A5D
:101150009942C2EB010EA8BF19467045FFF642AF97
:10116000069A891A00FB01F191FBFEF241E7049A0D
:10117000891A00FB01F191FBFEF26AE6B842D4BF86
:10118000C3EB0001C3EB070104FB01F172E51F464D
:10119000A1E400BF489CFF1FC02301004C9EFF1F1D
:1011A00008B5244B1B88FBB1234B1B78FBB1234BA9
:1011B0001B78E3B1224B1B78CBB1224B1B78B3B128
:1011C000214B22481A78C2B9214A22490088128844
:1011D00009680244B1EB620F09DD01221A70642034
:1011E000BDE8084005F0D4B9174A117801B908BD27
:1011F0001370BDE8084008F093B8154A16490088F6
:10120000128809680244B1EB620FF0DD00221A7007
:1012100008F086F8642005F0BBF9642005F0B8F901
:10122000642005F0B5F94FF41670BDE808400CF0E5
:1012300085BC00BFD09DFF1FB49EFF1F869EFF1F71
:10124000879EFF1F889EFF1F2C9CFF1F409CFF1F37
:10125000289EFF1F609CFF1F249CFF1F38B5114C68
:10126000232025780BF018FF0F4A42F82500131FA2
:1012700002F1C400002253F8041F83420A44FAD149
:1012800023780A4907480A4C0133DBB2322B81FB31
:10129000025108BF0023D217C2EB21120370226053
:1012A00038BD00BF149CFF1FD49CFF1F1F85EB514E
:1012B000249EFF1F2DE9F04FB84CB94D2068B94F5F
:1012C00083B00FF0E7F9B8490FF038FA064610205E
:1012D0000CF026FE0FF0DEF9B4490FF02FFA31467C
:1012E0000FF024F90FF0F0FB2988206088423B883A
:1012F00043DA9E465B1A7F2B4FF0000247DDD20196
:101300005E1C92FBF6F2AA4EDFF8C882B6F800C067
:10131000C8F80020BCF1190F00F0DF80BCF11A0FF3
:1013200000F01781BCF11E0F00F020810126B146AC
:10133000A04A1288002A00F09D808842C0F20781EE
:101340007045D4BFC1EB0000C1EB0E009A42BABF9A
:1013500002FB00000133504390FBF3F3964A136005
:10136000964B1888C0B9964A1288AAB9954B197835
:1013700001B11A7003B0BDE8F08F9842D4BFC1EB41
:101380000002C1EB03029E465B1A7F2BB7DCC2EB67
:10139000C21292FBF3F2B6E72988D4F800E0DFF836
:1013A0000082DFF8F8A171456CDCDFF818C29CF808
:1013B0000020002A2ED14FF0010B04288CF800B039
:1013C00028D1002E40F094817D4B18880028D1D080
:1013D000B9F1000FCED023682C883A88A34280F25E
:1013E00065810023141B7E2C774DD5BFC3EB83137F
:1013F000C3EBC3135B00013493FBF4F42B6801349B
:10140000A34203D0C0B2E1B207F0E2FE2C6003B009
:10141000BDE8F08F012800F0F680022800F0EB8094
:101420000328D1D1694B1B88092BCDD0002ECBD0FE
:1014300023682E883A88B34280F27B810023961B72
:101440007E2EDFF88CA1D5BFC3EB8313C3EBC31390
:101450005B00013693FBF6F6DAF800300136B34252
:1014600003D0F1B24A2007F0B3FECAF80060ABE740
:1014700016469146BCF11E0F7FF472AF0022DFF8D2
:1014800058817EE04F4B1A78002A3FF473AF002456
:1014900001281C7000F0A480022840F00E81002E6C
:1014A00000F0A3804A4D2B68002B00F09E800420A2
:1014B000214607F08DFE424B2C60188800283FF42F
:1014C00059AFB9F1000F3FF455AFC0B2002107F09A
:1014D0007FFE3D4B00221A604CE7DFF8FC8098F855
:1014E0000020C2B1DFF8D890B9F800A0BAF1000F1F
:1014F00011D0DFF8E89099F800B0934578D05FFA02
:101500008AF07F2107F064FE98F80030B6F800C03A
:1015100089F8003010E0DFF8C49099F800A09245F7
:1015200066D0274B0021187807F052FE98F800305B
:10153000B6F800C089F800301E4B1A88002A97D0F0
:10154000BCF11E0F40F006810026B14619E00020D4
:10155000FCE6DFF8848098F80020002A0BBF012603
:1015600000264FF000094FF00109E1E6DFF868803E
:10157000104B98F800601A88B6FA86F676094FF094
:10158000000998F80030002B3FF4E8AE2988B7F83E
:1015900000E02068C1EB0E03CFE600BF509CFF1FA8
:1015A000D69DFF1FD29DFF1F9A99193FCDCCCC3EEF
:1015B0005E9EFF1F949EFF1FCC9CFF1F5E9CFF1F23
:1015C000709EFF1F659EFF1F349CFF1F129EFF1F12
:1015D000D09CFF1F449EFF1F109EFF1F189CFF1FE3
:1015E0001EB1614D2B68002B7BD1604B188865E7DD
:1015F0000026B1469CE6002E3FF4E6AEDFF868A177
:10160000DAF800202EE0002E3FF4DEAEB7F80080BE
:10161000F045D4BFC1EB0802C1EB0E02C1EB0808D4
:10162000B8F17E0FDFF840A1D5BFC2EB8212C2EB4A
:10163000C212520008F1010892FBF8F8DAF8002013
:1016400008F10108424506D05FFA88F101200093B5
:1016500007F0BEFD009B1888CAF8008002287FF4BE
:10166000DFAE42462168B5F800803888414559DA36
:101670000021C8EB0008B8F17E0FD3BFC1EB811188
:10168000C1EBC11108F10108490091FBF8F808F11C
:101690000108904506D05FFA88F10420009307F016
:1016A00097FD009B1888CAF80080B9E69342D4BF22
:1016B000C4EB0303C4EB020394E6032827D12C4BAD
:1016C0001B88092B91D0002E8FD0274D2B68002B23
:1016D0008BD04A20214607F07BFD244B2C601888D4
:1016E000ECE6214607F074FD204B2C601888E5E6F7
:1016F00040207F218DE80C0007F06AFD019B009AD5
:10170000188858451CD002287FF48AAE76E7042852
:101710007FF46BAF002E3FF468AF2146402007F006
:1017200057FD62E78142D4BFC8EB0101C8EB00015D
:101730009FE79342D4BFC6EB0303C6EB02037EE6EA
:10174000B8F80010DAF800E0B7F800808E45FFF630
:1017500065AF5DE72988B7F800E020680026C1EB97
:101760000E03B146E9E500BFD09CFF1F709EFF1F2E
:10177000129EFF1F08B5114B1B88022B09D0052BA9
:1017800007D0032B15D0042B0BD00D4B01221A7060
:1017900008BD7F21412007F01BFD094B01221A7073
:1017A00008BD7F21092007F013FD054B01221A70A7
:1017B00008BD4021092007F00BFDE6E7CA9CFF1F8A
:1017C000809CFF1F38B5074B074D1B88052B04462F
:1017D00006D02B68834203D0C1B2052007F0F8FC85
:1017E0002C6038BDCA9CFF1F749EFF1F38B5124D78
:1017F000124C2B88052B12D022684AB9022B0ED02E
:10180000033B012B13D90E4A00231370236038BD0C
:101810000021052007F0DCFC2B88022B04D10021DD
:10182000412007F0D5FCEEE7052BE9D1F7E70021D1
:10183000092007F0CDFCE6E7CA9CFF1F749EFF1F3E
:10184000809CFF1F464B1B881D2B70B541D0454D1A
:101850000024454B1B88022B16D0444B1B88022BBF
:1018600054D02888424B002C1B780ADB8442A8BF46
:10187000044634B1002B3AD02046BDE87040FFF753
:10188000A1BF002B2FD170BD3A4B1B78002B37D056
:1018900015200BF001FC384B1860384A1288002ADA
:1018A000DBD0374A186811888142D6DC354B2A884C
:1018B0001B888342A3EB0106A8BF03465B1AB24212
:1018C000BABF02FB03330136534393FBF6F31C44C8
:1018D000C3E72A4B1C888CB12B4B224D1C78002C63
:1018E000B7D02C88B5E7BDE87040FFF77FBFFFF7A2
:1018F00041FF2046BDE87040FFF764BF194DA8E7DF
:1019000011200CF00DFB1C4B1860C6E70F200CF0EB
:1019100007FB1A4B1D4A1B881060002BA1D01C4AE4
:10192000C0F53B63118808338B429ADB194A28883B
:1019300012889342A2EB0105A8BF1346A842A3EB6D
:10194000010306DA00FB0333013593FBF5F31C4476
:1019500088E700FB03F292FBF5F31C4482E700BF2B
:101960005E9EFF1F629EFF1F329EFF1FC09DFF1FD6
:10197000809CFF1F429EFF1F089CFF1FCA9CFF1FE9
:101980007E9CFF1F5C9EFF1F109EFF1FD89DFF1FA8
:10199000C89CFF1F489EFF1F38B510200CF0C0FAEE
:1019A000C830B0F5FA7FC0F2EE80B0F57A6F01462C
:1019B000A8BF4FF47A6101F51673B3F57A6FA8BF2B
:1019C0004FF47A639BB289B28E4A8F4C11802220E9
:1019D000238007F081FD21888C4D8D4C242007F059
:1019E0007BFD0E200BF058FB40F6FF71C83088429B
:1019F000A8BF084620EAE07000F5FA6283B28A4286
:101A0000A8BF0A460220194622802B8007F064FDF9
:101A10002188042007F060FD17200CF081FA0446AD
:101A200016200CF07DFAA042B8BF204600F1C80194
:101A3000B1F5FA7FC0F2A280B1F57A6FA8BF4FF47A
:101A40007A6101F54873B3F57A6FA8BF4FF47A63F2
:101A50009BB289B26F4A704C11800A20238007F034
:101A60003BFD21880C2007F037FD0F200CF058FAC1
:101A7000C0F53F610431B1F5AF6F7CDBB1F5FA6FB2
:101A8000A8BF4FF4FA6189B2644BC0F54360B0F56A
:101A9000AF6F19806CDBB0F5FA6FA8BF4FF4FA6036
:101AA00083B25F4CA420238007F016FDA620218876
:101AB00007F012FD0B200CF00BF8002868D0112065
:101AC0000CF02EFA00F1C801B1F52F7F6EDA40F26A
:101AD00014534FF42F71534A1180534C0620238026
:101AE00007F0FAFC2188082007F0F6FC00244FF4E8
:101AF000AF75E1B24D4809F00DFB01348542A8BF36
:101B000005460C2CF5D101200CF00AFA0446002001
:101B10000CF006FA323CA0F1320345496FF495709F
:101B200000FB03F300FB04F081FB034281FB004157
:101B3000DB17C017C3EB6223C0EB612003F5AF7264
:101B400000F5AF739342A8BF13469D42A8BF1D4640
:101B5000A5F11401312938DC40F26C73322135488B
:101B6000354A018013602A20BDE8384007F0B4BC34
:101B70004FF4AF6395E74FF4AF6185E740F214533C
:101B80004FF4FA7166E740F24C434FF4FA711BE7E9
:101B900015200BF081FA00F59671B1F52F7F96DBD9
:101BA00041F25C2399421FDD194694E741F25C2320
:101BB0009942F9DC1B4A00F5487089B2B0F52F7FD5
:101BC000118019DA4FF42F7387E740F23A72A5F5C6
:101BD000B9751A4B02FB05F583FB0523ED17A5EB41
:101BE000631389B23233BAE70E4A00F5617089B2E5
:101BF000B0F52F7F1180E5DB8342A8BF03469BB27F
:101C00006BE700BFD69DFF1FD29DFF1FC49CFF1F27
:101C10008C9EFF1F289EFF1F409CFF1FC89CFF1F1C
:101C2000489EFF1F7E9CFF1F5C9EFF1FB89CFF1FEE
:101C300067BBCF46849EFF1F9889FF1FB5814E1B4F
:101C40002DE9F84F0C200BF0F3F90C200BF0A8FE57
:101C5000A74914200BF0B4FEA649A74808F0ECFEF3
:101C6000022103200BF042FF022104200BF03EFF73
:101C7000022105200BF03AFF022106200BF036FF6F
:101C800001210A200BF032FF012109200BF02EFF69
:101C900001210D200BF02AFF012128200BF026FF47
:101CA000012114200BF022FF02210B200BF01EFF5C
:101CB00001210C200BF01AFF0C2000210BF002FF79
:101CC00004200BF005FF002836D005200BF000FFA4
:101CD00000283BD00023894D06202B700BF0F8FE26
:101CE000B0FA80F35B090024854A137005F0E0FF29
:101CF0002B78EBB9204607F019FC824B82491B88F0
:101D0000824D0988824A2970A3F5AF7140F23A7377
:101D100003FB01F382FB0312DB177E4E7E48A3EB2D
:101D2000621332335A21336009F030FAA8B9FEE762
:101D3000BDE8F84F08F090BD06200BF0C9FE002862
:101D4000C3D16E4D034628700124CDE703200BF06C
:101D5000BFFEB0FA80F35B09BDE7704A70481268B5
:101D6000DFF804B200230121FEF79EFB0B200BF0ED
:101D7000AFFE011E0CBF012300238BF8003002D1FF
:101D800011200BF0B3FEDFF8A491664FDFF8DC8181
:101D9000654E0023C9F800303B60C8F800304FF0B2
:101DA000040A14E00BF078F93B68184438600AF034
:101DB000010080F0010004F0DBFB3388002B14BF2E
:101DC0004B20DC200BF0BAFEBAF1010A1BD00F2029
:101DD0000CF0A6F8D8F8003003440E20C8F8003004
:101DE0000BF05AF9D9F800309BF800200344C9F8E9
:101DF00000301520002AD5D111200CF091F83B6855
:101E000018443860D3E7D8F80030D9F800204749A3
:101E10003868DFF85CE1DFF85CC1002BB8BF033342
:101E2000002AB8BF033292100A604149414A09882A
:101E300012880028B8BF03309B10801038605F1AEA
:101E40001944CEF80070CCF80010DFF82CE13A4FBE
:101E50003A49C8F80030C2EB000C0244CEF800C08A
:101E60003A600B600CB1FFF797FD33885BB94FF414
:101E7000FA7004F08DFB04F077FB06F04DFA4FF496
:101E8000AF600BF05BFE2E4B012404201C600BF0B6
:101E90001FFE10B92B4B28701C702B4B1B881C2B62
:101EA0001CD02A4C04F1C80523200BF0F5F844F8A7
:101EB000040F01200BF042FEA542F5D1244A254B28
:101EC0001078187007F03CFA04F04AFB45F6BF5250
:101ED00021492248BDE8F84F0AF096BE204B1888E9
:101EE0000028DED01F4BC0B2197807F071F9D8E78F
:101EF000001B374640420F00E490FF1F329CFF1F3B
:101F0000C89DFF1F849EFF1F609EFF1F949CFF1FA4
:101F1000B5814E1B9889FF1FB89CFF1F2889FF1FA2
:101F2000F09DFF1FF89BFF1F1E9EFF1F0C9CFF1FB5
:101F3000A889FF1F2C89FF1F989CFF1F9C9EFF1FD5
:101F4000589EFF1F1C9CFF1F5E9EFF1FD09CFF1F03
:101F5000DC9DFF1FBE9DFF1FA50500007C9EFF1F8F
:101F60009C9CFF1F4C9CFF1F429EFF1F4C9EFF1F0F
:101F7000509EFF1FC49DFF1F589CFF1F2DE9F04F6F
:101F80008BB007ADC04F2C460AAE611BC9B2BF482B
:101F900009F0C0F83B88834294BF0020012004F878
:101FA000010BA642F1D1BA48BA4A9DF81C70BA4951
:101FB00007709DF81E00B94D10709DF820209DF807
:101FC0002430B74EB74C0A709DF8221029700025B6
:101FD0003370257073B9002940F01A81B2491AB1E3
:101FE0000B78002B40F00682002800F0DB810223F2
:101FF000237005E0002A40F0BB800523AA49237026
:10200000DFF8F8B2DFF8F8829DF81D209DF8210076
:10201000DFF8F092DFF8F0A2A44DA54FA54E0B70AB
:102020009DF81FC09DF823109DF827309DF826E0ED
:102030008BF8002088F800009DF8252029700120E9
:102040003A70337089F800C08AF800E00BF068FF3E
:10205000994A9A4B11688842CCBF012200221A701B
:1020600040F38A80964B1B88182B00F28580954A96
:10207000B2F800E00C3B0093BEF1000F40F0858009
:10208000914A9BF800C092F800B098F8008099F847
:1020900000209AF8009094F800A02C78ABEB4C0B41
:1020A000C2EB0B0BA8EB880EDE44C9EB897BC9EBB6
:1020B0008B09DFF81CB2F14497F800E0BBF800B0E0
:1020C00009EB44093478CE4404FB0BEE4FF00C09C5
:1020D0007E4C19FB0AEEC4F800E0B8F1000F0BD0FB
:1020E00036784EB17A4E3688042E0CBF0EF1020EB1
:1020F0000EF1040EC4F800E0764E774CDFF80CB217
:102100003688DBF800B02488DFF804A2DFF80492F8
:10211000BAF800A0B9F80090009BC6EBC6065E4472
:10212000033CDFF8F4B104EB4404DBF800B00EEB41
:1021300084045444C9EBC909DFF8E0A1D944DFF8AD
:10214000E0B15AF826605BF829900C3C1C44A319B6
:102150004B44BCF1000F29D02C783CB3002A5BD152
:10216000B8FA88F85D4C4FEA581884F8008024E0EB
:10217000062323704C4943E7524AB2F800E000239B
:102180000093BEF1000F3FF47BAFBEF1010F47D0CB
:10219000BEF1020F00F0C8804C4C9BF800C099F8CB
:1021A000002098F80080D4F800E096E74B4C00251A
:1021B00025700AB13A781ABB0022494C8842227035
:1021C0004849C4BF484AC2F800E00A68934213D0A5
:1021D000464A474C106805900598206012680692A0
:1021E000444C069A24880B60121AA24284BF424AC9
:1021F00013600BB0BDE8F08F3D483C4A0068EDE746
:10220000BCF1000FD8D1B8F1000FD5D10122D4E72D
:10221000042323702449F3E6304A00241470CBE7EA
:10222000294A9BF800C092F800E098F8008099F8DD
:10223000002094F800B09AF800902C780194AEEB4E
:102240004C0EC2EB0E0EA8EB88047444C9EBC9090E
:10225000D944A31EDFF878A0DFF8C8E0019C97F806
:1022600000B05EF829E0BAF800A096F8009003EB01
:1022700044045C4409FB0A4909F11809134CCE4493
:10228000C4F800E029E700BF849EFF1FB89CFF1F31
:10229000869EFF1F879EFF1F889EFF1F899EFF1F30
:1022A0008A9EFF1FCA9DFF1FD49DFF1FB59EFF1F63
:1022B000B69EFF1F649EFF1F9889FF1F109EFF1F81
:1022C0005E9EFF1F049CFF1FAA89FF1F189EFF1F11
:1022D0006C9CFF1F549EFF1F369EFF1F969EFF1F84
:1022E000979EFF1F789CFF1FA09EFF1FA09FFF1FB0
:1022F000689CFF1F6E9EFF1FA89EFF1FB19EFF1FC1
:10230000B39EFF1FB29EFF1FB49EFF1FCC9CFF1FFA
:10231000169CFF1F829CFF1F909EFF1F84210100BF
:10232000601C010070230100394A9BF800C092F83C
:1023300000B0247899F8002098F800800394ABEB63
:102340004C049AF80090334B95F800A0CDF804A007
:10235000A8EB880BA41A5C444FF0050B1BFB094B40
:10236000039C97F800A0CDF808A0C9EBC909B3F801
:1023700000A009EB0403BDF80490029C0BF1050BCF
:102380001EFB09BE96F800B0DFF8B090A6440BFB28
:102390000AEE59F82390204C0EF10C0ECE44C4F8EE
:1023A00000E09AE64FBB0B78012B2FD91B4A237014
:1023B00012882AB31A4A1288013A92B2062A1FD802
:1023C000184A1278E2B1184A1268012A7FF418AE4E
:1023D0001648174A0068174E82FB0025C217C2EB49
:1023E000650202EB4202A0EB82023280124A032015
:1023F000107005E60323237002E601232370FFE536
:10240000094A1268012A7FF4FBADEFE73B46F7E586
:10241000AA89FF1F6C9CFF1F189EFF1F409EFF1F75
:10242000DE9DFF1FC69CFF1F589EFF1FA89EFF1F1B
:10243000ABAAAA2A1C9EFF1F8C89FF1F082501003A
:102440002DE9F04F3A4B1B788BB0002B6BD10E204F
:102450000AF022FE0EF01EF901463648364E374D80
:10246000FEF768F83348FEF73BF80EF02DFB80F3DB
:102470000C003060FFF782FD2C68012C7AD0022C12
:1024800000F0B782032C00F0C9832D4E2D4C336829
:102490002D4A2E4E0993099B316812882360591AE0
:1024A000013A9142274F00F29F82294E32689A1AD0
:1024B0000D2A00F28882274E32689A1A132A00F2F7
:1024C0007D82254E32689A1A252A1AD9234B1B88F9
:1024D000002B40F06081224B1B78002B40F05B8189
:1024E000FEF7BCFE1F4B1B881B3B9BB2022B04D884
:1024F0001D4B1B78002B40F0518104F05BF82368E2
:1025000033601A4D2A689B1A502B00F21382184B25
:102510001B88012B00F02B8206F0EEFE06F01CFD5E
:102520000BB0BDE8F08F08F01FF80BB0BDE8F08FDE
:10253000329CFF1FF09DFF1F2C9EFF1F589EFF1F08
:10254000A09FFF1FEC9DFF1F9489FF1FC09CFF1FD2
:10255000AC9CFF1F8C9CFF1F909CFF1FD09DFF1FFA
:102560002C9CFF1F5E9EFF1F109EFF1FE09DFF1F04
:10257000309EFF1FDFF82C93A24AB9F800001378B1
:10258000834204D0C3B21846137006F0F1FDDFF8A1
:1025900010839D4AB8F800301178994204D09B4FBF
:1025A0003978002940F0F886994A33681288994EA4
:1025B0009A42C0F2FD80984A1278002A40F0F880D2
:1025C000DFF8E4A2BAF8003023B9944B1B88002B43
:1025D00000F00C85924A934B11881B88924A0B4459
:1025E00012685B109342914A126880F2AE84002117
:1025F0009342B4BF01230B4604910093ACBF4FF04C
:10260000010B8B4605910E200AF046FD884B894A46
:102610001B68176803930133A7F25232002B8446DC
:10262000029240F3E086802BA8BF8023824A834930
:1026300012780191002A00F0C5800978914200F0DB
:10264000C180B8F80010DFF858E2994201F0FD802F
:102650006E49AEF800307A4B4FF0010E81F800E081
:102660001978DFF848E2019B8EF800101A70009B81
:10267000002B00F01D81BAF80030002B00F018810B
:10268000704B1B685A1C002A40F3B186802A00F365
:10269000AD866D4C6D496E482488098800682144D8
:1026A000B0EB610FC1F24683A3F148020F2A02D8B2
:1026B000473BA9F800300E200AF0EEFC6FF454738B
:1026C0001F44874202DC634B00221A7000200BF08B
:1026D00027FC614A614B1168614C1B888842D4BF5A
:1026E000002201222270002B00F026845D4B1C7812
:1026F000944243D0884241DD5B490C78002C00F0C5
:102700003A875A4991F800C0BCF1000F40F0318778
:10271000574F0097574F58480297554F007887F802
:1027200000C0544F4FF0010E87F800C081F800E060
:10273000002841F0E18051490978002900F0FD8727
:102740004F4903910C460978002940F0F3874D4822
:10275000484F0078397001210297217070B14448C8
:1027600042490090484803270770002008700099EC
:10277000029F0870039901243C7008701A70434B43
:102780001B88A3F11B02012A40F2CA851D2B00F011
:1027900014863F4C7BE6FEF703FDA1E63D4B1B781C
:1027A000002B3FF4AAAE2B68012B7FF4A6AEA6E661
:1027B0003168394A069106983849106002220B6048
:1027C0002A60FDE61E49DFF8E4E0097800293FF4BD
:1027D0004AAF9EF8000081423FF445AF03984B2872
:1027E00040F3FA871833802BB8F80000A8BF802385
:1027F00098423FF438AF2A4803800448012303700D
:1028000031E700BFBE9DFF1F949CFF1F1C9CFF1F54
:10281000C49CFF1FA09FFF1F2C9CFF1FB29CFF1F8B
:10282000409CFF1F289EFF1F609CFF1F249CFF1FD2
:10283000A09EFF1F0C9CFF1F969EFF1F749CFF1FF6
:10284000979EFF1F189EFF1FD69DFF1FD29DFF1F43
:10285000509CFF1FC99DFF1F9889FF1FDE9DFF1F12
:10286000469CFF1FFC9BFF1FB49EFF1F209EFF1F67
:10287000729EFF1FC69CFF1FB59EFF1FB19EFF1FCC
:10288000FD9BFF1F109EFF1F8C89FF1F5E9EFF1F79
:10289000EC9DFF1F649EFF1F849CFF1FE89DFF1F90
:1028A000609EFF1FDC9DFF1F7C9CFF1F759CFF1F10
:1028B000029B9C45BFF6FFAE8B4B1B88002B3FF461
:1028C000FAAEBBF1000F7FF4DBAE884B1B881BB167
:1028D000059B002B7FF4D4AE049B002B3FF4EBAEA2
:1028E000834B1A78002A7FF4E6AEDFF8809299F8DD
:1028F000004001221A70002C40F045837D4B1B786C
:10290000002B02F0D8807C4B1B78002B02F09B83BD
:102910007A4B1B78002B7FF4CEAE794B1B78002BC3
:102920003FF4C9AEB8F8003076490A3BA8F8003049
:102930000A70C0E605F004FA734B1B7873B9734B49
:102940001B785BB9724B1B7843B9724B1B782BB960
:10295000714B1B7813B903F003FE01E003F00CFE8A
:1029600023682B606D4B1B88012B7FF4D5AD6C4A1F
:102970006C4B11686C481A78A1F118032A2101FBED
:1029800003F10160002A00F0C182684C236899427B
:1029900000F36A8310DA66480278002A40F09287D2
:1029A000644A1068D0F17F0048BF033080100130C6
:1029B0001B1A994242F3D0862160A9E2FEF742FF3A
:1029C000236833607DE5FDF7DBFFFEF773FC5A4BB0
:1029D0001B88032B00F02B85584B1B88032B00F022
:1029E00022852368336066E5FDF716FF3B68336098
:1029F0005BE5534A34681188A14204DB464B1B78DF
:102A0000002B00F061834F4E4F48336807934F4BC4
:102A1000079A00681B88121A9A4200F2AD80002BB8
:102A200000F0AA804A4B1A88002A3FF4B2AE494B04
:102A300049481B680088A342B8BF2346994241F326
:102A40007281464B1960DFF8288188F80020344FE6
:102A5000FDF7E2FE38687F2840F37D85404B7F38E4
:102A600083FB0032C317C3EB620303EB4303A0EB0A
:102A7000830073303B4B01931B883860002B40F080
:102A8000D686234B00931B78002B00F0CA83364C6C
:102A90002378002B00F0C583DFF8D890DFF8C0A0C2
:102AA0004FF0000B0CE003F17300C0B298F8001077
:102AB00006F0B6FB23780BF1010B5B4540F3B183C5
:102AC0003B6859F8040F1844A0F17F038AFB0321E7
:102AD000DA17C2EB610202EB42027F28A3EB82030A
:102AE000E1DCFDF7B9FDE0E7B29CFF1FE49DFF1FAD
:102AF000C99DFF1FB19EFF1FB29EFF1FB39EFF1F08
:102B0000B49EFF1F1C9CFF1FC69CFF1F209EFF1F23
:102B1000729EFF1FFD9BFF1F2C9CFF1F309EFF1FFF
:102B2000A89EFF1F809CFF1FA49CFF1FB49CFF1F3B
:102B3000789EFF1F749EFF1F329EFF1FC09DFF1FC8
:102B4000C49CFF1FA09FFF1F849CFF1FB09CFF1F02
:102B50001A9CFF1FE89DFF1F8C9EFF1F009CFF1FFC
:102B6000ABAAAA2A5C9CFF1F5489FF1FCA9DFF1FA6
:102B7000A09CFF1F2C89FF1F554B564A1B681088CD
:102B8000554AA342B8BF2346994200F38482534C6E
:102B900012888342A8BF03462360002A7FF453AF04
:102BA0009942C8BF134640F37D82401AB0F5804F6A
:102BB000AABF9B03C3EB8333013093FBF0F0FDF717
:102BC00011FEC0F3C6100DF065FD454B0446188894
:102BD0000DF060FD4349074620460DF0AFFD01466C
:102BE00038460DF0ABFD21460DF0A0FC4FF07E51B4
:102BF00004460DF041FF002841F079803A49204613
:102C00000DF058FF002840F0718620460DF082FF3D
:102C1000C0B2DFF8F48088F8000018E7334B34685E
:102C20001988A14274DD324B1B78002B70D1DFF87C
:102C3000DC9099F800007F2840F34086A3F15533DB
:102C40007F3803F1004383FB0032C317C3EB6203F9
:102C500003EB4303A0EB83007330264B01931B88E7
:102C6000C0B289F80000002B41F03380224B009362
:102C70001B78002B00F0AC84204C2378002B00F054
:102C8000A7841F4FDFF87C804FF0000A0AE003F1B1
:102C90007300C0B206F0ECFA23780AF1010A53453A
:102CA00040F3968457F8043F99F800001844A0F1C7
:102CB0007F0388FB0321DA17C2EB610202EB4202B9
:102CC0007F28A3EB8203E2DCFDF7C6FCE1E700BF4F
:102CD000E89DFF1F8C9EFF1F1A9CFF1F009CFF1F7B
:102CE000989EFF1FCDCCCC3D0000FE42C49CFF1F30
:102CF0002C9CFF1F5C9CFF1F729EFF1F5489FF1FAF
:102D00002C89FF1FABAAAA2AA09CFF1F149EFF1F9D
:102D1000B84F38687F2840F3CC81B74B7F3883FBAE
:102D20000032C317C3EB620303EB4303A0EB830042
:102D30007330DFF8249399F800A0824500F01782E1
:102D4000AE4B1B88002B43D1AD4AAE4812680088B9
:102D5000914205DC8242D4BFC1EB0203C1EB000308
:102D6000411AB1F5804FA6BF9B030131C3EB8333FA
:102D700093FBF1F0FDF736FDC0F3C6100DF08AFCB1
:102D8000A14B044618880DF085FCA04980462046DA
:102D90000DF0D4FC014640460DF0D0FC21460DF06C
:102DA000C5FB4FF07E5104460DF066FE002840F052
:102DB0000A87974920460DF07DFE002840F0938554
:102DC00020460DF0A7FEC0B2DFF8908288F8000020
:102DD000BAF17F0F40F3B8838748AAF17F0A80FBDE
:102DE0000A304FEAEA73C3EB600000EB4000AAEB45
:102DF00080007330874B00931B78C0B289F80000C5
:102E0000002B40F01883844B03931B78002B40F079
:102E10004985824B02931B78002B40F07C87804BC6
:102E20000193029B1B78FBB17E4B1B88012B00F0AA
:102E3000C185022B01F04D80032B01F08C81042B06
:102E400001F09783052B01F03884062B01F0FF85F4
:102E5000072B01F0BB87082B02F0BA80092B02F088
:102E6000BF810A2B02F09283009B1B78002B00F09D
:102E70007484019B6A4C1988002900F0FB8438682F
:102E80007F2840F365835C4B7F3883FB0032C31798
:102E9000C3EB620303EB4303A0EB830073303860A2
:102EA000002940F0AA84009B1B78002B00F06B8166
:102EB0005D4C2378002B00F06681DFF8A4A1DFF8D9
:102EC0009C814FF0000B0CE003F17300C0B298F846
:102ED000001006F0A5F923780BF1010B5B4540F3D8
:102EE00052813B685AF8040F434A1844A0F17F030B
:102EF00082FB0321DA17C2EB610202EB42027F2858
:102F0000A3EB8203E0DCFDF7A7FBDFE7474B19608B
:102F1000474B1B68A92202FB03F3002BBCBF03F540
:102F20007F533F339B13543B194481F30C012820FA
:102F30000AF038FCFFF7F0BA384C3E483549364ABB
:102F4000237003700B70137019E493424FF0000B61
:102F500080F2B2800123CDF800B0CDF814B0049314
:102F6000FFF751BB344B1B78002B7FF4A4AB039BC2
:102F7000324A243B83F34703D9B25B20136006F047
:102F800027F999F80040032C30D1DFF8D88098F861
:102F90000030002B42F05D82294F3B78002B42F03D
:102FA0004B82254C2378002B42F03982254B1B782D
:102FB000002B42F02782244A1380244B1B78002BDD
:102FC00042F013820D4B7F221A8098F800306BB9C3
:102FD0003B785BB923784BB91D4A7F2107201380CA
:102FE00006F0F6F87F210B2006F0F2F8194B1F6867
:102FF000FFF761BBA89EFF1FABAAAA2A1A9CFF1F5E
:10300000009CFF1F8C9EFF1F989EFF1FCDCCCC3DC8
:103010000000FE42729EFF1FFD9BFF1FC69CFF1F0C
:103020005C9CFF1FDE9DFF1F5489FF1FB49CFF1F88
:103030009089FF1F209EFF1FB49EFF1F3C9CFF1F17
:10304000B39EFF1FB29EFF1FBA9CFF1FB59EFF1FBE
:10305000129EFF1F0C9CFF1F149EFF1FA09CFF1FB2
:103060002C89FF1FB19EFF1FB64A1078002840F040
:103070005783B54A1268D2F17F0248BF033203EB8F
:10308000A202531CB14A23609942B8BF1160FFF6F7
:103090003FAF19463CE7AE4B12881960002A7FF417
:1030A000D2AC0B469842D4BFC1EB0003C1EB030383
:1030B0007BE5FDF7D1FA3CE60123CDF810B0CDF861
:1030C00000B00593FFF79FBA01232B60A14EA24CDD
:1030D000FFF7DDB9029B1B78FBB1A04B1B88012BCE
:1030E00000F0EA84022B00F07386032B01F0A98024
:1030F000042B01F06382052B01F05683062B01F0AF
:10310000AF84072B01F0AF85082B01F01987092B3D
:1031100002F02F800A2B02F0C381019B1B88002B39
:1031200000F07483009B1B783BB9039B1B7823B989
:10313000029B1B78002B01F00480894B1B78002B2D
:1031400000F0FE8087490B78082B00F2F980864852
:103150003A680068854C0133DBB25F1E101A44F8F0
:1031600027000B70824B3468198889F800208C4244
:10317000784E7FF70EAB32687E4B0892089A764CF9
:103180001A60FFF784B9039B1B78002BA2D03B6821
:10319000A3F10C007F2840F3828377488B3B80FBB0
:1031A0000320DA17C2EB600000EB4000A3EB8003C2
:1031B00003F17300DFF8D481C0B298F8001006F074
:1031C0002FF8009B1B78002B84D0664C2378002BB3
:1031D00080D0DFF8BCA14FF0000B0CE003F17300CE
:1031E000C0B298F8001006F01BF823780BF1010B21
:1031F0005B457FF76FAF3B685AF8040F5E4A18448F
:10320000A0F18B0382FB0321DA17C2EB61020C38B9
:1032100002EB42027F28A3EB8203DFDCFDF71CFAFE
:10322000DEE74F4B1B78002B40F0F6823B68534A99
:103230001278002A45D0A3F10C007F2840F33B838D
:103240004D4A8B3B82FB0321DA17C2EB610202EB92
:103250004202A3EB820303F17300C0B298F800109E
:1032600005F0DEFF009B1B7853B33E4C23783BB345
:10327000DFF81C91DFF800A14FF0000B0BE003F129
:103280007300C0B298F8001005F0CAFF23780BF164
:10329000010B5B4514DD3B6859F8040F1844A0F19D
:1032A0008B038AFB0321DA17C2EB61020C3802EBB5
:1032B00042027F28A3EB8203E1DCFDF7CDF9E0E7D2
:1032C0003B682F4A1278FAB1244A1288012A00F08A
:1032D0007D84022A00F07B86032A01F02F80042AD5
:1032E00001F09381052A01F0CC82062A01F0D083F7
:1032F000072A01F01384082A01F0D386092A01F075
:1033000090870A2A02F00A81019A1288002A00F0A6
:1033100095821C4A104C137003232B60FFF7B7B83B
:10332000DFF8708098F80030002B40F01881164FBD
:103330003B78002B40F01485074C3B70FFF7A7B893
:103340003A680FE7789EFF1F749EFF1FB49CFF1F13
:10335000009CFF1FA09FFF1FEC9DFF1FDE9DFF1F16
:10336000209EFF1F5489FF1F209CFF1F3089FF1FD5
:10337000C49CFF1F4C9FFF1FABAAAA2AFD9BFF1FE7
:10338000C69CFF1F149EFF1F189CFF1FA09CFF1FC1
:103390002C89FF1F109EFF1FDBB21846137005F02B
:1033A000F5FEB04BB0491A46B04B184600230B70DF
:1033B0003B7013700370FFF7F7B8DFF8CC8298F812
:1033C0000030002B40F0D781A94F3B78002BB3D0C1
:1033D000A84BA94C1988A22006F07EF898F8003076
:1033E0003B70FFF754B80123FFF720B98024A349AD
:1033F000A34BA44A09881B8812680B44B2EB630FE5
:10340000BFF659A9A04B1B78002B40F02482B8F8D6
:1034100000309E4AA3423FF44EA99D4B14800122E6
:103420001A70FFF748B9FDF77FF9FFF7DABAFDF731
:1034300025F9FFF7D1BA974B01931B88002B42F077
:1034400085818A4B0393944B0293944C23786BB3FE
:10345000DFF85C82DFF848A24FF0000B09E003F1CF
:103460007300C0B205F004FF23780BF1010B5B453C
:103470001CDD58F8043F99F800001844A0F17F03C0
:103480008AFB0321DA17C2EB610202EB42027F28BA
:10349000A3EB8203E3DCFDF7DFF8E2E77E4B029368
:1034A00005F0E6FE009B1B78002BCED1039B1B781A
:1034B000002B3FF4B6AC99F80030A3F10C007F2844
:1034C00040F3EA8176488B3B80FB0320DA17C2EB9E
:1034D000600000EB4000A3EB800303F17300C0B277
:1034E00005F0C6FE009B1B78002B00F0CA816B4CD8
:1034F0002378002B01F0C582DFF8B481DFF8A0A1AA
:103500004FF0000B0AE003F17300C0B205F0B0FE0B
:1035100023780BF1010B5B457FF783AC58F8043F30
:1035200099F800001844A0F18B038AFB0321DA17F5
:10353000C2EB61020C3802EB42027F28A3EB82034C
:10354000E1DCFDF789F8E0E75046FDF785F851E446
:10355000FDF782F8A3E4FDF77FF8FFF78BBA514A35
:103560001278002A40F0D581414F434C3B70FEF762
:103570008EBF002008704C49087840B1394900914D
:103580000978002900F0B581009F00213970474972
:10359000097800297FF4D4A8002C40F0CE800028C0
:1035A00040F0CB80384C2F4F94F800E02F4C039420
:1035B000394C02942D4C2C492070374C00970870E0
:1035C00038702070BEF1000F7FF4CCA8FFF7D6B89A
:1035D000264B1B78002B6DD099F80030A3F10C001E
:1035E0007F2840F3C8832E4A8B3B82FB0321DA17E6
:1035F000C2EB610202EB4202A3EB820303F1730010
:10360000C0B205F035FE009B1B78002B52D0234C36
:103610002378002B4ED0264FDFF884804FF0000A2D
:1036200009E003F17300C0B205F022FE23780AF12D
:10363000010A53453EDD57F8043F99F8000018444D
:10364000A0F18B0388FB0321DA17C2EB61020C386F
:1036500002EB42027F28A3EB8203E2DCFCF7FCFFD3
:10366000E1E700BF729EFF1F209EFF1FFD9BFF1F13
:10367000189CFF1F629EFF1FEC9DFF1FD69DFF1F22
:10368000D29DFF1F509CFF1F109EFF1F609EFF1FBB
:103690001C9CFF1F5C9CFF1FC69CFF1F5489FF1FC3
:1036A000ABAAAA2A649EFF1FB59EFF1FB19EFF1FF3
:1036B0002C89FF1FA84B1B78FBB1A84B1B88012B43
:1036C00000F0D086022B00F0CB87032B01F0428163
:1036D000042B01F0CD81052B01F01784062B01F09E
:1036E000D884072B01F0E785082B01F07087092BA0
:1036F00001F0D5870A2B01F0A287019B1B88002BC4
:1037000000F0F082964B1B78002B40F0E682954B40
:10371000954A198834680020012310602B6026E543
:103720000130C0B2022886BF002111701070194606
:10373000FFF7EEBB0398002101708C49097800293E
:103740003FF41CA8844902910978002900F0AE8753
:10375000029800210170FFF711B8039B1B78002B22
:103760007FF487AB029B1B78002B7FF482AB019B1D
:103770001988FFF784BB7E4A1278002A3FF4F4AE22
:103780007C4F387802F066FF7B4B1B78002B00F0F3
:10379000B78439887E2900F2B384784CDFF80C9224
:1037A0002368D9F800209B1A0F2B40F29680744BA7
:1037B00001311B8889B239802BB1052B03D0C9B2E6
:1037C000052005F005FD6F4F226898F80030C9F814
:1037D00000203B70FEF75BBE243B002BB8F80000D6
:1037E00040F3748498423EF43EAF9BB26648A8F81A
:1037F000003001230370FEF736BFDFF89081C0B2BE
:1038000098F8001005F00CFDFFF74DBB5F4B3878C2
:10381000197805F005FD85E47F21402005F0D8FCEE
:103820005B495C4A3B680B6000211170FFE4C0B249
:1038300098F8001005F0F4FCFFF723B9D8B298F817
:10384000001005F0EDFC3B6863E5534BDFF860E1E9
:103850001978FEF708BF4B2C40F34C821834802CAB
:10386000B8F800304D4AA8BF8024A3427FF4D5ADFC
:10387000FEF721BF99F8000005F0FAFC2188FFF758
:10388000FEBA029B1B78002B7FF4CEAA039B1B7809
:10389000002B7FF4EEAA6AE7FCF7DEFE1FE6FCF7DA
:1038A000DBFE87E43E4B01931B88002B7FF4F6ADD3
:1038B000294B0293FFE5FCF7CFFECEE4FCF7CCFEEC
:1038C000FFF7CBB90132D2B2022A40F25A8200226B
:1038D00002701946FFF71CBB284C2A4F98F800309D
:1038E0003B70FEF7D4BD7F20FFF76EBA7F20FFF755
:1038F00090B9194F1A4902974FF0000C81F800C097
:10390000009F02994FF0010E87F800E081F800C097
:103910003DE6244F387802F09DFE174B1B78002BB4
:1039200000F0368239887E2900F23282134CDFF8AB
:103930007C902368D9F800209B1A0F2BCDD91A4B05
:103940000131188889B23980002800F03D82C9B25F
:10395000C0B205F03DFC36E7C69CFF1FDE9DFF1F91
:10396000209EFF1FC49CFF1F009CFF1F109EFF1F77
:10397000649EFF1F629EFF1FB69EFF1FEC9DFF1FF0
:10398000CA9CFF1F189CFF1F1C9CFF1FA09CFF1FB1
:10399000209CFF1F5489FF1F979EFF1F609EFF1FE3
:1039A0005C9CFF1F4C9CFF1F9C9CFF1FA49EFF1F45
:1039B000759CFF1FDFF89CA399F80000BAF800304F
:1039C000DF4AE04CC31A82FB031ED917C1EB6E011C
:1039D00001EB4101A3EB810303EB430354F82330D4
:1039E00018447F2840F3A6847F3882FB0032C31737
:1039F000C3EB620303EB4303A0EB83007330DFF8F8
:103A000058B3C0B205F034FCBBF80030022B7FF68F
:103A10002BAA99F80010BAF80030C94ACB1A82FBD9
:103A2000030ED817C0EB6E0000EB4000A3EB800341
:103A300003EB430304EB8303586808447F2840F3F7
:103A400018877F3882FB0032C317C3EB620202EB98
:103A50004202A0EB82007330C0B205F009FCBBF853
:103A60000030032B7FF600AA99F80010BAF8003056
:103A7000B34ACB1A82FB030ED817C0EB6E0000EBE3
:103A80004000A3EB800303EB430304EB8304A06833
:103A900008447F2840F351817F3882FB0032C317EE
:103AA000C3EB620202EB4202A0EB82007330C0B2B1
:103AB00005F0DEFBFFF7D8B9DFF898A23868BAF84E
:103AC00000309F4A9F4CC31A82FB031ED917C1EBDB
:103AD0006E0101EB4101A3EB810303EB430354F8B7
:103AE000233018447F2840F3A0847F3882FB0032C3
:103AF000C317C3EB620303EB4303A0EB83007330F4
:103B0000DFF85882DFF850B298F80010C0B205F024
:103B100087FBBBF80030022B7FF6FFAA3968BAF8A2
:103B20000030874ACB1A82FB030ED817C0EB6E0019
:103B300000EB4000A3EB800303EB430304EB8303A0
:103B4000586808447F2840F398867F3882FB00320B
:103B5000C317C3EB620202EB4202A0EB8200733098
:103B6000C0B298F8001005F05BFBBBF80030032BE7
:103B70007FF6D3AA3968BAF80030714ACB1A82FBB3
:103B8000030ED817C0EB6E0000EB4000A3EB8003E0
:103B900003EB430304EB8304A06808447F2840F34D
:103BA000F4807F3882FB0032C317C3EB620202EB62
:103BB0004202A0EB8200733098F80010C0B205F00A
:103BC0002FFBFFF7AABA0120FFF7FEB8DFF884A1A8
:103BD0005B49BAF800205B4C9A1A81FB020ED017A1
:103BE000C0EB6E0000EB4000A2EB800202EB420251
:103BF00054F8220018447F2840F31B84A0F17F036F
:103C000081FB0321DA17C2EB610000EB4000A3EB5C
:103C100080007330DFF840B198F80010C0B205F0B2
:103C2000FFFABBF80030022B50D93968BAF80030DF
:103C3000434ACB1A82FB030ED817C0EB6E0000EB91
:103C40004000A3EB800303EB430304EB83035868BA
:103C500008447F2840F3E1867F3882FB0032C31797
:103C6000C3EB620202EB4202A0EB82007330C0B2EF
:103C700098F8001005F0D4FABBF80030032B25D9D2
:103C80003868BAF800302E4AC31A82FB031ED917CF
:103C9000C1EB6E0101EB4101A3EB810303EB430395
:103CA00004EB8304A36818447F2867DD7F3882FB18
:103CB0000032C317C3EB620202EB4202A0EB8200A8
:103CC0007330C0B298F8001005F0AAFA3B68FFF70D
:103CD0001BBB05F0CDFAFEF7C9BF0021402005F05F
:103CE00077FA14E599F8000005F0C2FA0AE5012018
:103CF000FEF78FBF243C002CB8F8003040F3248638
:103D0000A3423EF4D8ACA4B20F4BA8F80040012265
:103D10001A70FEF7D0BC0D4B01931B88002B7FF46B
:103D2000BFABFFF77EB80A498342A8BF03460B60CA
:103D3000FEF789BE1446FFF765BBFCF78DFCB6E6BF
:103D4000ABAAAA2A642001001C9CFF1F5C9CFF1FD9
:103D5000009CFF1F1C9EFF1F309CFF1FA09CFF1F8D
:103D6000DD4BDE4C19886A2005F0B6FB98F8003070
:103D70003B70FEF78CBBFCF76FFC41E4FCF76CFC7E
:103D80009FE702701946FFF7C3B8FCF765FC13E71D
:103D9000D34B1B78002B3FF49FAD3B88CE4F002BBD
:103DA0003FF49AADCD4CDFF848932268D9F8001063
:103DB000521A0F2A7FF691ADCA4A013B108899B278
:103DC000398000287FF4C3ADC8B205F075FAFAE473
:103DD000DFF820A33868BAF80030C34AC34CC31ACE
:103DE00082FB031ED917C1EB6E0101EB4101A3EB6E
:103DF000810303EB430354F8233018447F2840F336
:103E000028847F3882FB0032C317C3EB620303EBC5
:103E10004303A0EB83007330DFF8DC82DFF8DCB211
:103E200098F80010C0B205F0FBF9BBF80030022B87
:103E30007FF673A93968BAF80030AB4ACB1A82FB17
:103E4000030ED817C0EB6E0000EB4000A3EB80031D
:103E500003EB430304EB8303586808447F2840F3D3
:103E600026867F3882FB0032C317C3EB620303EB65
:103E70004303A0EB83007330C0B298F8001005F044
:103E8000CFF9BBF80030032B7FF647A93868BAF8A2
:103E90000030954AC31A82FB031ED917C1EB6E018D
:103EA00001EB4101A3EB810303EB430304EB830428
:103EB000A36818447F287FF768AF7F3882FB003201
:103EC000C317C3EB620303EB4303A0EB8300733020
:103ED00072E6DFF820A299F80000BAF80030824AB2
:103EE000824CC31A82FB031ED917C1EB6E0101EB92
:103EF0004101A3EB810303EB430354F8233018443F
:103F00007F2840F37F837F3882FB0032C317C3EBE7
:103F1000620303EB4303A0EB83007330DFF8DCB1F3
:103F2000C0B205F0A5F9BBF80030022B7EF69CAFBD
:103F300099F80010BAF800306B4ACB1A82FB030ED6
:103F4000D817C0EB6E0000EB4000A3EB800303EB3F
:103F5000430304EB8303586808447F2840F39F859C
:103F60007F3882FB0032C317C3EB620303EB4303CA
:103F7000A0EB83007330C0B205F07AF9BBF80030D3
:103F8000032B7EF671AF99F80010BAF80030564A4C
:103F9000CB1A82FB030ED817C0EB6E0000EB40007B
:103FA000A3EB800303EB430304EB8304A068084402
:103FB0007F287FF7C2AE7F3882FB0032C317C3EB86
:103FC000620303EB4303A0EB830073306FE5DFF87C
:103FD00024A14549BAF80020444C9A1A81FB020EEC
:103FE000D017C0EB6E0000EB4000A2EB800202EBAA
:103FF000420254F8220018447F2840F32E83A0F197
:104000007F0381FB0321DA17C2EB610000EB400064
:10401000A3EB80007330DFF8E4B098F80010C0B272
:1040200005F0FEF8BBF80030022B7FF64FAE396882
:10403000BAF800302C4ACB1A82FB030ED817C0EB1B
:104040006E0000EB4000A3EB800303EB430304EBA3
:104050008303586808447F2840F325857F3882FB16
:104060000032C317C3EB620303EB4303A0EB8300EF
:104070007330C0B298F8001005F0D2F8BBF80030E9
:10408000032B7FF623AE3868BAF80030164AC31AFD
:1040900082FB031ED917C1EB6E0101EB4101A3EBBB
:1040A000810303EB430304EB8304A36818447F28D4
:1040B0007FF764AE7F3882FB0032C317C3EB620325
:1040C00003EB4303A0EB83007330FAE501283EF4D1
:1040D000CAAA0123FFF78ABB4C9CFF1FEC9DFF1F60
:1040E000B59EFF1F9C9CFF1FABAAAA2A2C22010091
:1040F000A49EFF1F1C9EFF1FA09CFF1F309CFF1F44
:10410000CE4B1B78002B3FF4E7AB3B88CC48012B10
:104110007FF6E2ABCB4CDFF83C932268D9F8001075
:10412000521A0F2A7FF6D9ABC74A013B128899B2BF
:104130000180002A3FF447AB052A7FF440ABFFF72C
:1041400042BB4FF47A43013BFDD199F8000005F0E2
:104150008FF8FEF7F2BFDFF800A399F80000BAF875
:104160000030BA4ABA4CC31A82FB031ED917C1EBFE
:104170006E0101EB4101A3EB810303EB430354F810
:10418000233018447F2840F3E8817F3882FB0032D7
:10419000C317C3EB620202EB4202A0EB8200733052
:1041A000DFF8B8B2C0B205F063F8BBF80030022BFC
:1041B0007EF65AAE99F80000BAF80030A34AC31A46
:1041C00082FB0321DA17C2EB610202EB4202A3EB8E
:1041D000820303EB430304EB83035B6818447F28EB
:1041E00040F325847F380C2290FBF2F302FB13008E
:1041F0007330C0B205F03CF8BBF80030032B7EF6FC
:1042000033AE99F80000BAF80030904AC31A82FB26
:104210000321DA17C2EB610202EB4202A3EB820335
:1042200003EB430304EB8304A36818447F287FF760
:1042300084AD7F380C2290FBF2F302FB1300733045
:1042400035E4DFF814A23868BAF800307F4A804CB1
:10425000C31A82FB031ED917C1EB6E0101EB4101AA
:10426000A3EB810303EB430354F8233018447F2866
:1042700040F370817F3882FB0032C317C3EB6202C8
:1042800002EB4202A0EB82007330DFF8D481DFF84A
:10429000CCB198F80010C0B204F0C2FFBBF80030F7
:1042A000022B7EF63AAF3868BAF80030674AC31A74
:1042B00082FB0321DA17C2EB610202EB4202A3EB9D
:1042C000820303EB430304EB83035B6818447F28FA
:1042D00040F3B4837F380C2290FBF2F302FB13000F
:1042E0007330C0B298F8001004F09AFFBBF80030A9
:1042F000032B7EF612AF3868BAF80030534AC31A5F
:1043000082FB0321DA17C2EB610202EB4202A3EB4C
:10431000820303EB430304EB8304A36818447F2860
:104320007FF733AD7F380C2290FBF2F302FB1300D2
:10433000733041E4FCF790F9FFF761BBDFF818A197
:104340004249BAF80020424C9A1A81FB020ED0175B
:10435000C0EB6E0000EB4000A2EB800202EB4202D9
:1043600054F8220018447F2840F3FA80A0F17F031C
:1043700081FB0321DA17C2EB610101EB4101A3EBE1
:1043800081007330DFF8D4B098F80010C0B204F0A8
:1043900047FFBBF80030022B7FF698AC3868BAF8BC
:1043A00000302A4AC31A82FB0321DA17C2EB6102EA
:1043B00002EB4202A3EB820303EB430304EB830310
:1043C0005B6818447F2840F33C837F380C2290FBC5
:1043D000F2F302FB13007330C0B298F8001004F03F
:1043E0001FFFBBF80030032B7FF670AC3868BAF8BB
:1043F0000030164AC31A82FB0321DA17C2EB6102AE
:1044000002EB4202A3EB820303EB430304EB8304BE
:10441000A36818447F287FF7B1AC7F380C2290FB4B
:10442000F2F302FB130073304BE4FCF715F9FFF7CE
:1044300067BBFCF711F9FFF7EDBB00BFB59EFF1F8F
:10444000629EFF1FEC9DFF1FCA9CFF1FABAAAA2AFA
:10445000BC220100A49EFF1F1C9EFF1F309CFF1F5B
:10446000A09CFF1FDFF838A399F80000BAF80030CD
:10447000C34AC44CC31A82FB0317D917C1EB6701A7
:1044800001EB4101A3EB810303EB430354F8233019
:1044900018447F286ADD7F3882FB0032C317C3EBE4
:1044A000620202EB4202A0EB82007330DFF8F4B24A
:1044B000C0B204F0DDFEBBF80030022B7FF61DA970
:1044C00099F80000BAF80030AD4AC31A82FB032104
:1044D000DA17C2EB610202EB4202A3EB820303EBA9
:1044E000430304EB83035B6818447F2840F3AC82EA
:1044F0007F380C2290FBF2F302FB13007330C0B242
:1045000004F0B6FEBBF80030032B7FF6F6A899F84E
:104510000000BAF800309A4AC31A82FB0321DA1766
:10452000C2EB610202EB4202A3EB820303EB430303
:1045300004EB8304A36818447F2814DD7F380C2221
:1045400090FBF2F302FB13007330C0B204F090FE54
:10455000FFF7D3B8FCF780F897E6FCF77DF81FE685
:10456000FCF77AF80EE7FCF777F8EEE7FCF774F85B
:104570009CE7DFF82CA299F80000BAF80030804AD6
:10458000814CC31A82FB031ED917C1EB6E0101EBEC
:104590004101A3EB810303EB430354F82330184498
:1045A0007F28DADD7F3882FB0032C317C3EB62035A
:1045B00003EB4303A0EB83007330F1E5DFF8E0A1E8
:1045C0003868BAF800306E4A6F4CC31A82FB031E7B
:1045D000D917C1EB6E0101EB4101A3EB810303EBA2
:1045E000430354F8233018447F28B3DD7F3882FB1F
:1045F0000032C317C3EB620303EB4303A0EB83005A
:10460000733042E6FCF728F888E4DFF894A15C49AF
:10461000BAF800205C4C9A1A81FB020ED017C0EB4E
:104620006E0000EB4000A2EB800202EB420254F865
:10463000220018447F2893DDA0F17F0381FB032132
:10464000DA17C2EB610000EB4000A3EB800073308F
:1046500098E6FCF701F8FFF7DFBBFBF7FDFFDAE4B4
:10466000DFF83CA199F80000BAF80030444A474C02
:10467000C31A82FB0317D917C1EB670101EB410194
:10468000A3EB810303EB430354F8233018447F2842
:104690007FF76CAF7F3882FB0032C317C3EB620336
:1046A00003EB4303A0EB83007330FFE63848009030
:1046B000384839490390FEF755B8DFF8E4A099F877
:1046C0000000BAF800302E4A344CC31A82FB032192
:1046D000DA17C2EB610202EB4202A3EB820303EBA7
:1046E000430354F8233018447F2840F3A4817F38D3
:1046F0000C2290FBF2F302FB13007330DFF8A4B03E
:10470000C0B204F0B5FDBBF80030022B19D999F8FE
:104710000000BAF800300C22C11A91FBF2F302FB40
:10472000131302FB03435B6818447F2840F384841F
:104730007F3890FBF2F302FB13007330C0B204F039
:1047400097FDBBF80030032B7EF68EABBAF8003035
:1047500099F800000C22C11A91FBF2F302FB13132B
:1047600002FB0344A36818447F287FF7E6AA7F383A
:1047700090FBF2F302FB13007330FFF798B900BF10
:10478000ABAAAA2A64200100D01C01002C2201003F
:10479000729EFF1FFD9BFF1F209EFF1F40250100F3
:1047A0001C9EFF1F309CFF1FDFF864A33868BAF817
:1047B0000030CE4ACE4CC31A82FB0321DA17C2EB7B
:1047C000610202EB4202A3EB820303EB430354F8C2
:1047D000233018447F2840F324817F380C2290FB3B
:1047E000F2F302FB13007330DFF82883DFF828B3FD
:1047F00098F80010C0B204F013FDBBF80030022B93
:104800001AD93868BAF800300C22C11A91FBF2F3B9
:1048100002FB131302FB03435B6818447F2840F339
:10482000D4837F3890FBF2F302FB13007330C0B2E5
:1048300098F8001004F0F4FCBBF80030032B7EF66F
:104840006CACBAF8003038680C22C11A91FBF2F354
:1048500002FB131302FB0344A36818447F287FF76D
:1048600094AA7F3890FBF2F302FB13007330FFF73A
:10487000A3B9FBF7F1FEFFF7EFB8FBF7EDFEFFF78B
:104880006FB9DFF88CA29949BAF80020984C9A1AAF
:1048900081FB0210D117C1EB600101EB4101A2EBDA
:1048A000810202EB420254F8220018447F2840F3B0
:1048B000BB80A0F17F030C2093FBF0F200FB1230D1
:1048C0007330DFF854B298F80010C0B204F0A8FCBE
:1048D000BBF80030022B1AD93868BAF800300C2225
:1048E000C11A91FBF2F302FB131302FB03435B6853
:1048F00018447F2840F39D837F3890FBF2F302FB3E
:1049000013007330C0B298F8001004F089FCBBF8B3
:104910000030032B7FF6DAA9BAF8003038680C2291
:10492000C11A91FBF2F302FB131302FB0344A368C9
:1049300018447F287FF722AA7F3890FBF2F302FB0E
:1049400013007330FFF7BDB9012B3DF4B4AE012461
:10495000FFF7DAB9DFF8B8A199F80000BAF800302B
:10496000624A644CC31A82FB0321DA17C2EB61026C
:1049700002EB4202A3EB820303EB430354F8233020
:1049800018447F2846DD7F380C2290FBF2F302FBAF
:1049900013007330DFF880B1C0B204F069FCBBF8DB
:1049A0000030022B19D999F80000BAF800300C2217
:1049B000C11A91FBF2F302FB131302FB03435B6882
:1049C00018447F2840F38F807F3890FBF2F302FB7E
:1049D00013007330C0B204F04BFCBBF80030032B63
:1049E0007EF68BAEBAF8003099F800000C22C11A9E
:1049F00091FBF2F302FB131302FB0344A368184478
:104A00007F287FF7B0AD7F3890FBF2F302FB1300F5
:104A100073309AE5FBF720FEBCE7FBF71DFEFFF7BE
:104A200026B9FBF719FEDFE6FBF716FE49E7FBF7B1
:104A300013FEFFF7DEBBFBF70FFE5FE6FBF70CFE96
:104A40004FE4FBF709FEC7E4FBF706FE57E5DFF886
:104A5000C0A099F80000BAF80030244A264C34E689
:104A6000DFF8ACA03868BAF80030204A224CA2E641
:104A7000DFF89CA099F80000BAF800301B4A1F4CE0
:104A800070E7029B1B78002B7EF4CEA9FEF7F1B9EC
:104A9000DFF87CA01549BAF80020174CF7E6FBF7C1
:104AA000DBFDFFF768BAFBF7D7FDFFF7E2BAFBF7CC
:104AB000D3FDFFF7E1B9124B1B78002B00F0D68233
:104AC000104B1B78002B7DF4F6AD0F4B1B78002BA1
:104AD0003DF4F1ADB8F800300C490A33A8F80030C5
:104AE0000A70FDF7E8BDFBF7B7FD73E7ABAAAA2A8A
:104AF00040250100BC220100E8230100D01C010078
:104B0000B29EFF1FB39EFF1FB49EFF1F1C9CFF1F82
:104B10001C9EFF1FA09CFF1F309CFF1FA44C2288DF
:104B2000002A00F02383A349DFF89CB20988BBF870
:104B300000000331884227DD9F48A0490088B1F872
:104B400000E0DFF87CC2181A0C2190FBF1F901FBA0
:104B500019004FF0900909FB0EFE01FB00E06FF019
:104B60000B0E5CF8000003440EFB02307F2840F37C
:104B7000CE847F3890FBF1F301FB13007330C0B299
:104B800098F8001004F04CFBBBF800202388134475
:104B9000022B23DD884B894A38681B88B2F800C095
:104BA000DFF81CE2C31A0C2193FBF1F201FB123275
:104BB000902303FB0CF301FB023373445B6818443E
:104BC0007F2840F3A7857F3890FBF1F301FB1300AA
:104BD0007330C0B298F8001004F022FBBBF800203C
:104BE00023881344032B23DD734B744A38681B88D6
:104BF000B2F800C0DFF8C8E1C31A0C2193FBF1F250
:104C000001FB1232902303FB0CF301FB02337344CC
:104C10009B6818447F2840F30B857F3890FBF1F3A5
:104C200001FB13007330C0B298F8001004F0F8FADA
:104C3000BBF8002023881344042B7FF747A85D4B63
:104C40001B88012B7FF442A83A68A2F10C007F2850
:104C50007FF794A88B3A0C2092FBF0F300FB132013
:104C60007330FFF72EB8524C2388002B40F00D8391
:104C7000DFF854B15049514A0988D7F80080B2F89A
:104C800000E04F48C1EB080C0C229CFBF2F102FB48
:104C900011C14FF0900C0CFB0EFE02FB01E16FF016
:104CA0000B0E405880440EFB03807F2840F36A843B
:104CB000A0F17F0393FBF2F002FB10307330414B05
:104CC000C0B2197804F0ACFABBF800202388134472
:104CD000022B23DD384A394B11883868B3F800C0FD
:104CE000DFF8DCE0411A0C2291FBF2F302FB131116
:104CF000902303FB0CF302FB013373445B681844FD
:104D00007F2840F3F1847F3890FBF2F302FB13001D
:104D100073302C4BC0B2197804F082FABBF8002033
:104D200023881344032B23DD234A244B118838683E
:104D3000B3F800C0DFF888E0411A0C2291FBF2F3CF
:104D400002FB1311902303FB0CF302FB01337344AA
:104D50009B6818447F2840F3CF847F3890FBF2F3A0
:104D600002FB13007330174BC0B2197804F058FAE5
:104D7000BBF8002023881344042B7EF7CEA90D4BEB
:104D80001B88012B7EF4C9A93A68A2F10C007F2888
:104D900040F356818B3A0C2092FBF0F300FB13207A
:104DA0007330084BC0B2197804F03AFAFEF7B5B97F
:104DB000A89CFF1F4A9CFF1F1C9EFF1FCC9DFF1F2E
:104DC000601D0100A09CFF1F309CFF1FCF4C23885B
:104DD000002B40F06582DFF868B3CD49CD4A0988E1
:104DE00099F80000B2F800E0DFF85883C1EB000C3E
:104DF0000C229CFBF2F102FB11C14FF0900C0CFB5A
:104E00000EFE02FB01E16FF00B0E58F80110084492
:104E10000EFB03007F2840F37E83A0F17F0393FB0A
:104E2000F2F002FB10307330C0B204F021FABBF88C
:104E3000002023881344022B22DDB54AB54B11888C
:104E400099F80000B3F800C0DFF8F8E2411A0C222C
:104E500091FBF2F302FB1311902303FB0CF302FB13
:104E6000013373445B6818447F2840F341847F38E2
:104E700090FBF2F302FB13007330C0B204F0F8F9B8
:104E8000BBF8002023881344032B22DDA04AA14B4A
:104E9000118899F80000B3F800C0DFF8A8E2411AC1
:104EA0000C2291FBF2F302FB1311902303FB0CF392
:104EB00002FB013373449B6818447F2840F320842D
:104EC0007F3890FBF2F302FB13007330C0B204F0A2
:104ED000CFF9BBF8002023881344042B7DF7C4AF1F
:104EE0008D4B1B88012B7DF4BFAF99F80020A2F1F8
:104EF0000C007F287EF721AF8B3A0C2092FBF0F359
:104F000000FB13207330FEF7D2BDDFF804A299F83E
:104F10000000BAF80030814CC11A0C2291FBF2F368
:104F200002FB131302FB03F3E35818447F287FF7B7
:104F300071AD7F3890FBF2F302FB1300733029E56B
:104F4000774B1A88182A13D03B681344A3F1180032
:104F50007F2840F3C6830C20973B93FBF0F200FBC5
:104F6000123303F173006F4BC0B2197804F058F993
:104F70006D4B6E491A78022A94BF013200221A70D2
:104F80001A7831F81200182810D10424022A02F1EC
:104F90000100C2B288BF002231F81200182804D1E3
:104FA000013CF3D11A70FEF7B8B81A703B6803449D
:104FB000A3F118007F2843DD0C20973B93FBF0F210
:104FC00000FB123303F17300EBE6FBF745FB2EE425
:104FD000534B1B88182B12D099F800201344A3F1CF
:104FE00018007F2840F393830C20973B93FBF0F24B
:104FF00000FB123303F17300C0B204F039F94A4ADE
:105000004A4B127833F81230182B3DF42DAF99F833
:1050100000201344A3F118007F287EF78EAE0C20E9
:10502000973B93FBF0F200FB123303F17300FEF7A2
:105030003EBDFBF711FB65E4FBF70EFBFFF77EBB04
:10504000FBF70AFBADE63A4B1B78002B7DF433AB44
:10505000384B1B78002B3DF42EABB8F800303649A6
:10506000013BA8F800300A70FDF725BB304B1B78D8
:10507000002B7DF477AF2F4B1B78002B3DF41BAB3F
:10508000B8F800302C490133A8F800300A70FDF759
:1050900012BBDFF87CA099F80000BAF80030274C6A
:1050A0003AE71F4A1288182A12D01344A3F11800B5
:1050B0007F2840F3C1820C20973B93FBF0F200FB6A
:1050C000123303F17300C0B298F8001004F0A8F88E
:1050D000154B16491A78022A94BF013200221A7021
:1050E0001A7831F8120018282FD10424022A02F16C
:1050F0000100C2B288BF002231F81200182823D163
:10510000013CF3D11A703B68FEF7FEB8A89CFF1F64
:105110001C9EFF1FCC9DFF1F4A9CFF1F40250100C6
:10512000389CFF1FA09CFF1F8C89FF1F389EFF1F0C
:10513000B39EFF1FB49EFF1F1C9CFF1FE8230100AE
:10514000309CFF1F601D01001A703B680344A3F1EF
:1051500018007F287EF712AE0C20973B93FBF0F2ED
:1051600000FB123303F17300FEF7ABBDDFF82CB385
:10517000E2E4BE4B1A88182A13D03B681344A3F10B
:1051800018007F2840F37A820C20973B93FBF0F2C3
:1051900000FB123303F17300B54BC0B2197804F071
:1051A0003FF8B44BB4491A78022A94BF0132002266
:1051B0001A701A7831F8120018287FF4F7AE042418
:1051C000022A02F1010294BFD2B2002231F8120089
:1051D00018287FF4EAAE013CF2D11A70FDF79DBFAA
:1051E000A24B1B88182B12D099F800201344A3F16E
:1051F00018007F2840F372820C20973B93FBF0F25B
:1052000000FB123303F17300C0B204F031F8994A85
:10521000994B127833F81230182B7FF4F8AEFDF763
:1052200023BE924A1288182A12D01344A3F1180000
:105230007F2840F369820C20973B93FBF0F200FB40
:10524000123303F17300C0B298F8001003F0E8FFC6
:10525000884B89491A78022A94BF013200221A70B9
:105260001A7831F8120018287FF46FAF0424022A4C
:1052700002F1010294BFD2B2002231F812001828C4
:105280007FF462AF013CF2D13CE77C4ADFF80CB21C
:105290001288BBF80010033291427FF715ADE9E4A4
:1052A000764ADFF8F8B11288BBF800100332914259
:1052B0007FF7BDAD91E5724C2388002B40F0E4816F
:1052C000DFF8D8B16F4999F800006F4A098817884C
:1052D000DFF8B8E1411A0C2291FBF2FC02FB1C1131
:1052E0004FF0900C0CFB07F702FB01716FF00B07FE
:1052F0005EF80110014407FB03107F2840F3C181D1
:105300007F3890FBF2F302FB13007330C0B203F05E
:10531000AFFFBBF8002023881344022B21DD594B3B
:10532000594A99F800001B88B2F800E0574FC31A99
:105330000C2193FBF1F201FB1232902303FB0EF3DD
:1053400001FB02333B445B6818447F2840F3F8813B
:105350007F3890FBF1F301FB13007330C0B203F010
:1053600087FFBBF8002023881344032B21DD454B26
:10537000454A99F800001B88B2F800E0434FC31A71
:105380000C2193FBF1F201FB1232902303FB0EF38D
:1053900001FB02333B449B6818447F2840F3C181E2
:1053A0007F3890FBF1F301FB13007330C0B203F0C0
:1053B0005FFFBBF8002023881344042B7EF79DA9D0
:1053C0002E4B1B88012B7EF498A999F80020A2F19E
:1053D0000C007F287FF7C7A88B3A0C2092FBF0F3D4
:1053E00000FB13207330FFF7B0B8294B00227F2158
:1053F00007201A8003F0ECFE7F210B2003F0E8FE6B
:10540000FDF7E3BD234B01227F2107201A8003F023
:10541000DFFE7F210B2003F0DBFEFDF7CEBD1E4B30
:1054200004227F2107201A8003F0D2FE00210B20E6
:1054300003F0CEFEFDF7BABD174B02227F210720F5
:105440001A8003F0C5FE7F210B2003F0C1FEFDF79B
:10545000A8BD114B002107201C8003F0B9FE7F215D
:105460000B2003F0B5FEFDF797BD00BF429CFF1F68
:10547000A09CFF1F8C89FF1FAC9DFF1F4A9CFF1F34
:10548000A89CFF1F1C9EFF1FCC9DFF1F601D0100DD
:105490001A9CFF1FBA9CFF1F129EFF1F309CFF1F0C
:1054A000AF4B1A88182A13D03B681344A3F1180095
:1054B0007F2840F33F810C20973B93FBF0F200FBE9
:1054C000123303F17300A74BC0B2197803F0A8FEA2
:1054D000A54BA6491A78022A94BF013200221A70FD
:1054E0001A7831F8120018287FF460AD0424022ADB
:1054F00002F1010294BFD2B2002231F81200182842
:105500007FF453AD013CF2D11A70FDF706BEFBF7F4
:10551000A3F8FFF734BBFBF79FF885E4904A1288A5
:10552000182A12D01344A3F118007F2840F3F68004
:105530000C20973B93FBF0F200FB123303F1730056
:10554000C0B298F8001003F06BFE874B87491A78B9
:10555000022A94BF013200221A701A7831F8120020
:1055600018287FF4F2AD0424022A02F1010294BF4C
:10557000D2B2002231F8120018287FF4E5AD013CC8
:10558000F2D1BFE5FBF768F8FFF799BB744B1B88B6
:10559000182B12D099F800201344A3F118007F288B
:1055A00040F3C5800C20973B93FBF0F200FB1233D5
:1055B00003F17300C0B203F05BFE6B4A6B4B1278D1
:1055C00033F81230182B7FF422ADFDF74DBC684B39
:1055D0001B88182B12D099F800201344A3F118004F
:1055E0007F2840F3B0800C20973B93FBF0F200FB48
:1055F000123303F17300C0B203F03AFE5A4A5D4B16
:10560000127833F81230182B3EF477A899F800205E
:105610001344A3F118007F287EF7A5AF0C20973B19
:1056200093FBF0F200FB123303F17300FEF78DBF22
:10563000FBF712F8FFF7F7BAFBF70EF843E5484B14
:105640001B88182B11D099F800201344A3F11800DF
:105650007F2872DD0C20973B93FBF0F200FB1233A6
:1056600003F17300C0B203F003FE3F4A3F4B1278D0
:1056700033F81230182BC9D1FEF73FB8FAF7ECFF18
:105680008AE5FAF7E9FF41E63B4ADFF800B1128804
:10569000BBF80010033291427FF73BAE12E6374B66
:1056A0001B88182B11D099F800201344A3F118007F
:1056B0007F2839DD0C20973B93FBF0F200FB12337F
:1056C00003F17300C0B203F0D3FD274A2C4B1278CC
:1056D00033F81230182B99D1FEF70FB8FAF7BCFF48
:1056E00092E5FAF7B9FF3EE4FAF7B6FFFFF711BB10
:1056F000FAF7B2FFFFF7C1BBFAF7AEFFFFF733BB14
:10570000FAF7AAFFFFF7E2BBFAF7A6FF9BE5FAF765
:10571000A3FF71E4FAF7A0FFFFF75BBAFAF79CFF6B
:105720000EE7FAF799FF41E6FAF796FFCAE7FAF7AC
:1057300093FF3FE7FAF790FFC5E6FAF78DFF91E791
:10574000FAF78AFF0AE6FAF787FF54E70D4B03934F
:105750000D4B0293FDF7A4BE23601946FDF7D8BB9D
:10576000449CFF1FA09CFF1F8C89FF1FB49DFF1F3F
:10577000389CFF1F389EFF1F4A9CFF1F429CFF1F43
:10578000AC9DFF1FFD9BFF1FC69CFF1F309CFF1F92
:1057900038B507F01DFD0B4805F054FC00234FF011
:1057A0007E5201210848FAF761FE084B084A094970
:1057B000802400251C7118461D60BDE838400BF0A0
:1057C000C9B900BFB89CFF1FF09DFF1F7C9EFF1F43
:1057D0001C89FF1FFD05000010B50446A420636866
:1057E000198803F079FEE368A6201988BDE8104007
:1057F00003F072BE43682A20198803F06DBE00BF13
:1058000010B5044622206368198803F065FEE3683A
:1058100024201988BDE8104003F05EBE10B5044690
:105820000A206368198803F057FEE3680C20198882
:10583000BDE8104003F050BE10B504460620636872
:10584000198803F049FEE36808201988BDE8104074
:1058500003F042BE10B5044602206368198803F0C5
:105860003BFEE36804201988BDE8104003F034BE15
:1058700070B50E4C84B01225042201230646039015
:10588000029320468DE824001423102106F0DEFD4B
:1058900006220923029303960195204600921423C1
:1058A000102106F0D3FD04B070BD00BFE49EFF1FC1
:1058B00070B5AE4CB4F90030032B00F0E880002B3B
:1058C0004DD0022B6CD0052B00F09880012B00F0FE
:1058D000C080042B00D070BD00244FF4AF75E1B23E
:1058E000A34805F017FC01348542A8BF05460C2CDF
:1058F000F5D1012008F014FB0446002008F010FB4D
:10590000323CA0F132039B496FF4957000FB03F326
:1059100000FB04F081FB034281FB0041DB17C01751
:10592000C3EB6223C0EB612003F5AF7200F5AF73E8
:105930009342A8BF13469D42A8BF1D46A5F114017E
:10594000312900F3E28040F26C7332218A488B4A9D
:105950000180BDE870402A20136003F0BDBD0E2019
:1059600007F09AFB40F6FF71C8308842A8BF08468E
:1059700020EAE07000F5FA6283B28A42804D814EDF
:10598000A8BF0A460220194633802A8003F0A4FDEE
:105990002988042003F0A0FDB4F90030022B92D135
:1059A000172008F0BDFA0546162008F0B9FAA842FB
:1059B000B8BF284600F1C801B1F5FA7FC0F2BF8038
:1059C000B1F57A6FA8BF4FF47A6101F54873B3F56A
:1059D0007A6FA8BF4FF47A639BB289B26A4A6B4D63
:1059E00011800A202B8003F077FD29880C2003F01A
:1059F00073FDB4F90030052B7FF468AF0F2008F079
:105A00008FFAC0F53F630433B3F5AF6FC0F28F80F8
:105A1000B3F5FA6FA8BF4FF4FA6399B25C4BC0F5C7
:105A20004360B0F5AF6F19807EDBB0F5FA6FA8BFA9
:105A30004FF4FA6083B2574DA4202B8003F04CFD45
:105A40002988A62003F048FDB4F90030012B7FF42B
:105A500040AF0B2008F03CF800283CD0112008F0A3
:105A60005FFA00F1C801B1F52F7F3CDB41F25C2306
:105A7000994278DC484A00F5487089B2B0F52F7F2A
:105A800011806DDB8342A8BF03469BB231E010203A
:105A900008F046FAC830B0F5FA7F4BDBB0F57A6F04
:105AA0000146A8BF4FF47A6101F51673B3F57A6F1A
:105AB000A8BF4FF47A639BB289B2384A384D11803F
:105AC00022202B8003F008FD2988242003F004FD08
:105AD000B4F90030F3E6152007F0DEFA00F5967110
