:1000000000800020BD010000B5E100006DE10000AE
:100010006DE100006DE100006DE100006DE10000A8
:100020006DE100006DE100006DE10000B5E1000050
:10003000B5E100006DE10000AD0B0100B10B010066
:10004000B5E10000B5E10000B5E10000B5E1000058
:10005000B5E10000B5E10000B5E10000B5E1000048
:10006000B5E10000B5E10000B5E10000B5E1000038
:10007000B5E10000B5E10000B5E10000B5E1000028
:10008000B5E10000B5E10000B5E10000B5E1000018
:10009000B5E10000B5E10000B5E10000B5E1000008
:1000A00045B8000051B80000B5E10000B5E100001E
:1000B000B5E10000B5E10000B5E10000B5E10000E8
:1000C000B5E10000B5E10000B5E10000B5E10000D8
:1000D000B5E10000B5E10000B5E10000B5E10000C8
:1000E000B5E10000B5E10000B5E10000B5E10000B8
:1000F000B5E10000B5E10000B5E10000FDEF000052
:10010000B5E1000081F50000B5E10000B5E10000B7
:10011000B5E10000B5E10000B5E10000B5E1000087
:10012000B5E10000B5E10000B5E10000B5E1000077
:10013000B5E10000B5E10000B5E10000B5E1000067
:10014000B5E10000B5E10000B5E10000B5E1000057
:100150005D0F0100710F0100850F0100990F010073
:10016000B5E100009DF80000B5E10000B5E1000038
:10017000B5E10000B5E10000B5E10000B5E1000027
:10018000B5E10000B5E10000B5E10000B5E1000017
:10019000B5E10000B5E10000B5E10000B5E1000007
:1001A000B5E10000B5E10000B5E10000B5E10000F7
:1001B000B5E10000B5E10000B5E10000564B4CF29E
:1001C000205210B51A804DF628121A8000BF00BFC9
:1001D0000DF0F4FF514B4FF010621A60504A9A60D4
:1001E000504ADA60504A136813F4807304D14F49BF
:1001F0000B604FF4A85313604D4B1A78110703D5C9
:100200001A7842F008021A704A4B4B492A221A7097
:100210004A4A4B4B8B4204D252F8040F43F8040B6A
:10022000F8E7484B484900228B4202D243F8042B9E
:10023000FAE74649464A002352F8230041F82300D2
:1002400001336F2BF8D1434B434A802103F8011B44
:100250009342FBD1414B3D4A1A60414B8A221A70AE
:10026000A3F5805324225A70A0221A709A7992071B
:10027000FCD59A79D406FCD43A4A937903F00C035E
:10028000082B384BF9D103221A7140225A719A79FE
:100290009006FCD5334A9179324B4906FBD5324A58
:1002A000324911600221516020221A709A7902F0BD
:1002B0000C020C2AFAD12E4B2E4A1A602E4B2F4AD2
:1002C0001A6000225A60072243F8042C2C4AC3F813
:1002D0000C2D62B60EF0FCFA144B1B68DA0705D53C
:1002E00028480EF0C9F8284B284A1A60284B1B787A
:1002F0005B0609D5244C254B22689A4204D121483B
:100300000EF0BAF80023236012F0B6F90DF05CFF8E
:1003100010F0BAFEFEE700BF0E200540308004401A
:10032000823F04000100002B10D0034014D0034092
:1003300002D0074000E00740949CFF1F7C6401004E
:100340004088FF1F949CFF1F44A4FF1F0082FF1FD3
:100350000000000000E400E05FE400E008ED00E0E1
:100360000050064000400640448004400000030165
:1003700004800440C010050014E000E0FF76010096
:1003800000002020DE217E631CE00340A5C3945AB8
:1003900000F00740FFFFFFFFFFFFFFFFFFFFFFFF32
:1003A000FFFFFFFFFFFFFFFFFFFFFFFFFFFFFFFF5D
:1003B000FFFFFFFFFFFFFFFFFFFFFFFFFFFFFFFF4D
:1003C000FFFFFFFFFFFFFFFFFFFFFFFFFFFFFFFF3D
:1003D000FFFFFFFFFFFFFFFFFFFFFFFFFFFFFFFF2D
:1003E000FFFFFFFFFFFFFFFFFFFFFFFFFFFFFFFF1D
:1003F000FFFFFFFFFFFFFFFFFFFFFFFFFFFFFFFF0D
:10040000FFFFFFFFFFFFFFFFFFFFFFFFDEF9FFFF23
:1004100010B5054C237833B9044B13B10448AFF33E
:1004200000800123237010BD949CFF1F000000007A
:1004300078640100084B10B51BB108490848AFF3B8
:1004400000800848036803B910BD074B002BFBD0A0
:10045000BDE81040184700BF00000000989CFF1F37
:1004600078640100949CFF1F0000000038B504462A
:10047000104621700A491D4611F0E6FE01464FF074
:100480007E5011F095FF074911F0DEFEE5606060D7
:10049000256165610EF0ACF9E061204638BD00BF12
:1004A000DB0FC9400024744938B50446104621705A
:1004B00009491D4611F0C8FE01464FF07E5011F06B
:1004C00077FF064911F0C0FEE56060602561656157
:1004D0000EF08EF9E06138BDDB0FC940002474498D
:1004E00038B503780446032B20D8DFE803F01A1848
:1004F0001002C168406911F09DFD0D490546606814
:1005000011F056FF0146284611F052FF38BD084948
:10051000406811F04DFFE16811F096FE38BDC068EB
:1005200038BDC168406911F085FD38BD002038BD77
:100530000024744970B504460E460EF059F905467C
:10054000E069281A11F02CFEE3682361E561666119
:10055000A0610146606811F02BFF0146A0601048C1
:1005600011F026FF11F0FCF910F096FE11F00EFDCF
:10057000054601464FF07E5011F05CFD616911F0B7
:1005800063FE21690646284611F05EFE01463046AC
:1005900011F052FDE0602046BDE87040FFF7A0BFBB
:1005A000000080BF08B50E200DF0BAFC114B1B886F
:1005B000012B19D0104B1B88984213DB40F6FF71BA
:1005C0008842D4BFC3EB0001C3EB0101C1EB013191
:1005D000C3F57F630F33282091FBF3F1BDE808409A
:1005E0000DF05CBF0021F3E70146BDE80840142090
:1005F0000DF054BFF89EFF1F8C9DFF1F10B50446E1
:1006000010F08AFC204610BD70B44C88A04220D95E
:1006100001230133DBB21CB2660031F8144084427E
:100620001D46F6D3A04211D005F10045013D965B71
:1006300031F8151032F81530401AF21A00FB02F0AA
:10064000641A90FBF4F4E01870BC7047905B70BCC7
:10065000704702260125E5E700280CDA064A4342E6
:1006600082FB0320DA17C2EB600000EB4000A3EB33
:100670008000C0F10C007047ABAAAA2A38B5234B02
:100680001B78002B2CD015200DF04AFC204B186055
:10069000204B1B88984203DA1F4C237863BB38BD7C
:1006A0001E4A1488A042A4EB0302A8BF20467F2A5A
:1006B0001CDDC01AC001541C90FBF4F4002CEBD0DC
:1006C000154B1A780AB901221A70154D2B689C42F5
:1006D00004D0144BE1B2187809F030F92C6038BD21
:1006E00011200EF0B9FF0A4B1860D1E7C01AC0EB19
:1006F000C01090FBF2F4E1E70A4B0021187809F0F2
:100700001DF90023064A2370136038BDAC9EFF1FFD
:10071000C09CFF1F3C9DFF1F849FFF1F249FFF1F46
:100720007C9FFF1F149DFF1F38B50F200EF094FF14
:100730001B4A1C4B12881860C0F53B600830904281
:1007400020DB194B1B889842A3EB0204A8BF184674
:10075000801A7F2CC6BFC0010134C0EBC01090FBD3
:10076000F4F47CB1114B1A780AB901221A70104DB9
:100770002B689C4204D00F4BE1B2187809F0DEF8E8
:100780002C6038BD094C237803B938BD094B0021D2
:10079000187809F0D3F80023054A2370136038BD98
:1007A000909DFF1FD89CFF1F109FFF1F349FFF1FAE
:1007B000489DFF1F329DFF1FF0B40E8886420DD268
:1007C00003F10043013B31F81350854202D9F0BCDC
:1007D000FFF71ABF32F81300F0BC70471088F0BC66
:1007E000704700BF094B1B880C2B09D8084A80B200
:1007F00052F8232028B143F6FE73984203D9108C97
:100800007047108870470349FFF7FEBEEE9CFF1F3C
:10081000A43C0100403E01004B4B4C4A2DE9F047FF
:100820001E8814684A4BB442B3F80080494B33DB4E
:100830004445A8BF4446A6421C60C8BF00202DDD29
:10084000C6EB0807B7F5804F33DB80037B1C90FBBA
:10085000F3F0FFF7C7FF404A404B15881B88C0F3F1
:10086000C61909FB05F57F2D8246A8BF7F252BB34E
:10087000A64253DC4445D4BFC6EB0404C6EB0804CF
:100880009F42CCBF03FB04445C43354BC8BF0137D8
:1008900094FBF7F71F6013E034461E60C6EB0807B1
:1008A000A045D4BFC6EB0800C6EB0400B7F5804FE7
:1008B000CBDAC0EB803090FBF7F0CAE7284A136030
:1008C000284C2368994508D0274B1B88002B34D12E
:1008D000264B1B886BBBC4F80090254C23689A45B7
:1008E00006D0214B1B885A1F032A19D9C4F800A02F
:1008F000204C23689D420FD01F4B188848B11A4BDB
:100900001E4A1B88D35C834203D0C0B2E9B209F00F
:1009100015F82560BDE8F087BDE8F0870024AFE753
:10092000164AD05C2030C0B20AF07F0109F006F808
:10093000DCE7484609F0A2F8CDE7104A4946D05C0A
:1009400008F0FCFFC4E700BF8C9DFF1FF49EFF1F53
:10095000569FFF1FB89CFF1FC89CFF1FCA9CFF1F0C
:100960005C9FFF1F2C9DFF1FDA9EFF1F829DFF1FB4
:10097000E89CFF1F849DFF1FEA9EFF1FB889FF1F91
:100980002DE9F04F17208BB00EF066FEDFF850B364
:10099000CBF8000016200EF05FFEB34BB34A1B8865
:1009A00010600C2B00F00582B14A00211F2B117042
:1009B00037D0B04FB04B3A88B04E53F82250002396
:1009C0003370AF4BAF4A1B88AF491288013B012AF5
:1009D00031F91330059300F00682AC4B0193AC4B18
:1009E0000293DFF80083DFF8009300230093A94B04
:1009F0001B88012B00F04D82DFF8F0A2A64B039379
:100A0000DAF80040A54B04930023A54A1288013A66
:100A1000032A00F28682DFE812F00101DC001100F7
:100A20007101A04B934F1B783988934A934E52F82B
:100A30002150003318BF01233370C2E720460593CD
:100A400011F0AEFB984911F0FFFB059B04461846D8
:100A500011F0A6FB954911F0F7FB0146204611F075
:100A6000EBFA11F0B7FD0446CAF80040D8F80000D0
:100A700011F096FB8C4911F0E7FB8246009811F0CB
:100A80008FFB8A4911F0E0FB0146504611F0D4FA81
:100A900011F0A0FDC8F80000854A864BB2F800E0CE
:100AA0001988854BDBF800201B88DFF844C2CEEBA9
:100AB000040804EB0E0AC1EB000E08440499039CE1
:100AC000C1F800A00199C4F80080C1F800E00299C3
:100AD0009A420860BCF8001080F25281C3EB010C0E
:100AE000624865454FF0000E006880F256816C1C2C
:100AF00083420CF1010C0EFB04FE9EFBFCFE00F396
:100B000092838142A8BF0146C91A04FB01F191FBFF
:100B1000FCF19A4200F317818342C0F21481DFF89E
:100B2000D4A1DAF8000011F03BFB644911F08CFB12
:100B3000634911F081FA11F04DFDA0F5FF531C3B04
:100B4000082B98BF4FF40050D9F80040DFF8A88177
:100B5000044443F6FF77BC42A8BF3C4624EAE47451
:100B60002046CAF8004011F01BFB8146307805FB97
:100B700000F011F015FB4FF07A5111F065FB0146C2
:100B8000484611F057FA11F025FD4E4BB842A8BF68
:100B900038461B7820EAE070C8F80000002B00F00F
:100BA000E380B4F5005F00F0DF8005F06BFE464B9C
:100BB000D8F8000001221A70444C2368834205D003
:100BC00080B208F08BFED8F8003023600BB0BDE88F
:100BD000F08F2046059311F0E3FA3D4911F034FB04
:100BE000059B0446184611F0DBFA3A4911F02CFB3C
:100BF0000146204611F020FA11F0ECFC0446CAF838
:100C00000040D8F8000011F0CBFA314911F01CFB7C
:100C10008246009811F0C4FA2E4933E72046059326
:100C200011F0BEFA2C4911F00FFB059B0446184643
:100C300011F0B6FA294911F007FB0146204611F0E0
:100C4000FBF911F0C7FC0446CAF80040D8F80000D0
:100C500011F0A6FA204911F0F7FA8246009811F037
:100C60009FFA1E490EE700BF269FFF1FE49CFF1F4F
:100C7000BE9CFF1F209DFF1F7489FF1F0A9FFF1F3F
:100C80003689FF1FFA9EFF1FE4400100809FFF1F6F
:100C9000589DFF1F889EFF1F189FFF1F8C9EFF1FE0
:100CA0004889FF1FD89EFF1FCDCC4C3FCDCC4C3E7A
:100CB000C489FF1F4089FF1FF09EFF1F9A99193FAB
:100CC000CDCC4C4542A0FF1F809DFF1F3889FF1FE0
:100CD0006666663FCDCCCC3D3333733FCDCC4C3DC7
:100CE0001C9DFF1FB09CFF1F309FFF1F149FFF1F05
:100CF000009DFF1FAC89FF1F4489FF1F20460593FD
:100D000011F04EFAC54911F09FFA059B04461846AA
:100D100011F046FAC24911F097FA0146204611F047
:100D20008BF911F057FC0446CAF80040D8F80000CF
:100D300011F036FAB94911F087FA8246009811F09D
:100D40002FFAB7499EE63B88002B3FF4E8AEC1EB93
:100D50000E03002BB8BF5B42092B00F3E5804FF474
:100D60000050DFF808A3EFE6AE4C2378002B3FF4E9
:100D700023AF05F083FD0023D8F8000023701BE7A4
:100D8000C3EB010CA8488A42D4BFC3EB020EC3EBED
:100D9000010E65450068FFF6AAAE83420EFB05FE14
:100DA000C8BF00249EFBFCFE40F3348294FBFCF1A0
:100DB000AFE69E4B1B78002B00F0D5809C4F9D4BDF
:100DC00039889D4A53F821009C4E0121002311705F
:100DD000337011F0E5F94FF07C5111F035FA11F054
:100DE000F9FB0546EDE5964B964A1B889649127825
:100DF000013B31F91340002A40F0B08011200EF081
:100E00002BFC0090914B0193D3F80090009B9945E7
:100E100040F3AC808E4BDFF858821B888D4A012B43
:100E2000D8F80030B2F800A08B4A02922846A3EB13
:100E3000040400F0CE8011F0B3F9029A52F82A109F
:100E400011F002FA0146002011F0F4F811F0C2FB93
:100E5000009BC9EB04029C42B8BF1C469042C9EB00
:100E6000040480F2CA8000FB0444013294FBF2F4D3
:100E70007A4BDFF800920293D9F80030234403EB59
:100E8000D3735B10C9F80030754B1B88012B7FF4BE
:100E9000B3AD744B03931C460F200EF0DDFB2268AC
:100EA00004929042034680F2E980694A1288012A3E
:100EB00000F02E81674A07901288674C06922846F8
:100EC00011F06EF9069ADFF8B0A154F82210DAF8A2
:100ED000004011F0B9F90146002011F0ABF8059B74
:100EE000E21A059211F076FB059A079B04999A4243
:100EF000C1EB020EB8BF1A46704580F23381521A18
:100F000000FB02220EF1010192FBF1F2D9F8001070
:100F1000554804900A4402EBD2725210C9F80020DE
:100F200073E5D8F80000B7E50EF500500130401A1F
:100F300011F036F93A49DFF834A111F085F9044689
:100F4000DAF8000011F02CF9344911F07DF901466E
:100F5000204611F071F811F03DFBF5E515200CF07D
:100F6000DFFF00904EE7344A137022E53B4B0293BB
:100F7000D3F80090009B994544DA354BDFF8F080B8
:100F80001B88344A012BD8F80030B2F800A0324A4E
:100F9000039228461C4400F0EC8011F001F9039AFA
:100FA00052F82A1011F050F911F014FB009B9C42EA
:100FB000C9EB0402A8BF1C46C9EB04049042BABFA7
:100FC00000FB04440132444394FBF2F4DFF8A490A4
:100FD00052E711F0E5F8029A52F82A1011F034F9AC
:100FE00011F0F8FA009BC9EB04029C42B8BF1C4602
:100FF0008242C9EB04043FF736AF00FB04F494FBD4
:10100000F2F435E7DFF86C90DFF86480D9F800304F
:1010100003EBD3735B10C9F80030E8E49A99193FE9
:10102000CDCCCC3E809DFF1FE49CFF1FD89EFF1FB0
:10103000209DFF1F7489FF1FBE9CFF1F0A9FFF1F7B
:10104000C889FF1FAC9EFF1FF83D0100809FFF1F56
:101050005E9DFF1F089DFF1FFC400100589DFF1F64
:10106000889EFF1F189FFF1F8C9EFF1FAC89FF1FCC
:10107000B09CFF1F309FFF1F149FFF1F6B4A0492FD
:1010800012680692904237DD694A1288012A00F000
:101090008E80684A09901188674A0891284607920D
:1010A00011F07EF8079A0899DFF890A152F8211004
:1010B000DAF8004011F0C8F8059B2344059311F0BD
:1010C00089FA0599099B069A9942C2EB010EA8BFBD
:1010D0001946704580F29080891A00FB01110EF1CB
:1010E000010291FBF2F2D9F800100A4402EBD2722D
:1010F0005210C9F8002088E4D9F80020DFF83CA19C
:1011000002EBD2725210DAF80040C9F800207CE4F9
:10111000484A08901188484A07912846069211F0DB
:101120003FF8069A0799DFF814A152F82110DAF86F
:10113000004011F089F8059BE11A059111F04AFA77
:101140000599089B049A9942C2EB010EB8BF194653
:10115000704558DA891A00FB01110EF1010291FB6A
:10116000F2F2D3E60499521A00FB02F292FBFEF26D
:10117000CCE611F015F8039A52F82A1011F064F831
:101180000146002010F056FF11F024FA009A944214
:10119000C9EB0403A8BF1446C9EB04049842BABFC4
:1011A00000FB04440133444394FBF3F40EE721496C
:1011B000214A089028460C88079210F0F1FF079A00
:1011C000DFF878A052F82410DAF8004011F03CF86B
:1011D0000146002010F02EFF059B2344059311F0DB
:1011E000F9F90599089B069A9942C2EB010EA8BF2E
:1011F00019467045FFF670AF069A891A00FB01F197
:1012000091FBFEF26FE7049A891A00FB01F191FB52
:10121000FEF27BE68842D4BFC3EB0004C3EB0104BB
:1012200005FB04F4C2E519466EE400BF8C9EFF1F67
:101230005E9DFF1F089DFF1FFC400100149FFF1FC4
:1012400008B5244B1B88FBB1234B1B78FBB1234B08
:101250001B78E3B1224B1B78CBB1224B1B78B3B187
:10126000214B22481A78C2B9214A224900881288A3
:1012700009680244B1EB620F09DD01221A70642093
:10128000BDE8084005F012BB174A117801B908BD46
:101290001370BDE8084008F0C5BB154A1649008820
:1012A000128809680244B1EB620FF0DD00221A7067
:1012B00008F0B8FB642005F0F9FA642005F0F6FAAE
:1012C000642005F0F3FA4FF41670BDE808400DF005
:1012D000B1BA00BF9E9EFF1F889FFF1F509FFF1F38
:1012E000519FFF1F529FFF1FEC9CFF1F009DFF1F80
:1012F000F09EFF1F1C9DFF1FE49CFF1F38B5114C83
:10130000232025780CF00CFE0F4A42F82500131F0D
:1013100002F1C400002253F8041F83420A44FAD1A8
:1013200023780A4907480A4C0133DBB2322B81FB90
:10133000025108BF0023D217C2EB211203702260B2
:1013400038BD00BFCC9CFF1F9C9DFF1F1F85EB512C
:10135000EC9EFF1F2DE9F04FB74DB84E2868B84CF2
:1013600083B010F01DFFB74910F06EFF0746102044
:101370000EF072F910F014FFB34910F065FF394612
:1013800010F05AFE11F026F931882860884223882F
:101390007EDA1F4600225B1ADFF8D482DFF8D4E23F
:1013A0007F2BCABFD201C2EBC212013392FBF3F30F
:1013B000B8F80020CEF80030192A00F0DF801A2A91
:1013C00000F02B811E2A00F05B814FF00108C1461E
:1013D0009E4B1B88002B66D09D4A1288032A00F280
:1013E00009818842C0F25F81B842D4BFC1EB0000DE
:1013F000C1EB0700791A8B42B4BF03FB00005843CE
:10140000944F954BB8BF013190FBF1F018603888CC
:1014100000284FD03188D5F800E0884ADFF818A2BC
:10142000714500F38280DFF83CC29CF80030002B4D
:101430004CD14FF0010B04288CF800B046D1B8F124
:10144000000F40F0CB81854B1888F0B1B9F1000F47
:101450001BD02B68318822888B4280F29C8100232C
:10146000541A7E2C7E4DD5BFC3EB8313C3EBC3133D
:101470005B00013493FBF4F42B680134A34203D0E6
:10148000C0B2E1B208F05AFA2C6003B0BDE8F08FA8
:101490009842D4BFC1EB0002C1EB03021F467AE7BA
:1014A00099464FF001081E2A00F0D281694F388812
:1014B0000028AFD1694B1B88002BABD1694A11784A
:1014C0000029E2D0137003B0BDE8F08F012800F0CE
:1014D0001281022800F003810328B4D1624B1B88DB
:1014E000092BB0D0B8F1000FADD02B683788228817
:1014F000BB4280F295810023D71B7E2FDFF86CB1B1
:10150000D5BFC3EB8313C3EBC3135B00013793FB5E
:10151000F7F7DBF800300137BB4203D0F9B24A20BD
:1015200008F00CFACBF800708DE74E4B1A78002AC1
:10153000ABD0002401281C7000F0C280022840F0CB
:101540003181B8F1000F00F0C280484D2B68002BAC
:1015500000F0BD800420214608F0F0F93F4B2C60DC
:101560001888002891D0B9F1000F8ED0C0B20021A8
:1015700008F0E4F93A4B00221A6086E7DFF8F8A099
:10158000DFF8F8909AF80030BBB1DFF8D0E0BEF891
:1015900000E0BEF1000F10D099F800C09C4500F0AB
:1015A00099805FFA8EF07F2108F0C8F99AF8003030
:1015B000B8F8002089F800300FE099F800E09E4567
:1015C00000F08880254B0021187808F0B7F99AF8C8
:1015D0000030B8F8002089F800301C4B1B88002B25
:1015E0003FF45EAF1E2A40F02B814FF001084FF010
:1015F000000951E0884258DBB842A1EB0701A8BFBF
:1016000038468B42A0EB070055DA03FB00004B1C69
:1016100090FBF3F3104A136048E7DFF85CA09AF8F8
:101620000030002B0BBF4FF001084FF000084FF0C7
:1016300000094FF00109CBE6109DFF1FA49EFF1F7C
:10164000A09EFF1F9A99193FCDCCCC3E609FFF1FF3
:101650001C9FFF1F189DFF1F949DFF1F389FFF1F9A
:10166000F49CFF1F2D9FFF1FDA9EFF1F989DFF1FF9
:10167000269FFF1F0C9FFF1FD89EFF1FD29CFF1F9E
:10168000DFF8E8A1744B9AF800801B88B8FA88F854
:101690004FEA58184FF000099AF8002042B3286822
:1016A0003188278898E60020A4E60846C91B8B42AB
:1016B000A0EB0700A9DB03FB00F393FBF1F3A9E721
:1016C000B8F1000F03D0654D2B68002B7FD1644B20
:1016D000188846E74FF001084FF0000978E6B8F1A6
:1016E000000F3FF4B0AEDFF874B1DBF8003030E04B
:1016F0005C4B1A60DAE6B8F1000F3FF4A4AEB4F820
:1017000000A0F245D4BFC1EB0A03C1EB0E03C1EB4D
:101710000A0ABAF17E0FDFF844B1D5BFC3EB8313D9
:10172000C3EBC3135B000AF1010A93FBFAFADBF87F
:1017300000300AF1010A534504D05FFA8AF1012012
:1017400008F0FCF83888CBF800A002287FF4C4AE7B
:1017500053462A68B6F800A02188524559DA00227B
:10176000CAEB010ABAF17E0FD3BFC2EB8212C2EB01
:10177000C2120AF1010A520092FBFAFA0AF1010AB6
:101780009A4504D05FFA8AF1042008F0D7F8388827
:10179000CBF800A0A0E69342D4BFC1EB0303C1EB9A
:1017A00002035DE6032828D12F4B1B88092B8ED01E
:1017B000B8F1000F8BD0294D2B68002B87D04A2021
:1017C000214608F0BBF8264B2C601888C9E6214654
:1017D00008F0B4F8224B2C601888C2E640207F2124
:1017E0008DE80C0008F0AAF8388858459DE80C00F0
:1017F0001DD002287FF470AE75E704287FF467AF30
:10180000B8F1000F3FF463AF2146402008F096F88E
:101810005DE78A42D4BFCAEB0202CAEB01029FE72E
:101820009342D4BFC7EB0303C7EB020364E6DAF8C5
:1018300000E01188B4F800A08E45FFF668AF60E7BD
:101840002868318827884FF001084FF00009C3E568
:101850000023DFF818A01FE7609FFF1F989DFF1F60
:10186000389FFF1F949DFF1FDA9EFF1FD89EFF1F0A
:1018700008B5114B1B88022B09D0052B07D0032B71
:1018800015D0042B0BD00D4B01221A7008BD7F21FF
:10189000412008F053F8094B01221A7008BD7F213E
:1018A000092008F04BF8054B01221A7008BD4021B1
:1018B000092008F043F8E6E7929DFF1F3E9DFF1FB9
:1018C00038B5074B074D1B88052B044606D02B68FF
:1018D000834203D0C1B2052008F030F82C6038BD37
:1018E000929DFF1F3C9FFF1F38B5124D124C2B8855
:1018F000052B12D022684AB9022B0ED0033B012BD4
:1019000013D90E4A00231370236038BD002105202F
:1019100008F014F82B88022B04D10021412008F094
:101920000DF8EEE7052BE9D1F7E70021092008F0D3
:1019300005F8E6E7929DFF1F3C9FFF1F3E9DFF1F9E
:10194000464B1B881D2B70B541D0454D0024454B9F
:101950001B88022B16D0444B1B88022B54D028889E
:10196000424B002C1B780ADB8442A8BF044634B1EA
:10197000002B3AD02046BDE87040FFF7A1BF002BF6
:101980002FD170BD3A4B1B78002B37D015200CF0AF
:10199000C7FA384B1860384A1288002ADBD0374A19
:1019A000186811888142D6DC354B2A881B8883420F
:1019B000A3EB0106A8BF03465B1AB242BABF02FB03
:1019C00003330136534393FBF6F31C44C3E72A4B1E
:1019D0001C888CB12B4B224D1C78002CB7D02C8846
:1019E000B5E7BDE87040FFF77FBFFFF741FF204636
:1019F000BDE87040FFF764BF194DA8E711200DF056
:101A00002BFE1C4B1860C6E70F200DF025FE1A4B6D
:101A10001D4A1B881060002BA1D01C4AC0F53B63F7
:101A2000118808338B429ADB194A2888128893421E
:101A3000A2EB0105A8BF1346A842A3EB010306DAF7
:101A400000FB0333013593FBF5F31C4488E700FBEF
:101A500003F292FBF5F31C4482E700BF269FFF1FB1
:101A60002A9FFF1FFA9EFF1F889EFF1F3E9DFF1F9C
:101A7000AC9EFF1FC09CFF1F929DFF1F3C9DFF1F40
:101A8000249FFF1FD89EFF1FD89CFF1F909DFF1F04
:101A9000109FFF1F38B510200DF0DEFDC830B0F5E7
:101AA000FA7FC0F2EE80B0F57A6F0146A8BF4FF41E
:101AB0007A6101F51673B3F57A6FA8BF4FF47A63B4
:101AC0009BB289B28E4A8F4C11802220238008F06D
:101AD000B7F821888C4D8D4C242008F0B1F80E20E9
:101AE0000CF01EFA40F6FF71C8308842A8BF0846C5
:101AF00020EAE07000F2DC5283B28A42A8BF0A46B4
:101B00000220194622802B8008F09AF821880420B0
:101B100008F096F817200DF09FFD044616200DF0F2
:101B20009BFDA042B8BF204600F1C801B1F5FA7F85
:101B3000C0F2A280B1F57A6FA8BF4FF47A6101F5C7
:101B40004873B3F57A6FA8BF4FF47A639BB289B23A
:101B50006F4A704C11800A20238008F071F82188A8
:101B60000C2008F06DF80F200DF076FDC0F53F61F8
:101B70000431B1F5AF6F7CDBB1F5FA6FA8BF4FF45C
:101B8000FA6189B2644BC0F54360B0F5AF6F19805C
:101B90006CDBB0F5FA6FA8BF4FF4FA6083B25F4C0C
:101BA000A420238008F04CF8A620218808F048F8EB
:101BB0000B200CF009FE002868D011200DF04CFD20
:101BC00000F1C801B1F52F7F6EDA40F214534FF4E3
:101BD0002F71534A1180534C0620238008F030F8AF
:101BE0002188082008F02CF800244FF4AF75E1B2EA
:101BF0004D4809F05DFE01348542A8BF05460C2C16
:101C0000F5D101200DF028FD044600200DF024FD43
:101C1000323CA0F1320345496FF4957000FB03F3A9
:101C200000FB04F081FB034281FB0041DB17C0177E
:101C3000C3EB6223C0EB612003F5AF7200F5AF7315
:101C40009342A8BF13469D42A8BF1D46A5F11401AB
:101C5000312938DC40F26C7332213548354A018035
:101C600013602A20BDE8384007F0EABF4FF4AF63A5
:101C700095E74FF4AF6185E740F214534FF4FA71E2
:101C800066E740F24C434FF4FA711BE715200CF065
:101C900047F900F59671B1F52F7F96DB41F25C2391
:101CA00099421FDD194694E741F25C239942F9DC21
:101CB0001B4A00F5487089B2B0F52F7F118019DA00
:101CC0004FF42F7387E740F23A72A5F5B9751A4BB6
:101CD00002FB05F583FB0523ED17A5EB631389B222
:101CE0003233BAE70E4A00F5617089B2B0F52F7F42
:101CF0001180E5DB8342A8BF03469BB26BE700BFC0
:101D0000A49EFF1FA09EFF1F8C9DFF1F569FFF1FBD
:101D1000F09EFF1F009DFF1F909DFF1F109FFF1F44
:101D20003C9DFF1F249FFF1F7C9DFF1F67BBCF466D
:101D30004E9FFF1FB489FF1FB5814E1B2DE9F04F49
:101D40000C2083B00CF0B8F80C200CF0A5FCC149B5
:101D5000DFF888A314200CF0AFFCBF49BF4809F09E
:101D600077FA022103200CF03DFD022104200CF043
:101D700039FD022105200CF035FD022106200CF072
:101D800031FD01210A200CF02DFD012109200CF06C
:101D900029FD01210D200CF025FD012128200CF04A
:101DA00021FD012114200CF01DFD02210B200CF05F
:101DB00019FD01210C200CF015FD00210C200CF068
:101DC000FDFC012121200CF00DFD02211C200CF056
:101DD00009FD01211B200CF005FD00211B200CF04A
:101DE000EDFC1C200CF0F0FCB0FA80F35B091A202B
:101DF0008AF800300CF036FF1F2000210CF0F8FEAE
:101E000004200CF0E1FC002800F0F08005200CF02C
:101E1000DBFC002800F068810023914C0620237031
:101E20000CF0D2FCB0FA80F35B094FF0000B8D4A46
:101E3000137006F051FA2378002B40F0D2805846F8
:101E400007F028FF884B894A1B88148888498948ED
:101E5000894DA3F5AF7240F23A7303FB02F381FBA5
:101E60000321DB17A3EB61113231062300937B4A78
:101E700001600C235A2181482C7009F081FD002853
:101E800000F039817E4A7F481268DFF854920023BF
:101E90000121FEF709FB0B200CF096FC011E0CBF84
:101EA0000123002389F8003000F0B980764F774D88
:101EB000774EDFF8308200233B602B6033600424D0
:101EC0000F200DF0C9FB336803440E2033600CF083
:101ED00027F83B6899F8002018443860002A79D028
:101EE00015200CF01DF82B681844286004F0010040
:101EF00080F0010004F0CAFCB8F80030002B14BFD9
:101F00004B20DC200CF096FC013CD9D133683968B9
:101F10005D4A28685F4F002BB8BF03330029B8BF64
:101F20000331891011605C495C4A098814889B1050
:101F300000283360B8BF0330594E8210581A194434
:101F40002A6031603860574D57485849161B224463
:101F50002E6002600B60BBF1000F64D1B8F8003056
:101F6000002B4FD0524B012404201C600CF02CFCA1
:101F700018B9504B404A1C7010704F4B1B881C2BDB
:101F800058D04E4C04F1C80523200BF0C9FF44F88B
:101F9000040F01200CF04EFCAC42F5D19AF8003051
:101FA0001BB1474B1B78002B4ED1002121200CF098
:101FB00005FC444A444B1078187007F007FE04F003
:101FC0005DFC4249424845F6BF5203B0BDE8F04FC0
:101FD0000EF058BF11200DF03FFB2B68184428600D
:101FE00084E703B0BDE8F04F09F046B806200CF0D6
:101FF000EBFB00287FF40AAF194C034620704FF02A
:10200000010B14E74FF4FA7004F050FC04F03AFCB2
:1020100006F0BCFC4FF4AF600CF00CFCA2E7112002
:102020000CF0E0FB42E7FFF735FDB8F80030002B7D
:1020300098D1E7E7274B18880028A2D0264BC0B2DA
:10204000197807F07BFC9CE7012121200CF0B6FBFE
:10205000AFE700BF001B374640420F007091FF1FE3
:10206000F29CFF1F909EFF1F4E9FFF1F289FFF1F88
:10207000B5814E1BB489FF1F549DFF1F7C9DFF1F20
:102080003C89FF1FB89EFF1FC49CFF1FB09CFF1F11
:10209000149FFF1F189FFF1FC489FF1F4089FF1F48
:1020A0008C9EFF1F809FFF1F589DFF1F689FFF1F73
:1020B000209FFF1FDD9CFF1F269FFF1F989DFF1F76
:1020C000A69EFF1FA89EFF1F869EFF1FA50500005E
:1020D000449FFF1F5C9DFF1F0C9DFF1F8A9EFF1FDB
:1020E000AC9EFF1FE69EFF1F03200CF06DFBB0FAB5
:1020F00080F35B0991E603200CF066FB0028FAD11F
:1021000004200CF061FB0028F5D105200CF05CFBED
:102110000028F0D106200CF057FB0028EBD10DF081
:10212000BBFB00BF2DE9F04F89B005ADB54F2C4684
:1021300008AE611BC9B2B44809F0BAFB3B888342C0
:1021400094BF0020012004F8010BA642F1D1AF4B4F
:102150009DF814601F889DF81650AD4B9DF818101F
:102160009DF81A001E7073199DF81C20A94CDFF809
:1021700014C3DFF814E325700B440344A64C8CF819
:1021800000101344DFF804C38EF80000012FDFF8BD
:1021900000E38CF80020DBB2237088BF4FF0000C06
:1021A0009E4C98BF4FF0010C8EF800C04FF0000E0F
:1021B00084F800E06AB9002800F07881002900F076
:1021C0008B81042396482370032F00F067822278C6
:1021D00005E0002900F0B580062291482270914B5D
:1021E000DFF8B0A29DF815E09DF81770DFF8A8920F
:1021F000DFF8A8B28C4DDFF8A8828C4E9DF819103C
:10220000027083F800E09DF81B209DF81DE09DF80A
:102210001EC08AF8007001209DF81F70009389F895
:1022200000102A7088F800E08BF800C037700DF0BD
:1022300013FA7F497F4AD1F800E0009B7045CCBF7C
:1022400001210021117040F3AB807B4A1288182ACB
:1022500000F2A68079490F880C3A002F40F0A68042
:10226000774993F800C00B7899F800909AF800101D
:102270009BF8007095F800B02478A3EB4C03A9EB11
:10228000890A5B1A5344C7EB877AC7EB8A07DFF8E2
:10229000B8A11F4498F80030BAF800A007EB4B072C
:1022A00096F800B03B440BFB0A33664F4FF00C0A24
:1022B0001AFB043AC7F800A0B9F1000F0BD033782D
:1022C0004BB1614B1B88042B0CBF0AF1020A0AF1C7
:1022D000040AC7F800A05D4B5D4CDFF8C8B11B884D
:1022E0002488DBF800B05B4F5B4E3F883688033BA9
:1022F000C4EBC4045C4403EB4303DFF8ACB10AEB6A
:1023000083033B44DBF800B0544FC6EBC60657F8D6
:102310002440534F5E440C3B134457F826601A196F
:102320003244BCF1000F12D02B7883B1002940F069
:10233000CF80B9FA89F94B4B4FEA591983F80090CD
:102340000EE0002851D005222270354847E7454B62
:1023500000241C7019B198F80030002B3DD10021E9
:10236000414B70451970C8BF404B4149C8BFC3F8C5
:1023700000A00B689A422CD03E4B3F4C186803904B
:10238000039820601B6804933C4C049B24880A60DB
:102390001B1AA34284BF3A4B1A6009B0BDE8F08F04
:1023A00026490F880022002F3FF45AAF012F00F07A
:1023B000FF80022F00F02981032F00F09080214F31
:1023C0009AF8001093F800C099F80090D7F800A090
:1023D00072E72948274B0068D4E7BCF1000FBED153
:1023E000B9F1000FBBD10121BAE7012FABD9002D04
:1023F00000F03F8116B9012F00F2A680022323705E
:102400000748E1E64E9FFF1F7C9DFF1F729EFF1F46
:10241000509FFF1F519FFF1FF89CFF1F929EFF1FA1
:10242000A29EFF1F859FFF1F899FFF1F2C9FFF1FDD
:10243000B489FF1FD89EFF1F269FFF1FBC9CFF1F54
:10244000C689FF1FE09EFF1F289DFF1FFE9EFF1FE6
:102450001C9FFF1FCE9CFF1F409DFF1F883E010059
:1024600040390100629FFF1F639FFF1F6C9FFF1F8A
:10247000349DFF1F60A0FF1F249DFF1F369FFF1F7D
:10248000749FFF1F529FFF1F539FFF1F549FFF1FEB
:10249000FC9EFF1F869FFF1F879FFF1F889FFF1FB8
:1024A0008A9FFF1F949DFF1F5C9FFF1F00299ED0E6
:1024B000002D00F0DC807D480322974222707FF4DB
:1024C0008EAE0378062B7FF482AE0722227086E65A
:1024D000774B0021197042E7012F88D871E67549C2
:1024E00093F800C00B7899F800909AF800109BF8C8
:1024F000007094F800A02C78A3EB4C03A9EB890B97
:102500005B1A5B444FF0050B1BFB0733009398F8F5
:1025100000300193009BDFF8C4B1C7EBC707BA4492
:102520000533019FBBF800B003EB440334783B4410
:1025300004FB0B33604C614F54F82A400C3303EB1F
:10254000040AC7F800A0B7E658480578012D7FF6C1
:102550003BAE07B125705A4D2D88002D00F09880B4
:10256000002B40F09580574B1B88013B9BB2062BFC
:1025700000F28E80544B1B78002B00F08980534B67
:102580001B68012B7FF420AE514D524B2D68DFF8B4
:1025900050E183FB0536EB17C3EB660303EB430304
:1025A000A5EB8303AEF800304B4B03251D700BE603
:1025B000404993F800C00B7899F800909AF8001001
:1025C0009BF8007095F800A02478A3EB4C03A9EBCE
:1025D000890B5B1A5B44C7EB877BC7EB8B0B3F4FC9
:1025E0005B4498F800B03F8803EB4A0A3378DA443A
:1025F000C4F1060403FB07A3E4B24FF00C0A2F4F0B
:102600001AFB043AC7F800A056E62A4993F800C01E
:102610000B7801932B780093019B9AF8001099F89E
:1026200000909BF800A02478A3EB4C03A9EB890B46
:102630005B1A5B44A3F1020B284BCAEBCA0A544451
:102640001B88DFF8A0A00193BDF800305AF824A041
:1026500098F8004017FB03BB3778019B5C4407FBED
:1026600003431833154F9A44C7F800A024E6012FFE
:1026700006D9002E3FF468AF0C4801232370A3E570
:102680000A480378002B7FF417AF002EF5D19BE5A5
:102690000E4B1B68012B7FF497AD85E700293FF4B3
:1026A00096AD002A7FF493AD0BE700BFA29EFF1FFB
:1026B000629FFF1FC689FF1F44420100E09EFF1F6B
:1026C000089FFF1FAA9EFF1F8E9DFF1F209FFF1FB9
:1026D000749FFF1FABAAAA2AA889FF1F289DFF1F6E
:1026E000E49EFF1FAC4001002DE9F04F3A4B1B78F0
:1026F0008BB0002B6BD10E200BF012FC0FF050FDB5
:1027000001463648364E374DFDF714FF3348FDF786
:10271000E7FE0FF05FFF80F30C003060FFF702FD73
:102720002C68012C7AD0022C00F0CF82032C00F010
:1027300053842D4E2D4C33682D4A2E4E0993099B00
:10274000316812882360591A013A9142274F00F2EA
:10275000B782294E32689A1A092A00F2A082274EBF
:1027600032689A1A0D2A00F29582254E32689A1A1A
:10277000252A1AD9234B1B88002B40F0A481224B19
:102780001B78002B40F09F81FEF7B8FD1F4B1B8884
:102790001B3B9BB2022B04D81D4B1B78002B40F037
:1027A000958104F095F8236833601A4D2A689B1AC6
:1027B000502B00F21482184B1B88012B00F02F8243
:1027C00007F062F806F01CFF0BB0BDE8F08F08F0D0
:1027D000DFFA0BB0BDE8F08FF29CFF1FB89EFF1F21
:1027E000F49EFF1F209FFF1F60A0FF1FB49EFF1FCE
:1027F000B089FF1F889DFF1F6C9DFF1F4C9DFF1F11
:10280000509DFF1F9E9EFF1FEC9CFF1F269FFF1FDA
:10281000D89EFF1F989EFF1FF89EFF1FDFF854935E
:10282000AF4AB9F800001378834204D0C3B2184607
:10283000137007F01BF8DFF84083AA4AB8F800309D
:102840001178994204D0A84F3978002940F0BC870C
:10285000A64A33681288A64E9A42C0F29781A54ACA
:102860001278002A40F09281DFF810A3BAF8003005
:1028700023B9A14B1B88002B00F0AF859F4AA04BCA
:1028800011881B889F4A0B4412685B1093429E4A32
:10289000126880F2288500219342B4BF01230B46C1
:1028A00004910293ACBF4FF0010B8B4605910E20B3
:1028B0000BF036FB954B964A1B6803930133002BB4
:1028C0008446176840F39687802BA8BF8023914ADF
:1028D000914912780191002A00F0628109789142B1
:1028E00000F05E81B8F80010DFF88CE2994201F048
:1028F0006D817D49AEF80030884B4FF0010E81F8B4
:1029000000E01978DFF878E2854B01981B780270B7
:102910008EF80010002B40F04283029B002B40F009
:102920003983A7F252339C4533DA734B1B88002B53
:102930002FD0BBF1000F40F032837A4B1B881BB1C4
:10294000059B002B40F02B83049B13B3764B1A7826
:10295000FAB9DFF8309299F8004001221A70002C81
:1029600040F00885714B1B78002B42F0C884704BF7
:102970001B78002B02F054876E4B1B784BB96E4BC3
:102980001B7833B1B8F8003057490A33A8F8003043
:102990000A700E200BF0C4FA6FF454731F44874280
:1029A00002DC614B00221A7000200CF055FE634AD5
:1029B000634B1168634C1B888842D4BF00220122FC
:1029C0002270002B00F0B9845F4B1C7894426DD0CC
:1029D00088426BDD58490878002800F0B6875B49CB
:1029E00091F800C0BCF1000F40F0AD87584FDFF800
:1029F00098E197F800A0574C574F8EF800C04FF061
:102A0000010E0194039784F800C087F800C081F894
:102A100000E0BAF1000F08D000240C70019F039968
:102A20004FF0010E87F800E00C704049097800294A
:102A300001F06F80494C94F800E0BEF1000F41F0C6
:102A40002081DFF814814FF0010C88F800E084F851
:102A500000C0374C247894B1DFF82CE19EF800C018
:102A6000BCF1000F41F00381DFF8E0904FF0010866
:102A700089F800C08EF80080002901F04F803849A5
:102A8000097899B134480178002941F0F680DFF8DF
:102A9000BCE0344F2F4C8EF800104FF0030E87F837
:102AA00000E02E4F21700124397004701A702E4BF3
:102AB0001B88A3F11B02012A40F274861D2B00F033
:102AC00092862A4C37E6FEF7BBFB5DE6284B1B7867
:102AD000002B3FF466AE2B68012B7FF462AE62E6FA
:102AE000869EFF1F549DFF1FDD9CFF1F8C9DFF1FB7
:102AF00060A0FF1FEC9CFF1F749DFF1F009DFF1F28
:102B0000F09EFF1F1C9DFF1FE49CFF1F6C9FFF1F7B
:102B1000C49CFF1F629FFF1F309DFF1F639FFF1F0D
:102B2000729DFF1FAE9EFF1F919EFF1F859FFF1F7F
:102B3000869FFF1F879FFF1F889FFF1FB489FF1F6E
:102B4000AA9EFF1F069DFF1FB49CFF1FE89EFF1F4C
:102B5000899FFF1F3A9FFF1F8E9DFF1FB59CFF1F80
:102B6000D89EFF1FA889FF1F269FFF1FB49EFF1F2F
:102B70002C9FFF1FA89EFF1F289FFF1F389DFF1F30
:102B8000319DFF1F929EFF1FDC9CFF1F31688E4A04
:102B9000069106988D49106002220B602A6063E658
:102BA0008B49DFF8A0E2097800293FF4ADAE9EF82A
:102BB000000081423FF4A8AE03984B2840F3C98738
:102BC0001833802BB8F80000A8BF802398423FF448
:102BD0009BAE8048038080480123037094E605F093
:102BE000C7FB7E4B1B788BB97D4B1B7873B97D4B34
:102BF0001B785BB97C4B1B7843B97C4B1B782BB99A
:102C00007B4B1B7813B903F039FE01E003F042FE61
:102C100023682B60774B1B88012B7FF4D1AD764B5B
:102C2000764A19681778764EA92303FB01F100292B
:102C3000744BB8BF01F57F511868734BB8BF3F3173
:102C400089132A225439183802FB00111D786FF0BD
:102C5000140202FB071232606C49002D00F04A8119
:102C60000B689A4200F3028480F24481684D287810
:102C7000002840F0EA8767480068D0F17F0048BF2D
:102C80000330801001301B1A9A4200F333810B602D
:102C90001A4630E1FEF754FE2368336065E5FDF720
:102CA0006FFEFEF757FB5C4B1B88032B00F0A585DE
:102CB0005A4B1B88032B00F0A485236833604EE534
:102CC000FDF7AAFD3B68336043E5554A3468128836
:102CD000A24204DB464B1B78002B00F00884514EC7
:102CE000394833680793504B079900681B88091AC5
:102CF000994200F2AD80002B00F0AA804B4B19885E
:102D000000293FF4DEAE314B49481B680088A342DE
:102D1000B8BF23469A4201F3B881464A8342A8BF0E
:102D200003461360DFF8208188F80010354FFDF767
:102D300073FD38687F2840F302863F4B7F3883FB62
:102D40000032C317C3EB620303EB4303A0EB830022
:102D500073303A4B02931B883860002B40F0248775
:102D6000204B01931B78002B00F07084344C2378A7
:102D7000002B00F06B84DFF8D490DFF8BCA04FF09C
:102D8000000B0CE003F17300C0B298F8001006F0DD
:102D900005FE23780BF1010B5B4540F357843B683C
:102DA00059F8040F1844A0F17F038AFB0321DA17B6
:102DB000C2EB610202EB42027F28A3EB8203E1DC5B
:102DC000FDF74AFCE0E700BF449DFF1FB09EFF1FD8
:102DD000639FFF1F289FFF1FDD9CFF1F8E9DFF1F0E
:102DE000E89EFF1F3A9FFF1FB59CFF1FDC9CFF1F43
:102DF000EC9CFF1FF89EFF1FAC89FF1F0A9FFF1F5F
:102E0000649DFF1F749FFF1F3E9DFF1F789DFF1F46
:102E1000409FFF1F3C9FFF1FFA9EFF1F889EFF1FC2
:102E20008C9DFF1F60A0FF1F709DFF1FD49CFF1F84
:102E3000569FFF1FB89CFF1FABAAAA2A169DFF1F13
:102E40007089FF1F319DFF1F609DFF1F4889FF1F75
:102E50008F4B90491B6808888F49A342B8BF23460F
:102E60009A4200F321838D4C09888342A8BF034610
:102E7000236000297FF456AF9A42C8BF0B4640F347
:102E80001A83801AB0F5804FAABF9B03C3EB83332C
:102E9000013093FBF0F0FDF7A5FCC0F3C6100FF076
:102EA0007FF97F4B044618880FF07AF97D49074671
:102EB00020460FF0C9F9014638460FF0C5F9214602
:102EC0000FF0BAF84FF07E5104460FF05BFB00287C
:102ED00041F0D080744920460FF072FB002840F08A
:102EE000C38620460FF09CFBC0B2DFF8108288F842
:102EF00000001BE70A606D4B188858B36C4B2568BF
:102F000053F82040B5FBF4F3772C04FB135300F384
:102F1000C482C3EBC30303EB031393FBF4F36548D1
:102F2000654C50F823002468644BA0F2FF7004FB4A
:102F300000F000F57D3000F5607000EB4004C0EB60
:102F4000C40083FB00430344C017C0EBA3400B380D
:102F500002440A605A495B4B0888198800F27C7069
:102F60004300B3F57C6FA1F164014FEA4100B5BFA6
:102F70005549564903FB02225A4381FB0231114451
:102F8000D317C3EBE123C11881F30C0128200BF008
:102F900085FA15E4BAF80030002B3FF4C2AC4C4B74
:102FA0001B685A1C002A40F3AC81802A00F3A881D8
:102FB000484C494949482488098800682144B0EBB5
:102FC000610FC0F24B86A3F148020F2A3FF6E1AC35
:102FD000473BA9F80030DCE4414BD6F80080198863
:102FE000414540F38F803F4B1B78002B40F08A8097
:102FF000DFF80C9199F800007F2840F31186A3F1C7
:1030000055337F3803F1004383FB0032C317C3EB12
:10301000620303EB4303A0EB83007330324B029354
:103020001B88C0B289F80000002B41F010802F4BA4
:1030300001931B78002B00F09A842D4C2378002BF1
:1030400000F095842B4FDFF8B0804FF0000A0AE0C3
:1030500003F17300C0B206F0C5FC23780AF1010A3F
:10306000534540F3848457F8043F99F8000018440E
:10307000A0F17F0388FB0321DA17C2EB610202EBA8
:1030800042027F28A3EB8203E2DCFDF7E5FAE1E7E9
:10309000B09EFF1F569FFF1FD49CFF1FB89CFF1FB1
:1030A000649FFF1FCDCCCC3D0000FE42D09CFF1F93
:1030B000643E01003C3701000C9FFF1F4D2612812A
:1030C000789FFF1F4C9FFF1F81DFFF8183200882B5
:1030D000E09EFF1FA49EFF1FA09EFF1F109DFF1FCD
:1030E0008C9DFF1FEC9CFF1F169DFF1F3A9FFF1F2B
:1030F0007089FF1F4889FF1FABAAAA2A609DFF1F86
:10310000DC9EFF1FB74F38687F2800F3DB81FDF797
:10311000A3FADFF8489399F80040844200F03B821C
:10312000B14B1B88002B43D1B04AB14812680088CC
:10313000914205DC8242D4BFC1EB0203C1EB000324
:10314000411AB1F5804FA6BF9B030131C3EB833316
:1031500093FBF1F0FDF746FBC0F3C6100FF020F82B
:10316000A44B804618880FF01BF8A34982464046BE
:103170000FF06AF8014650460FF066F841460EF02F
:103180005BFF4FF07E5180460FF0FCF9002840F0C5
:10319000D7869A4940460FF013FA002840F061851F
:1031A00040460FF03DFAC0B2DFF8B48288F8000064
:1031B0007F2C40F3B68392487F3C80FB0430E317BA
:1031C000C3EB600000EB4000A4EB800073308D4B3C
:1031D00001931B78C0B289F80000002B40F01883DF
:1031E000894B04931B78002B40F0FD84874B03939D
:1031F0001B78002B40F04187854B0293039B1B7883
:10320000FBB1844B1B88012B00F0EC85022B00F0F6
:103210009587032B01F0AD81042B01F05E83052B14
:1032200001F04884062B01F09685072B01F02C87CE
:10323000082B02F02980092B02F0F5800A2B02F0FE
:10324000CE82019B1B78002B00F05084029B704CB7
:103250001988002900F0C08438687F2840F3D5829F
:10326000674B7F3883FB0032C317C3EB620303EB6A
:103270004303A0EB830073303860002940F07A8468
:10328000019B1B78002B00F09281634C2378002B6C
:1032900000F08D81DFF8CCA1DFF8C4814FF0000B86
:1032A0000CE003F17300C0B298F8001006F076FB52
:1032B00023780BF1010B5B4540F379813B685AF8A9
:1032C000040F4F4A1844A0F17F0382FB0321DA1751
:1032D000C2EB610202EB42027F28A3EB8203E0DC37
:1032E000FDF7BAF9DFE793424FF0000B80F2F78069
:1032F0000123CDF808B0CDF814B00493FFF7D7BA86
:1033000080244649464B474A09881B8812680B446B
:10331000B2EB630FBFF63DAB434B1B78002B40F085
:10332000A983B8F80030414AA3423FF432AB404B86
:10333000148001221A70FFF72CBB344F3D4C3148EA
:1033400031493D4A3B70237003700B701370FFF7D7
:10335000AEBB3A4B1B78002B7FF41BAB039B384A68
:10336000243B83F34703D9B25B20136006F0E6FAEF
:1033700099F80040032C30D1DFF8EC8098F8003049
:10338000002B42F01B832F4F3B78002B42F0098328
:103390002A4C2378002B42F0F7822B4B1B78002B12
:1033A00042F0E582294A1380294B1B78002B42F01A
:1033B000D1820D4B7F221A8098F800306BB93B7890
:1033C0005BB923784BB9234A7F210720138006F08D
:1033D000B5FA7F210B2006F0B1FA1F4B1F68FFF7EB
:1033E000D8BA00BF749FFF1FD49CFF1FB89CFF1F5B
:1033F000569FFF1F649FFF1FCDCCCC3D0000FE42B7
:10340000ABAAAA2A3A9FFF1FB59CFF1F8E9DFF1FE4
:10341000169DFF1FAA9EFF1F7089FF1FA09EFF1F02
:10342000A49EFF1F109DFF1FD89EFF1F289FFF1FF8
:10343000DD9CFF1FE89EFF1FDC9CFF1F889FFF1F76
:10344000FC9CFF1F879FFF1F869FFF1F829DFF1F02
:10345000899FFF1FDA9EFF1FC49CFF1FDC9EFF1F7A
:10346000609DFF1F4889FF1F859FFF1FB94D28786A
:10347000002840F00E83B8480068D0F17F0048BFB4
:10348000033003EBA0030133B4480B609A42B8BF8A
:103490000260FFF630AD1A462DE5C3EB0313D800EA
:1034A000631C90FBF3F33AE5AD4B09881A600029E1
:1034B0007FF438AC13469842D4BFC2EB0003C2EB92
:1034C0000303DEE4A74B7F3883FB0032C317C3EB53
:1034D000620303EB4303A0EB8300733019E601237F
:1034E000CDF810B0CDF808B00593FFF7E0B901238F
:1034F0002B609D4E9D4CFFF71EB9039B1B78FBB1C3
:103500009B4B1B88012B00F0C283022B00F094869A
:10351000032B00F0B587042B01F0BB81052B01F0D4
:103520005482062B01F00F84072B01F0F984082B3D
:1035300001F06486092B01F0DC870A2B02F002817E
:10354000029B1B88002B00F01E83019B1B783BB95C
:10355000049B1B7823B9039B1B78002B00F0778713
:10356000844B1B78002B00F02D8183490B78082BAE
:1035700000F2288181483A680068814C0133DBB24F
:103580005F1E101A44F827000B707E4BD6F800809F
:10359000198889F800208845734E7FF792AA32680F
:1035A000794B0892089A714C1A60FFF7C4B8049BD3
:1035B0001B78002BA1D03B68A3F10C007F2840F3BF
:1035C0001B8368488B3B80FB0320DA17C2EB60004B
:1035D00000EB4000A3EB800303F17300DFF8BC8134
:1035E000C0B298F8001006F0D9F9019B1B78002BA7
:1035F00083D0614C2378002B3FF47FAFDFF8A0A18C
:103600004FF0000B0CE003F17300C0B298F800100B
:1036100006F0C4F923780BF1010B5B457FF76DAF22
:103620003B685AF8040F4F4A1844A0F18B0382FB01
:103630000321DA17C2EB61020C3802EB42027F2849
:10364000A3EB8203DFDCFDF707F8DEE7494B1B78CD
:10365000002B40F09E824D4B1B78002B45D03B68E1
:10366000A3F10C007F2840F3D8823E4A8B3B82FBBB
:103670000321DA17C2EB610202EB4202A3EB8203E1
:1036800003F17300C0B298F8001006F087F9019BAF
:103690001B7853B3384C23783BB3DFF80491DFF841
:1036A000C4A04FF0000B0BE003F17300C0B298F818
:1036B000001006F073F923780BF1010B5B4514DD64
:1036C0003B6859F8040F1844A0F18B038AFB0321CF
:1036D000DA17C2EB61020C3802EB42027F28A3EB3F
:1036E0008203E1DCFCF7B8FFE0E7294B1B78FBB174
:1036F0001F4B1B88012B00F02684022B00F01D8637
:10370000032B00F0AC87042B01F00C81052B01F09A
:103710003B82062B01F03583072B01F05B83082BDE
:1037200001F00586092B01F09F860A2B01F0B9876D
:10373000029B1B88002B00F04382164B1B78002B4A
:1037400040F03982144B3A681A7003232B60FFF75C
:10375000B8B900BF409FFF1F3C9FFF1F789DFF1F10
:10376000B89CFF1FABAAAA2A60A0FF1FB49EFF1F30
:10377000AA9EFF1FE89EFF1F7089FF1FE09CFF1F8E
:103780004C89FF1F8C9DFF1F20A0FF1FB59CFF1FB2
:103790008E9DFF1FDC9CFF1FDC9EFF1F609DFF1F97
:1037A0004889FF1FDFF8108398F80030002B40F0A5
:1037B000BC80BC4F3B78002B40F06E84BA4C3B7011
:1037C000FEF7B9BF3A68E0E6DBB21846137006F0C0
:1037D00073F9B649B648B74A00230B703B700370C3
:1037E0001370FFF735B8B44AAE4B12781A70AE4C6E
:1037F000FEF7A1BF0123FFF76AB8FCF73FFFFFF711
:1038000057BAFCF791FFFFF758BAFCF725FF33E5ED
:10381000AA4B02931B8863BBA64B0493A84B03934C
:10382000A84C23787BB3DFF8AC82DFF89CA24FF082
:10383000000B09E003F17300C0B206F0D3F823785F
:103840000BF1010B5B451EDD58F8043F99F80000B1
:103850001844A0F17F038AFB0321DA17C2EB61024F
:1038600002EB42027F28A3EB8203E3DCFCF7F4FEC9
:10387000E2E7904B0493924B039306F0B3F8019B5D
:103880001B78002BCCD1049B1B78002B3FF4B6ACEB
:1038900099F80030A3F10C007F2840F3BB818A48DF
:1038A0008B3B80FB0320DA17C2EB600000EB40008B
:1038B000A3EB800303F17300C0B206F093F8019B01
:1038C0001B78002B00F09B817E4C2378002B01F0AD
:1038D0006882DFF80082DFF8F0A14FF0000B0AE009
:1038E00003F17300C0B206F07DF823780BF1010BF1
:1038F0005B457FF783AC58F8043F99F80000184403
:10390000A0F18B038AFB0321DA17C2EB61020C38AA
:1039100002EB42027F28A3EB8203E1DCFCF79CFE72
:10392000E0E72046FCF798FE51E4684A1278002A46
:1039300040F0DA825B4F5C4C3B70FEF7FCBEFCF75C
:103940008BFEFFF706BA00240C70614991F800A0C5
:10395000BAF1000F3FF469A855490191097800298F
:1039600000F07085019C00212170FFF75EB8514B7B
:103970001B78002B42D099F80030A3F10C007F286F
:1039800040F39883504A8B3B82FB0321DA17C2EB4A
:10399000610202EB4202A3EB820303F17300C0B2A7
:1039A00006F020F8019B1B7843B3464C23782BB3D9
:1039B000484FDFF814814FF0000A09E003F173006B
:1039C000C0B206F00FF823780AF1010A534515DD5D
:1039D00057F8043F99F800001844A0F18B0388FBC6
:1039E0000321DA17C2EB61020C3802EB42027F2896
:1039F000A3EB8203E2DCFCF72FFEE1E7304B1B7800
:103A0000FBB1354B1B88012B00F0B686022B00F072
:103A1000B687032B01F01B81042B01F0A581052B38
:103A200001F0D183062B01F0EB84072B01F0988580
:103A3000082B01F00887092B01F069870A2B01F098
:103A40004387029B1B88002B00F00F83174B1B78CA
:103A5000002B40F00583214B1B78002B40F0FB82AC
:103A60001F4B204A1988D6F80080002001231060DF
:103A70002B6090E54B2C40F3D7801834802CB8F89D
:103A80000030194AA8BF8024A3427FF450ACFEF74F
:103A900080BF0130C0B2022836D828701A46FFF71E
:103AA0002ABA00BFD29CFF1FB49EFF1FE89EFF1FD3
:103AB0003A9FFF1FB59CFF1FD89EFF1F169DFF1F3B
:103AC0008E9DFF1F7089FF1FABAAAA2A2C9FFF1F84
:103AD000899FFF1F4889FF1FAA9EFF1FDC9CFF1FB5
:103AE0008C9DFF1FB89CFF1F289FFF1F049B1B7806
:103AF000002B7FF4ABAB039B1B78002B7FF4A6ABB2
:103B0000029B1988FFF7A8BB00222A701A46FFF70C
:103B1000F2B9A24C2478002C7EF49EAF00287EF4EB
:103B2000AEAFBAF1000F7EF4AAAF002C7EF4A7AFBF
:103B30009B49097800297EF4A5AF9A489A490470F8
:103B40000C709A4F9A489B493C7004700C70FEF7B9
:103B5000ADBF243B002BB8F8000040F36D849842C1
:103B60003EF4D2AE9BB29448A8F800300123037013
:103B7000FEF7CABEDFF84482C0B298F8001005F024
:103B80000DFFFFF77DBB8D4B3878197805F006FFE8
:103B9000DBE47F21402005F0D1FE894A894B39685A
:103BA000116000221A7056E5C0B298F8001005F0B6
:103BB000F5FEFFF7D5B87F21422005F0BFFEC1E535
:103BC00098F80010387805F0E9FEB6E57E4BDFF88E
:103BD00008E21978FEF798BE99F8000005F002FF98
:103BE0002188FFF739BB794B02931B88002B41F0EA
:103BF0002A876F4B03934BE6FCF72EFDEEE4039B05
:103C00001B78002B7FF4FDAA049B1B78002B7FF40C
:103C10001DAB75E7FCF720FD4EE6FCF71DFD31E519
:103C2000FCF71AFDFFF7FAB9243C002CB8F8003075
:103C300040F31A86A3423EF4ACAEA4B25E4BA8F8A1
:103C4000004001221A70FEF7A4BE421CD2B2022A22
:103C50003FF65AAF2A701A46FFF74DB91446FFF7E0
:103C60005BBB7F20FFF7A0BA7F20FFF73EB94FF084
:103C7000000C8EF800C0FEF7FFBE00210170FEF7B9
:103C800015BF4FF0000E84F800E0FEF7E2BEDFF84B
:103C90004CA13868BAF800304D4A4E4CC31A82FB2A
:103CA000031ED917C1EB6E0101EB4101A3EB8103A8
:103CB00003EB430354F8233018447F2840F3468530
:103CC0007F3882FB0032C317C3EB620303EB43036D
:103CD000A0EB83007330DFF8E480DFF804B198F8DC
:103CE0000010C0B205F05AFEBBF80030022B7FF680
:103CF00027AC3968BAF80030354ACB1A82FB030E7C
:103D0000D817C0EB6E0000EB4000A3EB800303EB81
:103D1000430304EB8303586808447F2840F330874B
:103D20007F3882FB0032C317C3EB620202EB420210
:103D3000A0EB82007330C0B298F8001005F02EFEA0
:103D4000BBF80030032B7FF6FBAB3968BAF80030C4
:103D50001F4ACB1A82FB030ED817C0EB6E0000EB94
:103D60004000A3EB800303EB430304EB8304A06850
:103D700008447F2840F3A8817F3882FB0032C317B4
:103D8000C3EB620202EB4202A0EB8200733098F8B0
:103D90000010C0B205F002FEFFF7D2BB869FFF1FE6
:103DA000D89EFF1FE89EFF1F3A9FFF1FB59CFF1F75
:103DB0008E9DFF1FDC9CFF1FDD9CFF1F609DFF1F72
:103DC000E09CFF1F7089FF1F639FFF1F169DFF1F51
:103DD000ABAAAA2A683D0100319DFF1FE49EFF1F88
:103DE000F09CFF1FDFF848A399F80000BAF80030F4
:103DF000C54AC64CC31A82FB031ED917C1EB6E011C
:103E000001EB4101A3EB810303EB430354F823309F
:103E100018447F2840F39E847F3882FB0032C3170A
:103E2000C3EB620303EB4303A0EB83007330DFF8C3
:103E300004B3C0B205F0D6FDBBF80030022B7FF60C
:103E400000AA99F80010BAF80030AF4ACB1A82FBEA
:103E5000030ED817C0EB6E0000EB4000A3EB80030D
:103E600003EB430304EB8303586808447F2840F3C3
:103E700083867F3882FB0032C317C3EB620202EBFA
:103E80004202A0EB82007330C0B205F0ABFDBBF87C
:103E90000030032B7FF6D5A999F80010BAF800304E
:103EA000994ACB1A82FB030ED817C0EB6E0000EBC9
:103EB0004000A3EB800303EB430304EB8304A068FF
:103EC00008447F2840F3E5807F3882FB0032C31727
:103ED000C3EB620202EB4202A0EB82007330C0B27D
:103EE00005F080FDFFF7ADB9894F387802F040FD4D
:103EF000884B1B78002B00F0EA803B887E2B00F279
:103F0000E680854CDFF830922268D9F80010521A0A
:103F10000F2A40F2D380814A0133108899B2398048
:103F2000002800F0ED80C9B2C0B205F007FD7C4F5B
:103F3000226898F80030C9F800203B70FEF7FBBB00
:103F40000120FFF731B9DFF8E8A13868BAF800308E
:103F50006D4A6E4CC31A82FB031ED917C1EB6E016A
:103F600001EB4101A3EB810303EB430354F823303E
:103F700018447F2840F3F2837F3882FB0032C31756
:103F8000C3EB620303EB4303A0EB83007330DFF862
:103F9000A4B198F80010C0B205F000FDBBF80030E5
:103FA000022B7FF6C5AB3968BAF80030564ACB1AF7
:103FB00082FB030ED817C0EB6E0000EB4000A3EBB2
:103FC000800303EB430304EB8303586808447F2812
:103FD00040F39F867F3882FB0032C317C3EB620237
:103FE00002EB4202A0EB82007330C0B298F80010DE
:103FF00005F0D4FCBBF80030032B7FF699AB386892
:10400000BAF80030404AC31A82FB031ED917C1EB2D
:104010006E0101EB4101A3EB810303EB430304EBCE
:104020008304A36818447F2841DD7F3882FB003277
:10403000C317C3EB620202EB4202A0EB82007330B3
:10404000C0B298F8001005F0A9FCFFF771BB05F0AD
:10405000C9FCFEF7ECBF0021422005F06FFCFFE435
:104060000021402005F06AFCF5E499F8000005F015
:10407000B9FCEBE40120FEF738BF2A4B02931B8802
:10408000002B3FF4BBA8FFF7F8BB274B1A60FEF7E5
:1040900049BEFCF7E1FA22E71D4B1F4C19886A2044
:1040A00005F0CEFD98F800303B70FEF744BBFCF7FE
:1040B000D3FAC5E7FCF7D0FA71E4174C184F98F81B
:1040C00000303B70FEF737BBFCF7C6FA5FE6174BD4
:1040D0001B78002BF1D03B880D4F002BEDD00E4C00
:1040E000DFF854902268D9F80010521A0F2AE5D947
:1040F0000A4A013B108899B2398000287FF413AF37
:10410000C8B205F0BBFC12E7ABAAAA2A683D0100C1
:104110000C9DFF1F8A9FFF1FB49EFF1F5C9DFF1F0A
:10412000D29CFF1F169DFF1FB89CFF1F899FFF1F7A
:10413000E49EFF1FF09CFF1F709FFF1FDFF834A35A
:1041400099F80000BAF80030C64AC74CC31A82FB7F
:10415000031ED917C1EB6E0101EB4101A3EB8103F3
:1041600003EB430354F8233018447F2840F3FE83C5
:104170007F3882FB0032C317C3EB620303EB4303B8
:10418000A0EB83007330DFF8F0B2C0B205F02AFC78
:10419000BBF80030022B7FF654A899F80010BAF84B
:1041A0000030B04ACB1A82FB030ED817C0EB6E006A
:1041B00000EB4000A3EB800303EB430304EB83031A
:1041C000586808447F2840F3D8857F3882FB003246
:1041D000C317C3EB620303EB4303A0EB830073300D
:1041E000C0B205F0FFFBBBF80030032B7FF629A817
:1041F00099F80010BAF800309A4ACB1A82FB030EE5
:10420000D817C0EB6E0000EB4000A3EB800303EB7C
:10421000430304EB8304A06808447F287FF739AF89
:104220007F3882FB0032C317C3EB620303EB430307
:10423000A0EB8300733052E6DFF838A23868BAF892
:104240000030884A884CC31A82FB031ED917C1EB81
:104250006E0101EB4101A3EB810303EB430354F82F
:10426000233018447F2840F384837F3882FB003258
:10427000C317C3EB620303EB4303A0EB830073306C
:10428000DFF8F881DFF8F0B198F80010C0B205F05F
:1042900085FBBBF80030022B7FF652A93968BAF8CB
:1042A0000030704ACB1A82FB030ED817C0EB6E00A9
:1042B00000EB4000A3EB800303EB430304EB830319
:1042C000586808447F2840F364857F3882FB0032B9
:1042D000C317C3EB620303EB4303A0EB830073300C
:1042E000C0B298F8001005F059FBBBF80030032B62
:1042F0007FF626A93868BAF800305A4AC31A82FBFA
:10430000031ED917C1EB6E0101EB4101A3EB810341
:1043100003EB430304EB8304A36818447F287FF76F
:10432000D3AE7F3882FB0032C317C3EB620303EBCB
:104330004303A0EB8300733029E5DFF838A1386828
:10434000BAF80030474A484CC31A82FB031ED917FB
:10435000C1EB6E0101EB4101A3EB810303EB4303CE
:1043600054F8233018447F2840F306837F3882FBBB
:104370000032C317C3EB620303EB4303A0EB8300DC
:104380007330DFF8F4B098F80010C0B205F006FB07
:10439000BBF80030022B7FF6CBA93968BAF80030A1
:1043A000304ACB1A82FB030ED817C0EB6E0000EB2D
:1043B0004000A3EB800303EB430304EB8303586843
:1043C00008447F2840F3E9847F3882FB0032C3171A
:1043D000C3EB620303EB4303A0EB83007330C0B273
:1043E00098F8001005F0DAFABBF80030032B7FF6DE
:1043F0009FA93868BAF800301A4AC31A82FB031E14
:10440000D917C1EB6E0101EB4101A3EB810303EB73
:10441000430304EB8304A36818447F287FF747AE67
:104420007F3882FB0032C317C3EB620303EB430305
:10443000A0EB8300733003E601283EF465AA012354
:10444000FFF791BB094C0A490394FEF7E5BA4FF414
:104450007A43013BFDD199F8000005F0C3FAFFF75C
:104460007FB800BFABAAAA2A683F01008E9DFF1F3C
:10447000E89EFF1FE49EFF1FF09CFF1F609DFF1F33
:10448000DFF8E8A23868BAF80030B64AB64CC31A6A
:1044900082FB031ED917C1EB6E0101EB4101A3EBB7
:1044A000810303EB430354F8233018447F2840F37F
:1044B000E7817F3882FB0032C317C3EB620202EB55
:1044C0004202A0EB82007330DFF8A482DFF8A4B2CE
:1044D00098F80010C0B205F061FABBF80030022B6A
:1044E0007FF62EA83868BAF800309E4AC31A82FBBD
:1044F0000321DA17C2EB610202EB4202A3EB820353
:1045000003EB430304EB83035B6818447F2840F309
:1045100010847F380C2290FBF2F302FB13007330FF
:10452000C0B298F8001005F039FABBF80030032B40
:104530007FF606A83868BAF800308A4AC31A82FBA8
:104540000321DA17C2EB610202EB4202A3EB820302
:1045500003EB430304EB8304A36818447F287FF72D
:10456000B3AD7F380C2290FBF2F302FB13007330E3
:104570000DE4DFF8F8A199F80000BAF80030794AA4
:10458000794CC31A82FB031ED917C1EB6E0101EBF4
:104590004101A3EB810303EB430354F82330184498
:1045A0007F2840F367817F3882FB0032C317C3EB5B
:1045B000620202EB4202A0EB82007330DFF8B4B17A
:1045C000C0B205F00FFABBF80030022B7EF639AE10
:1045D00099F80000BAF80030624AC31A82FB03213E
:1045E000DA17C2EB610202EB4202A3EB820303EB98
:1045F000430304EB83035B6818447F2840F39083F4
:104600007F380C2290FBF2F302FB13007330C0B230
:1046100005F0E8F9BBF80030032B7EF612AE99F8EE
:104620000000BAF800304F4AC31A82FB0321DA17A0
:10463000C2EB610202EB4202A3EB820303EB4303F2
:1046400004EB8304A36818447F287FF722AD7F38EA
:104650000C2290FBF2F302FB130073303FE4DFF80F
:104660000CA13868BAF800303E4A3F4CC31A82FBAE
:10467000031ED917C1EB6E0101EB4101A3EB8103CE
:1046800003EB430354F8233018447F2840F3F580AC
:104690007F3882FB0032C317C3EB620202EB420297
:1046A000A0EB82007330DFF8CCB098F80010C0B2F5
:1046B00005F074F9BBF80030022B7FF639A8386892
:1046C000BAF80030274AC31A82FB0321DA17C2EB7B
:1046D000610202EB4202A3EB820303EB430304EB10
:1046E00083035B6818447F2840F32A837F380C22B9
:1046F00090FBF2F302FB13007330C0B298F8001085
:1047000005F04CF9BBF80030032B7FF611A8386890
:10471000BAF80030134AC31A82FB0321DA17C2EB3E
:10472000610202EB4202A3EB820303EB430304EBBF
:104730008304A36818447F287FF7B9AC7F380C2224
:1047400090FBF2F302FB1300733079E4FBF784FF74
:10475000FFF7C1BAFBF780FFFFF769BBFBF77CFFF0
:1047600015E400BFABAAAA2AF83F0100E49EFF1F90
:10477000609DFF1FF09CFF1FDFF82CA399F800003D
:10478000BAF80030C34AC44CC31A82FB0317D917C6
:10479000C1EB670101EB4101A3EB810303EB430391
:1047A00054F8233018447F2870DD7F3882FB0032B4
:1047B000C317C3EB620202EB4202A0EB820073302C
:1047C000DFF8E8B2C0B205F00DF9BBF80030022BFB
:1047D0007FF637A999F80000BAF80030AD4AC31A3D
:1047E00082FB0321DA17C2EB610202EB4202A3EB68
:1047F000820303EB430304EB83035B6818447F28C5
:1048000040F39B827F380C2290FBF2F302FB1300F3
:104810007330C0B205F0E6F8BBF80030032B7FF62A
:1048200010A999F80000BAF800309A4AC31A82FB1E
:104830000321DA17C2EB610202EB4202A3EB82030F
:1048400003EB430304EB8304A36818447F281ADDB9
:104850007F380C2290FBF2F302FB13007330C0B2DE
:1048600005F0C0F8FFF7EDB8012B3EF492A8012443
:10487000FFF7E4B9FBF7F0FEA0E6FBF7EDFE12E769
:10488000FBF7EAFE20E6FBF7E7FEE8E7FBF7E4FECE
:1048900096E7DFF814A23868BAF800307D4A7F4CFA
:1048A000C31A82FB031ED917C1EB6E0101EB410154
:1048B000A3EB810303EB430354F8233018447F2810
:1048C000DEDD7F3882FB0032C317C3EB620303EBEC
:1048D0004303A0EB83007330F6E5DFF8CCA199F831
:1048E0000000BAF800306B4A6C4CC31A82FB031EFE
:1048F000D917C1EB6E0101EB4101A3EB810303EB7F
:10490000430354F8233018447F28B3DD7F3882FBFB
:104910000032C317C3EB620303EB4303A0EB830036
:1049200073304BE6DFF880A13868BAF80030594A96
:104930005A4CC31A82FB031ED917C1EB6E0101EB5F
:104940004101A3EB810303EB430354F823301844E4
:104950007F2892DD7F3882FB0032C317C3EB6203EE
:1049600003EB4303A0EB830073309CE6FBF774FE7C
:1049700009E4FBF771FE83E4FBF76EFE01E5DFF867
:1049800028A199F80000BAF80030424A444CC31AF2
:1049900082FB0317D917C1EB670101EB4101A3EBC0
:1049A000810303EB430354F8233018447F287FF737
:1049B0006DAF7F3882FB0032C317C3EB620303EB9A
:1049C0004303A0EB83007330FAE6DFF8DCA038681D
:1049D000BAF800302F4A334CC31A82FB0321DA178E
:1049E000C2EB610202EB4202A3EB820303EB43033F
:1049F00054F8233018447F2840F398817F380C22E4
:104A000090FBF2F302FB13007330DFF8A480DFF8B1
:104A10009CB098F80010C0B204F0C0FFBBF80030A2
:104A2000022B1AD93868BAF800300C22C11A91FB4F
:104A3000F2F302FB131302FB03435B6818447F2865
:104A400040F353847F3890FBF2F302FB1300733082
:104A5000C0B298F8001004F0A1FFBBF80030032B9F
:104A60007EF66EADBAF8003038680C22C11A91FBA0
:104A7000F2F302FB131302FB0344A36818447F28DC
:104A80007FF722AB7F3890FBF2F302FB1300733009
:104A9000FFF77DB9ABAAAA2A683D0100D43901000D
:104AA000683F01007C420100E49EFF1FF09CFF1F55
:104AB000609DFF1FDFF814A399F80000BAF80030DA
:104AC000BD4ABE4CC31A82FB0321DA17C2EB610256
:104AD00002EB4202A3EB820303EB430354F82330BF
:104AE00018447F2840F319817F380C2290FBF2F3A1
:104AF00002FB13007330DFF8D8B2C0B204F072FFCB
:104B0000BBF80030022B19D999F80000BAF8003030
:104B10000C22C11A91FBF2F302FB131302FB0343B5
:104B20005B6818447F2840F3E7837F3890FBF2F3FB
:104B300002FB13007330C0B204F054FFBBF8003026
:104B4000032B7EF67EABBAF8003099F800000C22F9
:104B5000C11A91FBF2F302FB131302FB0344A36897
:104B600018447F287FF795AA7F3890FBF2F302FB69
:104B700013007330FFF7B3B9FBF76EFDFFF784B98D
:104B8000FBF76AFDFFF7D7B8DFF840A23868BAF83C
:104B90000030894A894CC31A82FB0321DA17C2EB21
:104BA000610202EB4202A3EB820303EB430354F8DE
:104BB000233018447F2840F3B6807F380C2290FBC6
:104BC000F2F302FB13007330DFF804B298F8001020
:104BD000C0B204F0E3FEBBF80030022B1AD93868EB
:104BE000BAF800300C22C11A91FBF2F302FB131346
:104BF00002FB03435B6818447F2840F37A837F38C5
:104C000090FBF2F302FB13007330C0B298F800106F
:104C100004F0C4FEBBF80030032B7EF689ADBAF871
:104C2000003038680C22C11A91FBF2F302FB131317
:104C300002FB0344A36818447F287FF738AA7F3813
:104C400090FBF2F302FB13007330FFF7F9B9DFF8C2
:104C50007CA199F80000BAF80030574A584CC31AA2
:104C600082FB0321DA17C2EB610202EB4202A3EBE3
:104C7000820303EB430354F8233018447F2845DDB7
:104C80007F380C2290FBF2F302FB13007330DFF845
:104C900040B1C0B204F0A6FEBBF80030022B18D918
:104CA00099F80000BAF800300C22C11A91FBF2F317
:104CB00002FB131302FB03435B6818447F2877DD74
:104CC0007F3890FBF2F302FB13007330C0B204F0A4
:104CD00089FEBBF80030032B7EF6B3AEBAF8003085
:104CE00099F800000C22C11A91FBF2F302FB131396
:104CF00002FB0344A36818447F287FF7C4AD7F38C4
:104D000090FBF2F302FB13007330A8E5FBF7A4FC61
:104D1000BDE7FBF7A1FCFFF768B9FBF79DFCEAE6EE
:104D2000FBF79AFC73E4FBF797FC4DE7FBF794FC69
:104D30006BE6FBF791FCFFF7F3BBFBF78DFC68E537
:104D4000FBF78AFCD9E4DFF884A03868BAF80030B1
:104D5000194A1C4C40E6DFF874A099F80000BAF834
:104D60000030154A174CADE6DFF860A099F8000056
:104D7000BAF80030104A144C71E7FBF76DFCFFF7EE
:104D80002FBADFF848A03868BAF800300A4A0D4C4C
:104D900001E7FBF761FCFFF7A3BAFBF75DFCFFF748
:104DA0001EBB039B1B78002B7EF42BAAFEF74EBA8A
:104DB000FBF752FC8AE700BFABAAAA2A7C4201009B
:104DC000F83F010024410100D4390100E49EFF1F97
:104DD000F09CFF1FA54C2388002B00F08783A44A7A
:104DE000DFF8A0B21288BBF800100332914228DD30
:104DF000A0493868A04A0988B2F800E0DFF87CC210
:104E0000411A0C2291FBF2F902FB19114FF09009A3
:104E100009FB0EFE02FB01E16FF00B0E5CF80110C6
:104E200001440EFB03107F2840F337847F3890FB4A
:104E3000F2F302FB13007330C0B298F8001004F0D4
:104E4000ADFDBBF8002023881344022B23DD894BE2
:104E5000894A38681B88B2F800C0DFF820E2C31A1C
:104E60000C2193FBF1F201FB1232902303FB0CF3B4
:104E700001FB023373445B6818447F2840F3C38509
:104E80007F3890FBF1F301FB13007330C0B298F848
:104E9000001004F083FDBBF8002023881344032B8B
:104EA00023DD744B744A38681B88B2F800C0DFF801
:104EB000CCE1C31A0C2193FBF1F201FB12329023D7
:104EC00003FB0CF301FB023373449B6818447F28F7
:104ED00040F39D857F3890FBF1F301FB13007330A5
:104EE000C0B298F8001004F059FDBBF800202388E8
:104EF0001344042B7EF71CAC5D4B1B88012B7EF406
:104F000017AC3A68A2F10C007F287FF7D0A88B3A43
:104F10000C2092FBF0F300FB13207330FFF790B8E6
:104F2000524C2388002B40F0D682DFF858B151490B
:104F3000514A0988D7F80080B2F800E04F48C1EB29
:104F4000080C0C229CFBF2F102FB11C14FF0900CFB
:104F50000CFB0EFE02FB01E16FF00B0E405880448B
:104F60000EFB03807F2840F39583A0F17F0393FB22
:104F7000F2F002FB10307330414BC0B2197804F0EC
:104F80000DFDBBF8002023881344022B23DD394A92
:104F9000394B11883868B3F800C0DFF8E0E0411AF7
:104FA0000C2291FBF2F302FB1311902303FB0CF391
:104FB00002FB013373445B6818447F2840F3748418
:104FC0007F3890FBF2F302FB130073302C4BC0B21E
:104FD000197804F0E3FCBBF8002023881344032B6A
:104FE00023DD244A244B11883868B3F800C0DFF869
:104FF0008CE0411A0C2291FBF2F302FB1311902377
:1050000003FB0CF302FB013373449B6818447F28B5
:1050100040F3E3847F3890FBF2F302FB130073301C
:10502000174BC0B2197804F0B9FCBBF800202388F4
:105030001344042B7EF784AA0D4B1B88012B7EF4AE
:105040007FAA3A68A2F10C007F2840F3B7818B3A1F
:105050000C2092FBF0F300FB13207330084BC0B21E
:10506000197804F09BFCFEF76BBA00BF689DFF1F28
:105070000A9DFF1FE49EFF1F949EFF1F643A0100DC
:10508000609DFF1FF09CFF1FCE4C2388002B40F03B
:10509000BF81DFF864B3CC49CC4A098899F8000095
:1050A000B2F800E0DFF85483C1EB000C0C229CFB4B
:1050B000F2F102FB11C14FF0900C0CFB0EFE02FB53
:1050C00001E16FF00B0E58F8011008440EFB0300CD
:1050D0007F2840F36E83A0F17F0393FBF2F002FB85
:1050E00010307330C0B204F07DFCBBF80020238880
:1050F0001344022B22DDB44AB44B118899F8000006
:10510000B3F800C0DFF8F4E2411A0C2291FBF2F38D
:1051100002FB1311902303FB0CF302FB01337344D6
:105120005B6818447F2840F35C847F3890FBF2F37F
:1051300002FB13007330C0B204F054FCBBF8002033
:1051400023881344032B22DD9F4AA04B118899F832
:105150000000B3F800C0DFF8A4E2411A0C2291FB72
:10516000F2F302FB1311902303FB0CF302FB013358
:1051700073449B6818447F2840F39D837F3890FBDD
:10518000F2F302FB13007330C0B204F02BFCBBF847
:10519000002023881344042B7EF753A88C4B1B88D4
:1051A000012B7EF44EA899F80020A2F10C007F2874
:1051B0007EF76FAF8B3A0C2092FBF0F300FB1320CD
:1051C0007330FEF78CBEDFF800A299F80000BAF841
:1051D0000030804CC11A0C2291FBF2F302FB131336
:1051E00002FB03F3E35818447F287FF78FAD7F3825
:1051F00090FBF2F302FB1300733048E5764B1A88FC
:10520000182A13D03B681344A3F118007F2840F3F9
:105210004F830C20973B93FBF0F200FB123303F11A
:1052200073006E4BC0B2197804F0B8FB6C4B6D493B
:105230001A78022A94BF013200221A701A7831F8C3
:105240001200182810D10424022A02F10100C2B26F
:1052500088BF002231F81200182804D1013CF3D194
:105260001A70FEF76DB91A703B680344A3F1180079
:105270007F2840F3A3800C20973B93FBF0F200FBC8
:10528000123303F17300E9E6534B1B88182B12D03D
:1052900099F800201344A3F118007F2840F33483C9
:1052A0000C20973B93FBF0F200FB123303F17300E9
:1052B000C0B204F097FB4A4A4A4B127833F81230D6
:1052C000182B3DF4BEAF99F800201344A3F1180049
:1052D0007F287EF7DEAE0C20973B93FBF0F200FBBD
:1052E000123303F17300FEF7FABDFBF7B5F9FFF7D0
:1052F000AFBBFBF7B1F988E4FBF7AEF91BE43A4B1F
:105300001B78002B00F05882384B1B78002B7DF463
:1053100040AB374B1B78002B3DF43BABB8F800306B
:1053200034490A3BA8F800300A70FDF732BB2A4B1B
:105330001A88182A13D03B681344A3F118007F2859
:1053400040F3BC820C20973B93FBF0F200FB12333E
:1053500003F17300C0B298F8001004F01FFB204B5B
:1053600020491A78022A94BF013200221A701A7852
:1053700031F81200182810D10424022A02F1010089
:10538000C2B288BF002231F81200182804D1013CB3
:10539000F3D11A70FEF7CCB91A703B680344A3F13D
:1053A00018007F287EF783AE0C20973B93FBF0F22A
:1053B00000FB123303F17300FEF742BEFBF74CF91A
:1053C0004CE600BF689DFF1FE49EFF1F949EFF1FD9
:1053D0000A9DFF1F7C420100FA9CFF1F609DFF1F7A
:1053E000A889FF1F009FFF1F869FFF1F879FFF1F2A
:1053F000889FFF1FDD9CFF1FF09CFF1F643A010088
:10540000DFF828A399F80000BAF80030C04CE1E6B4
:10541000C04ADFF82CB31288BBF800100332914267
:105420007FF763AE37E6BC4B1B88182B12D099F878
:1054300000201344A3F118007F2840F342820C207F
:10544000973B93FBF0F200FB123303F17300C0B201
:1054500004F0C8FAB14AB24B127833F81230182B64
:105460007FF431AFFDF7EDBEAB4B1A88182A13D08D
:105470003B681344A3F118007F2840F3AB820C2053
:10548000973B93FBF0F200FB123303F17300C0B2C1
:1054900098F8001004F082FAA04BA1491A78022A69
:1054A00094BF013200221A701A7831F812001828BD
:1054B0007FF473AF0424022A02F1010294BFD2B236
:1054C000002231F8120018287FF466AF013CF2D1B7
:1054D0001A70FEF72DB98F4ADFF864B21288BBF854
:1054E0000010033291427FF74CAD20E5DFF850B257
:1054F0007EE4894B1A88182A13D03B681344A3F121
:1055000018007F2840F323820C20973B93FBF0F296
:1055100000FB123303F17300824BC0B2197804F020
:105520003DFA7E4B7E491A78022A94BF013200224E
:105530001A701A7831F8120018287FF495AE0424F6
:10554000022A02F1010294BFD2B2002231F8120005
:1055500018287FF488AE013CF2D11A70FDF7F0BF35
:10556000714C2388002B40F04382DFF8D4B16F499F
:1055700099F800006E4A09881788DFF8B8E1411AE7
:105580000C2291FBF2FC02FB1C114FF0900C0CFB67
:1055900007F702FB01716FF00B075EF80110014481
:1055A00007FB03107F2840F320827F3890FBF2F343
:1055B00002FB13007330C0B204F014FABBF80020F1
:1055C00023881344022B21DD584B594A99F80000D7
:1055D0001B88B2F800E0574FC31A0C2193FBF1F27D
:1055E00001FB1232902303FB0EF301FB02333B4419
:1055F0005B6818447F2840F314827F3890FBF1F3F6
:1056000001FB13007330C0B204F0ECF9BBF80020CA
:1056100023881344032B21DD444B454A99F80000AD
:105620001B88B2F800E0434FC31A0C2193FBF1F240
:1056300001FB1232902303FB0EF301FB02333B44C8
:105640009B6818447F2840F3E6817F3890FBF1F394
:1056500001FB13007330C0B204F0C4F9BBF80020A2
:1056600023881344042B7EF7ECA92A4B1B88012BBB
:105670007EF4E7A999F80020A2F10C007F287FF7BB
:1056800002A98B3A0C2092FBF0F300FB132073303D
:10569000FFF7E5B8FAF7E0FF6EE4FAF7DDFFFFF792
:1056A000CBBB254B1A88182A13D03B681344A3F1AF
:1056B00018007F2840F3BE810C20973B93FBF0F24B
:1056C00000FB123303F17300C0B298F8001004F02D
:1056D00065F9124B19491A78022A94BF0132002247
:1056E0001A701A7831F8120018287FF456AE042484
:1056F000022A02F1010294BFD2B2002231F8120054
:1057000018287FF449AE013CF2D11A70FEF710B8A8
:10571000244101000A9DFF1F029DFF1FA889FF1F52
:10572000749EFF1F609DFF1F689DFF1FE49EFF1F6B
:10573000949EFF1F643A0100049DFF1F7C9EFF1F83
:10574000F09CFF1FC24B1A88182A13D03B681344E1
:10575000A3F118007F2840F36A810C20973B93FB4C
:10576000F0F200FB123303F17300BA4BC0B21978A8
:1057700004F014F9B84BB9491A78022A94BF0132DF
:1057800000221A701A7831F8120018287FF46CADD4
:105790000424022A02F1010294BFD2B2002231F89D
:1057A000120018287FF45FAD013CF2D11A70FDF7AA
:1057B000C7BEFAF751FF95E4A94B1B78002B7DF487
:1057C000E8A8A84B1B78002B3DF4E3A8B8F80030FC
:1057D000A549013BA8F800300A70FDF7DAB89C4BE8
:1057E0001B88182B12D099F800201344A3F118003D
:1057F0007F2840F313810C20973B93FBF0F200FBD2
:10580000123303F17300C0B204F0ECF8924A934BE8
:10581000127833F81230182B7FF455ADFDF711BD17
:105820008F4B1B78002B7DF494AD8E4B1B78002B97
:105830003DF4AFA8B8F800308B490133A8F8003028
:105840000A70FDF7A6B8894B1B88182B12D099F85F
:1058500000201344A3F118007F2840F3E5800C20BA
:10586000973B93FBF0F200FB123303F17300C0B2DD
:1058700004F0B8F8784A7E4B127833F81230182BBF
:105880003EF4DFA899F800201344A3F118007F2804
:105890007EF7F9AF0C20973B93FBF0F200FB12333D
:1058A00003F17300FEF7DBBFFAF7D6FEFFF78EBBFE
:1058B000FAF7D2FEB5E4FAF7CFFE65E4FAF7CCFECC
:1058C00048E5FAF7C9FEC2E5614B1B88182B12D0D8
:1058D00099F800201344A3F118007F2840F3AD800D
:1058E0000C20973B93FBF0F200FB123303F17300A3
:1058F000C0B204F077F8584A584B127833F8123097
:10590000182BBFD1FEF79DB8FAF7A6FED0E4594B8D
:105910001B88182B12D099F800201344A3F118000B
:105920007F2840F38D800C20973B93FBF0F200FB27
:10593000123303F17300C0B204F054F8464A4E4BE0
:10594000127833F81230182B9CD1FEF77AB8FAF798
:1059500083FEE1E5494B00227F2107201A8003F0F6
:10596000EDFF7F210B2003F0E9FFFDF725BD444B40
:1059700001227F2107201A8003F0E0FF7F210B2006
:1059800003F0DCFFFDF710BD3E4B04227F21072012
:105990001A8003F0D3FF00210B2003F0CFFFFDF7A7
:1059A000FCBC384B02227F2107201A8003F0C6FF7F
:1059B0007F210B2003F0C2FFFDF7EABC314B002131
:1059C00007201C8003F0BAFF7F210B2003F0B6FFF5
:1059D000FDF7D9BCFAF740FE59E5FAF73DFEFFF7AF
:1059E0001FBBFAF739FEFFF7A6BBFAF735FEE2E573
:1059F000254ADFF89CB01288BBF8001003329142B0
:105A00007FF7DCADB3E5FAF727FEFFF73FBAFAF709
:105A100023FEFFF765BAFAF71FFE1CE6FAF71CFE35
:105A2000F1E6FAF719FEEEE5FAF716FE1FE7FAF7C8
:105A300013FE9AE6FAF710FE46E6FAF70DFE57E770
:105A4000FAF70AFE77E7114B0393FDF716BF00BF85
:105A5000049DFF1F609DFF1FA889FF1F7C9EFF1FE5
:105A6000879FFF1F889FFF1FDD9CFF1FFA9CFF1F62
:105A7000009FFF1F029DFF1F749EFF1FD49CFF1FEE
:105A8000829DFF1FDA9EFF1F0A9DFF1F8E9DFF1F35
:105A9000F09CFF1F38B508F0DFFA0B4805F0DEFE7A
:105AA00000234FF07E5201210848FAF7DFFC084B33
:105AB000084A0949802400251C7118461D60BDE86C
:105AC00038400BF0E3BD00BF7C9DFF1FB89EFF1F59
:105AD000449FFF1F1C89FF1FFD05000010B50446F1
