:1000000000800020BD01000025CA0000DDC90000FD
:10001000DDC90000DDC90000DDC90000DDC9000048
:10002000DDC90000DDC90000DDC9000025CA0000EF
:1000300025CA0000DDC90000A5C00000A9C100005C
:1000400025CA000025CA000025CA000025CA0000F4
:1000500025CA000025CA000025CA000025CA0000E4
:1000600025CA000025CA000025CA000025CA0000D4
:1000700025CA000025CA000025CA000025CA0000C4
:1000800025CA000025CA000025CA000025CA0000B4
:1000900025CA000025CA000025CA000025CA0000A4
:1000A000E1A50000EDA5000025CA000025CA00005A
:1000B00025CA000025CA000025CA000025CA000084
:1000C00025CA000025CA000025CA000025CA000074
:1000D00025CA000025CA000025CA000025CA000064
:1000E00025CA000025CA000025CA000025CA000054
:1000F00025CA000091EA000025CA0000BDEB0000FF
:1001000025CA0000FDD3000025CA000025CA000052
:1001100025CA000025CA000025CA000025CA000023
:1001200025CA000025CA000025CA000025CA000013
:1001300025CA000025CA000025CA000025CA000003
:1001400025CA000025CA000025CA000025CA0000F3
:1001500095C20000A9C20000BDC20000D1C20000CB
:1001600025CA000019D7000025CA000025CA0000D2
:1001700025CA000025CA000025CA000025CA0000C3
:1001800025CA000025CA000025CA000025CA0000B3
:1001900025CA000025CA000025CA000025CA0000A3
:1001A00025CA000025CA000025CA000025CA000093
:1001B00025CA000025CA000025CA0000564B4CF293
:1001C000205210B51A804DF628121A8000BF00BFC9
:1001D0000CF02CFC514B4FF010621A60504A9A60A0
:1001E000504ADA60504A136813F4807304D14F49BF
:1001F0000B604FF4A85313604D4B1A78110703D5C9
:100200001A7842F008021A704A4B4B492A221A7097
:100210004A4A4B4B8B4204D252F8040F43F8040B6A
:10022000F8E7484B484900228B4202D243F8042B9E
:10023000FAE74649464A002352F8230041F82300D2
:1002400001336F2BF8D1434B434A802103F8011B44
:100250009342FBD1414B3D4A1A60414B8A221A70AE
:10026000A3F5805324225A70A0221A709A7992071B
:10027000FCD59A79D406FCD43A4A937903F00C035E
:10028000082B384BF9D103221A7140225A719A79FE
:100290009006FCD5334A9179324B4906FBD5324A58
:1002A000324911600221516020221A709A7902F0BD
:1002B0000C020C2AFAD12E4B2E4A1A602E4B2F4AD2
:1002C0001A6000225A60072243F8042C2C4AC3F813
:1002D0000C2D62B60CF05AFF144B1B68DA0705D5DB
:1002E00028480CF027FD284B284A1A60284B1B7819
:1002F0005B0609D5244C254B22689A4204D121483B
:100300000CF018FD002323600FF012FF0CF094FB9B
:100310000CF0C2FAFEE700BF0E200540308004401A
:10032000823F04000100002B10D0034014D0034092
:1003300002D0074000E00740949BFF1F3C390100BA
:100340004088FF1F949BFF1F98A3FF1F0082FF1F81
:100350000000000000E400E05FE400E008ED00E0E1
:100360000050064000400640448004400000030165
:1003700004800440C010050014E000E0FF76010096
:1003800000002020D049145F1CE00340A5C3945A0C
:1003900000F00740FFFFFFFFFFFFFFFFFFFFFFFF32
:1003A000FFFFFFFFFFFFFFFFFFFFFFFFFFFFFFFF5D
:1003B000FFFFFFFFFFFFFFFFFFFFFFFFFFFFFFFF4D
:1003C000FFFFFFFFFFFFFFFFFFFFFFFFFFFFFFFF3D
:1003D000FFFFFFFFFFFFFFFFFFFFFFFFFFFFFFFF2D
:1003E000FFFFFFFFFFFFFFFFFFFFFFFFFFFFFFFF1D
:1003F000FFFFFFFFFFFFFFFFFFFFFFFFFFFFFFFF0D
:10040000FFFFFFFFFFFFFFFFFFFFFFFFDEF9FFFF23
:1004100010B5054C237833B9044B13B10448AFF33E
:1004200000800123237010BD949BFF1F000000007B
:1004300040390100084B10B51BB108490848AFF31B
:1004400000800848036803B910BD074B002BFBD0A0
:10045000BDE81040184700BF00000000989BFF1F38
:1004600040390100949BFF1F0000000038B504468E
:10047000104621700A491D460FF03CFC01464FF022
:100480007E500FF0EBFC07490FF034FCE560606034
:10049000256165610CF00AFEE061204638BD00BFB1
:1004A000DB0FC9400024744938B50446104621705A
:1004B00009491D460FF01EFC01464FF07E500FF01B
:1004C000CDFC06490FF016FCE560606025616561B2
:1004D0000CF0ECFDE06138BDDB0FC940002474492D
:1004E00038B503780446032B20D8DFE803F01A1848
:1004F0001002C16840690FF0F3FA0D4905466068C3
:100500000FF0ACFC014628460FF0A8FC38BD0849A6
:1005100040680FF0A3FCE1680FF0ECFB38BDC06849
:1005200038BDC16840690FF0DBFA38BD002038BD26
:100530000024744970B504460E460CF0B7FD05461C
:10054000E069281A0FF082FBE3682361E5616661C8
:10055000A061014660680FF081FC0146A060104870
:100560000FF07CFC0EF052FF0EF0F2FB0FF064FA7D
:10057000054601464FF07E500FF0B2FA61690FF068
:10058000B9FB2169064628460FF0B4FB0146304608
:100590000FF0A8FAE0602046BDE87040FFF7A0BF6A
:1005A000000080BF38B50E201C4C0CF04FF821889D
:1005B0001B4B884205461A881DDA0023511AB1F5F3
:1005C000805FAABF1B03C3EB03330131142093FBED
:1005D000F1F10CF0C1FB134B1988F1B923889D424E
:1005E00010DAC3F57F630F33282091FBF3F1BDE8E8
:1005F00038400CF0B1BB9042D4BFC1EB0003C1EB5B
:100600000203DBE740F6FF718D42D4BFC3EB050167
:10061000C3EB0101C1EB0131E3E738BD7E9CFF1F55
:10062000329EFF1FE89DFF1F10B504460BF010FE21
:10063000204610BD70B44C88A04220D9012301335C
:10064000DBB21CB2660031F8144084421D46F6D37A
:10065000A04211D005F10045013D965B31F815101F
:1006600032F81530401AF21A00FB02F0641A90FBBF
:10067000F4F4E01870BC7047905B70BC70470226C1
:100680000125E5E700280CDA064A434282FB0320F5
:10069000DA17C2EB600000EB4000A3EB8000C0F172
:1006A0000C007047ABAAAA2A2DE9F0470C200BF0EA
:1006B00099FF0C200CF04EFCBB4914200CF05AFCA6
:1006C000BA49BB4809F092FC022103200CF0E8FC77
:1006D000022104200CF0E4FC022105200CF0E0FCD7
:1006E000022106200CF0DCFC01210A200CF0D8FCD1
:1006F000012109200CF0D4FC01210D200CF0D0FCCC
:10070000012128200CF0CCFC012114200CF0C8FCA5
:10071000012116200CF0C4FC172001210CF0C0FCB4
:1007200004200CF0AFFC00283BD005200CF0AAFC04
:10073000054600283CD0002528469E4C207006F037
:10074000CDFE24784CBB284608F0DEFA9A4B9B4934
:100750001B889B4D098829709A4A9B4EA3F5AF715F
:1007600040F23A7303FB01F382FB0312DB17A3EBA6
:100770006213323301210D2033600CF07DFC6420C4
:100780000CF0B6FC4FF416710A200CF0E5FA5D216E
:100790008E4809F0D5FF90B9FEE7BDE8F04709F0B3
:1007A00035BB06200CF06EFC0028BED10125C4E745
:1007B00003200CF067FCB0FA80F04009BDE764202C
:1007C0000CF096FC21460A200CF0C6FA4FF4967104
:1007D00009200CF0C1FA5C217D4809F0B1FF00B995
:1007E000FEE764200CF084FC214609200CF0B4FAEA
:1007F0004FF4967116200CF0AFFA5B21754809F0A2
:100800009FFF00B9FEE764200CF072FC2146162021
:100810000CF0A2FA4FF4967117200CF09DFA6420A8
:100820000CF066FC214617200CF096FA64200CF0C0
:100830005FFC21460D200CF01FFC674A67481268D8
:10084000DFF8E8A1DFF8A091654EDFF8E481654F9D
:1008500000230121FFF728FE0123C9F8004034607E
:10086000C8F800408AF8003004240F200CF032FE53
:10087000D8F8003003440E20C8F800300BF0E6FE34
:10088000D9F800309AF800200344C9F80030152048
:10089000002A78D00BF0DAFE33681844306004F098
:1008A000010080F0010005F06BFB3B88002B14BFBA
:1008B0004B20DC200CF01CFC013CD6D1D8F80030D9
:1008C000D9F80020484930683C88DFF868E1474F94
:1008D000002BB8BF0333002AB8BF033292100A605E
:1008E0004349444A098812880028B8BF03309B1046
:1008F000801030605E1A19443E60CEF800103E4F02
:100900003E4E3F49C8F80030C2EB000E0244C7F823
:1009100000E032600B605CB94FF4FA7005F040FB08
:1009200005F02AFB07F0CEF84FF4AF600CF0E0FBC7
:10093000344B012404201C600CF0A4FB10B9324B92
:1009400028701C70314B1B881C2B23D0304C04F1B9
:10095000C80523200BF07AFE44F8040F01200CF0A8
:10096000C7FBA542F5D12B4A2B4B1078187008F025
:10097000D5F805F0FDFA45F6BF5228492848BDE8EC
:10098000F0470BF01BBC11200CF0A4FD3368184499
:10099000306084E7234B18880028D7D0224BC0B2A0
:1009A000197808F003F8D1E7001B3746801A0600D3
:1009B000A090FF1FF09BFF1F2C9EFF1F429EFF1F5A
:1009C0004C9CFF1FB5814E1B008AFF1FEC9BFF1F35
:1009D0007C9CFF1F209CFF1F2489FF1FAC9DFF1FD5
:1009E000B09BFF1FDA9DFF1FCC9BFF1F049EFF1FC4
:1009F000128AFF1F5C89FF1F149CFF1F509CFF1F62
:100A0000449EFF1F0C9EFF1FDB9BFF1F129EFF1FBC
:100A1000889CFF1F9C9DFF1F779DFF1FA505000061
:100A2000249EFF1F549CFF1F0E9CFF1FA09DFF1FB5
:100A3000009EFF1F7C9DFF1FF0B40E8886420DD2E2
:100A400003F10043013B31F81350854202D9F0BC59
:100A5000FFF7F0BD32F81300F0BC70471088F0BC0F
:100A6000704700BF094B1B880C2B09D8084A80B27D
:100A700052F8232028B143F6FE73984203D9108C14
:100A80007047108870470349FFF7D4BDE89BFF1FEC
:100A900060140100FC150100374A38491088384AB3
:100AA000F8B5384B12881B68834248DB9342A8BFD5
:100AB000134698420B60C8BF002342DD101AB0F500
:100AC000804FAABF9B03C3EB8333013093FBF0F04D
:100AD000FFF7C8FF2C4B2D4F1C883B68C0F3C61591
:100AE00005FB04F47F2CA8BF7F249D42064608D056
:100AF000274B1B88002B38D1264B1B88002B30D16D
:100B00003D60254D2B689E4205D0214B1B885A1F06
:100B1000032A1DD92E60214D2B689C420ED0204BFC
:100B2000188848B11A4B1F4A1B88D35C834203D0F4
:100B3000C0B2E1B207F03AFF2C60F8BDF8BD034641
:100B400008609A42D4BFC0EB0203C0EB0303B5E7D1
:100B5000144AD05C2030C0B206F07F0107F026FFB7
:100B6000D8E7284607F096FFCAE70E4A2946D05C28
:100B700007F01CFFC0E700BF7E9CFF1FB89BFF1F54
:100B8000329EFF1FE49DFF1FD09BFF1F2C9CFF1F69
:100B9000D09DFF1F769CFF1F3C9EFF1F789CFF1F70
:100BA000DE9DFF1F048AFF1F2DE9F04F012089B051
:100BB0000CF090FCAF4B186000200CF08BFCAE4B9F
:100BC000AE4A1B8810600C2B00F03B81AC4BAD4A49
:100BD00019880093AC4B52F8214000221A70AB4B9D
:100BE000AB4D1B88AB4A2E88013B32F91370002EA7
:100BF0005CD0A94BA94A1B88A9491278013B31F95D
:100C00001380002A40F0DF8011200CF063FCA54B1C
:100C10000193D3F800A00646B24540F3DF80A24B13
:100C2000DFF8A4921B88A14A012BD9F80030B2F852
:100C300000B09F4A02922046C8EB030800F09A8257
:100C40000FF004F8029A52F82B100FF053F80146F7
:100C500000200EF045FF0FF013FACAEB0802B04572
:100C6000B8BFB0469042CAEB080880F2968200FBFB
:100C70000888013298FBF2F08E4BDFF85082029325
:100C8000D8F80030034403EBD3735B10C8F800308E
:100C90002B88012B12D1884BDFF834B20393874B9A
:100CA000DBF8005004934FF0000A47E07D4B0193BE
:100CB000DFF814927F4BDFF8148202937E4B03938C
:100CC0001D460F200CF006FC2B689842824641DA44
:100CD000754A1288012A00F01D82744A0593128811
:100CE000734D049220460EF0B1FF049ADFF8E0B194
:100CF00055F82210DBF800500EF0FCFF01460020F2
:100D00000EF0EEFE0FF0BCF9EF1B059B5745A7EB6D
:100D10000302B8BF5746FF1A9042BABF013200FB28
:100D20000777474397FBF2F7D8F80020634B04930B
:100D3000BB1803EBD3735B10C8F80030604B1B8803
:100D4000013B032B00F2B082DFE813F06301A9013D
:100D5000C4008601594B04931B68984240F3C2813A
:100D6000514A1288012A00F0A682504A079311883E
:100D70004F4A0691204605920EF068FF059A0699A3
:100D8000DFF84CB152F82110DBF800500EF0B2FF42
:100D90000FF076F9079B2F445745A7EB0302A8BF36
:100DA0005746FF1AD8F800309042BABF00FB0777C9
:100DB0000132474397FBF2F73B4403EBD3735B10DD
:100DC000C8F80030BAE715200BF040FC354B019312
:100DD000D3F800A00646B2453FF721AF354B02934A
:100DE000D3F800A0B24580F289812F4BDFF8D8906C
:100DF0001B882E4A012BD9F80030B2F800B02C4ADB
:100E000003922046984400F070820EF01FFF039A70
:100E100052F82B100EF06EFF0FF032F9B045CAEB0E
:100E20000802A8BFB046CAEB08089042B6BF00FB54
:100E3000088800FB08F8013298FBF2F0DFF88C809C
:100E40001EE7204B1B78002B3FF4C0AE0C4B0D4A25
:100E5000198800930C4B52F8210001221A700EF0F1
:100E6000F5FE4FF07C510EF045FF0FF009F90446F6
:100E7000B5E600BF1C9CFF1F129EFF1F509EFF1F68
:100E8000229CFF1F8889FF1FC29BFF1F108AFF1F24
:100E9000889DFF1F44190100608AFF1FA09DFF1F4E
:100EA000B4150100149CFF1F629CFF1FE49BFF1FF1
:100EB0005C190100509CFF1F049EFF1F7C9DFF1FBB
:100EC0005E89FF1FDA9BFF1FB09BFF1F189EFF1F4D
:100ED000009EFF1F28460EF0B9FEB2490EF00AFF31
:100EE000054650460EF0B2FEAF490EF003FF014634
:100EF00028460EF0F7FD0FF0C3F80546CBF800507A
:100F0000D9F800000EF0A2FEA6490EF0F3FE074647
:100F100030460EF09BFEA4490EF0ECFE014638462A
:100F20000EF0E0FD0FF0ACF8C9F800009F4AA04BAE
:100F3000168819889F4AA04B12681B889F4FC6EBE2
:100F4000050E3544039EC6F800E0461A084404998D
:100F50000D6001990E6002993E8808609A4280F205
:100F600089810025C3EB060E954974450F6880F210
:100F70007681611C9F4205FB01F50EF1010E95FB88
:100F8000FEF5C0F2BE81BE42A8BF3E46F61A01FB86
:100F900006F494FBFEF49A4200F33681BB42C0F2A1
:100FA0003381884C20680EF051FE87490EF0A2FE76
:100FB00086490EF097FD0FF063F8A0F5FF531C3B38
:100FC000082B98BF4FF40050D8F800301844002880
:100FD0002060C0F24281B0F5804F80F252817C4B9C
:100FE0001B781BB1B0F5005F40F05381794D2B7831
:100FF000002B40F05481784D20682B68714C98424A
:1010000004D080B207F0B0FD23682B6009B0BDE8C2
:10101000F08F28460EF01AFE70490EF06BFE054662
:1010200050460EF013FE6E490EF064FE014628464F
:101030000EF058FD0FF024F80546CBF80050D9F813
:1010400000000EF003FE65490EF054FE07463046E0
:101050000EF0FCFD62495FE728460EF0F7FD5A49A5
:101060000EF048FE054650460EF0F0FD5D490EF0CC
:1010700041FE014628460EF035FD0FF001F8054609
:10108000CBF80050D9F800000EF0E0FD4E490EF00C
:1010900031FE074630460EF0D9FD52493CE728465E
:1010A0000EF0D4FD50490EF025FE054650460EF0D8
:1010B000CDFD4E490EF01EFE014628460EF012FDF3
:1010C0000EF0DEFF0546CBF80050D9F800000EF018
:1010D000BDFD45490EF00EFE074630460EF0B6FD4A
:1010E000424919E7D8F80030DFF810B103EBD373A9
:1010F0005B10DBF80050C8F800301FE6DFF8008115
:10110000DFF80091D8F8003003EBD3735B10C8F818
:101110000030BDE5364A06931188364A05912046CF
:101120000492DFF8D8B00EF091FD049A0599DBF82F
:10113000005052F821100EF0DDFD0EF0A1FFEF1B64
:10114000069B5745A7EB0302B8BF5746FF1AD8F8CE
:1011500000309042BABF013200FB0777474397FB4C
:10116000F2F73B4403EBD373234A04925B10C8F8B5
:101170000030E3E50EF06AFD029A52F82B100EF0F3
:10118000B9FD0EF07DFFCAEB0802B045B8BFB0460E
:101190008242CAEB08083FF76AAD00FB08F898FBEB
:1011A000F2F069E5CDCC4C3FCDCC4C3E128AFF1F0E
:1011B0005C89FF1F1C9CFF1FE09DFF1F009CFF1F01
:1011C000509EFF1FBC89FF1F9A99193FCDCC4C45FB
:1011D000069FFF1F749CFF1F2089FF1F3333733F3F
:1011E000CDCC4C3DCDCCCC3E6666663FCDCCCC3D27
:1011F000E49BFF1F5C1901007C9DFF1F009EFF1FE9
:10120000189EFF1FB09BFF1F009B1B88002B3FF405
:10121000C8AE2B1B002BB8BF5B42092B47DD05F581
:1012200000500130001B0EF011FD3B493B4C0EF00D
:1012300061FD054620680EF009FD39490EF05AFDA2
:10124000014628460EF04EFC0EF01AFFD8F800308A
:10125000184400282060BFF6BEAE002213E09F4273
:1012600005FB04F5B8BF002195FBFEF54BDA91FBB9
:10127000FEF490E6B242D4BFC3EB0205C3EB060511
:1012800070E643F6FF72274B22601B78002B3FF479
:10129000ADAE04F071FE244B01221A70ABE604F0EF
:1012A00067FE00232B70A6E6D9F800003EE64FF457
:1012B00000501A4C88E61D491D4A069320460D88A9
:1012C00005920EF0C3FC059ADFF868B052F82510BD
:1012D000DBF800500EF00EFD014600200EF000FC81
:1012E0000EF0CEFE2F44069B56E50EF0AFFC039A9F
:1012F00052F82B100EF0FEFC014600200EF0F0FB21
:101300008AE51E4642E6B742D4BFC3EB0701C3EBF2
:10131000060104FB01F1AAE7CDCCCC3EBC89FF1F3E
:101320009A99193F069FFF1F749CFF1FE49BFF1FA4
:101330005C190100009EFF1F08B5244B1B88FBB100
:10134000234B1B78FBB1234B1B78E3B1224B1B785B
:10135000CBB1224B1B78B3B1214B22481A78C2B9CA
:10136000214A22490088128809680244B1EB620FC1
:1013700009DD01221A706420BDE8084004F010BEA7
:10138000174A117801B908BD1370BDE8084007F08D
:10139000B5BB154A16490088128809680244B1EBAA
:1013A000620FF0DD00221A7007F0A8FB642004F041
:1013B000F7FD642004F0F4FD642004F0F1FD4FF427
:1013C0001670BDE808400BF093BE00BF8A9DFF1F5A
:1013D0002E9EFF1F2F9EFF1F309EFF1F319EFF1F5F
:1013E000E69BFF1F009CFF1FE09DFF1F1C9CFF1F33
:1013F000509EFF1F38B5114C232025780BF026F99D
:101400000F4A42F82500131F02F1C400002253F8CE
:10141000041F83420A44FAD123780A4907480A4C38
:101420000133DBB2322B81FB025108BF0023D217FC
:10143000C2EB21120370226038BD00BFD29BFF1F98
:101440008C9CFF1F1F85EB51FC9DFF1F2DE9F04F6A
:10145000B84CB94D2068B94F83B00EF0F7FBB849CE
:101460000EF048FC064610200CF034F80EF0EEFBAF
:10147000B4490EF03FFC31460EF034FB0EF000FE96
:101480002988206088423B8843DA9E465B1A7F2B7E
:101490004FF0000247DDD2015E1C92FBF6F2AA4E2D
:1014A000DFF8C882B6F800C0C8F80020BCF1190FF8
:1014B00000F0DF80BCF11A0F00F01781BCF11E0FA5
:1014C00000F020810126B146A04A1288002A00F0CF
:1014D0009D808842C0F207817045D4BFC1EB0000F7
:1014E000C1EB0E009A42BABF02FB00000133504329
:1014F00090FBF3F3964A1360964B1888C0B9964A4E
:101500001288AAB9954B197801B11A7003B0BDE8D9
:10151000F08F9842D4BFC1EB0002C1EB03029E469C
:101520005B1A7F2BB7DCC2EBC21292FBF3F2B6E779
:101530002988D4F800E0DFF80082DFF8F8A17145CF
:101540006CDCDFF818C29CF80020002A2ED14FF086
:10155000010B04288CF800B028D1002E40F09481B3
:101560007D4B18880028D1D0B9F1000FCED0236868
:101570002C883A88A34280F265810023141B7E2CBC
:10158000774DD5BFC3EB8313C3EBC3135B000134AB
:1015900093FBF4F42B680134A34203D0C0B2E1B250
:1015A00007F004FA2C6003B0BDE8F08F012800F0CA
:1015B000F680022800F0EB800328D1D1694B1B880C
:1015C000092BCDD0002ECBD023682E883A88B34289
:1015D00080F27B810023961B7E2EDFF88CA1D5BF85
:1015E000C3EB8313C3EBC3135B00013693FBF6F627
:1015F000DAF800300136B34203D0F1B24A2007F0E6
:10160000D5F9CAF80060ABE716469146BCF11E0F4B
:101610007FF472AF0022DFF858817EE04F4B1A78DA
:10162000002A3FF473AF002401281C7000F0A4804E
:10163000022840F00E81002E00F0A3804A4D2B6856
:10164000002B00F09E800420214607F0AFF9424BAA
:101650002C60188800283FF459AFB9F1000F3FF40F
:1016600055AFC0B2002107F0A1F93D4B00221A602E
:101670004CE7DFF8FC8098F80020C2B1DFF8D89082
:10168000B9F800A0BAF1000F11D0DFF8E89099F88E
:1016900000B0934578D05FFA8AF07F2107F086F991
:1016A00098F80030B6F800C089F8003010E0DFF894
:1016B000C49099F800A0924566D0274B0021187875
:1016C00007F074F998F80030B6F800C089F80030D7
:1016D0001E4B1A88002A97D0BCF11E0F40F00681DD
:1016E0000026B14619E00020FCE6DFF8848098F877
:1016F0000020002A0BBF012600264FF000094FF002
:101700000109E1E6DFF86880104B98F800601A885C
:10171000B6FA86F676094FF0000998F80030002BEB
:101720003FF4E8AE2988B7F800E02068C1EB0E036B
:10173000CFE600BF109CFF1F969DFF1F8C9DFF1FD3
:101740009A99193FCDCCCC3E129EFF1F389EFF1FA9
:10175000849CFF1F1A9CFF1F1E9EFF1F179EFF1FCA
:10176000F49BFF1FD09DFF1F889CFF1FF89DFF1F4C
:10177000DA9BFF1FD69BFF1F1EB1614D2B68002B0C
:101780007BD1604B188865E70026B1469CE6002EA9
:101790003FF4E6AEDFF868A1DAF800202EE0002E74
:1017A0003FF4DEAEB7F80080F045D4BFC1EB0802CD
:1017B000C1EB0E02C1EB0808B8F17E0FDFF840A1C3
:1017C000D5BFC2EB8212C2EBC212520008F101086F
:1017D00092FBF8F8DAF8002008F10108424506D03B
:1017E0005FFA88F10120009307F0E0F8009B188869
:1017F000CAF8008002287FF4DFAE42462168B5F8BF
:1018000000803888414559DA0021C8EB0008B8F15A
:101810007E0FD3BFC1EB8111C1EBC11108F10108EB
:10182000490091FBF8F808F10108904506D05FFAED
:1018300088F10420009307F0B9F8009B1888CAF8D3
:101840000080B9E69342D4BFC4EB0303C4EB0203A8
:1018500094E6032827D12C4B1B88092B91D0002E0E
:101860008FD0274D2B68002B8BD04A20214607F0C4
:101870009DF8244B2C601888ECE6214607F096F87A
:10188000204B2C601888E5E640207F218DE80C0075
:1018900007F08CF8019B009A188858451CD0022844
:1018A0007FF48AAE76E704287FF46BAF002E3FF416
:1018B00068AF2146402007F079F862E78142D4BF43
:1018C000C8EB0101C8EB00019FE79342D4BFC6EB10
:1018D0000303C6EB02037EE6B8F80010DAF800E076
:1018E000B7F800808E45FFF665AF5DE72988B7F849
:1018F00000E020680026C1EB0E03B146E9E500BF19
:10190000889CFF1F1E9EFF1FD09DFF1F08B50F4B19
:101910001B88022B0FD0032B12D0042B03D00C4BAF
:1019200001221A7008BD7F21092007F03FF8084BFB
:1019300001221A7008BD7F21412007F037F8EEE739
:101940004021092007F032F8E9E700BF829CFF1F21
:101950003E9CFF1F38B51C4B1B881D2B26D01B4BF4
:101960001B88012B25D01A4A1A4B14881B681A4A67
:10197000A342128818DB9342D4BFC4EB0303C4EB29
:101980000203141B7F2CC6BFDB010134C3EBC3135E
:1019900093FBF4F4114D2B689C4203D0E1B2052077
:1019A00007F004F82C6038BD0023EAE70C4B1C88D4
:1019B000F0E70C4B0C4A0D491B6812680C689B1A27
:1019C0001C1B84F30704E5E7129EFF1F889DFF1F81
:1019D0003A9CFF1FC89BFF1F109EFF1FBC9BFF1F51
:1019E0000E9CFF1F449EFF1F2889FF1F989DFF1F0D
:1019F00010B50F4C23685BB90E4B1B88022B11D01E
:101A0000033B012B09D90C4A00231370236010BD3E
:101A10000021052006F0CAFFEEE70021092006F0AC
:101A2000C5FFF0E70021412006F0C0FFEBE700BF53
:101A3000BC9BFF1F829CFF1F3E9CFF1F08B5274BCE
:101A40001B78ABB115200AF001FE254A254B128800
:101A500018601D2A15D0244A1288EAB1012A25D01F
:101A6000224B1B78002B34D0BDE80840FFF7C0BFE5
:101A700011200BF02FFD1A4A1A4B128818601D2AEC
:101A8000E9D11B4B1B78002BEAD0184B1B780BB30A
:101A9000BDE80840FFF75EBF164A1288002ADFD073
:101AA000154A1B6812889A42DADCEEE70F200BF029
:101AB00011FD104B114A1B88106033B1104B114AB5
:101AC0001B6812689B1A9842DFDD084B1B78002BBD
:101AD000CAD108BDFFF71AFFDAE700BFA09DFF1FBC
:101AE000129EFF1FC89BFF1F889DFF1F3E9CFF1F6C
:101AF000DA9BFF1F829CFF1F3A9CFF1F989DFF1FD0
:101B0000449EFF1F2889FF1F2DE9F04FA64C227825
:101B1000012A95B000F02582C0F0ED81022A00F084
:101B2000C980A248DFF81CE390F80080A048A14DCE
:101B3000A14FA24EA24BA3490390A3480290A348F1
:101B40009EF800B000902D78A1483F7896F800E00C
:101B50001B780978DFF8F4C2DFF8F492DFF8F4A21A
:101B60000190012A94BF013200222270994A9A48BA
:101B700013709A4A80F800B015709948994A077016
:101B800082F800809848994A03701170BEF1000FE6
:101B900040F0FF80964A10880D2800F09D81954CFA
:101BA00000202070024604462DB19148008800288C
:101BB00040F09E810546904806882544002E40F05E
:101BC0004B818E488E4C009E007836782478013008
:101BD000A0EB4600002C40F02C82019C94F800E021
:101BE000CEEB0004BEF1000F40F04F820026DFF87C
:101BF00050E202989EF800E00078A41BA4EB4E048B
:101C00003C44CBEB040410B1B7FA87F040099CF8D0
:101C100000602718BC1B1EB11EF1000618BF01266C
:101C200099F800009AF80090039FC6EB040EC0EBF1
:101C30000E00A0EB4900804497F800C0714FC3EB41
:101C40000803A3EB41010C2313FB0C1139606E4B0D
:101C50006E4C6F4E1B886F482488376800886E4E24
:101C6000033B03EB4303C4EBC40401EB83033C4499
:101C700003440C3B56F824001D4405440AB1674B4D
:101C80001960674B1A68954200F02281654A6648E0
:101C90001168079107990160126808926348089AD1
:101CA00000881D60521A824284BF614A156015B0D7
:101CB000BDE8F08F5F4F08AE0025E9B25E4808F03E
:101CC00003FD57F8043B0135C01A0C2D46F8040BF0
:101CD000F3D15A4B3D4D00953D4DB3F800C00195F1
:101CE000109D09980F99464EDFF8D0A0DFF8C490F8
:101CF000DFF8CC80654511AA8CCAAE46ACBF4FF068
:101D0000000E4FF0010E8445D4BF0020012030703A
:101D10008C452E480B9D254E8AF800E0D4BF00214B
:101D20000121017094452A4921480390D4BF002223
:101D300001220A709C45424A23480290D4BF0023E6
:101D40000123BC45AB46D4BF002701271370AC4527
:101D5000194B0C9D1F70D4BF4FF0000B4FF0010BBF
:101D6000384B227883F800B0AC45DFF858C098F8BB
:101D700000309CF8001096F80080DFF8D0C0DFF843
:101D8000D4A0D4BF0025012589F80050DFF8C09009
:101D9000E7E62D4A174814880122182C027040F2F9
:101DA0005081002400E700BF769DFF1FCC9DFF1FE0
:101DB000819DFF1F569EFF1F3C9CFF1F5B9EFF1FC8
:101DC000CD9DFF1FCE9DFF1F649CFF1F219EFF1F07
:101DD000229EFF1F559EFF1F949DFF1F579EFF1FB2
:101DE000589EFF1F599EFF1F5A9EFF1F169EFF1FE2
:101DF0005C9EFF1FDA9BFF1FC09BFF1F148AFF1F03
:101E0000489EFF1FD49DFF1FEC9DFF1F089EFF1FD4
:101E1000849CFF1FD49BFF1F74170100089CFF1FA9
:101E2000349CFF1F449FFF1F249CFF1F1C9EFF1F0D
:101E30004C9EFF1F2C89FF1F7C9CFF1F2C9EFF1FA9
:101E4000239EFF1F3D9CFF1F129EFF1F549EFF1FDE
:101E5000149EFF1F159EFF1F012E00F07F81022E92
:101E600000F0DE81032EA14B00F014811E78009B50
:101E70009CF800E01878029B99F800C093F8008065
:101E8000019B9AF800401F78A6EB4E03A4EB840454
:101E9000CCEB030CC0EB80760CEB0403C0EB8600AC
:101EA000034403EB480303EB810327B1904909780E
:101EB000002940F05D82012603998E480978C1F11E
:101EC000060101EB4101334403EB81010160BEE6F1
:101ED00089498A4A0968DFE6002D3FF460AE884AE6
:101EE000884E14880122182C327040F2AA80744661
:101EF000A0F10D055FE6844F08AE0025E9B28348E6
:101F000008F0E2FB57F8043B0135C01A062D46F8ED
:101F1000040BF3D17E4A7F4B039216461B880D9A21
:101F200000219A423170C0F299800C997A4A8B4212
:101F3000CCBF01210021117040F3E1817749784A3B
:101F400091F80080774B11780398774A0292052226
:101F50001B78DFF8FCC1DFF8FC91DFF8FCA1027010
:101F600057E0724F08AE0025E9B2714808F0ACFBAB
:101F700057F8043B0135C01A0C2D46F8040BF3D179
:101F8000644B0C9D1F88684B02930B9B0A98099A1F
:101F9000089EDFF8C4A1DFF8BC910F99DFF8B0C14B
:101FA000BB42ACBF4FF0000E4FF0010EAF42D4BFAA
:101FB000002501258742109B8CF80050D4BF0020DB
:101FC00001209742D4BF00220122B742D4BF4FF074
:101FD00000084FF001088AF800209F42514A89F812
:101FE0000000D4BF002301234C481370129A80F8DC
:101FF00000808F424C4E4A4886F800E0D4BF002152
:102000000121974201703ADC00224A48404D039575
:1020100002704948494A4A4E4A4D07784A4800905A
:102020004A4892F800E096F800B02D7822780190A6
:1020300097E5019C46B12678002E40F05D81441E54
:10204000D5E50C3C0122AFE594F800E00138CEEB79
:102050000004BEF1000F7FF4CAADC7E52F49304A36
:10206000304B91F8008011782F4A35701B7802921E
:10207000DFF8DCC0DFF8DC90DFF8DCA0C9E7119AFC
:102080009742D4BF00220122BFE7002E3FF4AEAD3D
:102090000126ACE51C780298009B9CF800601B7838
:1020A00090F800C099F8007001989AF8008090F8B4
:1020B00000E0A4EB4604E71BA8EB8800C3EB8374A5
:1020C0003844C3EB8403034403EB4C0303EB810369
:1020D000BEF1000F40F051810126039905480978AF
:1020E00033440C2414FB01310160B0E5148AFF1F56
:1020F000239EFF1FD49DFF1F249CFF1F449FFF1F93
:10210000129EFF1FDA9BFF1F488AFF1FEC9BFF1FD9
:10211000819DFF1F2C9EFF1F319EFF1FCC9DFF1F27
:10212000CE9DFF1FCD9DFF1F649CFF1F188AFF1FC0
:10213000209CFF1F069CFF1F3C9CFF1F5B9EFF1FF8
:102140003D9CFF1F569EFF1F219EFF1F229EFF1FCB
:10215000549EFF1F149EFF1F159EFF1FA74CDFF804
:10216000A8E2207805909EF8004000980494059C11
:10217000007800900134A4EB40040498002840F05B
:10218000AC80019890F800E00498261ACEEB060087
:102190000490BEF1000F40F09B8074460298984E68
:1021A00000780190049836780296041BA4EB46044C
:1021B00001983C44CBEB0404002800F08480B7FA7B
:1021C00087F040099CF800602044871B1EB10298EC
:1021D000061C18BF012699F800009AF80040BE1BA3
:1021E000301AA0EB440080440098C3EB0803A3EB33
:1021F0004103002864D1BEF1000F40F0C880734451
:10220000002C77D100290CBF00206FF00900039942
:102210007C4C097803440C2010FB0131216016E549
:10222000009C019E24780094774C367801969AF8A9
:10223000006094F800A0724C744899F800E094F89B
:1022400000909DF80440847080F806E080F80390C8
:102250009CF800C09DF80040DFF8D091DDF800E068
:1022600080F808800470077180F805C0C67141725B
:1022700080F801A04FF0000801200021634C0E46B9
:102280005FFA88FA4F46F44607E0022809D00A2987
:102290000BD014F801CF17F8010F844501F10101AB
:1022A000F3D101360A29F6B2F3D1092E00F28F805C
:1022B00008F10108B8F1100F45D019F80A0FDCE752
:1022C0004FF0000E9BE701987CE7CEEB04000490F2
:1022D0000098041C18BF012460E7009800285ED015
:1022E000019890F800E0BEF1000FEED1601E04905E
:1022F000744653E700208AE7841B012677E40B9994
:10230000434A8B42CCBF0121002111704CDC0A9959
:10231000404A8B42CCBF01210021117040F38E80D6
:102320003D493E4A91F800803D4B117803983D4A63
:10233000029203221B78DFF8F8C0DFF8F890DFF88C
:10234000F8A0027065E62D4837490478C86B0299F9
:10235000013409782044CBEB000008440021039BA2
:102360001C78284B401A0C2111FB040119606EE403
:102370001BF1000618BF01269EE5214909780029B6
:102380003FF4AAAE1BF1000618BF0126A5E602988D
:1023900000280CBF4FF0000E4FF0090E2FE70198F8
:1023A00090F800E03046F0E61B491C4A91F80080A6
:1023B0001B4B117803981B4A029204221B78DFF80A
:1023C00070C0DFF87090DFF870A0027021E60B4853
:1023D0001549047851F828000299013409782044FD
:1023E000CBEB00000844002BB8D0BAF1000FB5D1F8
:1023F000BBF1000FB2D00121B1E700BF148AFF1F6B
:10240000239EFF1FD49DFF1F489EFF1F589CFF1F48
:10241000309EFF1F2F9EFF1FCC9DFF1FCE9DFF1FD5
:10242000CD9DFF1F649CFF1FC089FF1F2016010068
:10243000549EFF1F149EFF1F159EFF1F0999184AE7
:102440008B42CCBF01210021117012DD1549164AC3
:1024500091F80080154B11780398154A02920222D8
:102460001B78DFF850C0DFF85090DFF850A0027002
:10247000CFE5089A0B49DFF83CC091F80080DFF8FF
:102480003890DFF838A09342074A084B1178084A81
:102490001B7802927FF7BDAD039801220270B8E568
:1024A0002E9EFF1FCC9DFF1FCE9DFF1FCD9DFF1FAA
:1024B000649CFF1F549EFF1F149EFF1F159EFF1F4D
:1024C0002DE9F04F3B4B1B788BB0002B6DD10E20CC
:1024D0000AF0BCF80DF0BAFB01463748374E384DCC
:1024E000FEF728F83448FDF7FBFF0DF0C9FD80F337
:1024F0000C003060FFF708FB2C68012C7CD0022C0C
:1025000000F09E82032C00F0AD832E4E33682E4ADD
:102510002E4E0993099B177830682D4C0721012214
:10252000181A11FB07229042236000F28482294E80
:1025300032689A1A0D2A00F27782274E32689A1A68
:10254000132A00F26C82254E32689A1A252A1AD96B
:10255000234B1B88002B40F05E81224B1B78002B05
:1025600040F05981FEF746FF1F4B1B881B3B9BB277
:10257000022B04D81D4B1B78002B40F04F8103F039
:1025800021FD236833601A4D2A689B1A502B00F2F4
:102590000582184B1B88012B00F01D8206F09AFA69
:1025A00006F0C8F80BB0BDE8F08F07F0B7FA0BB033
:1025B000BDE8F08FF09BFF1FAC9DFF1FE49DFF1F48
:1025C0000C9EFF1F449FFF1F789DFF1F909DFF1FC4
:1025D000A89DFF1F6C9CFF1F449CFF1F489CFF1F72
:1025E0008A9DFF1FE69BFF1F129EFF1FDA9BFF1FA6
:1025F000849DFF1FE89DFF1FDFF810939E4AB9F8E6
:1026000000001378834204D0C3B21846137006F05A
:102610009DF9DFF8F482994AB8F8003011789942B0
:1026200004D0974F3978002940F0C586954A336821
:102630001288954E9A42C0F2F680944A1278002A87
:1026400040F0F180DFF8C8A2BAF8003023B9904B0F
:102650001B88002B00F0F8848E4A8F4B11881B8852
:102660008E4A0B4412685B1093428D4A126880F2C6
:102670006E8400219342B4BF01230B460491009362
:10268000ACBF4FF0010B8B4605910E2009F0DEFF29
:10269000844B854A1B68176803930133A7F25232B3
:1026A000002B8446029240F39786802BA8BF80239C
:1026B0007E4A7F4912780191002A00F0BE80097895
:1026C000914200F0BA80B8F80010DFF83CE299427D
:1026D00001F06A806A49AEF80030764B4FF0010E87
:1026E00081F800E01978DFF82CE2019B8EF80010E9
:1026F0001A70009B002B00F00F81BAF80030002BFD
:1027000000F00A816C4B1B685A1C002A40F3688653
:10271000802A00F36486694C69496A4824880988DC
:1027200000682144B0EB610FC1F2AB82A3F1480213
:102730000F2A02D8473BA9F800300E2009F086FF87
:102740006FF454731F44874202DC5F4B00221A70FF
:102750005E4B1B88002B00F0F2835D4B5D4A1B78BB
:102760001178994240D0002B3ED05B490C78002C68
:1027700000F0E886594991F800C0BCF1000F40F024
:10278000DF86574F0097574F57480297544F0078AE
:1027900087F800C0534F4FF0010E87F800C081F852
:1027A00000E0002841F0768050490978002900F0C7
:1027B000A4874F4903910C460978002940F09A8775
:1027C0004C48484F0078397001210297217058B168
:1027D000434842490090002008700099029F087009
:1027E000039901243C7008701370434B1B88A3F1BC
:1027F0001B02012A40F2BA851D2B7FF487AE3D4FA4
:102800003B78002B41F00D803C4C2378002B40F0AE
:102810004B8423707AE6FEF78FFDA3E62B68012B2D
:102820007FF4ADAEADE63168354A0691069835497C
:10283000106002220B602A6004E71E49DFF8D4E032
:10284000097800293FF451AF9EF8000081423FF41F
:102850004CAF03984B2840F36E871833802BB8F8A1
:102860000000A8BF802398423FF43FAF2648038072
:1028700003480123037038E7779DFF1F4C9CFF1F1F
:10288000DB9BFF1F7E9CFF1F449FFF1FE69BFF1FDC
:10289000729CFF1F009CFF1FE09DFF1F1C9CFF1FE1
:1028A000509EFF1F089CFF1FCC9BFF1F409EFF1FD9
:1028B000309CFF1F419EFF1FD49DFF1F969DFF1F51
:1028C0008C9DFF1F109CFF1F809DFF1F9E9DFF1F63
:1028D000069CFF1FB49BFF1F589EFF1FDC9DFF1F20
:1028E000209EFF1F809CFF1F599EFF1F559EFF1FAC
:1028F000B59BFF1FDA9BFF1F129EFF1FD69BFF1F7A
:10290000409CFF1FA49DFF1F429EFF1F9C9DFF1F19
:10291000389CFF1F319CFF1F029B9C45BFF60DAFEB
:10292000AC4B1B88002B3FF408AFBBF1000F7FF4CA
:10293000E9AEA94B1B881BB1059B002B7FF4E2AECF
:10294000049B002B3FF4F9AEA44B1A78002A7FF4C5
:10295000F4AEDFF8049399F8004001221A70002CBD
:1029600040F03F839E4B1B78002B01F0F4879D4B7A
:102970001B78002B02F0D2829B4B1B78002B7FF43C
:10298000DCAE9A4B1B78002B3FF4D7AEB8F8003082
:1029900097490A3BA8F800300A70CEE604F0E6FD3D
:1029A000944B1B7873B9944B1B785BB9934B1B7892
:1029B00043B9934B1B782BB9924B1B7813B903F097
:1029C000D7FA01E003F0E0FA23682B608E4B1B88F6
:1029D000012B7FF4E3AD8D4A8D4B11688D481A7839
:1029E000A1F118032A2101FB03F10160002A00F084
:1029F0009082894A1368994200F32A8380F23483D3
:102A000086480068D0F17F0048BF03308010013055
:102A10001B1A994200F32883136019467BE2FFF7E3
:102A20000DF8236833608EE5FEF7BEF8FEF70EFD65
:102A30002368336081E5FEF72FF82368336076E57D
:102A4000774A34681288A24204DB6E4B1B78002B55
:102A500000F02583734E744833680793734B0799CE
:102A600000681B88091A994263D8002B61D0704B0B
:102A7000198800293FF44AAD6E4B6F481B680088E7
:102A8000A342B8BF23469A4241F3F1806B4B1A60D0
:102A9000DFF8C88188F800105C4FFDF7FDFF38684B
:102AA0007F2840F34985664B7F3883FB0032C3178C
:102AB000C3EB620303EB4303A0EB83007330614B72
:102AC00001931B883860002B40F05C864B4B0093D1
:102AD0001B78002B00F097835B4C2378002B00F0D1
:102AE0009283DFF87C91DFF858A14FF0000B0CE0E7
:102AF00003F17300C0B298F8001005F07FFF23784F
:102B00000BF1010B5B4540F37E833B6859F8040FE2
:102B10001844A0F17F038AFB0321DA17C2EB61029C
:102B200002EB42027F28A3EB8203E1DCFDF7AAFD62
:102B3000E0E7404B40491B6808883D49A342B8BFC5
:102B400023469A4200F392823C4C09888342A8BFF4
:102B50000346236000299BD19A42C8BF0B4640F32D
:102B60008C82801AB0F5804FAABF9B03C3EB8333DE
:102B7000013093FBF0F0FDF775FFC0F3C6100DF0C8
:102B800065F8324B044618880DF060F83049074666
:102B900020460DF0AFF8014638460DF0ABF821465F
:102BA0000CF0A0FF4FF07E5104460DF041FA0028D2
:102BB00041F05280274920460DF058FA002840F095
:102BC000638620460DF082FAC0B2DFF8908088F864
:102BD000000061E7729CFF1FA29DFF1F809DFF1FE9
:102BE000559EFF1F949DFF1F579EFF1F589EFF1F5E
:102BF000DB9BFF1F809CFF1FDC9DFF1F209EFF1F94
:102C0000B59BFF1FE69BFF1FE89DFF1F4C9EFF1F0C
:102C10003E9CFF1F349EFF1FE09BFF1FBC9BFF1FBE
:102C20007E9CFF1F449FFF1F409CFF1F709CFF1F47
:102C3000D89BFF1FA49DFF1F329EFF1FB89BFF1F45
:102C4000ABAAAA2A189CFF1F8489FF1FC49BFF1FE1
:102C5000CDCCCC3D0000FE42819DFF1F659CFF1F37
:102C60005C89FF1FC04B34681988A14253DDBF4BFC
:102C70001B78002B4FD1DFF8409399F800007F2894
:102C800040F3CB85A3F155337F3803F1004383FB39
:102C90000032C317C3EB620303EB4303A0EB8300D3
:102CA0007330B34B01931B88C0B289F80000002B2E
:102CB00040F0BD87AF4B00931B78002B00F06F8472
:102CC000AD4C2378002B00F06A84AC4FDFF8B4825F
:102CD0004FF0000A0AE003F17300C0B205F0B6FE3F
:102CE00023780AF1010A534540F3598457F8043F09
:102CF00099F800001844A0F17F0388FB0321DA173C
:102D0000C2EB610202EB42027F28A3EB8203E2DC0A
:102D1000FDF7B8FCE1E79A4F38687F2840F3B481AB
:102D2000984B7F3883FB0032C317C3EB620303EB7E
:102D30004303A0EB83007330DFF87C9299F800A086
:102D4000824500F00782904B1B88002B43D18F4AAD
:102D50008F4812680088914205DC8242D4BFC1EBE3
:102D60000203C1EB0003411AB1F5804FA6BF9B03DC
:102D70000131C3EB833393FBF1F0FDF773FEC0F336
:102D8000C6100CF063FF834B044618880CF05EFFFE
:102D90008149804620460CF0ADFF014640460CF0CC
:102DA000A9FF21460CF09EFE4FF07E5104460DF027
:102DB0003FF9002840F0AB86784920460DF056F9DF
:102DC000002840F05E8520460DF080F9C0B2DFF8A3
:102DD000EC8188F80000BAF17F0F40F3A9836948BD
:102DE000AAF17F0A80FB0A304FEAEA73C3EB600066
:102DF00000EB4000AAEB800073305E4B00931B7821
:102E0000C0B289F80000002B40F00983644B0393A3
:102E10001B78002B40F0F584624B02931B78002B4B
:102E200040F01D87524B0193029B1B78FBB15E4B18
:102E30001B88012B00F0E985022B00F03F87032B54
:102E400001F0D080042B01F0F282052B01F06E839B
:102E5000062B01F04085072B01F05786082B02F066
:102E60000B80092B02F0D6800A2B02F01083009B06
:102E70001B78002B00F05184019B3D4C19880029E0
:102E800000F0A78438687F2840F3C6823D4B7F3826
:102E900083FB0032C317C3EB620303EB4303A0EBD6
:102EA000830073303860002940F05684009B1B7803
:102EB000002B00F05A81304C2378002B00F0558114
:102EC000DFF8B8A0DFF8F4804FF0000B0CE003F15E
:102ED0007300C0B298F8001005F090FD23780BF154
:102EE000010B5B4540F341813B685AF8040F254ACA
:102EF0001844A0F17F0382FB0321DA17C2EB6102C1
:102F000002EB42027F28A3EB8203E0DCFDF7BAFB71
:102F1000DFE7264B1960264B1B68A92202FB03F34F
:102F2000002BBCBF03F57F533F339B13543B194425
:102F300081F30C01282009F00FFFFFF72FBB194C7C
:102F40001C480C49164A237003700B704CE49342E2
:102F50004FF0000B80F29B800123CDF800B0CDF83C
:102F600014B00493FFF791BB7E9CFF1FE69BFF1FED
:102F7000189CFF1F209EFF1F8489FF1F5C89FF1F75
:102F80004C9EFF1FABAAAA2AD89BFF1FB89BFF1F0E
:102F9000329EFF1FC49BFF1FCDCCCC3D0000FE42E4
:102FA000B59BFF1F809CFF1F9E9DFF1FE09BFF1F87
:102FB000BC89FF1FDC9DFF1FD29DFF1F659CFF1F6B
:102FC000A94B1B78002B7FF4B8AB039BA74A243B8B
:102FD00083F34703D9B25B20136005F0E7FC99F84F
:102FE0000040032C30D1DFF8D88298F80030002B55
:102FF00042F08E819E4F3B78002B42F07C819A4CB0
:103000002378002B42F06A819A4B1B78002B42F008
:103010003D81994A1380994B1B78002B42F08481A3
:10302000974B7F221A8098F800306BB93B785BB9D8
:1030300023784BB9934A7F210720138005F0B6FC13
:103040007F210B2005F0B2FC8F4B1F68FFF775BB8B
:103050008E480068D0F17F0048BF033003EBA00327
:1030600001339942BFF6D8AC116054E7884B098808
:103070001A6000297FF40CAD13469842D4BFC2EB0E
:103080000003C2EB03036CE5FDF7FCFA54E60123F1
:10309000CDF810B0CDF800B00593FFF7F6BA0123D4
:1030A0002B607C4EFFF732BA7B4B6A20198805F003
:1030B00001FE3B782370FFF729BA029B1B78FBB116
:1030C000764B1B88012B00F01984022B00F07486CC
:1030D000032B00F0FD87042B01F08581052B01F007
:1030E0009B82062B01F00C84072B01F0B985082B7D
:1030F00001F07686092B01F0AE870A2B02F08C8155
:10310000019B1B88002B00F03083009B1B783BB990
:10311000039B1B7823B9029B1B78002B00F052877E
:103120005F4B1B78002B00F044815E490B78082B25
:1031300000F23F815C483A6800685C4C0133DBB2C6
:103140005F1E101A44F827000B70594B3468198819
:1031500089F800208C424F4E7FF7D8A93268554B32
:103160000892089A1A60FFF7D1B9039B1B78002BCD
:10317000A3D03B68A3F10C007F2840F331834E4875
:103180008B3B80FB0320DA17C2EB600000EB4000B2
:10319000A3EB800303F17300DFF82881C0B298F835
:1031A000001005F02BFC009B1B78002B85D03D4CBC
:1031B0002378002B81D0DFF810A14FF0000B0CE03A
:1031C00003F17300C0B298F8001005F017FC2378E3
:1031D0000BF1010B5B457FF770AF3B685AF8040FAA
:1031E000354A1844A0F18B0382FB0321DA17C2EBA6
:1031F00061020C3802EB42027F28A3EB8203DFDC82
:10320000FDF740FADEE7264B1B78002B40F0C18229
:103210003B682A4A1278002A7AD0A3F10C007F2852
:1032200040F3F882244A8B3B82FB0321DA17C2EB7E
:10323000610202EB4202A3EB820303F17300C0B20E
:1032400098F8001005F0DAFB009B1B78002B5ED08D
:10325000144C2378002B5AD0DFF86C90DFF858A07C
:103260004FF0000B3EE000BF589EFF1FFC9BFF1F6E
:10327000579EFF1F949DFF1F769CFF1F599EFF1FA7
:10328000D89BFF1FD09DFF1FCC9BFF1FBC9BFF1F28
:10329000B89BFF1F449FFF1F0E9CFF1F9E9DFF1F9B
:1032A000DC9DFF1F8489FF1FDC9BFF1F6089FF1FC0
:1032B0007E9CFF1FEC9EFF1FABAAAA2AB59BFF1F97
:1032C000559EFF1F659CFF1F5C89FF1F03F1730064
:1032D000C0B298F8001005F091FB23780BF1010BB8
:1032E0005B4514DD3B6859F8040F1844A0F18B03CB
:1032F0008AFB0321DA17C2EB61020C3802EB4202AF
:103300007F28A3EB8203E1DCFDF7BCF9E0E73B6833
:10331000B74A1278FAB1B74A1288012A00F0FA8344
:10332000022A00F0CA85032A00F05287042A01F01D
:10333000A380052A01F0DD81062A01F0FC82072A1C
:1033400001F03E83082A01F01B86092A01F0BA86A3
:103350000A2A02F02A80019A1288002A00F00B82C1
:10336000A54903220B702A60FFF7D0B8A34F3B7822
:10337000002B3FF449AAA24C207802F08DFEA14B0D
:103380001B78002B00F0658223887E2B00F261827F
:103390009D4A0133108899B22180002800F069828B
:1033A000C9B2C0B2994C05F001FB3B782370FFF71E
:1033B000ADB83A68C9E6DBB21846137005F0D4FA26
:1033C000934B94491A46944B184600230B703B705C
:1033D00013700370FFF72AB90123FFF769B980243E
:1033E0008E498F4B8F4A09881B8812680B44B2EBB9
:1033F000630FBFF6A2A9814B1B78002B40F0DA8146
:10340000B8F80030884AA3423FF497A9874B14804C
:1034100001221A70FFF791B9FDF734F942E5844BA8
:1034200001931B88002B42F0E2807B4B0393704B8F
:103430000293804C23786BB3DFF80882DFF8F8A1A1
:103440004FF0000B09E003F17300C0B205F0FEFA83
:1034500023780BF1010B5B451CDD58F8043F99F80C
:1034600000001844A0F17F038AFB0321DA17C2EBA6
:10347000610202EB42027F28A3EB8203E3DCFDF74B
:1034800001F9E2E75A4B029305F0E0FA009B1B7842
:10349000002BCED1039B1B78002B3FF4C5AC99F8D1
:1034A0000030A3F10C007F2840F3A88162488B3BD9
:1034B00080FB0320DA17C2EB600000EB4000A3EBB7
:1034C000800303F17300C0B205F0C0FA009B1B78C3
:1034D000002B00F08881574C2378002B01F01882D4
:1034E000DFF86081DFF850A14FF0000B0AE003F134
:1034F0007300C0B205F0AAFA23780BF1010B5B450B
:103500007FF792AC58F8043F99F800001844A0F1F6
:103510008B038AFB0321DA17C2EB61020C3802EB42
:1035200042027F28A3EB8203E1DCFDF7ABF8E0E782
:103530005046FDF7A7F860E4FDF7A4F8FFF7BFBA1F
:10354000002008703D49087840B131490091097860
:10355000002900F09C81009F0021397038490978CA
:1035600000297FF426A9002C40F0C780002840F0F5
:10357000C480224C264F94F800E0274C03941C4C46
:103580000294254C23492070194C0097087038701C
:103590002070BEF1000F7FF41EA9FFF725B91E4B66
:1035A0001B78002B70D099F80030A3F10C007F2815
:1035B00040F36A83204A8B3B82FB0321DA17C2EB7C
:1035C000610202EB4202A3EB820303F17300C0B27B
:1035D00005F03CFA009B1B78002B55D0154C237846
:1035E000002B51D0174FDFF850804FF0000A35E024
:1035F000809CFF1F9E9DFF1FD29DFF1FDA9BFF1F18
:103600000E9CFF1F5A9EFF1F549CFF1FD69BFF1F3F
:10361000209EFF1FDC9DFF1FB59BFF1F8C9DFF1F82
:10362000969DFF1F109CFF1F429EFF1FDB9BFF1FED
:10363000189CFF1F8489FF1FABAAAA2A599EFF1F4F
:10364000559EFF1F5C89FF1F03F17300C0B205F098
:10365000FDF923780AF1010A534515DD57F8043FB7
:1036600099F800001844A0F18B0388FB0321DA17B6
:10367000C2EB61020C3802EB42027F28A3EB82030B
:10368000E2DCFCF7FFFFE1E7894B1B78FBB1894BDC
:103690001B88012B00F02086022B00F01A87032BD9
:1036A00001F09480042B01F04D81052B01F07D8306
:1036B000062B01F01584072B01F04E85082B01F035
:1036C0004386092B01F03C870A2B01F01987019BE7
:1036D0001B88002B00F0A682774B1B78002B40F054
:1036E0009C82764B764A198834680020012310604A
:1036F0002B602FE503980021017072490978002999
:103700003FF472A86A4902910978002900F00787FE
:10371000029800210170FFF767B8039B1B78002B0C
:103720007FF4AAAB029B1B78002B7FF4A5AB019B17
:103730001988FFF7A7BB243B002BB8F8000040F323
:103740003B8498423EF4D1AF9BB25F48A8F800306A
:1037500001230370FEF7C9BFDFF87081C0B298F88B
:10376000001005F04BF9FFF7A1BB584B38781978DA
:1037700005F044F9C9E4D8B298F8001005F03EF914
:103780003B68EDE5C0B298F8001005F037F9FFF797
:103790009DB97F21402005F009F94D494D4A3B680C
:1037A0000B600021117034E54B4BDFF84CE11978C8
:1037B000FEF79BBF4B2C40F33E821834802CB8F8A8
:1037C0000030464AA8BF8024A3427FF41FAEFEF714
:1037D000B4BF99F8000005F039F92188FFF752BB12
:1037E000FCF750FFD8E4029B1B78002B7FF41FAB43
:1037F000039B1B78002B7FF43FAB98E7FCF742FF5D
:1038000061E6374B01931B88002B7FF43BAE284BBE
:10381000029344E6FCF736FF11E5FCF733FFFFF7B0
:1038200040BA304C207802F037FC2F4B1B781BB18C
:1038300023887E2B41F230802C4B1B7823B12388C8
:10384000284A002B41F05080294C3B782370FEF72A
:103850005DBE264B1B78002BF6D02388214A002B17
:10386000F2D02449013B088899B2118000287FF4E6
:1038700097ADC8B21E4C05F00DF93B782370FEF7EA
:1038800045BE7F20FFF7A3BA7F20FFF79EB9084F00
:10389000094902974FF0000C81F800C0009F02997F
:1038A0004FF0010E87F800E081F800C056E600BF37
:1038B000809CFF1F9E9DFF1FDC9DFF1F7E9CFF1FA6
:1038C000B89BFF1FDA9BFF1FDB9BFF1F659CFF1F41
:1038D000DC9BFF1F8489FF1F419EFF1F429EFF1F2D
:1038E000189CFF1F0E9CFF1F5A9EFF1F599EFF1F13
:1038F000D69BFF1F549CFF1F319CFF1FDFF8B0A316
:103900003868BAF80030E54AE54CC31A82FB031E5A
:10391000D917C1EB6E0101EB4101A3EB810303EB6E
:10392000430354F8233018447F2840F34A847F38F7
:1039300082FB0032C317C3EB620303EB4303A0EB2C
:1039400083007330DFF86C83DFF86CB398F80010F5
:10395000C0B205F053F8BBF80030022B7FF6D0ABB5
:103960003968BAF80030CD4ACB1A82FB030ED8175B
:10397000C0EB6E0000EB4000A3EB800303EB4303BE
:1039800004EB8303586808447F2840F3AA867F38F5
:1039900082FB0032C317C3EB620202EB4202A0EBD0
:1039A00082007330C0B298F8001005F027F8BBF819
:1039B0000030032B7FF6A4AB3968BAF80030B74A61
:1039C000CB1A82FB030ED817C0EB6E0000EB400051
:1039D000A3EB800303EB430304EB8304A0680844D8
:1039E0007F2840F357817F3882FB0032C317C3EB37
:1039F000620202EB4202A0EB8200733098F80010E2
:103A0000C0B204F0FBFFFFF77BBBDFF8A4A299F87C
:103A10000000BAF80030A14AA14CC31A82FB031E71
:103A2000D917C1EB6E0101EB4101A3EB810303EB5D
:103A3000430354F8233018447F2840F3C6837F386B
:103A400082FB0032C317C3EB620303EB4303A0EB1B
:103A500083007330DFF860B2C0B204F0F7FFBBF848
:103A60000030022B7FF603AA99F80010BAF8003054
:103A70008A4ACB1A82FB030ED817C0EB6E0000EB0C
:103A80004000A3EB800303EB430304EB830358687C
:103A900008447F2840F329867F3882FB0032C31711
:103AA000C3EB620202EB4202A0EB82007330C0B2B1
:103AB00004F0CCFFBBF80030032B7FF6D8A999F8AF
:103AC0000010BAF80030754ACB1A82FB030ED817E3
:103AD000C0EB6E0000EB4000A3EB800303EB43035D
:103AE00004EB8304A06808447F2840F3C7807F3834
:103AF00082FB0032C317C3EB620202EB4202A0EB6F
:103B000082007330C0B204F0A1FFFFF7B0B901200A
:103B1000FFF75DB9DFF898A16049BAF80020604C62
:103B20009A1A81FB020ED017C0EB6E0000EB40002A
:103B3000A2EB800202EB420254F8220018447F28D4
:103B400040F3BD83A0F17F0381FB0321DA17C2EBB1
:103B5000610000EB4000A3EB80007330DFF858B148
:103B600098F80010C0B204F049FFBBF80030022BF7
:103B700050D93968BAF80030484ACB1A82FB030E94
:103B8000D817C0EB6E0000EB4000A3EB800303EB03
:103B9000430304EB8303586808447F2840F31286EC
:103BA0007F3882FB0032C317C3EB620202EB420292
:103BB000A0EB82007330C0B298F8001004F01EFF32
:103BC000BBF80030032B25D93868BAF80030334AE7
:103BD000C31A82FB031ED917C1EB6E0101EB410131
:103BE000A3EB810303EB430304EB8304A3681844B2
:103BF0007F284CDD7F3882FB0032C317C3EB6202A3
:103C000002EB4202A0EB82007330C0B298F80010C1
:103C100004F0F4FE3B68FFF79EBB0021402004F057
:103C2000C5FE5EE599F8000004F010FF54E504F0CD
:103C30000DFFFFF73FB8243C002CB8F8003040F3EC
:103C4000BB85A3423EF479ADA4B2164BA8F8004060
:103C500001221A70FEF771BD0120FEF7B6BF124BAC
:103C600001931B88002B7FF40FACFFF7DDB80F4AE0
:103C70008342A8BF03461360FEF70ABFFCF702FDAC
:103C800040E71446FFF7B7BBFCF7FCFC9FE4FCF7EA
:103C9000F9FCBAE7FCF7F6FCB0E600BFABAAAA2A2B
:103CA00024150100DB9BFF1F189CFF1FB89BFF1F03
:103CB000D89DFF1F659CFF1FEE9BFF1FDFF818A319
:103CC00099F80000BAF80030C14AC24CC31A82FB0E
:103CD000031ED917C1EB6E0101EB4101A3EB810378
:103CE00003EB430354F8233018447F2840F3E88360
:103CF0007F3882FB0032C317C3EB620303EB43033D
:103D0000A0EB83007330DFF8D4B2C0B204F09EFEA3
:103D1000BBF80030022B7FF6AAA899F80010BAF879
:103D20000030AB4ACB1A82FB030ED817C0EB6E00F3
:103D300000EB4000A3EB800303EB430304EB83039E
:103D4000586808447F2840F3F2857F3882FB0032B0
:103D5000C317C3EB620303EB4303A0EB8300733091
:103D6000C0B204F073FEBBF80030032B7FF67FA8CF
:103D700099F80010BAF80030954ACB1A82FB030E6E
:103D8000D817C0EB6E0000EB4000A3EB800303EB01
:103D9000430304EB8304A06808447F287FF76EAFD9
:103DA0007F3882FB0032C317C3EB620303EB43038C
:103DB000A0EB83007330A5E6DFF81CA23868BAF8E0
:103DC0000030834A834CC31A82FB031ED917C1EB10
:103DD0006E0101EB4101A3EB810303EB430354F8B4
:103DE000233018447F2840F36E837F3882FB0032F3
:103DF000C317C3EB620303EB4303A0EB83007330F1
:103E0000DFF8DC81DFF8D4B198F80010C0B204F01C
:103E1000F5FDBBF80030022B7FF672A93968BAF8BD
:103E200000306B4ACB1A82FB030ED817C0EB6E0032
:103E300000EB4000A3EB800303EB430304EB83039D
:103E4000586808447F2840F36A857F3882FB003237
:103E5000C317C3EB620303EB4303A0EB8300733090
:103E6000C0B298F8001004F0C9FDBBF80030032B75
:103E70007FF646A93868BAF80030554AC31A82FB63
:103E8000031ED917C1EB6E0101EB4101A3EB8103C6
:103E900003EB430304EB8304A36818447F287FF7F4
:103EA000F9AE7F3882FB0032C317C3EB620303EB2A
:103EB0004303A0EB83007330A0E5DFF81CA1444965
:103EC000BAF80020434C9A1A81FB020ED017C0EBBF
:103ED0006E0000EB4000A2EB800202EB420254F8BD
:103EE000220018447F2840F3F182A0F17F0381FB78
:103EF0000321DA17C2EB610000EB4000A3EB800066
:103F00007330DFF8D8B098F80010C0B204F076FD36
:103F1000BBF80030022B7FF67DAE3968BAF800306E
:103F20002B4ACB1A82FB030ED817C0EB6E0000EBB6
:103F30004000A3EB800303EB430304EB83035868C7
:103F400008447F2840F3EF847F3882FB0032C31798
:103F5000C3EB620303EB4303A0EB83007330C0B2F7
:103F600098F8001004F04AFDBBF80030032B7FF6F0
:103F700051AE3868BAF80030154AC31A82FB031EE6
:103F8000D917C1EB6E0101EB4101A3EB810303EBF8
:103F9000430304EB8304A36818447F287FF777AEBC
:103FA0007F3882FB0032C317C3EB620303EB43038A
:103FB000A0EB8300733028E601283EF496AB012382
:103FC000FFF7C3BB99F8000004F040FDFFF7A8B865
:103FD000ABAAAA2A00180100D89DFF1FEE9BFF1F65
:103FE000659CFF1FDFF8E4A299F80000BAF80030E2
:103FF000B44AB54CC31A82FB031ED917C1EB6E013C
:1040000001EB4101A3EB810303EB430354F823309D
:1040100018447F2840F3DB817F3882FB0032C317CE
:10402000C3EB620202EB4202A0EB82007330DFF8C6
:10403000A0B2C0B204F00AFDBBF80030022B7EF63D
:1040400016AF99F80000BAF800309E4AC31A82FBF6
:104050000321DA17C2EB610202EB4202A3EB8203F7
:1040600003EB430304EB83035B6818447F2840F3AE
:1040700028847F380C2290FBF2F302FB130073308C
:10408000C0B204F0E3FCBBF80030032B7EF6EFAEC9
:1040900099F80000BAF800308A4AC31A82FB03215B
:1040A000DA17C2EB610202EB4202A3EB820303EBDD
:1040B000430304EB8304A36818447F287FF7DEAD35
:1040C0007F380C2290FBF2F302FB1300733019E5EA
:1040D000DFF8F8A13868BAF800307A4A7A4CC31A87
:1040E00082FB031ED917C1EB6E0101EB4101A3EB6B
:1040F000810303EB430354F8233018447F2840F333
:1041000063817F3882FB0032C317C3EB620202EB8C
:104110004202A0EB82007330DFF8B881DFF8B0B163
:1041200098F80010C0B204F069FCBBF80030022B14
:104130007EF6E6AF3868BAF80030624AC31A82FBEE
:104140000321DA17C2EB610202EB4202A3EB820306
:1041500003EB430304EB83035B6818447F2840F3BD
:10416000A7837F380C2290FBF2F302FB130073301D
:10417000C0B298F8001004F041FCBBF80030032BEB
:104180007EF6BEAF3868BAF800304E4AC31A82FBDA
:104190000321DA17C2EB610202EB4202A3EB8203B6
:1041A00003EB430304EB8304A36818447F287FF7E1
:1041B00071AD7F380C2290FBF2F302FB13007330D9
:1041C0001CE4FCF75FFAFFF7BDBBFCF75BFA41E4C8
:1041D000DFF8F8A03B49BAF800203B4C9A1A81FB63
:1041E000020ED017C0EB6E0000EB4000A2EB800285
:1041F00002EB420254F8220018447F2840F3EA8080
:10420000A0F17F0381FB0321DA17C2EB610101EB0F
:104210004101A3EB81007330DFF8B4B098F80010CF
:10422000C0B204F0EBFBBBF80030022B7FF6F2AC1F
:104230003868BAF80030234AC31A82FB0321DA1720
:10424000C2EB610202EB4202A3EB820303EB4303E6
:1042500004EB83035B6818447F2840F336837F3880
:104260000C2290FBF2F302FB13007330C0B298F8FB
:10427000001004F0C3FBBBF80030032B7FF6CAAC80
:104280003868BAF800300F4AC31A82FB0321DA17E4
:10429000C2EB610202EB4202A3EB820303EB430396
:1042A00004EB8304A36818447F287FF7F0AC7F38C1
:1042B0000C2290FBF2F302FB13007330A5E4FCF731
:1042C000E1F94BE4ABAAAA2A90180100D89DFF1F80
:1042D000EE9BFF1F659CFF1FDFF834A399F80000D9
:1042E000BAF80030C24AC34CC31A82FB0317D9176D
:1042F000C1EB670101EB4101A3EB810303EB430336
:1043000054F8233018447F286ADD7F3882FB00325E
:10431000C317C3EB620202EB4202A0EB82007330D0
:10432000DFF8F0B2C0B204F091FBBBF80030022B12
:104330007FF6CDA999F80000BAF80030AC4AC31A4C
:1043400082FB0321DA17C2EB610202EB4202A3EB0C
:10435000820303EB430304EB83035B6818447F2869
:1043600040F3B6827F380C2290FBF2F302FB13007D
:104370007330C0B204F06AFBBBF80030032B7FF649
:10438000A6A999F80000BAF80030994AC31A82FB2E
:104390000321DA17C2EB610202EB4202A3EB8203B4
:1043A00003EB430304EB8304A36818447F2814DD64
:1043B0007F380C2290FBF2F302FB13007330C0B283
:1043C00004F044FBFFF783B9FCF75CF9A4E6FCF7C3
:1043D00059F92CE6FCF756F91EE7FCF753F9EEE71E
:1043E000FCF750F99CE7DFF828A23868BAF80030EB
:1043F0007F4A814CC31A82FB031ED917C1EB6E01A1
:1044000001EB4101A3EB810303EB430354F8233099
:1044100018447F28D8DD7F3882FB0032C317C3EBF6
:10442000620303EB4303A0EB8300733074E6DFF811
:10443000E0A199F80000BAF800306D4A6E4CC31A3A
:1044400082FB031ED917C1EB6E0101EB4101A3EB07
:10445000810303EB430354F8233018447F28B6DD6F
:104460007F3882FB0032C317C3EB620303EB4303C5
:10447000A0EB83007330DAE5DFF894A15C49BAF869
:1044800000205D4C9A1A81FB020ED017C0EB6E0023
:1044900000EB4000A2EB800202EB420254F8220043
:1044A00018447F2896DDA0F17F0381FB0321DA17F2
:1044B000C2EB610000EB4000A3EB80007330ABE681
:1044C000FCF7E0F81FE4FCF7DDF899E4FCF7DAF814
:1044D00017E5DFF83CA199F80000BAF80030444A2B
:1044E000464CC31A82FB0317D917C1EB670101EBD6
:1044F0004101A3EB810303EB430354F82330184439
:104500007F287FF76DAF7F3882FB0032C317C3EB84
:10451000620303EB4303A0EB8300733000E73848EA
:104520000090384838490390FEF755B9DFF8E0A00D
:1045300099F80000BAF800302D4A344CC31A82FBB7
:104540000321DA17C2EB610202EB4202A3EB820302
:1045500003EB430354F8233018447F2840F3AE8123
:104560007F380C2290FBF2F302FB13007330DFF86C
:10457000A4B0C0B204F06AFABBF80030022B19D91B
:1045800099F80000BAF800300C22C11A91FBF2F33E
:1045900002FB131302FB03435B6818447F2840F3BC
:1045A00067847F3890FBF2F302FB13007330C0B2D4
:1045B00004F04CFABBF80030032B7EF658ACBAF886
:1045C000003099F800000C22C11A91FBF2F302FBB3
:1045D000131302FB0344A36818447F287FF74EABF4
:1045E0007F3890FBF2F302FB13007330FFF78ABAB7
:1045F000ABAAAA2A24150100141A01000018010010
:10460000209EFF1FB59BFF1FDC9DFF1FC0160100F2
:10461000D89DFF1FEE9BFF1FDFF898A33868BAF8FC
:104620000030DA4ADA4CC31A82FB0321DA17C2EBF4
:10463000610202EB4202A3EB820303EB430354F853
:10464000233018447F2840F336817F380C2290FBBA
:10465000F2F302FB13007330DFF85C83DFF85CB326
:1046600098F80010C0B204F0C9F9BBF80030022B72
:104670001AD93868BAF800300C22C11A91FBF2F34B
:1046800002FB131302FB03435B6818447F2840F3CB
:10469000EC837F3890FBF2F302FB13007330C0B25F
:1046A00098F8001004F0AAF9BBF80030032B7EF64E
:1046B00027ADBAF8003038680C22C11A91FBF2F32A
:1046C00002FB131302FB0344A36818447F287FF7FF
:1046D000E1AA7F3890FBF2F302FB13007330FFF77F
:1046E0008DB9FBF7CFFFFFF75DB9FBF7CBFFFFF706
:1046F000DEB9DFF8C0A2A549BAF80020A44C9A1A86
:1047000081FB0210D117C1EB600101EB4101A2EB6B
:10471000810202EB420254F8220018447F2840F341
:10472000B880A0F17F030C2093FBF0F200FB123065
:104730007330DFF888B298F80010C0B204F05EF968
:10474000BBF80030022B1AD93868BAF800300C22B6
:10475000C11A91FBF2F302FB131302FB03435B68E4
:1047600018447F2840F3B9837F3890FBF2F302FBB3
:1047700013007330C0B298F8001004F03FF9BBF892
:104780000030032B7FF646AABAF8003038680C22B6
:10479000C11A91FBF2F302FB131302FB0344A3685B
:1047A00018447F287FF773AA7F3890FBF2F302FB4F
:1047B00013007330FFF729BA012B3DF4BEAF01247B
:1047C000FFF743BAFBF75EFFFFF7F5B9DFF8E4A1A7
:1047D00099F80000BAF800306C4A6E4CC31A82FB9C
:1047E0000321DA17C2EB610202EB4202A3EB820360
:1047F00003EB430354F8233018447F2846DD7F3809
:104800000C2290FBF2F302FB13007330DFF8ACB123
:10481000C0B204F01BF9BBF80030022B19D999F88B
:104820000000BAF800300C22C11A91FBF2F302FB2F
:10483000131302FB03435B6818447F2840F3A380F3
:104840007F3890FBF2F302FB13007330C0B204F028
:10485000FDF8BBF80030032B7EF639AFBAF8003014
:1048600099F800000C22C11A91FBF2F302FB13131A
:1048700002FB0344A36818447F287FF7AEAD7F385E
:1048800090FBF2F302FB1300733098E5FBF7FAFE9E
:10489000BCE7FBF7F7FE4CE701339BB22380D9B2AC
:1048A00005203D4C04F082F83B782370FDF72EBEC6
:1048B000FBF7E8FE5CE4FBF7E5FECDE6FBF7E2FE86
:1048C00055E6FBF7DFFEFFF7DBBBFBF7DBFECDE4D6
:1048D000FBF7D8FE4DE5DFF8DCA099F80000BAF848
:1048E00000302A4A2D4C29E6013B9BB2D9B2052063
:1048F000294C138004F05AF83B782370FDF706BE6C
:10490000DFF8B0A03868BAF80030204A234C8AE6B5
:10491000029B1B78002B7EF48AAAFEF7ADBAFBF748
:10492000B1FEFFF79DBAFBF7ADFEFFF718BBFBF733
:10493000A9FEFFF715BADFF87CA01449BAF80020E9
:10494000164CDCE6DFF86CA099F80000BAF80030ED
:104950000E4A134C42E7134B1B78002B00F0CB821E
:10496000114B1B78002B7DF4E8AE104B1B78002B0D
:104970003DF4E3AEB8F800300D490A33A8F8003032
:104980000A70FDF7DABEFBF77DFE5FE7ABAAAA2A45
:10499000C016010090180100D69BFF1F841901006A
:1049A000141A0100949DFF1F579EFF1F589EFF1F62
:1049B000DB9BFF1FD89DFF1F659CFF1FEE9BFF1F0A
:1049C000A14C2288002A00F02283A049DFF88CB293
:1049D0000988BBF800000331884227DD9C489D49C7
:1049E0000088B1F800E0DFF870C2181A0C2190FBC3
:1049F000F1F901FB19004FF0900909FB0EFE01FBD4
:104A000000E06FF00B0E5CF8000003440EFB023078
:104A10007F2840F338857F3890FBF1F301FB1300CA
:104A20007330C0B298F8001003F0E8FFBBF8002024
:104A300023881344022B23DD854B864A38681B8864
:104A4000B2F800C0DFF810E2C31A0C2193FBF1F2B8
:104A500001FB1232902303FB0CF301FB023373447E
:104A60005B6818447F2840F3A2857F3890FBF1F300
:104A700001FB13007330C0B298F8001003F0BEFFC2
:104A8000BBF8002023881344032B23DD704B714AAD
:104A900038681B88B2F800C0DFF8BCE1C31A0C21EB
:104AA00093FBF1F201FB1232902303FB0CF301FBA9
:104AB000023373449B6818447F2840F37C857F3819
:104AC00090FBF1F301FB13007330C0B298F80010B3
:104AD00003F094FFBBF8002023881344042B7FF7D6
:104AE00099A85A4B1B88012B7FF494A83A68A2F12D
:104AF0000C007F287FF7CBA88B3A0C2092FBF0F3B9
:104B000000FB13207330FFF780B84F4C2388002B35
:104B100040F01783DFF844B14D494E4A098899F8AF
:104B20000000B2F800E0DFF83081C1EB000C0C228D
:104B30009CFBF2F102FB11C14FF0900C0CFB0EFE3E
:104B400002FB01E16FF00B0E58F8011008440EFB58
:104B500003007F2840F3F583A0F17F0393FBF2F07D
:104B600002FB10307330C0B203F070FFBBF80020BE
:104B700023881344022B22DD354A364B118899F8DD
:104B80000000B3F800C0DFF8D0E0411A0C2291FB1E
:104B9000F2F302FB1311902303FB0CF302FB01332E
:104BA00073445B6818447F2840F392847F3890FBFD
:104BB000F2F302FB13007330C0B203F047FFBBF8FF
:104BC000002023881344032B22DD214A214B118826
:104BD00099F80000B3F800C0DFF87CE0411A0C221D
:104BE00091FBF2F302FB1311902303FB0CF302FB86
:104BF000013373449B6818447F2840F3C1847F3895
:104C000090FBF2F302FB13007330C0B203F01EFFFF
:104C1000BBF8002023881344042B7EF728A90B4BF4
:104C20001B88012B7EF423A999F80020A2F10C0027
:104C30007F287FF723A88B3A0C2092FBF0F300FB30
:104C400013207330FEF75EBF689CFF1F0C9CFF1F94
:104C5000D89DFF1F829DFF1F20120100EE9BFF1FAA
:104C6000B84C2388002B40F06182DFF810B3B649BE
:104C7000B64A0988D7F80080B2F800E0B448C1EB22
:104C8000080C0C229CFBF2F102FB11C14FF0900CBE
:104C90000CFB0EFE02FB01E16FF00B0E405880444E
:104CA0000EFB03807F2840F3B483A0F17F0393FBC6
:104CB000F2F002FB10307330A64BC0B2197803F04B
:104CC0009DFEBBF8002023881344022B23DD9E4A5F
:104CD0009E4B11883868B3F800C0DFF874E2411ABF
:104CE0000C2291FBF2F302FB1311902303FB0CF354
:104CF00002FB013373445B6818447F2840F3FA8356
:104D00007F3890FBF2F302FB13007330914BC0B27B
:104D1000197803F073FEBBF8002023881344032B9B
:104D200023DD894A894B11883868B3F800C0DFF861
:104D300020E2411A0C2291FBF2F302FB13119023A3
:104D400003FB0CF302FB013373449B6818447F2878
:104D500040F320847F3890FBF2F302FB13007330A2
:104D60007C4BC0B2197803F049FEBBF800202388C1
:104D70001344042B7EF7C4A9774B1B88012B7EF4C8
:104D8000BFA93A68A2F10C007F2840F3B1808B3AAA
:104D90000C2092FBF0F300FB132073306D4BC0B27C
:104DA000197803F02BFEFEF7ABB9DFF89CA199F858
:104DB0000000BAF80030694CC11A0C2291FBF2F3E2
:104DC00002FB131302FB03F3E35818447F287FF719
:104DD0005DAD7F3890FBF2F302FB1300733015E5F5
:104DE0005F4B1A88182A13D03B681344A3F11800AC
:104DF0007F2840F3C9830C20973B93FBF0F200FB24
:104E0000123303F17300534BC0B2197803F0F6FD6F
:104E1000544B55491A78022A94BF013200221A7065
:104E20001A7831F81200182810D10424022A02F14D
:104E30000100C2B288BF002231F81200182804D144
:104E4000013CF3D11A70FEF75BB91A703B6803445A
:104E5000A3F118007F284BDD0C20973B93FBF0F269
:104E600000FB123303F1730098E7FBF70BFC16E429
:104E7000FBF708FCFFF79BBB394B1B88182B12D0A4
:104E800099F800201344A3F118007F2840F33583DC
:104E90000C20973B93FBF0F200FB123303F17300FD
:104EA000C0B203F0D3FD2F4A2F4B127833F81230E3
:104EB000182B3DF4DCAF99F800201344A3F118003F
:104EC0007F287EF7DBAE0C20973B93FBF0F200FBD4
:104ED000123303F17300FEF715BEFBF7D3FB49E471
:104EE000DFF864A099F80000BAF800301F4C63E7BF
:104EF000FBF7C8FB52E71E4B1B78002B7EF460A823
:104F00001C4B1B78002B3DF418ACB8F800301A4944
:104F10000133A8F800300A70FDF70FBC144B1B7862
:104F2000002B7DF40AAC134B1B78002B3DF405AC31
:104F3000B8F800301049013BA8F800300A70FDF7BE
:104F4000FCBB00BF689CFF1FD89DFF1F829DFF1FF9
:104F500020120100659CFF1F0C9CFF1FC016010062
:104F6000FA9BFF1F669CFF1FF09DFF1F8419010025
:104F7000579EFF1F589EFF1FDB9BFF1FEE9BFF1FCF
:104F8000C94A1288182A12D01344A3F118007F28A6
:104F900040F30A830C20973B93FBF0F200FB1233A3
:104FA00003F17300C0B298F8001003F027FDBF4B67
:104FB000BF491A78022A94BF013200221A701A7867
:104FC00031F81200182811D10424022A02F101003C
:104FD000C2B288BF002231F81200182805D1013C66
:104FE000F3D11A703B68FEF7B6B91A703B680344F8
:104FF000A3F118007F287EF74AAE0C20973B93FB65
:10500000F0F200FB123303F17300FEF7FEBDDFF890
:10501000C8B2E3E4A74B1B88182B12D099F80020E4
:105020001344A3F118007F2840F3B8820C20973B6B
:1050300093FBF0F200FB123303F17300C0B203F0F4
:1050400005FD9A4A9C4B127833F81230182B7FF4E6
:1050500032AFFDF70CBF974B1A88182A13D03B6864
:105060001344A3F118007F2840F39B820C20973B48
:1050700093FBF0F200FB123303F173008F4BC0B2CD
:10508000197803F0BBFC894B8B491A78022A94BF2C
:10509000013200221A701A7831F8120018287FF4B1
:1050A000D5AE0424022A02F1010294BFD2B200223A
:1050B00031F8120018287FF4C8AE013CF2D11A7002
:1050C000FEF71EB87B4A1288182A12D01344A3F1A7
:1050D00018007F2840F30B820C20973B93FBF0F2E3
:1050E00000FB123303F17300C0B298F8001003F014
:1050F00085FC6E4B70491A78022A94BF0132002257
:105100001A701A7831F8120018287FF46FAF04244F
:10511000022A02F1010294BFD2B2002231F8120039
:1051200018287FF462AF013CF2D15AE7644ADFF8F5
:10513000A8B11288BBF80010033291427FF7C1ADCD
:1051400095E55F4ADFF890B11288BBF80010033292
:1051500091427FF70BADDFE45A4C2388002B40F0DF
:10516000BB81DFF874B1584999F80000574A0988A3
:105170001788DFF85CE1411A0C2291FBF2FC02FB7C
:105180001C114FF0900C0CFB07F702FB01716FF044
:105190000B075EF80110014407FB03107F2840F362
:1051A000F6817F3890FBF2F302FB13007330C0B23C
:1051B00003F04CFCBBF8002023881344022B21DDB4
:1051C000414B424A99F800001B88B2F800E0404F7A
:1051D000C31A0C2193FBF1F201FB1232902303FB63
:1051E0000EF301FB02333B445B6818447F2840F315
:1051F000E9817F3890FBF1F301FB13007330C0B2FB
:1052000003F024FCBBF8002023881344032B21DD8A
:105210002D4B2E4A99F800001B88B2F800E02C4F65
:10522000C31A0C2193FBF1F201FB1232902303FB12
:105230000EF301FB02333B449B6818447F2840F384
:10524000D0817F3890FBF1F301FB13007330C0B2C3
:1052500003F0FCFBBBF8002023881344042B7EF7EB
:1052600036AA174B1B88012B7EF431AA99F800202F
:10527000A2F10C007F287FF7B0A88B3A0C2092FB9C
:10528000F0F300FB13207330FFF799B8114B0122A4
:105290007F2107201A8003F089FB7F210B2003F078
:1052A00085FBFDF7B8BE00BFFA9BFF1F669CFF1F82
:1052B000F09DFF1F029CFF1F649DFF1F659CFF1F49
:1052C0000C9CFF1F689CFF1FD89DFF1F829DFF1F26
:1052D00020120100769CFF1FEE9BFF1FC74B04228C
:1052E0007F2107201A8003F061FB00210B2003F0CF
:1052F0005DFBFDF789BEC14B02227F2107201A808A
:1053000003F054FB7F210B2003F050FBFDF777BE29
:10531000BA4B002107201C8003F048FB7F210B20A3
:1053200003F044FBFDF766BEB54B00227F2107204A
:105330001A8003F03BFB7F210B2003F037FBFDF7C6
:1053400072BEFBF79FF90EE4AE4B1B88182B12D0F0
:1053500099F800201344A3F118007F2840F34481FA
:105360000C20973B93FBF0F200FB123303F1730028
:10537000C0B203F06BFBA44AA44B127833F812308E
:10538000182B3EF4A4A999F800201344A3F11800A7
:105390007F287FF722A80C20973B93FBF0F200FBBD
:1053A000123303F17300FFF70AB8994A1288182ADA
:1053B00012D01344A3F118007F2840F300810C2081
:1053C000973B93FBF0F200FB123303F17300C0B282
:1053D00098F8001003F012FB8B4B8E491A78022AC2
:1053E00094BF013200221A701A7831F8120018287E
:1053F0007FF4FCAD0424022A02F1010294BFD2B270
:10540000002231F8120018287FF4EFAD013CF2D1F0
:10541000E7E5FBF737F94FE47D4B1A88182A13D0DC
:105420003B681344A3F118007F2840F3D4800C207C
:10543000973B93FBF0F200FB123303F17300764BC2
:10544000C0B2197803F0DAFA6F4B72491A78022A5F
:1054500094BF013200221A701A7831F8120018280D
:105460007FF4F4AC0424022A02F1010294BFD2B208
:10547000002231F8120018287FF4E7AC013CF2D189
:105480001A70FDF73DBEFBF7FDF8FFF7CABA604B97
:105490001B88182B12D099F800201344A3F1180090
:1054A0007F2840F39B800C20973B93FBF0F200FB9E
:1054B000123303F17300C0B203F0C8FA524A554BDD
:1054C000127833F81230182B7FF4F5ACFDF7CFBC0F
:1054D000FBF7D8F8FFF770BB504ADFF854B11288D9
:1054E000BBF80010033291427FF764AE3BE6FBF756
:1054F000C9F8F9E5FBF7C6F808E4FBF7C3F8CFE411
:10550000434B1B88182B11D099F800201344A3F1AA
:1055100018007F2859DD0C20973B93FBF0F200FB2D
:10552000123303F17300C0B203F090FA364A394BDC
:10553000127833F81230182B7FF425AFFEF7C7B876
:10554000374B1B88182B11D099F800201344A3F176
:1055500018007F283CDD0C20973B93FBF0F200FB0A
:10556000123303F17300C0B203F070FA264A2D4BD8
:10557000127833F81230182B7FF405AFFEF7A7B876
:10558000FBF780F8FFF741BBFBF77CF83BE4FBF748
:1055900079F80CE6FBF776F8FFF7E2BBFBF772F859
:1055A0004CE5FBF76FF869E5FBF76CF8FAE4FBF7FD
:1055B00069F8FFF760BAFBF765F8FFF786BAFBF703
:1055C00061F804E7FBF75EF819E6FBF75BF8AAE77A
:1055D000FBF758F8C7E7FBF755F830E7FBF752F849
:1055E00069E7FBF74FF832E6FBF74CF8C0E60E4BE5
:1055F00003930E4B0293FDF747BF00BFD09DFF1FE3
:10560000D89BFF1FFA9BFF1F669CFF1FF09DFF1F8B
:10561000049CFF1F6C9DFF1F659CFF1F0C9CFF1FC0
:10562000029CFF1F649DFF1FB59BFF1F809CFF1FF7
:10563000EE9BFF1F38B507F0A5F80E4804F0DCFF1D
:105640000D4804F0D9FF0D4804F0D6FF00234FF0B9
:105650007E5201210A48FAF709FF0A4B0A4A0B4910
:10566000802400251C7118461D60BDE838400AF0F2
:105670004DBD00BFEC9BFF1F209CFF1F7C9CFF1FAC
:10568000AC9DFF1F249EFF1F1C89FF1F29060000E1
:1056900043682A20198803F00DBB00BF10B50446EB
:1056A00022206368198803F005FBE3682420198829
:1056B000BDE8104003F0FEBA10B504460A20636846
:1056C000198803F0F7FAE3680C201988BDE8104048
:1056D00003F0F0BA10B5044606206368198803F099
:1056E000E9FAE36808201988BDE8104003F0E2BA3F
:1056F00010B5044602206368198803F0DBFAE368FA
:1057000004201988BDE8104003F0D4BA70B50E4CDF
:1057100084B01225042201230646039002932046FA
:105720008DE824001423102106F06AF906220923CB
:10573000029303960195204600921423102106F04F
:105740005FF904B070BD00BF889EFF1F2DE9F041D6
:10575000224D82B0012602B284B200922846019600
:105760007823192106F092F804F10C0212B28DE8A8
:1057700044002846A7197823192104F1020806F0ED
:1057800085F83FB20FFA88F819233A462846194699
:105790000196CDF8008006F079F878233A4628463D
:1057A0001946CDF80080019604F10A070B3406F083
:1057B0006DF83FB224B278233A46284619468DE860
:1057C000500006F063F8192300943A4601962846E3
:1057D000194606F05BF802B0BDE8F081889EFF1F15
:1057E0002DE9F0411E4682B01446002A6AD0099B7A
:1057F0004D4A00EBC305012C6F8929896868A7EB26
:10580000010382FB03E21A444FEAE373C3EBA213E2
:1058100002887BD0042C38D112FA83F3994203DC3E
:105820009F423946A8BF1946089A0180B6F9003050
:10583000BDF920803D48971D4FF0000E3FB219463C
:1058400042460097CDF804E006F020F829896A89DD
:105850006B68521A1B885C2AA3EB010359DD03EB2A
:1058600043030132C3EB431393FBF2F303F11B0237
:1058700013B20120328019464246019000972B480E
:1058800006F004F82A4B00221A702A4B022CB3F9B6
:10589000001045D0082C31D100221A8091422DD021
:1058A000089AB6F9003021480632012412B200925B
:1058B00019460194BDF9202005F0E8FF204602B00A
:1058C000BDE8F0811C4D1D4A2B681268CB1A93422B
:1058D0000F4617D9164A338811781448012918BF82
:1058E00001241470089A06321BB212B28DE814001B
:1058F0001946BDF9202005F0C9FF2F60012002B034
:10590000BDE8F081204602B0BDE8F0819BB2D31A19
:1059100084E75C2101FB03F393FBF2F21B32A7E760
:105920004A1C12B21A80B9E7C94216B2889EFF1FFC
:10593000059FFF1F689EFF1FEC9EFF1FEC290100C3
:1059400030B583B000230C4605B2009326225B23BA
:105950001C210C4805F0EAFC2946012326220948AF
:1059600004F0F4FF002C24B205DB2146012326229B
:10597000044804F0EBFF044A044B15801C8003B07C
:1059800030BD00BF889EFF1F628AFF1F648AFF1F11
:10599000F0B59B4C237883B01BB19A4B4FF6FF7246
:1059A0001A80994BB3F90030C3B9984A954B1068E7
:1059B000B3F9002080F30C005B2303FB00F000131D
:1059C0001C3082425ED04FF0FF31FFF7B9FF9048A4
:1059D00005F010FD0023237003B0F0BD012B36D07D
:1059E000022B6ED0032B53D0042BF3D1252200259C
:1059F0008DE8240076231C218548864E864F05F0CD
:105A000045FF17E0B0F5AF7FA8BF4FF4AF70323855
:105A100003FB00F387FB0321DB17C3EB61111C3190
:105A200009B201231D442522794804F08FFF0C2D73
:105A300000F08480E9B2794804F046FE56F8042B61
:105A4000801A31284FF05B03DCDC1C21E9E7744B42
:105A50001A68B2F52F7F32DB41F25C239342A8BF74
:105A60001346A3F52F735B226E4802FB03F380FB02
:105A70000320DB17C3EBA0201C30624BB3F90030CE
:105A80008342A0D1684BB3F9003001339BD1A1E729
:105A9000664B1B68B3F5FA7F11DBB3F57A6FA8BFCD
:105AA0004FF47A63A3F5FA7261485B2303FB02F3B8
:105AB00080FB0320DB17C3EB20201C30DDE71C201C
:105AC000DBE75C4B1B68B3F5FA7F33DBB3F57A6F2A
:105AD000A8BF4FF47A63A3F5FA7255485B2303FB22
