:1000000000800020BD010000F9E00000B1E0000028
:10001000B1E00000B1E00000B1E00000B1E000009C
:10002000B1E00000B1E00000B1E00000F9E0000044
:10003000F9E00000B1E00000F10A0100F50A01005A
:10004000F9E00000F9E00000F9E00000F9E000004C
:10005000F9E00000F9E00000F9E00000F9E000003C
:10006000F9E00000F9E00000F9E00000F9E000002C
:10007000F9E00000F9E00000F9E00000F9E000001C
:10008000F9E00000F9E00000F9E00000F9E000000C
:10009000F9E00000F9E00000F9E00000F9E00000FC
:1000A00089B7000095B70000F9E00000F9E0000012
:1000B000F9E00000F9E00000F9E00000F9E00000DC
:1000C000F9E00000F9E00000F9E00000F9E00000CC
:1000D000F9E00000F9E00000F9E00000F9E00000BC
:1000E000F9E00000F9E00000F9E00000F9E00000AC
:1000F000F9E00000F9E00000F9E0000041EF000045
:10010000F9E00000C5F40000F9E00000F9E00000AB
:10011000F9E00000F9E00000F9E00000F9E000007B
:10012000F9E00000F9E00000F9E00000F9E000006B
:10013000F9E00000F9E00000F9E00000F9E000005B
:10014000F9E00000F9E00000F9E00000F9E000004B
:10015000A10E0100B50E0100C90E0100DD0E010067
:10016000F9E00000E1F70000F9E00000F9E000002C
:10017000F9E00000F9E00000F9E00000F9E000001B
:10018000F9E00000F9E00000F9E00000F9E000000B
:10019000F9E00000F9E00000F9E00000F9E00000FB
:1001A000F9E00000F9E00000F9E00000F9E00000EB
:1001B000F9E00000F9E00000F9E00000564B4CF2D5
:1001C000205210B51A804DF628121A8000BF00BFC9
:1001D0000DF096FF514B4FF010621A60504A9A6032
:1001E000504ADA60504A136813F4807304D14F49BF
:1001F0000B604FF4A85313604D4B1A78110703D5C9
:100200001A7842F008021A704A4B4B492A221A7097
:100210004A4A4B4B8B4204D252F8040F43F8040B6A
:10022000F8E7484B484900228B4202D243F8042B9E
:10023000FAE74649464A002352F8230041F82300D2
:1002400001336F2BF8D1434B434A802103F8011B44
:100250009342FBD1414B3D4A1A60414B8A221A70AE
:10026000A3F5805324225A70A0221A709A7992071B
:10027000FCD59A79D406FCD43A4A937903F00C035E
:10028000082B384BF9D103221A7140225A719A79FE
:100290009006FCD5334A9179324B4906FBD5324A58
:1002A000324911600221516020221A709A7902F0BD
:1002B0000C020C2AFAD12E4B2E4A1A602E4B2F4AD2
:1002C0001A6000225A60072243F8042C2C4AC3F813
:1002D0000C2D62B60EF09EFA144B1B68DA0705D59A
:1002E00028480EF06BF8284B284A1A60284B1B78D8
:1002F0005B0609D5244C254B22689A4204D121483B
:100300000EF05CF80023236012F056F90DF0FEFEAB
:1003100010F05CFEFEE700BF0E2005403080044078
:10032000823F04000100002B10D0034014D0034092
:1003300002D0074000E00740949CFF1F646001006A
:100340004088FF1F949CFF1F48A4FF1F0082FF1FCF
:100350000000000000E400E05FE400E008ED00E0E1
:100360000050064000400640448004400000030165
:1003700004800440C010050014E000E0FF76010096
:10038000000020201C1FEF5F1CE00340A5C3945A0F
:1003900000F00740FFFFFFFFFFFFFFFFFFFFFFFF32
:1003A000FFFFFFFFFFFFFFFFFFFFFFFFFFFFFFFF5D
:1003B000FFFFFFFFFFFFFFFFFFFFFFFFFFFFFFFF4D
:1003C000FFFFFFFFFFFFFFFFFFFFFFFFFFFFFFFF3D
:1003D000FFFFFFFFFFFFFFFFFFFFFFFFFFFFFFFF2D
:1003E000FFFFFFFFFFFFFFFFFFFFFFFFFFFFFFFF1D
:1003F000FFFFFFFFFFFFFFFFFFFFFFFFFFFFFFFF0D
:10040000FFFFFFFFFFFFFFFFFFFFFFFFDEF9FFFF23
:1004100010B5054C237833B9044B13B10448AFF33E
:1004200000800123237010BD949CFF1F000000007A
:1004300060600100084B10B51BB108490848AFF3D4
:1004400000800848036803B910BD074B002BFBD0A0
:10045000BDE81040184700BF00000000989CFF1F37
:1004600060600100949CFF1F0000000038B5044646
:10047000104621700A491D4611F086FE01464FF0D4
:100480007E5011F035FF074911F07EFEE560606097
:10049000256165610EF04EF9E061204638BD00BF70
:1004A000DB0FC9400024744938B50446104621705A
:1004B00009491D4611F068FE01464FF07E5011F0CB
:1004C00017FF064911F060FEE56060602561656117
:1004D0000EF030F9E06138BDDB0FC94000247449EB
:1004E00038B503780446032B20D8DFE803F01A1848
:1004F0001002C168406911F03DFD0D490546606874
:1005000011F0F6FE0146284611F0F2FE38BD08490A
:10051000406811F0EDFEE16811F036FE38BDC068AC
:1005200038BDC168406911F025FD38BD002038BDD7
:100530000024744970B504460E460EF0FBF80546DB
:10054000E069281A11F0CCFDE3682361E56166617A
:10055000A0610146606811F0CBFE0146A060104822
:1005600011F0C6FE11F09CF910F036FE11F0AEFC51
:10057000054601464FF07E5011F0FCFC616911F018
:1005800003FE21690646284611F0FEFD014630466D
:1005900011F0F2FCE0602046BDE87040FFF7A0BF1C
:1005A000000080BF38B50E201C4C0DF05BFC21888C
:1005B0001B4B884205461A881DDA0023511AB1F5F3
:1005C000805FAABF1B03C3EB03330131142093FBED
:1005D000F1F10DF005FF134B1988F1B923889D4205
:1005E00010DAC3F57F630F33282091FBF3F1BDE8E8
:1005F00038400DF0F5BE9042D4BFC1EB0003C1EB13
:100600000203DBE740F6FF718D42D4BFC3EB050167
:10061000C3EB0101C1EB0131E3E738BD9C9DFF1F36
:10062000649FFF1F049FFF1F10B5044610F016FCC7
:10063000204610BD70B44C88A04220D9012301335C
:10064000DBB21CB2660031F8144084421D46F6D37A
:10065000A04211D005F10045013D965B31F815101F
:1006600032F81530401AF21A00FB02F0641A90FBBF
:10067000F4F4E01870BC7047905B70BC70470226C1
:100680000125E5E700280CDA064A434282FB0320F5
:10069000DA17C2EB600000EB4000A3EB8000C0F172
:1006A0000C007047ABAAAA2A38B5234B1B78002B45
:1006B0002CD015200DF0D6FB204B1860204B1B884A
:1006C000984203DA1F4C237863BB38BD1E4A148856
:1006D000A042A4EB0302A8BF20467F2A1CDDC01A5B
:1006E000C001541C90FBF4F4002CEBD0154B1A788D
:1006F0000AB901221A70154D2B689C4204D0144B84
:10070000E1B2187809F030F92C6038BD11200EF0F4
:1007100045FF0A4B1860D1E7C01AC0EBC01090FB30
:10072000F2F4E1E70A4B0021187809F01DF90023E3
:10073000064A2370136038BDB89EFF1FC09CFF1F80
:10074000429DFF1F909FFF1F309FFF1F889FFF1F2D
:10075000189DFF1F38B50F200EF020FF1B4A1C4BC1
:1007600012881860C0F53B600830904220DB194BBE
:100770001B889842A3EB0204A8BF1846801A7F2C5E
:10078000C6BFC0010134C0EBC01090FBF4F47CB1D3
:10079000114B1A780AB901221A70104D2B689C422D
:1007A00004D00F4BE1B2187809F0DEF82C6038BDA8
:1007B000094C237803B938BD094B0021187809F09A
:1007C000D3F80023054A2370136038BDA09DFF1F96
:1007D000D89CFF1F1C9FFF1F409FFF1F509DFF1FA6
:1007E0003A9DFF1FF0B40E8886420DD203F10043FC
:1007F000013B31F81350854202D9F0BCFFF71ABF14
:1008000032F81300F0BC70471088F0BC704700BF8E
:10081000094B1B880C2B09D8084A80B252F82320B8
:1008200028B143F6FE73984203D9108C70471088A4
:1008300070470349FFF7FEBEEE9CFF1F043A01001C
:10084000A03B01004B4B4C4A2DE9F0471E88146831
:100850004A4BB442B3F80080494B33DB4445A8BF50
:100860004446A6421C60C8BF00202DDDC6EB080729
:10087000B7F5804F33DB80037B1C90FBF3F0FFF771
:10088000C7FF404A404B15881B88C0F3C61909FBB7
:1008900005F57F2D8246A8BF7F252BB3A64253DCEA
:1008A0004445D4BFC6EB0404C6EB08049F42CCBF4A
:1008B00003FB04445C43354BC8BF013794FBF7F797
:1008C0001F6013E034461E60C6EB0807A045D4BF86
:1008D000C6EB0800C6EB0400B7F5804FCBDAC0EBDF
:1008E000803090FBF7F0CAE7284A1360284C236851
:1008F000994508D0274B1B88002B34D1264B1B88E9
:100900006BBBC4F80090254C23689A4506D0214B58
:100910001B885A1F032A19D9C4F800A0204C236849
:100920009D420FD01F4B188848B11A4B1E4A1B8896
:10093000D35C834203D0C0B2E9B209F015F8256058
:10094000BDE8F087BDE8F0870024AFE7164AD05C29
:100950002030C0B20AF07F0109F006F8DCE7484613
:1009600009F0A2F8CDE7104A4946D05C08F0FCFF38
:10097000C4E700BF9C9DFF1F009FFF1F649FFF1FD8
:10098000B89CFF1FC89CFF1FCA9CFF1F689FFF1FCA
:10099000349DFF1FE89EFF1F8E9DFF1FE89CFF1FD9
:1009A000909DFF1FF69EFF1F208AFF1F2DE9F04F2D
:1009B00001208BB00EF0F2FDDFF870B3DFF870A30A
:1009C000CBF8000000200EF0E9FDBA4BCAF8000099
:1009D0001B880C2B00F05E82B74EB84A3188B84BAA
:1009E00052F8214000221A70B64BB74A1B88B7490B
:1009F0001288013B012A31F91330059300F0AE81D2
:100A0000B34B0193B34B0293B34FDFF8288300231A
:100A10000093B24B1B88012B00F0F481DFF8189390
:100A2000AF4B0393D9F80050AE4B04930023AE4A6A
:100A30001288013A032A00F24982DFE812F0A50089
:100A4000ED000400C9002846059311F049FBA749B1
:100A500011F09AFB059B0546184611F041FBA4498D
:100A600011F092FB0146284611F086FA11F052FD72
:100A70000546C9F80050386811F032FB9B4911F067
:100A800083FB8146009811F02BFB994911F07CFB08
:100A90000146484611F070FA11F03CFD3860954A65
:100AA000954B17881988954BDBF800201B88DFF8D9
:100AB0008CE2C7EB050C3D44039FC7F800C0471A02
:100AC000084404990D6001990F600299BEF8007006
:100AD00008609A4280F2E7800025C3EB070E744558
:100AE000DAF8000080F2D380611C984205FB01F522
:100AF0000EF1010E95FBFEF5C0F25F838742A8BFA1
:100B00000746FF1A01FB07F494FBFEF49A4200F338
:100B1000A780984200F3A480794C206811F0E0FA95
:100B2000784911F031FB784911F026FA11F0F2FC06
:100B3000A0F5FF531C3B082B98BF4FF40050D8F88A
:100B40000030184400282060C0F29F80B0F5804F2C
:100B500080F2F6806D4B1B781BB1B0F5005F40F062
:100B6000F7806B4D2B78002B40F0AB81694D2068EE
:100B70002B68634C984204D080B208F0C5FE23680D
:100B80002B600BB0BDE8F08F2846059311F0A8FA52
:100B9000614911F0F9FA059B0546184611F0A0FAD3
:100BA0005E4911F0F1FA0146284611F0E5F911F01D
:100BB000B1FC0546C9F80050386811F091FA564961
:100BC00011F0E2FA8146009811F08AFA53495DE784
:100BD0002846059311F084FA4A4911F0D5FA059B8D
:100BE0000546184611F07CFA4D4911F0CDFA014640
:100BF000284611F0C1F911F08DFC0546C9F80050E6
:100C0000386811F06DFA3F4911F0BEFA814600983C
:100C100011F066FA424939E72846059311F060FA67
:100C2000404911F0B1FA059B0546184611F058FAF3
:100C30003D4911F0A9FA0146284611F09DF911F03D
:100C400069FC0546C9F80050386811F049FA354981
:100C500011F09AFA8146009811F042FA324915E7EC
:100C60003388002B3FF458AF2B1B002BB8BF5B42DF
:100C7000092B00F32D81D8F80030214C4FF400509F
:100C8000184400282060BFF661AF00225AE0984265
:100C900005FB04F5B8BF002195FBFEF580F28482C8
:100CA00091FBFEF432E7BA42D4BFC3EB0205C3EBBB
:100CB000070512E7329FFF1F289DFF1F9C89FF1F1A
:100CC000BE9CFF1F3689FF1F069FFF1FE03E0100ED
:100CD0008C9FFF1F609DFF1FB09CFF1F989EFF1FF2
:100CE000249FFF1F9C9EFF1F7289FF1FCDCC4C3F8E
:100CF000CDCC4C3E2C8AFF1F7089FF1FFC9EFF1F2E
:100D0000D489FF1F9A99193FCDCC4C4546A0FF1FAF
:100D10008C9DFF1F3889FF1F3333733FCDCC4C3D73
:100D2000CDCCCC3E6666663FCDCCCC3D209DFF1F32
:100D3000E49CFF1F3C9FFF1F209FFF1F049DFF1F80
:100D400043F6FF72C04B22601B78002B3FF409AFC3
:100D500005F05AFFBD4B01221A7007E7BC4BBD4A94
:100D60001B88BD491278013B31F91350002A40F02D
:100D7000C78011200EF012FC0090B84B0193D3F8FD
:100D80000080009B984540F3C080B54BB54F1B8851
:100D9000B54A012B3B68B2F80090B44A0292204653
:100DA000A3EB050500F0E28011F09AF9029A52F8DF
:100DB000291011F0E9F90146002011F0DBF811F0DB
:100DC000A9FB009BC8EB05029D42B8BF1D4690429F
:100DD000C8EB050580F2DE8000FB0555013295FB6E
:100DE000F2F5A34BDFF8B4820293D8F800302B441D
:100DF00003EBD3735B10C8F800309E4B1B88012BAC
:100E00007FF40CAE9C4B03931D460F200EF0C6FBE7
:100E10002A6804929042034680F2CC80904A12885D
:100E2000012A00F03F81904A079012888F4D069268
:100E3000204611F055F9069ADFF8649255F8221011
:100E4000D9F8005011F0A0F90146002011F092F8F5
:100E5000059BEA1A059211F05DFB059A079B049920
:100E60009A42C1EB020EB8BF1A46704580F2448127
:100E7000521A00FB02220EF1010192FBF1F2D8F8A6
:100E800000107E4804900A4402EBD2725210C8F857
:100E90000020CCE57A4B1B78002B3FF49DAD794EBA
:100EA000794A3188794B52F8210001221A7011F0E9
:100EB00017F94FF07C5111F067F911F02BFB044644
:100EC00092E505F09DFE00232B704FE63868E6E5BD
:100ED00005F500500130001B11F002F96C496D4C12
:100EE00011F052F90546206811F0FAF86A4911F03C
:100EF0004BF90146284611F03FF811F00BFB1EE6B6
:100F000015200CF0AFFF009037E7594B0293D3F850
:100F10000080009B984542DA514B524F1B88524A41
:100F2000012B3B68B2F80090504A039220461D44C2
:100F300000F0E98011F0D4F8039A52F8291011F06A
:100F400023F911F0E7FA009B9D42C8EB0502A8BF08
:100F50001D46C8EB05059042BABF00FB055501329E
:100F6000454395FBF2F5DFF834813EE711F0B8F820
:100F7000029A52F8291011F007F911F0CBFA009BF0
:100F8000C8EB05029D42B8BF1D468242C8EB05056D
:100F90003FF722AF00FB05F595FBF2F521E7DFF8FF
:100FA000FC80304FD8F8003003EBD3735B10C8F8E7
:100FB00000302EE5314A049212680692904237DDE5
:100FC000274A1288012A00F0BC80274A099011881C
:100FD000264A08912046079211F082F8079A08994C
:100FE000DFF8BC9052F82110D9F8005011F0CCF87D
:100FF000059B2B44059311F08DFA0599099B069AE0
:101000009942C2EB010EA8BF1946704580F2BE801E
:10101000891A00FB01110EF1010291FBF2F2D8F8DE
:1010200000100A4402EBD2725210C8F80020FEE40D
:10103000D8F80020DFF8689002EBD2725210D9F88D
:101040000050C8F80020F2E446A0FF1F8C9DFF1F4F
:10105000788AFF1FB89EFF1F583B01008C9FFF1F1F
:10106000729DFF1FB09CFF1F0C9DFF1FF83E0100EB
:10107000609DFF1F989EFF1F249FFF1F9C9EFF1FC8
:10108000D49CFF1F289DFF1F9C89FF1FBE9CFF1F34
:10109000CDCCCC3ED489FF1F9A99193F3C9FFF1FAE
:1010A000209FFF1F464A08901188464A0791204614
:1010B000069211F015F8069A0799DFF80C9152F88C
:1010C0002110D9F8005011F05FF8059BE91A05913D
:1010D00011F020FA0599089B049A9942C2EB010E7F
:1010E000B8BF1946704558DA891A00FB01110EF194
:1010F000010291FBF2F2C2E60499521A00FB02F2DD
:1011000092FBFEF2BBE610F0EBFF039A52F82910B7
:1011100011F03AF80146002010F02CFF11F0FAF916
:10112000009A9542C8EB0503A8BF1546C8EB050514
:101130009842BABF00FB05550133454395FBF3F5D3
:1011400011E71F491F4A089020460D88079210F0AA
:10115000C7FF079ADFF8709052F82510D9F80050B1
:1011600011F012F80146002010F004FF059B2B44FB
:10117000059311F0CFF90599089B069A9942C2EBA5
:10118000010EA8BF19467045FFF642AF069A891AAC
:1011900000FB01F191FBFEF241E7049A891A00FB82
:1011A00001F191FBFEF26AE6B842D4BFC3EB000145
:1011B000C3EB070104FB01F172E51F46A1E400BF88
:1011C0000C9DFF1FF83E0100209FFF1F08B5244B18
:1011D0001B88FBB1234B1B78FBB1234B1B78E3B17E
:1011E000224B1B78CBB1224B1B78B3B1214B224849
:1011F0001A78C2B9214A2249008812880968024433
:10120000B1EB620F09DD01221A706420BDE80840CD
:1012100005F00EBD174A117801B908BD1370BDE87D
:10122000084008F015BC154A16490088128809685C
:101230000244B1EB620FF0DD00221A7008F008FCE6
:10124000642005F0F5FC642005F0F2FC642005F054
:10125000EFFC4FF41670BDE808400DF08DBA00BFEA
:10126000AA9EFF1F609FFF1F619FFF1F629FFF1FBE
:10127000639FFF1FEC9CFF1F049DFF1FFC9EFF1F31
:10128000209DFF1FE49CFF1F38B5114C23202578BB
:101290000CF0E8FD0F4A42F82500131F02F1C400CC
:1012A000002253F8041F83420A44FAD123780A49E2
:1012B00007480A4C0133DBB2322B81FB025108BFD5
:1012C0000023D217C2EB21120370226038BD00BF89
:1012D000CC9CFF1FAC9DFF1F1F85EB51F89EFF1F8D
:1012E0002DE9F04FB84CB94D2068B94F83B010F0DC
:1012F000F7FEB84910F048FF064610200EF04EF9F0
:1013000010F0EEFEB44910F03FFF314610F034FE0D
:1013100011F000F92988206088423B8843DA9E4614
:101320005B1A7F2B4FF0000247DDD2015E1C92FB5F
:10133000F6F2AA4EDFF8C882B6F800C0C8F800205E
:10134000BCF1190F00F0DF80BCF11A0F00F017811B
:10135000BCF11E0F00F020810126B146A04A128880
:10136000002A00F09D808842C0F207817045D4BFFA
:10137000C1EB0000C1EB0E009A42BABF02FB0000B5
:101380000133504390FBF3F3964A1360964B188851
:10139000C0B9964A1288AAB9954B197801B11A704A
:1013A00003B0BDE8F08F9842D4BFC1EB0002C1EB9F
:1013B00003029E465B1A7F2BB7DCC2EBC21292FB84
:1013C000F3F2B6E72988D4F800E0DFF80082DFF80E
:1013D000F8A171456CDCDFF818C29CF80020002AE7
:1013E0002ED14FF0010B04288CF800B028D1002E2C
:1013F00040F094817D4B18880028D1D0B9F1000FBE
:10140000CED023682C883A88A34280F265810023DD
:10141000141B7E2C774DD5BFC3EB8313C3EBC313D3
:101420005B00013493FBF4F42B680134A34203D036
:10143000C0B2E1B208F098FA2C6003B0BDE8F08FBA
:10144000012800F0F680022800F0EB800328D1D1BB
:10145000694B1B88092BCDD0002ECBD023682E885A
:101460003A88B34280F27B810023961B7E2EDFF800
:101470008CA1D5BFC3EB8313C3EBC3135B00013651
:1014800093FBF6F6DAF800300136B34203D0F1B23E
:101490004A2008F069FACAF80060ABE716469146A0
:1014A000BCF11E0F7FF472AF0022DFF858817EE09E
:1014B0004F4B1A78002A3FF473AF002401281C70A8
:1014C00000F0A480022840F00E81002E00F0A380DE
:1014D0004A4D2B68002B00F09E800420214608F026
:1014E00043FA424B2C60188800283FF459AFB9F1F9
:1014F000000F3FF455AFC0B2002108F035FA3D4B64
:1015000000221A604CE7DFF8FC8098F80020C2B196
:10151000DFF8D890B9F800A0BAF1000F11D0DFF8C9
:10152000E89099F800B0934578D05FFA8AF07F216F
:1015300008F01AFA98F80030B6F800C089F80030C0
:1015400010E0DFF8C49099F800A0924566D0274BD0
:101550000021187808F008FA98F80030B6F800C0B2
:1015600089F800301E4B1A88002A97D0BCF11E0F54
:1015700040F006810026B14619E00020FCE6DFF8C5
:10158000848098F80020002A0BBF012600264FF027
:1015900000094FF00109E1E6DFF86880104B98F888
:1015A00000601A88B6FA86F676094FF0000998F8B6
:1015B0000030002B3FF4E8AE2988B7F800E020683F
:1015C000C1EB0E03CFE600BF149DFF1FB09EFF1FAF
:1015D000AC9EFF1F9A99193FCDCCCC3E329FFF1F86
:1015E0006C9FFF1FA49DFF1F1C9DFF1F449FFF1F9B
:1015F000389FFF1FF89CFF1FE89EFF1FA89DFF1F3D
:10160000189FFF1FD49CFF1FD09CFF1F1EB1614D70
:101610002B68002B7BD1604B188865E70026B1460C
:101620009CE6002E3FF4E6AEDFF868A1DAF8002071
:101630002EE0002E3FF4DEAEB7F80080F045D4BFB8
:10164000C1EB0802C1EB0E02C1EB0808B8F17E0F36
:10165000DFF840A1D5BFC2EB8212C2EBC21252002A
:1016600008F1010892FBF8F8DAF8002008F1010807
:10167000424506D05FFA88F10120009308F074F922
:10168000009B1888CAF8008002287FF4DFAE42462B
:101690002168B5F800803888414559DA0021C8EB47
:1016A0000008B8F17E0FD3BFC1EB8111C1EBC111AE
:1016B00008F10108490091FBF8F808F1010890458C
:1016C00006D05FFA88F10420009308F04DF9009BE2
:1016D0001888CAF80080B9E69342D4BFC4EB03036C
:1016E000C4EB020394E6032827D12C4B1B88092B5B
:1016F00091D0002E8FD0274D2B68002B8BD04A2005
:10170000214608F031F9244B2C601888ECE621467C
:1017100008F02AF9204B2C601888E5E640207F214C
:101720008DE80C0008F020F9019B009A18885845B4
:101730001CD002287FF48AAE76E704287FF46BAFD2
:10174000002E3FF468AF2146402008F00DF962E713
:101750008142D4BFC8EB0101C8EB00019FE793426F
:10176000D4BFC6EB0303C6EB02037EE6B8F8001055
:10177000DAF800E0B7F800808E45FFF665AF5DE768
:101780002988B7F800E020680026C1EB0E03B146B7
:10179000E9E500BFA89DFF1F449FFF1FE89EFF1FB4
:1017A00008B5114B1B88022B09D0052B07D0032B42
:1017B00015D0042B0BD00D4B01221A7008BD7F21D0
:1017C000412008F0D1F8094B01221A7008BD7F2191
:1017D000092008F0C9F8054B01221A7008BD402104
:1017E000092008F0C1F8E6E7A29DFF1F469DFF1FF4
:1017F00038B5074B074D1B88052B044606D02B68D0
:10180000834203D0C1B2052008F0AEF82C6038BD89
:10181000A29DFF1F4C9FFF1F38B5124D124C2B8805
:10182000052B12D022684AB9022B0ED0033B012BA4
:1018300013D90E4A00231370236038BD0021052000
:1018400008F092F82B88022B04D10021412008F0E7
:101850008BF8EEE7052BE9D1F7E70021092008F026
:1018600083F8E6E7A29DFF1F4C9FFF1F469DFF1FC9
:10187000464B1B881D2B70B541D0454D0024454B70
:101880001B88022B16D0444B1B88022B54D028886F
:10189000424B002C1B780ADB8442A8BF044634B1BB
:1018A000002B3AD02046BDE87040FFF7A1BF002BC7
:1018B0002FD170BD3A4B1B78002B37D015200CF080
:1018C000D1FA384B1860384A1288002ADBD0374AE0
:1018D000186811888142D6DC354B2A881B888342E0
:1018E000A3EB0106A8BF03465B1AB242BABF02FBD4
:1018F00003330136534393FBF6F31C44C3E72A4BEF
:101900001C888CB12B4B224D1C78002CB7D02C8816
:10191000B5E7BDE87040FFF77FBFFFF741FF204606
:10192000BDE87040FFF764BF194DA8E711200DF026
:1019300035FE1C4B1860C6E70F200DF02FFE1A4B2A
:101940001D4A1B881060002BA1D01C4AC0F53B63C8
:10195000118808338B429ADB194A288812889342EF
:10196000A2EB0105A8BF1346A842A3EB010306DAC8
:1019700000FB0333013593FBF5F31C4488E700FBC0
:1019800003F292FBF5F31C4482E700BF329FFF1F76
:101990003A9FFF1F069FFF1F989EFF1F469DFF1F38
:1019A000B89EFF1FC09CFF1FA29DFF1F429DFF1FEF
:1019B000309FFF1FD49CFF1FD89CFF1FA09DFF1FBF
:1019C0001C9FFF1FF8B510200DF0E8FDC830B0F5E2
:1019D000FA7FC0F29680B0F57A6F0146A8BF4FF447
:1019E0007A6101F51673B3F57A6FA8BF4FF47A6385
:1019F0009BB289B2914A924C11802220238008F038
:101A000035F921888F4D904C242008F02FF90E20B5
:101A10000CF028FA40F6FF71C8308842A8BF08468B
:101A200020EAE07000F2DC5283B28A42A8BF0A4684
:101A30000220194622802B8008F018F92188042002
:101A400008F014F901200DF0A9FD044600200DF066
:101A5000A5FDA042B8BF204600F1C801B1F5FA7F4C
:101A6000C0F2D180B1F57A6FA8BF4FF47A6101F569
:101A70004873B3F57A6FA8BF4FF47A639BB289B20B
:101A8000724A734C11800A20238008F0EFF82188F5
:101A90000C2008F0EBF80F200DF080FDC0F53F6141
:101AA0000431B1F5AF6FC0F2AB80B1F5FA6FA8BFEA
:101AB0004FF4FA6189B2674BC0F54360B0F5AF6F80
:101AC0001980C0F29A80B0F5FA6FA8BF4FF4FA609F
:101AD00083B2614CA420238008F0C8F82188A62096
:101AE00008F0C4F815200CF0BDF900F59671B1F5B9
:101AF0002F7F0BDB41F25C23994240F3898019462A
:101B000008E040F24C434FF4FA7173E740F214538B
:101B10004FF42F71514A1180514C524D23800620B1
:101B200008F0A4F82188504E082008F09FF80027FC
:101B30004FF4AF74F9B24D4809F05CFE55F8043B20
:101B4000C3F5967300FB03F086FB0023C017C0EBC0
:101B50006310844207F10107A8BF0446062FE9D1AC
:101B6000434F414E0025E9B2424809F043FE57F881
:101B7000043BC3F5967300FB03F086FB0023C017FC
:101B8000C0EB6310844205F10105A8BF04460C2D8B
:101B9000E9D1394F344E0025E9B2384809F02AFE20
:101BA00057F8043B304AC3F5967300FB03F086FBFD
:101BB0000013C017C0EB6310844205F10105A8BFF4
:101BC00004460C2DE8D1A4F11401312931DD40F295
:101BD0003A73A4F5B97403FB04F482FB0432E417EE
:101BE000A4EB621289B232322548264B01801A607A
:101BF0002A20BDE8F84008F039B84FF4AF6368E731
:101C00004FF4AF6157E740F214534FF4FA7137E7DE
:101C1000124A00F5617089B2B0F52F7F1180B8BF0C
:101C20004FF42F73FFF678AF8342A8BF03469BB2F1
:101C300072E740F26C723221D6E700BFB09EFF1F00
:101C4000AC9EFF1F9C9DFF1F649FFF1FFC9EFF1FFC
:101C5000049DFF1FA09DFF1F1C9FFF1F429DFF1F94
:101C6000309FFF1F608AFF1FB5814E1BF09CFF1F36
:101C7000308AFF1F249DFF1F4089FF1F949DFF1F77
:101C80005E9FFF1F1C8AFF1F2DE9F04F0C2083B0C1
:101C90000CF0B4F80C200CF0A1FCC949DFF8A8A3A3
:101CA00014200CF0ABFCC749C74809F073FA0221B5
:101CB00003200CF039FD022104200CF035FD022137
:101CC00005200CF031FD022106200CF02DFD012134
:101CD0000A200CF029FD012109200CF025FD01212D
:101CE0000D200CF021FD012128200CF01DFD01210B
:101CF00014200CF019FD012116200CF015FD012116
:101D000017200CF011FD012121200CF00DFD022106
:101D10001C200CF009FD01211B200CF005FD002109
:101D20001B200CF0EDFC1C200CF0F0FCB0FA80F352
:101D30005B091A208AF800300CF036FF1F200021C2
:101D40000CF0F8FE04200CF0E1FC002800F0878184
:101D500005200CF0DBFC002800F0B28100239B4C36
:101D6000062023700CF0D2FCB0FA80F35B094FF030
:101D7000000B974A137006F01FFB2478002C40F0EC
:101D80006981584607F09CFF924B934A1B88934801
:101D9000128802709249934D40F23A72A3F5AF73E4
:101DA00002FB03F381FB0312DB17A3EB6213323355
:101DB00001210D202B600CF0A3FC64200CF0DCFC56
:101DC00006254FF416710A200CF00AFB00950C232F
:101DD0007D4A85485D2109F075FD002800F0AD8140
:101DE00064200CF0C9FC21460A200CF0F9FA4FF4EB
:101DF000967109200CF0F4FA00950C23724A7B4886
:101E00005C2109F05FFD002800F0848164200CF063
:101E1000B3FC214609200CF0E3FA4FF4967116202A
:101E20000CF0DEFA00950C23674A71485B2109F03B
:101E300049FD002800F04B8164200CF09DFC2146F8
:101E400016200CF0CDFA4FF4967117200CF0C8FA5A
:101E500064200CF091FC214617200CF0C1FA64209C
:101E60000CF08AFC21460D200CF04AFC614A6248C5
:101E70001268DFF8D891614F614D624EDFF8D08172
:101E800000230121FEF710FB01233C602C6034602D
:101E900089F8003004240F200DF080FB33680344E0
:101EA0000E2033600BF0DEFF3B6899F800201844E9
:101EB0003860002A7DD015200BF0D4FF2B68184421
:101EC000286004F0010080F0010004F0A1FEB8F8E1
:101ED0000030002B14BF4B20DC200CF04DFC013CEB
:101EE000D9D133683968454A2868474F002BB8BFB5
:101EF00003330029B8BF0331891011604349444AB4
:101F0000098814889B1000283360B8BF0330414E05
:101F10008210581A19442A60316038603E4D3F489B
:101F20003F49161B22442E6002600B60BBF1000F7C
:101F300040F0AE80B8F80030002B00F09C80394BA8
:101F4000012404201C600CF0E1FB18B9364B234A35
:101F50001C701070354B1B881C2B00F0A180344C7A
:101F600004F1C80523200BF07DFF44F8040F012085
:101F70000CF002FCA542F5D19AF8003023B12D4BAC
:101F80001B78002B40F09780002121200CF0B8FB3B
:101F9000294A2A4B1078187007F02EFE04F030FE04
:101FA0002749284845F6BF5203B0BDE8F04F0EF070
:101FB0000BBF11200DF0F2FA2B681844286080E75F
:101FC000001B374640420F007091FF1FF69CFF1F19
:101FD000A09EFF1F5E9FFF1F349FFF1F5C9DFF1F82
:101FE000B5814E1B1C8AFF1FF09CFF1F949DFF1F95
:101FF000249DFF1F3C89FF1FC49EFF1FC49CFF1F21
:10200000B09CFF1F209FFF1F249FFF1F2C8AFF1FD4
:102010007089FF1F9C9EFF1F8C9FFF1F609DFF1FED
:10202000749FFF1F2C9FFF1FDC9CFF1F329FFF1F11
:10203000A89DFF1FB29EFF1FB49EFF1F979EFF1F0C
:10204000A5050000549FFF1F9A9EFF1FB89EFF1F0B
:10205000F29EFF1F03B0BDE8F04F08F0AFBF0620AF
:102060000CF054FB00287FF473AE374C034620700D
:102070004FF0010B7DE64FF4FA7004F0D9FD04F047
:10208000C3FD06F0C3FC4FF4AF600CF075FB56E7E0
:10209000FFF798FCB8F80030002B7FF450AFEAE768
:1020A0002A4B188800283FF45AAF294BC0B2197840
:1020B00007F05AFC53E7012121200CF021FB67E7D0
:1020C00003200CF023FBB0FA80F35B0947E6032002
:1020D0000CF01CFB0028FAD104200CF017FB0028A0
:1020E000F5D105200CF012FB0028F0D106200CF0F1
:1020F0000DFB0028EBD10DF071FB04200CF006FB6A
:1021000040B905200CF002FB20B906200CF0FEFAC5
:102110000028F0D003200CF0F9FA0028FAD1ECE7FF
:1021200004200CF0F3FA40B905200CF0EFFA20B9C6
:1021300006200CF0EBFA0028DDD003200CF0E6FAC4
:102140000028FAD1ECE700BFF69CFF1F649DFF1F3B
:10215000109DFF1F2DE9F04FAD4C2678012E95B054
:1021600000F05582C0F00B82022E00F0D880A94901
:10217000A94A91F800801178A84ADFF83CE3A84DFD
:10218000A84FA948A94B0292A94A0092A94A9EF8D1
:1021900000B001922D78A84A3F7890F800E01B78B3
:1021A000DFF818A3DFF818C3DFF818930392012EA5
:1021B00084BF00222270A14AA1481370A14A80F86E
:1021C00000B01570A048A14A077082F80080A048AE
:1021D000A04A03709CBF013626701170BEF1000F3B
:1021E00040F074819C4A10880D2800F0B9819B4C06
:1021F00000202070024604462DB197480088002830
:1022000040F0BA810546964806882544002E40F0E5
:1022100067819448944C019E007836782478013088
:10222000A0EB4600002C40F05682039C94F800E09E
:10223000CEEB0004BEF1000F40F076820026DFF8FE
:1022400074E202989EF800E00078A41BA4EB4E0410
:102250003C44CBEB040410B1B7FA87F040099CF87A
:1022600000602718BC1B1EB11EF1000618BF012616
:10227000009F99F8000097F800909AF800C07B4FF3
:10228000C6EB040EC0EB0E00A0EB49008044C3EB8C
:102290000803A3EB41010C2313FB0C113960744BB1
:1022A000744F754C75481B880088D7F800C0744E71
:1022B0002788744C3688D4F800E0033BC0EBC00498
:1022C00003EB4303C7EBC70001EB830364446E4F8A
:1022D000334470446D4E57F8244056F820000C3BB0
:1022E0001D44254405440AB1694B1960694A1368C5
:1022F0009D4200F03181684B684819680791079941
:1023000001601B6808936648089B008815605B1A8B
:10231000834284BF634B1D6015B0BDE8F08FDFF8CA
:10232000A881614E08AF0025E9B2604809F062FA61
:1023300058F8043BC3F5967300FB03F086FB0023BB
:102340000135C017C0EB63100C2D47F8040BEBD11F
:10235000574B384D0195384DB3F800C00395109D8B
:1023600009980F99404EDFF8C0A0DFF8B490DFF86D
:10237000BC80654511AA8CCAAE46ACBF4FF0000EBA
:102380004FF0010E8445D4BF0020012030708C45F1
:1023900028480B9D1F4E8AF800E0D4BF0021012180
:1023A000017094452449DFF814A1D4BF0022012212
:1023B0000A709C453F4AD4BF00230123BC45AB466D
:1023C000D4BF002701271370AC45164B0C9D1F701E
:1023D000D4BF4FF0000B4FF0010B374B0F4A029266
:1023E000AC45DFF834C0124A83F800B0D4BF0025F2
:1023F000012589F8005098F800309CF8001096F8F4
:102400000080DFF8BCC02678DFF8B8900092CEE6F6
:10241000969EFF1FE49EFF1FE69EFF1F749DFF1FF9
:10242000EB9EFF1F449DFF1F989FFF1FE59EFF1F10
:10243000369FFF1F499FFF1F4A9FFF1F929FFF1F4D
:10244000939FFF1F949FFF1F959FFF1F969FFF1F46
:10245000979FFF1F379FFF1F9A9FFF1FD49CFF1F4F
:10246000BC9CFF1F2E8AFF1F809FFF1FEC9EFF1F3B
:102470000A9FFF1FA49DFF1F489DFF1F289FFF1F4E
:10248000CE9CFF1F689FFF1FF43C0100A036010097
:10249000789FFF1F3C9DFF1F64A0FF1F2C9DFF1F07
:1024A000429FFF1F849FFF1FB5814E1B949DFF1FFE
:1024B0005E9FFF1F4B9FFF1F459DFF1FA19EFF1F9C
:1024C000919FFF1F5C9FFF1F4089FF1FAF4AB048CD
:1024D00014880122182C027040F2058100248BE63A
:1024E000012E00F08F81022E00F0EE81032EA94B09
:1024F00000F01F811E78009B9CF800E01C78019B77
:1025000099F800C01878029B93F80080039B1F780D
:10251000A6EB4E03A4EB8404CCEB030CC0EB80765B
:102520000CEB0403C0EB8600034403EB480303EB0E
:10253000810327B198490978002940F0608201267B
:102540009AF800109548C1F1060101EB41013344AE
:1025500003EB81010160A2E69149924B0968D0E644
:10256000002D3FF444AE894A894E14880122182C6C
:10257000327040F2B8807446A0F10D0543E6DFF8F2
:102580007092894F0DF120080025E9B2874809F0C3
:1025900031F959F8043BC3F5967300FB03F087FB50
:1025A00000230135C017C0EB6310062D48F8040B5B
:1025B000EBD17F4BDFF83CA219880D9B00228B42A8
:1025C0008AF8002080F2A2807A4B8AF800507A497B
:1025D0007A4A7B4891F8008011787A4A1D700292FD
:1025E0000378794ADFF810C2DFF810920092774A38
:1025F000774E784D784892F800E0784A0192784A10
:1026000096F800B02D78077826780392CFE5DFF8AA
:10261000F081654E08AF0025E9B2724809F0EAF88A
:1026200058F8043BC3F5967300FB03F086FB0023C8
:102630000135C017C0EB63100C2D47F8040BEBD12C
:102640005B4B0C9D1F885F4B02935F4B00930B9B72
:102650000A98099ADFF8A0C1089EDFF8A0910F99A7
:10266000BB429E46ACBF4FF0000E4FF0010EAF4292
:10267000D4BF002501258742109B8CF80050D4BFA1
:1026800000200120504D89F800009742D4BF00225D
:102690000122B742D4BF4FF000084FF001082A7062
:1026A0009F42474A4448474E80F80080D4BF0023E9
:1026B00001231370129A414886F800E08F42D4BF7C
:1026C00000210121974201701ADC00224648DFF800
:1026D00024A102708BE7039C46B12678002E40F0BF
:1026E0006081441EABE50C3C012285E594F800E0D6
:1026F0000138CEEB0004BEF1000F7FF4A0AD9DE5E4
:10270000119A9742D4BF00220122DFE70C9A374B7F
:102710009142CCBF012200221A7040F34581052569
:102720008AF80050234B52E7002E3FF487AD012674
:1027300085E51C78009B029893F80080019B9CF82B
:1027400000601B7890F800C099F800700398A4EB23
:102750004604E71B90F800E0C3EB8374A8EB880005
:102760003844C3EB8403034403EB4C0303EB8103C2
:10277000BEF1000F40F0488101269AF8001007488A
:1027800033440C2414FB0131016088E5329FFF1FA4
:10279000D49CFF1F2E8AFF1F4B9FFF1FEC9EFF1F25
:1027A0002C9DFF1F64A0FF1FB5814E1BF09CFF1FD7
:1027B0005E9FFF1FAE9EFF1FE49EFF1FE69EFF1F52
:1027C000E59EFF1F749DFF1F369FFF1F989FFF1FF1
:1027D000459DFF1FEB9EFF1F449DFF1F499FFF1F4D
:1027E0004A9FFF1F249DFF1F0A9DFF1F639FFF1F1E
:1027F000608AFF1FA19EFF1F919FFF1F5C9FFF1F0D
:10280000308AFF1FA34CDFF89CE2207805909EF8E9
:10281000004001980494059C007801900134A4EBD9
:1028200040040498002840F0AF80039890F800E03E
:102830000498261ACEEB06000390BEF1000F40F07C
:102840009E8074460298944E0078029003983678E1
:102850000496041BA4EB460402983C44CBEB04040E
:10286000002800F08780B7FA87F040099CF80060E4
:102870002044871B1EB10498061C18BF0126009C2B
:1028800099F800002478BE1B301AA0EB4400804465
:102890000198C3EB0803A3EB4103002867D1BEF105
:1028A000000F40F0BB807344002C5ED100290CBFA8
:1028B00000206FF009009AF80010784C03440C20B7
:1028C00010FB01312160EAE4039E019C36780396F7
:1028D000009E2478019434786F4E714899F800E096
:1028E000009496F800906F4C9DF80C6086709DF8EF
:1028F0000460067080F806E09DF8006080F80390A0
:102900009CF800C02478DFF8B491DDF804E080F88A
:102910000880077180F805C0C671417244704FF09D
:1029200000080120009500215D4C0D465FFA88FCEF
:102930004F46764607E0022809D00A290BD014F842
:10294000016F17F8010F864201F10101F3D1013542
:102950000A29EDB2F3D1092D72D808F10108B8F1B6
:10296000100F36D019F80A0FDDE70020A3E74FF06B
:10297000000E98E7029879E7CEEB040003900198E7
:10298000041C18BF01245DE7019800284ED003986D
:1029900090F800E0BEF1000FEED1601E0390744687
:1029A00050E7841B01264AE40B9A3F4B9142CCBF6F
:1029B000012200221A703EDC0A9A3C4B9142CCBFA5
:1029C000012200221A7052DD03258AF80050384B8C
:1029D000FDE5304837490478C86B0299009D0978B5
:1029E00001342044CBEB0000084400219AF8004059
:1029F0002A4B401A0C2111FB040119604FE41BF112
:102A0000000618BF01269BE52349097800293FF4F9
:102A1000B3AE1BF1000618BF0126AEE604980028ED
:102A20000CBF4FF0000E4FF0090E3CE7039890F8F2
:102A300000E03046FDE604258AF800501C4BC6E550
:102A400014481C49047851F828000299009D09781F
:102A500001342044CBEB000066460844002BC4D070
:102A6000002EC2D1BBF1000FBFD00121BEE7099AF1
:102A7000114B9142CCBF012200221A7004DD0225C5
:102A80008AF800500A4BA2E5089B994218DD0125FF
:102A90009AE500BF2E8AFF1F4B9FFF1FEC9EFF1F72
:102AA000689DFF1F809FFF1F629FFF1F619FFF1F89
:102AB000AE9EFF1FDC89FF1F609FFF1FC43B01000C
:102AC000154B1D78012D25D9144A8AF8005012881B
:102AD000D2B1134A1288013A92B2062A14D8114A86
:102AE00012788AB1104A1268012A7FF470AD0F4A39
:102AF0000F4E10680C2290FBF2F102FB11023280A3
:102B00000C4A0321117062E5074A1268012A7FF41A
:102B10005EADF5E735465AE5AE9EFF1F149FFF1FD9
:102B2000B69EFF1F9E9DFF1F2C9FFF1F849FFF1FB0
:102B3000F09EFF1FD089FF1F2DE9F04F3A4B1B7805
:102B40008BB0002B6BD10E200BF08CF90FF0C8FA74
:102B500001463648364E374DFDF7ECFC3348FDF75D
:102B6000BFFC0FF0D7FC80F30C003060FFF7F2FAE7
:102B70002C68012C7AD0022C00F0B182032C00F0DA
:102B8000C3832D4E2D4C33682D4A2E4E0993099B3D
:102B9000316812882360591A013A9142274F00F296
:102BA0009982294E32689A1A0D2A00F28282274EA3
:102BB00032689A1A132A00F27782254E32689A1ADE
:102BC000252A1AD9234B1B88002B40F05B81224B0E
:102BD0001B78002B40F05681FEF756FB1F4B1B88DD
:102BE0001B3B9BB2022B04D81D4B1B78002B40F0E3
:102BF0004C8104F02FF8236833601A4D2A689B1A21
:102C0000502B00F20D82184B1B88012B00F02582FF
:102C100006F050FE06F034FD0BB0BDE8F08F08F072
:102C200059F80BB0BDE8F08FF69CFF1FC49EFF1F44
:102C3000009FFF1F2C9FFF1F64A0FF1FC09EFF1F50
:102C4000D889FF1F989DFF1F809DFF1F549DFF1F68
:102C5000589DFF1FAA9EFF1FEC9CFF1F329FFF1F66
:102C6000D49CFF1FA49EFF1F049FFF1FDFF820932B
:102C70009F4AB9F800001378834204D0C3B21846C3
:102C8000137006F009FEDFF804839A4AB8F80030A2
:102C90001178994204D0984F3978002940F0F08695
:102CA000964A33681288964E9A42C0F2F880954A46
:102CB0001278002A40F0F380DFF8D8A2BAF800308A
:102CC00023B9914B1B88002B00F005858F4A904B50
:102CD00011881B888F4A0B4412685B1093428E4AFE
:102CE000126880F2A78400219342B4BF01230B46EF
:102CF00004910093ACBF4FF0010B8B4605910E2061
:102D00000BF0B0F8854B864A1B68176803930133B4
:102D1000A7F25232002B8446029240F3C286802BE7
:102D2000A8BF80237F4A804912780191002A00F0D1
:102D3000C0800978914200F0BC80B8F80010DFF83C
:102D40004CE2994201F0AB806B49AEF80030774B12
:102D50004FF0010E81F800E01978DFF83CE2019BAA
:102D60008EF800101A70009B002B00F01781BAF843
:102D70000030002B00F012816D4B1B685A1C002A9A
:102D800040F39386802A00F38F866A4C6A496B4829
:102D90002488098800682144B0EB610FC1F2F382F6
:102DA000A3F148020F2A02D8473BA9F800300E20B1
:102DB0000BF058F86FF454731F44874202DC604BE9
:102DC00000221A705F4B1B88002B00F02B845E4B97
:102DD0005E4A1B781178994243D0002B41D05C4960
:102DE0000C78002C00F025875A4991F800C0BCF1FE
:102DF000000F40F01C87584F0097584F58480297D3
:102E0000554F007887F800C0544F4FF0010E87F8F7
:102E100000C081F800E0002841F091805149097814
:102E2000002900F0E587504903910C4609780029F4
:102E300040F0DB874D48494F0078397001210297F7
:102E4000217070B1444843490090494803270770F6
:102E5000002008700099029F0870039901243C70BB
:102E600008701370434B1B88A3F11B02012A40F228
:102E7000CB851D2B7FF486AE3C4A3F4B12781A70EF
:102E80003E4C80E6FEF7A2F9A6E63D4B1B78002BF0
:102E90003FF4AFAE2B68012B7FF4ABAEABE63168ED
:102EA000384A069106983849106002220B602A6061
:102EB00002E71E49DFF8E0E0097800293FF44FAF50
:102EC0009EF8000081423FF44AAF03984B2840F33C
:102ED000AD871833802BB8F80000A8BF8023984234
:102EE0003FF43DAF2948038003480123037036E7D0
:102EF000979EFF1F5C9DFF1FDC9CFF1F9C9DFF1F7B
:102F000064A0FF1FEC9CFF1F869DFF1F049DFF1FF9
:102F1000FC9EFF1F209DFF1FE49CFF1F789FFF1F4B
:102F2000C49CFF1F6E9FFF1F389DFF1F6F9FFF1FD9
:102F3000EC9EFF1FB09EFF1FAC9EFF1F149DFF1F46
:102F4000FC9CFF1FB69EFF1F0A9DFF1FB49CFF1F26
:102F5000959FFF1FF49EFF1F489FFF1F9E9DFF1F11
:102F6000969FFF1F929FFF1FB59CFF1FD49CFF1FC2
:102F7000D089FF1F329FFF1FD09CFF1FC09EFF1FE5
:102F8000379FFF1F4C9DFF1FBC9EFF1F349FFF1FDD
:102F9000B49EFF1F409DFF1F399DFF1F029B9C4554
:102FA000BFF605AF8B4B1B88002B3FF400AFBBF186
:102FB000000F7FF4E1AE884B1B881BB1059B002BF3
:102FC0007FF4DAAE049B002B3FF4F1AE834B1A780A
:102FD000002A7FF4ECAEDFF8809299F800400122DD
:102FE0001A70002C40F044837D4B1B78002B02F0BC
:102FF00060807C4B1B78002B02F03E837A4B1B7861
:10300000002B7FF4D4AE794B1B78002B3FF4CFAE6E
:10301000B8F8003076490A3BA8F800300A70C6E6D6
:1030200005F012FA734B1B7873B9734B1B785BB9BD
:10303000724B1B7843B9724B1B782BB9714B1B78C1
:1030400013B903F0DDFD01E003F0E6FD23682B601A
:103050006D4B1B88012B7FF4DBAD6C4A6C4B116808
:103060006C481A78A1F118032A2101FB03F10160D1
:10307000002A00F0C182684C2368994200F36A83F9
:1030800010DA66480278002A40F04687644A1068E1
:10309000D0F17F0048BF0330801001301B1A9942E5
:1030A00042F34E862160A9E2FEF7E2FB236833601B
:1030B00083E5FDF77BFCFEF713F95A4B1B88032BC6
:1030C00000F01385584B1B88032B00F00A852368FA
:1030D00033606CE5FDF7B6FB3B68336061E5534A4E
:1030E00034681188A14204DB464B1B78002B00F0AA
:1030F00061834F4E4F48336807934F4B079A0068E0
:103100001B88121A9A4200F2AD80002B00F0AA80B0
:103110004A4B1A88002A3FF435AD494B49481B6891
:103120000088A342B8BF2346994241F32281464B0F
:103130001960DFF8288188F80020344FFDF782FB02
:1031400038687F2840F36F85404B7F3883FB00321F
:10315000C317C3EB620303EB4303A0EB830073309D
:103160003B4B01931B883860002B40F09186234B2A
:1031700000931B78002B00F0C883364C2378002B7B
:1031800000F0C383DFF8D890DFF8C0A04FF0000B49
:103190000CE003F17300C0B298F8001006F014FCC4
:1031A00023780BF1010B5B4540F3AF833B6859F883
:1031B000040F1844A0F17F038AFB0321DA17C2EB46
:1031C000610202EB42027F28A3EB8203E1DCFDF700
:1031D00059FAE0E7869DFF1FBA9EFF1FFC9CFF1F68
:1031E000929FFF1F939FFF1F949FFF1F959FFF1F9D
:1031F000DC9CFF1F9E9DFF1FF49EFF1F489FFF1F2B
:10320000B59CFF1FEC9CFF1F049FFF1F849FFF1FA7
:10321000469DFF1F789DFF1F889DFF1F509FFF1F2A
:103220004C9FFF1F069FFF1F989EFF1F9C9DFF1F27
:1032300064A0FF1F4C9DFF1F849DFF1FD29CFF1F9A
:10324000BC9EFF1F649FFF1FB89CFF1FABAAAA2A4A
:103250001A9DFF1F9889FF1FA19EFF1F759DFF1FCD
:103260007089FF1F554B564A1B681088554AA34268
:10327000B8BF2346994200F38482534C128883429C
:10328000A8BF03462360002A7FF453AF9942C8BF0A
:10329000134640F37D82401AB0F5804FAABF9B03CE
:1032A000C3EB8333013093FBF0F0FDF7B1FAC0F3C9
:1032B000C6100EF015FF454B044618880EF010FF9F
:1032C0004349074620460EF05FFF014638460EF0A0
:1032D0005BFF21460EF050FE4FF07E5104460FF08A
:1032E000F1F8002841F03A803A4920460FF008F9F9
:1032F000002840F01E8620460FF032F9C0B2DFF8F9
:10330000F48088F8000018E7334B34681988A1422C
:1033100074DD324B1B78002B70D1DFF8DC9099F80C
:1033200000007F2840F3F485A3F155337F3803F183
:10333000004383FB0032C317C3EB620303EB430379
:10334000A0EB83007330264B01931B88C0B289F831
:103350000000002B40F0E387224B00931B78002BEA
:1033600000F09484204C2378002B00F08F841F4FB2
:10337000DFF87C804FF0000A0AE003F17300C0B26E
:1033800006F046FB23780AF1010A534540F37E8498
:1033900057F8043F99F800001844A0F17F0388FB18
:1033A0000321DA17C2EB610202EB42027F28A3EB92
:1033B0008203E2DCFDF766F9E1E700BFBC9EFF1F78
:1033C000649FFF1FD29CFF1FB89CFF1F709FFF1FB1
:1033D000CDCCCC3D0000FE429C9DFF1FEC9CFF1F0E
:1033E0001A9DFF1F489FFF1F9889FF1F7089FF1FAD
:1033F000ABAAAA2A759DFF1FEA9EFF1FB84F386827
:103400007F2840F3CC81B74B7F3883FB0032C31752
:10341000C3EB620303EB4303A0EB83007330DFF8DD
:10342000249399F800A0824500F01582AE4B1B88CA
:10343000002B43D1AD4AAE4812680088914205DCAA
:103440008242D4BFC1EB0203C1EB0003411AB1F5C4
:10345000804FA6BF9B030131C3EB833393FBF1F095
:10346000FDF7D6F9C0F3C6100EF03AFEA14B0446A4
:1034700018880EF035FEA049804620460EF084FEE6
:10348000014640460EF080FE21460EF075FD4FF0DD
:103490007E5104460FF016F8002840F0BA8697498E
:1034A00020460FF02DF8002840F0408520460FF010
:1034B00057F8C0B2DFF8908288F80000BAF17F0FA9
:1034C00040F3A3838748AAF17F0A80FB0A304FEAC2
:1034D000EA73C3EB600000EB4000AAEB800073309E
:1034E000874B00931B78C0B289F80000002B40F096
:1034F0000383844B03931B78002B40F0EC84824BB6
:1035000002931B78002B40F02C87804B0193029B89
:103510001B78FBB17E4B1B88012B00F0F885022B3A
:1035200000F08087032B01F02181042B01F021831F
:10353000052B01F0C183062B01F08785072B01F0D5
:103540004387082B02F04980092B02F010810A2BD7
:1035500002F01083009B1B78002B00F05984019B24
:103560006A4C1988002900F0AF8438687F2840F33E
:10357000C0825C4B7F3883FB0032C317C3EB62030E
:1035800003EB4303A0EB830073303860002940F065
:103590005E84009B1B78002B00F069815D4C2378D2
:1035A000002B00F06481DFF8A4A1DFF89C814FF0CC
:1035B000000B0CE003F17300C0B298F8001006F0A5
:1035C00003FA23780BF1010B5B4540F350813B6814
:1035D0005AF8040F434A1844A0F17F0382FB0321E9
:1035E000DA17C2EB610202EB42027F28A3EB8203EF
:1035F000E0DCFDF747F8DFE7474B1960474B1B68F6
:10360000A92202FB03F3002BBCBF03F57F533F331A
:103610009B13543B194481F30C0128200AF0E0FE6F
:10362000FFF7F6BA384C3E483549364A23700370E6
:103630000B7016E493424FF0000B80F2B38001232D
:10364000CDF800B0CDF814B00493FFF758BB354B5C
:103650001B78002B7FF4ABAB039B334A243B83F3F3
:103660004703D9B25B20136006F07EF999F8004059
:10367000032C30D1DFF8D88098F80030002B42F0CE
:10368000E4812A4F3B78002B42F0D281254C2378ED
:10369000002B42F0C081264B1B78002B42F0AE81FC
:1036A000244A1380244B1B78002B42F000810E4BE0
:1036B0007F221A8098F800306BB93B785BB9237889
:1036C0004BB91E4A7F210720138006F04DF97F2158
:1036D0000B2006F049F91A4B1F68FFF768BB00BFC3
:1036E000849FFF1FABAAAA2AD29CFF1FB89CFF1F72
:1036F000649FFF1F709FFF1FCDCCCC3D0000FE429A
:10370000489FFF1FB59CFF1F9E9DFF1F1A9DFF1F17
:10371000B69EFF1F9889FF1F889DFF1FD489FF1F3A
:10372000F49EFF1F959FFF1F009DFF1F949FFF1F8B
:10373000939FFF1F8E9DFF1F969FFF1FE89EFF1FF9
:10374000C49CFF1FEA9EFF1F759DFF1F7089FF1F0E
:10375000929FFF1FB54A1078002840F03D83B44A7D
:103760001268D2F17F0248BF033203EBA202531C5E
:10377000B04A23609942B8BF1160FFF63FAF1946C7
:103780003CE7AD4B12881960002A7FF4D2AC0B469F
:103790009842D4BFC1EB0003C1EB03037BE5FCF708
:1037A00071FF3CE60123CDF810B0CDF800B00593D1
:1037B000FFF7A5BA01232B60FFF7E3B9029B1B7843
:1037C000FBB19E4B1B88012B00F01A84022B00F0EA
:1037D000A786032B01F04080042B01F0EF81052B1D
:1037E00001F0E082062B01F03984072B01F03985C6
:1037F000082B01F0A386092B02F022800A2B02F08D
:103800007F81019B1B88002B00F02A83009B1B7883
:103810003BB9039B1B7823B9029B1B78002B00F05C
:103820009B87874B1B78002B00F0FE8085490B7827
:10383000082B00F2F98084483A680068834C013311
:10384000DBB25F1E101A44F827000B70804B3468FF
:10385000198889F800208C427E4E7FF793A9326840
:103860007D4B0892089A7D4C1A60FFF78CB9039B38
:103870001B78002BA2D03B68A3F10C007F2840F3FB
:10388000338377488B3B80FB0320DA17C2EB600061
:1038900000EB4000A3EB800303F17300DFF8D48159
:1038A000C0B298F8001006F08FF8009B1B78002B30
:1038B00084D0644C2378002B80D0DFF8BCA14FF07B
:1038C000000B0CE003F17300C0B298F8001006F092
:1038D0007BF823780BF1010B5B457FF76FAF3B68FB
:1038E0005AF8040F5E4A1844A0F18B0382FB0321AF
:1038F000DA17C2EB61020C3802EB42027F28A3EB1D
:103900008203DFDCFCF7BEFEDEE74D4B1B78002BAD
:1039100040F0AC823B68534A1278002A45D0A3F1AC
:103920000C007F2840F3F1824D4A8B3B82FB032140
:10393000DA17C2EB610202EB4202A3EB820303F14E
:103940007300C0B298F8001006F03EF8009B1B7898
:1039500053B33C4C23783BB3DFF81C91DFF800A154
:103960004FF0000B0BE003F17300C0B298F80010A9
:1039700006F02AF823780BF1010B5B4514DD3B6858
:1039800059F8040F1844A0F18B038AFB0321DA17BE
:10399000C2EB61020C3802EB42027F28A3EB8203E8
:1039A000E1DCFCF76FFEE0E73B682F4A1278FAB1E2
:1039B000224A1288012A00F02F84022A00F0318660
:1039C000032A00F0C687042A01F01F81052A01F0AE
:1039D0005C82062A01F06683072A01F09D83082A8B
:1039E00001F05D86092A01F0F9860A2A02F0548066
:1039F000019A1288002A00F044821C4A174C137066
:103A000003232B60FFF7BFB8DFF8708098F8003011
:103A1000002B40F0FE80164F3B78002B40F0C68410
:103A20000E4C3B70FFF7AFB83A680FE7509FFF1F8F
:103A30004C9FFF1F889DFF1FB89CFF1FB69EFF1F56
:103A4000F49EFF1F9889FF1FE09CFF1F7489FF1FD2
:103A50009C9DFF1F64A0FF1F30A0FF1FC09EFF1F83
:103A6000ABAAAA2AB59CFF1F9E9DFF1FEA9EFF1FBF
:103A7000D09CFF1F759DFF1F7089FF1FD49CFF1FE7
:103A8000DBB21846137006F02DF8A54BA5491A466F
:103A9000A54B184600230B703B7013700370FFF7A3
:103AA000FFB80123FFF73EB98024A049A04BA14AEB
:103AB00009881B8812680B44B2EB630FBFF677A925
:103AC0009D4B1B78002B40F0F081B8F800309B4AEA
:103AD000A3423FF46CA99A4B148001221A70FFF79D
:103AE00066B9FCF737FEFFF7F2BAFCF7DDFDFFF72A
:103AF000E9BAFCF7C7FD48E5924B01931B8863BB0D
:103B0000894B0393904B0293904C23787BB3DFF85F
:103B10005882DFF83CA24FF0000B09E003F173007C
:103B2000C0B205F075FF23780BF1010B5B451EDD7C
:103B300058F8043F99F800001844A0F17F038AFB6D
:103B40000321DA17C2EB610202EB42027F28A3EBEA
:103B50008203E3DCFCF796FDE2E7734B03937A4BB9
:103B6000029305F055FF009B1B78002BCCD1039BE3
:103B70001B78002B3FF4CBAC99F80030A3F10C007C
:103B80007F2840F3BF8172488B3B80FB0320DA170C
:103B9000C2EB600000EB4000A3EB800303F1730075
:103BA000C0B205F035FF009B1B78002B00F09F8111
:103BB000664C2378002B01F05D82DFF8AC81DFF8E2
:103BC00090A14FF0000B0AE003F17300C0B205F0C2
:103BD0001FFF23780BF1010B5B457FF798AC58F87A
:103BE000043F99F800001844A0F18B038AFB0321DD
:103BF000DA17C2EB61020C3802EB42027F28A3EB1A
:103C00008203E1DCFCF73EFDE0E75046FCF73AFDBD
:103C100066E4504A1278002A40F09E814E4F4F4C85
:103C20003B70FEF7B0BFFCF72DFDFFF799BA0020FF
:103C300008704B49087840B139490091097800294A
:103C400000F07A81009F00213970464909780029E7
:103C50007FF4E9A8002C40F0CB80002840F0C88019
:103C6000354C2F4F94F800E02F4C0394364C0294BF
:103C70002D4C2C492070344C0097087038702070FF
:103C8000BEF1000F7FF4E1A8FFF7EBB8264B1B78DD
:103C9000002B6BD099F80030A3F10C007F2840F383
:103CA00090832B4A8B3B82FB0321DA17C2EB610224
:103CB00002EB4202A3EB820303F17300C0B205F0F2
:103CC000A7FE009B1B78002B50D0204C2378002BA4
:103CD0004CD0254FDFF878804FF0000A09E003F15F
:103CE0007300C0B205F094FE23780AF1010A53452F
:103CF0003CDD57F8043F99F800001844A0F18B030D
:103D000088FB0321DA17C2EB61020C3802EB420296
:103D10007F28A3EB8203E2DCFCF7B4FCE1E700BF01
:103D2000489FFF1FF49EFF1FB59CFF1FB09EFF1F03
:103D3000AC9EFF1F149DFF1FD49CFF1F349FFF1FCD
:103D4000DC9CFF1F1A9DFF1F9E9DFF1F9889FF1F70
:103D5000ABAAAA2A379FFF1FD09CFF1FC09EFF1F40
:103D6000969FFF1F929FFF1F7089FF1F904B1B782C
:103D7000FBB1904B1B88012B00F07486022B00F0E6
:103D80006E87032B01F0E480042B01F07E81052B6C
:103D900001F0B983062B01F05484072B01F09485C0
:103DA000082B01F01087092B01F07E870A2B01F008
:103DB0005C87019B1B88002B00F0BA827E4B1B782E
:103DC000002B40F0B0827D4B7D4A1988346800207A
:103DD000012310602B603EE50130C0B2022886BF8F
:103DE000002111701070194608E403980021017039
:103DF0007449097800293FF434A86D490291097883
:103E0000002900F05287029800210170FFF729B8BD
:103E1000039B1B78002B7FF4A2AB029B1B78002B2B
:103E20007FF49DAB019B1988FFF79FBB243B002BC0
:103E3000B8F8000040F3748498423EF490AF9BB20F
:103E40006148A8F8003001230370FEF788BFDFF84F
:103E50007C81C0B298F8001005F0B6FDFFF799BB61
:103E60005A4B3878197805F0AFFDCFE47F21402018
:103E700005F07AFD5649574A3B680B6000211170E6
:103E800049E5D8B298F8001005F09EFD3B68B4E50E
:103E9000C0B298F8001005F097FDFFF768B94E4BD7
:103EA000DFF854E11978FEF75ABF4B2C40F34582F6
:103EB0001834802CB8F80030484AA8BF8024A342A8
:103EC0007FF409AEFEF773BF99F8000005F0A0FD7E
:103ED0002188FFF74ABB424B01931B88002B41F01E
:103EE0003387334B029347E6FCF7CCFBD6E4029BC7
:103EF0001B78002B7FF40EAB039B1B78002B7FF409
:103F00002EAB8FE7FCF7BEFB4AE6FCF7BBFB18E5E0
:103F1000FCF7B8FBFFF717BA0132D2B2022A40F21F
:103F20005682002202701946FFF768BB7F20FFF718
:103F3000C1BA7F20FFF7E3B91D4F1F4902974FF029
:103F4000000C81F800C0009F02994FF0010E87F825
:103F500000E081F800C078E6224F387802F0E4FEF5
:103F6000214B1B78002B00F040823B887E2B00F217
:103F70003C821E4CDFF884902268D9F80010521A57
:103F80000F2A40F229821A4A0133108899B23980E7
:103F9000002800F04382C9B2C0B205F0E5FC154F1D
:103FA000226898F80030C9F800203B70FEF7EBBD9E
:103FB0009E9DFF1FB69EFF1FF49EFF1F9C9DFF1F2F
:103FC000B89CFF1FD49CFF1FDC9CFF1F759DFF1F2B
:103FD000E09CFF1F9889FF1F6F9FFF1F349FFF1FEB
:103FE0001A9DFF1F109DFF1F979FFF1FC09EFF1F61
:103FF000649DFF1FD09CFF1F399DFF1F7C9FFF1FEB
:10400000DFF89CA33868BAF80030E04AE04CC31AE5
:1040100082FB031ED917C1EB6E0101EB4101A3EB3B
:10402000810303EB430354F8233018447F2840F303
:1040300007857F3882FB0032C317C3EB620303EBB3
:104040004303A0EB83007330DFF85883DFF858B3E5
:1040500098F80010C0B205F0B7FCBBF80030022B96
:104060007FF6CFAB3968BAF80030C84ACB1A82FB6A
:10407000030ED817C0EB6E0000EB4000A3EB8003EB
:1040800003EB430304EB8303586808447F2840F3A1
:10409000EE867F3882FB0032C317C3EB620202EB6D
:1040A0004202A0EB82007330C0B298F8001005F015
:1040B0008BFCBBF80030032B7FF6A3AB3968BAF852
:1040C0000030B24ACB1A82FB030ED817C0EB6E0049
:1040D00000EB4000A3EB800303EB430304EB8304FA
:1040E000A06808447F2840F37D817F3882FB00323E
:1040F000C317C3EB620202EB4202A0EB82007330F3
:1041000098F80010C0B205F05FFCFFF77ABBDFF84B
:1041100090A299F80000BAF800309C4A9C4CC31A4F
:1041200082FB031ED917C1EB6E0101EB4101A3EB2A
:10413000810303EB430354F8233018447F2840F3F2
:1041400005847F3882FB0032C317C3EB620303EBA5
:104150004303A0EB83007330DFF84CB2C0B205F02C
:1041600057FCBBF80030022B7FF6F4A999F8001039
:10417000BAF80030854ACB1A82FB030ED817C0EB81
:104180006E0000EB4000A3EB800303EB430304EB62
:104190008303586808447F2840F36D867F3882FB8C
:1041A0000032C317C3EB620202EB4202A0EB8200B3
:1041B0007330C0B205F02CFCBBF80030032B7FF647
:1041C000C9A999F80010BAF80030704ACB1A82FBDE
:1041D000030ED817C0EB6E0000EB4000A3EB80038A
:1041E00003EB430304EB8304A06808447F2840F3F7
:1041F000C7807F3882FB0032C317C3EB620202EB39
:104200004202A0EB82007330C0B205F001FCFFF760
:10421000A1B90120FFF74EB9DFF884A15B49BAF8D4
:1042200000205B4C9A1A81FB020ED017C0EB6E0087
:1042300000EB4000A2EB800202EB420254F82200A5
:1042400018447F2840F30084A0F17F0381FB032101
:10425000DA17C2EB610000EB4000A3EB8000733083
:10426000DFF844B198F80010C0B205F0ADFBBBF820
:104270000030022B50D93968BAF80030434ACB1AC3
:1042800082FB030ED817C0EB6E0000EB4000A3EBDF
:10429000800303EB430304EB8303586808447F283F
:1042A00040F3B9867F3882FB0032C317C3EB62024A
:1042B00002EB4202A0EB82007330C0B298F800100B
:1042C00005F082FBBBF80030032B25D93868BAF81B
:1042D00000302E4AC31A82FB031ED917C1EB6E01B0
:1042E00001EB4101A3EB810303EB430304EB8304E4
:1042F000A36818447F2867DD7F3882FB0032C3172C
:10430000C3EB620202EB4202A0EB82007330C0B248
:1043100098F8001005F058FB3B68FFF769BB05F003
:1043200077FBFFF719B80021402005F01DFB4AE597
:1043300099F8000005F06CFB40E5243C002CB8F82F
:10434000003040F39C85A3423EF431ADA4B2114B42
:10435000A8F8004001221A70FEF729BD0120FEF7DF
:10436000CEBF0D4B01931B88002B3FF4D0A8FFF765
:10437000F8BB0A498342A8BF03460B60FEF7D9BECB
:10438000FCF780F940E71446FFF79ABBABAAAA2ACC
:10439000C83A0100DC9CFF1F1A9DFF1FB89CFF1F3D
:1043A000F09EFF1F759DFF1FF49CFF1FDF4BE04C2D
:1043B00019886A2005F05AFC98F800303B70FEF727
:1043C000E2BBFCF75FF979E4FCF75CF99FE7027068
:1043D0001946FFF713B9D64CD64F98F800303B700A
:1043E000FEF7D1BBFCF74EF98AE6D34B1B78002BC6
:1043F000F1D03B88CD4F002BEDD0CD4CDFF848936A
:104400002268D9F80010521A0F2AE5D9CB4A013B8D
:10441000108899B2398000287FF4BDADC8B205F08C
:1044200043FBBCE5DFF824A399F80000BAF800309C
:10443000C34AC44CC31A82FB031ED917C1EB6E01D9
:1044400001EB4101A3EB810303EB430354F8233059
:1044500018447F2840F3FD837F3882FB0032C31766
:10446000C3EB620303EB4303A0EB83007330DFF87D
:10447000E0B2C0B205F0CCFABBF80030022B7FF6F8
:1044800069A899F80010BAF80030AD4ACB1A82FB3F
:10449000030ED817C0EB6E0000EB4000A3EB8003C7
:1044A00003EB430304EB8303586808447F2840F37D
:1044B000DD857F3882FB0032C317C3EB620303EB59
:1044C0004303A0EB83007330C0B205F0A1FABBF840
:1044D0000030032B7FF63EA899F80010BAF80030A0
:1044E000974ACB1A82FB030ED817C0EB6E0000EB85
:1044F0004000A3EB800303EB430304EB8304A068B9
:1045000008447F287FF73CAF7F3882FB0032C31717
:10451000C3EB620303EB4303A0EB8300733073E64A
:10452000DFF828A23868BAF80030854A854CC31AEB
:1045300082FB031ED917C1EB6E0101EB4101A3EB16
:10454000810303EB430354F8233018447F2840F3DE
:1045500059837F3882FB0032C317C3EB620303EB3E
:104560004303A0EB83007330DFF8E881DFF8E0B1AC
:1045700098F80010C0B205F027FABBF80030022B03
:104580007FF63FA93968BAF800306D4ACB1A82FB32
:10459000030ED817C0EB6E0000EB4000A3EB8003C6
:1045A00003EB430304EB8303586808447F2840F37C
:1045B00068857F3882FB0032C317C3EB620303EBCD
:1045C0004303A0EB83007330C0B298F8001005F0ED
:1045D000FBF9BBF80030032B7FF613A93868BAF853
:1045E0000030574AC31A82FB031ED917C1EB6E0174
:1045F00001EB4101A3EB810303EB430304EB8304D1
:10460000A36818447F287FF7EDAE7F3882FB003225
:10461000C317C3EB620303EB4303A0EB83007330C8
:104620006EE5DFF828A14649BAF80020454C9A1AF1
:1046300081FB020ED017C0EB6E0000EB4000A2EB36
:10464000800202EB420254F8220018447F2840F313
:104650000383A0F17F0381FB0321DA17C2EB610022
:1046600000EB4000A3EB80007330DFF8E4B098F873
:104670000010C0B205F0A8F9BBF80030022B7FF69D
:104680004BAE3968BAF800302D4ACB1A82FB030EC4
:10469000D817C0EB6E0000EB4000A3EB800303EBE8
:1046A000430304EB8303586808447F2840F3F684EF
:1046B0007F3882FB0032C317C3EB620303EB430373
:1046C000A0EB83007330C0B298F8001005F07CF9BD
:1046D000BBF80030032B7FF61FAE3868BAF8003005
:1046E000174AC31A82FB031ED917C1EB6E0101EBF7
:1046F0004101A3EB810303EB430304EB8304A368B1
:1047000018447F287FF760AE7F3882FB0032C317E2
:10471000C3EB620303EB4303A0EB83007330F6E5C6
:1047200001283EF41CAB0123FFF78ABB109DFF1F3D
:10473000C09EFF1FD09CFF1F969FFF1F649DFF1F01
:10474000ABAAAA2A9C3D01007C9FFF1FF09EFF1F81
:10475000F49CFF1F759DFF1F4FF47A43013BFDD171
:1047600099F8000005F054F9FFF75BB8DFF8E8A20C
:1047700099F80000BAF80030B54AB64CC31A82FB6B
:10478000031ED917C1EB6E0101EB4101A3EB8103BD
:1047900003EB430354F8233018447F2840F3DD81B2
:1047A0007F3882FB0032C317C3EB620202EB420286
:1047B000A0EB82007330DFF8A4B2C0B205F028F994
:1047C000BBF80030022B7EF6C5AE99F80000BAF8AF
:1047D00000309F4AC31A82FB0321DA17C2EB610241
:1047E00002EB4202A3EB820303EB430304EB8303DC
:1047F0005B6818447F2840F312847F380C2290FBBA
:10480000F2F302FB13007330C0B205F001F9BBF8FC
:104810000030032B7EF69EAE99F80000BAF8003007
:104820008B4AC31A82FB0321DA17C2EB610202EB47
:104830004202A3EB820303EB430304EB8304A3686C
:1048400018447F287FF79CAD7F380C2290FBF2F351
:1048500002FB13007330D7E4DFF8FCA13868BAF824
:1048600000307B4A7B4CC31A82FB031ED917C1EB75
:104870006E0101EB4101A3EB810303EB430354F809
:10488000233018447F2840F365817F3882FB003253
:10489000C317C3EB620202EB4202A0EB820073304B
:1048A000DFF8BC81DFF8B4B198F80010C0B205F0B1
:1048B0008BF8BBF80030022B7EF6A3AF3868BAF84D
:1048C0000030634AC31A82FB0321DA17C2EB61028C
:1048D00002EB4202A3EB820303EB430304EB8303EB
:1048E0005B6818447F2840F3A7837F380C2290FB35
:1048F000F2F302FB13007330C0B298F8001005F019
:1049000063F8BBF80030032B7EF67BAF3868BAF84B
:1049100000304F4AC31A82FB0321DA17C2EB61024F
:1049200002EB4202A3EB820303EB430304EB830499
:10493000A36818447F287FF755AD7F380C2290FB81
:10494000F2F302FB13007330FFF7DABBFBF79AFEBA
:1049500002E4DFF804A13E49BAF800203D4C9A1A5F
:1049600081FB020ED017C0EB6E0000EB4000A2EB03
:10497000800202EB420254F8220018447F2840F3E0
:10498000EF80A0F17F0381FB0321DA17C2EB610105
:1049900001EB4101A3EB81007330DFF8C0B098F860
:1049A0000010C0B205F010F8BBF80030022B7FF603
:1049B000B3AC3868BAF80030254AC31A82FB032129
:1049C000DA17C2EB610202EB4202A3EB820303EBB4
:1049D000430304EB83035B6818447F2840F32F8371
:1049E0007F380C2290FBF2F302FB13007330C0B24D
:1049F00098F8001004F0E8FFBBF80030032B7FF6B6
:104A00008BAC3868BAF80030114AC31A82FB032114
:104A1000DA17C2EB610202EB4202A3EB820303EB63
:104A2000430304EB8304A36818447F287FF7CCACCE
:104A30007F380C2290FBF2F302FB1300733066E424
:104A4000FBF720FEFFF700BBFBF71CFE08E400BFEE
:104A5000ABAAAA2A2C3E0100F09EFF1FF49CFF1F68
:104A6000759DFF1FDFF834A399F80000BAF80030F5
:104A7000C24AC34CC31A82FB0317D917C1EB6701A3
:104A800001EB4101A3EB810303EB430354F8233013
:104A900018447F286ADD7F3882FB0032C317C3EBDE
:104AA000620202EB4202A0EB82007330DFF8F0B248
:104AB000C0B204F0ADFFBBF80030022B7FF679A93D
:104AC00099F80000BAF80030AC4AC31A82FB0321FF
:104AD000DA17C2EB610202EB4202A3EB820303EBA3
:104AE000430304EB83035B6818447F2840F3AA82E6
:104AF0007F380C2290FBF2F302FB13007330C0B23C
:104B000004F086FFBBF80030032B7FF652A999F81A
:104B10000000BAF80030994AC31A82FB0321DA1761
:104B2000C2EB610202EB4202A3EB820303EB4303FD
:104B300004EB8304A36818447F2814DD7F380C221B
:104B400090FBF2F302FB13007330C0B204F060FF7D
:104B5000FFF72FB9FBF796FDA2E6FBF793FD2AE6D8
:104B6000FBF790FD19E7FBF78DFDEEE7FBF78AFDFC
:104B70009CE7DFF828A299F80000BAF800307F4AD5
:104B8000804CC31A82FB031ED917C1EB6E0101EBE7
:104B90004101A3EB810303EB430354F82330184492
:104BA0007F28DADD7F3882FB0032C317C3EB620354
:104BB00003EB4303A0EB83007330FCE5DFF8DCA1DB
:104BC0003868BAF800306D4A6E4CC31A82FB031E77
:104BD000D917C1EB6E0101EB4101A3EB810303EB9C
:104BE000430354F8233018447F28B3DD7F3882FB19
:104BF0000032C317C3EB620303EB4303A0EB830054
:104C000073304DE6FBF73EFDAEE4DFF890A15B4963
:104C1000BAF800205B4C9A1A81FB020ED017C0EB49
:104C20006E0000EB4000A2EB800202EB420254F85F
:104C3000220018447F2893DDA0F17F0381FB03212C
:104C4000DA17C2EB610000EB4000A3EB8000733089
:104C5000A3E6FBF717FD0AE4FBF714FD05E5DFF813
:104C60003CA199F80000BAF80030444A464CC31AF7
:104C700082FB0317D917C1EB670101EB4101A3EBDD
:104C8000810303EB430354F8233018447F287FF754
:104C90006DAF7F3882FB0032C317C3EB620303EBB7
:104CA0004303A0EB8300733000E738480090384896
:104CB00038490390FEF7C9B8DFF8E0A099F8000082
:104CC000BAF800302D4A344CC31A82FB0321DA179C
:104CD000C2EB610202EB4202A3EB820303EB43034C
:104CE00054F8233018447F2840F3A0817F380C22E9
:104CF00090FBF2F302FB13007330DFF8A4B0C0B2F4
:104D000004F086FEBBF80030022B19D999F8000098
:104D1000BAF800300C22C11A91FBF2F302FB131314
:104D200002FB03435B6818447F2840F352847F38BA
:104D300090FBF2F302FB13007330C0B204F068FE84
:104D4000BBF80030032B7EF605ACBAF8003099F8BA
:104D500000000C22C11A91FBF2F302FB131302FBB9
:104D60000344A36818447F287FF70AAB7F3890FB81
:104D7000F2F302FB13007330FFF746BAABAAAA2A7C
:104D8000C83A0100343701009C3D0100489FFF1FD5
:104D9000B59CFF1FF49EFF1F643C0100F09EFF1FA7
:104DA000F49CFF1FDFF864A33868BAF80030CE4ADD
:104DB000CE4CC31A82FB0321DA17C2EB610202EB6D
:104DC0004202A3EB820303EB430354F8233018445D
:104DD0007F2840F328817F380C2290FBF2F302FBFE
:104DE00013007330DFF82883DFF828B398F8001039
:104DF000C0B204F0E9FDBBF80030022B1AD93868C4
:104E0000BAF800300C22C11A91FBF2F302FB131323
:104E100002FB03435B6818447F2840F3D4837F3848
:104E200090FBF2F302FB13007330C0B298F800104D
:104E300004F0CAFDBBF80030032B7EF6E2ACBAF8F2
:104E4000003038680C22C11A91FBF2F302FB1313F5
:104E500002FB0344A36818447F287FF7C3AA7F3866
:104E600090FBF2F302FB13007330FFF749B9FBF735
:104E700009FCFFF719B9FBF705FCFFF79AB9012BFD
:104E80003DF495AF0124FFF762BADFF880A296499E
:104E9000BAF80020954C9A1A81FB0210D117C1EB89
:104EA000600101EB4101A2EB810202EB420254F8E6
:104EB000220018447F2840F3BC80A0F17F030C201F
:104EC00093FBF0F200FB12307330DFF848B298F831
:104ED0000010C0B204F078FDBBF80030022B1AD9E4
:104EE0003868BAF800300C22C11A91FBF2F302FBC9
:104EF000131302FB03435B6818447F2840F3668367
:104F00007F3890FBF2F302FB13007330C0B298F8C5
:104F1000001004F059FDBBF80030032B7FF6FCA90C
:104F2000BAF8003038680C22C11A91FBF2F302FB88
:104F3000131302FB0344A36818447F287FF744AA95
:104F40007F3890FBF2F302FB13007330FFF7DFB9F9
:104F5000DFF8B8A199F80000BAF80030624A644C52
:104F6000C31A82FB0321DA17C2EB610202EB420291
:104F7000A3EB820303EB430354F8233018447F2848
:104F800046DD7F380C2290FBF2F302FB13007330F6
:104F9000DFF880B1C0B204F03BFDBBF80030022B5B
:104FA00019D999F80000BAF800300C22C11A91FB07
:104FB000F2F302FB131302FB03435B6818447F28E0
:104FC00040F38F807F3890FBF2F302FB13007330C5
:104FD000C0B204F01DFDBBF80030032B7EF6E9AE35
:104FE000BAF8003099F800000C22C11A91FBF2F3D4
:104FF00002FB131302FB0344A36818447F287FF7C6
:10500000B2AD7F3890FBF2F302FB130073309CE5E6
:10501000FBF738FBBCE7FBF735FBFFF74EB9FBF7B7
:1050200031FBFFF7F1BBFBF72DFBDBE6FBF72AFBC0
:1050300063E6FBF727FB48E7FBF724FB5CE4FBF7A1
:1050400021FBD4E4FBF71EFB59E5DFF8C0A099F87B
:105050000000BAF80030244A264C35E6DFF8ACA050
:105060003868BAF80030204A224CA2E6FBF70AFB67
:10507000FFF72ABA029B1B78002B7EF44BAAFEF79F
:105080006EBAFBF7FFFAFFF79FBADFF880A099F836
:105090000000BAF80030144A174C61E7FBF7F2FA47
:1050A000FFF711BBDFF864A00F49BAF80020114CDC
:1050B000F1E6124B1B78002B00F0CB82104B1B78D3
:1050C000002B7DF474AE0F4B1B78002B3DF46FAEBC
:1050D000B8F800300C490A33A8F800300A70FDF720
:1050E00066BEFBF7CFFA73E7ABAAAA2A643C0100BD
:1050F0002C3E0100203F010034370100939FFF1F29
:10510000949FFF1F959FFF1FDC9CFF1FF09EFF1FBA
:10511000759DFF1FF49CFF1FA44C2288002A00F0FD
:105120002383A349DFF89CB20988BBF80000033150
:10513000884227DD9F48A0490088B1F800E0DFF8E9
:105140007CC2181A0C2190FBF1F901FB19004FF0F9
:10515000900909FB0EFE01FB00E06FF00B0E5CF8FE
:10516000000003440EFB02307F2840F328857F387F
:1051700090FBF1F301FB13007330C0B298F80010FC
:1051800004F022FCBBF8002023881344022B23DD0B
:10519000884B894A38681B88B2F800C0DFF81CE2E7
:1051A000C31A0C2193FBF1F201FB1232902303FB93
:1051B0000CF301FB023373445B6818447F2840F30F
:1051C000A3857F3890FBF1F301FB13007330C0B26D
:1051D00098F8001004F0F8FBBBF800202388134473
:1051E000032B23DD734B744A38681B88B2F800C068
:1051F000DFF8C8E1C31A0C2193FBF1F201FB123274
:10520000902303FB0CF301FB023373449B681844A7
:105210007F2840F326857F3890FBF1F301FB1300D4
:105220007330C0B298F8001004F0CEFBBBF8002039
:1052300023881344042B7FF76FA85D4B1B88012B39
:105240007FF46AA83A68A2F10C007F287FF7BCA817
:105250008B3A0C2092FBF0F300FB13207330FFF726
:1052600056B8524C2388002B40F0A282DFF854B18C
:105270005049514A0988D7F80080B2F800E04F48F9
:10528000C1EB080C0C229CFBF2F102FB11C14FF0A8
:10529000900C0CFB0EFE02FB01E16FF00B0E405870
:1052A00080440EFB03807F2840F38584A0F17F03B8
:1052B00093FBF2F002FB10307330414BC0B219780F
:1052C00004F082FBBBF8002023881344022B23DD6B
:1052D000384A394B11883868B3F800C0DFF8DCE091
:1052E000411A0C2291FBF2F302FB1311902303FBF2
:1052F0000CF302FB013373445B6818447F2840F3CE
:10530000A3847F3890FBF2F302FB130073302C4B25
:10531000C0B2197804F058FBBBF80020238813446E
:10532000032B23DD234A244B11883868B3F800C0CF
:10533000DFF888E0411A0C2291FBF2F302FB131113
:10534000902303FB0CF302FB013373449B68184466
:105350007F2840F36C847F3890FBF2F302FB13004C
:105360007330174BC0B2197804F02EFBBBF8002045
:1053700023881344042B7EF744AA0D4B1B88012B72
:105380007EF43FAA3A68A2F10C007F2840F35681D0
:105390008B3A0C2092FBF0F300FB13207330084B88
:1053A000C0B2197804F010FBFEF72BBA7C9DFF1FEA
:1053B0000E9DFF1FF09EFF1FA29EFF1FC43701001E
:1053C000759DFF1FF49CFF1FCF4C2388002B40F0DE
:1053D000FA81DFF868B3CD49CD4A098899F8000011
:1053E000B2F800E0DFF85883C1EB000C0C229CFB04
:1053F000F2F102FB11C14FF0900C0CFB0EFE02FB10
:1054000001E16FF00B0E58F8011008440EFB030089
:105410007F2840F3AC83A0F17F0393FBF2F002FB03
:1054200010307330C0B204F0F3FABBF800202388C8
:105430001344022B22DDB54AB54B118899F80000C0
:10544000B3F800C0DFF8F8E2411A0C2291FBF2F346
:1054500002FB1311902303FB0CF302FB0133734493
:105460005B6818447F2840F3F3837F3890FBF2F3A6
:1054700002FB13007330C0B204F0CAFABBF800207C
:1054800023881344032B22DDA04AA14B118899F8ED
:105490000000B3F800C0DFF8A8E2411A0C2291FB2B
:1054A000F2F302FB1311902303FB0CF302FB013315
:1054B00073449B6818447F2840F3BD837F3890FB7A
:1054C000F2F302FB13007330C0B204F0A1FABBF890
:1054D000002023881344042B7EF73CA88D4B1B88A7
:1054E000012B7EF437A899F80020A2F10C007F2848
:1054F0007EF746AF8B3A0C2092FBF0F300FB1320B3
:105500007330FEF781BEDFF804A299F80000BAF804
:105510000030814CC11A0C2291FBF2F302FB1313F1
:1055200002FB03F3E35818447F287FF771AD7F38FF
:1055300090FBF2F302FB1300733029E5774B1A88D6
:10554000182A13D03B681344A3F118007F2840F3B6
:1055500085830C20973B93FBF0F200FB123303F1A1
:1055600073006F4BC0B2197804F02EFA6D4B6E4980
:105570001A78022A94BF013200221A701A7831F880
:105580001200182810D10424022A02F10100C2B22C
:1055900088BF002231F81200182804D1013CF3D151
:1055A0001A70FEF72EB91A703B680344A3F1180075
:1055B0007F2843DD0C20973B93FBF0F200FB123376
:1055C00003F17300EBE6FBF75DF82EE4FBF75AF806
:1055D0009CE4FBF757F8FFF7B0BB504B1B88182B28
:1055E00012D099F800201344A3F118007F2840F34B
:1055F0001B830C20973B93FBF0F200FB123303F16B
:105600007300C0B204F004FA464A474B127833F8EC
:105610001230182B3DF49EAF99F800201344A3F1EB
:1056200018007F287EF7ACAE0C20973B93FBF0F27E
:1056300000FB123303F17300FEF7E6BDFBF722F81F
:10564000ADE6DFF8C8A099F80000BAF80030374C92
:1056500060E7374B1B78002B7DF4F9AF354B1B7897
:10566000002B3DF4A4ABB8F8003033490133A8F85F
:1056700000300A70FDF79BBB2D4B1B78002B7DF48F
:1056800096AB2C4B1B78002B3DF491ABB8F8003057
:105690002949013BA8F800300A70FDF788BB1F4A72
:1056A0001288182A12D01344A3F118007F2840F35F
:1056B000D2820C20973B93FBF0F200FB123303F1F4
:1056C0007300C0B298F8001004F07EF9154B16492B
:1056D0001A78022A94BF013200221A701A7831F81F
:1056E000120018282FD10424022A02F10100C2B2AC
:1056F00088BF002231F81200182823D1013CF3D1D1
:105700001A703B68FEF774B97C9DFF1FF09EFF1F67
:10571000A29EFF1F0E9DFF1F643C0100469FFF1FBE
:10572000759DFF1FD089FF1F0C9FFF1F203F0100A9
:10573000949FFF1F959FFF1FDC9CFF1FF49CFF1F82
:10574000C43701001A703B680344A3F118007F2896
:105750007EF73AAE0C20973B93FBF0F200FB12333E
:1057600003F17300FEF7D3BDDFF828B3E2E4BD4BCD
:105770001B88182B12D099F800201344A3F11800AD
:105780007F2840F35B820C20973B93FBF0F200FBF9
:10579000123303F17300C0B204F03AF9B24AB34BCA
:1057A000127833F81230182B7FF436AFFDF7D2BEE3
:1057B000AF4ADFF8E0B21288BBF800100332914222
:1057C0007FF780AD54E5AA4ADFF8C8B21288BBF86B
:1057D0000010033291427FF728AEFCE5A14A1288FF
:1057E000182A12D01344A3F118007F2840F37B82BB
:1057F0000C20973B93FBF0F200FB123303F1730094
:10580000C0B298F8001004F0DFF8974B97491A7867
:10581000022A94BF013200221A701A7831F812005D
:10582000182890D10424022A02F1010294BFD2B2B6
:10583000002231F81200182884D1013CF3D15FE72F
:10584000884B1A88182A13D03B681344A3F1180018
:105850007F2840F3F6810C20973B93FBF0F200FB8E
:10586000123303F17300834BC0B2197804F0ACF823
:105870007D4B7E491A78022A94BF013200221A70A9
:105880001A7831F8120018287FF48EAE0424022A08
:1058900002F1010294BFD2B2002231F8120018289E
:1058A0007FF481AE013CF2D11A70FDF7AABF724BB2
:1058B00000227F2107201A8004F056F87F210B2058
:1058C00004F052F8FDF7F6BE6C4C2388002B40F034
:1058D0001082DFF8C0B16A4999F80000694A098866
:1058E0001788DFF8A4E1411A0C2291FBF2FC02FBBD
:1058F0001C114FF0900C0CFB07F702FB01716FF0CD
:105900000B075EF80110014407FB03107F2840F3EA
:10591000ED817F3890FBF2F302FB13007330C0B2CD
:1059200004F076F8BBF8002023881344022B21DD15
:10593000534B544A99F800001B88B2F800E0524FCC
:10594000C31A0C2193FBF1F201FB1232902303FBEB
:105950000EF301FB02333B445B6818447F2840F39D
:10596000DA817F3890FBF1F301FB13007330C0B292
:1059700004F04EF8BBF8002023881344032B21DDEC
:105980003F4B404A99F800001B88B2F800E03E4FB8
:10599000C31A0C2193FBF1F201FB1232902303FB9B
:1059A0000EF301FB02333B449B6818447F2840F30D
:1059B000AF817F3890FBF1F301FB13007330C0B26D
:1059C00004F026F8BBF8002023881344042B7EF74C
:1059D000F0A9274B1B88012B7EF4EBA999F8002036
:1059E000A2F10C007F287FF7BEA88B3A0C2092FB17
:1059F000F0F300FB13207330FFF7A7B8234B01220D
:105A00007F2107201A8003F0AFFF7F210B2003F0D6
:105A1000ABFFFDF747BE1E4B04227F2107201A80F3
:105A200003F0A2FF00210B2003F09EFFFDF733BE21
:105A3000174B02227F2107201A8003F095FF7F2158
:105A40000B2003F091FFFDF721BE114B0021072031
:105A50001C8003F089FF7F210B2003F085FFFDF7F9
:105A600010BE00BF069DFF1FD089FF1F849EFF1F31
:105A70000E9DFF1F759DFF1FD29CFF1F7C9DFF1F6A
:105A8000F09EFF1FA29EFF1FC43701008E9DFF1FC7
:105A9000E89EFF1FF49CFF1FAD4A1288182A12D0FF
:105AA0001344A3F118007F2840F347810C20973B53
:105AB00093FBF0F200FB123303F17300C0B298F8CD
:105AC000001003F081FFA34BA3491A78022A94BF68
:105AD000013200221A701A7831F8120018287FF467
