:1000000000800020BD010000EDA90000A5A90000AE
:10001000A5A90000A5A90000A5A90000A5A90000A8
:10002000A5A90000A5A90000A5A90000EDA9000050
:10003000EDA90000A5A900006DA0000071A10000BD
:10004000EDA90000EDA90000EDA90000EDA9000058
:10005000EDA90000EDA90000EDA90000EDA9000048
:10006000EDA90000EDA90000EDA90000EDA9000038
:10007000EDA90000EDA90000EDA90000EDA9000028
:10008000EDA90000EDA90000EDA90000EDA9000018
:10009000EDA90000EDA90000EDA90000EDA9000008
:1000A000A9850000B5850000EDA90000EDA90000BC
:1000B000EDA90000EDA90000EDA90000EDA90000E8
:1000C000EDA90000EDA90000EDA90000EDA90000D8
:1000D000EDA90000EDA90000EDA90000EDA90000C8
:1000E000EDA90000EDA90000EDA90000EDA90000B8
:1000F000EDA9000059CA0000EDA9000085CB000061
:10010000EDA90000C5B30000EDA90000EDA90000B5
:10011000EDA90000EDA90000EDA90000EDA9000087
:10012000EDA90000EDA90000EDA90000EDA9000077
:10013000EDA90000EDA90000EDA90000EDA9000067
:10014000EDA90000EDA90000EDA90000EDA9000057
:100150005DA2000071A2000085A2000099A200002B
:10016000EDA90000E1B60000EDA90000EDA9000036
:10017000EDA90000EDA90000EDA90000EDA9000027
:10018000EDA90000EDA90000EDA90000EDA9000017
:10019000EDA90000EDA90000EDA90000EDA9000007
:1001A000EDA90000EDA90000EDA90000EDA90000F7
:1001B000EDA90000EDA90000EDA90000564B4CF29E
:1001C000205210B51A804DF628121A8000BF00BFC9
:1001D0000AF010FC514B4FF010621A60504A9A60BE
:1001E000504ADA60504A136813F4807304D14F49BF
:1001F0000B604FF4A85313604D4B1A78110703D5C9
:100200001A7842F008021A704A4B4B492A221A7097
:100210004A4A4B4B8B4204D252F8040F43F8040B6A
:10022000F8E7484B484900228B4202D243F8042B9E
:10023000FAE74649464A002352F8230041F82300D2
:1002400001336F2BF8D1434B434A802103F8011B44
:100250009342FBD1414B3D4A1A60414B8A221A70AE
:10026000A3F5805324225A70A0221A709A7992071B
:10027000FCD59A79D406FCD43A4A937903F00C035E
:10028000082B384BF9D103221A7140225A719A79FE
:100290009006FCD5334A9179324B4906FBD5324A58
:1002A000324911600221516020221A709A7902F0BD
:1002B0000C020C2AFAD12E4B2E4A1A602E4B2F4AD2
:1002C0001A6000225A60072243F8042C2C4AC3F813
:1002D0000C2D62B60AF03EFF144B1B68DA0705D5F9
:1002E00028480AF00BFD284B284A1A60284B1B7837
:1002F0005B0609D5244C254B22689A4204D121483B
:100300000AF0FCFC002323600DF0F6FE0AF078FBF7
:100310000AF0A6FAFEE700BF0E2005403080044038
:10032000823F04000100002B10D0034014D0034092
:1003300002D0074000E00740549BFF1FCC0F010094
:100340004088FF1F549BFF1F40A3FF1F0082FF1F19
:100350000000000000E400E05FE400E008ED00E0E1
:100360000050064000400640448004400000030165
:1003700004800440C010050014E000E0FF76010096
:1003800000002020F7C8D75E1CE00340A5C3945AA4
:1003900000F00740FFFFFFFFFFFFFFFFFFFFFFFF32
:1003A000FFFFFFFFFFFFFFFFFFFFFFFFFFFFFFFF5D
:1003B000FFFFFFFFFFFFFFFFFFFFFFFFFFFFFFFF4D
:1003C000FFFFFFFFFFFFFFFFFFFFFFFFFFFFFFFF3D
:1003D000FFFFFFFFFFFFFFFFFFFFFFFFFFFFFFFF2D
:1003E000FFFFFFFFFFFFFFFFFFFFFFFFFFFFFFFF1D
:1003F000FFFFFFFFFFFFFFFFFFFFFFFFFFFFFFFF0D
:10040000FFFFFFFFFFFFFFFFFFFFFFFFDEF9FFFF23
:1004100010B5054C237833B9044B13B10448AFF33E
:1004200000800123237010BD549BFF1F00000000BB
:10043000D00F0100084B10B51BB108490848AFF3B5
:1004400000800848036803B910BD074B002BFBD0A0
:10045000BDE81040184700BF00000000589BFF1F78
:10046000D00F0100549BFF1F0000000038B5044668
:10047000104621700A491D460DF020FC01464FF040
:100480007E500DF0CFFC07490DF018FCE560606070
:10049000256165610AF0EEFDE061204638BD00BFD0
:1004A000DB0FC9400024744938B50446104621705A
:1004B00009491D460DF002FC01464FF07E500DF03B
:1004C000B1FC06490DF0FAFBE560606025616561ED
:1004D0000AF0D0FDE06138BDDB0FC940002474494B
:1004E00038B503780446032B20D8DFE803F01A1848
:1004F0001002C16840690DF0D7FA0D4905466068E1
:100500000DF090FC014628460DF08CFC38BD0849E2
:1005100040680DF087FCE1680DF0D0FB38BDC06885
:1005200038BDC16840690DF0BFFA38BD002038BD44
:100530000024744970B504460E460AF09BFD05463A
:10054000E069281A0DF066FBE3682361E5616661E6
:10055000A061014660680DF065FC0146A06010488E
:100560000DF060FC0CF036FF0CF0D6FB0DF048FAF5
:10057000054601464FF07E500DF096FA61690DF088
:100580009DFB2169064628460DF098FB0146304642
:100590000DF08CFAE0602046BDE87040FFF7A0BF88
:1005A000000080BF38B50E201C4C0AF033F82188BB
:1005B0001B4B884205461A881DDA0023511AB1F5F3
:1005C000805FAABF1B03C3EB03330131142093FBED
:1005D000F1F10AF0A5FB134B1988F1B923889D426C
:1005E00010DAC3F57F630F33282091FBF3F1BDE8E8
:1005F00038400AF095BB9042D4BFC1EB0003C1EB79
:100600000203DBE740F6FF718D42D4BFC3EB050167
:10061000C3EB0101C1EB0131E3E738BD329CFF1FA1
:10062000DC9DFF1F849DFF1F10B5044609F0F4FDFB
:10063000204610BD70B44C88A04220D9012301335C
:10064000DBB21CB2660031F8144084421D46F6D37A
:10065000A04211D005F10045013D965B31F815101F
:1006600032F81530401AF21A00FB02F0641A90FBBF
:10067000F4F4E01870BC7047905B70BC70470226C1
:100680000125E5E700280CDA064A434282FB0320F5
:10069000DA17C2EB600000EB4000A3EB8000C0F172
:1006A0000C007047ABAAAA2A2DE9F0470C2009F0EC
:1006B0007DFF0C200AF032FCBB4914200AF03EFCFE
:1006C000BA49BB4807F076FC022103200AF0CCFCB3
:1006D000022104200AF0C8FC022105200AF0C4FC13
:1006E000022106200AF0C0FC01210A200AF0BCFC0D
:1006F000012109200AF0B8FC01210D200AF0B4FC08
:10070000012128200AF0B0FC012114200AF0ACFCE1
:10071000012116200AF0A8FC172001210AF0A4FCF0
:1007200004200AF093FC00283BD005200AF08EFC40
:10073000054600283CD0002528469E4C207005F038
:1007400003F824784CBB284606F014FC9A4B9B49CE
:100750001B889B4D098829709A4A9B4EA3F5AF715F
:1007600040F23A7303FB01F382FB0312DB17A3EBA6
:100770006213323301210D2033600AF061FC6420E2
:100780000AF09AFC4FF416710A200AF0C9FA5D21AA
:100790008E4807F0B9FF90B9FEE7BDE8F04707F0D3
:1007A00019BB06200AF052FC0028BED10125C4E77F
:1007B00003200AF04BFCB0FA80F04009BDE764204A
:1007C0000AF07AFC21460A200AF0AAFA4FF4967140
:1007D00009200AF0A5FA5C217D4807F095FF00B9D1
:1007E000FEE764200AF068FC214609200AF098FA26
:1007F0004FF4967116200AF093FA5B21754807F0C2
:1008000083FF00B9FEE764200AF056FC214616205B
:100810000AF086FA4FF4967117200AF081FA6420E4
:100820000AF04AFC214617200AF07AFA64200AF0FE
:1008300043FC21460D200AF003FC674A6748126812
:10084000DFF8E8A1DFF8A091654EDFF8E481654F9D
:1008500000230121FFF728FE0123C9F8004034607E
:10086000C8F800408AF8003004240F200AF016FE71
:10087000D8F8003003440E20C8F8003009F0CAFE52
:10088000D9F800309AF800200344C9F80030152048
:10089000002A78D009F0BEFE33681844306004F0B6
:1008A000010080F0010003F047FE3B88002B14BFDD
:1008B0004B20DC200AF000FC013CD6D1D8F80030F7
:1008C000D9F80020484930683C88DFF868E1474F94
:1008D000002BB8BF0333002AB8BF033292100A605E
:1008E0004349444A098812880028B8BF03309B1046
:1008F000801030605E1A19443E60CEF800103E4F02
:100900003E4E3F49C8F80030C2EB000E0244C7F823
:1009100000E032600B605CB94FF4FA7003F01CFE2B
:1009200003F006FE05F004FA4FF4AF600AF0C4FBD2
:10093000344B012404201C600AF088FB10B9324BB0
:1009400028701C70314B1B881C2B23D0304C04F1B9
:10095000C805232009F05EFE44F8040F01200AF0C8
:10096000ABFBA542F5D12B4A2B4B1078187006F043
:100970000BFA03F0D9FD45F6BF5228492848BDE8D7
:10098000F04709F0FFBB11200AF088FD33681844D6
:10099000306084E7234B18880028D7D0224BC0B2A0
:1009A000197806F039F9D1E7001B3746801A06009E
:1009B0006090FF1FA99BFF1FD89DFF1F489DFF1F31
:1009C000FC9BFF1FB5814E1B008AFF1FA89BFF1FCA
:1009D000309CFF1FD49BFF1F2489FF1F4C9DFF1FCE
:1009E000709BFF1F7A9DFF1F889BFF1FA49DFF1F09
:1009F000128AFF1F2C89FF1FC89BFF1F009CFF1F2F
:100A0000EC9DFF1FAC9DFF1F979BFF1FB29DFF1F1B
:100A10003C9CFF1F349DFF1F199DFF1FA505000073
:100A2000D09DFF1F049CFF1FC09BFF1F949DFF1FB5
:100A3000A09DFF1F1C9DFF1FF0B40E8886420DD2A3
:100A400003F10043013B31F81350854202D9F0BC59
:100A5000FFF7F0BD32F81300F0BC70471088F0BC0F
:100A6000704700BF094B1B880C2B09D8084A80B27D
:100A700052F8232028B143F6FE73984203D9108C14
:100A80007047108870470349FFF7D4BDA49BFF1F30
:100A9000E0F10000C8F20000374A38491088384AAF
:100AA000F8B5384B12881B68834248DB9342A8BFD5
:100AB000134698420B60C8BF002342DD101AB0F500
:100AC000804FAABF9B03C3EB8333013093FBF0F04D
:100AD000FFF7C8FF2C4B2D4F1C883B68C0F3C61591
:100AE00005FB04F47F2CA8BF7F249D42064608D056
:100AF000274B1B88002B38D1264B1B88002B30D16D
:100B00003D60254D2B689E4205D0214B1B885A1F06
:100B1000032A1DD92E60214D2B689C420ED0204BFC
:100B2000188848B11A4B1F4A1B88D35C834203D0F4
:100B3000C0B2E1B206F070F82C60F8BDF8BD034613
:100B400008609A42D4BFC0EB0203C0EB0303B5E7D1
:100B5000144AD05C2030C0B206F07F0106F05CF889
:100B6000D8E7284606F0CCF8CAE70E4A2946D05CFA
:100B700006F052F8C0E700BF329CFF1F789BFF1FB2
:100B8000DC9DFF1F809DFF1F8C9BFF1FDC9BFF1FB9
:100B9000709DFF1F2A9CFF1FE49DFF1F2C9CFF1FC1
:100BA000B69DFF1F048AFF1F2DE9F04F012089B079
:100BB0000AF074FCAF4B186000200AF06FFCAE4BDB
:100BC000AE4A1B8810600C2B00F03B81AC4BAD4A49
:100BD00019880093AC4B52F8214000221A70AB4B9D
:100BE000AB4D1B88AB4A2E88013B32F91370002EA7
:100BF0005CD0A94BA94A1B88A9491278013B31F95D
:100C00001380002A40F0DF8011200AF047FCA54B3A
:100C10000193D3F800A00646B24540F3DF80A24B13
:100C2000DFF8A4921B88A14A012BD9F80030B2F852
:100C300000B09F4A02922046C8EB030800F09A8257
:100C40000CF0E8FF029A52F82B100DF037F801462D
:100C500000200CF029FF0DF0F7F9CAEB0802B045AF
:100C6000B8BFB0469042CAEB080880F2968200FBFB
:100C70000888013298FBF2F08E4BDFF85082029325
:100C8000D8F80030034403EBD3735B10C8F800308E
:100C90002B88012B12D1884BDFF834B20393874B9A
:100CA000DBF8005004934FF0000A47E07D4B0193BE
:100CB000DFF814927F4BDFF8148202937E4B03938C
:100CC0001D460F200AF0EAFB2B689842824641DA63
:100CD000754A1288012A00F01D82744A0593128811
:100CE000734D049220460CF095FF049ADFF8E0B1B2
:100CF00055F82210DBF800500CF0E0FF0146002010
:100D00000CF0D2FE0DF0A0F9EF1B059B5745A7EBA9
:100D10000302B8BF5746FF1A9042BABF013200FB28
:100D20000777474397FBF2F7D8F80020634B04930B
:100D3000BB1803EBD3735B10C8F80030604B1B8803
:100D4000013B032B00F2B082DFE813F06301A9013D
:100D5000C4008601594B04931B68984240F3C2813A
:100D6000514A1288012A00F0A682504A079311883E
:100D70004F4A0691204605920CF04CFF059A0699C1
:100D8000DFF84CB152F82110DBF800500CF096FF60
:100D90000DF05AF9079B2F445745A7EB0302A8BF54
:100DA0005746FF1AD8F800309042BABF00FB0777C9
:100DB0000132474397FBF2F73B4403EBD3735B10DD
:100DC000C8F80030BAE7152009F024FC354B019330
:100DD000D3F800A00646B2453FF721AF354B02934A
:100DE000D3F800A0B24580F289812F4BDFF8D8906C
:100DF0001B882E4A012BD9F80030B2F800B02C4ADB
:100E000003922046984400F070820CF003FF039A8E
:100E100052F82B100CF052FF0DF016F9B045CAEB4A
:100E20000802A8BFB046CAEB08089042B6BF00FB54
:100E3000088800FB08F8013298FBF2F0DFF88C809C
:100E40001EE7204B1B78002B3FF4C0AE0C4B0D4A25
:100E5000198800930C4B52F8210001221A700CF0F3
:100E6000D9FE4FF07C510CF029FF0DF0EDF804464F
:100E7000B5E600BFD09BFF1FB29DFF1FF89DFF1F6F
:100E8000D69BFF1F8C89FF1F7E9BFF1F108AFF1FB1
:100E9000229DFF1FF0F30000608AFF1F949DFF1F3B
:100EA000A4F20000C89BFF1F169CFF1FA09BFF1F02
:100EB00008F40000009CFF1FA49DFF1F1C9DFF1F46
:100EC0006089FF1F969BFF1F709BFF1FBC9DFF1F2C
:100ED000A09DFF1F28460CF09DFEB2490CF0EEFECF
:100EE000054650460CF096FEAF490CF0E7FE014671
:100EF00028460CF0DBFD0DF0A7F80546CBF80050B6
:100F0000D9F800000CF086FEA6490CF0D7FE074683
:100F100030460CF07FFEA4490CF0D0FE0146384666
:100F20000CF0C4FD0DF090F8C9F800009F4AA04BEA
:100F3000168819889F4AA04B12681B889F4FC6EBE2
:100F4000050E3544039EC6F800E0461A084404998D
:100F50000D6001990E6002993E8808609A4280F205
:100F600089810025C3EB060E954974450F6880F210
:100F70007681611C9F4205FB01F50EF1010E95FB88
:100F8000FEF5C0F2BE81BE42A8BF3E46F61A01FB86
:100F900006F494FBFEF49A4200F33681BB42C0F2A1
:100FA0003381884C20680CF035FE87490CF086FEB2
:100FB00086490CF07BFD0DF047F8A0F5FF531C3B74
:100FC000082B98BF4FF40050D8F800301844002880
:100FD0002060C0F24281B0F5804F80F252817C4B9C
:100FE0001B781BB1B0F5005F40F05381794D2B7831
:100FF000002B40F05481784D20682B68714C98424A
:1010000004D080B205F0E6FE23682B6009B0BDE88D
:10101000F08F28460CF0FEFD70490CF04FFE05469F
:1010200050460CF0F7FD6E490CF048FE014628468C
:101030000CF03CFD0DF008F80546CBF80050D9F84F
:1010400000000CF0E7FD65490CF038FE074630461D
:101050000CF0E0FD62495FE728460CF0DBFD5A49E1
:101060000CF02CFE054650460CF0D4FD5D490CF00A
:1010700025FE014628460CF019FD0CF0E5FF05465B
:10108000CBF80050D9F800000CF0C4FD4E490CF02C
:1010900015FE074630460CF0BDFD52493CE7284698
:1010A0000CF0B8FD50490CF009FE054650460CF016
:1010B000B1FD4E490CF002FE014628460CF0F6FC4C
:1010C0000CF0C2FF0546CBF80050D9F800000CF038
:1010D000A1FD45490CF0F2FD074630460CF09AFDA3
:1010E000424919E7D8F80030DFF810B103EBD373A9
:1010F0005B10DBF80050C8F800301FE6DFF8008115
:10110000DFF80091D8F8003003EBD3735B10C8F818
:101110000030BDE5364A06931188364A05912046CF
:101120000492DFF8D8B00CF075FD049A0599DBF84D
:10113000005052F821100CF0C1FD0CF085FFEF1BA0
:10114000069B5745A7EB0302B8BF5746FF1AD8F8CE
:1011500000309042BABF013200FB0777474397FB4C
:10116000F2F73B4403EBD373234A04925B10C8F8B5
:101170000030E3E50CF04EFD029A52F82B100CF013
:101180009DFD0CF061FFCAEB0802B045B8BFB04648
:101190008242CAEB08083FF76AAD00FB08F898FBEB
:1011A000F2F069E5CDCC4C3FCDCC4C3E128AFF1F0E
:1011B0002C89FF1FD09BFF1F7E9DFF1FB89BFF1F29
:1011C000F89DFF1FC089FF1F9A99193FCDCC4C4550
:1011D000AF9EFF1F289CFF1F2089FF1F3333733FE3
:1011E000CDCC4C3DCDCCCC3E6666663FCDCCCC3D27
:1011F000A09BFF1F08F400001C9DFF1FA09DFF1F68
:10120000BC9DFF1F709BFF1F009B1B88002B3FF4A2
:10121000C8AE2B1B002BB8BF5B42092B47DD05F581
:1012200000500130001B0CF0F5FC3B493B4C0CF02E
:1012300045FD054620680CF0EDFC39490CF03EFDFB
:10124000014628460CF032FC0CF0FEFED8F80030C7
:10125000184400282060BFF6BEAE002213E09F4273
:1012600005FB04F5B8BF002195FBFEF54BDA91FBB9
:10127000FEF490E6B242D4BFC3EB0205C3EB060511
:1012800070E643F6FF72274B22601B78002B3FF479
:10129000ADAE03F04DF9244B01221A70ABE603F01A
:1012A00043F900232B70A6E6D9F800003EE64FF480
:1012B00000501A4C88E61D491D4A069320460D88A9
:1012C00005920CF0A7FC059ADFF868B052F82510DB
:1012D000DBF800500CF0F2FC014600200CF0E4FBBF
:1012E0000CF0B2FE2F44069B56E50CF093FC039ADB
:1012F00052F82B100CF0E2FC014600200CF0D4FB5D
:101300008AE51E4642E6B742D4BFC3EB0701C3EBF2
:10131000060104FB01F1AAE7CDCCCC3EC089FF1F3A
:101320009A99193FAF9EFF1F289CFF1FA09BFF1F8C
:1013300008F40000A09DFF1F38B5114C232025782C
:1013400009F068F90F4A42F82500131F02F1C400A2
:10135000002253F8041F83420A44FAD123780A4931
:1013600007480A4C0133DBB2322B81FB025108BF24
:101370000023D217C2EB21120370226038BD00BFD8
:101380008E9BFF1F409CFF1F1F85EB519C9DFF1FE5
:101390002DE9F04FB84CB94D2068B94F83B00CF02F
:1013A00039FCB8490CF08AFC064610200AF076F8A1
:1013B0000CF030FCB4490CF081FC31460CF076FBAB
:1013C0000CF042FE2988206088423B8843DA9E4622
:1013D0005B1A7F2B4FF0000247DDD2015E1C92FBAF
:1013E000F6F2AA4EDFF8C882B6F800C0C8F80020AE
:1013F000BCF1190F00F0DF80BCF11A0F00F017816B
:10140000BCF11E0F00F020810126B146A04A1288CF
:10141000002A00F09D808842C0F207817045D4BF49
:10142000C1EB0000C1EB0E009A42BABF02FB000004
:101430000133504390FBF3F3964A1360964B1888A0
:10144000C0B9964A1288AAB9954B197801B11A7099
:1014500003B0BDE8F08F9842D4BFC1EB0002C1EBEE
:1014600003029E465B1A7F2BB7DCC2EBC21292FBD3
:10147000F3F2B6E72988D4F800E0DFF80082DFF85D
:10148000F8A171456CDCDFF818C29CF80020002A36
:101490002ED14FF0010B04288CF800B028D1002E7B
:1014A00040F094817D4B18880028D1D0B9F1000F0D
:1014B000CED023682C883A88A34280F2658100232D
:1014C000141B7E2C774DD5BFC3EB8313C3EBC31323
:1014D0005B00013493FBF4F42B680134A34203D086
:1014E000C0B2E1B205F098FB2C6003B0BDE8F08F0C
:1014F000012800F0F680022800F0EB800328D1D10B
:10150000694B1B88092BCDD0002ECBD023682E88A9
:101510003A88B34280F27B810023961B7E2EDFF84F
:101520008CA1D5BFC3EB8313C3EBC3135B000136A0
:1015300093FBF6F6DAF800300136B34203D0F1B28D
:101540004A2005F069FBCAF80060ABE716469146F1
:10155000BCF11E0F7FF472AF0022DFF858817EE0ED
:101560004F4B1A78002A3FF473AF002401281C70F7
:1015700000F0A480022840F00E81002E00F0A3802D
:101580004A4D2B68002B00F09E800420214605F078
:1015900043FB424B2C60188800283FF459AFB9F147
:1015A000000F3FF455AFC0B2002105F035FB3D4BB5
:1015B00000221A604CE7DFF8FC8098F80020C2B1E6
:1015C000DFF8D890B9F800A0BAF1000F11D0DFF819
:1015D000E89099F800B0934578D05FFA8AF07F21BF
:1015E00005F01AFB98F80030B6F800C089F8003012
:1015F00010E0DFF8C49099F800A0924566D0274B20
:101600000021187805F008FB98F80030B6F800C003
:1016100089F800301E4B1A88002A97D0BCF11E0FA3
:1016200040F006810026B14619E00020FCE6DFF814
:10163000848098F80020002A0BBF012600264FF076
:1016400000094FF00109E1E6DFF86880104B98F8D7
:1016500000601A88B6FA86F676094FF0000998F805
:101660000030002B3FF4E8AE2988B7F800E020688E
:10167000C1EB0E03CFE600BFC49BFF1F2C9DFF1FD5
:10168000269DFF1F9A99193FCDCCCC3EB29DFF1FDE
:10169000E09DFF1F389CFF1FCE9BFF1FC49DFF1FB7
:1016A000B99DFF1FAC9BFF1F709DFF1F3C9CFF1F40
:1016B000989DFF1F969BFF1F929BFF1F1EB1614DC0
:1016C0002B68002B7BD1604B188865E70026B1465C
:1016D0009CE6002E3FF4E6AEDFF868A1DAF80020C1
:1016E0002EE0002E3FF4DEAEB7F80080F045D4BF08
:1016F000C1EB0802C1EB0E02C1EB0808B8F17E0F86
:10170000DFF840A1D5BFC2EB8212C2EBC212520079
:1017100008F1010892FBF8F8DAF8002008F1010856
:10172000424506D05FFA88F10120009305F074FA73
:10173000009B1888CAF8008002287FF4DFAE42467A
:101740002168B5F800803888414559DA0021C8EB96
:101750000008B8F17E0FD3BFC1EB8111C1EBC111FD
:1017600008F10108490091FBF8F808F101089045DB
:1017700006D05FFA88F10420009305F04DFA009B33
:101780001888CAF80080B9E69342D4BFC4EB0303BB
:10179000C4EB020394E6032827D12C4B1B88092BAA
:1017A00091D0002E8FD0274D2B68002B8BD04A2054
:1017B000214605F031FA244B2C601888ECE62146CE
:1017C00005F02AFA204B2C601888E5E640207F219E
:1017D0008DE80C0005F020FA019B009A1888584506
:1017E0001CD002287FF48AAE76E704287FF46BAF22
:1017F000002E3FF468AF2146402005F00DFA62E765
:101800008142D4BFC8EB0101C8EB00019FE79342BE
:10181000D4BFC6EB0303C6EB02037EE6B8F80010A4
:10182000DAF800E0B7F800808E45FFF665AF5DE7B7
:101830002988B7F800E020680026C1EB0E03B14606
:10184000E9E500BF3C9CFF1FC49DFF1F709DFF1F6B
:1018500008B50F4B1B88022B0FD0032B12D0042B83
:1018600003D00C4B01221A7008BD7F21092005F01E
:10187000D3F9084B01221A7008BD7F21412005F0E1
:10188000CBF9EEE74021092005F0C6F9E9E700BFF2
:10189000369CFF1FEF9BFF1F38B51C4B1B881D2B71
:1018A00026D01B4B1B88012B25D01A4A1A4B1488B3
:1018B0001B681A4AA342128818DB9342D4BFC4EBB8
:1018C0000303C4EB0203141B7F2CC6BFDB010134EE
:1018D000C3EBC31393FBF4F4114D2B689C4203D06C
:1018E000E1B2052005F098F92C6038BD0023EAE745
:1018F0000C4B1C88F0E70C4B0C4A0D491B68126816
:101900000C689B1A1C1B84F30704E5E7B29DFF1FBC
:10191000229DFF1FEA9BFF1F849BFF1FB09DFF1F9F
:10192000CC9DFF1FC09BFF1FEC9DFF1F2889FF1F41
:10193000309DFF1F10B50F4C23685BB90E4B1B8801
:10194000022B11D0033B012B09D90C4A0023137041
:10195000236010BD0021052005F05EF9EEE70021AF
:10196000092005F059F9F0E70021412005F054F96C
:10197000EBE700BFCC9DFF1F369CFF1FEF9BFF1FB7
:1019800008B5274B1B78ABB1152008F043FE254A5C
:10199000254B128818601D2A15D0244A1288EAB1F6
:1019A000012A25D0224B1B78002B34D0BDE80840FB
:1019B000FFF7C0BF112009F071FD1A4A1A4B1288B7
:1019C00018601D2AE9D11B4B1B78002BEAD0184B5D
:1019D0001B780BB3BDE80840FFF75EBF164A1288BC
:1019E000002ADFD0154A1B6812889A42DADCEEE73B
:1019F0000F2009F053FD104B114A1B88106033B1C2
:101A0000104B114A1B6812689B1A9842DFDD084B85
:101A10001B78002BCAD108BDFFF71AFFDAE700BF19
:101A2000949DFF1FB29DFF1F849BFF1F229DFF1FE0
:101A3000EF9BFF1F969BFF1F369CFF1FEA9BFF1F1C
:101A4000309DFF1FEC9DFF1F2889FF1F2DE9F04FE0
:101A5000A64C2278012A95B000F02082C0F0ED81DA
:101A6000022A00F0C980A248DFF81CE390F8008049
:101A7000A048A14DA14FA24EA24BA3490390A34859
:101A80000290A3489EF800B000902D78A1483F78BE
:101A900096F800E01B780978DFF8F4C2DFF8F492DA
:101AA000DFF8F4A20190012A94BF013200222270D3
:101AB000994A9A4813709A4A80F800B0157099486C
:101AC000994A077082F800809848994A037011700B
:101AD000BEF1000F40F0FF80964A10880D2800F0FC
:101AE0009D81954C00202070024604462DB19148FE
:101AF0000088002840F09E810546904806882544CD
:101B0000002E40F04B818E488E4C009E0078367837
:101B100024780130A0EB4600002C40F02782019C85
:101B200094F800E0CEEB0004BEF1000F40F04A82D2
:101B30000026DFF850E202989EF800E00078A41B2F
:101B4000A4EB4E043C44CBEB040410B1B7FA87F08D
:101B500040099CF800602718BC1B1EB11EF100064E
:101B600018BF012699F800009AF80090039FC6EB71
:101B7000040EC0EB0E00A0EB4900804497F800C0B3
:101B8000714FC3EB0803A3EB41010C2313FB0C11B2
:101B900039606E4B6E4C6F4E1B886F4824883768D7
:101BA00000886E4E033B03EB4303C4EBC40401EB1C
:101BB00083033C4403440C3B56F824001D44054475
:101BC0000AB1674B1960674B1A68954200F0228191
:101BD000654A664811680791079901601268089282
:101BE0006348089A00881D60521A824284BF614A85
:101BF000156015B0BDE8F08F5F4F08AE0025E9B263
:101C00005E4806F045FD57F8043B0135C01A0C2D1F
:101C100046F8040BF3D15A4B3D4D00953D4DB3F8BA
:101C200000C00195109D09980F99464EDFF8D0A08D
:101C3000DFF8C490DFF8CC80654511AA8CCAAE46A7
:101C4000ACBF4FF0000E4FF0010E8445D4BF002012
:101C5000012030708C452E480B9D254E8AF800E0FF
:101C6000D4BF00210121017094452A4921480390E5
:101C7000D4BF002201220A709C45424A23480290A8
:101C8000D4BF00230123BC45AB46D4BF00270127A6
:101C90001370AC45194B0C9D1F70D4BF4FF0000B57
:101CA0004FF0010B384B227883F800B0AC45DFF8D9
:101CB00058C098F800309CF8001096F80080DFF8C3
:101CC000D0C0DFF8D4A0D4BF0025012589F800508A
:101CD000DFF8C090E7E62D4A174814880122182C37
:101CE000027040F24B81002400E700BF189DFF1FE7
:101CF0006C9DFF1F219DFF1FEE9BFF1FEC9BFF1F95
:101D0000039EFF1F6D9DFF1F6E9DFF1FDA9DFF1F2E
:101D1000C79DFF1FC09DFF1FFD9DFF1FFE9DFF1F55
:101D2000FF9DFF1F009EFF1F019EFF1F029EFF1FC2
:101D3000B89DFF1F049EFF1F969BFF1F7C9BFF1FEC
:101D4000148AFF1FF09DFF1F749DFF1F889DFF1FBA
:101D5000A89DFF1F389CFF1F909BFF1F30F40000C1
:101D6000BC9BFF1FE49BFF1FEC9EFF1F089CFF1FF7
:101D7000C29DFF1FF49DFF1F3089FF1F309CFF1F76
:101D8000D89DFF1FC89DFF1FED9BFF1FB29DFF1F2A
:101D9000FC9DFF1FB49DFF1FB59DFF1F012E00F08E
:101DA0007981022E00F0D581032E9F4B00F00F8128
:101DB0001E78009B9CF800E01878029B99F800C000
:101DC00093F80080019B9AF800401F78A6EB4E0321
:101DD000A4EB8404CCEB030CC0EB80760CEB040387
:101DE000C0EB8600034403EB480303EB810327B1F8
:101DF0008E490978002940F04782012603998C48D2
:101E00000978C1F1060101EB4101334403EB810183
:101E10000160BEE68749884A0968DFE6002D3FF485
:101E200060AE864A864E14880122182C327040F229
:101E3000A5807446A0F10D055FE6824F08AE00252F
:101E4000E9B2814806F024FC57F8043B0135C01A7A
:101E5000062D46F8040BF3D17C4A7D4B03921646BF
:101E60001B880D9A00219A423170C0F294800C9A1E
:101E7000934240F3D8817749774A91F80080774BB5
:101E800011780398764A029205221B78DFF8F8C190
:101E9000DFF8F891DFF8F8A1027057E0714F08AE53
:101EA0000025E9B2704806F0F3FB57F8043B013512
:101EB000C01A0C2D46F8040BF3D1654B0C9D1F88FE
:101EC000674B02930B9B0A98099A089EDFF8C0A102
:101ED000DFF8B8910F99DFF8B0C1BB42ACBF4FF04B
:101EE000000E4FF0010EAF42D4BF002501258742FE
:101EF000109B8CF80050D4BF002001209742D4BF23
:101F000000220122B742D4BF4FF000084FF0010871
:101F10008AF800209F42514A89F80000D4BF00236C
:101F200001234C481370129A80F800808F424C4E67
:101F3000494886F800E0D4BF002101219742017092
:101F40003ADC00224948414D039502704848494A0D
:101F5000494E4A4D07784A4800904A4892F800E0B6
:101F600096F800B02D78227801909CE5019C46B14E
:101F70002678002E40F07081441EDAE50C3C0122E8
:101F8000B4E594F800E00138CEEB0004BEF1000F98
:101F90007FF4CFADCCE52F492F4A304B91F800802C
:101FA00011782F4A35701B780292DFF8DCC0DFF819
:101FB000DC90DFF8DCA0C9E7119A9742D4BF002279
:101FC0000122BFE7002E3FF4B3AD0126B1E51C7836
:101FD0000298009B9CF800601B7890F800C099F86C
:101FE000007001989AF8008090F800E0A4EB460495
:101FF000E71BA8EB8800C3EB83743844C3EB84036E
:10200000034403EB4C0303EB8103BEF1000F40F0EC
:102010004081012603990648097833440C2414FBB7
:1020200001310160B5E500BF148AFF1FC89DFF1F85
:10203000749DFF1F089CFF1FEC9EFF1FB29DFF1F9A
:10204000969BFF1F488AFF1FA89BFF1F219DFF1F14
:10205000D89DFF1F6C9DFF1F6E9DFF1F6D9DFF1F75
:10206000DA9DFF1F188AFF1FD49BFF1FBA9BFF1F1B
:10207000EC9BFF1F039EFF1FED9BFF1FEE9BFF1FAF
:10208000C79DFF1FC09DFF1FFC9DFF1FB49DFF1F2D
:10209000B59DFF1FAA4CDFF8B4E2207805909EF8AA
:1020A000004000980494059C007800900134A4EB53
:1020B00040040498002840F0A780019890F800E0C0
:1020C0000498261ACEEB0606BEF1000F40F096806B
:1020D000CDF810E09B4C029824780194049C007881
:1020E000341B019EA4EB46043C44CBEB040410B12A
:1020F000B7FA87F040099CF800602044871B1EB1A6
:102100000198061C18BF012699F800009AF80040B3
:10211000BE1B301AA0EB440080440098C3EB0803B8
:10212000A3EB4103002864D1BEF1000F40F0BB8057
:102130007344002C75D100290CBF00206FF00900FA
:102140000399814C097803440C2010FB0131216074
:102150001FE5009C019E247800947C4C3678019603
:102160009AF8006094F800A0764C794899F800E05D
:1021700094F800909DF80440847080F806E080F8A0
:1021800003909CF800C09DF80040DFF8DC91DDF87A
:1021900000E080F808800470077180F805C0C671FF
:1021A000417280F801A04FF0000801200021684C26
:1021B0000E465FFA88FA4F46F44607E0022809D037
:1021C0000A290BD014F801CF17F8010F844501F14B
:1021D0000101F3D101360A29F6B2F3D1092E00F23A
:1021E000828008F10108B8F10F0F38D019F80A0FF2
:1021F000DCE74FF0000E9BE7CEEB040600980030C2
:1022000018BF0120049065E70098002853D001987A
:1022100090F800E0BEF1000FEED1661ECDF810E0A0
:1022200058E700208CE70B9A934249DC0A9A9342C4
:102230006FDD4849484A91F80080484B117803986F
:10224000474A029203221B78DFF820C1DFF8209171
:10225000DFF820A1027079E6841B012669E4384882
:1022600040490478886B0299013409782044CBEB0B
:102270000000084400230399334C0E78C31A0C2144
:1022800011FB0631216084E41BF1000618BF012612
:10229000B4E52C49097800293FF4BBAE1BF10006D8
:1022A00018BF0126B6E6019800280CBF4FF0000EBB
:1022B0004FF0090E3CE7019890F800E0304600E747
:1022C0002449254A91F80080244B11780398244A28
:1022D000029204221B78DFF894C0DFF89490DFF8B4
:1022E00094A0027032E616481E49047851F828007E
:1022F0000299013409782044CBEB00000844002BFC
:10230000B8D0BAF1000FB5D1BBF1000FB2D00123A4
:10231000B1E7099A93422FDD0E490F4A91F80080E8
:102320000E4B117803980E4A029202221B78DFF8B6
:102330003CC0DFF83C90DFF83CA0027006E600BF2E
:10234000148AFF1FC89DFF1F749DFF1FF09DFF1F74
:102350000C9CFF1F6C9DFF1F6E9DFF1F6D9DFF1F3F
:10236000DA9DFF1FC489FF1FECF20000FC9DFF1FD8
:10237000B49DFF1FB59DFF1F089A0B49DFF838C0B9
:1023800091F80080DFF83490DFF834A09342074AD8
:10239000074B1178074A1B7802927FF7D7AD039855
:1023A00001220270D2E500BF6C9DFF1F6E9DFF1FD2
:1023B0006D9DFF1FDA9DFF1FFC9DFF1FB49DFF1F3A
:1023C000B59DFF1F2DE9F04F2E4B1B788BB0002BD6
:1023D00053D10E2008F01EF90BF01CFC01462A48D0
:1023E0002A4C2B4DFEF7A6F82748FEF779F80BF09C
:1023F0002BFE80F30C002060FFF728FB2E68012ED7
:102400005AD0022E00F08782032E00F09783214CD1
:102410002368214A214E0993099B17783068204C84
:1024200007210122181A11FB07229042236000F2B3
:102430006D821C4E32689A1A0D2A00F260821A4E82
:1024400032689A1A132A00F25582184E32689A1A84
:10245000252A00F23C82164D2A689B1A502B00F266
:10246000F581144B1B88012B00F00D8204F068FCF1
:1024700004F096FA0BB0BDE8F08F05F033FB0BB01B
:10248000BDE8F08FA99BFF1F4C9DFF1F809DFF1F84
:10249000AC9DFF1FEC9EFF1F1A9DFF1F289DFF1F75
:1024A000449DFF1F209CFF1FF49BFF1FF89BFF1FF5
:1024B000389DFF1F849DFF1FDFF800839A4AB8F8FC
:1024C00000001378834204D0C3B21846137004F09E
:1024D00073FBDFF8E492954AB9F80030117899421D
:1024E00004D0934F3978002940F09887914A2368A7
:1024F0001288914C9A42C0F2EE80904A1278002ADB
:1025000040F0E980DFF8B8A2BAF8003023B98C4B6C
:102510001B88002B00F042858A4A8B4B11881B8850
:102520008A4A0B4412685B109342894A126880F20F
:10253000B78400219342B4BF01230B46049100935A
:10254000ACBF4FF0010B8B4605910E2008F062F8EE
:10255000804B814A1B68176803930133A7F25232FC
:10256000002B8446029240F36A87802BA8BF802309
:102570007A4A7B4912780191002A00F0B6800978E6
:10258000914200F0B280B9F80010DFF82CE29942D5
:1025900001F061816649AEF80030724B4FF0010ED8
:1025A00081F800E01978DFF81CE2019B8EF800103A
:1025B0001A70009B002B00F00781BAF80030002B46
:1025C00000F00281684B1B685A1C002A40F33B87CD
:1025D000802A00F33787654E654966483688098842
:1025E00000683144B0EB610FC1F20982A3F14802E7
:1025F0000F2A02D8473BA8F800300E2008F00AF84E
:102600006FF454731F44874202DC5B4B00221A7044
:102610005A4B1B88002B00F03B84594B594A1B78BE
:102620001178994240D0002B3ED057490E78002EA9
:1026300000F0EE87554991F800C0BCF1000F40F062
:10264000E587534F0097534F53480297504F0078F8
:1026500087F800C04F4F4FF0010E87F800C081F897
:1026600000E0002841F089814C490978002901F0F7
:102670004A804B4903910E460978002941F0408079
:102680004848444F0078397001210297317058B1A1
:102690003F483E490090002008700099029F087052
:1026A000039901263E70087013703F4B1B88A3F1FD
:1026B0001B02012A40F28D861D2B7FF4A9AE394FF3
:1026C0003B78002B41F00C81384E3378002B40F0E2
:1026D000958433709CE62168354A06910698354901
:1026E000106002220B602A600CE71E49DFF8D4E07C
:1026F000097800293FF459AF9EF8000081423FF469
:1027000054AF03984B2841F352801833802BB9F80B
:102710000000A8BF802398423FF447AF26480380BB
:1027200003480123037040E7199DFF1FFC9BFF1F17
:10273000979BFF1F329CFF1FEC9EFF1FA29BFF1F5A
:10274000269CFF1FB89BFF1F7E9DFF1FD09BFF1F76
:10275000F89DFF1FBC9BFF1F889BFF1FE89DFF1F6D
:10276000E09BFF1FE99DFF1F749DFF1F2C9DFF1F16
:10277000269DFF1FC49BFF1F209DFF1F869DFF1FDF
:10278000BA9BFF1F749BFF1F009EFF1F7C9DFF1FB6
:10279000C69DFF1F349CFF1F019EFF1FFD9DFF1F55
:1027A000759BFF1F969BFF1FB29DFF1F929BFF1FF4
:1027B000F09BFF1F409DFF1F489DFF1F349DFF1F83
:1027C000E89BFF1FE19BFF1F029B9C45BFF615AFD7
:1027D0008E4B1B88002B3FF410AFBBF1000F7FF432
:1027E000F1AE8B4B1B881BB1059B002B7FF4EAAE2F
:1027F000049B002B3FF401AF864B1A78002A7FF42C
:10280000FCAEDFF8888298F8006001221A70002E72
:1028100040F09183804B1B78002B01F032817F4B7D
:102820001B78002B01F043817D4B1B78002B7FF43C
:10283000E4AE7C4B1B78002B3FF4DFAEB9F80030E0
:1028400079490A3BA9F800300A70D6E602F0C4FFC5
:10285000764B1B7873B9764B1B785BB9754B1B783D
:1028600043B9754B1B782BB9744B1B7813B901F026
:102870005BFE01E001F064FE23682B60704B1B8857
:10288000012B7FF4F3AD6F4A6F4B11686F481A78D4
:10289000A1F118032A2101FB03F10160002A00F0D5
:1028A000E1826B4A1368994200F37C8380F286834D
:1028B00068480068D0F17F0048BF033080100130C5
:1028C0001B1A994200F37A8313601946CCE2FEF793
:1028D00033FD614B1B881B3B9BB2022B05D85F4B22
:1028E0001B7813B12B68012B01D001F047FE236840
:1028F0003360B0E5FFF744F823683360A5E5FEF7E1
:1029000053F9FEF745FD2368336098E5FEF7C4F8F8
:10291000236833608DE5524A26681288B24204DB90
:10292000464B1B78002B00F064834E4C4E482368C6
:1029300007934E4B079900681B88091A994200F2C9
:10294000AB80002B00F0A880494B198800293FF488
:102950005FAD484B48481B680088B342B8BF334658
:102960009A4241F34580454B1A60DFF8248188F88C
:102970000010344FFEF790F838687F2840F3428605
:102980003F4B7F3883FB0032C317C3EB620303EB7B
:102990004303A0EB830073303A4B01931B883860EC
:1029A000002B40F04A87234B00931B78002B00F04C
:1029B0007384354E3378002B00F06E84DFF8D490AA
:1029C000DFF8BCA04FF0000B0CE003F17300C0B2C5
:1029D00098F8001004F048F933780BF1010B5B45CF
:1029E00040F35A843B6859F8040F1844A0F17F0360
:1029F0008AFB0321DA17C2EB610202EB42027F2855
:102A0000A3EB8203E1DCFDF73DFEE0E7269CFF1F20
:102A10003C9DFF1F209DFF1FFD9DFF1FFE9DFF1F73
:102A2000FF9DFF1F009EFF1F979BFF1F349CFF1FF2
:102A30007C9DFF1FC69DFF1F759BFF1FA29BFF1F55
:102A4000849DFF1FF49DFF1FEF9BFF1F1C9CFF1F1A
:102A50009C9BFF1FCC9DFF1FB29DFF1F969BFF1FDE
:102A6000329CFF1FEC9EFF1FF09BFF1F249CFF1F4B
:102A7000949BFF1F409DFF1FDC9DFF1F789BFF1F46
:102A8000ABAAAA2ACC9BFF1F8889FF1F219DFF1F8D
:102A9000189CFF1F6089FF1F554B56491B6808880B
:102AA0005549B342B8BF33469A4200F38982534E28
:102AB00009888342A8BF0346336000297FF455AFDD
:102AC0009A42C8BF0B4640F38282801AB0F5804F0D
:102AD000AABF9B03C3EB8333013093FBF0F0FDF7F8
:102AE000C1FFC0F3C6100BF095F8454B0646188899
:102AF0000BF090F84349074630460BF0DFF80146EB
:102B000038460BF0DBF831460AF0D0FF4FF07E512B
:102B100006460BF071FA002840F05F873A493046CC
:102B20000BF088FA002840F01C8730460BF0B2FA10
:102B3000C0B2DFF8F48088F800001AE7334B26684B
:102B40001988B14274DD324B1B78002B70D1DFF84D
:102B5000DC9099F800007F2840F3BE86A3F155333E
:102B60007F3803F1004383FB0032C317C3EB6203DA
:102B700003EB4303A0EB83007330264B01931B88C8
:102B8000C0B289F80000002B40F00787224B009369
:102B90001B78002B00F06785204E3378002B00F067
:102BA00062851F4FDFF87C804FF0000A0AE003F1D6
:102BB0007300C0B204F080F833780AF1010A53457B
:102BC00040F3518557F8043F99F800001844A0F1EC
:102BD0007F0388FB0321DA17C2EB610202EB42029A
:102BE0007F28A3EB8203E2DCFDF74CFDE1E700BFA9
:102BF000409DFF1FDC9DFF1F949BFF1F789BFF1FC5
:102C0000809BFF1FCDCCCC3D0000FE42329CFF1FBD
:102C1000A29BFF1FCC9BFF1FC69DFF1F8889FF1F24
:102C20006089FF1FABAAAA2A189CFF1F789DFF1F6F
:102C3000A24F38687F2840F3D181A14B7F3883FBB6
:102C40000032C317C3EB620303EB4303A0EB830023
:102C50007330DFF8B49299F800A0824500F0288222
:102C6000984B1B88002B43D1974A984812680088DC
:102C7000914205DC8242D4BFC1EB0203C1EB0003E9
:102C8000411AB1F5804FA6BF9B030131C3EB8333DB
:102C900093FBF1F0FDF7E6FEC0F3C6100AF0BAFFB1
:102CA0008B4B064618880AF0B5FF8A4980463046A5
:102CB0000BF004F8014640460BF000F831460AF0EC
:102CC000F5FE4FF07E5106460BF096F9002840F0D5
:102CD0006186814930460BF0ADF9002840F030861E
:102CE00030460BF0D7F9C0B2DFF8208288F8000038
:102CF000BAF17F0F40F381847148AAF17F0A80FB0B
:102D00000A304FEAEA73C3EB600000EB4000AAEB25
:102D100080007330714B00931B78C0B289F80000BB
:102D2000002B40F0E1836E4B03931B78002B40F0A7
:102D3000AE856C4B02931B78002B40F051866A4B9A
:102D40000193029B1B78002B3AD0684B1B88182BF1
:102D500017D099F800201344A3F118007F2840F3FE
:102D6000F285574A973B82FB0321DA17C2EB6102D7
:102D700002EB4202A3EB820303F17300C0B203F043
:102D80009BFF5B4A5B4B127833F81230182B17D03D
:102D900099F800201344A3F118007F2840F3DD8543
:102DA000474A973B82FB0321DA17C2EB610202EB31
:102DB0004202A3EB820303F17300C0B203F07CFF75
:102DC000009B1B78002B00F0AE84019B464E1988B7
:102DD000002900F0558538687F2840F35083384B30
:102DE0007F3883FB0032C317C3EB620303EB43035B
:102DF000A0EB830073303860002940F0E984009B29
:102E00001B78002B00F05F813B4E3378002B00F0E5
:102E10005A81DFF8FCA0DFF8F4804FF0000B0CE0E3
:102E200003F17300C0B298F8001003F01DFF33786F
:102E30000BF1010B5B4540F346813B685AF8040FE8
:102E40001F4A1844A0F17F0382FB0321DA17C2EB6B
:102E5000610202EB42027F28A3EB8203E0DCFDF774
:102E600011FCDFE7254B1960254B1B68A92202FBEB
:102E700003F3002BBCBF03F57F533F339B13543B3D
:102E8000194481F30C01282007F04AFFFFF7EEBA3E
:102E9000144E1C481149124A337003700B7003E43E
:102EA00093424FF0000B80F29C800123CDF800B0DC
:102EB000CDF814B00493FFF748BB00BFF49DFF1F8B
:102EC000ABAAAA2A949BFF1F789BFF1FDC9DFF1FC4
:102ED000809BFF1FCDCCCC3D0000FE42C69DFF1F56
:102EE000759BFF1F349CFF1FCC9BFF1FB09BFF1FD8
:102EF000DA9BFF1F8C9DFF1F8889FF1F9C9BFF1F74
:102F0000C089FF1F7C9DFF1F789DFF1F189CFF1F1E
:102F10006089FF1F924B1B78002B7FF46EAB039BE5
:102F2000904A243B83F34703D9B25B20136003F03C
:102F300073FE98F80060032E30D1DFF8808298F895
:102F40000030002B40F03686874F3B78002B40F056
:102F50002486834E3378002B40F01286834B1B78F7
:102F6000002B40F00086824A1380824B1B78002B96
:102F700040F0EC85804B7F221A8098F800306BB9C6
:102F80003B785BB933784BB97C4A7F2107201380AB
:102F900003F042FE7F210B2003F03EFE784B1F68BA
:102FA000FFF72BBB77480068D0F17F0048BF0330A4
:102FB00003EBA00301339942BFF686AC116053E7DF
:102FC000714B09881A6000297FF4CFAC13469842F0
:102FD000D4BFC2EB0003C2EB030376E5FDF752FB5F
:102FE00037E60123CDF810B0CDF800B00593FFF718
:102FF000ACBA01232B60654CFFF70ABA644B6A2018
:10300000198803F08DFF3B783370FFF701BA614BED
:103010001B78002B3AD0604B1B88182B17D099F8DF
:1030200000201344A3F118007F2840F3ED845B4A8D
:10303000973B82FB0321DA17C2EB610202EB4202EB
:10304000A3EB820303F17300C0B203F035FE544AD0
:10305000544B127833F81230182B17D099F80020FF
:103060001344A3F118007F2840F3D2844B4A973BC6
:1030700082FB0321DA17C2EB610202EB4202A3EBEF
:10308000820303F17300C0B203F016FE019B1B889C
:10309000002B00F08C84444B1B78002B40F0818483
:1030A000424B394A198826680020012310602B60A2
:1030B000B142364CBFF6ACA922683D4B0892089A43
:1030C0001A60FFF7A5B9039B1B78002B7AD03B68E9
:1030D000A3F10C007F2840F3F28330488B3B80FB48
:1030E0000320DA17C2EB600000EB4000A3EB800383
:1030F00003F17300DFF8C080C0B298F8001003F04D
:10310000B3FD009B1B78002B5CD02A4E3378002B3C
:1031100058D0DFF8ACA04FF0000B0BE003F17300C8
:10312000C0B298F8001003F09FFD33780BF1010B4B
:103130005B4547DD3B685AF8040F184A1844A0F174
:103140008B0382FB0321DA17C2EB61020C3802EB1E
:1031500042027F28A3EB8203E0DCFDF793FADFE76E
:10316000009EFF1FB49BFF1FFF9DFF1FFE9DFF1FC3
:103170002A9CFF1F019EFF1F949BFF1F709DFF1F36
:10318000889BFF1FCC9DFF1F789BFF1FEC9EFF1F9E
:10319000C09BFF1F349CFF1FB09BFF1FABAAAA2A36
:1031A000DA9BFF1F8C9DFF1F7C9DFF1F329CFF1F22
:1031B0008C9EFF1F8889FF1F189CFF1FFD9DFF1F0E
:1031C0006089FF1F029B1B78002B3AD0AD4B1A88F9
:1031D000182A18D03B681344A3F118007F2840F345
:1031E000B683A94A973B82FB0321DA17C2EB61023F
:1031F00002EB4202A3EB820303F17300A34BC0B2C4
:10320000197803F031FDA2490B78022B00F25383A9
:103210000133DBB20B701A469E4830F81260182E4C
:1032200040F090820422032B03F10106F3B208BFA1
:10323000002330F81360182E40F08382013AF2D157
:103240000B70019B1B88002B00F0CB82009B1B782E
:103250003BB9039B1B7823B9029B1B78002B00F022
:10326000E0838D4B1B78002B00F0D6808B490B78C8
:10327000082B00F2D1808A483A680068894E0133F1
:10328000DBB25F1E101A46F827000B70864B2668CB
:10329000198889F800200BE77F4B1B78002B40F042
:1032A000C1823B68814A1278002A45D0A3F10C0004
:1032B0007F2840F30A83744A8B3B82FB0321DA1791
:1032C000C2EB610202EB4202A3EB820303F1730043
:1032D000C0B298F8001003F0C7FC009B1B7853B3F2
:1032E0006E4E33783BB3DFF8FC91DFF89CA14FF0D2
:1032F000000B0BE003F17300C0B298F8001003F06C
:10330000B3FC33780BF1010B5B4514DD3B6859F8D6
:10331000040F1844A0F18B038AFB0321DA17C2EBD8
:1033200061020C3802EB42027F28A3EB8203E1DC4E
:10333000FDF7A8F9E0E73B685D4A1278002A3DD026
:10334000504A1288182A18D01344A3F118007F2875
:1033500040F30D834C4A973B82FB0321DA17C2EB03
:10336000610202EB4202A3EB820303F17300C0B2DD
:1033700098F8001003F078FC3B6845490A78022A67
:1033800000F2A6820132D2B20A701646414830F8E5
:1033900016E0BEF1180F40F0F0810426032A02F176
:1033A000010E5FFA8EF208BF002230F812E0BEF183
:1033B000180F40F0E181013EF0D10A70019A1288A5
:1033C000002A00F041823B4903220B702A60FFF77C
:1033D0001FB8394F3B78002B3FF476A9374E307831
:1033E00001F036F9364B1B78002B00F091823388C0
:1033F0007E2B00F28D82334A0133108899B23180DE
:10340000002800F09582C9B2C0B22F4E03F004FC30
:103410003B783370FEF7FCBF3A6837E7DBB21846FB
:10342000137003F0D7FB294B1B491A461F4B184654
:1034300000230B703B7013700370FFF757B8012324
:10344000FFF796B880262249224B234A09881B8819
:1034500012680B44B2EB630FBFF6CFA8164B1B7874
:10346000002B40F0FE81B9F800301C4AB3423FF413
:10347000C4A81B4B168001221A70FFF7BEB8FDF7D7
:1034800001F9B8E4B09BFF1FABAAAA2A189CFF1F42
:10349000DA9BFF1F8C9DFF1F7C9DFF1F8889FF1FEC
:1034A000989BFF1F6489FF1F329CFF1F759BFF1FA6
:1034B000349CFF1F789DFF1F969BFF1FC09BFF1F23
:1034C000029EFF1F049CFF1F929BFF1FC69DFF1FB4
:1034D000269DFF1F2C9DFF1FC49BFF1F489DFF1FA4
:1034E000979BFF1F6089FF1FC14B01931B88002B17
:1034F00040F06C83BF4B0393BF4B0293BF4E3378B6
:103500006BB3DFF81483DFF8F8A24FF0000B09E08B
:1035100003F17300C0B203F0CFFB33780BF1010B62
:103520005B451CDD58F8043F99F800001844A0F1F1
:103530007F038AFB0321DA17C2EB610202EB42022E
:103540007F28A3EB8203E3DCFDF79CF8E2E7AA4BBC
:10355000029303F0B1FB009B1B78002BCED1039BA1
:103560001B78002B3FF4EDAB99F80030A3F10C0071
:103570007F2840F3A781A2488B3B80FB0320DA170A
:10358000C2EB600000EB4000A3EB800303F173008B
:10359000C0B203F091FB009B1B78002B00F08081F0
:1035A000964E3378002B00F06582DFF86C82DFF8EE
:1035B00050A24FF0000B0AE003F17300C0B203F019
:1035C0007BFB33780BF1010B5B457FF7BAAB58F807
:1035D000043F99F800001844A0F18B038AFB0321F3
:1035E000DA17C2EB61020C3802EB42027F28A3EB30
:1035F0008203E1DCFDF746F8E0E75046FDF742F8CC
:10360000FFF788BBFDF73EF8FFF7C6B9002008704A
:103610007C49087840B17C4900910978002900F084
:10362000A981009F002139707849097800297FF429
:1036300020A8002E67D1002865D1754E724F96F8EC
:1036400000E06C4E03966C4E02966A4E71493070E3
:10365000694E0097087038703070BEF1000F7FF42B
:103660001AA8FFF721B8634B1B78002B3FF4CFACAF
:1036700099F80030A3F10C007F2840F3C281604A22
:103680008B3B82FB0321DA17C2EB610202EB4202A1
:10369000A3EB820303F17300C0B203F00DFB009BA8
:1036A0001B78002B3FF4B3AC544E3378002B3FF41F
:1036B000AEAC594FDFF848814FF0000A0AE003F141
:1036C0007300C0B203F0F8FA33780AF1010A5345E7
:1036D0007FF79DAC57F8043F99F800001844A0F11B
:1036E0008B0388FB0321DA17C2EB61020C3802EB73
:1036F00042027F28A3EB8203E1DCFCF7C3FFE0E793
:103700000398002101704249097800293EF4CCAFAA
:10371000394902910978002900F088810298002136
:103720000170FEF7C1BF039B1B78002B7FF44DABEC
:10373000029B1B78002B7FF448AB019B1988FFF795
:103740004ABB0B703B681E44A6F118007F2840F36B
:1037500001812B4B973E83FB0632F317C3EB6203C9
:1037600003EB4303A6EB830606F173002B4BC0B2B9
:10377000197803F079FA64E50A707344A3F118002C
:103780007F2840F3F1801E4A973B82FB0321DA1722
:10379000C2EB610202EB4202A3EB820303F173006E
:1037A000C0B298F8001003F05FFA3B6806E6243BCD
:1037B000002BB9F8000040F32F8198423EF4F5AE9B
:1037C0009BB21748A9F8003001230370FEF7EDBE45
:1037D000DFF84880C0B298F8001003F045FAFFF710
:1037E0000EBB0E4B3878197803F03EFA2EE500BF79
:1037F000CC9BFF1F759BFF1F349CFF1F8889FF1FF9
:10380000ABAAAA2A019EFF1FC69DFF1FFD9DFF1F99
:10381000969BFF1F7C9DFF1F6089FF1F189CFF1F49
:10382000979BFF1F7F21402003F0F6F9B349B44A6C
:103830003B680B600021117034E5C0B298F80010AD
:1038400003F012FAFFF7AFB8D8B298F8001003F0FF
:103850000BFA3B68B7E5AB4BDFF8ECE21978FEF703
:10386000A4BE4B2E40F3A9801836802EB9F8003044
:10387000A54AA8BF8026B3427FF4FBADFEF7BDBECC
:1038800099F8000003F018FA3188FFF7A4BA9F4BAB
:1038900001931B88002B7FF45AAE9D4B029363E685
:1038A000029B1B78002B7FF450AA039B1B78002BF4
:1038B0007FF48BAA41E7002213460A70ACE4FCF7C0
:1038C000E1FE17E4FCF7DEFE62E6FCF7DBFEFFE458
:1038D000002216460A7059E5FCF7D4FEFFF74DB9F1
:1038E0008C4E307800F0B4FE8B4B1B781BB13388C4
:1038F0007E2B40F2A780894B1B7823B13388854A01
:10390000002B40F0AB80864E3B783370FEF780BDD5
:10391000824B1B78002BF6D033887E4A002BF2D0E6
:103920008049013B088899B2118000287FF46BAD73
:10393000C8B27B4E03F0E4F93B783370FEF768BD04
:103940007F20FFF7D1B9FCF79DFEFFF717BAFCF710
:1039500099FE53E4FCF796FE08E7FCF793FEFFF7A9
:103960002CBA7F20FFF7E5B8FCF78CFE18E7FCF7D0
:1039700089FEFCE4664F6C4902974FF0000C81F819
:1039800000C0009F02994FF0010E87F800E081F817
:1039900000C049E60120FFF7A7B903F08DF9FFF752
:1039A000F5B80021402003F037F9FFF779BB99F80B
:1039B000000003F081F9FFF76EBB243E002EB9F83A
:1039C00000303ADDB3423EF418AEB6B2574BA9F818
:1039D000006001221A70FEF710BE0120FFF7A9B89F
:1039E0004A4B01931B88002B7FF4B3ADFFF7A9B9B5
:1039F0004F4A8342A8BF03461360FEF7B6BF164680
:103A00002CE5FCF73FFE47E6FCF73CFEFFF71CBB4E
:103A1000FCF738FEFFF737BB01283EF4C6AD0123A3
:103A2000CFE699F8000003F047F91AE44148009006
:103A300041483D490390FEF72EBE012B3EF4DDAD1B
:103A40000126C3E701339BB23380D9B20520344E3F
:103A500003F0E2F83B783370FEF7DABC013B9BB22F
:103A6000D9B205202E4E138003F0D6F83B78337080
:103A7000FEF7CEBC029B1B78002B7FF466A9FFF7F4
:103A8000A4B92E4B1B782BB32D4B1B78002B7EF447
:103A9000B4AD2C4B1B78002B3EF4AFADB9F8003021
:103AA00022490A33A9F800300A70FEF7A6BD244B5C
:103AB0001B78002B7EF4A1AD224B1B78002B3EF42B
:103AC0009CADB9F800301949013BA9F800300A70E3
:103AD000FEF793BD1A4B1B78002B7FF41BAA194BE2
:103AE0001B78002B3EF489ADB9F800300F49013343
:103AF000A9F800300A70FEF780BD00BF989BFF1F39
:103B00008889FF1FE99DFF1F489DFF1FCC9BFF1F5A
:103B1000349CFF1FC09BFF1F029EFF1F019EFF1FC3
:103B2000929BFF1F049CFF1F7C9DFF1F979BFF1F05
:103B3000789BFF1FC69DFF1F759BFF1FFE9DFF1FEC
:103B4000FF9DFF1F009EFF1FE19BFF1F224B0022D6
:103B50007F2107201A8003F05FF87F210B2003F0FC
:103B60005BF8FFF70ABA1D4B01227F2107201A805C
:103B700003F052F87F210B2003F04EF8FFF7F5B960
:103B8000174B04227F2107201A8003F045F80021FB
:103B90000B2003F041F8FFF7E1B9114B02227F211E
:103BA00007201A8003F038F87F210B2003F034F847
:103BB000FFF7CFB90A4B002107201E8003F02CF835
:103BC0007F210B2003F028F8FFF7BEB9054B0393C4
:103BD000054B0293BDE400BF949BFF1F2A9CFF1F6F
:103BE000709DFF1F759BFF1F349CFF1F38B506F0AB
:103BF000ADFD0E4804F0E4FC0D4804F0E1FC0D4876
:103C000004F0DEFC00234FF07E5201210A48FCF74D
:103C10002DFC0A4B0A4A0B49802400251C711846CA
:103C20001D60BDE838400AF055BA00BFA89BFF1FD1
:103C3000D49BFF1F309CFF1F4C9DFF1FD09DFF1F7B
:103C40001C89FF1F2906000043682A20198803F0F9
:103C500067B900BF10B5044622206368198803F0D5
:103C60005FF9E36824201988BDE8104003F058B9D3
:103C700010B504460A206368198803F051F9E36817
:103C80000C201988BDE8104003F04AB910B504466D
:103C900006206368198803F043F9E368082019884F
:103CA000BDE8104003F03CB910B50446022063683B
:103CB000198803F035F9E36804201988BDE810403D
:103CC00003F02EB970B50E4C84B0122504220123E6
:103CD00006460390029320468DE824001423102109
:103CE00005F072FE062209230293039601952046F1
:103CF00000921423102105F067FE04B070BD00BFD0
:103D0000289EFF1F2DE9F041224D82B0012602B20C
:103D100084B20092284601967823192105F09AFD75
:103D200004F10C0212B28DE844002846A71978234A
:103D3000192104F1020805F08DFD3FB20FFA88F851
:103D400019233A46284619460196CDF8008005F019
:103D500081FD78233A4628461946CDF80080019621
:103D600004F10A070B3405F075FD3FB224B2782345
:103D70003A46284619468DE8500005F06BFD192398
:103D800000943A4601962846194605F063FD02B0B4
:103D9000BDE8F081289EFF1F2DE9F0411E4682B04C
:103DA0001446002A6AD0099B4D4A00EBC305012C3A
:103DB0006F8929896868A7EB010382FB03E21A4433
:103DC0004FEAE373C3EBA21302887BD0042C38D1F3
:103DD00012FA83F3994203DC9F423946A8BF194681
:103DE000089A0180B6F90030BDF920803D48971D42
:103DF0004FF0000E3FB2194642460097CDF804E05E
:103E000005F028FD29896A896B68521A1B885C2A8B
:103E1000A3EB010359DD03EB43030132C3EB43136F
:103E200093FBF2F303F11B0213B201203280194617
:103E30004246019000972B4805F00CFD2A4B0022CA
:103E40001A702A4B022CB3F9001045D0082C31D13E
:103E500000221A8091422DD0089AB6F900302148EC
:103E60000632012412B2009219460194BDF92020B5
:103E700005F0F0FC204602B0BDE8F0811C4D1D4A63
:103E80002B681268CB1A93420F4617D9164A33880B
:103E900011781448012918BF01241470089A0632B9
:103EA0001BB212B28DE814001946BDF9202005F0AE
:103EB000D1FC2F60012002B0BDE8F081204602B0A5
:103EC000BDE8F0819BB2D31A84E75C2101FB03F3C8
:103ED00093FBF2F21B32A7E74A1C12B21A80B9E731
:103EE000C94216B2289EFF1FAE9EFF1F109EFF1FE5
:103EF0008C9EFF1FD400010030B583B000230C4618
:103F000005B2009326225B231C210C4805F0F2F930
:103F1000294601232622094804F0FCFC002C24B287
:103F200005DB214601232622044804F0F3FC044A61
:103F3000044B15801C8003B030BD00BF289EFF1FBE
:103F4000628AFF1F648AFF1FF0B59B4C237883B001
:103F50001BB19A4B4FF6FF721A80994BB3F90030A0
:103F6000C3B9984A954B1068B3F9002080F30C0050
:103F70005B2303FB00F000131C3082425ED04FF045
:103F8000FF31FFF7B9FF904805F018FA00232370BE
:103F900003B0F0BD012B36D0022B6ED0032B53D0D3
:103FA000042BF3D1252200258DE8240076231C2143
:103FB0008548864E864F05F04DFC17E0B0F5AF7F83
:103FC000A8BF4FF4AF70323803FB00F387FB032127
:103FD000DB17C3EB61111C3109B201231D442522FB
:103FE000794804F097FC0C2D00F08480E9B2794800
:103FF00004F04EFB56F8042B801A31284FF05B0377
:10400000DCDC1C21E9E7744B1A68B2F52F7F32DB48
:1040100041F25C239342A8BF1346A3F52F735B22A2
:104020006E4802FB03F380FB0320DB17C3EBA020E9
:104030001C30624BB3F900308342A0D1684BB3F916
:10404000003001339BD1A1E7664B1B68B3F5FA7FC3
:1040500011DBB3F57A6FA8BF4FF47A63A3F5FA7258
:1040600061485B2303FB02F380FB0320DB17C3EBF8
:1040700020201C30DDE71C20DBE75C4B1B68B3F520
:10408000FA7F33DBB3F57A6FA8BF4FF47A63A3F5F9
:10409000FA7255485B2303FB02F380FB0320DB1716
:1040A000C3EB20201C30524B1B68B3F5FA7F1FDB9B
:1040B000B3F57A6FA8BF4FF47A63A3F5FA724A4951
:1040C0005B2303FB02F381FB0321DB17C3EB2121FD
:1040D0001C313A4BB3F9003083427FF452AF404B6E
:1040E000B3F900308B427FF44CAF4FE71C20DAE786
:1040F0001C21EEE7262200258DE8240076231C21D2
:1041000031483C4E324F05F0A5FB16E0B0F5AF7FCD
:10411000A8BF4FF4AF70323803FB00F387FB0321D5
:10412000DB17C3EB61111C3109B201231D442622A8
:10413000254804F0EFFB0C2D0CD0E9B22E4804F01A
:10414000A7FA56F8042B801A31284FF05B03DDDC08
:104150001C21EAE7272200258DE8240076231C2174
:104160001948264E1A4F05F075FB17E0B0F5AF7FE2
:10417000A8BF4FF4AF70323803FB00F387FB032175
:10418000DB17C3EB61111C3109B201231D44272247
:104190000D4804F0BFFB062D3FF4F5AEE9B2184818
:1041A00004F076FA56F8042B801A31284FF05B039E
:1041B000DCDC1C21E9E700BF069EFF1F628AFF1FAF
:1041C0000C9EFF1F809DFF1F289EFF1F188AFF1F48
:1041D0004B48371BD49BFF1F849BFF1FD305854192
:1041E000648AFF1FC49BFF1F011FB812D09BFF1FD3
:1041F000F89DFF1F3089FF1F309CFF1F488AFF1F5B
:10420000A89BFF1F2DE9F04FDFF8EC82B74CB8F9FF
:1042100000604D7854F8264087B08246039305B17C
:104220000D78DFF8FCB2002A34D19BF800308BBB4C
:10423000AF4EB6F90000002800F0CE80012800F053
:104240002481012032232A46019000935146A94B34
:104250002046FFF7A1FD00250746B6F90030022BE6
:1042600040F3F48000233380B8F90030A24A002BD9
:10427000C0F2F880042BC4BF00231380039B002BE3
:1042800040F0F680002D0CBF38464FF0FF3007B0ED
:10429000BDE8F08F964EE3682268984804930027A3
:1042A000059237808BF8007004F07CFF1120FFF737
:1042B00029FD4FF0010919232821CDF80490009120
:1042C000242219468D4805F0C5FA78232821242296
:1042D000CDF8049000918948194605F0BBFA49468B
:1042E000864805F04DFE02221921844805F044FE5F
:1042F000DDF8149048460AF0C3FC494602467F4860
:1043000005F0D4FF7D4805F0E7FF394614227B48CD
:1043100005F032FE03227A49784805F0C7FF774856
:1043200005F0DAFF39462322744805F025FE032202
:104330007449724805F0BAFF704805F0CDFF049B40
:10434000002B72D10123704A18461370FFF7BAFC94
:10435000208963896768191A5C293A885BDC131A1B
:104360005C2202FB03F292FBF1F31B33674A6348C2
:10437000138001271BB21A2219468DE884001422EB
:1043800005F068FA049BDBB1218A638AE768581A52
:104390005C283A886FDD521A02EB4202C2EB4212ED
:1043A000431C92FBF3F31B33524A544813800127FA
:1043B00038221BB28DE884001946322205F04AFAF1
:1043C000534A544BB6F90000012111704FF6FF72A9
:1043D0001A8000287FF432AFDFF848914E4AD9F8AE
:1043E00000301268C3EB0A0393424CD9464B1A784B
:1043F000012A18BF012018700127FFF763FCC9F8D4
:1044000000A0012D4ED0042D59D0022D60D0082DD2
:1044100064D0002521E7121A02EB4202C2EB4212DD
:104420004B1C92FBF3F31B33A0E72F20FFF76AFC32
:1044300039463222314805F09FFD032237492F4883
:1044400005F034FF2D4805F047FF7BE77FF40CAF04
:10445000E368002B3FF406AFB8F90030264A002B82
:10446000BFF608AF04231380039B002B3FF40AAF71
:10447000FFF76AFD06E7511A5C2202FB01F292FB8C
:10448000F0F31B3390E70746BBE7002714238DE8C2
:1044900088002A4651461D4B2046FFF77DFC3D46CD
:1044A0000746DAE6B8F800308BF800500133A8F878
:1044B0000030636983B1002520469847CDE6B8F8FF
:1044C00000300122013BA8F800308BF80020F0E713
:1044D000012333800025C7E61D46BEE6636900223E
:1044E00032804FF0FF35002BE6D1BDE6688AFF1F12
:1044F000109EFF1F0A9EFF1F0C9EFF1F289EFF1F7E
:104500007CF5000080F50000AE9EFF1F089EFF1F97
:10451000069EFF1F628AFF1FD400010084F5000081
:104520000E9EFF1F8C9EFF1F01210D2006F088BDEF
:1045300000210D2006F084BD01460D2006F080BD4F
:1045400008B50D2006F082FDB0FA80F149090D2072
:10455000BDE8084006F074BD10B5002144080D20E8
:1045600006F06EFD204606F0A7FD0D20012106F0A5
:1045700067FD2046BDE8104006F09EBD2D4A2E4B3B
:1045800010881B68984210B549DA2C4A1288141A10
:104590009A42A8BF1A46B4F5157F36DA121A40F2CD
:1045A000532303FB02F393FBF4F105310A2006F0D9
:1045B000B7FB234B1978C9B3224B23491B6840F240
:1045C000271283F3070302FB03F381FB0321194442
:1045D000DB17C3EBA1110531092006F0A1FB1B4B32
:1045E0001968F1B181F3070140F22712164802FB66
:1045F00001F380FB03211944DB17C3EBA111053143
:104600001620BDE8104006F08BBB131A4FF415724C
:10461000611C02FB03F393FBF1F10531C6E70021B6
:10462000C4E71620BDE8104006F07ABB092006F06A
:1046300077FBD4E7329CFF1F789BFF1FDC9DFF1F99
:10464000EF9BFF1FCC9DFF1F09040281989DFF1F58
:104650007F2838B5A8BF7F200F4C4FF4167202FB9D
:1046600000F284FB02311144D2170546C2EBA111BE
:104670000A2006F055FB7F3D4FF4967303FB05F3CC
:1046800084FB03211944DB17A3EBA1110920BDE82A
:10469000384006F045BB00BF09040281024B4E20A2
:1046A000198802F03DBC00BFCC9BFF1F024B442089
:1046B000198802F035BC00BFB09BFF1F024B1020D1
:1046C000198802F02DBC00BF349DFF1F024B2C2027
:1046D000198802F025BC00BFA49BFF1F024B1E20BF
:1046E000198802F01DBC00BFA09BFF1FC3680E20ED
:1046F000198802F015BC00BF024B2820198802F06F
:104700000FBC00BF889DFF1F024B6420198802F078
:1047100007BC00BF849DFF1F024B5A20198802F07E
:10472000FFBB00BF8C9BFF1F024B1620198802F0B5
:10473000F7BB00BF949BFF1F024B2E20198802F08D
:10474000EFBB00BF249CFF1F024B3020198802F0F2
:10475000E7BB00BF809BFF1F024B1820198802F0A7
:10476000DFBB00BF369CFF1F024B1A20198802F0E6
:10477000D7BB00BFD69BFF1F024B1C20198802F03D
:10478000CFBB00BFCE9BFF1F024B6620198802F0F3
:10479000C7BB00BFC49DFF1F024B7220198802F0E7
:1047A000BFBB00BFE09DFF1F024B2020198802F015
:1047B000B7BB00BFC29DFF1F024B3220198802F019
:1047C000AFBB00BFB29DFF1F024B6820198802F0EB
:1047D000A7BB00BF049CFF1F024B6C20198802F08E
:1047E0009FBB00BF7C9BFF1F024B6E20198802F00D
:1047F00097BB00BF049EFF1F024B5220198802F096
:104800008FBB00BF6089FF1F024B5020198802F048
:1048100087BB00BF108AFF1F024B5420198802F08B
:104820007FBB00BF128AFF1F024B5C20198802F079
:1048300077BB00BF608AFF1F024B5E20198802F021
:104840006FBB00BF2C89FF1F024B6020198802F04C
:1048500067BB00BF229DFF1F024B5620198802F044
:104860005FBB00BF169CFF1F38B5094D462420468C
:1048700002F070FB35F8021B00B28842204601D0DE
:1048800002F04EFB0234A4B24E2CF0D138BD00BF72
:104890008C9DFF1F064B074A10B41C88064B084628
:1048A000002C14BF11461946042210BC0AF0A6BA07
:1048B000E89BFF1F80FC000084FC0000064B074AB9
:1048C00010B41C88064B0846002C14BF114619462C
:1048D000042210BC0AF092BA269CFF1F80FC000044
:1048E00084FC0000064B074A10B41C88064B08469F
:1048F000002C14BF11461946042210BC0AF07EBADF
:10490000869DFF1F80FC000084FC0000064B074AC8
:1049100010B41C88064B0846002C14BF11461946DB
:10492000042210BC0AF06ABA7A9DFF1F80FC0000C6
:1049300084FC0000064B074A10B41C88064B08464E
:10494000002C14BF11461946042210BC0AF056BAB6
:104950002A9CFF1F80FC000084FC0000F0B52B4E59
:104960002B4FDFF8C4E005460FCE87B06C460FC46E
:1049700096E803003B68274A274F44F8040B40F6AB
:10498000CC308342C8BF3A46BEF800602180012E79
:1049900011889278ADF80D108DF80F202AD032D3FF
:1049A00040F6CA02022E18BF00229A4226DCA3F665
:1049B00098031A491A4AC3EB031381FB03011944F4
:1049C000DB17C3EB6123243382FB0321DA17C2EB2D
:1049D000A10202EB8201A3EB4103303330328DF8A8
:1049E00013308DF811206946284616220AF006FA7F
:1049F00007B0F0BD40F698029A42D8DD094B18681E
:104A0000CDF81100EFE740F6FC02CEE798FC00007D
:104A10009C9DFF1F8CFC000088FC00003B773B98AE
:104A20006766666690FC0000169DFF1FF8B5174C80
:104A3000174E2278174D33782F888E46003218BFD4
:104A4000012201467046FFF7DDFB002398423370D8
:104A5000237015DB14BF012000202B889F420ED04D
:104A600040F23A72A3F5AF730B490C4C02FB03F30F
:104A700081FB0312DB17A3EB621332332360F8BD13
:104A80000749012218460A702270E6E70C8BFF1FC7
:104A9000219EFF1FD89DFF1FB5814E1B008AFF1F5F
:104AA000A49EFF1F014B187802F0D2B9889EFF1F09
:104AB000014B187802F0E6B92090FF1F134BB3F9B1
:104AC000003030B583EAE374A4EBE374002BA0B2AA
:104AD00018DB012300E0134603EB830252009442EB
:104AE000F9DA0B4D90FBF3F285FB03E403FB1200B4
:104AF000DB173032D3EBA40380B201F8012BF1D1E4
:104B00000B7030BD2D230B700131E2E72090FF1FA9
:104B100067666666144BB3F9003070B583EAE375D7
:104B2000A5EBE375002BACB21ADB012300E00346D2
:104B300003EB830040008542F9DA0C4E94FBF3F05E
:104B400086FB03E503FB1044DB173030D3EBA503F2
:104B5000A4B201F8010BF1D105480B70106070BDD3
:104B60002D230B700131E0E78C9BFF1F67666666A3
:104B7000B0FC0000134BB3F9003030B583EAE374A6
:104B8000A4EBE374002BA0B218DB012300E0134672
:104B900003EB830252009442F9DA0B4D90FBF3F2DF
:104BA00085FB03E403FB1200DB173032D3EBA403D5
:104BB00080B201F8012BF1D10B7030BD2D230B70A9
:104BC0000131E2E76089FF1F67666666134BB3F940
:104BD000003030B583EAE374A4EBE374002BA0B299
:104BE00018DB012300E0134603EB830252009442DA
:104BF000F9DA0B4D90FBF3F285FB03E403FB1200A3
:104C0000DB173032D3EBA40380B201F8012BF1D1D2
:104C10000B7030BD2D230B700131E2E7108AFF1FAE
:104C200067666666134BB3F9003030B583EAE37408
:104C3000A4EBE374002BA0B218DB012300E01346C1
:104C400003EB830252009442F9DA0B4D90FBF3F22E
:104C500085FB03E403FB1200DB173032D3EBA40324
:104C600080B201F8012BF1D10B7030BD2D230B70F8
:104C70000131E2E7128AFF1F67666666134BB3F9DC
:104C8000003030B583EAE374A4EBE374002BA0B2E8
:104C900018DB012300E0134603EB83025200944229
:104CA000F9DA0B4D90FBF3F285FB03E403FB1200F2
:104CB000DB173032D3EBA40380B201F8012BF1D122
:104CC0000B7030BD2D230B700131E2E7608AFF1FAE
:104CD00067666666134BB3F9003030B583EAE37458
:104CE000A4EBE374002BA0B218DB012300E0134611
:104CF00003EB830252009442F9DA0B4D90FBF3F27E
:104D000085FB03E403FB1200DB173032D3EBA40373
:104D100080B201F8012BF1D10B7030BD2D230B7047
:104D20000131E2E72C89FF1F67666666054B1B8829
:104D30001BB9054B186808607047044B1868086079
:104D4000704700BFCC9BFF1FB8FC0000B4FC000004
:104D5000164B1B880BB31BB230B583EAE374A4EB8C
:104D6000E374002BA0B21CDB012300E0134603EB2D
:104D7000830252009442F9DA0D4D90FBF3F285FB69
:104D800003E403FB1200DB173032D3EBA40380B241
:104D900001F8012BF1D10B7030BD064B186808608B
:104DA00070472D230B700131DEE700BFA09BFF1F72
:104DB0006766666684FC0000164B1B880BB31BB24B
:104DC00030B583EAE374A4EBE374002BA0B21CDBE0
:104DD000012300E0134603EB830252009442F9DA08
:104DE0000D4D90FBF3F285FB03E403FB1200DB1790
:104DF0003032D3EBA40380B201F8012BF1D10B7058
:104E000030BD064B1868086070472D230B700131C8
:104E1000DEE700BFB69DFF1F6766666684FC000084
:104E2000164B1B880BB31BB230B583EAE374A4EBBB
:104E3000E374002BA0B21CDB012300E0134603EB5C
:104E4000830252009442F9DA0D4D90FBF3F285FB98
:104E500003E403FB1200DB173032D3EBA40380B270
:104E600001F8012BF1D10B7030BD064B18680860BA
:104E700070472D230B700131DEE700BF949BFF1FAD
:104E800067666666BCFC0000174B1B881BB31BB231
:104E900070B583EAE375A5EBE375002BACB21EDBBE
:104EA000012300E0034603EB830040008542F9DA6A
:104EB0000E4E94FBF3F086FB03E503FB1044DB1777
:104EC0003030D3EBA503A4B201F8010BF1D10848AF
:104ED0000B70106070BD074B1868086070472D2379
:104EE0000B700131DCE700BF249CFF1F676666661C
:104EF00094FC000084FC0000164B1B880BB31BB213
:104F000030B583EAE374A4EBE374002BA0B21CDB9E
:104F1000012300E0134603EB830252009442F9DAC6
:104F20000D4D90FBF3F285FB03E403FB1200DB174E
:104F30003032D3EBA40380B201F8012BF1D10B7016
:104F400030BD064B1868086070472D230B70013187
:104F5000DEE700BF809BFF1F6766666684FC00007B
:104F6000164B1B880BB31BB230B583EAE374A4EB7A
:104F7000E374002BA0B21CDB012300E0134603EB1B
:104F8000830252009442F9DA0D4D90FBF3F285FB57
:104F900003E403FB1200DB173032D3EBA40380B22F
:104FA00001F8012BF1D10B7030BD064B1868086079
:104FB00070472D230B700131DEE700BFC49DFF1F3A
:104FC0006766666684FC0000164B1B880BB31BB239
:104FD00030B583EAE374A4EBE374002BA0B21CDBCE
:104FE000012300E0134603EB830252009442F9DAF6
:104FF0000D4D90FBF3F285FB03E403FB1200DB177E
:105000003032D3EBA40380B201F8012BF1D10B7045
:1050100030BD064B1868086070472D230B700131B6
:10502000DEE700BFE09DFF1F6766666684FC000048
:10503000174B1B881BB31BB270B583EAE375A5EB56
:10504000E375002BACB21EDB012300E0034603EB4B
:10505000830040008542F9DA0E4E94FBF3F086FBA4
:1050600003E503FB1044DB173030D3EBA503A4B2F8
:1050700001F8010BF1D108480B70106070BD074BAF
:105080001868086070472D230B700131DCE700BF02
:10509000C29DFF1F67666666C0FC000084FC0000BE
:1050A000074B1B88022B06D0012B0CBF054B064B70
:1050B000186808607047054B18680860704700BFA3
:1050C000229DFF1FC8FC0000CCFC0000C4FC0000B7
:1050D000054B1B881BB1054B186808607047044BD3
:1050E00018680860704700BF169CFF1FD4FC0000C2
:1050F000D0FC000008B5702001F02CFF044B19888B
:10510000884204D07020BDE8084001F009BF08BD06
:10511000169DFF1F08B5742001F01CFF044B198871
:10512000884204D07420BDE8084001F0F9BE08BDF3
:10513000A89DFF1F38B5FCF789FC0D4B1B7833B9D0
:105140000C4B1020198801F0EBFE012038BD0A4DF0
:105150000A4C2B782288B3FA83F382F008025B09A9
:10516000114642202B70228001F0DAFE002038BD6B
:10517000969BFF1F349DFF1F1A9DFF1FDE9DFF1F83
:10518000184B1A8852B3184A128830B50A80B3F9FE
:105190000030002B83EAE374A4EBE374BCBF2D233F
:1051A0008B70A0B2ACBF02310331012300E0134683
:1051B00003EB830252009442F9DA0C4D90FBF3F2B8
:1051C00085FB03E403FB1200DB173032D3EBA403AF
:1051D00080B201F8012BF1D10B7030BD044B18687F
:1051E00008607047D69BFF1FD8FC000067666666A4
:1051F00084FC000010B40A4B0A4C0A4693E80300F2
:1052000083B0238802AC04E9030004EB8303104657
:1052100053F8081C052203B010BC09F0EFBD00BF15
:105220000CF60000849DFF1F30B40A4B0A4D0C465B
:1052300093E8070084B02B8804AD05E9070005EB6F
:105240008303204653F80C1C042204B030BC09F040
:10525000D5BD00BF14F60000169DFF1FF0B40C4D25
:105260000C4F0E460FCD8CB001AC0FC40FCD0FC448
:1052700095E807003B8884E807000CAA02EB83034B
:10528000304653F82C1C04220CB0F0BC09F0B6BD1B
:1052900020F60000709DFF1FF0B40A4D0A4F0E4625
:1052A0000FCD86B001AC0FC42A683B88226006AAE5
:1052B00002EB8303304653F8141C042206B0F0BC02
:1052C00009F09CBD4CF60000369CFF1FF0B40A4D5F
:1052D0000A4F0E460FCD86B001AC0FC42A683B883A
:1052E000226006AA02EB8303304653F8141C0C22FA
:1052F00006B0F0BC09F082BD60F60000CE9BFF1F37
:10530000F0B40A4D0A4F0E460FCD86B001AC0FC463
:105310002A683B88226006AA02EB8303304653F8D2
:10532000141C042206B0F0BC09F068BD74F600003D
:10533000A89DFF1F164B1B880BB31BB283EAE370BB
:10534000A0EBE370002B30B584B21DDB012300E03D
:10535000134603EB830252009042F9DA0D4894FBA6
:10536000F3F280FB03E503FB1244DB173032D3EB8F
:10537000A503A4B201F8012BF1D10B7030BD084692
:105380000422054909F03ABD2D230B700131DDE7F8
:10539000049CFF1F67666666DCFC0000F0B40A4DE3
:1053A0000A4F0E460FCD86B001AC0FC42A683B8869
:1053B000226006AA02EB8303304653F8141C042231
:1053C00006B0F0BC09F01ABD88F600007C9BFF1FF8
:1053D00070B53C4D2B780646002B35D11C467378B2
:1053E0000BB9204670BDFCF731FB374A374B3848C4
:1053F000127831781B78007802EB43034A1E03EBE6
:1054000080030E2AEDD801A050F822F07554000058
:1054100097540000E353000075540000E35300006C
:10542000E3530000E353000063540000E353000023
:10543000E3530000E3530000E3530000E353000094
:10544000E35300005F540000AE21224803F05AFCF1
:10545000204803F0A7FE00232B700124BFE706F0CD
:105460003DF9AF211B4803F04DFC1B4A012313708B
:105470002B70B6E783B91948038804294FF6FF71EA
:1054800003F1FF320CBF01230B46134403F07F03EB
:10549000013303800FE073B1013B114A32F813303E
:1054A0004BB10E4E0F481049104A3380012300269D
:1054B00006700B701370084A0221012311702B70C3
:1054C000204670BD0C8BFF1FC79DFF1FC09DFF1F97
:1054D000C89DFF1F289EFF1FA49EFF1F489DFF1F02
:1054E000089DFF1FFC9BFF1F979BFF1FB09EFF1F88
:1054F00010B5064B064C1A882046012101F0FEFC2F
:1055000021884220BDE8104001F00ABDE89BFF1F42
:10551000DE9DFF1F10B5064B064C1A88204602215F
:1055200001F0ECFC21884220BDE8104001F0F8BCFD
:10553000269CFF1FDE9DFF1F10B5064B064C1A88E8
:105540002046052101F0DAFC21884220BDE8104008
:1055500001F0E6BC869DFF1FDE9DFF1F10B5064BC8
:10556000064C1A882046002101F0C8FC2188422000
:10557000BDE8104001F0D4BC7A9DFF1FDE9DFF1FE7
:1055800008B5122001F0E6FC054B1988884206D0C8
:10559000122001F0C5FCBDE8084001F0D9BB08BDF0
:1055A000709DFF1F08B5582001F0D4FC054B1988E9
:1055B000884206D0582001F0B3FCBDE8084001F055
:1055C000C7BB08BDB69DFF1F08B5142001F0C2FC83
:1055D000054B1988884206D0142001F0A1FCBDE8D3
:1055E000084001F0B5BB08BD2A9CFF1FF0B480EA5B
:1055F000E075A5EBE0750028ACB21FDB1DBF2B23C7
:105600000B704E1C0E46012300E0134603EB830291
:1056100052009542F9DA0B4F94FBF3F287FB030536
:1056200003FB1244DB173032D3EBA503A4B206F818
:10563000012BF1D133700846F0BC70472D230B705D
:105640004E1CE0E767666666084B188828B10D288F
:1056500007D00D3800B2FFF7C9BF054A10680860CF
:105660007047044A10680860704700BF049EFF1F1F
:1056700084FC0000E0FC0000174B18880C2813D0B5
:10568000192815D01A2817D01B2819D01C281BD070
:105690001D281DD01E2803D00C3800B2FFF7A6BF6E
:1056A0000E4A1068086070470D4A1068086070471D
:1056B0000C4A1068086070470B4A10680860704711
:1056C0000A4A106808607047094A10680860704705
:1056D000084A106808607047B29DFF1FFCFC00007C
:1056E000E4FC0000E8FC0000ECFC0000F0FC000022
:1056F000F4FC0000F8FC0000034B1888A0EB8000CD
:10570000400000B2FFF772BF889EFF1F024B18884F
:10571000033800B2FFF76ABF889DFF1F024B18884D
:105720000C3800B2FFF762BF909BFF1F024B188836
:10573000183800B2FFF75ABFB09BFF1FC368188824
:10574000183800B2FFF752BF30B5134C85B00125B1
:105750002B463C2202212046009503F049FB2046BF
:1057600003F020FD00224021802320460191009378
:1057700011460A4B029504F0C3F9204603F01EFEC1
:1057800007480849084A0023036083800B608B8028
:105790001360938005B030BD289EFF1F28F80000DD
:1057A000149EFF1FA89EFF1F949EFF1F10B500EBC5
:1057B000C00000F10F02D2B293B284B09C1E981CBC
:1057C0003D2303918DE819003921024804F0FCF8CB
:1057D00004B010BD289EFF1F014B01221A707047B4
:1057E000219EFF1FF0B585B0634C644B0293644A61
:1057F000019204230093634E634B644F644D204633
:105800004022802103F0FCF82046624A6249634C42
:1058100008F060FCB761624FF761624FAF61624FA1
:10582000EF61624FA7616248624FE761624F876133
:105830006249634FC761634F8F61634A634FCF61B2
:10584000634F9761634B644FD761644F9F61644EB0
:10585000644FDF61644FB761644D654FF761654F19
:10586000AF61654C654FEF61654F6648A761664F54
:10587000E761664F66498761664FC761664F674A51
:105880008F61674FCF61674F674B9761674FD761F4
:10589000674F684E9F61684FDF61684F684DB76121
:1058A000684FF761684F694CAF61694FEF61694FAD
:1058B000A7616948694FE761694F876169496A4F24
:1058C000C7616A4F8F616A4A6A4FCF616A4F9761B9
:1058D0006A4B6B4FD7616B4F9F616B4E6B4FDF61B4
:1058E0006B4FB7616B4D6C4FF7616C4FAF616C4C98
:1058F0006C4FEF616C4FA7616C486D4FE7616D4F66
:1059000087616D496D4FC7616D4F8F616D4A6E4FF5
:10591000CF616E4F6E4B97616E4FD7616E4F6F4E7A
:105920009F616F4FDF616F4F6F4DB7616F4FF761D1
:105930006F4F704CAF61704F70487149EF61714F9C
:10594000714DA761E561714F714D724CDFF8E8E16F
:10595000714A724B8761C5618C61714EC1F81CE060
:10596000704F714D714C724872499761D5619C615D
:10597000D861B16005B0F0BD289EFF1FA086010070
:10598000801A0600708DFF1F6090FF1F1D570000DA
:10599000A48EFF1F1C89FF1F598A0000148EFF1F51
:1059A000ED4600000D570000F94600009548000044
:1059B000508CFF1FF1540000BD480000048DFF1FF4
:1059C00015550000E54800002490FF1F39550000E0
:1059D000F5510000BC8CFF1F094700000D49000075
:1059E0004C8DFF1F5D550000F9560000288DFF1FEC
:1059F000A54A0000BD4A0000808EFF1FB14A00008A
:105A000029520000088CFF1FF55000005D52000075
:105A10000C8FFF1F81550000B94D0000988CFF1FAF
:105A2000A5550000154B0000C48BFF1F194700004F
:105A300035490000788FFF1FC9550000214E000036
:105A4000748CFF1F29470000894E0000948DFF1FB2
:105A500039470000F94E0000348BFF1F4947000012
:105A600099520000E08CFF1F59470000815100004F
:105A70005C8EFF1F69470000CD520000FC8FFF1FA6
:105A800079470000614F0000F08DFF1F894700003B
:105A9000C94F0000588BFF1F9947000001530000B9
:105AA000308FFF1F1551000031500000388EFF1F4E
:105AB000A9470000795600007C8BFF1FB947000002
:105AC00035530000108BFF1FC94700009D53000095
:105AD0007C8AFF1FD947000049560000CC8FFF1F6A
