:1000000000800020BD01000069E8000021E8000038
:1000100021E8000021E8000021E8000021E80000BC
:1000200021E8000021E8000021E8000069E8000064
:1000300069E8000021E8000061120100651201007A
:1000400069E8000069E8000069E8000069E800006C
:1000500069E8000069E8000069E8000069E800005C
:1000600069E8000069E8000069E8000069E800004C
:1000700069E8000069E8000069E8000069E800003C
:1000800069E8000069E8000069E8000069E800002C
:1000900069E8000069E8000069E8000069E800001C
:1000A000F9BE000005BF000069E8000069E8000033
:1000B00069E8000069E8000069E8000069E80000FC
:1000C00069E8000069E8000069E8000069E80000EC
:1000D00069E8000069E8000069E8000069E80000DC
:1000E00069E8000069E8000069E8000069E80000CC
:1000F00069E8000069E8000069E80000B1F6000066
:1001000069E8000035FC000069E8000069E80000CB
:1001100069E8000069E8000069E8000069E800009B
:1001200069E8000069E8000069E8000069E800008B
:1001300069E8000069E8000069E8000069E800007B
:1001400069E8000069E8000069E8000069E800006B
:100150001116010025160100391601004D16010087
:1001600069E8000051FF000069E8000069E800004C
:1001700069E8000069E8000069E8000069E800003B
:1001800069E8000069E8000069E8000069E800002B
:1001900069E8000069E8000069E8000069E800001B
:1001A00069E8000069E8000069E8000069E800000B
:1001B00069E8000069E8000069E80000564B4CF26D
:1001C000205210B51A804DF628121A8000BF00BFC9
:1001D0000EF04EFB514B4FF010621A60504A9A607D
:1001E000504ADA60504A136813F4807304D14F49BF
:1001F0000B604FF4A85313604D4B1A78110703D5C9
:100200001A7842F008021A704A4B4B492A221A7097
:100210004A4A4B4B8B4204D252F8040F43F8040B6A
:10022000F8E7484B484900228B4202D243F8042B9E
:10023000FAE74649464A002352F8230041F82300D2
:1002400001336F2BF8D1434B434A802103F8011B44
:100250009342FBD1414B3D4A1A60414B8A221A70AE
:10026000A3F5805324225A70A0221A709A7992071B
:10027000FCD59A79D406FCD43A4A937903F00C035E
:10028000082B384BF9D103221A7140225A719A79FE
:100290009006FCD5334A9179324B4906FBD5324A58
:1002A000324911600221516020221A709A7902F0BD
:1002B0000C020C2AFAD12E4B2E4A1A602E4B2F4AD2
:1002C0001A6000225A60072243F8042C2C4AC3F813
:1002D0000C2D62B60EF056FE144B1B68DA0705D5DE
:1002E00028480EF023FC284B284A1A60284B1B781C
:1002F0005B0609D5244C254B22689A4204D121483B
:100300000EF014FC0023236012F00EFD0EF0B6FA7E
:1003100011F014FAFEE700BF0E20054030800440C3
:10032000823F04000100002B10D0034014D0034092
:1003300002D0074000E00740249DFF1F7C6B0100B6
:100340004088FF1F249DFF1FF4A4FF1F0082FF1F92
:100350000000000000E400E05FE400E008ED00E0E1
:100360000050064000400640448004400000030165
:1003700004800440C010050014E000E0FF76010096
:10038000000020207B227E631CE00340A5C3945A1A
:1003900000F00740FFFFFFFFFFFFFFFFFFFFFFFF32
:1003A000FFFFFFFFFFFFFFFFFFFFFFFFFFFFFFFF5D
:1003B000FFFFFFFFFFFFFFFFFFFFFFFFFFFFFFFF4D
:1003C000FFFFFFFFFFFFFFFFFFFFFFFFFFFFFFFF3D
:1003D000FFFFFFFFFFFFFFFFFFFFFFFFFFFFFFFF2D
:1003E000FFFFFFFFFFFFFFFFFFFFFFFFFFFFFFFF1D
:1003F000FFFFFFFFFFFFFFFFFFFFFFFFFFFFFFFF0D
:10040000FFFFFFFFFFFFFFFFFFFFFFFFDEF9FFFF23
:1004100010B5054C237833B9044B13B10448AFF33E
:1004200000800123237010BD249DFF1F00000000E9
:10043000786B0100084B10B51BB108490848AFF3B1
:1004400000800848036803B910BD074B002BFBD0A0
:10045000BDE81040184700BF00000000289DFF1FA6
:10046000786B0100249DFF1F0000000038B5044692
:10047000104621700A491D4612F03EFA01464FF01F
:100480007E5012F0EDFA074912F036FAE56060602E
:10049000256165610EF006FDE061204638BD00BFB4
:1004A000DB0FC9400024744938B50446104621705A
:1004B00009491D4612F020FA01464FF07E5012F015
:1004C000CFFA064912F018FAE560606025616561AF
:1004D0000EF0E8FCE06138BDDB0FC9400024744930
:1004E00038B503780446032B20D8DFE803F01A1848
:1004F0001002C168406912F0F5F80D4905466068C0
:1005000012F0AEFA0146284612F0AAFA38BD0849A0
:10051000406812F0A5FAE16812F0EEF938BDC06843
:1005200038BDC168406912F0DDF838BD002038BD23
:100530000024744970B504460E460EF0B3FC05461F
:10054000E069281A12F084F9E3682361E5616661C5
:10055000A0610146606812F083FA0146A06010486D
:1005600012F07EFA11F054FD11F0EEF912F066F877
:10057000054601464FF07E5012F0B4F8616912F062
:10058000BBF921690646284612F0B6F90146304605
:1005900012F0AAF8E0602046BDE87040FFF7A0BF67
:1005A000000080BF38B50E201C4C0EF013F82188D7
:1005B0001B4B884205461A881DDA0023511AB1F5F3
:1005C000805FAABF1B03C3EB03330131142093FBED
:1005D000F1F10EF0BDFA134B1988F1B923889D4251
:1005E00010DAC3F57F630F33282091FBF3F1BDE8E8
:1005F00038400EF0ADBA9042D4BFC1EB0003C1EB5E
:100600000203DBE740F6FF718D42D4BFC3EB050167
:10061000C3EB0101C1EB0131E3E738BD389EFF1F99
:100620005C9DFF1FA09FFF1F10B5044610F0CEFF7A
:10063000204610BD70B44C88A04220D9012301335C
:10064000DBB21CB2660031F8144084421D46F6D37A
:10065000A04211D005F10045013D965B31F815101F
:1006600032F81530401AF21A00FB02F0641A90FBBF
:10067000F4F4E01870BC7047905B70BC70470226C1
:100680000125E5E700280CDA064A434282FB0320F5
:10069000DA17C2EB600000EB4000A3EB8000C0F172
:1006A0000C007047ABAAAA2A38B5234B1B78002B45
:1006B0002CD015200DF08EFF204B1860204B1B888E
:1006C000984203DA1F4C237863BB38BD1E4A148856
:1006D000A042A4EB0302A8BF20467F2A1CDDC01A5B
:1006E000C001541C90FBF4F4002CEBD0154B1A788D
:1006F0000AB901221A70154D2B689C4204D0144B84
:10070000E1B2187809F084FC2C6038BD11200FF09C
:10071000FDFA0A4B1860D1E7C01AC0EBC01090FB7D
:10072000F2F4E1E70A4B0021187809F071FC00238C
:10073000064A2370136038BD549FFF1F549DFF1F4E
:10074000DC9DFF1F30A0FF1FCC9FFF1F28A0FF1FB5
:10075000B09DFF1F38B50F200FF0D8FA1B4A1C4B75
:1007600012881860C0F53B600830904220DB194BBE
:100770001B889842A3EB0204A8BF1846801A7F2C5E
:10078000C6BFC0010134C0EBC01090FBF4F47CB1D3
:10079000114B1A780AB901221A70104D2B689C422D
:1007A00004D00F4BE1B2187809F032FC2C6038BD50
:1007B000094C237803B938BD094B0021187809F09A
:1007C00027FC0023054A2370136038BD3C9EFF1FA1
:1007D000709DFF1FB89FFF1FDC9FFF1FEC9DFF1F39
:1007E000D29DFF1FF0B40E8886420DD203F1004364
:1007F000013B31F81350854202D9F0BCFFF71ABF14
:1008000032F81300F0BC70471088F0BC704700BF8E
:10081000094B1B880C2B09D8084A80B252F82320B8
:1008200028B143F6FE73984203D9108C70471088A4
:1008300070470349FFF7FEBE869DFF1F644301001A
:10084000004501004B4B4C4A2DE9F0471E881468C7
:100850004A4BB442B3F80080494B33DB4445A8BF50
:100860004446A6421C60C8BF00202DDDC6EB080729
:10087000B7F5804F33DB80037B1C90FBF3F0FFF771
:10088000C7FF404A404B15881B88C0F3C61909FBB7
:1008900005F57F2D8246A8BF7F252BB3A64253DCEA
:1008A0004445D4BFC6EB0404C6EB08049F42CCBF4A
:1008B00003FB04445C43354BC8BF013794FBF7F797
:1008C0001F6013E034461E60C6EB0807A045D4BF86
:1008D000C6EB0800C6EB0400B7F5804FCBDAC0EBDF
:1008E000803090FBF7F0CAE7284A1360284C236851
:1008F000994508D0274B1B88002B34D1264B1B88E9
:100900006BBBC4F80090254C23689A4506D0214B58
:100910001B885A1F032A19D9C4F800A0204C236849
:100920009D420FD01F4B188848B11A4B1E4A1B8896
:10093000D35C834203D0C0B2E9B209F069FB256001
:10094000BDE8F087BDE8F0870024AFE7164AD05C29
:100950002030C0B20AF07F0109F05AFBDCE74846BC
:1009600009F0F6FBCDE7104A4946D05C09F050FB90
:10097000C4E700BF389EFF1F9C9FFF1F5C9DFF1FA9
:10098000489DFF1F5E9DFF1F609DFF1F04A0FF1F6E
:10099000CC9DFF1F849FFF1F2A9EFF1F809DFF1F6E
:1009A0002C9EFF1F929FFF1F288AFF1F2DE9F04FEB
:1009B00001208BB00FF0AAF9DFF850B3CBF800009C
:1009C00000200FF0A3F9B34BB34A1B8810600C2B27
:1009D00000F00582B14A00211F2B117037D0B04FB3
:1009E000B04B3A88B04E53F8225000233370AF4BCF
:1009F000AF4A1B88AF491288013B012A31F91330F5
:100A0000059300F00682AC4B0193AC4B0293DFF8E8
:100A10000083DFF8009300230093A94B1B88012B70
:100A200000F04D82DFF8F0A2A64B0393DAF8004005
:100A3000A54B04930023A54A1288013A032A00F229
:100A40008682DFE812F00101DC0011007101A04B89
:100A5000934F1B783988934A934E52F821500033B4
:100A600018BF01233370C2E72046059311F0F0FE52
:100A7000984911F041FF059B0446184611F0E8FE25
:100A8000954911F039FF0146204611F02DFE12F074
:100A9000F9F80446CAF80040D8F8000011F0D8FE72
:100AA0008C4911F029FF8246009811F0D1FE8A4945
:100AB00011F022FF0146504611F016FE12F0E2F846
:100AC000C8F80000854A864BB2F800E01988854BCB
:100AD000DBF800201B88DFF844C2CEEB040804EBEF
:100AE0000E0AC1EB000E08440499039CC1F800A053
:100AF0000199C4F80080C1F800E002999A420860A8
:100B0000BCF8001080F25281C3EB010C62486545CD
:100B10004FF0000E006880F256816C1C83420CF18D
:100B2000010C0EFB04FE9EFBFCFE00F3928381424F
:100B3000A8BF0146C91A04FB01F191FBFCF19A42DE
:100B400000F317818342C0F21481DFF8D4A1DAF8F0
:100B5000000011F07DFE644911F0CEFE634911F0F2
:100B6000C3FD12F08FF8A0F5FF531C3B082B98BF74
:100B70004FF40050D9F80040DFF8A881044443F650
:100B8000FF77BC42A8BF3C4624EAE4742046CAF87A
:100B9000004011F05DFE8146307805FB00F011F059
:100BA00057FE4FF07A5111F0A7FE0146484611F06A
:100BB00099FD12F067F84E4BB842A8BF38461B7833
:100BC00020EAE070C8F80000002B00F0E380B4F5E4
:100BD000005F00F0DF8006F0C5F9464BD8F8000052
:100BE00001221A70444C2368834205D080B209F078
:100BF000DFF9D8F8003023600BB0BDE8F08F204655
:100C0000059311F025FE3D4911F076FE059B044643
:100C1000184611F01DFE3A4911F06EFE01462046BD
:100C200011F062FD12F02EF80446CAF80040D8F820
:100C3000000011F00DFE314911F05EFE8246009871
:100C400011F006FE2E4933E72046059311F000FE11
:100C50002C4911F051FE059B0446184611F0F8FD91
:100C6000294911F049FE0146204611F03DFD12F0E0
:100C700009F80446CAF80040D8F8000011F0E8FD71
:100C8000204911F039FE8246009811F0E1FD1E491D
:100C90000EE700BFCE9FFF1F7C9DFF1F4E9DFF1FD5
:100CA000C09DFF1FE489FF1FB29FFF1F3689FF1FF2
:100CB000A29FFF1F9C4801002CA0FF1FFC9DFF1F4F
:100CC000349FFF1FC09FFF1F389FFF1F7889FF1FA2
:100CD0006C9DFF1FCDCC4C3FCDCC4C3E348AFF1FCA
:100CE0007089FF1F989FFF1F9A99193FCDCC4C45E3
:100CF000F2A0FF1F289EFF1F3889FF1F6666663F10
:100D0000CDCCCC3D3333733FCDCC4C3DB89DFF1F94
:100D1000409DFF1FD89FFF1FBC9FFF1F9C9DFF1F73
:100D20001C8AFF1F7489FF1F2046059311F090FD58
:100D3000C54911F0E1FD059B0446184611F088FDF8
:100D4000C24911F0D9FD0146204611F0CDFC11F049
:100D500099FF0446CAF80040D8F8000011F078FD69
:100D6000B94911F0C9FD8246009811F071FDB749EB
:100D70009EE63B88002B3FF4E8AEC1EB0E03002B50
:100D8000B8BF5B42092B00F3E5804FF40050DFF859
:100D900008A3EFE6AE4C2378002B3FF423AF06F018
:100DA000DDF80023D8F8000023701BE7C3EB010C2B
:100DB000A8488A42D4BFC3EB020EC3EB010E6545BF
:100DC0000068FFF6AAAE83420EFB05FEC8BF0024F2
:100DD0009EFBFCFE40F3348294FBFCF1AFE69E4B9D
:100DE0001B78002B00F0D5809C4F9D4B39889D4A85
:100DF00053F821009C4E012100231170337011F033
:100E000027FD4FF07C5111F077FD11F03BFF0546B7
:100E1000EDE5964B964A1B8896491278013B31F9CD
:100E20001340002A40F0B08011200EF06FFF0090B8
:100E3000914B0193D3F80090009B994540F3AC800F
:100E40008E4BDFF858821B888D4A012BD8F8003072
:100E5000B2F800A08B4A02922846A3EB040400F0EB
:100E6000CE8011F0F5FC029A52F82A1011F044FDE0
:100E70000146002011F036FC11F004FF009BC9EB85
:100E800004029C42B8BF1C469042C9EB040480F2A5
:100E9000CA8000FB0444013294FBF2F47A4BDFF881
:100EA00000920293D9F80030234403EBD3735B1014
:100EB000C9F80030754B1B88012B7FF4B3AD744B20
:100EC00003931C460F200EF021FF226804929042EB
:100ED000034680F2E980694A1288012A00F02E81D7
:100EE000674A07901288674C0692284611F0B0FCBA
:100EF000069ADFF8B0A154F82210DAF8004011F099
:100F0000FBFC0146002011F0EDFB059BE21A059267
:100F100011F0B8FE059A079B04999A42C1EB020EA4
:100F2000B8BF1A46704580F23381521A00FB022284
:100F30000EF1010192FBF1F2D9F80010554804902E
:100F40000A4402EBD2725210C9F8002073E5D8F8B7
:100F50000000B7E50EF500500130401A11F078FCA2
:100F60003A49DFF834A111F0C7FC0446DAF8000072
:100F700011F06EFC344911F0BFFC0146204611F01F
:100F8000B3FB11F07FFEF5E515200DF023FB00907B
:100F90004EE7344A137022E53B4B0293D3F800909E
:100FA000009B994544DA354BDFF8F0801B88344AC2
:100FB000012BD8F80030B2F800A0324A039228463C
:100FC0001C4400F0EC8011F043FC039A52F82A1004
:100FD00011F092FC11F056FE009B9C42C9EB0402FA
:100FE000A8BF1C46C9EB04049042BABF00FB0444EE
:100FF0000132444394FBF2F4DFF8A49052E711F07D
:1010000027FC029A52F82A1011F076FC11F03AFEF1
:10101000009BC9EB04029C42B8BF1C468242C9EB4C
:1010200004043FF736AF00FB04F494FBF2F435E719
:10103000DFF86C90DFF86480D9F8003003EBD373ED
:101040005B10C9F80030E8E49A99193FCDCCCC3E4A
:10105000289EFF1F7C9DFF1F6C9DFF1FC09DFF1FD3
:10106000E489FF1F4E9DFF1FB29FFF1F808AFF1F55
:10107000549FFF1FB84401002CA0FF1F0E9EFF1FAE
:10108000A49DFF1FB4480100FC9DFF1F349FFF1F5C
:10109000C09FFF1F389FFF1F1C8AFF1F409DFF1F1F
:1010A000D89FFF1FBC9FFF1F6B4A049212680692D5
:1010B000904237DD694A1288012A00F08E80684A22
:1010C00009901188674A08912846079211F0C0FBE1
:1010D000079A0899DFF890A152F82110DAF8004039
:1010E00011F00AFC059B2344059311F0CBFD0599F3
:1010F000099B069A9942C2EB010EA8BF194670459A
:1011000080F29080891A00FB01110EF1010291FB1F
:10111000F2F2D9F800100A4402EBD2725210C9F868
:10112000002088E4D9F80020DFF83CA102EBD2725D
:101130005210DAF80040C9F800207CE4484A0890D0
:101140001188484A07912846069211F081FB069AB9
:101150000799DFF814A152F82110DAF8004011F0D5
:10116000CBFB059BE11A059111F08CFD0599089BBD
:10117000049A9942C2EB010EB8BF1946704558DA7D
:10118000891A00FB01110EF1010291FBF2F2D3E684
:101190000499521A00FB02F292FBFEF2CCE611F027
:1011A00057FB039A52F82A1011F0A6FB01460020C3
:1011B00011F098FA11F066FD009A9442C9EB04030D
:1011C000A8BF1446C9EB04049842BABF00FB04440C
:1011D0000133444394FBF3F40EE72149214A08907C
:1011E00028460C88079211F033FB079ADFF878A0A5
:1011F00052F82410DAF8004011F07EFB014600207E
:1012000011F070FA059B2344059311F03BFD0599FD
:10121000089B069A9942C2EB010EA8BF1946704579
:10122000FFF670AF069A891A00FB01F191FBFEF2FE
:101230006FE7049A891A00FB01F191FBFEF27BE64D
:101240008842D4BFC3EB0004C3EB010405FB04F4E4
:10125000C2E519466EE400BF389FFF1F0E9EFF1FB8
:10126000A49DFF1FB4480100BC9FFF1F08B5244B7D
:101270001B88FBB1234B1B78FBB1234B1B78E3B1DD
:10128000224B1B78CBB1224B1B78B3B1214B2248A8
:101290001A78C2B9214A2249008812880968024492
:1012A000B1EB620F09DD01221A706420BDE808402D
:1012B00005F06CBE174A117801B908BD1370BDE87E
:1012C000084008F019BF154A1649008812880968B5
:1012D0000244B1EB620FF0DD00221A7008F00CFF3F
:1012E000642005F053FE642005F050FE642005F0F4
:1012F0004DFE4FF41670BDE808400DF0F5BD00BF7F
:10130000469FFF1FFD9FFF1FFE9FFF1FFF9FFF1FA9
:1013100000A0FF1F849DFF1F9C9DFF1F989FFF1F24
:10132000B89DFF1F7C9DFF1F38B5114C23202578E9
:101330000DF050F90F4A42F82500131F02F1C400C6
:10134000002253F8041F83420A44FAD123780A4941
:1013500007480A4C0133DBB2322B81FB025108BF34
:101360000023D217C2EB21120370226038BD00BFE8
:10137000629DFF1F489EFF1F1F85EB51949FFF1F1B
:101380002DE9F04FB74DB84E2868B84C83B011F036
:101390005FFAB74911F0B0FA074610200EF0B6FC1C
:1013A00011F056FAB34911F0A7FA394611F09CF939
:1013B00011F068FC31882860884223887EDA1F4655
:1013C00000225B1ADFF8D482DFF8D4E27F2BCABF99
:1013D000D201C2EBC212013392FBF3F3B8F8002042
:1013E000CEF80030192A00F0DF801A2A00F02B8195
:1013F0001E2A00F05B814FF00108C1469E4B1B88FE
:10140000002B66D09D4A1288032A00F20981884287
:10141000C0F25F81B842D4BFC1EB0000C1EB07004E
:10142000791A8B42B4BF03FB00005843944F954B8D
:10143000B8BF013190FBF1F01860388800284FD018
:101440003188D5F800E0884ADFF818A2714500F32A
:101450008280DFF83CC29CF80030002B4CD14FF06A
:10146000010B04288CF800B046D1B8F1000F40F011
:10147000CB81854B1888F0B1B9F1000F1BD02B68D8
:10148000318822888B4280F29C810023541A7E2C62
:101490007E4DD5BFC3EB8313C3EBC3135B00013495
:1014A00093FBF4F42B680134A34203D0C0B2E1B241
:1014B00008F0AEFD2C6003B0BDE8F08F9842D4BFB9
:1014C000C1EB0002C1EB03021F467AE799464FF0D9
:1014D00001081E2A00F0D281694F38880028AFD158
:1014E000694B1B88002BABD1694A11780029E2D0E7
:1014F000137003B0BDE8F08F012800F012810228BC
:1015000000F003810328B4D1624B1B88092BB0D0B3
:10151000B8F1000FADD02B6837882288BB4280F22B
:1015200095810023D71B7E2FDFF86CB1D5BFC3EBAD
:101530008313C3EBC3135B00013793FBF7F7DBF8AF
:1015400000300137BB4203D0F9B24A2008F060FDF9
:10155000CBF800708DE74E4B1A78002AABD00024F0
:1015600001281C7000F0C280022840F03181B8F1DF
:10157000000F00F0C280484D2B68002B00F0BD80AA
:101580000420214608F044FD3F4B2C6018880028B9
:1015900091D0B9F1000F8ED0C0B2002108F038FD13
:1015A0003A4B00221A6086E7DFF8F8A0DFF8F890DF
:1015B0009AF80030BBB1DFF8D0E0BEF800E0BEF131
:1015C000000F10D099F800C09C4500F099805FFA98
:1015D0008EF07F2108F01CFD9AF80030B8F800204A
:1015E00089F800300FE099F800E09E4500F088800F
:1015F000254B0021187808F00BFD9AF80030B8F858
:10160000002089F800301C4B1B88002B3FF45EAF94
:101610001E2A40F02B814FF001084FF0000951E0E5
:10162000884258DBB842A1EB0701A8BF38468B427D
:10163000A0EB070055DA03FB00004B1C90FBF3F313
:10164000104A136048E7DFF85CA09AF80030002BDE
:101650000BBF4FF001084FF000084FF000094FF0AA
:101660000109CBE6AC9DFF1F4C9FFF1F489FFF1F4A
:101670009A99193FCDCCCC3E08A0FF1FC49FFF1FF5
:10168000B49DFF1F409EFF1FE09FFF1F909DFF1F07
:10169000D39FFF1F849FFF1F449EFF1FCE9FFF1FEE
:1016A000B49FFF1F6C9DFF1F689DFF1FDFF8E8A11F
:1016B000744B9AF800801B88B8FA88F84FEA5818DB
:1016C0004FF000099AF8002042B328683188278833
:1016D00098E60020A4E60846C91B8B42A0EB070051
:1016E000A9DB03FB00F393FBF1F3A9E7B8F1000FCB
:1016F00003D0654D2B68002B7FD1644B188846E7DB
:101700004FF001084FF0000978E6B8F1000F3FF400
:10171000B0AEDFF874B1DBF8003030E05C4B1A603B
:10172000DAE6B8F1000F3FF4A4AEB4F800A0F24539
:10173000D4BFC1EB0A03C1EB0E03C1EB0A0ABAF135
:101740007E0FDFF844B1D5BFC3EB8313C3EBC313E4
:101750005B000AF1010A93FBFAFADBF800300AF1A8
:10176000010A534504D05FFA8AF1012008F050FCC9
:101770003888CBF800A002287FF4C4AE53462A680C
:10178000B6F800A02188524559DA0022CAEB010AB6
:10179000BAF17E0FD3BFC2EB8212C2EBC2120AF1C2
:1017A000010A520092FBFAFA0AF1010A9A4504D0A2
:1017B0005FFA8AF1042008F02BFC3888CBF800A0EF
:1017C000A0E69342D4BFC1EB0303C1EB02035DE685
:1017D000032828D12F4B1B88092B8ED0B8F1000F7E
:1017E0008BD0294D2B68002B87D04A20214608F04A
:1017F0000FFC264B2C601888C9E6214608F008FC2F
:10180000224B2C601888C2E640207F218DE80C0016
:1018100008F0FEFB388858459DE80C001DD00228D2
:101820007FF470AE75E704287FF467AFB8F1000F5E
:101830003FF463AF2146402008F0EAFB5DE78A42AF
:10184000D4BFCAEB0202CAEB01029FE79342D4BFA6
:10185000C7EB0303C7EB020364E6DAF800E0118884
:10186000B4F800A08E45FFF668AF60E728683188BD
:1018700027884FF001084FF00009C3E50023DFF887
:1018800018A01FE708A0FF1F449EFF1FE09FFF1F37
:10189000409EFF1F849FFF1F6C9DFF1F08B5114BCB
:1018A0001B88022B09D0052B07D0032B15D0042B46
:1018B0000BD00D4B01221A7008BD7F21412008F08A
:1018C000A7FB094B01221A7008BD7F21092008F0EF
:1018D0009FFB054B01221A7008BD4021092008F02A
:1018E00097FBE6E73E9EFF1FE19DFF1F38B5074BC4
:1018F000074D1B88052B044606D02B68834203D076
:10190000C1B2052008F084FB2C6038BD3E9EFF1F4D
:10191000E89FFF1F38B5124D124C2B88052B12D0B3
:1019200022684AB9022B0ED0033B012B13D90E4A71
:1019300000231370236038BD0021052008F068FBE8
:101940002B88022B04D10021412008F061FBEEE737
:10195000052BE9D1F7E70021092008F059FBE6E75C
:101960003E9EFF1FE89FFF1FE19DFF1F464B1B8808
:101970001D2B70B541D0454D0024454B1B88022BD3
:1019800016D0444B1B88022B54D02888424B002C85
:101990001B780ADB8442A8BF044634B1002B3AD03E
:1019A0002046BDE87040FFF7A1BF002B2FD170BDCE
:1019B0003A4B1B78002B37D015200CF00BFE384B20
:1019C0001860384A1288002ADBD0374A1868118814
:1019D0008142D6DC354B2A881B888342A3EB010663
:1019E000A8BF03465B1AB242BABF02FB03330136FB
:1019F000534393FBF6F31C44C3E72A4B1C888CB17A
:101A00002B4B224D1C78002CB7D02C88B5E7BDE8B5
:101A10007040FFF77FBFFFF741FF2046BDE87040F1
:101A2000FFF764BF194DA8E711200EF06FF91C4BAA
:101A30001860C6E70F200EF069F91A4B1D4A1B8883
:101A40001060002BA1D01C4AC0F53B6311880833FD
:101A50008B429ADB194A288812889342A2EB01052F
:101A6000A8BF1346A842A3EB010306DA00FB033329
:101A7000013593FBF5F31C4488E700FB03F292FB6E
:101A8000F5F31C4482E700BFCE9FFF1FD49FFF1FCA
:101A9000A29FFF1F349FFF1FE19DFF1F549FFF1F49
:101AA000549DFF1F3E9EFF1FDC9DFF1FCC9FFF1F0D
:101AB0006C9DFF1F709DFF1F3C9EFF1FB89FFF1F67
:101AC000F8B510200EF022F9C830B0F5FA7FC0F258
:101AD0009680B0F57A6F0146A8BF4FF47A6101F5A0
:101AE0001673B3F57A6FA8BF4FF47A639BB289B2CD
:101AF000914A924C11802220238008F00BFC21880F
:101B00008F4D904C242008F005FC0E200CF062FD57
:101B100040F6FF71C8308842A8BF084620EAE0704E
:101B200000F2DC5283B28A42A8BF0A46022019465C
:101B300022802B8008F0EEFB2188042008F0EAFBCD
:101B400001200EF0E3F8044600200EF0DFF8A0427A
:101B5000B8BF204600F1C801B1F5FA7FC0F2D180CC
:101B6000B1F57A6FA8BF4FF47A6101F54873B3F508
:101B70007A6FA8BF4FF47A639BB289B2724A734CF2
:101B800011800A20238008F0C5FB21880C2008F072
:101B9000C1FB0F200EF0BAF8C0F53F610431B1F57A
:101BA000AF6FC0F2AB80B1F5FA6FA8BF4FF4FA6126
:101BB00089B2674BC0F54360B0F5AF6F1980C0F2D2
:101BC0009A80B0F5FA6FA8BF4FF4FA6083B2614C07
:101BD000A420238008F09EFB2188A62008F09AFB11
:101BE00015200CF0F7FC00F59671B1F52F7F0BDB9B
:101BF00041F25C23994240F38980194608E040F2A3
:101C00004C434FF4FA7173E740F214534FF42F71C1
:101C1000514A1180514C524D2380062008F07AFB26
:101C20002188504E082008F075FB00274FF4AF7450
:101C3000F9B24D480AF096F955F8043BC3F596738E
:101C400000FB03F086FB0023C017C0EB6310844247
:101C500007F10107A8BF0446062FE9D1434F414EC3
:101C60000025E9B242480AF07DF957F8043BC3F574
:101C7000967300FB03F086FB0023C017C0EB6310D4
:101C8000844205F10105A8BF04460C2DE9D1394F66
:101C9000344E0025E9B238480AF064F957F8043B9D
:101CA000304AC3F5967300FB03F086FB0013C017A0
:101CB000C0EB6310844205F10105A8BF04460C2D5A
:101CC000E8D1A4F11401312931DD40F23A73A4F5D1
:101CD000B97403FB04F482FB0432E417A4EB621230
:101CE00089B232322548264B01801A602A20BDE88D
:101CF000F84008F00FBB4FF4AF6368E74FF4AF61F3
:101D000057E740F214534FF4FA7137E7124A00F5DF
:101D1000617089B2B0F52F7F1180B8BF4FF42F7377
:101D2000FFF678AF8342A8BF03469BB272E740F24A
:101D30006C723221D6E700BF4C9FFF1F489FFF1FE8
:101D4000389EFF1F5C9DFF1F989FFF1F9C9DFF1FDC
:101D50003C9EFF1FB89FFF1FDC9DFF1FCC9FFF1FF6
:101D6000688AFF1FB5814E1B889DFF1F388AFF1FA1
:101D7000BC9DFF1F4089FF1F309EFF1FFA9FFF1F62
:101D8000248AFF1F2DE9F04F0C2083B00CF0EEFBEE
:101D90000C200CF0DBFFC949DFF8A8A314200CF0DD
:101DA000E5FFC749C74809F0ADFD022103200DF04A
:101DB00073F8022104200DF06FF8022105200DF0C8
:101DC0006BF8022106200DF067F801210A200DF0C2
:101DD00063F8012109200DF05FF801210D200DF0BD
:101DE0005BF8012128200DF057F8012114200DF097
:101DF00053F8012116200DF04FF8012117200DF0A6
:101E00004BF8012121200DF047F802211C200DF094
:101E100043F801211B200DF03FF800211B200DF09D
:101E200027F81C200DF02AF8B0FA80F35B091A207D
:101E30008AF800300DF070FA1F2000210DF032FA00
:101E400004200DF01BF8002800F0878105200DF01C
:101E500015F8002800F0B28100239B4C0620237067
:101E60000DF00CF8B0FA80F35B094FF0000B974AC5
:101E7000137006F0A5FD2478002C40F069815846C7
:101E800008F072FA924B934A1B88934812880270AA
:101E90009249934D40F23A72A3F5AF7302FB03F3FC
:101EA00081FB0312DB17A3EB6213323301210D20F8
:101EB0002B600CF0DDFF64200DF016F806254FF4C2
:101EC00016710A200CF044FE00950C237D4A8548CB
:101ED0005D210AF0AFF8002800F0AD8164200DF01C
:101EE00003F821460A200CF033FE4FF496710920C6
:101EF0000CF02EFE00950C23724A7B485C210AF000
:101F000099F8002800F0848164200CF0EDFF214650
:101F100009200CF01DFE4FF4967116200CF018FEEF
:101F200000950C23674A71485B210AF083F800286A
:101F300000F04B8164200CF0D7FF214616200CF0F6
:101F400007FE4FF4967117200CF002FE64200CF08F
:101F5000CBFF214617200CF0FBFD64200CF0C4FFE2
:101F600021460D200CF084FF614A62481268DFF8B8
:101F7000D891614F614D624EDFF8D081002301217D
:101F8000FEF792FA01233C602C60346089F800303F
:101F900004240F200DF0BAFE336803440E20336092
:101FA0000CF018FB3B6899F8002018443860002AB0
:101FB0007DD015200CF00EFB2B681844286004F02F
:101FC000010080F0010004F0D1FFB8F80030002BD0
:101FD00014BF4B20DC200CF087FF013CD9D13368C3
:101FE0003968454A2868474F002BB8BF033300299A
:101FF000B8BF0331891011604349444A09881488E5
:102000009B1000283360B8BF0330414E8210581A2D
:1020100019442A60316038603E4D3F483F49161BE5
:1020200022442E6002600B60BBF1000F40F0AE80D6
:10203000B8F80030002B00F09C80394B01240420BC
:102040001C600CF01BFF18B9364B234A1C70107033
:10205000354B1B881C2B00F0A180344C04F1C805C3
:1020600023200CF0B7FA44F8040F01200CF03CFFD9
:10207000A542F5D19AF8003023B12D4B1B78002BE7
:1020800040F09780002121200CF0F2FE294A2A4BD3
:102090001078187008F004F904F060FF2749284808
:1020A00045F6BF5203B0BDE8F04F0FF045BA11201E
:1020B0000DF02CFE2B681844286080E7001B374683
:1020C00040420F000092FF1F8D9DFF1F3C9FFF1F8E
:1020D000FA9FFF1F0CA0FF1FF89DFF1FB5814E1B2D
:1020E000248AFF1F889DFF1F309EFF1FBC9DFF1F7E
:1020F0003C89FF1F609FFF1F589DFF1F409DFF1FD2
:10210000BC9FFF1FC09FFF1F348AFF1F7089FF1FE6
:10211000389FFF1F2CA0FF1FFC9DFF1F10A0FF1F5B
:10212000C89FFF1F759DFF1FCE9FFF1F449EFF1F6F
:102130004E9FFF1F509FFF1F339FFF1FA5050000ED
:10214000F09FFF1F369FFF1F549FFF1F8E9FFF1F93
:1021500003B0BDE8F04F09F0E9BA06200CF08EFE9E
:1021600000287FF473AE374C034620704FF0010B0C
:102170007DE64FF4FA7004F009FF04F0F3FE06F078
:102180006FFF4FF4AF600CF0AFFE56E7FFF798FC1F
:10219000B8F80030002B7FF450AFEAE72A4B1888DC
:1021A00000283FF45AAF294BC0B2197807F030FF2E
:1021B00053E7012121200CF05BFE67E703200CF0C0
:1021C0005DFEB0FA80F35B0947E603200CF056FE93
:1021D0000028FAD104200CF051FE0028F5D105208A
:1021E0000CF04CFE0028F0D106200CF047FE002831
:1021F000EBD10DF0ABFE04200CF040FE40B9052001
:102200000CF03CFE20B906200CF038FE0028F0D07F
:1022100003200CF033FE0028FAD1ECE704200CF088
:102220002DFE40B905200CF029FE20B906200CF047
:1022300025FE0028DDD003200CF020FE0028FAD176
:10224000ECE700BF8D9DFF1F009EFF1FA89DFF1F95
:102250002DE9F04FB04B1A78012A95B000F0FC82BE
:10226000C0F00982022A00F0D780AC48DFF850E3C2
:1022700090F80080AA48AB4DAB4FAC4EAC4BAD498B
:102280000090AD480390AD489EF800B002902D78C4
:10229000AB483F7896F800E01B780978DFF828C350
:1022A000DFF82893DFF828A30190012A9A4894BF09
:1022B000013200220270A34AA3481370A34A80F897
:1022C00000B01570A248A34A077082F80080A248A7
:1022D000A24A03701170BEF1000F40F01281A04AB3
:1022E00010880D2800F0B8819E4C00202070024616
:1022F00004462DB19A480088002840F0B98105466F
:10230000994806882544002E40F066819748984CED
:10231000029E0078367824780130A0EB4600002C2D
:1023200040F01383019C94F800E0CEEB0004BEF172
:10233000000F40F049830026DFF880E203989EF802
:1023400000E00078A41BA4EB4E043C44CBEB040457
:1023500010B1B7FA87F040099CF800602718BC1B41
:102360001EB11EF1000618BF012699F800009AF868
:102370000090009FC6EB040EC0EB0E00A0EB4900DE
:10238000804497F800C07B4FC3EB0803A3EB4101E7
:102390000C2313FB0C113960774B784F784C79483C
:1023A0001B880088D7F800C0774E2788774C36887E
:1023B000D4F800E0033BC0EBC00403EB4303C7EBDE
:1023C000C70001EB83036444714F33447044714E82
:1023D00057F8244056F820000C3B1D442544054482
:1023E0000AB16D4B19606D4A13689D4200F030814F
:1023F0006B4B6C4819680791079901601B6808933B
:102400006948089B008815605B1A834284BF674B4C
:102410001D6015B0BDE8F08FDFF8B881644E08AFDD
:102420000025E9B2634809F09DFD58F8043BC3F567
:10243000967300FB03F086FB00230135C017C0EB49
:1024400063100C2D47F8040BEBD15B4B3C4DB3F8FC
:1024500000C00195109D09980F99384C444EDFF843
:10246000CCA0DFF8C090DFF8C880029411AA8CCA13
:102470006545ACBF4FF0000E4FF0010E8445D4BF50
:10248000002001208C45D4BF0021012121709445FA
:102490002B490B9D3070D4BF002201220A709C454D
:1024A000464A24481D4E01781D480090D4BF0023A1
:1024B0000123BC451370D4BF002701271A4B164ACD
:1024C0001F70AC450C9D3E4B1B488AF800E0D4BF02
:1024D0004FF0000B4FF0010BAC45D4BF0025012598
:1024E00083F800B089F8005098F80030127896F818
:1024F00000800390DFF8D0C0DFF8D090DFF8D0A0E4
:10250000D3E6304A174814880122182C027040F292
:1025100024820024EDE600BF329FFF1F809FFF1F33
:102520003D9FFF1FE09DFF1FDE9DFF1F38A0FF1F87
:10253000819FFF1F829FFF1F8C9DFF1FE59FFF1F35
:10254000E69FFF1F32A0FF1F33A0FF1F34A0FF1F15
:1025500035A0FF1F36A0FF1F37A0FF1FD29FFF1F10
:102560003AA0FF1F6C9DFF1F4C9DFF1F368AFF1F67
:102570001CA0FF1F889FFF1FA69FFF1F409EFF1FDD
:10258000E29DFF1FC49FFF1F649DFF1F04A0FF1F4C
:10259000784601000040010014A0FF1FD49DFF1FDA
:1025A00010A1FF1FC49DFF1FDE9FFF1F20A0FF1F64
:1025B000B5814E1B309EFF1FFA9FFF1FE79FFF1F35
:1025C000DF9DFF1FCE9FFF1F31A0FF1FD09FFF1F6A
:1025D000D19FFF1F4089FF1F012E00F07382022E42
:1025E00000F0D282032E7F4B00F0F3811E78029B15
:1025F0009CF800E01878039B99F800C093F80080DD
:10260000019B9AF800401F78A6EB4E03A4EB8404CC
:10261000CCEB030CC0EB80760CEB0403C0EB860024
:10262000034403EB480303EB810327B16E490978A8
:10263000002940F02E83012600996C480978C1F1E9
:10264000060101EB4101334403EB81010160A3E684
:102650006749684B0968D1E6002D3FF445AE664AEC
:10266000664E14880122182C327040F2768174462E
:10267000A0F10D0544E6DFF8D081614E08AF0025DA
:10268000E9B2604809F06EFC58F8043BC3F5967354
:1026900000FB03F086FB00230135C017C0EB63107D
:1026A000062D47F8040BEBD1574BDDF820A01A8814
:1026B000DDF82490554CDDF82880554BDDF82CC012
:1026C000DFF888B10C980D9D19889245ACBF4FF08A
:1026D000000E4FF0010E4A45D4BF00270127277096
:1026E00042454C4C8BF800E00EEB0703D4BF0026AC
:1026F00001266245D4BF4FF0000E4FF0010E267048
:1027000082423344DFF848B1434E8BF800E0D4BF37
:10271000002701277344AA423770D4BF4FF0000E40
:102720004FF0010E3B443D4F3D4E87F800E07344AF
:102730003C4F0097DBB2012933703B4E3C468CBFC7
:10274000002701273770AA424FF00006267040F399
:102750001181824200F38081012940F27D8162452E
:1027600040F30F81424500F3B082012940F2AD826F
:102770004A4540F30F819245C0F2C782012940F2D9
:10278000C4822A4E3778012F40F20B8109B1009C98
:102790002770274F3F88002F00F0BC82002B40F0AD
:1027A000B982244B1B88013B9BB2062B00F2B282FC
:1027B000214B1B78002B00F0AD82204B1B68012BB6
:1027C00040F0EF801E4BDFF88CC0D3F800E00C2304
:1027D0009EFBF3F703FB17E3ACF80030194B03271C
:1027E0001F70DEE0368AFF1FE79FFF1F889FFF1FD5
:1027F000C49DFF1F10A1FF1FCE9FFF1F6C9DFF1FD9
:10280000B5814E1B889DFF1FFA9FFF1FFD9FFF1F75
:102810001E9FFF1FFE9FFF1F00A0FF1F01A0FF1FA5
:10282000949DFF1F3D9FFF1FA49FFF1F4A9FFF1FF7
:10283000B09FFF1F529FFF1F3A9EFF1FC89FFF1FA1
:1028400020A0FF1F188AFF1F688AFF1FFC9FFF1F21
:10285000FF9FFF1F8C9FFF1FDFF85882824E08AF3B
:102860000025E9B2814809F07DFB58F8043BC3F527
:10287000967300FB03F086FB00230135C017C0EB05
:1028800063100C2D47F8040BEBD1794B0C9D1F887E
:102890000B9B0A98099A089EDFF81CA2DFF81C928D
:1028A0000F99744CDFF818C20394BB42ACBF4FF0D1
:1028B000000E4FF0010EAF42D4BF00250125874224
:1028C000109B84F800E0D4BF002001209742D4BFC1
:1028D00000220122B742D4BF4FF000084FF0010898
:1028E0008AF800209F42644A89F80000D4BF002380
:1028F000012362481370129A80F800808F4260486A
:102900008CF80050D4BF002101219742017055DCA2
:1029100000220D985B4D5C4E2A708742D4BF002781
:1029200001275A4A3770009259485A4A5A4E5B4D0D
:10293000077892F800E05A485A4A02905A4896F8A6
:1029400000B02D7812780190AFE4019C46B1267852
:10295000002E40F08481441EEEE40C3C0122C8E4C9
:1029600094F800E00138CEEB0004BEF1000F7FF4D4
:10297000E3ACE0E482427FF7F2AE624555DC012928
:1029800053D942457FF7F4AE4A4500F3B981012996
:1029900040F2B6819245BFF6F4AE009C434E01234F
:1029A0002370032945D1AA4243DD824241DC3378BA
:1029B000062B3ED1009A072313703CE0119A9742F0
:1029C000D4BF00220122A4E7002E3FF4B4AC0126BC
:1029D000B2E41C780398029B9CF800601B7890F886
:1029E00000C099F8007001989AF8008090F800E013
:1029F000A4EB4604E71BA8EB8800C3EB83743844C0
:102A0000C3EB8403034403EB4C0303EB8103BEF1EC
:102A1000000F40F04381012600992548097833448E
:102A20000C2414FB01310160B6E4009A1F4E05230B
:102A30001370009B1B781149114A0F4891F80080D0
:102A400011780C4A337003920378DFF874C0DFF812
:102A50006C90DFF864A067E7009C144E06230329FE
:102A60002370E8D1A1E700BFB5814E1BBC9DFF1FBD
:102A7000FA9FFF1F8C9DFF1F819FFF1F809FFF1FDD
:102A8000829FFF1FA29DFF1F1E9EFF1F3D9FFF1FD6
:102A9000DE9DFF1F38A0FF1FDF9DFF1FE09DFF1F72
:102AA000E59FFF1F329FFF1FE69FFF1F4A9FFF1FEB
:102AB000889FFF1F388AFF1FD19FFF1FD09FFF1FD6
:102AC00031A0FF1F964CDFF864E2207805909EF855
:102AD000004002980494059C007802900134A4EB15
:102AE00040040498002840F0AB80019890F800E082
:102AF0000498261ACEEB06000490BEF1000F40F0B9
:102B00009A8074460398874E00780190049836782E
:102B10000396041BA4EB460401983C44CBEB04044D
:102B2000002800F08380B7FA87F040099CF8006025
:102B30002044871B1EB10398061C18BF012699F874
:102B400000009AF80040BE1B301AA0EB44008044FD
:102B50000298C3EB0803A3EB4103002863D1BEF145
:102B6000000F40F0AA807344002C76D100290CBFDE
:102B700000206FF0090000996B4C097803440C2089
:102B800010FB0131216007E4029C019E247802942D
:102B9000664C367801969AF8006094F800A0614C73
:102BA000634899F800E094F800909DF80440847020
:102BB00080F806E080F803909CF800C09DF808407B
:102BC000DFF87C91DDF808E080F808800470077178
:102BD00080F805C0C671417280F801A04FF000086E
:102BE00001200021524C0E465FFA88FA4F46F44607
:102BF00007E0022809D00A290BD014F801CF17F8F2
:102C0000010F844501F10101F3D101360A29F6B221
:102C1000F3D1092E5ED808F10108B8F1100F22D0C7
:102C200019F80A0FDDE74FF0000E9CE701987DE7E9
:102C3000CEEB040004900298041C18BF012461E745
:102C40000298002834D0019890F800E0BEF1000FFF
:102C5000EED1601E0490744654E700208BE7841B7D
:102C60000126FFF769BB2E4832490478C86B0399E7
:102C7000013409782044CBEB000008440021009B7C
:102C80001C78294B401A0C2111FB04011960FFF735
:102C900083BB1BF1000618BF0126CDE4214909784A
:102CA00000293FF4B8AE1BF1000618BF0126B3E6B9
:102CB000019890F800E030461BE7039800280CBF0D
:102CC0004FF0000E4FF0090E4DE7009C1A4E042302
:102CD000237066E612481749047851F828000399D2
:102CE000013409782044CBEB00000844002BC5D008
:102CF000BAF1000FC2D1BBF1000FBFD00121BEE776
:102D0000009C0D4E032323704BE6009C0A4E0223C9
:102D1000237046E6094B1B68012B7FF442AE5DE54C
:102D2000368AFF1FE79FFF1F889FFF1F1CA0FF1F02
:102D3000049EFF1F7C89FF1F4A9FFF1FC89FFF1F24
:102D4000484501002DE9F04F3A4B1B788BB0002B22
:102D50006BD10E200BF03EFC0FF07AFD0146364899
:102D6000364E374DFDF7E6FB3348FDF7B9FB0FF064
:102D700089FF80F30C003060FFF76AFA2C68012CA1
:102D80007AD0022C00F0C582032C00F049842D4E2D
:102D90002D4C33682D4A2E4E0993099B31681288B9
:102DA0002360591A013A9142274F00F2AD82294E11
:102DB00032689A1A092A00F29682274E32689A1AC5
:102DC0000D2A00F28B82254E32689A1A252A1AD9CA
:102DD000234B1B88002B40F09B81224B1B78002B40
:102DE00040F09681FEF7A0FA1F4B1B881B3B9BB25D
:102DF000022B04D81D4B1B78002B40F08C8104F073
:102E0000D7F8236833601A4D2A689B1A502B00F2BA
:102E10000A82184B1B88012B00F0258207F09EF8D0
:102E200006F058FF0BB0BDE8F08F08F00BFB0BB0BD
:102E3000BDE8F08F8D9DFF1F609FFF1F9C9FFF1FB0
:102E4000C89FFF1F10A1FF1F5C9FFF1F208AFF1F4D
:102E5000349EFF1F189EFF1FF09DFF1FF49DFF1F54
:102E6000469FFF1F849DFF1FCE9FFF1F6C9DFF1F6E
:102E7000409FFF1FA09FFF1FDFF84093AB4AB9F8A8
:102E800000001378834204D0C3B21846137007F0D1
:102E900057F8DFF82C83A64AB8F800301178994229
:102EA00004D0A44F3978002940F0B087A24A336893
:102EB0001288A24E9A42C0F28D81A14A1278002A4D
:102EC00040F08881DFF8FCA2BAF8003023B99D4BAE
:102ED0001B88002B00F0A4859B4A9C4B11881B8803
:102EE0009B4A0B4412685B1093429A4A126880F224
:102EF0001E8500219342B4BF01230B460491029327
:102F0000ACBF4FF0010B8B4605910E200BF062FB1E
:102F1000914B924A1B6803930133002B8446176838
:102F200040F38A87802BA8BF80238D4A8D49127871
:102F30000191002A00F058810978914200F05481F3
:102F4000B8F80010DFF878E2994201F06181794920
:102F5000AEF80030844B4FF0010E81F800E0197894
:102F6000DFF864E2814B01981B7802708EF8001044
:102F7000002B40F03883029B002B40F02F83A7F2F8
:102F800052339C4533DA6F4B1B88002B2FD0BBF19B
:102F9000000F40F02883764B1B881BB1059B002B4C
:102FA00040F02183049B13B3724B1A78FAB9DFF80F
:102FB0001C9299F8004001221A70002C40F0FD8408
:102FC0006D4B1B78002B42F0BC846C4B1B78002BA4
:102FD00002F048876A4B1B784BB96A4B1B7833B1B8
:102FE000B8F8003053490A33A8F800300A700E20B0
:102FF0000BF0F0FA6FF454731F44874202DC5D4B10
:1030000000221A70604B1B88002B00F0BA845F4BC3
:103010005F4A1B78117899426DD0002B6BD05949CB
:103020000878002800F0B3875A4991F800C0BCF135
:10303000000F40F0AA87584FDFF894E197F800A0FE
:10304000564C574F8EF800C04FF0010E0194039775
:1030500084F800C087F800C081F800E0BAF1000FE2
:1030600008D000240C70019F03994FF0010E87F8DF
:1030700000E00C7040490978002901F06C80494C4F
:1030800094F800E0BEF1000F41F01D81DFF81081DF
:103090004FF0010C88F800E084F800C0374C247829
:1030A00094B1DFF82CE19EF800C0BCF1000F41F0B4
:1030B0000081DFF8E0904FF0010889F800C08EF839
:1030C0000080002901F04C803749097899B13448D3
:1030D0000178002941F0F380DFF8B8E0334F2F4C3E
:1030E0008EF800104FF0030E87F800E02D4F21708E
:1030F00001243970047013702D4B1B88A3F11B023F
:10310000012A40F271861D2B00F08F86294C40E683
:10311000FEF7ACF866E6284B1B78002B3FF46FAE49
:103120002B68012B7FF46BAE6BE600BF339FFF1F54
:10313000F89DFF1F759DFF1F389EFF1F10A1FF1FE9
:10314000849DFF1F209EFF1F9C9DFF1F989FFF1FB8
:10315000B89DFF1F7C9DFF1F14A0FF1F589DFF1FE0
:103160000AA0FF1FD09DFF1F0BA0FF1F1E9EFF1F69
:10317000569FFF1F959DFF1F32A0FF1F33A0FF1F0B
:1031800034A0FF1F35A0FF1F529FFF1FA29DFF1FEE
:10319000449DFF1F909FFF1F36A0FF1FE49FFF1F4E
:1031A0003A9EFF1F459DFF1F6C9DFF1F188AFF1F42
:1031B000CE9FFF1F5C9FFF1FD29FFF1F509FFF1FCF
:1031C0000CA0FF1FD89DFF1FD19DFF1F3D9FFF1F1C
:1031D000749DFF1F31688E4A069106988D491060D4
:1031E00002220B602A606DE68B49DFF8A0E20978C5
:1031F00000293FF4B7AE9EF8000081423FF4B2AE22
:1032000003984B2840F3C7871833802BB8F8000089
:10321000A8BF802398423FF4A5AE80480380804831
:10322000012303709EE605F017FC7E4B1B788BB9DB
:103230007D4B1B7873B97D4B1B785BB97C4B1B783E
:1032400043B97C4B1B782BB97B4B1B7813B903F02C
:1032500085FE01E003F08EFE23682B60774B1B8810
:10326000012B7FF4DBAD764B764A19681778764EE2
:10327000A92303FB01F10029744BB8BF01F57F516D
:103280001868734BB8BF3F3189132A225439183854
:1032900002FB00111D786FF0140202FB071232606E
:1032A0006C49002D00F04A810B689A4200F30084BB
:1032B00080F24481684D2878002840F0E88767480C
:1032C0000068D0F17F0048BF0330801001301B1A26
:1032D0009A4200F333810B601A4630E1FEF746FB59
:1032E000236833606FE5FDF761FBFEF749F85C4B3F
:1032F0001B88032B00F0A3855A4B1B88032B00F07F
:10330000A2852368336058E5FDF79CFA3B6833607B
:103310004DE5554A34681288A24204DB464B1B78BF
:10332000002B00F00684514E394833680793504B08
:10333000079900681B88091A994200F2AD80002B9A
:1033400000F0AA804B4B198800293FF4DFAE314BC7
:1033500049481B680088A342B8BF23469A4201F33C
:10336000B681464A8342A8BF03461360DFF8208136
:1033700088F80010354FFDF765FA38687F2840F36C
:1033800000863F4B7F3883FB0032C317C3EB6203D9
:1033900003EB4303A0EB830073303A4B02931B888B
:1033A0003860002B40F02287204B01931B78002BC4
:1033B00000F06E84344C2378002B00F06984DFF831
:1033C000D490DFF8BCA04FF0000B0CE003F17300C9
:1033D000C0B298F8001006F04BFE23780BF1010BF9
:1033E0005B4540F355843B6859F8040F1844A0F13D
:1033F0007F038AFB0321DA17C2EB610202EB420270
:103400007F28A3EB8203E1DCFDF73CF9E0E700BF96
:10341000E49DFF1F589FFF1F0BA0FF1F0CA0FF1F65
:10342000759DFF1F3A9EFF1F909FFF1FE49FFF1F88
:10343000459DFF1F749DFF1F849DFF1FA09FFF1FC1
:103440001C8AFF1FB29FFF1F109EFF1F20A0FF1F9F
:10345000E19DFF1F249EFF1FEC9FFF1FE89FFF1FA2
:10346000A29FFF1F349FFF1F389EFF1F10A1FF1F49
:103470001C9EFF1F6A9DFF1F5C9DFF1F489DFF1F35
:10348000ABAAAA2AB29DFF1FE089FF1FD19DFF1F93
:10349000C69FFF1FB889FF1F8F4B90491B68088884
:1034A0008F49A342B8BF23469A4200F31F838D4C35
:1034B00009888342A8BF0346236000297FF456AFE2
:1034C0009A42C8BF0B4640F31883801AB0F5804F6C
:1034D000AABF9B03C3EB8333013093FBF0F0FDF7EE
:1034E00097F9C0F3C6100FF0B3F97F4B0446188864
:1034F0000FF0AEF97D49074620460FF0FDF9014671
:1035000038460FF0F9F921460FF0EEF84FF07E51F2
:1035100004460FF08FFB002841F0CE80744920460E
:103520000FF0A6FB002840F0C18620460FF0D0FB2C
:10353000C0B2DFF8108288F800001BE70A606D4B0C
:10354000188858B36C4B256853F82040B5FBF4F34A
:10355000772C04FB135300F3C282C3EBC30303EBCA
:10356000031393FBF4F36548654C50F8230024687B
:10357000644BA0F2FF7004FB00F000F57D3000F515
:10358000607000EB4004C0EBC40083FB00430344C5
:10359000C017C0EBA3400B3802440A605A495B4B8A
:1035A0000888198800F27C704300B3F57C6FA1F1A4
:1035B00064014FEA4100B5BF5549564903FB022259
:1035C0005A4381FB02311144D317C3EBE123C118E5
:1035D00081F30C0128200BF0BBFA1FE4BAF800308D
:1035E000002B3FF4CCAC4C4B1B685A1C002A40F318
:1035F000AC81802A00F3A881484C49494948248875
:10360000098800682144B0EB610FC0F24986A3F13C
:1036100048020F2A3FF6EBAC473BA9F80030E6E43E
:10362000414BD6F800801988414540F38F803F4BCD
:103630001B78002B40F08A80DFF80C9199F800008D
:103640007F2840F30F86A3F155337F3803F1004301
:1036500083FB0032C317C3EB620303EB4303A0EB0E
:1036600083007330324B02931B88C0B289F800008C
:10367000002B41F00E802F4B01931B78002B00F0A4
:1036800098842D4C2378002B00F093842B4FDFF887
:10369000B0804FF0000A0AE003F17300C0B206F0F8
:1036A0000BFD23780AF1010A534540F3828457F851
:1036B000043F99F800001844A0F17F0388FB032120
:1036C000DA17C2EB610202EB42027F28A3EB82030E
:1036D000E2DCFCF7D7FFE1E7589FFF1F5C9DFF1F6F
:1036E0006A9DFF1F489DFF1F509DFF1FCDCCCC3D05
:1036F0000000FE42669DFF1F24450100FC3D0100C5
:10370000B49FFF1F4D26128124A0FF1FE89DFF1FBD
:1037100081DFFF8183200882889FFF1F4C9FFF1F4E
:10372000489FFF1FAC9DFF1F389EFF1F849DFF1FFA
:10373000B29DFF1FE49FFF1FE089FF1FB889FF1F95
:10374000ABAAAA2AC69FFF1F869FFF1FB64F3868E5
:103750007F2800F3D981FCF795FFDFF8449399F8AF
:103760000040844200F03982B04B1B88002B43D1CB
:10377000AF4AB04812680088914205DC8242D4BF4B
:10378000C1EB0203C1EB0003411AB1F5804FA6BFA4
:103790009B030131C3EB833393FBF1F0FDF738F862
:1037A000C0F3C6100FF054F8A34B804618880FF0F2
:1037B0004FF8A249824640460FF09EF80146504617
:1037C0000FF09AF841460EF08FFF4FF07E51804681
:1037D0000FF030FA002840F0D586994940460FF0A6
:1037E00047FA002840F05F8540460FF071FAC0B2FA
:1037F000DFF8B08288F800007F2C40F3B483914852
:103800007F3C80FB0430E317C3EB600000EB40001B
:10381000A4EB800073308C4B01931B78C0B289F805
:103820000000002B40F01683884B04931B78002B7C
:1038300040F0FB84864B03931B78002B40F03F87BE
:10384000844B0293039B1B78FBB1834B1B88012B9A
:1038500000F0EA85022B00F09387032B01F0AB8187
:10386000042B01F05C83052B01F04684062B01F04C
:103870009485072B01F02A87082B02F02780092B5B
:1038800002F0F3800A2B02F0CC82019B1B78002B04
:1038900000F04E84029B6F4C1988002900F0BE8412
:1038A00038687F2840F3D382664B7F3883FB003231
:1038B000C317C3EB620303EB4303A0EB8300733036
:1038C0003860002940F07884019B1B78002B00F0C1
:1038D0009081624C2378002B00F08B81DFF8C8A127
:1038E000DFF8C0814FF0000B0CE003F17300C0B2B1
:1038F00098F8001006F0BCFB23780BF1010B5B4538
:1039000040F377813B685AF8040F4E4A1844A0F1FF
:103910007F0382FB0321DA17C2EB610202EB420252
:103920007F28A3EB8203E0DCFCF7ACFEDFE79342E9
:103930004FF0000B80F2F5800123CDF808B0CDF8F0
:1039400014B00493FFF7E1BA80244549454B464A39
:1039500009881B8812680B44B2EB630FBFF647ABB4
:10396000424B1B78002B40F0A783B8F80030404A48
:10397000A3423FF43CAB3F4B148001221A70FFF787
:1039800036BB334F3C4C304830493C4A3B70237087
:1039900003700B70FFF7AFBB394B1B78002B7FF424
:1039A00026AB039B374A243B83F34703D9B25B2002
:1039B000136006F02DFB99F80040032C30D1DFF89E
:1039C000EC8098F80030002B42F01A832E4F3B78A1
:1039D000002B42F008832A4C2378002B42F0F68219
:1039E0002A4B1B78002B42F0E482294A1380294B92
:1039F0001B78002B42F0D0820C4B7F221A8098F863
:103A000000306BB93B785BB923784BB9224A7F21F0
:103A10000720138006F0FCFA7F210B2006F0F8FA4D
:103A20001E4B1F68FFF7E3BA20A0FF1F6A9DFF1F10
:103A3000489DFF1F5C9DFF1F509DFF1FCDCCCC3DBF
:103A40000000FE42ABAAAA2AE49FFF1F459DFF1F6C
:103A50003A9EFF1FB29DFF1F529FFF1FE089FF1F6D
:103A6000489FFF1F4C9FFF1FAC9DFF1F6C9DFF1FBA
:103A70000CA0FF1F759DFF1F909FFF1F749DFF1FD0
:103A800035A0FF1F989DFF1F34A0FF1F33A0FF1F0D
:103A90002A9EFF1F36A0FF1F849FFF1F589DFF1FF8
:103AA000869FFF1FC69FFF1FB889FF1F32A0FF1F01
:103AB000B94D2878002840F00E83B8480068D0F14E
:103AC0007F0048BF033003EBA0030133B4480B6011
:103AD0009A42B8BF0260FFF632AD1A462FE5C3EB3B
:103AE0000313D800631C90FBF3F33CE5AD4B09884E
:103AF0001A6000297FF43AAC13469842D4BFC2EB57
:103B00000003C2EB0303E0E4A74B7F3883FB0032E2
:103B1000C317C3EB620303EB4303A0EB83007330D3
:103B20001BE60123CDF810B0CDF808B00593FFF7E0
:103B3000ECB901232B609D4E9D4CFFF72AB9039BE6
:103B40001B78FBB19B4B1B88012B00F0C283022B1F
:103B500000F09486032B00F0B587042B01F0BB81A5
:103B6000052B01F05482062B01F00F84072B01F086
:103B7000F984082B01F06486092B01F0DC870A2BFD
:103B800002F00281029B1B88002B00F01E83019B28
:103B90001B783BB9049B1B7823B9039B1B78002B34
:103BA00000F07787844B1B78002B00F02D81834930
:103BB0000B78082B00F2288181483A680068814C14
:103BC0000133DBB25F1E101A44F827000B707E4BE6
:103BD000D6F80080198889F800208845734E7FF751
:103BE00095AA3268794B0892089A714C1A60FFF7CF
:103BF000D0B8049B1B78002BA1D03B68A3F10C002C
:103C00007F2840F31B8368488B3B80FB0320DA1737
:103C1000C2EB600000EB4000A3EB800303F17300F4
:103C2000DFF8BC81C0B298F8001006F021FA019BC1
:103C30001B78002B83D0614C2378002B3FF47FAF9F
:103C4000DFF8A0A14FF0000B0CE003F17300C0B24D
:103C500098F8001006F00CFA23780BF1010B5B4585
:103C60007FF76DAF3B685AF8040F4F4A1844A0F134
:103C70008B0382FB0321DA17C2EB61020C3802EBE3
:103C800042027F28A3EB8203DFDCFCF7FBFCDEE7CC
:103C9000494B1B78002B40F09E824D4B1B78002B2C
:103CA00045D03B68A3F10C007F2840F3D8823E4A00
:103CB0008B3B82FB0321DA17C2EB610202EB42026B
:103CC000A3EB820303F17300C0B298F8001006F072
:103CD000CFF9019B1B7853B3384C23783BB3DFF803
:103CE0000491DFF8C4A04FF0000B0BE003F1730068
:103CF000C0B298F8001006F0BBF923780BF1010B65
:103D00005B4514DD3B6859F8040F1844A0F18B03A0
:103D10008AFB0321DA17C2EB61020C3802EB420284
:103D20007F28A3EB8203E1DCFCF7ACFCE0E7294B46
:103D30001B78FBB11F4B1B88012B00F02684022B44
:103D400000F01D86032B00F0AC87042B01F00C81E2
:103D5000052B01F03B82062B01F03583072B01F088
:103D60005B83082B01F00586092B01F09F860A2B47
:103D700001F0B987029B1B88002B00F04382164B91
:103D80001B78002B40F03982144B3A681A700323D9
:103D90002B60FFF7BBB900BFEC9FFF1FE89FFF1F21
:103DA000249EFF1F489DFF1FABAAAA2A10A1FF1F38
:103DB0005C9FFF1F529FFF1F909FFF1FE089FF1F07
:103DC000789DFF1FBC89FF1F389EFF1FCCA0FF1FDF
:103DD000459DFF1F3A9EFF1F749DFF1F869FFF1F7B
:103DE000C69FFF1FB889FF1FDFF8108398F80030C7
:103DF000002B40F0BC80BC4F3B78002B40F06E8421
:103E0000BA4C3B70FEF7C5BF3A68E0E6DBB2184635
:103E1000137006F0BBF9B649B648B74A00230B70D9
:103E20003B7003701370FFF741B8B44AAE4B127881
:103E30001A70AE4CFEF7ADBF0123FFF776B8FCF762
:103E400033FCFFF759BAFCF785FCFFF75ABAFCF7C9
:103E500019FC35E5AA4B02931B8863BBA64B049360
:103E6000A84B0393A84C23787BB3DFF8AC82DFF830
:103E70009CA24FF0000B09E003F17300C0B206F002
:103E80001BF923780BF1010B5B451EDD58F8043F4D
:103E900099F800001844A0F17F038AFB0321DA1788
:103EA000C2EB610202EB42027F28A3EB8203E3DC58
:103EB000FCF7E8FBE2E7904B0493924B039306F088
:103EC000FBF8019B1B78002BCCD1049B1B78002BAB
:103ED0003FF4B8AC99F80030A3F10C007F2840F310
:103EE000BB818A488B3B80FB0320DA17C2EB600062
:103EF00000EB4000A3EB800303F17300C0B206F0B7
:103F0000DBF8019B1B78002B00F09B817E4C237813
:103F1000002B01F06882DFF80082DFF8F0A14FF09B
:103F2000000B0AE003F17300C0B206F0C5F8237875
:103F30000BF1010B5B457FF785AC58F8043F99F80E
:103F400000001844A0F18B038AFB0321DA17C2EBAF
:103F500061020C3802EB42027F28A3EB8203E1DC12
:103F6000FCF790FBE0E72046FCF78CFB53E4684A43
:103F70001278002A40F0DA825B4F5C4C3B70FEF70F
:103F800008BFFCF77FFBFFF708BA00240C706149FB
:103F900091F800A0BAF1000F3FF46CA855490191C7
:103FA0000978002900F07085019C00212170FFF73D
:103FB00061B8514B1B78002B42D099F80030A3F127
:103FC0000C007F2840F39883504A8B3B82FB0321EF
:103FD000DA17C2EB610202EB4202A3EB820303F1A8
:103FE0007300C0B206F068F8019B1B7843B3464CDF
:103FF00023782BB3484FDFF814814FF0000A09E013
:1040000003F17300C0B206F057F823780AF1010AF1
:10401000534515DD57F8043F99F800001844A0F106
:104020008B0388FB0321DA17C2EB61020C3802EB29
:1040300042027F28A3EB8203E2DCFCF723FBE1E7EB
:10404000304B1B78FBB1354B1B88012B00F0B6863B
:10405000022B00F0B687032B01F01B81042B01F02B
:10406000A581052B01F0D183062B01F0EB84072BF2
:1040700001F09885082B01F00887092B01F069876A
:104080000A2B01F04387029B1B88002B00F00F8353
:10409000174B1B78002B40F00583214B1B78002B1E
:1040A00040F0FB821F4B204A1988D6F80080002080
:1040B000012310602B6090E54B2C40F3D78018341F
:1040C000802CB8F80030194AA8BF8024A3427FF49E
:1040D00052ACFEF78CBF0130C0B2022836D828702F
:1040E0001A46FFF72CBA00BF689DFF1F5C9FFF1F99
:1040F000909FFF1FE49FFF1F459DFF1F6C9DFF1FAB
:10410000B29DFF1F3A9EFF1FE089FF1FABAAAA2A9C
:10411000D29FFF1F36A0FF1FB889FF1F529FFF1FAE
:10412000749DFF1F389EFF1F489DFF1F0CA0FF1F9F
:10413000049B1B78002B7FF4ADAB039B1B78002BFB
:104140007FF4A8AB029B1988FFF7AABB00222A7054
:104150001A46FFF7F4B9A24C2478002C7EF4A1AFE4
:1041600000287EF4B1AFBAF1000F7EF4ADAF002CA1
:104170007EF4AAAF9B49097800297EF4A8AF9A483B
:104180009A4904700C709A4F9A489B493C7004708D
:104190000C70FEF7B0BF243B002BB8F8000040F3D2
:1041A0006D8498423EF4DEAE9BB29448A8F800308D
:1041B00001230370FEF7D6BEDFF84482C0B298F840
:1041C000001005F055FFFFF77FBB8D4B387819784D
:1041D00005F04EFFDBE47F21402005F019FF894AFE
:1041E000894B3968116000221A7056E5C0B298F800
:1041F000001005F03DFFFFF7D7B87F21422005F002
:1042000007FFC1E598F80010387805F031FFB6E5F2
:104210007E4BDFF808E21978FEF7A4BE99F800009B
:1042200005F04AFF2188FFF73BBB794B02931B88BF
:10423000002B41F02A876F4B03934BE6FCF722FAE1
:10424000EEE4039B1B78002B7FF4FFAA049B1B78F2
:10425000002B7FF41FAB75E7FCF714FA4EE6FCF772
:1042600011FA31E5FCF70EFAFFF7FCB9243C002CFB
:10427000B8F8003040F31A86A3423EF4B8AEA4B2B8
:104280005E4BA8F8004001221A70FEF7B0BE421C37
:10429000D2B2022A3FF65AAF2A701A46FFF74FB938
:1042A0001446FFF75DBB7F20FFF7A2BA7F20FFF720
:1042B00040B94FF0000C8EF800C0FEF702BF00219D
:1042C0000170FEF718BF4FF0000E84F800E0FEF713
:1042D000E5BEDFF84CA13868BAF800304D4A4E4CC4
:1042E000C31A82FB031ED917C1EB6E0101EB41011A
:1042F000A3EB810303EB430354F8233018447F28D6
:1043000040F346857F3882FB0032C317C3EB62035C
:1043100003EB4303A0EB83007330DFF8E480DFF8A6
:1043200004B198F80010C0B205F0A2FEBBF800304E
:10433000022B7FF627AC3968BAF80030354ACB1A21
:1043400082FB030ED817C0EB6E0000EB4000A3EB1E
:10435000800303EB430304EB8303586808447F287E
:1043600040F330877F3882FB0032C317C3EB620211
:1043700002EB4202A0EB82007330C0B298F800104A
:1043800005F076FEBBF80030032B7FF6FBAB3968F7
:10439000BAF800301F4ACB1A82FB030ED817C0EBC5
:1043A0006E0000EB4000A3EB800303EB430304EB40
:1043B0008304A06808447F2840F3A8817F3882FBEB
:1043C0000032C317C3EB620202EB4202A0EB820091
:1043D000733098F80010C0B205F04AFEFFF7D2BB68
:1043E00033A0FF1F6C9DFF1F909FFF1FE49FFF1FC7
:1043F000459DFF1F3A9EFF1F749DFF1F759DFF1F68
:10440000C69FFF1F789DFF1FE089FF1F0BA0FF1FA6
:10441000B29DFF1FABAAAA2ABC430100D19DFF1F7A
:104420008C9FFF1FF89FFF1FDFF848A399F800003B
:10443000BAF80030C54AC64CC31A82FB031ED9170E
:10444000C1EB6E0101EB4101A3EB810303EB4303DD
:1044500054F8233018447F2840F39E847F3882FB31
:104460000032C317C3EB620303EB4303A0EB8300EB
:104470007330DFF804B3C0B205F01EFEBBF80030A5
:10448000022B7FF602AA99F80010BAF80030AF4A62
:10449000CB1A82FB030ED817C0EB6E0000EB400076
:1044A000A3EB800303EB430304EB83035868084446
:1044B0007F2840F383867F3882FB0032C317C3EB2B
:1044C000620202EB4202A0EB82007330C0B205F040
:1044D000F3FDBBF80030032B7FF6D7A999F8001045
:1044E000BAF80030994ACB1A82FB030ED817C0EBFA
:1044F0006E0000EB4000A3EB800303EB430304EBEF
:104500008304A06808447F2840F3E5807F3882FB5D
:104510000032C317C3EB620202EB4202A0EB82003F
:104520007330C0B205F0C8FDFFF7AFB9894F3878D6
:1045300002F0A8FD884B1B78002B00F0EA803B8836
:104540007E2B00F2E680854CDFF830922268D9F8A5
:104550000010521A0F2A40F2D380814A013310888A
:1045600099B23980002800F0ED80C9B2C0B205F0E0
:104570004FFD7C4F226898F80030C9F800203B704E
:10458000FEF707BC0120FFF733B9DFF8E8A1386870
:10459000BAF800306D4A6E4CC31A82FB031ED9175D
:1045A000C1EB6E0101EB4101A3EB810303EB43037C
:1045B00054F8233018447F2840F3F2837F3882FB7D
:1045C0000032C317C3EB620303EB4303A0EB83008A
:1045D0007330DFF8A4B198F80010C0B205F048FDC0
:1045E000BBF80030022B7FF6C5AB3968BAF8003053
:1045F000564ACB1A82FB030ED817C0EB6E0000EBB5
:104600004000A3EB800303EB430304EB83035868F0
:1046100008447F2840F39F867F3882FB0032C3170F
:10462000C3EB620202EB4202A0EB82007330C0B225
:1046300098F8001005F01CFDBBF80030032B7FF646
:1046400099AB3868BAF80030404AC31A82FB031E9F
:10465000D917C1EB6E0101EB4101A3EB810303EB21
:10466000430304EB8304A36818447F2841DD7F38AB
:1046700082FB0032C317C3EB620202EB4202A0EBE3
:1046800082007330C0B298F8001005F0F1FCFFF71B
:1046900071BB05F011FDFEF7EEBF0021422005F0D1
:1046A000B7FCFFE40021402005F0B2FCF5E499F8E6
:1046B000000005F001FDEBE40120FEF73ABF2A4BB4
:1046C00002931B88002B3FF4BDA8FFF7F8BB274BD4
:1046D0001A60FEF74BBEFBF7D5FF22E71D4B1F4CC0
:1046E00019886A2005F016FE98F800303B70FEF736
:1046F00050BBFBF7C7FFC5E7FBF7C4FF71E4174CDE
:10470000184F98F800303B70FEF743BBFBF7BAFF39
:104710005FE6174B1B78002BF1D03B880D4F002B29
:10472000EDD00E4CDFF854902268D9F80010521AE0
:104730000F2AE5D90A4A013B108899B2398000282E
:104740007FF413AFC8B205F003FD12E7ABAAAA2AA3
:10475000BC430100A89DFF1F37A0FF1F5C9FFF1FE8
:10476000009EFF1F689DFF1FB29DFF1F489DFF1FFA
:1047700036A0FF1F8C9FFF1FF89FFF1F18A0FF1F71
:10478000DFF834A399F80000BAF80030C64AC74CE5
:10479000C31A82FB031ED917C1EB6E0101EB410165
:1047A000A3EB810303EB430354F8233018447F2821
:1047B00040F3FE837F3882FB0032C317C3EB6203F2
:1047C00003EB4303A0EB83007330DFF8F0B2C0B219
:1047D00005F072FCBBF80030022B7FF656A899F862
:1047E0000010BAF80030B04ACB1A82FB030ED8177B
:1047F000C0EB6E0000EB4000A3EB800303EB430330
:1048000004EB8303586808447F2840F3D8857F3839
:1048100082FB0032C317C3EB620303EB4303A0EB3D
:1048200083007330C0B205F047FCBBF80030032BA7
:104830007FF62BA899F80010BAF800309A4ACB1AE4
:1048400082FB030ED817C0EB6E0000EB4000A3EB19
:10485000800303EB430304EB8304A06808447F2830
:104860007FF739AF7F3882FB0032C317C3EB620397
:1048700003EB4303A0EB8300733052E6DFF838A26A
:104880003868BAF80030884A884CC31A82FB031E85
:10489000D917C1EB6E0101EB4101A3EB810303EBDF
:1048A000430354F8233018447F2840F384837F382F
:1048B00082FB0032C317C3EB620303EB4303A0EB9D
:1048C00083007330DFF8F881DFF8F0B198F800105A
:1048D000C0B205F0CDFBBBF80030022B7FF652A929
:1048E0003968BAF80030704ACB1A82FB030ED81729
:1048F000C0EB6E0000EB4000A3EB800303EB43032F
:1049000004EB8303586808447F2840F364857F38AC
:1049100082FB0032C317C3EB620303EB4303A0EB3C
:1049200083007330C0B298F8001005F0A1FBBBF80B
:104930000030032B7FF626A93868BAF800305A4AAF
:10494000C31A82FB031ED917C1EB6E0101EB4101B3
:10495000A3EB810303EB430304EB8304A368184434
:104960007F287FF7D3AE7F3882FB0032C317C3EBBB
:10497000620303EB4303A0EB8300733029E5DFF808
:1049800038A13868BAF80030474A484CC31A82FB4D
:10499000031ED917C1EB6E0101EB4101A3EB8103AB
:1049A00003EB430354F8233018447F2840F3068375
:1049B0007F3882FB0032C317C3EB620303EB430370
:1049C000A0EB83007330DFF8F4B098F80010C0B2A9
:1049D00005F04EFBBBF80030022B7FF6CBA93968FF
:1049E000BAF80030304ACB1A82FB030ED817C0EB5E
:1049F0006E0000EB4000A3EB800303EB430304EBEA
:104A00008303586808447F2840F3E9847F3882FB99
:104A10000032C317C3EB620303EB4303A0EB830035
:104A20007330C0B298F8001005F022FBBBF80030DC
:104A3000032B7FF69FA93868BAF800301A4AC31AC8
:104A400082FB031ED917C1EB6E0101EB4101A3EB01
:104A5000810303EB430304EB8304A36818447F281A
:104A60007FF747AE7F3882FB0032C317C3EB620388
:104A700003EB4303A0EB8300733003E601283EF40D
:104A800071AA0123FFF791BB094C0A490394FEF771
:104A9000E8BA4FF47A43013BFDD199F8000005F0E4
:104AA0000BFBFFF77FB800BFABAAAA2A584701004B
:104AB0003A9EFF1F909FFF1F8C9FFF1FF89FFF1FB5
:104AC000C69FFF1FDFF8E8A23868BAF80030B64A80
:104AD000B64CC31A82FB031ED917C1EB6E0101EB62
:104AE0004101A3EB810303EB430354F82330184443
:104AF0007F2840F3E7817F3882FB0032C317C3EB86
:104B0000620202EB4202A0EB82007330DFF8A48263
:104B1000DFF8A4B298F80010C0B205F0A9FABBF80B
:104B20000030022B7FF62EA83868BAF800309E4A73
:104B3000C31A82FB0321DA17C2EB610202EB4202C5
:104B4000A3EB820303EB430304EB83035B6818448A
:104B50007F2840F310847F380C2290FBF2F302FB95
:104B600013007330C0B298F8001005F081FABBF85A
:104B70000030032B7FF606A83868BAF800308A4A5E
:104B8000C31A82FB0321DA17C2EB610202EB420275
:104B9000A3EB820303EB430304EB8304A3681844F1
:104BA0007F287FF7B3AD7F380C2290FBF2F302FB36
:104BB000130073300DE4DFF8F8A199F80000BAF89B
:104BC0000030794A794CC31A82FB031ED917C1EB16
:104BD0006E0101EB4101A3EB810303EB430354F8A6
:104BE000233018447F2840F367817F3882FB0032EE
:104BF000C317C3EB620202EB4202A0EB82007330E8
:104C0000DFF8B4B1C0B205F057FABBF80030022BA0
:104C10007EF63BAE99F80000BAF80030624AC31A3B
:104C200082FB0321DA17C2EB610202EB4202A3EB23
:104C3000820303EB430304EB83035B6818447F2880
:104C400040F390837F380C2290FBF2F302FB1300B9
:104C50007330C0B205F030FABBF80030032B7EF69B
:104C600014AE99F80000BAF800304F4AC31A82FB1C
:104C70000321DA17C2EB610202EB4202A3EB8203CB
:104C800003EB430304EB8304A36818447F287FF7F6
:104C900022AD7F380C2290FBF2F302FB130073303D
:104CA0003FE4DFF80CA13868BAF800303E4A3F4CC8
:104CB000C31A82FB031ED917C1EB6E0101EB410140
:104CC000A3EB810303EB430354F8233018447F28FC
:104CD00040F3F5807F3882FB0032C317C3EB6202DA
:104CE00002EB4202A0EB82007330DFF8CCB098F800
:104CF0000010C0B205F0BCF9BBF80030022B7FF603
:104D000039A83868BAF80030274AC31A82FB032151
:104D1000DA17C2EB610202EB4202A3EB820303EB60
:104D2000430304EB83035B6818447F2840F32A8322
:104D30007F380C2290FBF2F302FB13007330C0B2F9
:104D400098F8001005F094F9BBF80030032B7FF6BB
:104D500011A83868BAF80030134AC31A82FB03213D
:104D6000DA17C2EB610202EB4202A3EB820303EB10
:104D7000430304EB8304A36818447F287FF7B9AC8E
:104D80007F380C2290FBF2F302FB1300733079E4BE
:104D9000FBF778FCFFF7C1BAFBF774FCFFF769BBC0
:104DA000FBF770FC15E400BFABAAAA2AE847010094
:104DB0008C9FFF1FC69FFF1FF89FFF1FDFF82CA3CC
:104DC00099F80000BAF80030C34AC44CC31A82FBF9
:104DD0000317D917C1EB670101EB4101A3EB810375
:104DE00003EB430354F8233018447F2870DD7F38E9
:104DF00082FB0032C317C3EB620202EB4202A0EB5C
:104E000082007330DFF8E8B2C0B205F055F9BBF8A4
:104E10000030022B7FF637A999F80000BAF800306D
:104E2000AD4AC31A82FB0321DA17C2EB610202EB1F
:104E30004202A3EB820303EB430304EB83035B68AF
:104E400018447F2840F39B827F380C2290FBF2F3BA
:104E500002FB13007330C0B205F02EF9BBF800302E
:104E6000032B7FF610A999F80000BAF800309A4A8F
:104E7000C31A82FB0321DA17C2EB610202EB420282
:104E8000A3EB820303EB430304EB8304A3681844FE
:104E90007F281ADD7F380C2290FBF2F302FB13000F
:104EA0007330C0B205F008F9FFF7EDB8012B3EF4FE
:104EB0009EA80124FFF7E4B9FBF7E4FBA0E6FBF7AB
:104EC000E1FB12E7FBF7DEFB20E6FBF7DBFBE8E7A5
:104ED000FBF7D8FB96E7DFF814A23868BAF8003081
:104EE0007D4A7F4CC31A82FB031ED917C1EB6E01AA
:104EF00001EB4101A3EB810303EB430354F823309F
:104F000018447F28DEDD7F3882FB0032C317C3EBF5
:104F1000620303EB4303A0EB83007330F6E5DFF895
:104F2000CCA199F80000BAF800306B4A6C4CC31A57
:104F300082FB031ED917C1EB6E0101EB4101A3EB0C
:104F4000810303EB430354F8233018447F28B3DD77
:104F50007F3882FB0032C317C3EB620303EB4303CA
:104F6000A0EB830073304BE6DFF880A13868BAF815
:104F70000030594A5A4CC31A82FB031ED917C1EBA1
:104F80006E0101EB4101A3EB810303EB430354F8F2
:104F9000233018447F2892DD7F3882FB0032C3170C
:104FA000C3EB620303EB4303A0EB830073309CE687
:104FB000FBF768FB09E4FBF765FB83E4FBF762FBA7
:104FC00001E5DFF828A199F80000BAF80030424A5C
:104FD000444CC31A82FB0317D917C1EB670101EBDD
:104FE0004101A3EB810303EB430354F8233018443E
:104FF0007F287FF76DAF7F3882FB0032C317C3EB8A
:10500000620303EB4303A0EB83007330FAE6DFF89F
:10501000DCA03868BAF800302F4A334CC31A82FB40
:105020000321DA17C2EB610202EB4202A3EB820317
:1050300003EB430354F8233018447F2840F398814E
:105040007F380C2290FBF2F302FB13007330DFF881
:10505000A480DFF89CB098F80010C0B205F008F802
:10506000BBF80030022B1AD93868BAF800300C228D
:10507000C11A91FBF2F302FB131302FB03435B68BB
:1050800018447F2840F353847F3890FBF2F302FBEF
:1050900013007330C0B298F8001004F0E9FFBBF8B9
:1050A0000030032B7EF66EADBAF8003038680C2263
:1050B000C11A91FBF2F302FB131302FB0344A36832
:1050C00018447F287FF722AB7F3890FBF2F302FB76
:1050D00013007330FFF77DB9ABAAAA2ABC430100C5
:1050E0009440010058470100E84501008C9FFF1FD4
:1050F000F89FFF1FC69FFF1FDFF814A399F8000059
:10510000BAF80030BD4ABE4CC31A82FB0321DA173D
:10511000C2EB610202EB4202A3EB820303EB430307
:1051200054F8233018447F2840F319817F380C222B
:1051300090FBF2F302FB13007330DFF8D8B2C0B279
:1051400004F0BAFFBBF80030022B19D999F800001F
:10515000BAF800300C22C11A91FBF2F302FB1313D0
:1051600002FB03435B6818447F2840F3E7837F38E2
:1051700090FBF2F302FB13007330C0B204F09CFF0B
:10518000BBF80030032B7EF680ABBAF8003099F8FC
:1051900000000C22C11A91FBF2F302FB131302FB75
:1051A0000344A36818447F287FF795AA7F3890FBB3
:1051B000F2F302FB13007330FFF7B3B9FBF762FAA7
:1051C000FFF784B9FBF75EFAFFF7D7B8DFF840A224
:1051D0003868BAF80030894A894CC31A82FB032127
:1051E000DA17C2EB610202EB4202A3EB820303EB8C
:1051F000430354F8233018447F2840F3B6807F38A7
:105200000C2290FBF2F302FB13007330DFF804B2C0
:1052100098F80010C0B204F02BFFBBF80030022B4E
:105220001AD93868BAF800300C22C11A91FBF2F38F
:1052300002FB131302FB03435B6818447F2840F30F
:105240007A837F3890FBF2F302FB13007330C0B215
:1052500098F8001004F00CFFBBF80030032B7EF62A
:1052600089ADBAF8003038680C22C11A91FBF2F30C
:1052700002FB131302FB0344A36818447F287FF743
:1052800038AA7F3890FBF2F302FB13007330FFF76C
:10529000F9B9DFF87CA199F80000BAF80030574A54
:1052A000584CC31A82FB0321DA17C2EB610202EBEE
:1052B0004202A3EB820303EB430354F82330184468
:1052C0007F2845DD7F380C2290FBF2F302FB1300B0
:1052D0007330DFF840B1C0B204F0EEFEBBF800302E
:1052E000022B18D999F80000BAF800300C22C11A24
:1052F00091FBF2F302FB131302FB03435B681844B8
:105300007F2877DD7F3890FBF2F302FB13007330C8
:10531000C0B204F0D1FEBBF80030032B7EF6B3AE72
:10532000BAF8003099F800000C22C11A91FBF2F390
:1053300002FB131302FB0344A36818447F287FF782
:10534000C4AD7F3890FBF2F302FB13007330A8E585
:10535000FBF798F9BDE7FBF795F9FFF768B9FBF79D
:1053600091F9EAE6FBF78EF973E4FBF78BF94DE769
:10537000FBF788F96BE6FBF785F9FFF7F3BBFBF763
:1053800081F968E5FBF77EF9D9E4DFF884A0386895
:10539000BAF80030194A1C4C40E6DFF874A099F8BE
:1053A0000000BAF80030154A174CADE6DFF860A0EF
:1053B00099F80000BAF80030104A144C71E7FBF776
:1053C00061F9FFF72FBADFF848A03868BAF8003063
:1053D0000A4A0D4C01E7FBF755F9FFF7A3BAFBF7B3
:1053E00051F9FFF71EBB039B1B78002B7EF42DAAFF
:1053F000FEF750BAFBF746F98AE700BFABAAAA2A24
:10540000E8450100E8470100DC4801009440010044
:105410008C9FFF1FF89FFF1FA54C2388002B00F0D7
:105420008783A44ADFF8A0B21288BBF800100332C9
:10543000914228DDA0493868A04A0988B2F800E006
:10544000DFF87CC2411A0C2291FBF2F902FB191120
:105450004FF0900909FB0EFE02FB01E16FF00B0E0D
:105460005CF8011001440EFB03107F2840F33784E1
:105470007F3890FBF2F302FB13007330C0B298F850
:10548000001004F0F5FDBBF8002023881344022B24
:1054900023DD894B894A38681B88B2F800C0DFF8E1
:1054A00020E2C31A0C2193FBF1F201FB123290238C
:1054B00003FB0CF301FB023373445B6818447F2841
:1054C00040F3C3857F3890FBF1F301FB1300733089
:1054D000C0B298F8001004F0CBFDBBF80020238880
:1054E0001344032B23DD744B744A38681B88B2F8CD
:1054F00000C0DFF8CCE1C31A0C2193FBF1F201FBF1
:105500001232902303FB0CF301FB023373449B68BC
:1055100018447F2840F39D857F3890FBF1F301FB11
:1055200013007330C0B298F8001004F0A1FDBBF86E
:10553000002023881344042B7EF71CAC5D4B1B8892
:10554000012B7EF417AC3A68A2F10C007F287FF79C
:10555000D0A88B3A0C2092FBF0F300FB13207330A1
:10556000FFF790B8524C2388002B40F0D682DFF82A
:1055700058B15149514A0988D7F80080B2F800E083
:105580004F48C1EB080C0C229CFBF2F102FB11C14D
:105590004FF0900C0CFB0EFE02FB01E16FF00B0EC6
:1055A000405880440EFB03807F2840F39583A0F190
:1055B0007F0393FBF2F002FB10307330414BC0B21B
:1055C000197804F055FDBBF8002023881344022B02
:1055D00023DD394A394B11883868B3F800C0DFF849
:1055E000E0E0411A0C2291FBF2F302FB131190232D
:1055F00003FB0CF302FB013373445B6818447F2800
:1056000040F374847F3890FBF2F302FB1300733095
:105610002C4BC0B2197804F02BFDBBF80020238876
:105620001344032B23DD244A244B11883868B3F834
:1056300000C0DFF88CE0411A0C2291FBF2F302FB70
:105640001311902303FB0CF302FB013373449B689B
:1056500018447F2840F3E3847F3890FBF2F302FB89
:1056600013007330174BC0B2197804F001FDBBF87A
:10567000002023881344042B7EF784AA0D4B1B883B
:10568000012B7EF47FAA3A68A2F10C007F2840F338
:10569000B7818B3A0C2092FBF0F300FB13207330A0
:1056A000084BC0B2197804F0E3FCFEF76BBA00BFF8
:1056B000149EFF1FA69DFF1F8C9FFF1F3E9FFF1F75
:1056C00024410100C69FFF1FF89FFF1FCE4C238877
:1056D000002B40F0BF81DFF864B3CC49CC4A098885
:1056E00099F80000B2F800E0DFF85483C1EB000C39
:1056F0000C229CFBF2F102FB11C14FF0900C0CFB51
:105700000EFE02FB01E16FF00B0E58F80110084489
:105710000EFB03007F2840F36E83A0F17F0393FB11
:10572000F2F002FB10307330C0B204F0C5FCBBF8DD
:10573000002023881344022B22DDB44AB44B118885
:1057400099F80000B3F800C0DFF8F4E2411A0C2227
:1057500091FBF2F302FB1311902303FB0CF302FB0A
:10576000013373445B6818447F2840F35C847F38BE
:1057700090FBF2F302FB13007330C0B204F09CFC08
:10578000BBF8002023881344032B22DD9F4AA04B43
:10579000118899F80000B3F800C0DFF8A4E2411ABC
:1057A0000C2291FBF2F302FB1311902303FB0CF389
:1057B00002FB013373449B6818447F2840F39D83A8
:1057C0007F3890FBF2F302FB13007330C0B204F099
:1057D00073FCBBF8002023881344042B7EF755A8E4
:1057E0008C4B1B88012B7EF450A899F80020A2F165
:1057F0000C007F287EF76FAF8B3A0C2092FBF0F302
:1058000000FB13207330FEF78CBEDFF800A299F87E
:105810000000BAF80030804CC11A0C2291FBF2F360
:1058200002FB131302FB03F3E35818447F287FF7AE
:105830008FAD7F3890FBF2F302FB1300733048E525
:10584000764B1A88182A13D03B681344A3F118002A
:105850007F2840F34F830C20973B93FBF0F200FB33
:10586000123303F173006E4BC0B2197804F000FCE0
:105870006C4B6D491A78022A94BF013200221A70CB
:105880001A7831F81200182810D10424022A02F1E3
:105890000100C2B288BF002231F81200182804D1DA
:1058A000013CF3D11A70FEF76DB91A703B680344DE
:1058B000A3F118007F2840F3A3800C20973B93FBB3
:1058C000F0F200FB123303F17300E9E6534B1B883F
:1058D000182B12D099F800201344A3F118007F2848
:1058E00040F334830C20973B93FBF0F200FB123320
:1058F00003F17300C0B204F0DFFB4A4A4A4B12784E
:1059000033F81230182B3DF4C0AF99F8002013443F
:10591000A3F118007F287EF7DEAE0C20973B93FBA7
:10592000F0F200FB123303F17300FEF7FABDFAF751
:10593000A9FEFFF7AFBBFAF7A5FE88E4FAF7A2FECF
:105940001BE43A4B1B78002B00F05882384B1B7835
:10595000002B7DF44CAB374B1B78002B3DF447AB51
:10596000B8F8003034490A3BA8F800300A70FDF757
:105970003EBB2A4B1A88182A13D03B681344A3F164
:1059800018007F2840F3BC820C20973B93FBF0F279
:1059900000FB123303F17300C0B298F8001004F05A
:1059A00067FB204B20491A78022A94BF013200225B
:1059B0001A701A7831F81200182810D10424022A1B
:1059C00002F10100C2B288BF002231F8120018288B
:1059D00004D1013CF3D11A70FEF7CCB91A703B68C0
:1059E0000344A3F118007F287EF783AE0C20973B79
:1059F00093FBF0F200FB123303F17300FEF742BE9B
:105A0000FAF740FE4CE600BF149EFF1F8C9FFF1F5D
:105A10003E9FFF1FA69DFF1FE8450100E29FFF1F5D
:105A2000C69FFF1F188AFF1FA89FFF1F33A0FF1FDD
:105A300034A0FF1F35A0FF1F759DFF1FF89FFF1F9C
:105A400024410100DFF828A399F80000BAF80030DB
:105A5000C04CE1E6C04ADFF82CB31288BBF8001056
:105A6000033291427FF763AE37E6BC4B1B88182B9D
:105A700012D099F800201344A3F118007F2840F3B6
:105A800042820C20973B93FBF0F200FB123303F1B0
:105A90007300C0B204F010FBB14AB24B127833F875
:105AA0001230182B7FF431AFFDF7EFBEAB4B1A88E5
:105AB000182A13D03B681344A3F118007F2840F341
:105AC000AB820C20973B93FBF0F200FB123303F107
:105AD0007300C0B298F8001004F0CAFAA04BA149B4
