:1000000000800020BD0100001DDB0000D5DA0000EB
:10001000D5DA0000D5DA0000D5DA0000D5DA000024
:10002000D5DA0000D5DA0000D5DA00001DDB0000CB
:100030001DDB0000D5DA00002106010025060100C5
:100040001DDB00001DDB00001DDB00001DDB0000D0
:100050001DDB00001DDB00001DDB00001DDB0000C0
:100060001DDB00001DDB00001DDB00001DDB0000B0
:100070001DDB00001DDB00001DDB00001DDB0000A0
:100080001DDB00001DDB00001DDB00001DDB000090
:100090001DDB00001DDB00001DDB00001DDB000080
:1000A00045B1000051B100001DDB00001DDB000068
:1000B0001DDB00001DDB00001DDB00001DDB000060
:1000C0001DDB00001DDB00001DDB00001DDB000050
:1000D0001DDB00001DDB00001DDB00001DDB000040
:1000E0001DDB00001DDB00001DDB00001DDB000030
:1000F0001DDB00001DDB00001DDB0000A1EA00008D
:100100001DDB0000B5F100001DDB00001DDB000061
:100110001DDB00001DDB00001DDB00001DDB0000FF
:100120001DDB00001DDB00001DDB00001DDB0000EF
:100130001DDB00001DDB00001DDB00001DDB0000DF
:100140001DDB00001DDB00001DDB00001DDB0000CF
:10015000F1090100050A0100190A01002D0A010038
:100160001DDB000035F500001DDB00001DDB00007D
:100170001DDB00001DDB00001DDB00001DDB00009F
:100180001DDB00001DDB00001DDB00001DDB00008F
:100190001DDB00001DDB00001DDB00001DDB00007F
:1001A0001DDB00001DDB00001DDB00001DDB00006F
:1001B0001DDB00001DDB00001DDB0000564B4CF278
:1001C000205210B51A804DF628121A8000BF00BFC9
:1001D0000DF0A8FC514B4FF010621A60504A9A6023
:1001E000504ADA60504A136813F4807304D14F49BF
:1001F0000B604FF4A85313604D4B1A78110703D5C9
:100200001A7842F008021A704A4B4B492A221A7097
:100210004A4A4B4B8B4204D252F8040F43F8040B6A
:10022000F8E7484B484900228B4202D243F8042B9E
:10023000FAE74649464A002352F8230041F82300D2
:1002400001336F2BF8D1434B434A802103F8011B44
:100250009342FBD1414B3D4A1A60414B8A221A70AE
:10026000A3F5805324225A70A0221A709A7992071B
:10027000FCD59A79D406FCD43A4A937903F00C035E
:10028000082B384BF9D103221A7140225A719A79FE
:100290009006FCD5334A9179324B4906FBD5324A58
:1002A000324911600221516020221A709A7902F0BD
:1002B0000C020C2AFAD12E4B2E4A1A602E4B2F4AD2
:1002C0001A6000225A60072243F8042C2C4AC3F813
:1002D0000C2D62B60DF098FD144B1B68DA0705D59E
:1002E00028480DF07DFD284B284A1A60284B1B78C2
:1002F0005B0609D5244C254B22689A4204D121483B
:100300000DF06EFD002323600DF012FC11F014FFC0
:1003100010F008FCFEE700BF0E20054030800440CE
:10032000823F04000100002B10D0034014D0034092
:1003300002D0074000E007404C9EFF1F1C600100F8
:100340004088FF1F4C9EFF1F4CA6FF1F0082FF1F0F
:100350000000000000E400E05FE400E008ED00E0E1
:100360000050064000400640448004400000030165
:1003700004800440C010050014E000E0FF76010096
:10038000000020208BE927641CE00340A5C3945A99
:1003900000F00740FFFFFFFFFFFFFFFFFFFFFFFF32
:1003A000FFFFFFFFFFFFFFFFFFFFFFFFFFFFFFFF5D
:1003B000FFFFFFFFFFFFFFFFFFFFFFFFFFFFFFFF4D
:1003C000FFFFFFFFFFFFFFFFFFFFFFFFFFFFFFFF3D
:1003D000FFFFFFFFFFFFFFFFFFFFFFFFFFFFFFFF2D
:1003E000FFFFFFFFFFFFFFFFFFFFFFFFFFFFFFFF1D
:1003F000FFFFFFFFFFFFFFFFFFFFFFFFFFFFFFFF0D
:10040000FFFFFFFFFFFFFFFFFFFFFFFFDEF9FFFF23
:1004100010B5054C237833B9044B13B10448AFF33E
:1004200000800123237010BD4C9EFF1F00000000C0
:1004300018600100084B10B51BB108490848AFF31C
:1004400000800848036803B910BD074B002BFBD0A0
:10045000BDE81040184700BF00000000509EFF1F7D
:10046000186001004C9EFF1F0000000038B50446D4
:10047000104621700A491D4611F046FC01464FF016
:100480007E5011F0F5FC074911F03EFCE56060601C
:10049000256165610DF0DEFEE061204638BD00BFDC
:1004A000DB0FC9400024744938B50446104621705A
:1004B00009491D4611F028FC01464FF07E5011F00D
:1004C000D7FC064911F020FCE5606060256165619C
:1004D0000DF0C0FEE06138BDDB0FC9400024744957
:1004E00038B503780446032B20D8DFE803F01A1848
:1004F0001002C168406911F0FDFA0D4905466068B7
:1005000011F0B6FC0146284611F0B2FC38BD08498E
:10051000406811F0ADFCE16811F0F6FB38BDC06831
:1005200038BDC168406911F0E5FA38BD002038BD1A
:100530000024744970B504460E460DF08BFE054646
:10054000E069281A11F08CFBE3682361E5616661BC
:10055000A0610146606811F08BFC0146A060104864
:1005600011F086FC10F05CFF10F0F6FB11F06EFA53
:10057000054601464FF07E5011F0BCFA616911F05A
:10058000C3FB21690646284611F0BEFB01463046F2
:1005900011F0B2FAE0602046BDE87040FFF7A0BF5E
:1005A000000080BF38B50E202C4C0DF06FF9238869
:1005B0002B4A98420546118838DA1A46C91A32D0B1
:1005C000D31AC3EB033301EBD17203EB620303FBDA
:1005D00001F2002A93FBF1F13BDB14200DF090FCBB
:1005E000204B1B88A3BB2288954224DB40F6FF7377
:1005F000C2F57F619D4201F10F012846A8BF184650
:10060000F9B1831AC3EB033301EBD17203EB62033D
:1006100003FB01F2002A93FBF1F11CDB2820BDE86B
:1006200038400DF06DBC40F2FF71D6E788420246BB
:10063000A8BF0A46C2E7C2F57F610F311046002904
:10064000DFD140F2FF712820BDE838400DF058BCE2
:1006500038BD0139C1E70139E0E700BFB09FFF1F96
:10066000849EFF1FE4A0FF1F70B50C46054634F8BA
:10067000023B182B0BD00344A3F118007F283EDC6B
:10068000002858DB334BC0B2197808F0E9FD324E30
:100690003278013202F00302D3B2337034F8120020
:1006A000182810D10422032B03F10101CBB20ABF99
:1006B000002359001946605A182803D1013AF2D193
:1006C000337070BD33702844A0F118037F2B08DC11
:1006D000002B22DB1F4AD8B21178BDE8704008F029
:1006E000BFBD1E4B973883FB0032C317C3EB6203B9
:1006F00003EB4303A0EB830000F17303EAE7174A1F
:10070000973B82FB0321DA17C2EB610202EB420244
:10071000A3EB820303F17300B4E710485A4280FB55
:100720000230D317C3EB600000EB4000A2EB800067
:10073000C0F10C03CEE7094B424283FB0230D317D2
:10074000C3EB600303EB4303A2EB8303C3F10C0091
:1007500098E700BF849FFF1FD889FF1FABAAAA2A72
:10076000F8B5814B814D1B88C31A044685FB0306EF
:10077000D817C0EB660000EB4000A3EB800303EB4F
:1007800043039B00CE18C8582044002A3DD07F2840
:1007900040F38180A0F17F0385FB0320DA17C2EBD1
:1007A000600000EB4000A3EB80007330704F714D90
:1007B0003978C0B208F054FD2B88022B7AD97068C2
:1007C00020447F2877DC0028C0F2BF80C0B239788F
:1007D00008F046FD2B88032B6CD9B06820447F2895
:1007E00040F38580614CA0F17F0384FB0320DA177E
:1007F000C2EB600000EB4000A3EB8000733039785F
:10080000C0B2BDE8F84008F02BBD7F2834DDA0F170
:100810007F0385FB0320DA17C2EB600000EB40008A
:10082000A3EB80007330534DC0B208F03DFD2B8820
:10083000022B3FD9706820447F284ADC002876DBF1
:10084000C0B208F031FD2B88032B33D9B0682044A7
:100850007F285CDD454CA0F17F0384FB0320DA1781
:10086000C2EB600000EB4000A3EB80007330C0B22D
:10087000BDE8F84008F018BD0028D4DA4342D81784
:1008800085FB0325C0EB650505EB4505A3EB850559
:10089000C5F10C00C7E7002888DA434285FB032036
:1008A000DA17C2EB600000EB4000A3EB8000C0F160
:1008B0000C007BE7F8BD2D4AA0F17F0382FB0320EB
:1008C000DA17C2EB600000EB4000A3EB800073304E
:1008D0007CE7264AA0F17F0382FB0320DA17C2EBF4
:1008E000600000EB4000A3EB80007330A8E7002815
:1008F00085DA1E4A434282FB0320DA17C2EB60000E
:1009000000EB4000A3EB8000C0F10C0077E700286B
:10091000ADDA164A434282FB0320DA17C2EB6000CD
:1009200000EB4000A3EB8000C0F10C009FE70F4AF2
:10093000434282FB0320DA17C2EB600000EB400069
:10094000A3EB8000C0F10C007AE7084A434282FB27
:100950000320DA17C2EB600000EB4000A3EB80003D
:10096000C0F10C0032E700BFD0A0FF1FABAAAA2A3B
:10097000849FFF1FD89EFF1F2DE9F8439F4B1B88C4
:10098000013B092B00F2EF80DFE803F00A10161C90
:1009900022282EBCC1059A49BDE8F843FFF764BE82
:1009A00001229849BDE8F843FFF7DABE01229649D3
:1009B000BDE8F843FFF7D4BE01229449BDE8F843EF
:1009C000FFF7CEBE01229249BDE8F843FFF7C8BE4B
:1009D00001229049BDE8F843FFF7C2BE01228E49CB
:1009E000BDE8F843FFF7BCBE8C4B8D4A1B8804461C
:1009F00010881D18002800F08F808A4A1288033260
:100A0000934200F38980022D40F3AD80DFF82C92F1
:100A10008549B9F80020DFF82882844FA21A81FBAB
:100A20000230D317C3EB6000B8F8003000EB400091
:100A3000A2EB800203EBC30302EB42021B0103EBB8
:100A400082033B44586820447F2840F3AA80A0F1E9
:100A50007F0381FB0320DA17C2EB600000EB40004C
:100A6000A3EB80007330724EC0B2317808F0F8FB0F
:100A7000032D78D0B9F800206B48B8F80030A21ADE
:100A800080FB021ED117C1EB6E0101EB410103EBAC
:100A9000C303A2EB81011A0101EB410302EB8303C3
:100AA0003B449B6823447F2B6CDDA3F17F0280FBDA
:100AB0000230D317C3EB600303EB4303A2EB8303C2
:100AC0007333D8B2317808F0CBFB042D4BD0554BA3
:100AD0001B88012B47D1A4F10C007F2871DD524BFC
:100AE000A4F18B0083FB0032C317C3EB620303EB5B
:100AF0004303A0EB830073303178C0B2BDE8F84304
:100B000008F0AEBB4B49BDE8F843FFF7ADBD4A491D
:100B1000BDE8F843FFF7A8BD484B43491B88484F41
:100B2000E31A81FB0326DA17C2EB66063A883F4FC9
:100B300006EB4606A3EB860302EBC20203EB43037C
:100B4000120102EB8303A0EB8000FB58234403EB6C
:100B500080007F2809DC002843DB354BC0B21978C0
:100B600008F07EFB4FE7BDE8F883A0F17F0381FB2F
:100B70000320DA17C2EB600000EB4000A3EB80001B
:100B80007330EAE7002B9CDA5A4280FB0230D3171D
:100B9000C3EB600000EB4000A2EB8000C0F10C034F
:100BA0008FE70028BFF65FAF4342D81781FB0321D0
:100BB000C0EB610101EB4101A3EB8101C1F10C002C
:100BC00051E7002898DA184A434282FB0320DA17DB
:100BD000C2EB600000EB4000A3EB8000C0F10C0012
:100BE0008AE74342D81781FB0321C0EB610101EB87
:100BF0004101A3EB8101C1F10C00AEE7AEA0FF1FE4
:100C0000B89EFF1F94370100583B0100E83B0100EC
:100C1000C83A0100DC330100DC3C0100D89EFF1F14
:100C20008C9FFF1FFC9EFF1FABAAAA2A90340100D5
:100C3000849FFF1FA09EFF1FAC9EFF1FD0A0FF1F21
:100C40009AA0FF1F0A88182A38B50C46054609D015
:100C50000244A2F118007F2829DC002848DBC0B23A
:100C600008F022FB294B197804EB41046388182B08
:100C70002BD02B44A3F118007F2806DC002825DBAD
:100C8000C0B2BDE8384008F00FBB2148973B80FB5D
:100C90000320DA17C2EB600000EB4000A3EB8003F7
:100CA00003F17300C0B2BDE8384008F0FDBA18483F
:100CB000973A80FB0230D317C3EB600000EB400093
:100CC000A2EB800202F17300C9E738BD104B42422B
:100CD00083FB0230D317C3EB600303EB4303A2EBA8
:100CE0008303C3F10C00C0B2BDE8384008F0DCBAA1
:100CF000074A414282FB0132CB17C3EB620202EB8F
:100D00004202A1EB8202C2F10C00A8E7D889FF1FC2
:100D1000ABAAAA2A2DE9F843A54B1B88013B092B56
:100D200000F20381DFE813F00F0015001B00210023
:100D300027002D003300F700FC000A009D49BDE8A4
:100D4000F843FFF77FBF00229B49BDE8F843FFF758
:100D500007BD00229949BDE8F843FFF701BD002215
:100D60009749BDE8F843FFF7FBBC00229549BDE871
:100D7000F843FFF7F5BC00229349BDE8F843FFF7BD
:100D8000EFBC00229149BDE8F843FFF7E9BC904E63
:100D900004463088002800F0CA808E4B8E4D1A8899
:100DA0002B880332934234DD8C4B8D491B88DFF84E
:100DB00040E2E31A81FB0327DA17C2EB6707BEF8AC
:100DC0000020DFF820E207EB4707A3EB870302EBE5
:100DD000C20203EB4303120102EB8303A0EB80008A
:100DE0005EF80330234403EB80007F2840F3A180AA
:100DF000A0F17F0381FB0320DA17C2EB600000EB58
:100E00004000A3EB80007330C0B208F04DFA2B888D
:100E100030881844022840F38880DFF8C091704978
:100E2000B9F80020DFF8C8816E4FA21A81FB0230AA
:100E3000D317C3EB6000B8F8003000EB4000A2EB22
:100E4000800203EBC30302EB42021B0103EB8203AC
:100E50003B44586820447F2840F38A80A0F17F03F8
:100E600081FB0320DA17C2EB600000EB4000A3EB2C
:100E700080007330C0B208F017FA2A883388134410
:100E8000032B52DDB9F800205548B8F80030A21AFB
:100E900080FB021ED117C1EB6E0101EB410103EB98
:100EA000C303A2EB810101EB41011A0102EB8103B3
:100EB0003B449B6823447F2B4BDDA3F17F0280FBE7
:100EC0000230D317C3EB600303EB4303A2EB8303AE
:100ED0007333D8B208F0E8F92A8833881344042B16
:100EE00023DD3C4B1B88012B1FD1A4F10C007F2874
:100EF0004EDD3B4BA4F18B0083FB0032C317C3EBE9
:100F0000620303EB4303A0EB83007330C0B2BDE880
:100F1000F84308F0C9B93449BDE8F843FFF792BE79
:100F20003249BDE8F843FFF78DBEBDE8F8832A4D8E
:100F30003AE70028BFF668AF4342D81781FB032188
:100F4000C0EB610101EB4101A3EB8101C1F10C0098
:100F50005AE7002BBDDA5A4280FB0230D317C3EBAD
:100F6000600000EB4000A2EB8000C0F10C03B0E792
:100F70000028BFF67FAF4342D81781FB0321C0EBA7
:100F8000610101EB4101A3EB8101C1F10C0071E7AB
:100F90000028BBDA124A434282FB0320DA17C2EB75
:100FA000600000EB4000A3EB8000C0F10C00ADE757
:100FB000AEA0FF1FB89EFF1F94370100583B0100F1
:100FC000E83B0100C83A0100DC330100DC3C0100D1
:100FD0008C9FFF1FFC9EFF1FD89EFF1FD0A0FF1FEE
:100FE000ABAAAA2A90340100A09EFF1FAC9EFF1F4F
:100FF0009AA0FF1F10B504460FF0D8FC204610BD84
:1010000070B44C88A04220D901230133DBB21CB25A
:10101000660031F8144084421D46F6D3A04211D038
:1010200005F10045013D965B31F8151032F8153099
:10103000401AF21A00FB02F0641A90FBF4F4E01874
:1010400070BC7047905B70BC704702260125E5E7D5
:1010500038B5274B1B78002B37D015200CF016FC29
:10106000244B1860244B1B88984204DA234C2378C5
:10107000002B32D138BD224A1288D11A2BD082429D
:10108000D4BFC3EB0203C3EB000301EBD174C3EB8A
:10109000C31303EB640303FB01F2002A93FBF1F497
:1010A000B8BF04F1FF34002CE0D0144B1A780AB911
:1010B00001221A70134D2B689C4204D0124BE1B2EE
:1010C000187808F09DF82C6038BD11200EF032F928
:1010D000084B1860C6E73F24E7E70B4B0021187860
:1010E00008F08EF80023074A2370136038BD00BF54
:1010F000B0A0FF1F7C9EFF1F549FFF1F78A1FF1F02
:1011000008A1FF1F70A1FF1F049FFF1F38B50F200C
:101110000EF010F9204B214A1B881060C0F53B608F
:101120000830984228DB1E4A1288D11A28D09042F3
:10113000D4BFC3EB0003C3EB020301EBD174C3EBD9
:10114000C31303EB640303FB01F2002A93FBF1F4E6
:10115000B8BF04F1FF347CB1124B1A780AB90122EE
:101160001A70114D2B68A34204D0104BE1B21878CD
:1011700008F046F82C6038BD0A4C237813B938BD06
:101180003F24E9E7094B0021187808F039F80023DB
:10119000054A2370136038BDB49FFF1F989EFF1F40
:1011A000F4A0FF1F18A1FF1F609FFF1F469FFF1F96
:1011B000521A0FD0411A002B03FB01F102EBD2703F
:1011C0000CDB01EB600101FB02F3002B91FBF2F061
:1011D0000EDB704703EBD37358107047A1EB60012F
:1011E00001FB02F3002B91FBF2F003DB01307047AF
:1011F00001387047704700BF521A10D010B402EB8C
:10120000D274411A641003FB014303FB02F100296D
:1012100093FBF2F010BCB8BF00F1FF3070475810DC
:10122000704700BF70B50E4615460446184610F0CC
:1012300031FFAA1B0FD0A41B002800FB04F402EB13
:10124000D2700CDB04EB600404FB02F3002B94FB74
:10125000F2F00EDB70BD00EBD070401070BDA4EB5F
:10126000600404FB02F3002B94FBF2F003DB01307B
:1012700070BD013870BD70BDF0B40E8886420DD2CD
:1012800003F10043013B31F81350854202D9F0BC11
:10129000FFF7B6BE32F81300F0BC70471088F0BC00
:1012A000704700BF094B1B880C2B09D8084A80B235
:1012B00052F8232028B143F6FE73984203D9108CCC
:1012C0007047108870470349FFF79ABED09EFF1FF2
:1012D000D0360100DC380100494A4A4B2DE9F0477D
:1012E0001B681488484AA3422546178866DBBB4220
:1012F000A8BF3B46454A9C4298461360C8BF234658
:101300005FDD381B57D01B1B00EBD072C3EB833360
:1013100003EB620303FB00F2002A93FBF0F06DDBAA
:10132000FFF7C0FF3A4A3B4B16881B88C0F3C6192B
:1013300009FB06F67F2E8246A8BF7F26002B37D0FA
:10134000444543DD3A4621462846FFF755FF324BD8
:101350001860324C2368994509D0314B1B88002B0B
:1013600046D1304B1B88002B3ED1C4F800902E4C48
:1013700023689A4506D02A4B1B885A1F032A2AD96C
:10138000C4F800A0294C23689E420FD0284B18882F
:1013900048B1234B274A1B88D35C834203D0C0B299
:1013A000F1B207F02DFF2660BDE8F087BDE8F087B9
:1013B000194A1360CDE741F6FF70B1E7134BA04621
:1013C0001C6047453B46A8BF43469AE7B84545469B
:1013D000A8BF3D46B6E7174AD05C2030C0B20AF03D
:1013E0007F0107F00DFFCBE7484607F0A9FFBCE7F8
:1013F000104A4946D05C07F003FFB2E701388FE797
:10140000B09FFF1FE0A0FF1F849EFF1F709EFF1F65
:10141000F29EFF1F889EFF1F4CA1FF1F409FFF1FD2
:10142000C6A0FF1FA29FFF1F54A1FF1FA49FFF1F65
:10143000D6A0FF1F288AFF1F2DE9F04F01208DB095
:101440000DF078FFDFF880B3DFF880A3CBF8000061
:1014500000200DF06FFFBC4BCAF800001B880C2B5E
:1014600000F0E081B94A00211F2B117039D0DFF85C
:101470006093B74BB9F80020B64F53F822600023B1
:101480003B70B54BB54A1B88B5491288013B012A10
:1014900031F91330089300F0E181B24B0393B24B62
:1014A0000293B24B0593B24C00230193B14B1B88BE
:1014B000012B00F01D82B04BDFF818830493AF4B73
:1014C0000693D8F8005000230793AD4B1B88013BCF
:1014D000032B00F24A82DFE813F0F200D000130081
:1014E0001401A84BDFF8E8921B78B9F80010984A6D
:1014F000984F52F82160003318BF01233B70C0E7BA
:10150000284610F0ADFBA04910F0FEFB05460798F9
:1015100010F0A6FB9D4910F0F7FB0146284610F09D
:10152000EBFA10F0B7FD0546C8F80050206810F03F
:1015300097FB954910F0E8FB8046019810F090FB6E
:10154000924910F0E1FB0146404610F0D5FA10F048
:10155000A1FD20608E4B8F4A1B8812888E49DBF8D4
:1015600000800C888D49C3EB050E1D44049BC3F815
:1015700000E0831A1044069A1560039A0D881360E0
:10158000059BA0451860C0F2498145452846A8BF83
:10159000404633462A462146FFF70AFEDAF800A005
:1015A0005445834600F33C8155452846A8BF504624
:1015B0002A4633462146FFF7FBFDA04500F3108184
:1015C0005445C0F20D81DFF81092D9F8000010F0F8
:1015D00047FB734910F098FB724910F08DFA10F038
:1015E00059FDA0F5FF531C3B082B98BF4FF400504A
:1015F000029BDFF8E8811C6843F6FF750444AC42A7
:10160000A8BF2C4624EAE474C9F80040204610F034
:1016100027FB8146387806FB00F010F021FB4FF0E5
:101620007A5110F071FB0146484610F063FA10F051
:1016300031FD5D4BA842A8BF28461B7820EAE07028
:10164000C8F80000002B00F0DD80B4F5005F00F06A
:10165000D98004F093FC554BD8F8000001221A7091
:10166000534C2368834205D080B207F099FDD8F827
:10167000003023600DB0BDE8F08F284610F0F0FA7E
:101680004C4910F041FB0546079810F0E9FA4A4929
:1016900010F03AFB0146284610F02EFA10F0FAFC42
:1016A0000546C8F80050206810F0DAFA414910F0F9
:1016B0002BFB8046019810F0D3FA3F4941E72846BA
:1016C00010F0CEFA3D4910F01FFB0546079810F0C8
:1016D000C7FA3B4910F018FB0146284610F00CFAF7
:1016E00010F0D8FC0546C8F80050206810F0B8FA91
:1016F000324910F009FB8046019810F0B1FA3049E8
:101700001FE7284610F0ACFA254910F0FDFA05460F
:10171000079810F0A5FA2B4910F0F6FA0146284672
:1017200010F0EAF910F0B6FC0546C8F80050206841
:1017300010F096FA1A4910F0E7FA8046019810F076
:101740008FFA2049FDE600BF0AA1FF1F769EFF1F0A
:10175000A489FF1FEEA0FF1F3689FF1FE6A0FF1F11
:101760009C3C010074A1FF1F14A1FF1F709FFF1F6D
:10177000689EFF1F8EA0FF1FFCA0FF1F94A0FF1FED
:101780007889FF1F969EFF1FCDCC4C3FCDCC4C3EA1
:10179000348AFF1F7089FF1FDCA0FF1FF49EFF1F0C
:1017A0009A99193FCDCC4C453AA2FF1FA09FFF1F2D
:1017B0003889FF1F6666663FCDCCCC3D3333733F1F
:1017C000CDCC4C3DCDCCCC3E2C9FFF1FC89EFF1FE7
:1017D000349FFF1FF8A0FF1FDC89FF1F7489FF1FC4
:1017E000B9F80030002B3FF4EEAEC0EB0B03002B3A
:1017F000B8BF5B42092B00F3BA804FF40050DFF80A
:10180000F892F5E6A84C2378002B3FF429AF04F0BA
:10181000B1FB0023D8F80000237021E72046B8E68A
:101820002046C5E6A14B1B78002B00F0C180DFF8F5
:10183000CC929F4BB9F800109E4A9F4F53F821005D
:101840000023012111703B7010F00AFA4FF07C5117
:1018500010F05AFA10F01EFC064612E6974B984A12
:101860001B8898491278013B31F91380002A40F017
:101870009A8011200DF05EFD0190934B03931D683B
:10188000019B9D4240F39780904B914C1B882268AE
:1018900090490491012B904B1B8805938F4B029329
:1018A000C8EB0208304600F02D8110F0D9F9059BF5
:1018B000049951F823108A4B059310F025FA01463C
:1018C000002010F017F9034601984045424629468A
:1018D000B8BF4046FFF7A6FC02990B681844814B3D
:1018E0001B8800EBD0704010012B08607FF4E3AD43
:1018F0007D4B04931D460F200DF01CFD2B680790B7
:101900009842099380F28780704BDFF8F4811B883E
:10191000012B714B00F0B3801A886E4B0A9230464F
:10192000069310F09DF9069B0A9AD8F8005053F8D8
:1019300022106E4B069310F0E7F9089B0146EA1A55
:101940000020089210F0D6F8089A099903460798E3
:101950009042B8BF1046FFF765FC029A136818441E
:1019600000EBD07040101060AFE52068F2E50BF599
:10197000005B0BF1010BC0EB0B0010F071F95C493F
:10198000DFF8749110F0C0F90446D9F8000010F0A7
:1019900067F9584910F0B8F90146204610F0ACF844
:1019A00010F078FB24E615200BF070FF019064E73F
:1019B000404A13705BE54A4B05931D68019B9D42AD
:1019C0001FDA424B424C1B88226842490491012B8A
:1019D000414B1B880693414B02939044304600F0E4
:1019E000A68010F03DF90499069B51F8231010F0E1
:1019F0008BF903460198404542462946A8BF404618
:101A000068E7364B029319461B68314C03EBD373DE
:101A10005B100B604AE5354B0693079A1B680993E8
:101A20009A4221DD294BDFF8D8801B88012B2A4BF5
:101A300000F08A801988274B0B9130460A93D8F81A
:101A4000005010F00DF9089B0B992B4408930A9B4A
:101A500053F8211010F058F9089A0999034607988D
:101A60009042A8BF104676E7029ADFF89480136888
:101A7000D8F8005003EBD3735B10136025E5198889
:101A8000144B0A9130460693D8F8005010F0E8F84D
:101A9000089B0A99EA1A069B089253F82110134BE7
:101AA000069310F031F94FE7A09FFF1F969EFF1F8E
:101AB000A489FF1F769EFF1FEEA0FF1F808AFF1FD5
:101AC000B0A0FF1F2438010074A1FF1F829FFF1FD9
:101AD000689EFF1FB43C0100CC9EFF1F14A1FF1F96
:101AE000709FFF1F8EA0FF1FFCA0FF1F94A0FF1F71
:101AF000CDCCCC3E9A99193FDC89FF1F349FFF1F44
:101B0000F8A0FF1F10F0ACF8059B0499224A51F889
:101B10002310059210F0F8F8034601984045294635
:101B20004246B8BF4046FFF77DFB1C49D5E610F0A2
:101B300097F8069B049951F8231010F0E5F8014638
:101B400000200FF0D7FF54E71A88154B0B92304650
:101B50000A9310F085F80B9A0A9BD8F8005053F8B6
:101B6000221010F0D1F8089B01462B440020089366
:101B70000FF0C0FF089A0999034607989042A8BF42
:101B80001046FFF74FFB029A1368184400EBD07021
:101B90004310136099E400BF709FFF1F14A1FF1F43
:101BA000B43C010008B5244B1B88FBB1234B1B78C8
:101BB000FBB1234B1B78E3B1224B1B78CBB1224BFB
:101BC0001B78B3B1214B22481A78C2B9214A224965
:101BD0000088128809680244B1EB620F09DD012216
:101BE0001A706420BDE8084004F0DCB9174A117887
:101BF00001B908BD1370BDE8084007F075BB154A70
:101C000016490088128809680244B1EB620FF0DDC2
:101C100000221A7007F068FB642004F0C3F9642006
:101C200004F0C0F9642004F0BDF94FF41670BDE86B
:101C300008400CF031BB00BFA2A0FF1F43A1FF1F53
:101C400044A1FF1FBCA0FF1F46A1FF1FCE9EFF1F88
:101C5000F49EFF1FDCA0FF1F2C9FFF1FC89EFF1FCD
:101C600038B5114C232025780BF010FE0F4A42F8AE
:101C70002500131F02F1C400002253F8041F834201
:101C80000A44FAD123780A4907480A4C0133DBB2E7
:101C9000322B81FB025108BF0023D217C2EB211265
:101CA0000370226038BD00BF8A9EFF1FC09FFF1FC8
:101CB0001F85EB51D8A0FF1F2DE9F04FB64CB74D53
:101CC0002068B74F83B00FF0CBFFB64910F01CF877
:101CD000064610200DF02EFB0FF0C2FFB24910F0A7
:101CE00013F831460FF008FF10F0D4F92A8820606D
:101CF0009042964639884ADA1346B1EB020C44D03A
:101D00009B1AC3EBC3160CEBDC7306EB630303FBFC
:101D10000CF6002E93FBFCF3C0F27681A34EDFF8A5
:101D2000B482B6F800C0C8F80030BCF1190F00F05A
:101D3000E080BCF11A0F00F02281BCF11E0F00F010
:101D40004F810126B0469A4B1B88002B00F09E80E5
:101D50009446984A1288032A00F20881704580F25E
:101D600055810A4670466146FFF746FA924B186065
:101D7000924B188880B9924A12886AB9914B1978A7
:101D800001B11A7003B0BDE8F08F3F23C6E7884267
:101D90000346A8BF0B46B0E72A882168DFF8FC910C
:101DA000DFF8F4A18A4279DCDFF818E29EF800C07F
:101DB000BCF1000F34D14FF0010C04288EF800C0A4
:101DC0002ED1002E40F0C3817D4B18880028D9D039
:101DD000B8F1000FD6D023682A883C88934280F25D
:101DE00097811346A41A00F091819A1A04EBD473D8
:101DF000C2EB82125B1003EB420303FB04F2002AE6
:101E000093FBF4F400DB01346F4D2B68A34203D045
:101E1000C0B2E1B207F0F4F92C6003B0BDE8F08F76
:101E2000012800F01B81022800F00D810328CBD18E
:101E3000664B1B88092BC7D0002EC5D023682A8883
:101E40003E88934280F2A7811346B61A00F0A18122
:101E50009A1A06EBD673C2EB82125B1003EB4203B5
:101E600003FB06F2002A93FBF6F600DB0136DFF8EF
:101E700060A1DAF80030B34203D0F1B24A2007F093
:101E8000BFF9CAF800609FE798460126BCF11E0F13
:101E90007FF46EAF0023DFF84091ACE0494B1A7835
:101EA000002A3FF46FAF002401281C7000F0BE80B0
:101EB000022840F03181002E00F0BE80444D2B6896
:101EC000002B00F0B9800420214607F099F93C4B23
:101ED0002C60188800283FF455AFB8F1000F3FF48C
:101EE00051AFC0B2002107F08BF9374B00221A60C6
:101EF00048E7DFF8E49099F80030CBB1DFF8C08014
:101F0000B8F800A0BAF1000F12D0DFF8D08098F82E
:101F100000B09B4500F093805FFA8AF07F2107F0C4
:101F20006FF999F80030B6F800C088F8003011E079
:101F3000DFF8A88098F800A09A4500F08080204B38
:101F40000021187807F05CF999F80030B6F800C065
:101F500088F80030164B1B88002B95D0BCF11E0F63
:101F600040F0288101264FF0000844E0704552DA25
:101F700062467046FFF740F90F4B1860F8E6DFF84D
:101F8000589099F80030002B0BBF012600264FF027
:101F900000084FF00108D6E6009FFF1FA8A0FF1F12
:101FA000A4A0FF1F9A99193FCDCCCC3E0AA1FF1FD8
:101FB00050A1FF1F00A1FF1FB89FFF1F2A9FFF1FF7
:101FC0001CA1FF1F0FA1FF1FEC9EFF1FC6A0FF1F3C
:101FD000BC9FFF1FF0A0FF1F969EFF1F8E9EFF1F3E
:101FE000DFF8F891784B99F800601B88B6FA86F60E
:101FF00076094FF0000899F8002062B3B5F800C0E8
:1020000020683988E646A4E6013B87E68842A8BFF7
:1020100008468646A5E68842A8BF08468646624628
:102020007046FFF7E9F8694B1860A1E626B1684DE4
:102030002B68002B40F08480664B18884AE7012605
:102040004FF000087FE6002E3FF4BEAEDFF880A11F
:10205000DAF8002033E05D4B1A6089E6002E3FF489
:10206000B3AEB7F800904945A8BF49460846B9EB5A
:10207000020900F0848009EBD971821A4910C2EB81
:10208000821201EB420202FB09F1002992FBF9F9ED
:1020900001DB09F10109DFF838A1DAF800204A452F
:1020A00006D05FFA89F10120019307F0A9F8019B9E
:1020B0001888CAF8009002287FF4B8AE4A46216812
:1020C0002888B7F800E081425FDA0146BEEB000ED7
:1020D00058D0091A0EEBDE704010C1EB811100EBF5
:1020E000410101FB0EF0002891FBFEF901DB09F133
:1020F0000109914506D05FFA89F10420019307F0A8
:102100007FF8019B1888CAF800908FE640247BE690
:10211000A342A8BF234665E6032825D12E4B1B8882
:10212000092B89D0002E87D0294D2B68002B83D016
:102130004A20214607F064F8264B2C601888C9E62F
:10214000214607F05DF8234B2C601888C2E640203A
:102150007F21019307F054F8019B188801281ED0B5
:1021600002287FF463AE71E704287FF465AF002E88
:102170003FF462AF2146402007F042F85CE74FF0A1
:10218000400988E74FF04009B3E77145A8BF7146A1
:102190009CE740266BE6B342A8BF334655E6B9F844
:1021A0000000DAF80010B7F8009081420246FFF60E
:1021B0005EAF58E7B5F800C020683988E6460126CA
:1021C0004FF00008C5E500BF50A1FF1FB89FFF1FDB
:1021D000BC9FFF1F1CA1FF1FC6A0FF1F969EFF1FD5
:1021E00008B5114B1B88022B09D0052B07D0032BF8
:1021F00015D0042B0BD00D4B01221A7008BD7F2186
:10220000412006F0FDFF094B01221A7008BD7F2115
:10221000092006F0F5FF054B01221A7008BD402188
:10222000092006F0EDFFE6E7B69FFF1F589FFF1F4E
:1022300038B5074B074D1B88052B044606D02B6885
:10224000834203D0C1B2052006F0DAFF2C6038BD0E
:10225000B69FFF1F28A1FF1F70B5144E144D338881
:10226000144C052B17D029882268914211D0C9B28D
:10227000052006F0C5FF3388022B0CD0052B0AD0B1
:10228000033B012B0CD92A880B4B226000221A70C9
:1022900070BD022BF4D10021412006F0B1FFF2E71E
:1022A0000021092006F0ACFFEDE700BFB69FFF1F3D
:1022B0002CA1FF1F28A1FF1F589FFF1F38B5674B98
:1022C0001B881D2B75D00024654B1B88022B3AD030
:1022D000644B1B88022B77D0634A644B11881B88A0
:1022E0007F2CA1EB0301A8BF7F24002904FB01F28E
:1022F0005F49C0F2A2803F3281FB02011144D01736
:10230000C0EBA110002A1844C0F28880594D286003
:102310008CB1594B1B78002B00F08280BDE838400F
:10232000FFF786BF3F231C44002CD5DA4F4A514BA0
:1023300012881A601046504B1B78002BEED0BDE877
:102340003840FFF789BF4D4B1B78002B6FD1112010
:102350000CF0F0FF4A4B18604A4D2A88002AB7D08B
:1023600049491A680B889342B2DC48490988C81A5F
:102370006FD08A42D4BFC3EB0203C3EB0103C3EBAC
:10238000C31300EBD07203EB620303FB00F2002ADD
:1023900093FBF0F35FDB334A1288022A1C44C3D15B
:1023A0000F200CF0C7FF3A4A2B881060002BBBD0DF
:1023B00014E0344B1C88002C86D0364B1B78002B45
:1023C0000CBF00247F247FE70F200CF0B3FF2D4BC0
:1023D0002F4A1B881060002B3FF47EAF2E4BC0F5B8
:1023E0003B601B88083098429EDB2C4A1288D11A29
:1023F00098D09042D4BFC3EB0000C3EB0200C0EB07
:10240000C01001EBD17300EB630303FB01F2002A60
:1024100093FBF1F387DA013B1C4485E7013875E74C
:10242000FFF7DEFE2868BDE83840FFF701BF152042
:102430000BF02CFA124B18608EE73F3A81FB020139
:102440001144D017C0EBA1101844002AA8BF0130D6
:102450005CE73F239FE7013B9DE700BF0AA1FF1F09
:10246000E6A0FF1F8EA0FF1F10A1FF1F2CA1FF1FC2
:1024700009040281C0A0FF1F589FFF1FB0A0FF1FCB
:102480007C9EFF1FB69FFF1F549FFF1F08A1FF1FC9
:10249000989EFF1F969EFF1FB49FFF1FF4A0FF1F73
:1024A000F8B510200CF046FFC830B0F5FA7FC0F246
:1024B0009680B0F57A6F0146A8BF4FF47A6101F5B6
:1024C0001673B3F57A6FA8BF4FF47A639BB289B2E3
:1024D000914A924C11802220238007F00DF8218828
:1024E0008F4D904C242007F007F80E200BF0CEF90A
:1024F00040F6FF71C8308842A8BF084620EAE07065
:1025000000F2DC5283B28A42A8BF0A460220194672
:1025100022802B8006F0F0FF2188042006F0ECFFDB
:1025200001200CF007FF044600200CF003FFA0423E
:10253000B8BF204600F1C801B1F5FA7FC0F2D680DD
:10254000B1F57A6FA8BF4FF47A6101F54873B3F51E
:102550007A6FA8BF4FF47A639BB289B2724A734C08
:1025600011800A20238006F0C7FF21880C2006F086
:10257000C3FF0F200CF0DEFEC0F53F610431B1F562
:10258000AF6FC0F2B080B1F5FA6FA8BF4FF4FA6137
:1025900089B2674BC0F54360B0F5AF6F1980C0F2E8
:1025A0009B80B0F5FA6FA8BF4FF4FA6083B2614C1C
:1025B000A420238006F0A0FF2188A62006F09CFF1F
:1025C00015200BF063F900F59671B1F52F7F0BDB49
:1025D00041F25C23994240F38E80194608E040F2B4
:1025E0004C434FF4FA7173E740F214534FF42F71D8
:1025F000514A1180514C524D2380062006F07CFF39
:102600002188504E082006F077FF00274FF4AF7462
:10261000F9B24D4808F0CCFD55F8043BC3F596736C
:1026200000FB03F086FB0023C017C0EB631084425D
:1026300007F10107A8BF0446062FE9D1434F414ED9
:102640000025E9B2424808F0B3FD57F8043BC3F552
:10265000967300FB03F086FB0023C017C0EB6310EA
:10266000844205F10105A8BF04460C2DE9D1394F7C
:10267000344E0025E9B2384808F09AFD57F8043B7B
:10268000304AC3F5967300FB03F086FB0013C017B6
:10269000C0EB6310844205F10105A8BF04460C2D70
:1026A000E8D1A4F11401312919DD40F23A73A4F5FF
:1026B000B97403FB04F4963C82FB0432E417A4EBE8
:1026C000621289B232322548254B01801A602A20D5
:1026D000BDE8F84006F010BF4FF4AF6367E740F283
:1026E0006C723221EFE74FF4AF6152E740F21453BE
:1026F0004FF4FA7132E7104A00F5617089B2B0F513
:102700002F7F1180B8BF4FF42F73FFF673AF834252
:10271000A8BF03469BB26DE7A8A0FF1FA4A0FF1FA0
:10272000B09FFF1F849EFF1FDCA0FF1FF49EFF1FB2
:10273000B49FFF1FF4A0FF1F549FFF1F08A1FF1F9E
:10274000688AFF1FB5814E1BD49EFF1F388AFF1F6A
:10275000309FFF1F4089FF1FA89FFF1F40A1FF1F41
:10276000248AFF1F2DE9F04F0C2083B00BF05AF89C
:102770000C200BF0C3FCCA49DFF8ACA314200BF00B
:10278000CDFCC849C84808F0DFF9022103200BF04E
:102790005BFD022104200BF057FD022105200BF008
:1027A00053FD022106200BF04FFD01210A200BF002
:1027B0004BFD012109200BF047FD01210D200BF0FD
:1027C00043FD012128200BF03FFD012114200BF0D7
:1027D0003BFD012116200BF037FD012117200BF0E6
:1027E00033FD012121200BF02FFD02211C200BF0D5
:1027F0002BFD01211B200BF027FD00211B200BF0DE
:102800000FFD1C200BF012FDB0FA80F35B091A20BB
:102810008AF800300BF00EFF1F2000210BF0D0FED5
:1028200004200BF003FD002800F0908105200BF040
:10283000FDFC002800F0BB8100239C4C0620237087
:102840000BF0F4FCB0FA80F35B094FF0000B984AF0
:10285000137005F073F92378002B40F0728158460D
:1028600006F074FE934B94491B88944840F23A72E8
:10287000A3F5AF7302FB03F3963B81FB0321DA1749
:10288000A2EB61128E49002BD4BF02F1320302F198
:10289000310309888B4A017001210D2013600BF070
:1028A000BFFC64200BF0F8FC06244FF416710A20DC
:1028B0000BF026FB00940C237B4A83485D2108F033
:1028C000DFFC002800F0B08164200BF0E5FC002163
:1028D0000A200BF015FB4FF4967109200BF010FB4A
:1028E00000940C23704A79485C2108F0C9FC002848
:1028F00000F0878164200BF0CFFC002109200BF051
:10290000FFFA4FF4967116200BF0FAFA00940C239C
:10291000654A6F485B2108F0B3FC002800F04E8147
:1029200064200BF0B9FC002116200BF0E9FA4FF4FB
:10293000967117200BF0E4FA64200BF0ADFC002137
:1029400017200BF0DDFA64200BF0A6FC00210D200F
:102950000BF066FC5F4A60481268DFF8D0915F4F69
:102960005F4D604EDFF8C88100230121FDF79CFD1B
:102970000023012289F800203B602B60336004248F
:102980000F200CF0D7FC336803440E2033600AF0AC
:102990007DFF3B6899F8002018443860002A00F059
:1029A000C98015200AF072FF2B681844286004F0D3
:1029B000010080F0010003F0E5FAB8F80030002BC8
:1029C00014BF4B20DC200BF067FC013CD8D13368EE
:1029D0003968424A2868444F002BB8BF03330029A6
:1029E000B8BF0331891011604049414A09881488F1
:1029F0009B1000283360B8BF03303E4E8210581A37
:102A000019442A60316038603B4D3C483C49161BF4
:102A100022442E6002600B60BBF1000F40F0AF80DB
:102A2000B8F80030002B00F09D80364B01240420C4
:102A30001C600BF0FBFB18B9334B204A1C70107064
:102A4000324B1B881C2B00F0A280314C04F1C805CE
:102A500023200AF01BFF44F8040F01200BF01CFC9C
:102A6000A542F5D19AF8003023B12A4B1B78002BF0
:102A700040F09880002121200BF0D2FB264A274B02
:102A80001078187006F0FEFC03F074FA244925480B
:102A900045F6BF5203B0BDE8F04F0DF03DBF00BF9B
:102AA000001B374640420F005092FF1FDA9EFF1F67
:102AB00098A0FF1F40A1FF1FB5814E1B6C9FFF1FF9
:102AC0005AA1FF1F248AFF1FD49EFF1FA89FFF1F2C
:102AD000309FFF1F3C89FF1F089FFF1F809EFF1F25
:102AE000689EFF1FF8A0FF1FFCA0FF1F348AFF1F76
:102AF0007089FF1F94A0FF1F74A1FF1F709FFF1F0D
:102B00005CA1FF1F04A1FF1F9D9EFF1F0AA1FF1FC5
:102B1000BC9FFF1FAAA0FF1FACA0FF1F8DA0FF1F1F
:102B2000A505000030A1FF1F90A0FF1FB0A0FF1F50
:102B3000D2A0FF1F11200CF0FDFB2B681844286069
:102B400035E703B0BDE8F04F07F010BF06200BF0EB
:102B50006DFB00287FF46AAE364C034620704FF0C0
:102B6000010B74E64FF4FA7003F01CFA03F006FA56
:102B700005F04CFB4FF4AF600BF08EFB55E7FFF711
:102B80008FFCB8F80030002B7FF44FAFEAE72A4BF8
:102B9000188800283FF459AF284BC0B2197806F0C6
:102BA0002FFB52E7012121200BF03AFB66E70320BF
:102BB0000BF03CFBB0FA80F35B093EE603200BF020
:102BC00035FB0028FAD104200BF030FB0028F5D1AA
:102BD00005200BF02BFB0028F0D106200BF026FB84
:102BE0000028EBD10CF0A4FC04200BF01FFB40B933
:102BF00005200BF01BFB20B906200BF017FB00286B
:102C0000F0D003200BF012FB0028FAD1ECE70420EF
:102C10000BF00CFB40B905200BF008FB20B9062097
:102C20000BF004FB0028DDD003200BF0FFFA002896
:102C3000FAD1ECE7DA9EFF1F749FFF1FFE9EFF1F75
:102C40002DE9F04FB14C2278012A95B000F00483B1
:102C5000C0F00B82022A00F0D680AD48DFF854E3C2
:102C600090F80080AB48AC4DAC4FAD4EAD4BAE498B
:102C70000390AE480190AE489EF800B000902D78C9
:102C8000AC483F7896F800E01B780978DFF82CA371
:102C9000DFF82CC3DFF82C930290012A94BF013295
:102CA00000222270A44AA5481370A54A80F800B0FB
:102CB0001570A448A44A077082F80080A348A44A6B
:102CC00003701170BEF1000F40F01681A14A108808
:102CD0000D2800F0BB81A04C002020700246044665
:102CE0002DB19C480088002840F0BC8105469B48D7
:102CF00006882544002E40F069819948994C009E31
:102D00000078367824780130A0EB4600002C40F0A3
:102D10001D83029C94F800E0CEEB0004BEF1000F8E
:102D200040F054830026DFF888E203989EF800E024
:102D30000078A41BA4EB4E043C44CBEB040410B17C
:102D4000B7FA87F040099CF800602718BC1B1EB139
:102D50001EF1000618BF0126019F99F8000097F8A0
:102D600000909AF800C0804FC6EB040EC0EB0E0036
:102D7000A0EB49008044C3EB0803A3EB41010C2303
:102D800013FB0C113960794B794F7A4C7A481B88C8
:102D90000088D7F800C0794E2788794C3688D4F857
:102DA00000E0033BC0EBC00403EB4303C7EBC700E9
:102DB00001EB83036444734F33447044724E57F8FD
:102DC000244056F820000C3B1D44254405440AB11C
:102DD0006E4B19606E4A13689D4200F033816D4B53
:102DE0006D4819680791079901601B6808936B4843
:102DF000089B008815605B1A834284BF684B1D6086
:102E000015B0BDE8F08FDFF8C081664E08AF002531
:102E1000E9B2654808F0CCF958F8043BC3F596735D
:102E200000FB03F086FB00230135C017C0EB6310E5
:102E30000C2D47F8040BEBD15C4B3D4D00953D4DFF
:102E4000B3F800C00295109D09980F99454EDFF820
:102E5000D0A0DFF8C490DFF8CC80654511AA8CCAF9
:102E6000AE46ACBF4FF0000E4FF0010E8445D4BF0C
:102E70000020012030708C452D480B9D244E8AF88F
:102E800000E0D4BF00210121017094452949214867
:102E90000390D4BF002201220A709C45444A234873
:102EA000DFF818A10190D4BF00230123BC45AB4635
:102EB000D4BF002701271370AC45184B0C9D1F7021
:102EC000D4BF4FF0000B4FF0010B3A4B227883F840
:102ED00000B0AC45DFF850C098F800309CF8001006
:102EE00096F80080DFF8D8C0D4BF0025012589F806
:102EF0000050DFF8D090D0E62F4A174814880122FE
:102F0000182C027040F22A820024E9E68CA0FF1FF0
:102F1000BDA0FF1F45A1FF1FC9A0FF1F569FFF1F98
:102F200080A1FF1FC4A0FF1FC5A0FF1F0DA1FF1F91
:102F300022A1FF1F23A1FF1F7AA1FF1F7BA1FF1F5B
:102F40007CA1FF1F7DA1FF1F7EA1FF1F7FA1FF1F8F
:102F50000EA1FF1F82A1FF1F969EFF1F749EFF1FE1
:102F6000368AFF1F64A1FF1FCCA0FF1FEAA0FF1F2E
:102F7000B89FFF1F5A9FFF1F00A1FF1F8C9EFF1FBE
:102F80004CA1FF1FE83901006C380100F89EFF1FBB
:102F90004C9FFF1F58A2FF1F389FFF1F1AA1FF1F42
:102FA00068A1FF1FB5814E1BA89FFF1F40A1FF1FF7
:102FB00024A1FF1F579FFF1F0AA1FF1F99A0FF1FFA
:102FC00079A1FF1F0CA1FF1F4089FF1F012E00F0F8
:102FD0007982022E00F0D982032E824B00F0FB8111
:102FE0001E78019B9CF800E01C78009B99F800C0BB
:102FF0001878039B93F80080029B1F78A6EB4E0382
:10300000A4EB8404CCEB030CC0EB80760CEB040344
:10301000C0EB8600034403EB480303EB810327B1B5
:1030200071490978002940F0388301269AF8001088
:103030006E48C1F1060101EB4101334403EB81010C
:103040000160A0E66A496B4B0968CEE6002D3FF4AB
:1030500042AE694A694E14880122182C327040F23F
:103060007D817446A0F10D0541E6DFF8D481644E00
:1030700008AF0025E9B2634808F09AF858F8043B15
:10308000C3F5967300FB03F086FB00230135C017E0
:10309000C0EB6310062D47F8040BEBD1089A5A4B8E
:1030A000009216461A88DDF82490DDF82880574BE8
:1030B000DDF82CC0DFF88CB119880C980D9DDFF875
:1030C00088A19642ACBF4FF0000E4FF0010E4A456A
:1030D000D4BF0027012742450EEB0703D4BF0026CB
:1030E000012662458BF800E03344D4BF4FF0000E58
:1030F0004FF0010E03EB0E0B454B8AF80060824245
:103100001F70D4BF002701270BEB0703DFF83CB18A
:10311000404E8BF800E0AA42D4BF4FF0000E4FF0B3
:10312000010E377073443C4E3C4FDFF824A187F802
:1031300000E0DBB201293370394E8CBF0027012734
:103140003770AA424FF000068AF8006040F31381FE
:10315000824200F38481012940F28181624540F37B
:103160001181424500F3B582012940F2B2824A45FD
:1031700040F31181009E9642C0F2CC82012940F2B8
:10318000C982284E3778012F40F20D8109B18AF8A3
:103190000070254F3F88002F00F0C182002B40F0C7
:1031A000BE82224B1B88013B9BB2062B00F2B782EA
:1031B0001F4B1B78002B00F0B2821E4B1B68012BAB
:1031C00040F0F1801C4BDFF88CC0D3F800E00C23FA
:1031D0009EFBF3F703FB17E3ACF80030174B032714
:1031E0001F70E0E0368AFF1F24A1FF1FCCA0FF1F45
:1031F000389FFF1F58A2FF1F0AA1FF1F969EFF1FA7
:10320000B5814E1BD49EFF1F40A1FF1F88A0FF1F4A
:1032100043A1FF1F46A1FF1FF09EFF1F47A1FF1FF5
:10322000E8A0FF1FA6A0FF1FECA0FF1FAEA0FF1F7E
:10323000B29FFF1F04A1FF1F68A1FF1FD889FF1FB6
:10324000688AFF1F42A1FF1F44A1FF1FBCA0FF1FF0
:1032500099A0FF1FD0A0FF1FDFF85882834E08AF50
:103260000025E9B2824807F0A3FF58F8043BC3F5F4
:10327000967300FB03F086FB00230135C017C0EBFB
:1032800063100C2D47F8040BEBD17A4B0C9D1F8873
:10329000794B0393794B01930B9B0A98099ADFF8BA
:1032A00018C2089EDFF814920F99BB429E46ACBF2D
:1032B0004FF0000E4FF0010EAF42D4BF00250125A4
:1032C0008742109B8CF80050D4BF002001206B4D2A
:1032D00089F800009742D4BF00220122B742D4BF30
:1032E0004FF000084FF001082A709F42644A654879
:1032F000614E80F80080D4BF002301231370129A1E
:10330000614886F800E08F42D4BF00210121974236
:10331000017055DC00220D985C4E5D4DDFF8A0A1D8
:103320002A708742D4BF00270127377059485A4A6C
:103330005A4E5B4D07785B4800905B4892F800E07E
:1033400096F800B02D7822780290A6E4029C46B14F
:103350002678002E40F08681441EE4E40C3C0122D5
:10336000BEE494F800E00138CEEB0004BEF1000F9B
:103370007FF4D9ACD6E482427FF7F0AE624557DCE9
:10338000012955D942457FF7F2AE4A4500F3BD8188
:10339000012940F2BA81009E9642BFF6F2AE0123A7
:1033A000424E8AF80030032946D1AA4244DD8242C7
:1033B00042DC3378062B3FD107238AF800303DE00A
:1033C000119A9742D4BF00220122A4E7002E3FF4B5
:1033D000A9AC0126A7E41C78019B039893F8008010
:1033E000009B9CF800601B7890F800C099F8007072
:1033F0000298A4EB4604E71B90F800E0C3EB83744B
:10340000A8EB88003844C3EB8403034403EB4C036C
:1034100003EB8103BEF1000F40F0448101269AF8CE
:103420000010234833440C2414FB01310160AAE44A
:1034300005231E4E8AF800309AF800301149124ACE
:103440000F4891F8008011780B4A03920B4A3370B1
:10345000DFF864C00378DFF86490019266E7062322
:1034600003298AF80030114EE8D1A0E7B5814E1B40
:10347000309FFF1F40A1FF1F45A1FF1F0DA1FF1F90
:10348000C4A0FF1FBDA0FF1FC5A0FF1F989FFF1F67
:10349000F69EFF1F569FFF1F80A1FF1F579FFF1F14
:1034A000C9A0FF1F22A1FF1F23A1FF1FA6A0FF1F6E
:1034B000CCA0FF1F388AFF1F79A1FF1F0CA1FF1F9F
:1034C00099A0FF1F994CDFF874E2207805909EF8D0
:1034D000004000980494059C007800900134A4EB0F
:1034E00040040498002840F0AE80029890F800E074
:1034F0000498261ACEEB06000490BEF1000F40F0AF
:103500009D80744603988A4E00780290049836781D
:103510000396041BA4EB460402983C44CBEB040442
:10352000002800F08680B7FA87F040099CF8006018
:103530002044871B1EB10398061C18BF0126019C5E
:1035400099F800002478BE1B301AA0EB4400804498
:103550000098C3EB0803A3EB4103002866D1BEF13A
:10356000000F40F0AE807344002C79D100290CBFCD
:1035700000206FF009009AF800106E4C03440C20F4
:1035800010FB01312160FFF7FEBB029E009C3678E4
:103590000296019E247800943478654E664899F826
:1035A00000E0019496F80090644C9DF808608670E5
:1035B0009DF80060067080F806E09DF8046080F8D1
:1035C00003909CF800C02478DFF88091DDF800E0DB
:1035D00080F80880077180F805C0C6714172447098
:1035E0004FF00008012001950021534C0D465FFA71
:1035F00088FC4F46764607E0022809D00A290BD0FE
:1036000014F8016F17F8010F864201F10101F3D19F
:1036100001350A29EDB2F3D1092D5FD808F101086F
:10362000B8F1100F22D019F80A0FDDE74FF0000EA5
:1036300099E702987AE7CEEB040004900098041C06
:1036400018BF01245EE70098002835D0029890F852
:1036500000E0BEF1000FEED1601E0490744651E709
:10366000002088E7841B0126FFF75DBB2F48344903
:103670000478C86B0399019D097801342044CBEB91
:103680000000084400219AF800402A4B401A0C21FF
:1036900011FB04011960FFF776BB1BF1000618BF90
:1036A0000126C3E42249097800293FF4B7AE1BF193
:1036B000000618BF0126B2E6029890F800E03046F6
:1036C00017E7039800280CBF4FF0000E4FF0090ECB
:1036D00049E704238AF800301A4E64E61348184973
:1036E000047851F828000399019D09780134204499
:1036F000CBEB000066460844002BC3D0002EC1D19E
:10370000BBF1000FBED00121BDE703238AF80030D2
:103710000C4E48E602238AF800300A4E43E60A4B74
:103720001B68012B7FF43FAE58E500BF368AFF1FB0
:1037300024A1FF1FCCA0FF1F789FFF1F64A1FF1FC4
:10374000E489FF1FA6A0FF1F04A1FF1F2439010069
:103750002DE9F04F3F4B1B788BB0002B75D10E201D
:103760000AF094F80EF07CFA01463B483B4C3C4D85
:10377000FCF7E0FE3848FCF7B3FE0EF08BFC80F35C
:103780000C002060FFF75CFA2E68012E00F08880A4
:10379000022E00F0D282032E00F01984314C324EFA
:1037A0002368324A324C0993099B2168128833609E
:1037B000591A013A91422C4F00F277822D4C22681F
:1037C0009A1A092A00F260822B4C22689A1A0D2A52
:1037D00000F25582294C22689A1A252A1AD9284BB8
:1037E0001B88002B40F0A481264B1B78002B40F057
:1037F0009F81FEF735FA244B1B881B3B9BB2022BA3
:1038000004D8224B1B78002B40F0958102F0DCFBA2
:10381000336823601E4C22689A1A502A00F21382E1
:103820001C490A689A1A052A03D91B4A0B6001230E
:1038300013701A4B1B88012B00F03C8205F086FCAC
:1038400005F040FB0BB0BDE8F08F06F017FF0BB0A2
:10385000BDE8F08FDA9EFF1F089FFF1FE0A0FF1F4B
:1038600004A1FF1F58A2FF1FB8A0FF1FE089FF1F80
:10387000AC9FFF1F909FFF1F649FFF1F689FFF1F4C
:10388000A2A0FF1FCE9EFF1F0AA1FF1F969EFF1F33
:103890009CA0FF1F909EFF1F949FFF1FE4A0FF1F8F
:1038A000DFF83893A94AB9F800001378834204D0AE
:1038B000C3B21846137005F03BFCDFF82483A44A1A
:1038C000B8F800301178994204D0A24F3978002915
:1038D00040F0A487A04A23681288A04C9A42C0F204
:1038E00089819F4A1278002A40F08481DFF8F4A28F
:1038F000BAF8003023B99B4B1B88002B00F00886D8
:10390000994A9A4B11881B88994A0B4412685B109C
:103910009342984A126880F23F8500219342B4BFD7
:1039200001230B4604910293ACBF4FF0010B8B4671
:1039300005910E2009F0AAFF8F4B904A1B68039354
:103940000133002B8446176840F37E87802BA8BF85
:1039500080238B4A8B4912780191002A00F0548110
:103960000978914200F05081B8F80010DFF870E259
:10397000994201F086817749AEF80030824B4FF0D2
:10398000010E81F800E01978DFF85CE27F4B0198C6
:103990001B7802708EF80010002B40F0FB82029B17
:1039A000002B40F0F282A7F252339C4533DA6D4B84
:1039B0001B88002B2FD0BBF1000F40F0EB82744B23
:1039C0001B881BB1059B002B40F0E482049B13B3C2
:1039D000704B1A78FAB9DFF8149299F80060012256
:1039E0001A70002E40F061856B4B1B78002B41F064
:1039F000C2826A4B1B78002B01F0D382684B1B7884
:103A00004BB9684B1B7833B1B8F8003051490A33D1
:103A1000A8F800300A700E2009F038FF6FF45473D4
:103A20001F44874202DC5B4B00221A705E4B1B88EE
:103A3000002B00F0DB845D4B5D4A1B7811789942C6
:103A400069D0002B67D057490878002800F0DB8741
:103A5000584991F800C0BCF1000F40F0D287564F92
:103A6000DFF88CE1554EDFF864A13F788EF800C096
:103A70004FF0010E02968AF800C086F800C081F867
:103A800000E03FB100260E7002994FF0010E8AF857
:103A900000E00E7040490978002901F07580484E19
:103AA00096F800E0BEF1000F41F07781DFF80C815D
:103AB0004FF0010C88F800E086F800C0374E3678E9
:103AC00096B1DFF82CE19EF800C0BCF1000F41F088
:103AD0005E81DFF8E0904FF0010889F800C08EF8B1
:103AE0000080002901F055803649097899B13348A2
:103AF0000178002941F04781DFF8B8E0324F334EBA
:103B00008EF800104FF0030E87F800E02C4F317054
:103B100001263970067013702D4B1B88A3F11B0210
:103B2000012A40F269861D2B00F08786294E37E670
:103B3000FEF738F85DE6284B1B78002B3FF466AEA5
:103B40002B68012B7FF462AE62E600BF8DA0FF1FE1
:103B50006C9FFF1F9D9EFF1FB09FFF1F58A2FF1F5E
:103B6000CE9EFF1F9A9FFF1FF49EFF1FDCA0FF1F2A
:103B70002C9FFF1FC89EFF1FF89EFF1F809EFF1FE8
:103B800058A1FF1F449FFF1F59A1FF1F989FFF1FB0
:103B9000B2A0FF1FF19EFF1F7AA1FF1F7BA1FF1F95
:103BA0007CA1FF1F7DA1FF1FAEA0FF1FF69EFF1F80
:103BB0006C9EFF1FD4A0FF1F7EA1FF1FB29FFF1F9F
:103BC000489FFF1F969EFF1FD889FF1F1EA1FF1F42
:103BD0000AA1FF1FB8A0FF1F0EA1FF1FACA0FF1F6F
:103BE0005AA1FF1F509FFF1F459FFF1F99A0FF1F56
:103BF0009C9EFF1F2168974A06910698964910607F
:103C000002220B602A6071E69449DFF8C0E209786D
:103C100000293FF4BBAE9EF8000081423FF4B6AEEF
:103C200003984B2840F3DD871833802BB8F8000049
:103C3000A8BF802398423FF4A9AE894803808948F1
:103C400001230370A2E603F0C5FF874B1B788BB9F5
:103C5000864B1B7873B9864B1B785BB9854B1B78F9
:103C600043B9854B1B782BB9844B1B7813B902F0F1
:103C700081F901E002F08AF933682360D0E5FEF7AC
:103C80001DFB33682360A5E5FDF7D6FBFEF714F8AE
:103C90007B4B1B88032B00F0DD857A4B1B88032BA5
:103CA00000F0DC85336823608EE5FDF715FB3B688B
:103CB000236083E5744A754B12681C687449A82315
:103CC00003FB02F202F5FF521F3281FB023188181A
:103CD000D117C1EB6031002A6E48A4F11804ACBFC3
:103CE000A1F15402A1F155022A236B4903FB04F30D
:103CF0000478096869481A446FF0140303FB04232D
:103D00000360002900F0E582654D66482A78002AA4
:103D100000F002840468A34240F32687D1F17F01BA
:103D200048BF033104EBA10101318B42C0F28F8502
:103D300001600B4600222A70CDE25B4B26681A8890
:103D4000B24204DB4D4B1B78002B00F00D84574C26
:103D5000404823680793564B079900681B88091A47
:103D6000994200F2B980002B00F0B680514B1988BF
:103D700000293FF4DBAE384B4F481B680088B34244
:103D8000B8BF33469A4201F393804C4A8342A8BF9E
:103D900003461360DFF8388188F800103B4FFDF7C9
:103DA0009BFA38687F2840F31A86454AA0F17F03C2
:103DB00082FB0320DA17C2EB600000EB4000A3EBAC
:103DC000800073303F4B01931B883860002B40F01C
:103DD0005187DFF89CA09AF80030002B00F069842E
:103DE000394E3378002B00F06484DFF8E8904FF010
:103DF000000B0CE003F17300C0B298F8001005F05E
:103E00002FFA33780BF1010B5B4540F352843B688A
:103E100059F8040F18442A4BA0F17F0283FB0231AA
:103E2000D317C3EB610303EB43037F28A2EB8303A8
:103E3000E0DC0028E0DA224A434282FB0320DA1762
:103E4000C2EB600000EB4000A3EB8000C0F10C006F
:103E5000D2E700BF5C9FFF1FB4A0FF1F59A1FF1F47
:103E60005AA1FF1F9D9EFF1FB29FFF1FD4A0FF1FDF
:103E70001EA1FF1F489FFF1F9C9EFF1FCE9EFF1F7E
:103E8000E6A0FF1F8EA0FF1FDC89FF1F68A1FF1F98
:103E900009000280EEA0FF1FC0A0FF1F889FFF1F28
:103EA000949FFF1F9C9FFF1FB09FFF1F58A2FF1FE3
:103EB000969FFF1F949EFF1F849EFF1F709EFF1FF3
:103EC000ABAAAA2A289FFF1FA089FF1F459FFF1F9B
:103ED000849FFF1F7889FF1F6F4B70491B680888FC
:103EE0006F49B342B8BF33469A4200F319836D4E0F
:103EF00009888342A8BF0346336000297FF44AAF94
:103F00009A42C8BF134640F31283801A00F0048718
:103F10009B1AC3EB833300EBD07203EB620300FB0D
:103F200003F2002A93FBF0F0C1F21D80FDF7BAF90D
:103F3000C0F3C6100DF094FE5B4B064618880DF0DA
:103F40008FFE5A49074630460DF0DEFE01463846E0
:103F50000DF0DAFE31460DF0CFFD4FF07E510646F2
:103F60000EF070F8002840F09887514930460EF066
:103F700087F8002840F0048730460EF0B1F8C0B250
:103F8000DFF8548188F8000008E7BAF80030002B09
:103F90003FF409AD474B1B685A1C002A40F30A82C4
:103FA000802A00F30682444E4449454836880988F1
:103FB00000683144B0EB610FC0F2DC86A3F1480227
:103FC0000F2A3FF628AD473BA9F8003023E53D4BCB
:103FD00020681988814240F387803B4B1B78002B77
:103FE00040F08280DFF8F49099F800007F280CDD23
:103FF000364AA0F17F0382FB0320DA17C2EB600090
:1040000000EB4000A3EB80007330314B01931B8821
:10401000C0B289F80000002B40F03B87DFF8C0A059
:104020009AF80030002B00F0FF842A4E3378002BE2
:1040300000F0FA84DFF8ACB0244F4FF000080AE03B
:1040400003F17300C0B205F02FF9337808F10108CD
:10405000434540F3E9845BF8043F99F800001844B5
:10406000A0F17F0287FB0231D317C3EB610303EB9F
:1040700043037F28A2EB8303E2DC0028E2DA434219
:1040800087FB0320DA17C2EB600000EB4000A3EBD4
:104090008000C0F10C00D5E7B4A0FF1F849EFF1F75
:1040A000949EFF1F709EFF1F789EFF1FCDCCCC3DBE
:1040B0000000FE42CCA0FF1FA8A0FF1FA4A0FF1F6E
:1040C000009FFF1FB09FFF1FCE9EFF1FABAAAA2A13
:1040D000289FFF1FA089FF1F849FFF1FC8A0FF1FED
:1040E0001EA1FF1F7889FF1FC64F3B687F2B40F33F
:1040F0002282C54EA3F17F0286FB0236D317C3EBA3
:10410000660303EB4303A2EB83037333DFF870937F
:1041100099F800609E4200F05F82BC4B1B88002B28
:1041200046D1BB4BBB4A1B681088994240F3BA8505
:104130000B46401A00F0B285591AC1EB813100EBF1
:10414000D07301EB630303FB00F2002A93FBF0F052
:10415000C0F20687FDF7A6F8C0F3C6100DF080FD8B
:10416000AD4B804618880DF07BFDAC498246404639
:104170000DF0CAFD014650460DF0C6FD41460DF05A
:10418000BBFC4FF07E5180460DF05CFF002840F0F4
:104190003686A34940460DF073FF002840F0ED85B8
:1041A00040460DF09DFFC0B2DFF8D88288F80000CD
:1041B0007F2E0DDD944BA6F17F0083FB0036C317E5
:1041C000C3EB660303EB4303A0EB830303F1730626
:1041D000DFF8A4A29AF80030F0B289F80000002BB2
:1041E00040F051838F4B03931B78002B40F0708578
:1041F0008D4B02931B78002B40F052868B4B019322
:10420000029B1B78002B40F015859AF80030002B9C
:1042100000F0D984019B854E1A88002A00F037856A
:1042200038687F2840F31E837749A0F17F0381FB24
:104230000310D917C1EB600000EB4000A3EB800036
:1042400073303860002A40F0E7849AF80030002B81
:1042500000F0D181764E3378002B00F0CC81754A86
:10426000CDF81090DFF81C82B9464FF0000B1746CE
:104270000CE003F17300C0B298F8001004F0F0FFF6
:1042800033780BF1010B5B4540F3B281D9F8003074
:1042900057F8040F18445C4BA0F17F0183FB013EEB
:1042A000CB17C3EB6E0303EB43037F28A1EB830320
:1042B000DFDC0028DFDA544B414283FB0130CB17AF
:1042C000C3EB600303EB4300A1EB8003C3F10C00DD
:1042D000D1E759480360594A1288002A3BD058490F
:1042E00051F82240002C00F019813268B2FBF4F141
:1042F00004FB1122C2EBC20204EBD47102EB0212E6
:1043000002EB610202FB04F1002992FBF4F2C0F21D
:1043100018854C4951F82210A1F2FF714A4A4B4CC2
:10432000126802FB01F202F57D3101F5607116227F
:1043300002FB01F202F57D3202F5607284FB021489
:10434000D117C1EB6441002AACBFA1F10B02A1F16E
:104350000C02134403603E4A3E4910883E4A0988D5
:1043600000F27C70400003FB00F303F5FC6382FB6A
:104370000302D018DA17C2EBE022002BA1F164018E
:10438000B8BF02F1FF324900114481F30C0128202B
:1043900009F0B6FDFFF752BA93424FF0000B80F2DE
:1043A000DB800123CDF808B0CDF814B00493FFF7FB
:1043B000C0BA802629492A4B2A4A09881B881268D4
:1043C0000B44B2EB630FBFF626AB274B1B78002BD9
:1043D00040F0BB83B8F80030244AB3423FF41BAB33
:1043E000234B168001221A70FFF715BB0E4F214E8A
:1043F00021480C49214A3B70337003700B70FFF762
:104400008ABB00BF68A1FF1FABAAAA2A949EFF1F08
:10441000709EFF1F849EFF1F789EFF1FCDCCCC3D5A
:104420000000FE42489FFF1FB29FFF1F289FFF1FF3
:10443000A089FF1F7889FF1F9C9FFF1F869EFF1F7B
:1044400000390100FC310100F0A0FF1F491B894029
:104450006CA1FF1F38A1FF1F83200882A8A0FF1FA7
:10446000A4A0FF1F009FFF1F969EFF1F5AA1FF1FC2
:104470009D9EFF1FD4A0FF1F1EA1FF1F9C9EFF1F1C
:10448000C8A0FF1F849FFF1FB94B1B78002B7FF430
:10449000C2AA039BB74A243B83F34703D9B25B20EC
:1044A000136004F0ADFE99F80060032E30D1DFF800
:1044B000148398F80030002B40F0CD85AE4F3B7848
:1044C000002B40F0BB85AA4E3378002B40F0A98525
:1044D000AA4B1B78002B40F09785A94A1380A94B63
:1044E0001B78002B40F08385A74B7F221A8098F819
:1044F00000306BB93B785BB933784BB9A34A7F2165
:104500000720138004F07CFE7F210B2004F078FE4E
:104510009F4B1F68FFF77FBA0368DCE66B21FDE65F
:104520009C4B09881A6000297FF434AC13468342FF
:10453000A8BF0346E9E4002BBFF6E8AD964E5A4209
:1045400086FB0236D317C3EB660303EB4303A2EBF0
:104550008303C3F10C03D9E50123CDF810B0CDF8E6
:1045600008B00593FFF7E5B901232B608B4C8C4E07
:10457000FFF716B94F46DDF81090029B1B78002B11
:1045800040F04683019B1B88002B00F03B839AF888
:1045900000303BB9039B1B7823B9029B1B78002B8F
:1045A00000F0D4847F4B1B78002B00F035817E49CE
:1045B0000B78082B00F230817C483A6800687C4E0A
:1045C0000133DBB25F1E101A46F827000B70794BDF
:1045D0002068198889F800208142704CBFF6A6AA8D
:1045E0002268754B0892089A6D4E1A60FFF7D8B88A
:1045F0004F46DDF81090039B1B78002BBDD03B6825
:10460000A3F10C007F2840F35283634A8B3B82FB6B
:104610000321DA17C2EB610202EB4202A3EB820331
:1046200003F17300DFF8A081C0B298F8001004F025
:1046300017FE9AF80030002B9FD05B4E3378002B8A
:104640009BD05E4ACDF810904FF0000BB94617464C
:104650000BE002F17300C0B298F8001004F000FE05
:1046600032780BF1010B5A4584DDD9F8002057F858
:10467000040F494B1044A0F18B0183FB013ECA1784
:10468000C2EB6E020C3802EB42027F28A1EB8202E1
:10469000DFDC0028DFDA404B424283FB0230D117D7
:1046A000C1EB600000EB4000A2EB8000C0F10C0009
:1046B000D1E73C4B1B78002B40F0C282404B1B786B
:1046C000002B00F083803B68A3F10C007F2840F3AF
:1046D0002783314A8B3B82FB0321DA17C2EB61024D
:1046E00002EB4202A3EB820303F17300C0B298F81D
:1046F000001004F0B5FD9AF80030002B66D02A4E69
:104700003378002B62D0DFF8B4B0DFF88C904FF034
:10471000000A0BE003F17300C0B298F8001004F037
:104720009FFD33780AF1010A53454FDD3B685BF882
:10473000040F1844A0F18B0189FB0123CA17C2EBB7
:1047400063030C3803EB43037F28A1EB8303E1DC15
:104750000028E1DA434289FB0320DA17C2EB60004C
:1047600000EB4000A3EB8000C0F10C00D4E700BFD9
:104770007DA1FF1F3CA1FF1F7CA1FF1F7BA1FF1F8D
:10478000A29FFF1F7EA1FF1F949EFF1FC6A0FF1FB9
:10479000809EFF1F709EFF1FABAAAA2A58A2FF1F70
:1047A000B8A0FF1FD4A0FF1FA089FF1FC49EFF1F3A
:1047B0007C89FF1FB09FFF1F10A2FF1F7889FF1F7A
:1047C000489FFF1F7AA1FF1F849FFF1FC14B1B78CB
:1047D000002B40F04B82019B1B88002B00F0408295
:1047E000BD4B1B78002B40F03682BC4B3A681A70E8
:1047F00003232B60FFF79AB9DFF8F88298F80030AE
:10480000002B40F0E280B64F3B78002B40F0548301
:10481000B44E3B70FEF7C4BF3A68D8E6DBB2184628
:10482000137004F0ABFDB049B048B14A00230B70DF
:104830003B7003701370FFF74DB8AE4AA84B127867
:104840001A70A84EFEF7ACBF0123FFF782B80360D1
:10485000FFF770BAFCF7FCFBFFF71FBAFCF756FC3A
:10486000FFF720BA0028BFF6ECACA349434281FB16
:104870000310D917C1EB600000EB4000A3EB8000F0
:10488000C0F10C00DDE49D4B01931B88002B40F030
:10489000EE83974B03938F4B0293994E3378002B03
:1048A00039D0DFF868824FF0000B09E003F17300A4
:1048B000C0B204F0F9FC33780BF1010B5B452ADD43
:1048C00058F8043F99F8000018448B4BA0F17F0280
:1048D00083FB0231D317C3EB610303EB43037F2850
:1048E000A2EB8303E2DC0028E2DA834A434282FB44
:1048F0000320DA17C2EB600000EB4000A3EB80005E
:10490000C0F10C00D4E7734B029304F0CDFC9AF88D
:104910000030002BC1D1039B1B78002B3FF470ACFF
:1049200099F80030A3F10C007F2840F3E481724A2B
:104930008B3B82FB0321DA17C2EB610202EB4202DE
:10494000A3EB820303F17300C0B204F0ADFC9AF84C
:104950000030002B00F0C581694E3378002B00F049
:104960006481DFF8A8814FF0000B0AE003F17300C7
:10497000C0B204F099FC33780BF1010B5B457FF773
:104980003FAC58F8043F99F8000018445A4BA0F186
:104990008B0183FB0123CA17C2EB63030C3803EBC3
:1049A00043037F28A1EB8303E0DC0028E0DA524ACE
:1049B000434282FB0320DA17C2EB600000EB4000A9
:1049C000A3EB8000C0F10C00D2E74E4A1278002A17
:1049D00040F0E981424F434E3B70FEF7E1BE0028B4
:1049E000BFF6F0A9444A434282FB0320DA17C2EB28
:1049F000600000EB4000A3EB8000C0F10C00FFF76B
:104A0000E1B900260E7040490F78002F3FF442A80C
:104A1000DFF8D8A09AF80010002900F09282002157
:104A20008AF80010FFF736B8314B1B78002B6FD097
:104A300099F80030A3F10C007F2840F348822E4AF9
:104A40008B3B82FB0321DA17C2EB610202EB4202CD
:104A5000A3EB820303F17300C0B204F025FC9AF8C3
:104A60000030002B54D0264E3378002B50D0DFF886
:104A70009CA0214F4FF0000809E003F17300C0B281
:104A800004F012FC337808F10108434540DD5AF880
:104A9000043F99F800001844A0F18B0187FB012323
:104AA000CA17C2EB63030C3803EB43037F28A1EB67
:104AB0008303E2DC0028E2DA434287FB0320DA17B3
:104AC000C2EB600000EB4000A3EB8000C0F10C00E3
:104AD000D5E700BFB29FFF1F9C9EFF1FC8A0FF1F0E
:104AE0008E9EFF1FB8A0FF1FD4A0FF1F1EA1FF1F97
:104AF000489FFF1F969EFF1FABAAAA2A289FFF1F51
:104B0000A089FF1F0EA1FF1F7EA1FF1F7889FF1F35
:104B1000C44B1B78002B40F0B781019B1B88002BF6
:104B200000F07A81C04B1B78002B40F07081BF4BA6
:104B30001B78002B40F06681BD4BBE4A1988206867
:104B40000123002414602B6046E54B2E40F30181C5
:104B50001836802EB8F80030B74AA8BF8026B34276
:104B60007FF43EACFEF757BFBFF671AED1F17F02C6
:104B700048BF033292100132A21A93423FF767AE48
:104B800002601346FFF7D6B8AC4E3678002E7EF49E
:104B900098AF00287EF4A8AF002F7EF4A5AF002EBA
:104BA0007EF4A2AFA649097800297EF4A0AF9E4802
:104BB000A44906700E70A44F9A489C493E70067036
:104BC0000E70FEF7A8BF039B1B78002B7FF422AB6F
:104BD000029B1B78002B7FF41DAB019B1A88FFF70B
:104BE0001FBB243B002BB8F8000040F3A58198427E
:104BF0003EF4CCAE9BB29548A8F800300123037078
:104C0000FEF7C4BE924B3878197804F029FBBEE455
:104C10003878FBF7B1FEB5E4DFF83482C0B298F81B
:104C2000001004F01DFBFFF710BB029B1B78002B4C
:104C30003FF4F0AA99F80000FCF76CF8FFF7E5BA2A
:104C40007F21402004F0DCFA824A834B39681160EE
:104C500000221A7032E57F21422004F0D1FAC4E527
:104C600098F80010387804F0FBFAB9E53878FBF7CB
:104C700083FEB0E5C0B298F8001004F0F1FAFFF737
:104C8000A8B8764BDFF8F8E11978FEF77FBE99F8FF
:104C9000000004F009FB3288FFF7C2BA41F6FF704A
:104CA000FFF758BA8342A8BF0346FFF742BA00286D
:104CB000BFF6B8AC6A4B424283FB0230D317C3EB5A
:104CC000600303EB4303A2EB8303C3F10C00A9E4ED
:104CD000644B01931B88002B7FF415AE514B02935C
:104CE0001EE6029B1B78002BA4D1039B1B78002B94
:104CF0007FF490AA71E70028BFF626AE584B4242D7
:104D000083FB0230D317C3EB600303EB4303A2EB37
:104D10008303C3F10C0017E641F6FF70FFF706B9F5
:104D20000028BFF6E3AC4E4B424283FB0230D31760
:104D3000C3EB600303EB4303A2EB8303C3F10C005B
:104D4000D4E44949013A51F82220A2F2FF71FFF759
:104D5000E5BA243E002EB8F8003040F30781B34294
:104D60003EF459AEB6B2394BA8F8006001221A7071
:104D7000FEF751BE1646FFF728BB7F20FFF714BA97
:104D80007F20FFF7FDB800210170FEF7C4BE4FF091
:104D9000000C8EF800C0FEF7A4BE4FF0000E86F89F
:104DA00000E0FEF78BBE314F387801F07BF9304BD5
:104DB0001B78002B00F0A3803B887E2B00F29F80A5
:104DC0002C4EDFF8C0903268D9F80010521A0F2A22
:104DD00040F28F80284A0133108899B23980002828
:104DE00000F0A680C9B2C0B204F00AFA234F3268BC
:104DF00098F80030C9F800203B70FEF7D1BC0120C4
:104E0000FFF7D2B90021422004F0FAF994E600211C
:104E1000402004F0F5F98AE699F8000004F044FA1D
:104E200080E600BFB29FFF1FD4A0FF1F9C9EFF1F04
:104E3000B09FFF1F709EFF1F5AA1FF1F7BA1FF1F86
:104E4000969EFF1F1EA1FF1F489FFF1F9D9EFF1FD5
:104E5000849FFF1FC49EFF1FA089FF1F59A1FF1F32
:104E6000ABAAAA2A289FFF1FFC310100FE9EFF1F4C
:104E70007FA1FF1FB8A0FF1F749FFF1F8E9EFF1F03
:104E8000459FFF1F60A1FF1F99F80000FBF742FF3D
:104E900043E604F009FAFFF7C1B80120FFF770B844
:104EA000754B01931B88002B7FF42FADFFF7A8B93A
:104EB000724B1A60FEF76EBF714B724E19886A20F2
:104EC00004F01AFB98F800303B70FEF769BC00282C
:104ED000BFF6C2AD6C4B424283FB0230D317C3EB2B
:104EE000600303EB4303A2EB8303C3F10C00B3E5C0
:104EF000644E664F98F800303B70FEF751BC644B2F
:104F00001B78002BF4D03B885D4F002BF0D05D4E1A
:104F1000DFF8AC913268D9F80010521A0F2AE8D99C
:104F20005C4A013B108899B2398000287FF45AAF5F
:104F3000C8B204F005FA59E701283EF427AD012371
:104F400059E6554E55490296FEF79CBD4FF47A43FB
:104F5000013BFDD199F8000004F0A6F9FFF722BB50
:104F60000138FFF7F7B80138FEF7E0BF012B3EF438
:104F700052AD0126F7E64A4B1B782BB3494B1B7801
:104F8000002B7EF448AD484B1B78002B3EF443AD1C
:104F9000B8F8003045490A3BA8F800300A70FEF71F
:104FA0003ABD404B1B78002B7FF46EAA3E4B1B781A
:104FB000002B3EF430ADB8F800303C490133A8F87E
:104FC00000300A70FEF727BD364B1B78002B7EF4AD
:104FD00022AD354B1B78002B3EF41DADB8F80030E8
:104FE0003249013BA8F800300A70FEF714BD304B7F
:104FF00000227F2107201A8004F002F97F210B2074
:1050000004F0FEF8FFF773BA2A4B01227F21072034
:105010001A8004F0F5F87F210B2004F0F1F8FFF777
:105020005EBA254B04227F2107201A8004F0E8F89D
:1050300000210B2004F0E4F8FFF74ABA1E4B0222CD
:105040007F2107201A8004F0DBF87F210B2004F079
:10505000D7F8FFF738BA184B002107201E8004F05C
:10506000CFF87F210B2004F0CBF8FFF727BA134BC2
:105070000393094B029348E4289FFF1F709EFF1F74
:10508000FE9EFF1FB8A0FF1FABAAAA2A8E9EFF1F7D
:105090007EA1FF1F749FFF1FB29FFF1FD4A0FF1FA1
:1050A0007BA1FF1F7CA1FF1F7DA1FF1F9D9EFF1FF6
:1050B000949EFF1FA29FFF1FC6A0FF1F489FFF1FB8
:1050C00060A1FF1F38B508F07DFC0E4806F046F8D9
:1050D0000D4806F043F80D4806F040F800234FF065
:1050E0007E5201210A48FBF7C1F90A4B0A4A0B49D3
:1050F000802400251C7118461D60BDE838400CF066
:1051000025B800BFD49EFF1F309FFF1FA89FFF1F21
:10511000089FFF1F30A1FF1F1C89FF1FF50F000014
:1051200010B50446A4206368198804F0E5F9E36823
:10513000A6201988BDE8104004F0DEB943682A2093
:10514000198804F0D9B900BF10B50446222063685D
:10515000198804F0D1F9E36824201988BDE81040CB
:1051600004F0CAB910B504460A206368198804F02F
:10517000C3F9E3680C201988BDE8104004F0BCB9FD
:1051800010B5044606206368198804F0B5F9E36891
:1051900008201988BDE8104004F0AEB910B50446E7
:1051A00002206368198804F0A7F9E36804201988CD
:1051B000BDE8104004F0A0B970B50E4C84B01225C3
:1051C0000422012306460390029320468DE8240022
:1051D0001423102107F06CFE062209230293039684
:1051E0000195204600921423102107F061FE04B0BF
:1051F00070BD00BFA8A1FF1FF8B5B04CB4F90030D6
:10520000032B00F01381002B6AD0022B00F08A8060
:10521000052B00F0B580012B00F0DD80042B00D0C1
:10522000F8BDA74FA74E00254FF4AF74E9B2A648CA
:1052300005F0BEFF57F8043BC3F5967300FB03F07F
:1052400086FB0023C017C0EB6310844205F1010503
:10525000A8BF0446062DE9D19C4F9A4E0025E9B21D
:105260009B4805F0A5FF57F8043BC3F5967300FB78
:1052700003F086FB0023C017C0EB6310844205F1E6
:105280000105A8BF04460C2DE9D1924F8D4E002593
:10529000E9B2914805F08CFF57F8043B894AC3F501
:1052A000967300FB03F086FB0013C017C0EB63107E
:1052B000844205F10105A8BF04460C2DE8D1A4F1F4
:1052C0001401312900F3A38040F26C72322183482B
:1052D000834B01801A602A20BDE8F84004F00CB925
:1052E0000E2008F0D3FA40F6FF71C8308842A8BFFC
:1052F000084620EAE07000F2DC5283B28A42794D1F
:10530000794EA8BF0A460220194633802A8004F04D
:10531000F3F82988042004F0EFF8B4F90030022BE8
:105320007FF476AF01200AF005F8054600200AF068
:1053300001F8A842B8BF284600F1C801B1F5FA7FCC
:10534000C0F2B580B1F57A6FA8BF4FF47A6101F56C
:105350004873B3F57A6FA8BF4FF47A639BB289B2F2
:10536000624A634D11800A202B8004F0C5F8298819
:105370000C2004F0C1F8B4F90030052B7FF44BAFDA
:105380000F2009F0D7FFC0F53F630433B3F5AF6FCB
:10539000C0F28A80B3F5FA6FA8BF4FF4FA6399B2EE
:1053A000544BC0F54360B0F5AF6F198062DBB0F5C8
:1053B000FA6FA8BF4FF4FA6083B24F4DA4202B8040
:1053C00004F09AF82988A62004F096F8B4F9003081
:1053D000012B7FF423AF152008F058FA00F59671E1
:1053E000B1F52F7F4EDB41F25C23994264DC434AE6
:1053F00000F5617089B2B0F52F7F1180B8BF4FF40E
:105400002F7345DB8342A8BF03469BB240E040F2C6
:105410003A73A4F5B97403FB04F4963C82FB04329E
:10542000E417A4EB621289B2323250E7102009F07F
:1054300081FFC830B0F5FA7F1FDBB0F57A6F014607
:10544000A8BF4FF47A6101F51673B3F57A6FA8BF60
:105450004FF47A639BB289B2294A2A4D11802220E7
:105460002B8004F049F82988242004F045F8B4F989
:105470000030C8E64FF4AF639FE740F24C434FF46F
:10548000FA71E9E740F214534FF42F711B4A11806F
:105490001D4D06202B8004F02FF82988082004F0E9
:1054A0002BF8B4F90030B9E64FF4AF6178E740F279
:1054B00014534FF4FA7153E71946E7E78AA1FF1F27
:1054C000688AFF1FB5814E1BD49EFF1F388AFF1FBD
:1054D000309FFF1F4089FF1FA89FFF1F40A1FF1F94
:1054E000248AFF1F849EFF1FB09FFF1FDCA0FF1FA9
:1054F000F49EFF1FB49FFF1FF4A0FF1F549FFF1FC8
:10550000A8A0FF1FA4A0FF1F08A1FF1F2DE9F041C5
:10551000224D82B0012602B284B200922846019642
:105520007823192107F00AFC04F10C0212B28DE86D
:1055300044002846A7197823192104F1020807F02E
:10554000FDFB3FB20FFA88F819233A462846194660
:105550000196CDF8008007F0F1FB78233A46284603
:105560001946CDF80080019604F10A070B3407F0C4
:10557000E5FB3FB224B278233A46284619468DE827
:10558000500007F0DBFB192300943A4601962846A9
:10559000194607F0D3FB02B0BDE8F081A8A1FF1FB8
:1055A00030B583B000230C4605B2009326225B235E
:1055B0001C210C4807F012F929460123262209482C
:1055C00006F028FC002C24B205DB2146012326220C
:1055D000044806F01FFC044A044B15801C8003B0ED
:1055E00030BD00BFA8A1FF1F828AFF1F848AFF1F52
:1055F000F0B5C64C237883B01BB1C54B4FF6FF7294
:105600001A80C44BB3F9003003BBC34BC3481B68BB
:10561000BF495A2283F30C0302FB03F303F2FF7327
:1056200080FB03201844DB17C3EBE020B1F9003006
:105630001C30834256D04FF0FF31FFF7B1FFB8481E
:1056400007F030F90023237003B0F0BD012B25D003
:10565000022B68D0032B4BD0042B00F0AB80052B22
:10566000F0D10F2009F066FEC0F53B600830B0F5C0
:10567000AF6F56DBB0F5FA6FA8BF4FF4FA60A0F534
:10568000AF625A2303FB02F3A64803F5967380FB2F
:105690000320DB17C3EBA0101C301EE0A24B1B78CD
:1056A000002B7DD0152008F0F1F8A04B1860B0F564
:1056B0002F7F36DB41F25C239842A8BF1846A0F545
:1056C0002F705A2303FB00F3994803F5FA6380FB1C
:1056D0000320DB17C3EB20201C308D4BB3F90030C7
:1056E0008342A8D1934BB3F900300133A3D1A9E78A
:1056F000914B1B68B3F5FA7F13DBB3F57A6FA8BF44
:105700004FF47A63A3F5FA725A2303FB02F38B4832
:1057100003F2D66380FB0320DB17C3EB60201C3051
:10572000DBE71C20D9E7864B1B68B3F5FA7F3FDB2C
:10573000B3F57A6FA8BF4FF47A63A3F5FA725A23D0
:1057400003FB02F37D4803F2D66380FB0320DB17E3
:10575000C3EB60201C307B4B1B68B3F5FA7F25DB65
:10576000B3F57A6FA8BF4FF47A63A3F5FA725A23A0
:1057700003FB02F3714903F2D66381FB0321DB17BC
:10578000C3EB61211C31624BB3F9003083427FF4DB
:1057900054AF684BB3F900308B427FF44EAF51E702
:1057A000112009F0C7FD614B186080E71C21EAE772
:1057B0001C20D0E7252200258DE8240076231C211B
:1057C0005748614E574F07F0B9FA17E0B0F5AF7F71
:1057D000A8BF4FF4AF70323802FB00F0963087FB61
:1057E0000031C017C0EB61111C3109B201231D4407
:1057F00025224B4806F00EFB0C2D14D0E9B253487D
:1058000005F0D6FC56F8043BC3F5967300FB03F095
:1058100087FB0013C017C0EB631031284FF05A020A
:10582000D4DC1C21E2E7262200258DE82400762323
:105830001C213B48464E3B4F07F080FA17E0B0F57D
:10584000AF7FA8BF4FF4AF70323802FB00F0963044
:1058500087FB0031C017C0EB61111C3109B2012375
:105860001D4426222E4806F0D5FA0C2D14D0E9B29C
:10587000384805F09DFC56F8043BC3F5967300FBD1
:1058800003F087FB0013C017C0EB631031284FF003
:105890005A02D4DC1C21E2E7272200258DE82400EF
:1058A00076231C211E482C4E1E4F07F047FA18E0A5
:1058B000B0F5AF7FA8BF4FF4AF70323802FB00F0F5
:1058C000963087FB0031C017C0EB61111C3109B263
:1058D00001231D442722124806F09CFA062D3FF4AE
:1058E000AEAEE9B21D4805F063FC56F8043BC3F5C3
:1058F000967300FB03F087FB0013C017C0EB631027
:1059000031284FF05A02D3DC1C21E1E784A1FF1FAC
:10591000828AFF1F8AA1FF1FE0A0FF1F810008806D
:10592000A8A1FF1FB5814E1BB0A0FF1F7C9EFF1FCB
:10593000D34D6210848AFF1F009FFF1F07FB722553
:105940002C9FFF1FC89EFF1F388AFF1F309FFF1F1D
:105950004089FF1FA89FFF1F688AFF1FD49EFF1F5B
:105960002DE9F043764C054683B02046D5F80080FB
:10597000EE6806F08BFE1120FFF7C8FD0127192302
:105980004FF028091946204601972422CDF80090AF
:1059900007F0D4F978231946242201972046CDF840
:1059A000009007F0CBF93946204607F051FD02235D
:1059B000192240462382E2810DF082F941460246D7
:1059C00020460BF03DF820460BF050F8002714233A
:1059D00003225C4923822046E7810BF031F8204600
:1059E0000BF044F82323204603225749E781238202
:1059F0000BF026F820460BF039F86EB12F20FFF798
:105A000085FD322303225149E781204623820BF092
:105A100017F820460BF02AF801234D4A1846137058
:105A2000FFF7CAFB28896B896A68191A128867D040
:105A300001EBD173121A5B105C2000FB023303FBF5
:105A400001F2002A93FBF1F3ACBF1B331A331FFAA8
:105A500083FE1BB23F4A3A4F1A214FF001088DE8EE
:105A600002013846A2F800E01946142207F066F950
:105A7000002E4BD0288A6B8AEA68191A128842D005
:105A800001EBD173121A43FA08F35C2000FB0233D6
:105A900003FB01F2002A93FBF1F3ACBF1B331A3373
:105AA00099B21BB22C4A26481180012638228DE873
:105AB00044001946322207F041F90022402309210F
:105AC0008DE806001E48194607F006F931461C48C5
:105AD00007F0BEFC6B681A48022244212282E18151
