:1000000000800020BD0100000DA40000C5A3000079
:10001000C5A30000C5A30000C5A30000C5A3000040
:10002000C5A30000C5A30000C5A300000DA40000E7
:100030000DA40000C5A3000025C4000029C50000D0
:100040000DA400000DA400000DA400000DA40000EC
:100050000DA400000DA400000DA400000DA40000DC
:100060000DA400000DA400000DA400000DA40000CC
:100070000DA400000DA400000DA400000DA40000BC
:100080000DA400000DA400000DA400000DA40000AC
:100090000DA400000DA400000DA400000DA400009C
:1000A000018400000D8400000DA400000DA40000D8
:1000B0000DA400000DA400000DA400000DA400007C
:1000C0000DA400000DA400000DA400000DA400006C
:1000D0000DA400000DA400000DA400000DA400005C
:1000E0000DA400000DA400000DA400000DA400004C
:1000F0000DA400005DC800000DA4000089C9000027
:100100000DA4000099AD00000DA400000DA4000096
:100110000DA400000DA400000DA400000DA400001B
:100120000DA400000DA400000DA400000DA400000B
:100130000DA400000DA400000DA400000DA40000FB
:100140000DA400000DA400000DA400000DA40000EB
:1001500015C6000029C600003DC6000051C60000BB
:100160000DA40000B5B000000DA400000DA4000017
:100170000DA400000DA400000DA400000DA40000BB
:100180000DA400000DA400000DA400000DA40000AB
:100190000DA400000DA400000DA400000DA400009B
:1001A0000DA400000DA400000DA400000DA400008B
:1001B0000DA400000DA400000DA40000564B4CF24D
:1001C000205210B51A804DF628121A8000BF00BFC9
:1001D0000AF020F9514B4FF010621A60504A9A60B1
:1001E000504ADA60504A136813F4807304D14F49BF
:1001F0000B604FF4A85313604D4B1A78110703D5C9
:100200001A7842F008021A704A4B4B492A221A7097
:100210004A4A4B4B8B4204D252F8040F43F8040B6A
:10022000F8E7484B484900228B4202D243F8042B9E
:10023000FAE74649464A002352F8230041F82300D2
:1002400001336F2BF8D1434B434A802103F8011B44
:100250009342FBD1414B3D4A1A60414B8A221A70AE
:10026000A3F5805324225A70A0221A709A7992071B
:10027000FCD59A79D406FCD43A4A937903F00C035E
:10028000082B384BF9D103221A7140225A719A79FE
:100290009006FCD5334A9179324B4906FBD5324A58
:1002A000324911600221516020221A709A7902F0BD
:1002B0000C020C2AFAD12E4B2E4A1A602E4B2F4AD2
:1002C0001A6000225A60072243F8042C2C4AC3F813
:1002D0000C2D62B60AF028FC144B1B68DA0705D512
:1002E00028480AF0F5F9284B284A1A60284B1B7851
:1002F0005B0609D5244C254B22689A4204D121483B
:100300000AF0E6F9002323600DF0FEFD0AF088F8FC
:100310000CF016FAFEE700BF0E20054030800440C6
:10032000823F04000100002B10D0034014D0034092
:1003300002D0074000E007401C9BFF1F2C0E01006D
:100340004088FF1F1C9BFF1F08A3FF1F0082FF1F89
:100350000000000000E400E05FE400E008ED00E0E1
:100360000050064000400640448004400000030165
:1003700004800440C010050014E000E0FF76010096
:1003800000002020A9A4A65E1CE00340A5C3945A47
:1003900000F00740FFFFFFFFFFFFFFFFFFFFFFFF32
:1003A000FFFFFFFFFFFFFFFFFFFFFFFFFFFFFFFF5D
:1003B000FFFFFFFFFFFFFFFFFFFFFFFFFFFFFFFF4D
:1003C000FFFFFFFFFFFFFFFFFFFFFFFFFFFFFFFF3D
:1003D000FFFFFFFFFFFFFFFFFFFFFFFFFFFFFFFF2D
:1003E000FFFFFFFFFFFFFFFFFFFFFFFFFFFFFFFF1D
:1003F000FFFFFFFFFFFFFFFFFFFFFFFFFFFFFFFF0D
:10040000FFFFFFFFFFFFFFFFFFFFFFFFDEF9FFFF23
:1004100010B5054C237833B9044B13B10448AFF33E
:1004200000800123237010BD1C9BFF1F00000000F3
:10043000300E0100084B10B51BB108490848AFF356
:1004400000800848036803B910BD074B002BFBD0A0
:10045000BDE81040184700BF00000000209BFF1FB0
:10046000300E01001C9BFF1F0000000038B5044641
:10047000104621700A491D460DF028FB01464FF039
:100480007E500DF0D7FB07490DF020FBE560606062
:10049000256165610AF0D8FAE061204638BD00BFE9
:1004A000DB0FC9400024744938B50446104621705A
:1004B00009491D460DF00AFB01464FF07E500DF034
:1004C000B9FB06490DF002FBE560606025616561DE
:1004D0000AF0BAFAE06138BDDB0FC9400024744964
:1004E00038B503780446032B20D8DFE803F01A1848
:1004F0001002C16840690DF0DFF90D4905466068DA
:100500000DF098FB014628460DF094FB38BD0849D4
:1005100040680DF08FFBE1680DF0D8FA38BDC06877
:1005200038BDC16840690DF0C7F938BD002038BD3D
:100530000024744970B504460E460AF085FA054653
:10054000E069281A0DF06EFAE3682361E5616661DF
:10055000A061014660680DF06DFB0146A060104887
:100560000DF068FB0CF03EFE0CF0DEFA0DF050F9D9
:10057000054601464FF07E500DF09EF961690DF081
:10058000A5FA2169064628460DF0A0FA0146304634
:100590000DF094F9E0602046BDE87040FFF7A0BF81
:1005A000000080BF38B50E201C4C09F0E5FD218805
:1005B0001B4B884205461A881DDA0023511AB1F5F3
:1005C000805FAABF1B03C3EB03330131142093FBED
:1005D000F1F10AF08FF8134B1988F1B923889D4285
:1005E00010DAC3F57F630F33282091FBF3F1BDE8E8
:1005F00038400AF07FB89042D4BFC1EB0003C1EB92
:100600000203DBE740F6FF718D42D4BFC3EB050167
:10061000C3EB0101C1EB0131E3E738BDFA9BFF1FDA
:10062000A09DFF1F4C9DFF1F10B504460BF0D0FF8F
:10063000204610BD70B44C88A04220D9012301335C
:10064000DBB21CB2660031F8144084421D46F6D37A
:10065000A04211D005F10045013D965B31F815101F
:1006600032F81530401AF21A00FB02F0641A90FBBF
:10067000F4F4E01870BC7047905B70BC70470226C1
:100680000125E5E700280CDA064A434282FB0320F5
:10069000DA17C2EB600000EB4000A3EB8000C0F172
:1006A0000C007047ABAAAA2A2DE9F0470C2009F0EC
:1006B0002FFD0C200AF01CF9A04914200AF028F99B
:1006C0009F49A04807F0A2FB022103200AF0B6F9D7
:1006D000022104200AF0B2F9022105200AF0AEF945
:1006E000022106200AF0AAF901210A200AF0A6F93F
:1006F000012109200AF0A2F901210D200AF09EF93A
:10070000012128200AF09AF9012114200AF096F913
:10071000012116200AF092F9172001210AF08EF922
:1007200004200AF07DF9002833D005200AF078F97A
:100730000446002834D000242046834D287004F05D
:1007400039FF2D780DBB204606F048FB7F4B8049D2
:100750001B88804C098821707F4A804EA3F5AF71B9
:1007600040F23A7303FB01F382FB0312DB17A3EBA6
:100770006213323301210D2033600AF04BF95D2101
:10078000774807F0EDFE90B9FEE7BDE8F04707F0C7
:1007900051BA06200AF044F90028C6D10124CCE75A
:1007A00003200AF03DF9B0FA80F04009C5E75C216A
:1007B0006C4807F0D5FE00B9FEE75B216A4807F0F8
:1007C000CFFE00B9FEE729460D200AF023F9674A5B
:1007D00067481268DFF8E8A1DFF8A091654EDFF8FE
:1007E000E481654F00230121FFF75EFE0123C9F874
:1007F00000503560C8F800508AF8003004250F20FA
:100800000AF036FBD8F8003003440E20C8F8003058
:1008100009F0B2FCD9F800309AF800200344C9F876
:1008200000301520002A78D009F0A6FC336818445F
:10083000306005F0010080F0010003F0D1FD3B883D
:10084000002B14BF4B20FA200AF020F9013DD6D12D
:10085000D8F80030D9F80020484930683D88DFF8E2
:1008600068E1474F002BB8BF0333002AB8BF0332FB
:1008700092100A604349444A098812880028B8BF88
:1008800003309B10801030605E1A19443E60CEF831
:1008900000103E4F3E4E3F49C8F80030C2EB000EFC
:1008A0000244C7F800E032600B605DB94FF4FA70A3
:1008B00003F0A6FD03F090FD05F072F94FF4AF6070
:1008C0000AF0E4F8344B012504201D600AF0A8F872
:1008D00010B9324B20701D70314B1B881C2B23D05C
:1008E000304C04F1C805232009F046FC44F8040FFD
:1008F00001200AF0CBF8A542F5D12B4A2B4B1078FA
:10090000187006F075F903F063FD45F6BF522849EB
:100910002848BDE8F0470BF011BE11200AF0A8FAF4
:1009200033681844306084E7234B18880028D7D0F8
:10093000224BC0B2197806F0A3F8D1E7001B374666
:10094000801A06002490FF1F719BFF1F9C9DFF1FB4
:10095000109DFF1FC49BFF1FB5814E1BDC89FF1F2D
:10096000709BFF1FF89BFF1F9C9BFF1F3C89FF1F75
:10097000149DFF1F389BFF1F429DFF1F509BFF1FB1
:10098000689DFF1FEE89FF1F4489FF1F909BFF1F7B
:10099000C89BFF1FB09DFF1F709DFF1F5F9BFF1F28
:1009A000769DFF1F049CFF1FFC9CFF1FE19CFF1F07
:1009B000A5050000949DFF1FCC9BFF1F889BFF1F78
:1009C0005C9DFF1F649DFF1FE49CFF1FF0B40E8819
:1009D00086420DD203F10043013B31F813508542AA
:1009E00002D9F0BCFFF726BE32F81300F0BC704706
:1009F0001088F0BC704700BF094B1B880C2B09D82E
:100A0000084A80B252F8232028B143F6FE73984278
:100A100003D9108C7047108870470349FFF70ABE4E
:100A20006C9BFF1F24F000000CF10000374A38498E
:100A30001088384AF8B5384B12881B68834248DB67
:100A40009342A8BF134698420B60C8BF002342DD03
:100A5000101AB0F5804FAABF9B03C3EB833301305C
:100A600093FBF0F0FFF7C8FF2C4B2D4F1C883B6821
:100A7000C0F3C61505FB04F47F2CA8BF7F249D425C
:100A8000064608D0274B1B88002B38D1264B1B88E5
:100A9000002B30D13D60254D2B689E4205D0214B67
:100AA0001B885A1F032A1DD92E60214D2B689C429A
:100AB0000ED0204B188848B11A4B1F4A1B88D35CB4
:100AC000834203D0C0B2E1B205F0DAFF2C60F8BD7A
:100AD000F8BD034608609A42D4BFC0EB0203C0EBE6
:100AE0000303B5E7144AD05C2030C0B206F07F01A2
:100AF00005F0C6FFD8E7284606F036F8CAE70E4AE2
:100B00002946D05C05F0BCFFC0E700BFFA9BFF1F81
:100B1000409BFF1FA09DFF1F489DFF1F549BFF1F71
:100B2000A49BFF1F389DFF1FF29BFF1FA89DFF1F67
:100B3000F49BFF1F7A9DFF1FE089FF1F2DE9F04FF7
:100B4000012089B00AF094F9AF4B186000200AF038
:100B50008FF9AE4BAE4A1B8810600C2B00F03B8126
:100B6000AC4BAD4A19880093AC4B52F8214000229F
:100B70001A70AB4BAB4D1B88AB4A2E88013B32F948
:100B80001370002E5CD0A94BA94A1B88A949127882
:100B9000013B31F91380002A40F0DF8011200AF078
:100BA00067F9A54B0193D3F800A00646B24540F380
:100BB000DF80A24BDFF8A4921B88A14A012BD9F851
:100BC0000030B2F800B09F4A02922046C8EB0308FA
:100BD00000F09A820CF026FF029A52F82B100CF0CB
:100BE00075FF014600200CF067FE0DF035F9CAEBE9
:100BF0000802B045B8BFB0469042CAEB080880F280
:100C0000968200FB0888013298FBF2F08E4BDFF8E9
:100C100050820293D8F80030034403EBD3735B1087
:100C2000C8F800302B88012B12D1884BDFF834B282
:100C30000393874BDBF8005004934FF0000A47E022
:100C40007D4B0193DFF814927F4BDFF814820293FF
:100C50007E4B03931D460F200AF00AF92B68984239
:100C6000824641DA754A1288012A00F01D82744AD0
:100C700005931288734D049220460CF0D3FE049A1B
:100C8000DFF8E0B155F82210DBF800500CF01EFF41
:100C9000014600200CF010FE0DF0DEF8EF1B059B66
:100CA0005745A7EB0302B8BF5746FF1A9042BABF99
:100CB000013200FB0777474397FBF2F7D8F8002093
:100CC000634B0493BB1803EBD3735B10C8F800307D
:100CD000604B1B88013B032B00F2B082DFE813F06E
:100CE0006301A901C4008601594B04931B68984213
:100CF00040F3C281514A1288012A00F0A682504A6C
:100D0000079311884F4A0691204605920CF08AFEFF
:100D1000059A0699DFF84CB152F82110DBF8005023
:100D20000CF0D4FE0DF098F8079B2F445745A7EB25
:100D30000302A8BF5746FF1AD8F800309042BABF46
:100D400000FB07770132474397FBF2F73B4403EB85
:100D5000D3735B10C8F80030BAE7152009F00CFA1D
:100D6000354B0193D3F800A00646B2453FF721AFBB
:100D7000354B0293D3F800A0B24580F289812F4B06
:100D8000DFF8D8901B882E4A012BD9F80030B2F832
:100D900000B02C4A03922046984400F070820CF078
:100DA00041FE039A52F82B100CF090FE0DF054F80F
:100DB000B045CAEB0802A8BFB046CAEB080890428B
:100DC000B6BF00FB088800FB08F8013298FBF2F080
:100DD000DFF88C801EE7204B1B78002B3FF4C0AE61
:100DE0000C4B0D4A198800930C4B52F8210001223C
:100DF0001A700CF017FE4FF07C510CF067FE0DF0EE
:100E00002BF80446B5E600BF989BFF1F769DFF1F99
:100E1000BC9DFF1F9E9BFF1FA489FF1F469BFF1FBA
:100E2000EC89FF1FEA9CFF1F58F200003C8AFF1F5D
:100E30005C9DFF1FE8F00000909BFF1FE09BFF1FE1
:100E4000689BFF1F70F20000C89BFF1F689DFF1F7B
:100E5000E49CFF1F7889FF1F5E9BFF1F389BFF1FCD
:100E6000809DFF1F649DFF1F28460CF0DBFDB249EB
:100E70000CF02CFE054650460CF0D4FDAF490CF0AA
:100E800025FE014628460CF019FD0CF0E5FF05464D
:100E9000CBF80050D9F800000CF0C4FDA6490CF0C6
:100EA00015FE074630460CF0BDFDA4490CF00EFEC1
:100EB000014638460CF002FD0CF0CEFFC9F80000E8
:100EC0009F4AA04B168819889F4AA04B12681B881E
:100ED0009F4FC6EB050E3544039EC6F800E0461A48
:100EE000084404990D6001990E6002993E880860DB
:100EF0009A4280F289810025C3EB060E954974451C
:100F00000F6880F27681611C9F4205FB01F50EF1AE
:100F1000010E95FBFEF5C0F2BE81BE42A8BF3E4663
:100F2000F61A01FB06F494FBFEF49A4200F33681B4
:100F3000BB42C0F23381884C20680CF073FD8749B6
:100F40000CF0C4FD86490CF0B9FC0CF085FFA0F54F
:100F5000FF531C3B082B98BF4FF40050D8F80030CB
:100F6000184400282060C0F24281B0F5804F80F222
:100F700052817C4B1B781BB1B0F5005F40F0538170
:100F8000794D2B78002B40F05481784D20682B68E8
:100F9000714C984204D080B205F050FE23682B605B
:100FA00009B0BDE8F08F28460CF03CFD70490CF00C
:100FB0008DFD054650460CF035FD6E490CF086FD62
:100FC000014628460CF07AFC0CF046FF0546CBF8AB
:100FD0000050D9F800000CF025FD65490CF076FDB5
:100FE000074630460CF01EFD62495FE728460CF0CC
:100FF00019FD5A490CF06AFD054650460CF012FDE9
:101000005D490CF063FD014628460CF057FC0CF0DE
:1010100023FF0546CBF80050D9F800000CF002FD84
:101020004E490CF053FD074630460CF0FBFC52498C
:101030003CE728460CF0F6FC50490CF047FD05460D
:1010400050460CF0EFFC4E490CF040FD014628469E
:101050000CF034FC0CF000FF0546CBF80050D9F83A
:1010600000000CF0DFFC45490CF030FD074630462F
:101070000CF0D8FC424919E7D8F80030DFF810B17D
:1010800003EBD3735B10DBF80050C8F800301FE6A9
:10109000DFF80081DFF80091D8F8003003EBD3735C
:1010A0005B10C8F80030BDE5364A06931188364A11
:1010B000059120460492DFF8D8B00CF0B3FC049AF6
:1010C0000599DBF8005052F821100CF0FFFC0CF0F1
:1010D000C3FEEF1B069B5745A7EB0302B8BF57465D
:1010E000FF1AD8F800309042BABF013200FB0777F0
:1010F000474397FBF2F73B4403EBD373234A049235
:101100005B10C8F80030E3E50CF08CFC029A52F852
:101110002B100CF0DBFC0CF09FFECAEB0802B04574
:10112000B8BFB0468242CAEB08083FF76AAD00FB81
:1011300008F898FBF2F069E5CDCC4C3FCDCC4C3EA5
:10114000EE89FF1F4489FF1F989BFF1F469DFF1FCD
:10115000809BFF1FBC9DFF1FD889FF1F9A99193FD5
:10116000CDCC4C45779EFF1FF09BFF1F3889FF1F9A
:101170003333733FCDCC4C3DCDCCCC3E6666663F21
:10118000CDCCCC3D689BFF1F70F20000E49CFF1F9C
:10119000649DFF1F809DFF1F389BFF1F009B1B88C6
:1011A000002B3FF4C8AE2B1B002BB8BF5B42092BB2
:1011B00047DD05F500500130001B0CF033FC3B49C6
:1011C0003B4C0CF083FC054620680CF02BFC3949A5
:1011D0000CF07CFC014628460CF070FB0CF03CFE49
:1011E000D8F80030184400282060BFF6BEAE0022B8
:1011F00013E09F4205FB04F5B8BF002195FBFEF507
:101200004BDA91FBFEF490E6B242D4BFC3EB020589
:10121000C3EB060570E643F6FF72274B22601B788E
:10122000002B3FF4ADAE03F0D7F8244B01221A7027
:10123000ABE603F0CDF800232B70A6E6D9F800004A
:101240003EE64FF400501A4C88E61D491D4A0693AD
:1012500020460D8805920CF0E5FB059ADFF868B092
:1012600052F82510DBF800500CF030FC014600204D
:101270000CF022FB0CF0F0FD2F44069B56E50CF021
:10128000D1FB039A52F82B100CF020FC01460020F1
:101290000CF012FB8AE51E4642E6B742D4BFC3EB10
:1012A0000701C3EB060104FB01F1AAE7CDCCCC3E5C
:1012B000D889FF1F9A99193F779EFF1FF09BFF1F48
:1012C000689BFF1F70F20000649DFF1F38B5114C32
:1012D0002320257808F050FF0F4A42F82500131FFD
:1012E00002F1C400002253F8041F83420A44FAD1D9
:1012F00023780A4907480A4C0133DBB2322B81FBC1
:10130000025108BF0023D217C2EB211203702260E2
:1013100038BD00BF569BFF1F089CFF1F1F85EB5168
:10132000609DFF1F2DE9F0479F4CA04D206882B0C3
:101330000CF078FB9E490CF0C9FB0646102009F022
:1013400097FD0CF06FFB9B490CF0C0FB31460CF095
:10135000B5FA0CF081FD2B882060192B00F0CA80B3
:101360001A2B00F0F5801E2B00F0FB8001252E4685
:10137000914A1188002900F09180904B904A1B8877
:101380001288834240F3DD800020D31A8B42C6BF0F
:1013900001FB00000133484390FBF3F3894A1360DB
:1013A000894F388848B9894B1B8833B9884A1178E6
:1013B00001B1137002B0BDE8F087DFF80082216848
:1013C000B8F80030784A8B426EDCDFF804E29EF811
:1013D0000090B9F1000F2FD14FF0010C04288EF8C6
:1013E00000C029D1002D40F07181784B1888002869
:1013F000E0D0002EDED02368B8F80040704AA34247
:10140000128880F23E810023141B7E2C714DD5BFC3
:10141000C3EB8313C3EBC3135B00013493FBF4F4FE
:101420002B680134A34203D0C0B2E1B205F028FB1F
:101430002C6002B0BDE8F087012800F0D5800228BA
:1014400000F0A9800328D0D1634B1B88092BCCD096
:10145000002DCAD02368B8F80050594AAB42128810
:1014600080F25C810023551B7E2DDFF874A1D5BF6F
:10147000C3EB8313C3EBC3135B00013593FBF5F59B
:10148000DAF800300135AB4203D0E9B24A2005F06A
:10149000F7FACAF80050A8E70D460E461E2B7FF457
:1014A0007FAF00214D4F64E0494B1A78002A81D06C
:1014B000002401281C7062D0022840F0E980002D31
:1014C00063D0474D2B68002B5FD00420214605F0E8
:1014D000D7FA3E4B2C60188800283FF46BAF002EE3
:1014E0003FF468AFC0B2002105F0CAFA394B0022C0
:1014F0001A605FE7394F3B4E3A7872B13349098839
:1015000059B196F800E0964542D0C8B27F2105F067
:10151000B7FA3A782B8832700AE03178914237D0A6
:101520002A4B0021187805F0ABFA3A782B883270F4
:10153000214A11880029AFD000251E2B2E4618D035
:101540001BE08242D4BFC3EB0200C3EB00001CE7E8
:10155000224F3A78002A0BBF0125002500260126DC
:1015600006E71E4F144B3D781988B5FA85F56D09CD
:1015700000263B78002B3FF411AF2068FDE625B133
:10158000174D2B68002B40F09A80104B1888A3E76A
:1015900000252E46ECE6002D3FF427AFDFF840A0F3
:1015A000074ADAF800304AE08C9BFF1F769DFF1F48
:1015B0009A99193FCDCCCC3EA49DFF1FF49CFF1FF0
:1015C000EE9CFF1F009CFF1F969BFF1F889DFF1F27
:1015D0007D9DFF1F749BFF1F389DFF1F5E9BFF1F9C
:1015E000049CFF1F5B9BFF1F002D3FF4FEAE534A80
:1015F00010888842D4BFC3EB0009C3EB0109C31AAA
:101600007E2B40F38280C9EBC91103F1010991FBE4
:10161000F9F909F10109DFF82CA1DAF800304B459E
:1016200006D05FFA89F10120019205F029FA019AAA
:101630003888CAF8009002287FF404AF4B4621682E
:10164000B8F800901088494558DA0022C9EB000923
:10165000B9F17E0FD3BFC2EB8212C2EBC21209F105
:101660000109520092FBF9F909F10109994504D0E9
:101670005FFA89F1042005F003FA3888CAF800906F
:10168000E0E69342D4BFC4EB0303C4EB0203BBE622
:10169000032828D12A4B1B88092B3FF476AF002D55
:1016A0003FF473AF274D2B68002B3FF46EAF4A20F9
:1016B000214605F0E5F9244B2C6018880CE72146FB
:1016C00005F0DEF9204B2C60188805E740207F21CB
:1016D000019205F0D5F93888019A012825D0022811
:1016E0007FF4B0AE5AE704287FF44FAF002D3FF4EB
:1016F0004CAF2146402005F0C3F946E78142D4BFF4
:10170000C9EB0102C9EB0002A0E7C9EB89194FEA56
:10171000490999FBF3F909F101097CE79342D4BF28
:10172000C5EB0303C5EB02039DE61168B8F8003072
:10173000024A99421088FFF662AF5AE7EE9CFF1FFB
:10174000389DFF1F049CFF1F889DFF1F08B50F4B8E
:101750001B88022B0FD0032B12D0042B03D00C4B71
:1017600001221A7008BD7F21092005F089F9084B74
:1017700001221A7008BD7F21412005F081F9EEE7B2
:101780004021092005F07CF9E9E700BFFE9BFF1F1F
:10179000B79BFF1F38B51C4B1B881D2B26D01B4B3E
:1017A0001B88012B25D01A4A1A4B14881B681A4A29
:1017B000A342128818DB9342D4BFC4EB0303C4EBEB
:1017C0000203141B7F2CC6BFDB010134C3EBC31320
:1017D00093FBF4F4114D2B689C4203D0E1B2052039
:1017E00005F04EF92C6038BD0023EAE70C4B1C884D
:1017F000F0E70C4B0C4A0D491B6812680C689B1AE9
:101800001C1B84F30704E5E7769DFF1FEA9CFF1F7E
:10181000B29BFF1F4C9BFF1F749DFF1F909DFF1FDE
:10182000889BFF1FB09DFF1F4089FF1FF89CFF1F73
:1018300010B50F4C23685BB90E4B1B88022B11D0DF
:10184000033B012B09D90C4A00231370236010BD00
:101850000021052005F014F9EEE70021092005F02C
:101860000FF9F0E70021412005F00AF9EBE700BF8E
:10187000909DFF1FFE9BFF1FB79BFF1F08B5274BC7
:101880001B78ABB1152008F077FC254A254B128850
:1018900018601D2A15D0244A1288EAB1012A25D0E1
:1018A000224B1B78002B34D0BDE80840FFF7C0BFA7
:1018B000112009F0DDFA1A4A1A4B128818601D2A05
:1018C000E9D11B4B1B78002BEAD0184B1B780BB3CC
:1018D000BDE80840FFF75EBF164A1288002ADFD035
:1018E000154A1B6812889A42DADCEEE70F2009F0ED
:1018F000BFFA104B114A1B88106033B1104B114ACC
:101900001B6812689B1A9842DFDD084B1B78002B7E
:10191000CAD108BDFFF71AFFDAE700BF5C9DFF1FC1
:10192000769DFF1F4C9BFF1FEA9CFF1FB79BFF1F6D
:101930005E9BFF1FFE9BFF1FB29BFF1FF89CFF1FBC
:10194000B09DFF1F4089FF1F2DE9F04FDFF818B34E
:101950009BF80060012E93B000F02182C0F0F3816B
:10196000022E00F0BF809948994B9A4DDFF8ECE2C7
:10197000994A9A499A4F9B4C009400789A4C1B784C
:101980002D789EF800E01278097897F800A0DFF82B
:10199000DCC2DFF8DC82DFF8DC920194012E934C8C
:1019A00094BF0136002622708BF80060904C914E57
:1019B00023703070904C914E21703570904C914E48
:1019C00084F800A03270BEF1000F40F0F1808E4C20
:1019D00024880D2C00F09181DFF888E2002426464F
:1019E0008EF80040A3462BB1874B1C88002C40F09A
:1019F00091812346854C248803EB0B0E002C40F08C
:101A00003B81834B834C1B7899F8009024780133F9
:101A1000A3EB4903002C40F08081019C2478C4EBA7
:101A2000030B002C40F039820023DFF82C927A4C13
:101A300099F800902478C3EB0B03A3EB49032B44E4
:101A4000181A002C00F07D81B5FA85F56D099CF817
:101A500000300544ED1A002B00F0718119F10000EF
:101A600018BF0120009C98F8003027786B4C281A8A
:101A7000C31AA3EB47030B449B1A2178684C694AAD
:101A80002568A3EB4A034FF00C0A1AFB01331360DD
:101A9000654A66481288664900680988C2EBC20236
:101AA00002446448194450F822200C398E44724490
:101AB0000EB161490B60AA4200F01B815F4B604888
:101AC00019680591059901601B6806935D48069B9E
:101AD000008822605B1A834284BF5B4B1A6013B09C
:101AE000BDE8F08F594F06AE0025E9B2584806F020
:101AF000FBFC57F8043B0135C01A0C2D46F8040BCB
:101B0000F3D1544B079FB3F800C00E9B0D9E0F9D61
:101B10001098354C01946345ACBF4FF0000E4FF068
:101B2000010EBC45D4BF00270127B445D4BF002611
:101B30000126AC45D4BF4FF000084FF00108119BBF
:101B400084F800808445444C4449324ADFF82491AB
:101B50001770D4BF4FF0000A4FF0010A9C45099B53
:101B600084F800A01B4C81F800E0D4BF00250125BB
:101B70009C450A9B2570154C154F174A89F8006043
:101B8000D4BF00200120164E144920709C45D4BFBC
:101B900000230123134C96F800A03B7012780978BB
:101BA0009BF80060DFF8C4C0DFF8C4800094F5E65D
:101BB0002B4E2C4CB6F800B00126BBF1180F267046
:101BC00040F2B9804FF0000B0DE700BFB59BFF1F3F
:101BD000B69BFF1FB49BFF1F359DFF1F349DFF1F4A
:101BE000369DFF1F799DFF1F849DFF1FC19DFF1F15
:101BF000C39DFF1FC29DFF1FC59DFF1FC49DFF1FEB
:101C00007C9DFF1FC69DFF1FC89DFF1F449BFF1F9C
:101C1000F089FF1FB49DFF1F9E9DFF1FE99CFF1FC2
:101C2000AC9BFF1F3C9DFF1F6C9DFF1F009CFF1F77
:101C3000589BFF1F98F20000849BFF1F949EFF1F7C
:101C4000D09BFF1F869DFF1FB89DFF1F4889FF1F68
:101C5000F89BFF1F9C9DFF1F8C9DFF1FC79DFF1FB3
:101C6000769DFF1F5E9BFF1FE09CFF1FC09DFF1F17
:101C7000789DFF1F8B9DFF1F012C00F07981022CA6
:101C800000F0DA81032C9E4B00F00D811D78009B43
:101C90009CF800B0197899F800209A4B019C98F8AC
:101CA000008093F800C02778A5EB4B05A1EB8104D9
:101CB000C2EB8273C8EB05012144C2EB83028B188F
:101CC00003EB4C0303EB8A0A27B18F4B1B78002BE5
:101CD00040F04E8201238D4A8D4C12788D49256843
:101CE000C2F10602534402EB420203EB82030B6093
:101CF000CEE68949894B0968E6E6002B3FF46CAED5
:101D0000874E884FB6F800B00126BBF1180F3E7021
:101D100011D9F346A4F10D036CE6019C2478B9F1C6
:101D2000000F40F09E80013BC4EB030B002C3FF4FE
:101D30007BAE4B4679E6ABF10C0B012653E6184619
:101D400090E6254683E6784F06AE0025E9B277484F
:101D500006F0CAFB57F8043B0135C01A062D46F8B9
:101D6000040BF3D1724A0B991288684B0020914200
:101D70001870C0F283800A998A4240F3DA816D4874
:101D80006D4A6E4990F800A012780978DFF8D4C146
:101D9000DFF8D48105201870694B009351E0694F3A
:101DA00006AE0025E9B2684806F09EFB57F8043BF2
:101DB0000135C01A0C2D46F8040BF3D15C4B099C7D
:101DC00018880A9F4F4B0E9ADFF89C81DFF894C168
:101DD00006A962C98442ACBF4FF000094FF0010967
:101DE000B842D4BF00270127B042D4BF0026012645
:101DF00083F80090A842524B0093D4BF00250125E0
:101E000088421D70D4BF002101214B4B0D9C88F8E6
:101E100000609042D4BF002201221A70109B474EEE
:101E2000444D8CF80070A042D4BF4FF0000A4FF030
:101E3000010A9842317085F800A019DC002343485C
:101E40000370434E4348444B444D454C96F800E0E4
:101E500000781B782D789BF80060DFF810910194D2
:101E60009CE5002C40F07B8103F1FF3B2346DCE541
:101E70000F9B9842D4BF00230123E0E72E4A2F494D
:101E80002C481D702E4B1278097890F800A0DFF8CE
:101E9000D4C0DFF8D4800093D3E7B9F1000F3FF44A
:101EA000C3AD0123C1E51978009B9CF800C01A78E6
:101EB00098F8008099F80030124D019C2D78247814
:101EC000A1EB4C01C8EB0108A2EB8202C3EB8371CA
:101ED0004244C3EB8103134403EB450303EB8A0A3B
:101EE000002C40F049810120084B0A4A1B78084C1D
:101EF00082440C2111FB03A313602568C8E500BFD1
:101F0000F089FF1F9E9DFF1F8C9DFF1FE99CFF1FF7
:101F1000AC9BFF1F3C9DFF1FD09BFF1F949EFF1F8C
:101F2000769DFF1F5E9BFF1F248AFF1F709BFF1F74
:101F30009C9DFF1F369DFF1F359DFF1F349DFF1F7A
:101F4000799DFF1FF489FF1F9C9BFF1F829BFF1F32
:101F5000C79DFF1FB59BFF1FB69BFF1FB49BFF1FB5
:101F6000849DFF1FC09DFF1F789DFF1F8B9DFF1F3E
:101F7000AD4BDFF8E4B21F7899F800309BF8009081
:101F8000029307F1010BABEB43031F46B9F1000FBE
:101F900040F0B380019C94F800B0C9EB0703CBEB91
:101FA00003030193BBF1000F40F0BB805B469F4CE5
:101FB000DFF88C92247803942746019C99F80090CE
:101FC000E31AA3EB49032B44181A002F00F0A48056
:101FD000B5FA85F464099CF800300444E41A1BB196
:101FE00019F1000318BF0123009898F800500078F9
:101FF000E31A5B1BA3EB40030B449B1A029AA3EB6F
:102000004A03002A40F09280BBF1000F40F0C280EA
:102010005B4400287ED1BAF1000F0CBF00226FF0A4
:102020000902834883490078834C1A440C2313FB2C
:1020300000230B6025682BE5019C804B24780194DC
:10204000009CDFF814B227787D4C98F80080247843
:1020500000949CF800C099F800909BF800B09DF89F
:10206000044083F806805A72DFF8F0819DF8002062
:1020700083F805C0DA709C7083F800901D71DF71E1
:10208000197283F80AA083F801B04FF0000C012206
:1020900000236A4F194645464C4607E0022A09D0FC
:1020A0000B2B0BD017F8014F15F8012F944203F1B9
:1020B0000103F3D101310B2BC9B2F3D10A2907D89F
:1020C0000CF1010CBCF1110F4CD018F80B2FDFE70D
:1020D000554A5C4B1478554953F82C20544B0978D9
:1020E0001B78544D01342244101A08440C22524CDF
:1020F00012FB03032B602568CAE4029B002B44D02B
:10210000019B93F800B0BBF1000F07D17B1E019338
:102110005B464CE7002284E7039C5CE7CBEB0703BC
:102120000193029B003318BF012340E74FF0000BDF
:102130006EE709998A4235DC08998A4242DD4248B5
:10214000424A434990F800A012780978DFF810C19C
:10215000DFF81081032018703E4B009371E6C4EB4A
:10216000030B9EE6344C334B25681D602B468FE4F1
:10217000031C18BF0123AEE5314B1B78002B3FF445
:10218000B2AE003018BF0120AEE6019BA14693F825
:1021900000B002E7B9F1000F0CBF4FF0000B4FF099
:1021A000090B35E72848294A294990F800A01278F8
:1021B0000978DFF8ACC0DFF8AC8004201870254B3C
:1021C00000933EE607998A420FDD1F481F4A2049C7
:1021D00090F800A012780978DFF884C0DFF88480D6
:1021E000022018701B4B00932BE606998A42174A6F
:1021F00017490DDD1448127890F800A00978DFF82F
:1022000060C0DFF8608001201870124B009318E660
:102210000D4B127893F800A00E4B0978DFF840C000
:10222000DFF8408000930CE6F089FF1F9E9DFF1FA2
:10223000E99CFF1F3C9DFF1FAC9BFF1FD49BFF1F12
:102240008C9DFF1FBCEF0000369DFF1F359DFF1FBB
:10225000349DFF1F799DFF1FB49DFF1F30F10000CB
:10226000C09DFF1F789DFF1F2DE9F04F2E4B1B785F
:102270008BB0002B53D10E2007F07EFF0BF0D2FB6A
:1022800001462A482A4C2B4DFEF754F92748FEF701
:1022900027F90BF0E1FD80F30C002060FFF754FB01
:1022A0002E68012E5AD0022E00F08782032E00F0F5
:1022B0009783214C2368214A214E0993099B177863
:1022C0003068204C07210122181A11FB0722904286
:1022D000236000F26D821C4E32689A1A0D2A00F2B9
:1022E00060821A4E32689A1A132A00F25582184EEA
:1022F00032689A1A252A00F23C82164D2A689B1AE7
:10230000502B00F2F581144B1B88012B00F00D823D
:1023100004F04AFC04F078FA0BB0BDE8F08F05F049
:1023200015FB0BB0BDE8F08F719BFF1F149DFF1FC5
:10233000489DFF1F709DFF1F949EFF1FE29CFF1F83
:10234000F09CFF1F0C9DFF1FE89BFF1FBC9BFF1F06
:10235000C09BFF1F009DFF1F4C9DFF1FDFF80083E8
:102360009A4AB8F800001378834204D0C3B21846E2
:10237000137004F055FBDFF8E492954AB9F8003089
:102380001178994204D0934F3978002940F098870A
:10239000914A23681288914C9A42C0F2EE80904A8A
:1023A0001278002A40F0E980DFF8B8A2BAF80030CD
:1023B00023B98C4B1B88002B00F042858A4A8B4B3B
:1023C00011881B888A4A0B4412685B109342894A21
:1023D000126880F2B78400219342B4BF01230B46F8
:1023E00004910093ACBF4FF0010B8B4605910E207A
:1023F00007F0C2FE804B814A1B68176803930133C4
:10240000A7F25232002B8446029240F36A87802B57
:10241000A8BF80237A4A7B4912780191002A00F0F4
:10242000B6800978914200F0B280B9F80010DFF868
:102430002CE2994201F061816649AEF80030724B9E
:102440004FF0010E81F800E01978DFF81CE2019BE3
:102450008EF800101A70009B002B00F00781BAF86C
:102460000030002B00F00281684B1B685A1C002AC8
:1024700040F33B87802A00F33787654E65496648FD
:102480003688098800683144B0EB610FC1F20982D7
:10249000A3F148020F2A02D8473BA8F800300E20CB
:1024A00007F06AFE6FF454731F44874202DC5B4BF3
:1024B00000221A705A4B1B88002B00F03B84594BAA
:1024C000594A1B781178994240D0002B3ED0574989
:1024D0000E78002E00F0EE87554991F800C0BCF14F
:1024E000000F40F0E587534F0097534F5348029732
:1024F000504F007887F800C04F4F4FF0010E87F81B
:1025000000C081F800E0002841F089814C49097839
:10251000002901F04A804B4903910E4609780029B1
:1025200041F040804848444F0078397001210297BB
:10253000317058B13F483E49009000200870009922
:10254000029F0870039901263E70087013703F4B7C
:102550001B88A3F11B02012A40F28D861D2B7FF4FC
:10256000A9AE394F3B78002B41F00C81384E3378BF
:10257000002B40F0958433709CE62168354A069123
:1025800006983549106002220B602A600CE71E494C
:10259000DFF8D4E0097800293FF459AF9EF8000035
:1025A00081423FF454AF03984B2841F352801833D3
:1025B000802BB9F80000A8BF802398423FF447AFB2
:1025C0002648038003480123037040E7E19CFF1F76
:1025D000C49BFF1F5F9BFF1FFA9BFF1F949EFF1F63
:1025E0006A9BFF1FEE9BFF1F809BFF1F469DFF1FE7
:1025F000989BFF1FBC9DFF1F849BFF1F509BFF1FCD
:10260000AC9DFF1FA89BFF1FAD9DFF1F3C9DFF1FA3
:10261000F49CFF1FEE9CFF1F8C9BFF1FE89CFF1F7D
:102620004E9DFF1F829BFF1F5A9BFF1FC49DFF1FD4
:10263000449DFF1F8A9DFF1FFC9BFF1FC59DFF1F21
:10264000C19DFF1F3C9BFF1F5E9BFF1F769DFF1FD1
:102650005B9BFF1FB89BFF1F089DFF1F109DFF1F67
:10266000FC9CFF1FB09BFF1FA99BFF1F029B9C456B
:10267000BFF615AF8E4B1B88002B3FF410AFBBF19C
:10268000000F7FF4F1AE8B4B1B881BB1059B002B19
:102690007FF4EAAE049B002B3FF401AF864B1A781F
:1026A000002A7FF4FCAEDFF8888298F800600122EF
:1026B0001A70002E40F09183804B1B78002B01F0A4
:1026C00032817F4B1B78002B01F043817D4B1B78BF
:1026D000002B7FF4E4AE7C4B1B78002B3FF4DFAE85
:1026E000B9F8003079490A3BA9F800300A70D6E6FB
:1026F00002F0A8FF764B1B7873B9764B1B785BB959
:10270000754B1B7843B9754B1B782BB9744B1B78F1
:1027100013B901F05DFE01E001F066FE23682B6055
:10272000704B1B88012B7FF4F3AD6F4A6F4B116820
:102730006F481A78A1F118032A2101FB03F1016007
:10274000002A00F0E1826B4A1368994200F37C830F
:1027500080F2868368480068D0F17F0048BF03306C
:10276000801001301B1A994200F37A8313601946D6
:10277000CCE2FEF7ABFD614B1B881B3B9BB2022BEF
:1027800005D85F4B1B7813B12B68012B01D001F0EA
:1027900049FE23683360B0E5FFF770F823683360C3
:1027A000A5E5FEF7CBF9FEF7BDFD2368336098E59C
:1027B000FEF73CF9236833608DE5524A266812889B
:1027C000B24204DB464B1B78002B00F064834E4C76
:1027D0004E48236807934E4B079900681B88091AD7
:1027E000994200F2AB80002B00F0A880494B198879
:1027F00000293FF45FAD484B48481B680088B3424E
:10280000B8BF33469A4241F34580454B1A60DFF822
:10281000248188F80010344FFEF708F938687F28C3
:1028200040F342863F4B7F3883FB0032C317C3EB34
:10283000620303EB4303A0EB830073303A4B019335
:102840001B883860002B40F04A87234B00931B788D
:10285000002B00F07384354E3378002B00F06E842B
:10286000DFF8D490DFF8BCA04FF0000B0CE003F1D0
:102870007300C0B298F8001004F02AF933780BF115
:10288000010B5B4540F35A843B6859F8040F184428
:10289000A0F17F038AFB0321DA17C2EB610202EB8E
:1028A00042027F28A3EB8203E1DCFDF7EBFEE0E7C9
:1028B000EE9BFF1F049DFF1FE89CFF1FC19DFF1F94
:1028C000C29DFF1FC39DFF1FC49DFF1F5F9BFF1F76
:1028D000FC9BFF1F449DFF1F8A9DFF1F3C9BFF1F0A
:1028E0006A9BFF1F4C9DFF1FB89DFF1FB79BFF1FDB
:1028F000E49BFF1F649BFF1F909DFF1F769DFF1FA2
:102900005E9BFF1FFA9BFF1F949EFF1FB89BFF1F3C
:10291000EC9BFF1F5C9BFF1F089DFF1FA09DFF1FDF
:10292000409BFF1FABAAAA2A949BFF1FA089FF1FF1
:10293000E99CFF1FE29BFF1F7889FF1F554B5649FB
:102940001B6808885549B342B8BF33469A4200F322
:102950008982534E09888342A8BF03463360002909
:102960007FF455AF9A42C8BF0B4640F38282801A6B
:10297000B0F5804FAABF9B03C3EB8333013093FBB9
:10298000F0F0FEF739F8C0F3C6100BF04BF8454BEA
:10299000064618880BF046F84349074630460BF0C8
:1029A00095F8014638460BF091F831460AF086FF5B
:1029B0004FF07E5106460BF027FA002840F05F8763
:1029C0003A4930460BF03EFA002840F01C8730466A
:1029D0000BF068FAC0B2DFF8F48088F800001AE75C
:1029E000334B26681988B14274DD324B1B78002BBB
:1029F00070D1DFF8DC9099F800007F2840F3BE86A4
:102A0000A3F155337F3803F1004383FB0032C31732
:102A1000C3EB620303EB4303A0EB83007330264B4D
:102A200001931B88C0B289F80000002B40F0078793
:102A3000224B00931B78002B00F06785204E3378E3
:102A4000002B00F062851F4FDFF87C804FF0000AFA
:102A50000AE003F17300C0B204F062F833780AF1BF
:102A6000010A534540F3518557F8043F99F8000097
:102A70001844A0F17F0388FB0321DA17C2EB61023F
:102A800002EB42027F28A3EB8203E2DCFDF7FAFDB2
:102A9000E1E700BF089DFF1FA09DFF1F5C9BFF1F7C
:102AA000409BFF1F489BFF1FCDCCCC3D0000FE424A
:102AB000FA9BFF1F6A9BFF1F949BFF1F8A9DFF1FAE
:102AC000A089FF1F7889FF1FABAAAA2AE29BFF1FDC
:102AD000409DFF1FA24F38687F2840F3D181A14B52
:102AE0007F3883FB0032C317C3EB620303EB43035E
:102AF000A0EB83007330DFF8B49299F800A0824510
:102B000000F02882984B1B88002B43D1974A9848A5
:102B100012680088914205DC8242D4BFC1EB0203F7
:102B2000C1EB0003411AB1F5804FA6BF9B030131F1
:102B3000C3EB833393FBF1F0FDF75EFFC0F3C610E8
:102B40000AF070FF8B4B064618880AF06BFF8A4923
:102B5000804630460AF0BAFF014640460AF0B6FF0A
:102B600031460AF0ABFE4FF07E5106460BF04CF9B1
:102B7000002840F06186814930460BF063F9002857
:102B800040F0308630460BF08DF9C0B2DFF820827D
:102B900088F80000BAF17F0F40F381847148AAF1F0
:102BA0007F0A80FB0A304FEAEA73C3EB600000EB58
:102BB0004000AAEB80007330714B00931B78C0B2C9
:102BC00089F80000002B40F0E1836E4B03931B78E3
:102BD000002B40F0AE856C4B02931B78002B40F02D
:102BE00051866A4B0193029B1B78002B3AD0684BAD
:102BF0001B88182B17D099F800201344A3F1180054
:102C00007F2840F3F285574A973B82FB0321DA176E
:102C1000C2EB610202EB4202A3EB820303F17300F9
:102C2000C0B203F07DFF5B4A5B4B127833F8123081
:102C3000182B17D099F800201344A3F118007F280F
:102C400040F3DD85474A973B82FB0321DA17C2EB4D
:102C5000610202EB4202A3EB820303F17300C0B2F4
:102C600003F05EFF009B1B78002B00F0AE84019BFD
:102C7000464E1988002900F0558538687F2840F3B2
:102C80005083384B7F3883FB0032C317C3EB62039A
:102C900003EB4303A0EB830073303860002940F05E
:102CA000E984009B1B78002B00F05F813B4E33785A
:102CB000002B00F05A81DFF8FCA0DFF8F4804FF021
:102CC000000B0CE003F17300C0B298F8001003F0A1
:102CD000FFFE33780BF1010B5B4540F346813B6807
:102CE0005AF8040F1F4A1844A0F17F0382FB032106
:102CF000DA17C2EB610202EB42027F28A3EB8203E8
:102D0000E0DCFDF7BFFCDFE7254B1960254B1B68B6
:102D1000A92202FB03F3002BBCBF03F57F533F3313
:102D20009B13543B194481F30C01282007F0E2FC6B
:102D3000FFF7EEBA144E1C481149124A3370037063
:102D40000B7003E493424FF0000B80F29C80012350
:102D5000CDF800B0CDF814B00493FFF748BB00BF26
:102D6000B89DFF1FABAAAA2A5C9BFF1F409BFF1FB9
:102D7000A09DFF1F489BFF1FCDCCCC3D0000FE4215
:102D80008A9DFF1F3C9BFF1FFC9BFF1F949BFF1F07
:102D9000789BFF1FA29BFF1F549DFF1FA089FF1F51
:102DA000649BFF1FD889FF1F449DFF1F409DFF1F8D
:102DB000E29BFF1F7889FF1F924B1B78002B7FF44B
:102DC0006EAB039B904A243B83F34703D9B25B204D
:102DD000136003F055FE98F80060032E30D1DFF841
:102DE000808298F80030002B40F03686874F3B7881
:102DF000002B40F02486834E3378002B40F012865F
:102E0000834B1B78002B40F00086824A1380824B54
:102E10001B78002B40F0EC85804B7F221A8098F8BD
:102E200000306BB93B785BB933784BB97C4A7F2172
:102E30000720138003F024FE7F210B2003F020FEE7
:102E4000784B1F68FFF72BBB77480068D0F17F00F5
:102E500048BF033003EBA00301339942BFF686ACB1
:102E6000116053E7714B09881A6000297FF4CFACD9
:102E700013469842D4BFC2EB0003C2EB030376E5CE
:102E8000FDF700FC37E60123CDF810B0CDF800B017
:102E90000593FFF7ACBA01232B60654CFFF70ABA24
:102EA000644B6A20198803F06FFF3B783370FFF79B
:102EB00001BA614B1B78002B3AD0604B1B88182B52
:102EC00017D099F800201344A3F118007F2840F38D
:102ED000ED845B4A973B82FB0321DA17C2EB610268
:102EE00002EB4202A3EB820303F17300C0B203F0D2
:102EF00017FE544A544B127833F81230182B17D05F
:102F000099F800201344A3F118007F2840F3D284DD
:102F10004B4A973B82FB0321DA17C2EB610202EBBB
:102F20004202A3EB820303F17300C0B203F0F8FD89
:102F3000019B1B88002B00F08C84444B1B78002BDA
:102F400040F08184424B394A1988266800200123C9
:102F500010602B60B142364CBFF6ACA922683D4BE5
:102F60000892089A1A60FFF7A5B9039B1B78002BFB
:102F70007AD03B68A3F10C007F2840F3F2833048FD
:102F80008B3B80FB0320DA17C2EB600000EB4000B4
:102F9000A3EB800303F17300DFF8C080C0B298F8A0
:102FA000001003F095FD009B1B78002B5CD02A4E8F
:102FB0003378002B58D0DFF8ACA04FF0000B0BE0BB
:102FC00003F17300C0B298F8001003F081FD33786C
:102FD0000BF1010B5B4547DD3B685AF8040F184ABB
:102FE0001844A0F18B0382FB0321DA17C2EB6102C4
:102FF0000C3802EB42027F28A3EB8203E0DCFDF7F2
:1030000041FBDFE7C49DFF1F7C9BFF1FC39DFF1F8C
:10301000C29DFF1FF29BFF1FC59DFF1F5C9BFF1FF3
:10302000389DFF1F509BFF1F909DFF1F409BFF1F60
:10303000949EFF1F889BFF1FFC9BFF1F789BFF1F19
:10304000ABAAAA2AA29BFF1F549DFF1F449DFF1FEE
:10305000FA9BFF1F549EFF1FA089FF1FE29BFF1FCB
:10306000C19DFF1F7889FF1F029B1B78002B3AD060
:10307000AD4B1A88182A18D03B681344A3F11800E6
:103080007F2840F3B683A94A973B82FB0321DA17D6
:10309000C2EB610202EB4202A3EB820303F1730075
:1030A000A34BC0B2197803F013FDA2490B78022B91
:1030B00000F253830133DBB20B701A469E4830F89E
:1030C0001260182E40F090820422032B03F10106B7
:1030D000F3B208BF002330F81360182E40F083824B
:1030E000013AF2D10B70019B1B88002B00F0CB82C0
:1030F000009B1B783BB9039B1B7823B9029B1B7871
:10310000002B00F0E0838D4B1B78002B00F0D68065
:103110008B490B78082B00F2D1808A483A68006806
:10312000894E0133DBB25F1E101A46F827000B7080
:10313000864B2668198889F800200BE77F4B1B789F
:10314000002B40F0C1823B68814A1278002A45D0AA
:10315000A3F10C007F2840F30A83744A8B3B82FB67
:103160000321DA17C2EB610202EB4202A3EB8203F6
:1031700003F17300C0B298F8001003F0A9FC009BA3
:103180001B7853B36E4E33783BB3DFF8FC91DFF816
:103190009CA14FF0000B0BE003F17300C0B298F854
:1031A000001003F095FC33780BF1010B5B4514DD47
:1031B0003B6859F8040F1844A0F18B038AFB0321E4
:1031C000DA17C2EB61020C3802EB42027F28A3EB54
:1031D0008203E1DCFDF756FAE0E73B685D4A1278CE
:1031E000002A3DD0504A1288182A18D01344A3F15F
:1031F00018007F2840F30D834C4A973B82FB032144
:10320000DA17C2EB610202EB4202A3EB820303F185
:103210007300C0B298F8001003F05AFC3B684549AF
:103220000A78022A00F2A6820132D2B20A70164649
:10323000414830F816E0BEF1180F40F0F081042646
:10324000032A02F1010E5FFA8EF208BF002230F865
:1032500012E0BEF1180F40F0E181013EF0D10A709A
:10326000019A1288002A00F041823B4903220B7028
:103270002A60FFF71FB8394F3B78002B3FF476A93F
:10328000374E307801F01EF9364B1B78002B00F0DA
:10329000918233887E2B00F28D82334A013310886D
:1032A00099B23180002800F09582C9B2C0B22F4E89
:1032B00003F0E6FB3B783370FEF7FCBF3A6837E774
:1032C000DBB21846137003F0B9FB294B1B491A46B1
:1032D0001F4B184600230B703B7013700370FFF7F1
:1032E00057B80123FFF796B880262249224B234A7C
:1032F00009881B8812680B44B2EB630FBFF6CFA896
:10330000164B1B78002B40F0FE81B9F800301C4AA8
:10331000B3423FF4C4A81B4B168001221A70FFF77A
:10332000BEB8FDF7AFF9B8E4789BFF1FABAAAA2A95
:10333000E29BFF1FA29BFF1F549DFF1F449DFF1F89
:10334000A089FF1F609BFF1F7C89FF1FFA9BFF1F47
:103350003C9BFF1FFC9BFF1F409DFF1F5E9BFF1FB1
:10336000889BFF1FC69DFF1FCC9BFF1F5B9BFF1F02
:103370008A9DFF1FEE9CFF1FF49CFF1F8C9BFF1F6D
:10338000109DFF1F5F9BFF1F7889FF1FC14B01939B
:103390001B88002B40F06C83BF4B0393BF4B029301
:1033A000BF4E33786BB3DFF81483DFF8F8A24FF029
:1033B000000B09E003F17300C0B203F0B1FB3378F6
:1033C0000BF1010B5B451CDD58F8043F99F8000038
:1033D0001844A0F17F038AFB0321DA17C2EB6102D4
:1033E00002EB42027F28A3EB8203E3DCFDF74AF9FC
:1033F000E2E7AA4B029303F093FB009B1B78002BA0
:10340000CED1039B1B78002B3FF4EDAB99F8003035
:10341000A3F10C007F2840F3A781A2488B3B80FBDF
:103420000320DA17C2EB600000EB4000A3EB80033F
:1034300003F17300C0B203F073FB009B1B78002BF9
:1034400000F08081964E3378002B00F06582DFF823
:103450006C82DFF850A24FF0000B0AE003F173001A
:10346000C0B203F05DFB33780BF1010B5B457FF7D6
:10347000BAAB58F8043F99F800001844A0F18B0348
:103480008AFB0321DA17C2EB61020C3802EB42021D
:103490007F28A3EB8203E1DCFDF7F4F8E0E7504678
:1034A000FDF7F0F8FFF788BBFDF7ECF8FFF7C6B9BA
:1034B000002008707C49087840B17C490091097867
:1034C000002900F0A981009F00213970784909780E
:1034D00000297FF420A8002E67D1002865D1754E01
:1034E000724F96F800E06C4E03966C4E02966A4E50
:1034F00071493070694E0097087038703070BEF1B5
:10350000000F7FF41AA8FFF721B8634B1B78002B3C
:103510003FF4CFAC99F80030A3F10C007F2840F3C2
:10352000C281604A8B3B82FB0321DA17C2EB610246
:1035300002EB4202A3EB820303F17300C0B203F07B
:10354000EFFA009B1B78002B3FF4B3AC544E33785A
:10355000002B3FF4AEAC594FDFF848814FF0000A22
:103560000AE003F17300C0B203F0DAFA33780AF12B
:10357000010A53457FF79DAC57F8043F99F80000C6
:103580001844A0F18B0388FB0321DA17C2EB610218
:103590000C3802EB42027F28A3EB8203E1DCFDF74B
:1035A00071F8E0E703980021017042490978002989
:1035B0003EF4CCAF394902910978002900F08881A6
:1035C000029800210170FEF7C1BF039B1B78002BFE
:1035D0007FF44DAB029B1B78002B7FF448AB019B23
:1035E0001988FFF74ABB0B703B681E44A6F1180010
:1035F0007F2840F301812B4B973E83FB0632F31764
:10360000C3EB620303EB4303A6EB830606F17300EF
:103610002B4BC0B2197803F05BFA64E50A7073446F
:10362000A3F118007F2840F3F1801E4A973B82FBEC
:103630000321DA17C2EB610202EB4202A3EB820321
:1036400003F17300C0B298F8001003F041FA3B6830
:1036500006E6243B002BB9F8000040F32F81984286
:103660003EF4F5AE9BB21748A9F800300123037071
:10367000FEF7EDBEDFF84880C0B298F8001003F006
:1036800027FAFFF70EBB0E4B3878197803F020FAB3
:103690002EE500BF949BFF1F3C9BFF1FFC9BFF1F61
:1036A000A089FF1FABAAAA2AC59DFF1F8A9DFF1FE5
:1036B000C19DFF1F5E9BFF1F449DFF1F7889FF1F59
:1036C000E29BFF1F5F9BFF1F7F21402003F0D8F983
:1036D000B349B44A3B680B600021117034E5C0B2B5
:1036E00098F8001003F0F4F9FFF7AFB8D8B298F8E3
:1036F000001003F0EDF93B68B7E5AB4BDFF8ECE207
:103700001978FEF7A4BE4B2E40F3A9801836802E00
:10371000B9F80030A54AA8BF8026B3427FF4FBADBC
:10372000FEF7BDBE99F8000003F0FAF93188FFF703
:10373000A4BA9F4B01931B88002B7FF45AAE9D4B7C
:10374000029363E6029B1B78002B7FF450AA039B35
:103750001B78002B7FF48BAA41E7002213460A70E6
:10376000ACE4FCF78FFF17E4FCF78CFF62E6FCF794
:1037700089FFFFE4002216460A7059E5FCF782FF34
:10378000FFF74DB98C4E307800F09CFE8B4B1B78C8
:103790001BB133887E2B40F2A780894B1B7823B165
:1037A0003388854A002B40F0AB80864E3B783370DF
:1037B000FEF780BD824B1B78002BF6D033887E4A03
:1037C000002BF2D08049013B088899B21180002873
:1037D0007FF46BADC8B27B4E03F0C6F93B78337013
:1037E000FEF768BD7F20FFF7D1B9FCF74BFFFFF76D
:1037F00017BAFCF747FF53E4FCF744FF08E7FCF770
:1038000041FFFFF72CBA7F20FFF7E5B8FCF73AFF3E
:1038100018E7FCF737FFFCE4664F6C4902974FF05E
:10382000000C81F800C0009F02994FF0010E87F84C
:1038300000E081F800C049E60120FFF7A7B903F0D6
:103840006FF9FFF7F5B80021402003F019F9FFF7F1
:1038500079BB99F8000003F063F9FFF76EBB243ED3
:10386000002EB9F800303ADDB3423EF418AEB6B2DD
:10387000574BA9F8006001221A70FEF710BE012014
:10388000FFF7A9B84A4B01931B88002B7FF4B3AD17
:10389000FFF7A9B94F4A8342A8BF03461360FEF75A
:1038A000B6BF16462CE5FCF7EDFE47E6FCF7EAFE50
:1038B000FFF71CBBFCF7E6FEFFF737BB01283EF421
:1038C000C6AD0123CFE699F8000003F029F91AE408
:1038D0004148009041483D490390FEF72EBE012B20
:1038E0003EF4DDAD0126C3E701339BB23380D9B28C
:1038F0000520344E03F0C4F83B783370FEF7DABC91
:10390000013B9BB2D9B205202E4E138003F0B8F8CC
:103910003B783370FEF7CEBC029B1B78002B7FF404
:1039200066A9FFF7A4B92E4B1B782BB32D4B1B7840
:10393000002B7EF4B4AD2C4B1B78002B3EF4AFADC6
:10394000B9F8003022490A33A9F800300A70FEF7AE
:10395000A6BD244B1B78002B7EF4A1AD224B1B7817
:10396000002B3EF49CADB9F800301949013BA9F891
:1039700000300A70FEF793BD1A4B1B78002B7FF4C2
:103980001BAA194B1B78002B3EF489ADB9F8003007
:103990000F490133A9F800300A70FEF780BD00BF5F
:1039A000609BFF1FA089FF1FAD9DFF1F109DFF1F84
:1039B000949BFF1FFC9BFF1F889BFF1FC69DFF1F43
:1039C000C59DFF1F5B9BFF1FCC9BFF1F449DFF1FDF
:1039D0005F9BFF1F409BFF1F8A9DFF1F3C9BFF1F9C
:1039E000C29DFF1FC39DFF1FC49DFF1FA99BFF1FFB
:1039F000224B00227F2107201A8003F041F87F210B
:103A00000B2003F03DF8FFF70ABA1D4B01227F217E
:103A100007201A8003F034F87F210B2003F030F8E0
:103A2000FFF7F5B9174B04227F2107201A8003F016
:103A300027F800210B2003F023F8FFF7E1B9114B21
:103A400002227F2107201A8003F01AF87F210B2021
:103A500003F016F8FFF7CFB90A4B002107201E80AC
:103A600003F00EF87F210B2003F00AF8FFF7BEB930
:103A7000054B0393054B0293BDE400BF5C9BFF1F06
:103A8000F29BFF1F389DFF1F3C9BFF1FFC9BFF1FEE
:103A900038B506F00DFC0E4804F0BEFC0D4804F0ED
:103AA000BBFC0D4804F0B8FC00234FF07E5201210E
:103AB0000A48FCF7DBFC0A4B0A4A0B498024002524
:103AC0001C7118461D60BDE838400AF00BBA00BFF3
:103AD000709BFF1F9C9BFF1FF89BFF1F149DFF1FE8
:103AE000949DFF1F1C89FF1F2906000043682A20A0
:103AF000198803F049B900BF10B504462220636855
:103B0000198803F041F9E36824201988BDE81040C2
:103B100003F03AB910B504460A206368198803F027
:103B200033F9E3680C201988BDE8104003F02CB984
:103B300010B5044606206368198803F025F9E36888
:103B400008201988BDE8104003F01EB910B50446DE
:103B500002206368198803F017F9E36804201988C4
:103B6000BDE8104003F010B970B50E4C84B01225BA
:103B70000422012306460390029320468DE8240088
:103B80001423102105F040FE062209230293039618
:103B90000195204600921423102105F035FE04B053
:103BA00070BD00BFEC9DFF1F2DE9F041224D82B09A
:103BB000012602B284B20092284601967823192188
:103BC00005F068FD04F10C0212B28DE844002846AD
:103BD000A7197823192104F1020805F05BFD3FB213
:103BE0000FFA88F819233A46284619460196CDF867
:103BF000008005F04FFD78233A4628461946CDF857
:103C00000080019604F10A070B3405F043FD3FB232
:103C100024B278233A46284619468DE8500005F02C
:103C200039FD192300943A4601962846194605F0B5
:103C300031FD02B0BDE8F081EC9DFF1F2DE9F041A0
:103C40001E4682B01446002A6AD0099B4D4A00EBFA
:103C5000C305012C6F8929896868A7EB010382FBE2
:103C600003E21A444FEAE373C3EBA21302887BD04A
:103C7000042C38D112FA83F3994203DC9F4239466F
:103C8000A8BF1946089A0180B6F90030BDF9208016
:103C90003D48971D4FF0000E3FB21946424600972F
:103CA000CDF804E005F0F6FC29896A896B68521AA0
:103CB0001B885C2AA3EB010359DD03EB43030132AC
:103CC000C3EB431393FBF2F303F11B0213B2012086
:103CD000328019464246019000972B4805F0DAFCE5
:103CE0002A4B00221A702A4B022CB3F9001045D03F
:103CF000082C31D100221A8091422DD0089AB6F9B1
:103D0000003021480632012412B200921946019473
:103D1000BDF9202005F0BEFC204602B0BDE8F081D0
:103D20001C4D1D4A2B681268CB1A93420F4617D9B7
:103D3000164A338811781448012918BF01241470D9
:103D4000089A06321BB212B28DE814001946BDF96A
:103D5000202005F09FFC2F60012002B0BDE8F0811B
:103D6000204602B0BDE8F0819BB2D31A84E75C2103
:103D700001FB03F393FBF2F21B32A7E74A1C12B2DA
:103D80001A80B9E7C94216B2EC9DFF1F769EFF1F4D
:103D9000D49DFF1F549EFF1F3CFF000030B583B031
:103DA00000230C4605B2009326225B231C210C48FD
:103DB00005F0C0F9294601232622094804F0D6FC63
:103DC000002C24B205DB214601232622044804F0FE
:103DD000CDFC044A044B15801C8003B030BD00BFED
:103DE000EC9DFF1F3E8AFF1F408AFF1FF0B59B4CD2
:103DF000237883B01BB19A4B4FF6FF721A80994B10
:103E0000B3F90030C3B9984A954B1068B3F9002054
:103E100080F30C005B2303FB00F000131C30824294
:103E20005ED04FF0FF31FFF7B9FF904805F0E6F99B
:103E30000023237003B0F0BD012B36D0022B6ED0CF
:103E4000032B53D0042BF3D1252200258DE8240029
:103E500076231C218548864E864F05F01BFC17E013
:103E6000B0F5AF7FA8BF4FF4AF70323803FB00F35B
:103E700087FB0321DB17C3EB61111C3109B201235E
:103E80001D442522794804F071FC0C2D00F084803B
:103E9000E9B2794804F028FB56F8042B801A31283F
:103EA0004FF05B03DCDC1C21E9E7744B1A68B2F5C8
:103EB0002F7F32DB41F25C239342A8BF1346A3F568
:103EC0002F735B226E4802FB03F380FB0320DB179A
:103ED000C3EBA0201C30624BB3F900308342A0D169
:103EE000684BB3F9003001339BD1A1E7664B1B68E7
:103EF000B3F5FA7F11DBB3F57A6FA8BF4FF47A639D
:103F0000A3F5FA7261485B2303FB02F380FB0320F5
:103F1000DB17C3EB20201C30DDE71C20DBE75C4B0C
:103F20001B68B3F5FA7F33DBB3F57A6FA8BF4FF4A4
:103F30007A63A3F5FA7255485B2303FB02F380FB17
:103F40000320DB17C3EB20201C30524B1B68B3F55A
:103F5000FA7F1FDBB3F57A6FA8BF4FF47A63A3F53E
:103F6000FA724A495B2303FB02F381FB0321DB174F
:103F7000C3EB21211C313A4BB3F9003083427FF46B
:103F800052AF404BB3F900308B427FF44CAF4FE758
:103F90001C20DAE71C21EEE7262200258DE824000C
:103FA00076231C2131483C4E324F05F073FB16E05E
:103FB000B0F5AF7FA8BF4FF4AF70323803FB00F30A
:103FC00087FB0321DB17C3EB61111C3109B201230D
:103FD0001D442622254804F0C9FB0C2D0CD0E9B263
:103FE0002E4804F081FA56F8042B801A31284FF03D
:103FF0005B03DDDC1C21EAE7272200258DE8240095
:1040000076231C211948264E1A4F05F043FB17E072
:10401000B0F5AF7FA8BF4FF4AF70323803FB00F3A9
:1040200087FB0321DB17C3EB61111C3109B20123AC
:104030001D4427220D4804F099FB062D3FF4F5AEF0
:10404000E9B2184804F050FA56F8042B801A3128C7
:104050004FF05B03DCDC1C21E9E700BFCA9DFF1FBA
:104060003E8AFF1FD09DFF1F489DFF1FEC9DFF1F35
:10407000F489FF1F4B48371B9C9BFF1F4C9BFF1F66
:10408000D3058541408AFF1F8C9BFF1F011FB8127B
:10409000989BFF1FBC9DFF1F4889FF1FF89BFF1FB8
:1040A000248AFF1F709BFF1F2DE9F04FDFF8F0926D
:1040B000B84CB9F900504E7854F8255087B00290AA
:1040C000039306B10E78DFF800B3002A35D19BF8D0
:1040D0000030002B31D1B04FB7F90000002800F0BC
:1040E000CE80012800F02481012032233246019045
:1040F00000930299A94B2846FFF7A0FD002604462D
:10410000B7F90030022B40F3F48000233B80B9F96B
:104110000030A34A002BC0F2F880042BC4BF002358
:104120001380039B002B40F0F680002E0CBF20462E
:104130004FF0FF3007B0BDE8F08F9A4C964FEB6818
:104140002A6804934FF0000820460592A7F80080E3
:104150008BF8008004F046FF1120FFF725FD4FF09B
:10416000010A192328212046CDF804A00091242219
:10417000194605F08FFA782328212422CDF804A0CF
:1041800000912046194605F085FA5146204605F073
:104190000BFEDDF814A0022319222382E28150468F
:1041A0000AF06EFC51460246204608F05BFA2046B3
:1041B00008F06EFA142303227B4923822046A4F8D8
:1041C0000E8008F04FFA204608F062FA232323827B
:1041D00003227649A4F80E80204608F043FA2046D0
:1041E00008F056FA049B002B73D10123704A18463D
:1041F0001370FFF7B9FC28896B896C68191A5C2960
:1042000022885CDC131A5C2202FB03F292FBF1F3BE
:104210001B33684A6348138001241BB21A221946D3
:104220008DE81400142205F035FA049BDBB1298ACD
:104230006B8AEC68581A5C2822886FDD521A02EBF0
:104240004202C2EB4212431C92FBF3F31B33534A6C
:1042500054481380012438221BB28DE814001946FB
:10426000322205F017FA544A544BB7F900000121E5
:1042700011704FF6FF721A8000287FF432AFDFF81A
:104280004C814F4AD8F8003002991268CB1A9342F9
:104290004CD9474B1A78012A18BF01201870FFF734
:1042A00063FC029BC8F800300124012E4DD0042E7F
:1042B00058D0022E5FD0082E63D0002620E7121AB5
:1042C00002EB4202C2EB42124B1C92FBF3F31B3394
:1042D0009FE72F20FFF768FC322303223949A4F817
:1042E0000E802046238208F0BDF9204608F0D0F960
:1042F0007BE77FF40CAFEB68002B3FF406AFB9F916
:104300000030274A002BBFF608AF04231380039B1D
:10431000002B3FF40AAFFFF769FD06E7511A5C2254
:1043200002FB01F292FBF0F31B3390E70446BCE77B
:10433000002414238DE81800324602991D4B2846AC
:10434000FFF77CFC26460446DAE6B9F800308BF825
:1043500000600133A9F800306B6983B1002628465C
:104360009847CDE6B9F800300122013BA9F80030AA
:104370008BF80020F0E701233B800026C7E61E46AD
:10438000BEE66B6900223A804FF0FF36002BE6D183
:10439000BDE600BF448AFF1FD49DFF1FCE9DFF1FB7
:1043A000D09DFF1FEC9DFF1FE4F30000E8F3000029
:1043B000769EFF1FCC9DFF1FCA9DFF1F3E8AFF1FD9
:1043C0003CFF0000ECF30000D29DFF1F549EFF1F36
:1043D00001210D2006F01EBB00210D2006F01ABBA6
:1043E00001460D2006F016BB08B50D2006F018FB9F
:1043F000B0FA80F149090D20BDE8084006F00ABB7B
:1044000010B5002144080D2006F004FB204606F0FC
:104410003DFB0D20012106F0FDFA2046BDE81040CD
:1044200006F034BB08B5214A214B12881868824235
:1044300034DA204B1B88991A8342A8BF0346B1F592
:10444000F87FA3EB020321DAC3EB031303EB43135F
:1044500093FBF1F105310A2006F04CF9164B19785F
:10446000F1B1164B16491B6883F30703C3EB031323
:1044700003EB431381FB03211944DB17C3EBA111A9
:1044800005310920BDE8084006F034B9C3EB4313F9
:104490001B01013193FBF1F10531DCE70021DAE783
:1044A0000920BDE8084006F025B900BFFA9BFF1FB0
:1044B000409BFF1FA09DFF1FB79BFF1F909DFF1FED
:1044C000090402817F2838B5A8BF7F200D4D4FF425
:1044D000FA7303FB00F485FB04232344E117C1EBCB
:1044E000A3110A2006F006F9A4F578400C3885FBE4
:1044F00000310144C017A0EBA111BDE838400920EC
:1045000006F0F8B809040281024B4E20198802F027
:104510003BBC00BF949BFF1F024B4420198802F054
:1045200033BC00BF789BFF1F024B1020198802F09C
:104530002BBC00BFFC9CFF1F024B2C20198802F0F3
:1045400023BC00BF6C9BFF1F024B1E20198802F08A
:104550001BBC00BF689BFF1FC3680E20198802F0B8
:1045600013BC00BF024B2820198802F00DBC00BF0D
:10457000509DFF1F024B6420198802F005BC00BF4C
:104580004C9DFF1F024B5A20198802F0FDBB00BF53
:10459000549BFF1F024B1620198802F0F5BB00BF89
:1045A0005C9BFF1F024B2E20198802F0EDBB00BF61
:1045B000EC9BFF1F024B3020198802F0E5BB00BFC7
:1045C000489BFF1F024B1820198802F0DDBB00BF7B
:1045D000FE9BFF1F024B1A20198802F0D5BB00BFBB
:1045E0009E9BFF1F024B1C20198802F0CDBB00BF11
:1045F000969BFF1F024B6620198802F0C5BB00BFC7
:10460000889DFF1F024B7220198802F0BDBB00BFBE
:10461000A49DFF1F024B2020198802F0B5BB00BFEC
:10462000869DFF1F024B3220198802F0ADBB00BFF0
:10463000769DFF1F024B6820198802F0A5BB00BFC2
:10464000CC9BFF1F024B6C20198802F09DBB00BF62
:10465000449BFF1F024B6E20198802F095BB00BFE0
:10466000C89DFF1F024B5220198802F08DBB00BF6E
:104670007889FF1F024B5020198802F085BB00BFCC
:10468000EC89FF1F024B5420198802F07DBB00BF4C
:10469000EE89FF1F024B5C20198802F075BB00BF3A
:1046A0003C8AFF1F024B5E20198802F06DBB00BFE1
:1046B0004489FF1F024B6020198802F065BB00BFD0
:1046C000EA9CFF1F024B5620198802F05DBB00BF19
:1046D000E09BFF1F38B5094D4624204602F06EFBD3
:1046E00035F8021B00B28842204601D002F04CFB94
:1046F0000234A4B24E2CF0D138BD00BF549DFF1F30
:10470000064B074A10B41C88064B0846002C14BF01
:1047100011461946042210BC0AF070BAB09BFF1F64
:10472000E8FA0000ECFA0000064B074A10B41C88B7
:10473000064B0846002C14BF11461946042210BC33
:104740000AF05CBAEE9BFF1FE8FA0000ECFA0000EA
:10475000064B074A10B41C88064B0846002C14BFB1
:1047600011461946042210BC0AF048BA4E9DFF1F9C
:10477000E8FA0000ECFA0000064B074A10B41C8867
:10478000064B0846002C14BF11461946042210BCE3
:104790000AF034BA429DFF1FE8FA0000ECFA00006C
:1047A000064B074A10B41C88064B0846002C14BF61
:1047B00011461946042210BC0AF020BAF29BFF1FD2
:1047C000E8FA0000ECFA0000F0B52B4E2B4FDFF8B2
:1047D000C4E005460FCE87B06C460FC496E80300D0
:1047E0003B68274A274F44F8040B40F6CC308342FD
:1047F000C8BF3A46BEF800602180012E1188927829
:10480000ADF80D108DF80F202AD032D340F6CA0231
:10481000022E18BF00229A4226DCA3F698031A49FA
:104820001A4AC3EB031381FB03011944DB17C3EBE3
:104830006123243382FB0321DA17C2EBA10202EBCE
:104840008201A3EB4103303330328DF813308DF801
:1048500011206946284616220AF0D0F907B0F0BDAB
:1048600040F698029A42D8DD094B1868CDF811003D
:10487000EFE740F6FC02CEE700FB0000609DFF1F63
:10488000F4FA0000F0FA00003B773B986766666632
:10489000F8FA0000DE9CFF1FF8B5174C174E22787F
:1048A000174D33782F888E46003218BF01220146FB
:1048B0007046FFF7F9FB002398423370237015DB35
:1048C00014BF012000202B889F420ED040F23A7284
:1048D000A3F5AF730B490C4C02FB03F381FB0312EE
:1048E000DB17A3EB621332332360F8BD07490122C3
:1048F00018460A702270E6E7E88AFF1FE59DFF1F51
:104900009C9DFF1FB5814E1BDC89FF1F6C9EFF1F06
:10491000014B187802F0D0B9509EFF1F014B187858
:1049200002F0E4B9FC8FFF1F134BB3F9003030B530
:1049300083EAE374A4EBE374002BA0B218DB012339
:1049400000E0134603EB830252009442F9DA0B4D68
:1049500090FBF3F285FB03E403FB1200DB1730321C
:10496000D3EBA40380B201F8012BF1D10B7030BD61
:104970002D230B700131E2E7FC8FFF1F676666662F
:10498000144BB3F9003070B583EAE375A5EBE3751A
:10499000002BACB21ADB012300E0034603EB8300DB
:1049A00040008542F9DA0C4E94FBF3F086FB03E5F8
:1049B00003FB1044DB173030D3EBA503A4B201F89E
:1049C000010BF1D105480B70106070BD2D230B70E9
:1049D0000131E0E7549BFF1F6766666618FB000025
:1049E000134BB3F9003030B583EAE374A4EBE374FE
:1049F000002BA0B218DB012300E0134603EB830277
:104A000052009442F9DA0B4D90FBF3F285FB03E47C
:104A100003FB1200DB173032D3EBA40380B201F8A2
:104A2000012BF1D10B7030BD2D230B700131E2E76A
:104A30007889FF1F67666666134BB3F9003030B59F
:104A400083EAE374A4EBE374002BA0B218DB012328
:104A500000E0134603EB830252009442F9DA0B4D57
:104A600090FBF3F285FB03E403FB1200DB1730320B
:104A7000D3EBA40380B201F8012BF1D10B7030BD50
:104A80002D230B700131E2E7EC89FF1F6766666634
:104A9000134BB3F9003030B583EAE374A4EBE3744D
:104AA000002BA0B218DB012300E0134603EB8302C6
:104AB00052009442F9DA0B4D90FBF3F285FB03E4CC
:104AC00003FB1200DB173032D3EBA40380B201F8F2
:104AD000012BF1D10B7030BD2D230B700131E2E7BA
:104AE000EE89FF1F67666666134BB3F9003030B579
:104AF00083EAE374A4EBE374002BA0B218DB012378
:104B000000E0134603EB830252009442F9DA0B4DA6
:104B100090FBF3F285FB03E403FB1200DB1730325A
:104B2000D3EBA40380B201F8012BF1D10B7030BD9F
:104B30002D230B700131E2E73C8AFF1F6766666632
:104B4000134BB3F9003030B583EAE374A4EBE3749C
:104B5000002BA0B218DB012300E0134603EB830215
:104B600052009442F9DA0B4D90FBF3F285FB03E41B
:104B700003FB1200DB173032D3EBA40380B201F841
:104B8000012BF1D10B7030BD2D230B700131E2E709
:104B90004489FF1F67666666054B1B881BB9054B7A
:104BA000186808607047044B18680860704700BFB9
:104BB000949BFF1F20FB00001CFB0000164B1B8872
:104BC0000BB31BB230B583EAE374A4EBE374002BA0
:104BD000A0B21CDB012300E0134603EB830252006A
:104BE0009442F9DA0D4D90FBF3F285FB03E403FBED
:104BF0001200DB173032D3EBA40380B201F8012B93
:104C0000F1D10B7030BD064B1868086070472D233A
:104C10000B700131DEE700BF689BFF1F67666666A9
:104C2000ECFA0000164B1B880BB31BB230B583EABD
:104C3000E374A4EBE374002BA0B21CDB012300E0BF
:104C4000134603EB830252009442F9DA0D4D90FBB8
:104C5000F3F285FB03E403FB1200DB173032D3EBE6
:104C6000A40380B201F8012BF1D10B7030BD064BCB
:104C70001868086070472D230B700131DEE700BF14
:104C80007A9DFF1F67666666ECFA0000164B1B886C
:104C90000BB31BB230B583EAE374A4EBE374002BCF
:104CA000A0B21CDB012300E0134603EB8302520099
:104CB0009442F9DA0D4D90FBF3F285FB03E403FB1C
:104CC0001200DB173032D3EBA40380B201F8012BC2
:104CD000F1D10B7030BD064B1868086070472D236A
:104CE0000B700131DEE700BF5C9BFF1F67666666E5
:104CF00024FB0000174B1B881BB31BB270B583EA63
:104D0000E375A5EBE375002BACB21EDB012300E0DD
:104D1000034603EB830040008542F9DA0E4E94FB14
:104D2000F3F086FB03E503FB1044DB173030D3EBD5
:104D3000A503A4B201F8010BF1D108480B70106073
:104D400070BD074B1868086070472D230B70013148
:104D5000DCE700BFEC9BFF1F67666666FCFA00009D
:104D6000ECFA0000164B1B880BB31BB230B583EA7C
:104D7000E374A4EBE374002BA0B21CDB012300E07E
:104D8000134603EB830252009442F9DA0D4D90FB77
:104D9000F3F285FB03E403FB1200DB173032D3EBA5
:104DA000A40380B201F8012BF1D10B7030BD064B8A
:104DB0001868086070472D230B700131DEE700BFD3
:104DC000489BFF1F67666666ECFA0000164B1B885F
:104DD0000BB31BB230B583EAE374A4EBE374002B8E
:104DE000A0B21CDB012300E0134603EB8302520058
:104DF0009442F9DA0D4D90FBF3F285FB03E403FBDB
:104E00001200DB173032D3EBA40380B201F8012B80
:104E1000F1D10B7030BD064B1868086070472D2328
:104E20000B700131DEE700BF889DFF1F6766666675
:104E3000ECFA0000164B1B880BB31BB230B583EAAB
:104E4000E374A4EBE374002BA0B21CDB012300E0AD
:104E5000134603EB830252009442F9DA0D4D90FBA6
:104E6000F3F285FB03E403FB1200DB173032D3EBD4
:104E7000A40380B201F8012BF1D10B7030BD064BB9
:104E80001868086070472D230B700131DEE700BF02
:104E9000A49DFF1F67666666ECFA0000174B1B882F
:104EA0001BB31BB270B583EAE375A5EBE375002B6A
:104EB000ACB21EDB012300E0034603EB830040009D
:104EC0008542F9DA0E4E94FBF3F086FB03E503FB13
:104ED0001044DB173030D3EBA503A4B201F8010B6B
:104EE000F1D108480B70106070BD074B186808605E
:104EF00070472D230B700131DCE700BF869DFF1F3B
:104F00006766666628FB0000ECFA0000074B1B880A
:104F1000022B06D0012B0CBF054B064B186808600E
:104F20007047054B18680860704700BFEA9CFF1F78
:104F300030FB000034FB00002CFB0000054B1B88FD
:104F40001BB1054B186808607047044B186808606F
:104F5000704700BFE09BFF1F3CFB000038FB0000D8
:104F600008B5702001F02AFF044B1988884204D04C
:104F70007020BDE8084001F007BF08BDDE9CFF1FA0
:104F800008B5742001F01AFF044B1988884204D038
:104F90007420BDE8084001F0F7BE08BD6C9DFF1FFE
:104FA00038B5FCF7D1FC0D4B1B7833B90C4B1020F6
:104FB000198801F0E9FE012038BD0A4D0A4C2B7812
:104FC0002288B3FA83F382F008025B09114642207B
:104FD0002B70228001F0D8FE002038BD5E9BFF1FA1
:104FE000FC9CFF1FE29CFF1FA29DFF1F184B1A880D
:104FF00052B3184A128830B50A80B3F90030002B3A
:1050000083EAE374A4EBE374BCBF2D238B70A0B2DE
:10501000ACBF02310331012300E0134603EB8302EE
:1050200052009442F9DA0C4D90FBF3F285FB03E455
:1050300003FB1200DB173032D3EBA40380B201F87C
:10504000012BF1D10B7030BD044B1868086070471C
:105050009E9BFF1F40FB000067666666ECFA00003F
:1050600010B40A4B0A4C0A4693E8030083B0238825
:1050700002AC04E9030004EB8303104653F8081C58
:10508000052203B010BC09F0B9BD00BF74F40000E4
:105090004C9DFF1F30B40A4B0A4D0C4693E80700A5
:1050A00084B02B8804AD05E9070005EB8303204697
:1050B00053F80C1C042204B030BC09F09FBD00BFA3
:1050C0007CF40000DE9CFF1FF0B40C4D0C4F0E462C
:1050D0000FCD8CB001AC0FC40FCD0FC495E8070005
:1050E0003B8884E807000CAA02EB8303304653F8A0
:1050F0002C1C04220CB0F0BC09F080BD88F4000028
:10510000389DFF1FF0B40A4D0A4F0E460FCD86B0F2
:1051100001AC0FC42A683B88226006AA02EB830315
:10512000304653F8141C042206B0F0BC09F066BDEA
:10513000B4F40000FE9BFF1FF0B40A4D0A4F0E4668
:105140000FCD86B001AC0FC42A683B88226006AA46
:1051500002EB8303304653F8141C0C2206B0F0BC5B
:1051600009F04CBDC8F40000969BFF1FF0B40A4D37
:105170000A4F0E460FCD86B001AC0FC42A683B889B
:10518000226006AA02EB8303304653F8141C042263
:1051900006B0F0BC09F032BDDCF400006C9DFF1FCE
:1051A000164B1B880BB31BB283EAE370A0EBE370D2
:1051B000002B30B584B21DDB012300E0134603EB66
:1051C000830252009042F9DA0D4894FBF3F280FB1F
:1051D00003E503FB1244DB173032D3EBA503A4B283
:1051E00001F8012BF1D10B7030BD084604220549AE
:1051F00009F004BD2D230B700131DDE7CC9BFF1FAF
:105200006766666644FB0000F0B40A4D0A4F0E461E
:105210000FCD86B001AC0FC42A683B88226006AA75
:1052200002EB8303304653F8141C042206B0F0BC92
:1052300009F0E4BCF0F40000449BFF1F70B53C4D46
:105240002B780646002B35D11C4673780BB92046C7
:1052500070BDFCF779FB374A374B38481278317804
:105260001B78007802EB43034A1E03EB80030E2AEF
:10527000EDD801A050F822F0E152000003530000E5
:105280004F520000E15200004F5200004F52000008
:105290004F520000CF5200004F5200004F5200000A
:1052A0004F5200004F5200004F5200004F5200007A
:1052B000CB520000AE21224803F048FC204803F006
:1052C00091FE00232B700124BFE705F0F1FEAF2112
:1052D0001B4803F03BFC1B4A012313702B70B6E7FD
:1052E00083B91948038804294FF6FF7103F1FF328F
:1052F0000CBF01230B46134403F07F0301330380EB
:105300000FE073B1013B114A32F813304BB10E4E2E
:105310000F481049104A33800123002606700B7095
:105320001370084A0221012311702B70204670BDB2
:10533000E88AFF1F8B9DFF1F849DFF1F8C9DFF1F11
:10534000EC9DFF1F6C9EFF1F109DFF1FD09CFF1F39
:10535000C49BFF1F5F9BFF1F789EFF1F10B5064B6E
:10536000064C1A882046012101F0FCFC21884220CD
:10537000BDE8104001F008BDB09BFF1FA29DFF1FBC
:1053800010B5064B064C1A882046022101F0EAFCB3
:1053900021884220BDE8104001F0F6BCEE9BFF1FC3
:1053A000A29DFF1F10B5064B064C1A88204605210A
:1053B00001F0D8FC21884220BDE8104001F0E4BC97
:1053C0004E9DFF1FA29DFF1F10B5064B064C1A886D
:1053D0002046002101F0C6FC21884220BDE8104093
:1053E00001F0D2BC429DFF1FA29DFF1F08B51220F5
:1053F00001F0E4FC054B1988884206D0122001F028
:10540000C3FCBDE8084001F0D7BB08BD389DFF1FB5
:1054100008B5582001F0D2FC054B1988884206D007
:10542000582001F0B1FCBDE8084001F0C5BB08BD43
:105430007A9DFF1F08B5142001F0C0FC054B1988A8
:10544000884206D0142001F09FFCBDE8084001F01E
:10545000B3BB08BDF29BFF1FF0B480EAE075A5EB7B
:10546000E0750028ACB21FDB1DBF2B230B704E1C58
:105470000E46012300E0134603EB830252009542DF
:10548000F9DA0B4F94FBF3F287FB030503FB12449D
:10549000DB173032D3EBA503A4B206F8012BF1D110
:1054A00033700846F0BC70472D230B704E1CE0E7AC
:1054B00067666666084B188828B10D2807D00D3836
:1054C00000B2FFF7C9BF054A106808607047044A78
:1054D00010680860704700BFC89DFF1FECFA00000D
:1054E00048FB0000174B18880C2813D0192815D03A
:1054F0001A2817D01B2819D01C281BD01D281DD0F6
:105500001E2803D00C3800B2FFF7A6BF0E4A106861
:10551000086070470D4A1068086070470C4A1068B0
:10552000086070470B4A1068086070470A4A1068A4
:1055300008607047094A106808607047084A106898
:1055400008607047769DFF1F64FB00004CFB000065
:1055500050FB000054FB000058FB00005CFB000007
:1055600060FB0000034B1888A0EB8000400000B2F5
:10557000FFF772BF509EFF1F024B1888033800B21E
:10558000FFF76ABF509DFF1F024B18880C3800B20E
:10559000FFF762BF589BFF1F024B1888183800B2F4
:1055A000FFF75ABF789BFF1FC3681888183800B2EE
:1055B000FFF752BF30B5134C85B001252B463C2276
:1055C00002212046009503F037FB204603F00AFD38
:1055D00000224021802320460191009311460A4B6E
:1055E000029504F0ADF9204603F008FE074808498B
:1055F000084A0023036083800B608B8013609380D4
:1056000005B030BDEC9DFF1F90F60000D89DFF1F38
:10561000709EFF1F5C9EFF1F10B500EBC00000F1E5
:105620000F02D2B293B284B09C1E981C3D2303910A
:105630008DE819003921024804F0E6F804B010BDE5
:10564000EC9DFF1F014B01221A707047E59DFF1F63
:10565000F0B585B0634C644B0293644A0192042315
:105660000093634E634B644F644D2046402280217B
:1056700003F0EAF82046624A6249634C08F032FCC3
:10568000B761624FF761624FAF61624FEF61624F86
:10569000A7616248624FE761624F87616249634F69
:1056A000C761634F8F61634A634FCF61634F9761F7
:1056B000634B644FD761644F9F61644E644FDF61F9
:1056C000644FB761644D654FF761654FAF61654CDD
:1056D000654FEF61654F6648A761664FE761664FAA
:1056E00066498761664FC761664F674A8F61674F3A
:1056F000CF61674F674B9761674FD761674F684EC0
:105700009F61684FDF61684F684DB761684FF7610F
:10571000684F694CAF61694FEF61694FA761694894
:10572000694FE761694F876169496A4FC7616A4F8D
:105730008F616A4A6A4FCF616A4F97616A4B6B4FBC
:10574000D7616B4F9F616B4E6B4FDF616B4FB761E2
:105750006B4D6C4FF7616C4FAF616C4C6C4FEF61F0
:105760006C4FA7616C486D4FE7616D4F87616D4964
:105770006D4FC7616D4F8F616D4A6E4FCF616E4F38
:105780006E4B97616E4FD7616E4F6F4E9F616F4F3B
:10579000DF616F4F6F4DB7616F4FF7616F4F704CA7
:1057A000AF61704F70487149EF61714F714DA761E2
:1057B000E561714F714D724CDFF8E8E1714A724B4F
:1057C0008761C5618C61714EC1F81CE0704F714DED
:1057D000714C724872499761D5619C61D861B16022
:1057E00005B0F0BDEC9DFF1FA0860100801A0600E9
:1057F0004C8DFF1F2490FF1F89550000808EFF1FD6
:105800001C89FF1FA1880000F08DFF1F5945000073
:105810007955000065450000014700002C8CFF1FF2
:105820005D53000029470000E08CFF1F81530000FA
:10583000514700000090FF1FA55300006150000079
:10584000988CFF1F7545000079470000288DFF1FC9
:10585000C953000065550000048DFF1F1149000069
:10586000294900005C8EFF1F1D4900009550000073
:10587000E48BFF1F614F0000C9500000E88EFF1F3E
:10588000ED530000254C0000748CFF1F11540000E4
:1058900081490000A08BFF1F85450000A147000043
:1058A000548FFF1F355400008D4C0000508CFF1F9B
:1058B00095450000F54C0000708DFF1FA5450000C8
:1058C000654D0000108BFF1FB5450000055100001D
:1058D000BC8CFF1FC5450000ED4F0000388EFF1F38
:1058E000D545000039510000D88FFF1FE545000065
:1058F000CD4D0000CC8DFF1FF5450000354E00005A
:10590000348BFF1F054600006D5100000C8FFF1FF8
:10591000814F00009D4E0000148EFF1F15460000B1
:10592000E5540000588BFF1F25460000A1510000E0
:10593000EC8AFF1F3546000009520000588AFF1FFD
:1059400045460000B5540000A88FFF1F55460000D3
:10595000E1490000088CFF1F65460000394A00003D
:10596000C48AFF1F754600007C8BFF1FA48EFF1F9B
:10597000914A000085460000E94A00009546000073
:10598000414B0000A08AFF1F7C8AFF1FCC8FFF1FA6
:105990000D4F0000B54600003D4F0000C546000019
:1059A000555F0000A5460000F0B5461C83B00D46CB
:1059B0000127032336B22AB2044631468DE8880017
:1059C0002448ADB203F0B6FE0C23AA1C12B2009319
:1059D0000197052321B21F4803F0ACFE1E4A1F4B5E
:1059E00012881B68BA422AD023D3022A10D11C4C39
:1059F000A3F6CA0384FB03241C44DB17C3EB241463
:105A00000A2CA8BF0A2424EAE474A2B223B202E05A
:105A100000231A461C460D35AA1A01200093019056
:105A200012B2314603230B4803F002FE204603B0B6
:105A3000F0BD0C4CA3F6FC0384FB0324DDE7084C0B
:105A4000A3F6980384FB03241C44DB17C3EBE40494
:105A5000D6E700BFEC9DFF1FDE9CFF1F609DFF1F70
:105A6000898888881F85EB512DE9F0438FB283B078
:105A7000DFF84C80BD1D461D2DB204B236B24FF08A
:105A800001090AB22346314640460095CDF80490FC
:105A900003F000FE2A463346214640468DE82002A8
:105AA00003F0F8FD07F10C020095334612B22146CF
:105AB000CDF80490404603F0EDFD03B0BDE8F0835F
:105AC000EC9DFF1F2DE9F04F804685B0002959D18C
:105AD0000121314804F068F9304998F8062098F817
