:1000000000800020BD01000025DF0000DDDE0000D3
:10001000DDDE0000DDDE0000DDDE0000DDDE0000F4
:10002000DDDE0000DDDE0000DDDE000025DF00009B
:1000300025DF0000DDDE0000A5D50000A9D6000008
:1000400025DF000025DF000025DF000025DF0000A0
:1000500025DF000025DF000025DF000025DF000090
:1000600025DF000025DF000025DF000025DF000080
:1000700025DF000025DF000025DF000025DF000070
:1000800025DF000025DF000025DF000025DF000060
:1000900025DF000025DF000025DF000025DF000050
:1000A000E1BA0000EDBA000025DF000025DF000006
:1000B00025DF000025DF000025DF000025DF000030
:1000C00025DF000025DF000025DF000025DF000020
:1000D00025DF000025DF000025DF000025DF000010
:1000E00025DF000025DF000025DF000025DF000000
:1000F00025DF00004103010025DF000011EA0000B8
:1001000025DF0000ADEC000025DF000025DF00004A
:1001100025DF000025DF000025DF000025DF0000CF
:1001200025DF000025DF000025DF000025DF0000BF
:1001300025DF000025DF000025DF000025DF0000AF
:1001400025DF000025DF000025DF000025DF00009F
:1001500095D70000A9D70000BDD70000D1D7000077
:1001600025DF0000C9EF000025DF000025DF0000CB
:1001700025DF000025DF000025DF000025DF00006F
:1001800025DF000025DF000025DF000025DF00005F
:1001900025DF000025DF000025DF000025DF00004F
:1001A00025DF000025DF000025DF000025DF00003F
:1001B00025DF000025DF000025DF0000564B4CF254
:1001C000205210B51A804DF628121A8000BF00BFC9
:1001D0000DF0ACFE514B4FF010621A60504A9A601D
:1001E000504ADA60504A136813F4807304D14F49BF
:1001F0000B604FF4A85313604D4B1A78110703D5C9
:100200001A7842F008021A704A4B4B492A221A7097
:100210004A4A4B4B8B4204D252F8040F43F8040B6A
:10022000F8E7484B484900228B4202D243F8042B9E
:10023000FAE74649464A002352F8230041F82300D2
:1002400001336F2BF8D1434B434A802103F8011B44
:100250009342FBD1414B3D4A1A60414B8A221A70AE
:10026000A3F5805324225A70A0221A709A7992071B
:10027000FCD59A79D406FCD43A4A937903F00C035E
:10028000082B384BF9D103221A7140225A719A79FE
:100290009006FCD5334A9179324B4906FBD5324A58
:1002A000324911600221516020221A709A7902F0BD
:1002B0000C020C2AFAD12E4B2E4A1A602E4B2F4AD2
:1002C0001A6000225A60072243F8042C2C4AC3F813
:1002D0000C2D62B60EF0DAF9144B1B68DA0705D55F
:1002E00028480DF0A7FF284B284A1A60284B1B7896
:1002F0005B0609D5244C254B22689A4204D121483B
:100300000DF098FF0023236011F0D2FA0DF014FED7
:100310000DF042FDFEE700BF0E2005403080044096
:10032000823F04000100002B10D0034014D0034092
:1003300002D0074000E00740EC9CFF1F345501004D
:100340004088FF1FEC9CFF1F30A5FF1F0082FF1F8E
:100350000000000000E400E05FE400E008ED00E0E1
:100360000050064000400640448004400000030165
:1003700004800440C010050014E000E0FF76010096
:1003800000002020485EE8601CE00340A5C3945AAA
:1003900000F00740FFFFFFFFFFFFFFFFFFFFFFFF32
:1003A000FFFFFFFFFFFFFFFFFFFFFFFFFFFFFFFF5D
:1003B000FFFFFFFFFFFFFFFFFFFFFFFFFFFFFFFF4D
:1003C000FFFFFFFFFFFFFFFFFFFFFFFFFFFFFFFF3D
:1003D000FFFFFFFFFFFFFFFFFFFFFFFFFFFFFFFF2D
:1003E000FFFFFFFFFFFFFFFFFFFFFFFFFFFFFFFF1D
:1003F000FFFFFFFFFFFFFFFFFFFFFFFFFFFFFFFF0D
:10040000FFFFFFFFFFFFFFFFFFFFFFFFDEF9FFFF23
:1004100010B5054C237833B9044B13B10448AFF33E
:1004200000800123237010BDEC9CFF1F0000000022
:1004300038550100084B10B51BB108490848AFF307
:1004400000800848036803B910BD074B002BFBD0A0
:10045000BDE81040184700BF00000000F09CFF1FDF
:1004600038550100EC9CFF1F0000000038B5044621
:10047000104621700A491D4610F0FCFF01464FF05E
:100480007E5011F0ABF8074910F0F4FFE5606060B2
:10049000256165610EF08AF8E061204638BD00BF35
:1004A000DB0FC9400024744938B50446104621705A
:1004B00009491D4610F0DEFF01464FF07E5011F055
:1004C0008DF8064910F0D6FFE56060602561656132
:1004D0000EF06CF8E06138BDDB0FC94000247449B0
:1004E00038B503780446032B20D8DFE803F01A1848
:1004F0001002C168406910F0B3FE0D4905466068FE
:1005000011F06CF80146284611F068F838BD08492A
:10051000406811F063F8E16810F0ACFF38BDC068C6
:1005200038BDC168406910F09BFE38BD002038BD61
:100530000024744970B504460E460EF037F805469F
:10054000E069281A10F042FFE3682361E561666103
:10055000A0610146606811F041F80146A0601048B2
:1005600011F03CF810F012FB0FF0B2FF10F024FE77
:10057000054601464FF07E5010F072FE616910F0A2
:1005800079FF21690646284610F074FF014630467F
:1005900010F068FEE0602046BDE87040FFF7A0BFA5
:1005A000000080BF38B50E201C4C0DF0CFFA21881A
:1005B0001B4B884205461A881DDA0023511AB1F5F3
:1005C000805FAABF1B03C3EB03330131142093FBED
:1005D000F1F10DF041FE134B1988F1B923889D42CA
:1005E00010DAC3F57F630F33282091FBF3F1BDE8E8
:1005F00038400DF031BE9042D4BFC1EB0003C1EBD7
:100600000203DBE740F6FF718D42D4BFC3EB050167
:10061000C3EB0101C1EB0131E3E738BDF09DFF1FE2
:10062000BA9FFF1F589FFF1F10B504460DF090F8AA
:10063000204610BD70B44C88A04220D9012301335C
:10064000DBB21CB2660031F8144084421D46F6D37A
:10065000A04211D005F10045013D965B31F815101F
:1006600032F81530401AF21A00FB02F0641A90FBBF
:10067000F4F4E01870BC7047905B70BC70470226C1
:100680000125E5E700280CDA064A434282FB0320F5
:10069000DA17C2EB600000EB4000A3EB8000C0F172
:1006A0000C007047ABAAAA2A38B5234B1B78002B45
:1006B0002CD015200DF04AFA204B1860204B1B88D7
:1006C000984203DA1F4C237863BB38BD1E4A148856
:1006D000A042A4EB0302A8BF20467F2A1CDDC01A5B
:1006E000C001541C90FBF4F4002CEBD0154B1A788D
:1006F0000AB901221A70154D2B689C4204D0144B84
:10070000E1B2187809F0B0FA2C6038BD11200EF073
:1007100039FB0A4B1860D1E7C01AC0EBC01090FB40
:10072000F2F4E1E70A4B0021187809F09DFA002362
:10073000064A2370136038BD0C9FFF1F189DFF1FD2
:10074000929DFF1FEC9FFF1F849FFF1FE49FFF1FD1
:100750006C9DFF1F38B50F200EF014FB1B4A1C4B7D
:1007600012881860C0F53B600830904220DB194BBE
:100770001B889842A3EB0204A8BF1846801A7F2C5E
:10078000C6BFC0010134C0EBC01090FBF4F47CB1D3
:10079000114B1A780AB901221A70104D2B689C422D
:1007A00004D00F4BE1B2187809F05EFA2C6038BD26
:1007B000094C237803B938BD094B0021187809F09A
:1007C00053FA0023054A2370136038BDF49DFF1FC0
:1007D000309DFF1F709FFF1F949FFF1FA49DFF1F51
:1007E0008A9DFF1FF0B40E8886420DD203F10043AC
:1007F000013B31F81350854202D9F0BCFFF71ABF14
:1008000032F81300F0BC70471088F0BC704700BF8E
:10081000094B1B880C2B09D8084A80B252F82320B8
:1008200028B143F6FE73984203D9108C70471088A4
:1008300070470349FFF7FEBE469DFF1FE42E0100EF
:10084000803001004B4B4C4A2DE9F0471E8814685C
:100850004A4BB442B3F80080494B33DB4445A8BF50
:100860004446A6421C60C8BF00202DDDC6EB080729
:10087000B7F5804F33DB80037B1C90FBF3F0FFF771
:10088000C7FF404A404B15881B88C0F3C61909FBB7
:1008900005F57F2D8246A8BF7F252BB3A64253DCEA
:1008A0004445D4BFC6EB0404C6EB08049F42CCBF4A
:1008B00003FB04445C43354BC8BF013794FBF7F797
:1008C0001F6013E034461E60C6EB0807A045D4BF86
:1008D000C6EB0800C6EB0400B7F5804FCBDAC0EBDF
:1008E000803090FBF7F0CAE7284A1360284C236851
:1008F000994508D0274B1B88002B34D1264B1B88E9
:100900006BBBC4F80090254C23689A4506D0214B58
:100910001B885A1F032A19D9C4F800A0204C236849
:100920009D420FD01F4B188848B11A4B1E4A1B8896
:10093000D35C834203D0C0B2E9B209F095F92560D7
:10094000BDE8F087BDE8F0870024AFE7164AD05C29
:100950002030C0B20AF07F0109F086F9DCE7484692
:1009600009F022FACDE7104A4946D05C09F07CF93B
:10097000C4E700BFF09DFF1F549FFF1FBA9FFF1FDA
:10098000109DFF1F209DFF1F229DFF1FC09FFF1F67
:10099000849DFF1F3C9FFF1FE29DFF1F409DFF1F87
:1009A000E49DFF1F4A9FFF1F148AFF1F2DE9F04F90
:1009B00001208BB00EF0E6F9DFF850B3CBF8000061
:1009C00000200EF0DFF9B34BB34A1B8810600C2BEC
:1009D00000F00582B14A00211F2B117037D0B04FB3
:1009E000B04B3A88B04E53F8225000233370AF4BCF
:1009F000AF4A1B88AF491288013B012A31F91330F5
:100A0000059300F00682AC4B0193AC4B0293DFF8E8
:100A10000083DFF8009300230093A94B1B88012B70
:100A200000F04D82DFF8F0A2A64B0393DAF8004005
:100A3000A54B04930023A54A1288013A032A00F229
:100A40008682DFE812F00101DC0011007101A04B89
:100A5000934F1B783988934A934E52F821500033B4
:100A600018BF01233370C2E72046059310F0AEFC97
:100A7000984910F0FFFC059B0446184610F0A6FCB0
:100A8000954910F0F7FC0146204610F0EBFB10F002
:100A9000B7FE0446CAF80040D8F8000010F096FCF3
:100AA0008C4910F0E7FC8246009810F08FFC8A49D0
:100AB00010F0E0FC0146504610F0D4FB10F0A0FE10
:100AC000C8F80000854A864BB2F800E01988854BCB
:100AD000DBF800201B88DFF844C2CEEB040804EBEF
:100AE0000E0AC1EB000E08440499039CC1F800A053
:100AF0000199C4F80080C1F800E002999A420860A8
:100B0000BCF8001080F25281C3EB010C62486545CD
:100B10004FF0000E006880F256816C1C83420CF18D
:100B2000010C0EFB04FE9EFBFCFE00F3928381424F
:100B3000A8BF0146C91A04FB01F191FBFCF19A42DE
:100B400000F317818342C0F21481DFF8D4A1DAF8F0
:100B5000000010F03BFC644910F08CFC634910F07D
:100B600081FB10F04DFEA0F5FF531C3B082B98BFF6
:100B70004FF40050D9F80040DFF8A881044443F650
:100B8000FF77BC42A8BF3C4624EAE4742046CAF87A
:100B9000004010F01BFC8146307805FB00F010F09F
:100BA00015FC4FF07A5110F065FC0146484610F0F4
:100BB00057FB10F025FE4E4BB842A8BF38461B78B5
:100BC00020EAE070C8F80000002B00F0E380B4F5E4
:100BD000005F00F0DF8006F0E5F8464BD8F8000033
:100BE00001221A70444C2368834205D080B209F078
:100BF0000BF8D8F8003023600BB0BDE8F08F20462A
:100C0000059310F0E3FB3D4910F034FC059B0446CE
:100C1000184610F0DBFB3A4910F02CFC0146204648
:100C200010F020FB10F0ECFD0446CAF80040D8F8A4
:100C3000000010F0CBFB314910F01CFC82460098FC
:100C400010F0C4FB2E4933E72046059310F0BEFB9D
:100C50002C4910F00FFC059B0446184610F0B6FB1B
:100C6000294910F007FC0146204610F0FBFA10F06D
:100C7000C7FD0446CAF80040D8F8000010F0A6FBF3
:100C8000204910F0F7FB8246009810F09FFB1E49A8
:100C90000EE700BF869FFF1F3C9DFF1F169DFF1F95
:100CA0007A9DFF1F9089FF1F6A9FFF1F2089FF1FEA
:100CB0005A9FFF1F1C340100E89FFF1FB49DFF1FB8
:100CC000EC9EFF1F789FFF1FF09EFF1F6489FF1F90
:100CD0002E9DFF1FCDCC4C3FCDCC4C3E208AFF1F1C
:100CE0005C89FF1F509FFF1F9A99193FCDCC4C453F
:100CF0009EA0FF1FE09DFF1F2489FF1F6666663FC1
:100D0000CDCCCC3D3333733FCDCC4C3D749DFF1FD8
:100D1000089DFF1F909FFF1F749FFF1F589DFF1F7F
:100D2000C889FF1F6089FF1F2046059310F04EFB06
:100D3000C54910F09FFB059B0446184610F046FB82
:100D4000C24910F097FB0146204610F08BFA10F0D4
:100D500057FD0446CAF80040D8F8000010F036FBF2
:100D6000B94910F087FB8246009810F02FFBB74975
:100D70009EE63B88002B3FF4E8AEC1EB0E03002B50
:100D8000B8BF5B42092B00F3E5804FF40050DFF859
:100D900008A3EFE6AE4C2378002B3FF423AF05F019
:100DA000FDFF0023D8F8000023701BE7C3EB010C04
:100DB000A8488A42D4BFC3EB020EC3EB010E6545BF
:100DC0000068FFF6AAAE83420EFB05FEC8BF0024F2
:100DD0009EFBFCFE40F3348294FBFCF1AFE69E4B9D
:100DE0001B78002B00F0D5809C4F9D4B39889D4A85
:100DF00053F821009C4E012100231170337010F034
:100E0000E5FA4FF07C5110F035FB10F0F9FC054687
:100E1000EDE5964B964A1B8896491278013B31F9CD
:100E20001340002A40F0B08011200DF0ABFF00907D
:100E3000914B0193D3F80090009B994540F3AC800F
:100E40008E4BDFF858821B888D4A012BD8F8003072
:100E5000B2F800A08B4A02922846A3EB040400F0EB
:100E6000CE8010F0B3FA029A52F82A1010F002FB6A
:100E70000146002010F0F4F910F0C2FC009BC9EB11
:100E800004029C42B8BF1C469042C9EB040480F2A5
:100E9000CA8000FB0444013294FBF2F47A4BDFF881
:100EA00000920293D9F80030234403EBD3735B1014
:100EB000C9F80030754B1B88012B7FF4B3AD744B20
:100EC00003931C460F200DF05DFF226804929042B0
:100ED000034680F2E980694A1288012A00F02E81D7
:100EE000674A07901288674C0692284610F06EFAFF
:100EF000069ADFF8B0A154F82210DAF8004010F09A
:100F0000B9FA0146002010F0ABF9059BE21A0592F0
:100F100010F076FC059A079B04999A42C1EB020EE9
:100F2000B8BF1A46704580F23381521A00FB022284
:100F30000EF1010192FBF1F2D9F80010554804902E
:100F40000A4402EBD2725210C9F8002073E5D8F8B7
:100F50000000B7E50EF500500130401A10F036FAE7
:100F60003A49DFF834A110F085FA0446DAF80000B7
:100F700010F02CFA344910F07DFA0146204610F0AA
:100F800071F910F03DFCF5E515200CF0DFFD009047
:100F90004EE7344A137022E53B4B0293D3F800909E
:100FA000009B994544DA354BDFF8F0801B88344AC2
:100FB000012BD8F80030B2F800A0324A039228463C
:100FC0001C4400F0EC8010F001FA039A52F82A1049
:100FD00010F050FA10F014FC009B9C42C9EB040284
:100FE000A8BF1C46C9EB04049042BABF00FB0444EE
:100FF0000132444394FBF2F4DFF8A49052E710F07E
:10100000E5F9029A52F82A1010F034FA10F0F8FBC1
:10101000009BC9EB04029C42B8BF1C468242C9EB4C
:1010200004043FF736AF00FB04F494FBF2F435E719
:10103000DFF86C90DFF86480D9F8003003EBD373ED
:101040005B10C9F80030E8E49A99193FCDCCCC3E4A
:10105000E09DFF1F3C9DFF1F2E9DFF1F7A9DFF1FE0
:101060009089FF1F169DFF1F6A9FFF1F6C8AFF1F3D
:101070000C9FFF1F38300100E89FFF1FC69DFF1F18
:10108000609DFF1F34340100B49DFF1FEC9EFF1FC5
:10109000789FFF1FF09EFF1FC889FF1F089DFF1F3D
:1010A000909FFF1F749FFF1F6B4A04921268069265
:1010B000904237DD694A1288012A00F08E80684A22
:1010C00009901188674A08912846079210F07EF926
:1010D000079A0899DFF890A152F82110DAF8004039
:1010E00010F0C8F9059B2344059310F089FB05997E
:1010F000099B069A9942C2EB010EA8BF194670459A
:1011000080F29080891A00FB01110EF1010291FB1F
:10111000F2F2D9F800100A4402EBD2725210C9F868
:10112000002088E4D9F80020DFF83CA102EBD2725D
:101130005210DAF80040C9F800207CE4484A0890D0
:101140001188484A07912846069210F03FF9069AFE
:101150000799DFF814A152F82110DAF8004010F0D6
:1011600089F9059BE11A059110F04AFB0599089B46
:10117000049A9942C2EB010EB8BF1946704558DA7D
:10118000891A00FB01110EF1010291FBF2F2D3E684
:101190000499521A00FB02F292FBFEF2CCE610F028
:1011A00015F9039A52F82A1010F064F9014600204C
:1011B00010F056F810F024FB009A9442C9EB040397
:1011C000A8BF1446C9EB04049842BABF00FB04440C
:1011D0000133444394FBF3F40EE72149214A08907C
:1011E00028460C88079210F0F1F8079ADFF878A0EB
:1011F00052F82410DAF8004010F03CF901460020C3
:1012000010F02EF8059B2344059310F0F9FA059988
:10121000089B069A9942C2EB010EA8BF1946704579
:10122000FFF670AF069A891A00FB01F191FBFEF2FE
:101230006FE7049A891A00FB01F191FBFEF27BE64D
:101240008842D4BFC3EB0004C3EB010405FB04F4E4
:10125000C2E519466EE400BFF09EFF1FC69DFF1F4A
:10126000609DFF1F34340100749FFF1F08B5244B9D
:101270001B88FBB1234B1B78FBB1234B1B78E3B1DD
:10128000224B1B78CBB1224B1B78B3B1214B2248A8
:101290001A78C2B9214A2249008812880968024492
:1012A000B1EB620F09DD01221A706420BDE808402D
:1012B00005F08CBD174A117801B908BD1370BDE85F
:1012C000084008F045BD154A16490088128809688B
:1012D0000244B1EB620FF0DD00221A7008F038FD15
:1012E000642005F073FD642005F070FD642005F0B6
:1012F0006DFD4FF41670BDE808400DF079B900BFE0
:10130000FE9EFF1FB69FFF1FB79FFF1FB89FFF1FC7
:10131000B99FFF1F449DFF1F589DFF1F509FFF1F38
:10132000749DFF1F3C9DFF1F38B5114C232025786D
:101330000CF00CFC0F4A42F82500131F02F1C40008
:10134000002253F8041F83420A44FAD123780A4941
:1013500007480A4C0133DBB2322B81FB025108BF34
:101360000023D217C2EB21120370226038BD00BFE8
:10137000249DFF1F009EFF1F1F85EB514C9FFF1FE9
:101380002DE9F04FB74DB84E2868B84C83B010F037
:101390001DF8B74910F06EF8074610200DF0F2FC6A
:1013A00010F014F8B34910F065F839460FF05AFF01
:1013B00010F026FA31882860884223887EDA1F469A
:1013C00000225B1ADFF8D482DFF8D4E27F2BCABF99
:1013D000D201C2EBC212013392FBF3F3B8F8002042
:1013E000CEF80030192A00F0DF801A2A00F02B8195
:1013F0001E2A00F05B814FF00108C1469E4B1B88FE
:10140000002B66D09D4A1288032A00F20981884287
:10141000C0F25F81B842D4BFC1EB0000C1EB07004E
:10142000791A8B42B4BF03FB00005843944F954B8D
:10143000B8BF013190FBF1F01860388800284FD018
:101440003188D5F800E0884ADFF818A2714500F32A
:101450008280DFF83CC29CF80030002B4CD14FF06A
:10146000010B04288CF800B046D1B8F1000F40F011
:10147000CB81854B1888F0B1B9F1000F1BD02B68D8
:10148000318822888B4280F29C810023541A7E2C62
:101490007E4DD5BFC3EB8313C3EBC3135B00013495
:1014A00093FBF4F42B680134A34203D0C0B2E1B241
:1014B00008F0DAFB2C6003B0BDE8F08F9842D4BF8F
:1014C000C1EB0002C1EB03021F467AE799464FF0D9
:1014D00001081E2A00F0D281694F38880028AFD158
:1014E000694B1B88002BABD1694A11780029E2D0E7
:1014F000137003B0BDE8F08F012800F012810228BC
:1015000000F003810328B4D1624B1B88092BB0D0B3
:10151000B8F1000FADD02B6837882288BB4280F22B
:1015200095810023D71B7E2FDFF86CB1D5BFC3EBAD
:101530008313C3EBC3135B00013793FBF7F7DBF8AF
:1015400000300137BB4203D0F9B24A2008F08CFBCF
:10155000CBF800708DE74E4B1A78002AABD00024F0
:1015600001281C7000F0C280022840F03181B8F1DF
:10157000000F00F0C280484D2B68002B00F0BD80AA
:101580000420214608F070FB3F4B2C60188800288F
:1015900091D0B9F1000F8ED0C0B2002108F064FBE9
:1015A0003A4B00221A6086E7DFF8F8A0DFF8F890DF
:1015B0009AF80030BBB1DFF8D0E0BEF800E0BEF131
:1015C000000F10D099F800C09C4500F099805FFA98
:1015D0008EF07F2108F048FB9AF80030B8F8002020
:1015E00089F800300FE099F800E09E4500F088800F
:1015F000254B0021187808F037FB9AF80030B8F82E
:10160000002089F800301C4B1B88002B3FF45EAF94
:101610001E2A40F02B814FF001084FF0000951E0E5
:10162000884258DBB842A1EB0701A8BF38468B427D
:10163000A0EB070055DA03FB00004B1C90FBF3F313
:10164000104A136048E7DFF85CA09AF80030002BDE
:101650000BBF4FF001084FF000084FF000094FF0AA
:101660000109CBE6689DFF1F049FFF1F009FFF1F1E
:101670009A99193FCDCCCC3EC49FFF1F7C9FFF1F82
:10168000709DFF1FF89DFF1F989FFF1F4C9DFF1F20
:101690008C9FFF1F3C9FFF1FFC9DFF1F869FFF1F0E
:1016A0006C9FFF1F2E9DFF1F2A9DFF1FDFF8E8A1E3
:1016B000744B9AF800801B88B8FA88F84FEA5818DB
:1016C0004FF000099AF8002042B328683188278833
:1016D00098E60020A4E60846C91B8B42A0EB070051
:1016E000A9DB03FB00F393FBF1F3A9E7B8F1000FCB
:1016F00003D0654D2B68002B7FD1644B188846E7DB
:101700004FF001084FF0000978E6B8F1000F3FF400
:10171000B0AEDFF874B1DBF8003030E05C4B1A603B
:10172000DAE6B8F1000F3FF4A4AEB4F800A0F24539
:10173000D4BFC1EB0A03C1EB0E03C1EB0A0ABAF135
:101740007E0FDFF844B1D5BFC3EB8313C3EBC313E4
:101750005B000AF1010A93FBFAFADBF800300AF1A8
:10176000010A534504D05FFA8AF1012008F07CFA9F
:101770003888CBF800A002287FF4C4AE53462A680C
:10178000B6F800A02188524559DA0022CAEB010AB6
:10179000BAF17E0FD3BFC2EB8212C2EBC2120AF1C2
:1017A000010A520092FBFAFA0AF1010A9A4504D0A2
:1017B0005FFA8AF1042008F057FA3888CBF800A0C5
:1017C000A0E69342D4BFC1EB0303C1EB02035DE685
:1017D000032828D12F4B1B88092B8ED0B8F1000F7E
:1017E0008BD0294D2B68002B87D04A20214608F04A
:1017F0003BFA264B2C601888C9E6214608F034FADB
:10180000224B2C601888C2E640207F218DE80C0016
:1018100008F02AFA388858459DE80C001DD00228A7
:101820007FF470AE75E704287FF467AFB8F1000F5E
:101830003FF463AF2146402008F016FA5DE78A4284
:10184000D4BFCAEB0202CAEB01029FE79342D4BFA6
:10185000C7EB0303C7EB020364E6DAF800E0118884
:10186000B4F800A08E45FFF668AF60E728683188BD
:1018700027884FF001084FF00009C3E50023DFF887
:1018800018A01FE7C49FFF1FFC9DFF1F989FFF1F0D
:10189000F89DFF1F3C9FFF1F2E9DFF1F08B5114B9A
:1018A0001B88022B09D0052B07D0032B15D0042B46
:1018B0000BD00D4B01221A7008BD7F21412008F08A
:1018C000D3F9094B01221A7008BD7F21092008F0C5
:1018D000CBF9054B01221A7008BD4021092008F000
:1018E000C3F9E6E7F69DFF1F969DFF1F38B5074B2E
:1018F000074D1B88052B044606D02B68834203D076
:10190000C1B2052008F0B0F92C6038BDF69DFF1F6C
:10191000A09FFF1F38B5124D124C2B88052B12D0FB
:1019200022684AB9022B0ED0033B012B13D90E4A71
:1019300000231370236038BD0021052008F094F9BE
:101940002B88022B04D10021412008F08DF9EEE70D
:10195000052BE9D1F7E70021092008F085F9E6E732
:10196000F69DFF1FA09FFF1F969DFF1F464B1B88E4
:101970001D2B70B541D0454D0024454B1B88022BD3
:1019800016D0444B1B88022B54D02888424B002C85
:101990001B780ADB8442A8BF044634B1002B3AD03E
:1019A0002046BDE87040FFF7A1BF002B2FD170BDCE
:1019B0003A4B1B78002B37D015200CF0C7F8384B6A
:1019C0001860384A1288002ADBD0374A1868118814
:1019D0008142D6DC354B2A881B888342A3EB010663
:1019E000A8BF03465B1AB242BABF02FB03330136FB
:1019F000534393FBF6F31C44C3E72A4B1C888CB17A
:101A00002B4B224D1C78002CB7D02C88B5E7BDE8B5
:101A10007040FFF77FBFFFF741FF2046BDE87040F1
:101A2000FFF764BF194DA8E711200DF0ABF91C4B6F
:101A30001860C6E70F200DF0A5F91A4B1D4A1B8848
:101A40001060002BA1D01C4AC0F53B6311880833FD
:101A50008B429ADB194A288812889342A2EB01052F
:101A6000A8BF1346A842A3EB010306DA00FB033329
:101A7000013593FBF5F31C4488E700FB03F292FB6E
:101A8000F5F31C4482E700BF869FFF1F8E9FFF1F58
:101A90005A9FFF1FEC9EFF1F969DFF1F0C9FFF1F6D
:101AA000189DFF1FF69DFF1F929DFF1F849FFF1F24
:101AB0002E9DFF1F309DFF1FF49DFF1F709FFF1F76
:101AC000F8B510200DF05EF9C830B0F5FA7FC0F21D
:101AD0009680B0F57A6F0146A8BF4FF47A6101F5A0
:101AE0001673B3F57A6FA8BF4FF47A639BB289B2CD
:101AF000914A924C11802220238008F00FFA21880D
:101B00008F4D904C242008F009FA0E200CF01EF89E
:101B100040F6FF71C8308842A8BF084620EAE0704E
:101B200000F2DC5283B28A42A8BF0A46022019465C
:101B300022802B8008F0F2F92188042008F0EEF9C9
:101B400001200DF01FF9044600200DF01BF9A04202
:101B5000B8BF204600F1C801B1F5FA7FC0F2D180CC
:101B6000B1F57A6FA8BF4FF47A6101F54873B3F508
:101B70007A6FA8BF4FF47A639BB289B2724A734CF2
:101B800011800A20238008F0C9F921880C2008F070
:101B9000C5F90F200DF0F6F8C0F53F610431B1F53D
:101BA000AF6FC0F2AB80B1F5FA6FA8BF4FF4FA6126
:101BB00089B2674BC0F54360B0F5AF6F1980C0F2D2
:101BC0009A80B0F5FA6FA8BF4FF4FA6083B2614C07
:101BD000A420238008F0A2F92188A62008F09EF90D
:101BE00015200BF0B3FF00F59671B1F52F7F0BDBDD
:101BF00041F25C23994240F38980194608E040F2A3
:101C00004C434FF4FA7173E740F214534FF42F71C1
:101C1000514A1180514C524D2380062008F07EF924
:101C20002188504E082008F079F900274FF4AF744E
:101C3000F9B24D4809F0C8FF55F8043BC3F5967357
:101C400000FB03F086FB0023C017C0EB6310844247
:101C500007F10107A8BF0446062FE9D1434F414EC3
:101C60000025E9B2424809F0AFFF57F8043BC3F53D
:101C7000967300FB03F086FB0023C017C0EB6310D4
:101C8000844205F10105A8BF04460C2DE9D1394F66
:101C9000344E0025E9B2384809F096FF57F8043B66
:101CA000304AC3F5967300FB03F086FB0013C017A0
:101CB000C0EB6310844205F10105A8BF04460C2D5A
:101CC000E8D1A4F11401312931DD40F23A73A4F5D1
:101CD000B97403FB04F482FB0432E417A4EB621230
:101CE00089B232322548264B01801A602A20BDE88D
:101CF000F84008F013B94FF4AF6368E74FF4AF61F1
:101D000057E740F214534FF4FA7137E7124A00F5DF
:101D1000617089B2B0F52F7F1180B8BF4FF42F7377
:101D2000FFF678AF8342A8BF03469BB272E740F24A
:101D30006C723221D6E700BF049FFF1F009FFF1F78
:101D4000F09DFF1FBA9FFF1F509FFF1F589DFF1F51
:101D5000F49DFF1F709FFF1F929DFF1F849FFF1F19
:101D6000548AFF1FB5814E1B489DFF1F248AFF1F09
:101D7000789DFF1F2C89FF1FE89DFF1FB49FFF1F49
:101D8000108AFF1F2DE9F84F0C200BF0ABFE0C2042
:101D90000CF060FBCB49DFF8B4A314200CF06AFB15
:101DA000C949CA4809F0A2FB022103200CF0F8FB44
:101DB000022104200CF0F4FB022105200CF0F0FBC2
:101DC000022106200CF0ECFB01210A200CF0E8FBBC
:101DD000012109200CF0E4FB01210D200CF0E0FBB7
:101DE000012128200CF0DCFB012114200CF0D8FB91
:101DF000012116200CF0D4FB012117200CF0D0FBA0
:101E0000012121200CF0CCFB02211C200CF0C8FB8E
:101E100001211B200CF0C4FB00211B200CF0ACFBAB
:101E20001C200CF0AFFBB0FA80F35B091A208AF893
:101E300000300CF04BFD1F2000210CF00DFD0420A4
:101E40000CF0A0FB002800F0318105200CF09AFB7B
:101E5000002800F0A68100239D4C062023700CF082
:101E600091FBB0FA80F35B094FF0000B994A1370B5
:101E700006F0DCFB2478002C40F01481584608F072
:101E800077F8954B954A1B8815889549954840F2F7
:101E90003A72A3F5AF7302FB03F381FB0312DB1766
:101EA000A3EB6213323303608F4B01210D201D70B1
:101EB0000CF062FB64200CF09BFB4FF416710A20BF
:101EC0000CF0CAF95D21894809F0BAFE002800F03B
:101ED000A58164200CF08CFB21460A200CF0BCF993
:101EE0004FF4967109200CF0B7F95C21804809F095
:101EF000A7FE002800F07F8164200CF079FB2146CA
:101F000009200CF0A9F94FF4967116200CF0A4F9F1
:101F10005B21784809F094FE002800F04981642094
:101F20000CF066FB214616200CF096F94FF49671E2
:101F300017200CF091F964200CF05AFB2146172071
:101F40000CF08AF964200CF053FB21460D200CF0B4
:101F500013FB694A69481268DFF8F491684F694DCC
:101F6000694EDFF8F08100230121FEF79DFA01237D
:101F70003C602C60346089F8003004240F200CF0A1
:101F800001FF336803440E2033600BF0DFFD3B6834
:101F900099F8002018443860002A7CD015200BF0F6
:101FA000D5FD2B681844286004F0010080F0010082
:101FB00004F0FCFEB8F80030002B14BF4B20DC20EE
:101FC0000CF016FB013CD9D1336839684C4A2868BB
:101FD0004E4F002BB8BF03330029B8BF033189101F
:101FE00011604B494B4A098814889B1000283360C4
:101FF000B8BF0330484E8210581A19442A60316025
:102000003860464D46484749161B22442E60026000
:102010000B60BBF1000F40F0AC80B8F80030002B33
:1020200000F09A80404B012404201C600CF0AAFAB6
:1020300018B93E4B2C4A1C7010703D4B1B881C2B52
:1020400000F09F803B4C04F1C80523200BF07EFD7F
:1020500044F8040F01200CF0CBFAA542F5D19AF810
:10206000003023B1344B1B78002B40F095800021C9
:1020700021200CF081FA314A314B1078187007F0AA
:102080007FFD04F08BFE45F6BF522E492E48BDE879
:10209000F84F0BF013BB11200CF074FE2B681844A2
:1020A000286081E7BDE8F84F09F030B906200CF050
:1020B00069FA00287FF4C9AE054C034620704FF042
:1020C000010BD3E6001B374640420F00F491FF1F7F
:1020D0004A9DFF1FF49EFF1FB49FFF1F889FFF1F95
:1020E000B5814E1B108AFF1FB09DFF1F489DFF1F2B
:1020F000E89DFF1F789DFF1F2889FF1F189FFF1F66
:102100001C9DFF1F089DFF1F749FFF1F789FFF1FCF
:10211000208AFF1F5C89FF1FF09EFF1FE89FFF1FA3
:10212000B49DFF1FCC9FFF1F809FFF1F349DFF1F8B
:10213000869FFF1FFC9DFF1F069FFF1F089FFF1F1D
:10214000EB9EFF1FA5050000A89FFF1FEE9EFF1F2F
:102150000C9FFF1F469FFF1F4FF4FA7004F036FEDE
:1021600004F020FE06F0ACFD4FF4AF600CF040FA36
:1021700058E7FFF7A5FCB8F80030002B7FF452AF0A
:10218000EAE7294B188800283FF45CAF274BC0B220
:10219000197807F069FD55E7012121200CF0ECF9D1
:1021A00069E703200CF0EEF9B0FA80F35B0953E61F
:1021B00003200CF0E7F90028FAD104200CF0E2F932
:1021C0000028F5D105200CF0DDF90028F0D106201B
:1021D0000CF0D8F90028EBD10CF0F4FE04200CF040
:1021E000D1F940B905200CF0CDF920B906200CF04A
:1021F000C9F90028F0D003200CF0C4F90028FAD166
:10220000ECE704200CF0BEF940B905200CF0BAF957
:1022100020B906200CF0B6F90028DDD003200CF020
:10222000B1F90028FAD1ECE7B89DFF1F649DFF1FAC
:102230002DE9F04FAD4C2678012E95B000F0558277
:10224000C0F00B82022E00F0D880A949A94A91F86B
:1022500000801178A84ADFF83CE3A84DA84FA948B0
:10226000A94B0292A94A0092A94A9EF800B0019295
:102270002D78A84A3F7890F800E01B78DFF818A383
:10228000DFF818C3DFF818930392012E84BF0022F1
:102290002270A14AA1481370A14A80F800B01570BD
:1022A000A048A14A077082F80080A048A04A0370A5
:1022B0009CBF013626701170BEF1000F40F0748192
:1022C0009C4A10880D2800F0B9819B4C002020709A
:1022D000024604462DB197480088002840F0BA8194
:1022E0000546964806882544002E40F067819448AC
:1022F000944C019E0078367824780130A0EB46009B
:10230000002C40F05682039C94F800E0CEEB0004D1
:10231000BEF1000F40F076820026DFF874E20298EA
:102320009EF800E00078A41BA4EB4E043C44CBEBE9
:10233000040410B1B7FA87F040099CF80060271830
:10234000BC1B1EB11EF1000618BF0126009F99F8A4
:10235000000097F800909AF800C07B4FC6EB040E7F
:10236000C0EB0E00A0EB49008044C3EB0803A3EBD5
:1023700041010C2313FB0C113960744B744F754CE5
:1023800075481B880088D7F800C0744E2788744CA5
:102390003688D4F800E0033BC0EBC00403EB4303F2
:1023A000C7EBC70001EB830364446E4F33447044B2
:1023B0006D4E57F8244056F820000C3B1D44254430
:1023C00005440AB1694B1960694A13689D4200F0DF
:1023D0003181684B684819680791079901601B684B
:1023E00008936648089B008815605B1A834284BF87
:1023F000634B1D6015B0BDE8F08FDFF8A881614E1A
:1024000008AF0025E9B2604809F0DEFB58F8043B4C
:10241000C3F5967300FB03F086FB00230135C0175C
:10242000C0EB63100C2D47F8040BEBD1574B384D24
:102430000195384DB3F800C00395109D09980F9988
:10244000404EDFF8C0A0DFF8B490DFF8BC806545EF
:1024500011AA8CCAAE46ACBF4FF0000E4FF0010E71
:102460008445D4BF0020012030708C4528480B9D46
:102470001F4E8AF800E0D4BF00210121017094456D
:102480002449DFF814A1D4BF002201220A709C4520
:102490003F4AD4BF00230123BC45AB46D4BF00272D
:1024A00001271370AC45164B0C9D1F70D4BF4FF025
:1024B000000B4FF0010B374B0F4A0292AC45DFF88F
:1024C00034C0124A83F800B0D4BF0025012589F832
:1024D000005098F800309CF8001096F80080DFF863
:1024E000BCC02678DFF8B8900092CEE6EA9EFF1FC7
:1024F000389FFF1F3A9FFF1F499DFF1F3F9FFF1FF0
:10250000949DFF1FF49FFF1F399FFF1F8A9FFF1F8E
:102510009D9FFF1F9E9FFF1FEE9FFF1FEF9FFF1FAF
:10252000F09FFF1FF19FFF1FF29FFF1FF39FFF1FF1
:102530008B9FFF1FF69FFF1F2E9DFF1F149DFF1FE8
:10254000228AFF1FD89FFF1F409FFF1F5E9FFF1F14
:10255000F89DFF1F989DFF1F7C9FFF1F269DFF1F5B
:10256000C09FFF1FF8310100802B0100D09FFF1F8B
:102570008C9DFF1FDCA0FF1F7C9DFF1F969FFF1FF0
:10258000DC9FFF1FB5814E1BE89DFF1FB49FFF1FFF
:102590009F9FFF1F959DFF1FF59EFF1FED9FFF1F34
:1025A000B29FFF1F2C89FF1FAF4AB0481488012239
:1025B000182C027040F2058100248BE6012E00F0F9
:1025C0008F81022E00F0EE81032EA94B00F01F81B7
:1025D0001E78009B9CF800E01C78019B99F800C0D5
:1025E0001878029B93F80080039B1F78A6EB4E039C
:1025F000A4EB8404CCEB030CC0EB80760CEB04035F
:10260000C0EB8600034403EB480303EB810327B1CF
:1026100098490978002940F0608201269AF8001054
:102620009548C1F1060101EB4101334403EB8101FF
:102630000160A2E69149924B0968D0E6002D3FF473
:1026400044AE894A894E14880122182C327040F217
:10265000B8807446A0F10D0543E6DFF87092894F0B
:102660000DF120080025E9B2874809F0ADFA59F8C4
:10267000043BC3F5967300FB03F087FB0023013591
:10268000C017C0EB6310062D48F8040BEBD17F4B4D
:10269000DFF83CA219880D9B00228B428AF80020AB
:1026A00080F2A2807A4B8AF800507A497A4A7B48B5
:1026B00091F8008011787A4A1D7002920378794A65
:1026C000DFF810C2DFF810920092774A774E784D0B
:1026D000784892F800E0784A0192784A96F800B07B
:1026E0002D78077826780392CFE5DFF8F081654EE4
:1026F00008AF0025E9B2724809F066FA58F8043BC1
:10270000C3F5967300FB03F086FB00230135C01769
:10271000C0EB63100C2D47F8040BEBD15B4B0C9D09
:102720001F885F4B02935F4B00930B9B0A98099A9B
:10273000DFF8A0C1089EDFF8A0910F99BB429E462A
:10274000ACBF4FF0000E4FF0010EAF42D4BF0025DA
:1027500001258742109B8CF80050D4BF0020012037
:10276000504D89F800009742D4BF00220122B742A1
:10277000D4BF4FF000084FF001082A709F42474A2B
:102780004448474E80F80080D4BF002301231370D3
:10279000129A414886F800E08F42D4BF00210121FF
:1027A000974201701ADC00224648DFF824A102702B
:1027B0008BE7039C46B12678002E40F06081441ED2
:1027C000ABE50C3C012285E594F800E00138CEEB46
:1027D0000004BEF1000F7FF4A0AD9DE5119A974271
:1027E000D4BF00220122DFE70C9A374B9142CCBFC5
:1027F000012200221A7040F3458105258AF8005015
:10280000234B52E7002E3FF487AD012685E51C7867
:10281000009B029893F80080019B9CF800601B7855
:1028200090F800C099F800700398A4EB4604E71BE9
:1028300090F800E0C3EB8374A8EB88003844C3EB46
:102840008403034403EB4C0303EB8103BEF1000F4D
:1028500040F0488101269AF80010074833440C24C0
:1028600014FB0131016088E5869FFF1F2E9DFF1F2D
:10287000228AFF1F9F9FFF1F409FFF1F7C9DFF1FFE
:10288000DCA0FF1FB5814E1B489DFF1FB49FFF1F9B
:10289000029FFF1F389FFF1F3A9FFF1F399FFF1F97
:1028A000499DFF1F8A9FFF1FF49FFF1F959DFF1FDC
:1028B0003F9FFF1F949DFF1F9D9FFF1F9E9FFF1F18
:1028C000789DFF1F5E9DFF1FB99FFF1F548AFF1F4A
:1028D000F59EFF1FED9FFF1FB29FFF1F248AFF1F62
:1028E000A34CDFF89CE2207805909EF80040019808
:1028F0000494059C007801900134A4EB40040498F2
:10290000002840F0AF80039890F800E00498261A61
:10291000CEEB06000390BEF1000F40F09E8074469F
:102920000298944E00780290039836780496041B1F
:10293000A4EB460402983C44CBEB0404002800F0CE
:102940008780B7FA87F040099CF800602044871B15
:102950001EB10498061C18BF0126009C99F80000BF
:102960002478BE1B301AA0EB440080440198C3EBCE
:102970000803A3EB4103002867D1BEF1000F40F02C
:10298000BB807344002C5ED100290CBF00206FF087
:1029900009009AF80010784C03440C2010FB013118
:1029A0002160EAE4039E019C36780396009E247819
:1029B000019434786F4E714899F800E0009496F8CD
:1029C00000906F4C9DF80C6086709DF80460067056
:1029D00080F806E09DF8006080F803909CF800C045
:1029E0002478DFF8B491DDF804E080F808800771FE
:1029F00080F805C0C671417244704FF00008012094
:102A0000009500215D4C0D465FFA88FC4F467646E6
:102A100007E0022809D00A290BD014F8016F17F833
:102A2000010F864201F10101F3D101350A29EDB20E
:102A3000F3D1092D72D808F10108B8F1100F36D082
:102A400019F80A0FDDE70020A3E74FF0000E98E722
:102A5000029879E7CEEB040003900198041C18BF9C
:102A600001245DE7019800284ED0039890F800E01B
:102A7000BEF1000FEED1601E0390744650E7841B38
:102A800001264AE40B9A3F4B9142CCBF012200221F
:102A90001A703EDC0A9A3C4B9142CCBF01220022C4
:102AA0001A7052DD03258AF80050384BFDE5304896
:102AB00037490478C86B0299009D09780134204495
:102AC000CBEB0000084400219AF800402A4B401A42
:102AD0000C2111FB040119604FE41BF1000618BF23
:102AE00001269BE52349097800293FF4B3AE1BF189
:102AF000000618BF0126AEE6049800280CBF4FF070
:102B0000000E4FF0090E3CE7039890F800E03046C5
:102B1000FDE604258AF800501C4BC6E514481C4904
:102B2000047851F828000299009D09780134204466
:102B3000CBEB000066460844002BC4D0002EC2D167
:102B4000BBF1000FBFD00121BEE7099A114B9142A2
:102B5000CCBF012200221A7004DD02258AF8005041
:102B60000A4BA2E5089B994218DD01259AE500BFB2
:102B7000228AFF1F9F9FFF1F409FFF1FBC9DFF1FBB
:102B8000D89FFF1FB89FFF1FB79FFF1F029FFF1F08
:102B9000D089FF1FB69FFF1FC8300100154B1D785D
:102BA000012D25D9144A8AF800501288D2B1134A4F
:102BB0001288013A92B2062A14D8114A12788AB1C0
:102BC000104A1268012A7FF470AD0F4A0F4E106848
:102BD0000C2290FBF2F102FB110232800C4A03211D
:102BE000117062E5074A1268012A7FF45EADF5E7CD
:102BF00035465AE5029FFF1F689FFF1F0A9FFF1F70
:102C0000F29DFF1F809FFF1FDC9FFF1F449FFF1F40
:102C1000C489FF1F2DE9F04F3A4B1B788BB0002B76
:102C20006BD10E200AF092FF0EF0D0FB0146364821
:102C3000364E374DFDF77EFC3348FDF751FC0EF064
:102C4000DFFD80F30C003060FFF7F2FA2C68012CF6
:102C50007AD0022C00F0C582032C00F02B842D4E7C
:102C60002D4C33682D4A2E4E0993099B31681288EA
:102C70002360591A013A9142274F00F2AD82294E42
:102C800032689A1A092A00F29682274E32689A1AF6
:102C90000D2A00F28B82254E32689A1A252A1AD9FB
:102CA000234B1B88002B40F05B81224B1B78002BB1
:102CB00040F05681FEF738FB1F4B1B881B3B9BB235
:102CC000022B04D81D4B1B78002B40F04C8104F0E4
:102CD0008FF8236833601A4D2A689B1A502B00F234
:102CE0000D82184B1B88012B00F0258206F040FF57
:102CF00006F024FE0BB0BDE8F08F08F08FF90BB0A2
:102D0000BDE8F08F4A9DFF1F189FFF1F549FFF1FB4
:102D1000809FFF1FDCA0FF1F149FFF1FCC89FF1F98
:102D2000EC9DFF1FD49DFF1FA89DFF1FAC9DFF1FA3
:102D3000FE9EFF1F449DFF1F869FFF1F2E9DFF1FAE
:102D4000F89EFF1F589FFF1FDFF820939F4AB9F896
:102D500000001378834204D0C3B21846137006F003
:102D6000F9FEDFF804839A4AB8F8003011789942E6
:102D700004D0984F3978002940F05887964A336834
:102D80001288964E9A42C0F2F880954A1278002A2C
:102D900040F0F380DFF8D8A2BAF8003023B9914BA5
:102DA0001B88002B00F069858F4A904B11881B8887
:102DB0008F4A0B4412685B1093428E4A126880F26D
:102DC0000B8500219342B4BF01230B46049100936D
:102DD000ACBF4FF0010B8B4605910E200AF0B6FEFA
:102DE000854B864A1B68176803930133A7F252325A
:102DF000002B8446029240F32A87802BA8BF8023B1
:102E00007F4A804912780191002A00F0C080097839
:102E1000914200F0BC80B8F80010DFF84CE2994213
:102E200001F015816B49AEF80030774B4FF0010E81
:102E300081F800E01978DFF83CE2019B8EF8001081
:102E40001A70009B002B00F01781BAF80030002B9D
:102E500000F012816D4B1B685A1C002A40F3FB8660
:102E6000802A00F3F7866A4C6A496B4824880988EF
:102E700000682144B0EB610FC1F25A83A3F148020C
:102E80000F2A02D8473BA9F800300E200AF05EFE58
:102E90006FF454731F44874202DC604B00221A70A7
:102EA0005F4B1B88002B00F08E845E4B5E4A1B78C4
:102EB0001178994243D0002B41D05C490C78002C0A
:102EC00000F08D875A4991F800C0BCF1000F40F026
:102ED0008487584F0097584F58480297554F0078AD
:102EE00087F800C0544F4FF0010E87F800C081F8FA
:102EF00000E0002841F0FB8051490978002901F0E9
:102F00004F80504903910C460978002941F04580D3
:102F10004D48494F0078397001210297217070B1F6
:102F2000444843490090494803270770002008702F
:102F30000099029F0870039901243C700870137077
:102F4000434B1B88A3F11B02012A40F233861D2B41
:102F50007FF486AE3C4A3F4B12781A703E4C80E6B6
:102F6000FEF784F9A6E63D4B1B78002B3FF4AFAE8D
:102F70002B68012B7FF4ABAEABE63168384A069183
:102F800006983849106002220B602A6002E71E4949
:102F9000DFF8E0E0097800293FF44FAF9EF8000029
:102FA00081423FF44AAF03984B2841F3178018330E
:102FB000802BB8F80000A8BF802398423FF43DAFB3
:102FC0002948038003480123037036E7EB9EFF1F67
:102FD000B09DFF1F349DFF1FF09DFF1FDCA0FF1F52
:102FE000449DFF1FDA9DFF1F589DFF1F509FFF1F2D
:102FF000749DFF1F3C9DFF1FD09FFF1F1C9DFF1F47
:10300000C69FFF1F889DFF1FC79FFF1F409FFF1F79
:10301000049FFF1F009FFF1F689DFF1F509DFF1F04
:103020000A9FFF1F5E9DFF1F0C9DFF1FF19FFF1F4B
:10303000489FFF1F9C9FFF1FF29DFF1FF29FFF1FD6
:10304000EE9FFF1F0D9DFF1F2E9DFF1FC489FF1FB9
:10305000869FFF1F2A9DFF1F149FFF1F8B9FFF1F2F
:103060009C9DFF1F109FFF1F889FFF1F089FFF1F32
:10307000909DFF1F899DFF1F029B9C45BFF605AFDA
:10308000954B1B88002B3FF400AFBBF1000F7FF482
:10309000E1AE924B1B881BB1059B002B7FF4DAAE8F
:1030A000049B002B3FF4F1AE8D4B1A78002A7FF47D
:1030B000ECAEDFF8B09299F8004001221A70002CB3
:1030C00040F0A883874B1B78002B02F0CA80864B08
:1030D0001B78002B02F09E83844B1B78002B7FF41F
:1030E000D4AE834B1B78002B3FF4CFAEB8F8003042
:1030F00080490A3BA8F800300A70C6E605F0DEFAFF
:103100007D4B1B7873B97D4B1B785BB97C4B1B786F
:1031100043B97C4B1B782BB97B4B1B7813B903F05D
:103120003DFE01E003F046FE23682B60774B1B88D1
:10313000012B7FF4DBAD764B764A19681778764E13
:10314000A92303FB01F10029744BB8BF01F57F519E
:103150001868734BB8BF3F3189132A225439183885
:1031600002FB00111D786FF0140202FB071232609F
:103170006C49002D00F04E810B689A4200F3BE832B
:1031800080F24881684D2878002840F09D87674884
:103190000568D5F17F0548BF0335AD1001355B1BD0
:1031A0009A4200F337810B601A4634E1FEF7DEFBEA
:1031B000236833606FE5FDF7F9FBFEF7E1F85C4B40
:1031C0001B88032B00F067855A4B1B88032B00F0EC
:1031D0005E852368336058E5FDF734FB3B68336058
:1031E0004DE5554A34681288A24204DB464B1B78F1
:1031F000002B00F0B383514E514833680793514B75
:10320000079900681B88091A994200F2B180002BC7
:1032100000F0AE804C4B198800293FF421AD4B4B98
:103220004B481B680088A342B8BF23469A4241F32B
:103230007881484B1A60DFF8308188F80010374FEA
:10324000FDF700FB38687F2840F3C385424B7F3889
:1032500083FB0032C317C3EB620303EB4303A0EB12
:10326000830073303D4B01931B883860002B40F086
:10327000E786234B00931B78002B00F01C84384C0E
:103280002378002B00F01784DFF8E090DFF8C8A067
:103290004FF0000B0CE003F17300C0B298F800107F
:1032A00006F012FD23780BF1010B5B4540F303841C
:1032B0003B6859F8040F1844A0F17F038AFB0321EF
:1032C000DA17C2EB610202EB42027F28A3EB820312
:1032D000E1DCFDF7D7F9E0E7DA9DFF1F0E9FFF1F46
:1032E000509DFF1FEE9FFF1FEF9FFF1FF09FFF1FCF
:1032F000F19FFF1F349DFF1FF29DFF1F489FFF1F7F
:103300009C9FFF1F0D9DFF1F449DFF1F589FFF1F88
:10331000C889FF1F6A9FFF1FCC9DFF1FDC9FFF1FF7
:10332000969DFF1FDC9DFF1FA49FFF1FA09FFF1FF7
:103330005A9FFF1FEC9EFF1FF09DFF1FDCA0FF1F89
:103340009C9DFF1FD89DFF1F2C9DFF1F109FFF1FDF
:10335000BA9FFF1F109DFF1FABAAAA2A6E9DFF1FD9
:103360008C89FF1FF59EFF1FC89DFF1F6489FF1FEB
:103370007E4B7F491B6808887E49A342B8BF23461D
:103380009A4200F3D2827C4C09888342A8BF03464C
:10339000236000297FF44FAF9A42C8BF0B4640F329
:1033A000CB82801AB0F5804FAABF9B03C3EB833357
:1033B000013093FBF0F0FDF72BFAC0F3C6100EF0CE
:1033C00005F86E4B044618880EF000F86C49074665
:1033D00020460EF04FF8014638460EF04BF82146D5
:1033E0000DF040FF4FF07E5104460EF0E1F9002849
:1033F00041F07B80634920460EF0F8F9002840F048
:10340000708620460EF022FAC0B2DFF8BC8188F840
:10341000000014E70A605C4B188858B35B4B2568C2
:1034200053F82040B5FBF4F3772C04FB135300F35F
:103430002882C3EBC30303EB031393FBF4F3544859
:10344000544C50F823002468534BA0F2FF7004FB47
:1034500000F000F57D3000F5607000EB4004C0EB3B
:10346000C40083FB00430344C017C0EBA3400B38E8
:1034700002440A6049494A4B0888198800F27C7066
:103480004300B3F57C6FA1F164014FEA4100B5BF81
:103490004449454903FB02225A4381FB023111444E
:1034A000D317C3EBE123C11881F30C0128200AF0E4
:1034B000D3FE1BE43D4BD6F800801988414540F30C
:1034C00087803B4B1B78002B40F08280DFF8FC901C
:1034D00099F800007F2840F3F385A3F155337F3836
:1034E00003F1004383FB0032C317C3EB620303EB1A
:1034F0004303A0EB830073302E4B01931B88C0B2B3
:1035000089F80000002B40F0EC872B4B00931B78D0
:10351000002B00F09184294C2378002B00F08C8440
:10352000274FDFF8A0804FF0000A0AE003F1730094
:10353000C0B206F0EDFB23780AF1010A534540F3CF
:103540007B8457F8043F99F800001844A0F17F03EA
:1035500088FB0321DA17C2EB610202EB42027F28EB
:10356000A3EB8203E2DCFDF78DF8E1E7109FFF1F7C
:10357000BA9FFF1F2C9DFF1F109DFF1FC89FFF1F9D
:10358000CDCCCC3D0000FE42289DFF1FA4300100A1
:103590007C2901006C9FFF1F4D261281E09FFF1FB9
:1035A000A09DFF1F81DFFF8183200882F09DFF1F08
:1035B000449DFF1F6E9DFF1F9C9FFF1F8C89FF1F57
:1035C0006489FF1FABAAAA2AC89DFF1F3E9FFF1F49
:1035D000AF4F38687F2840F3B681AE4B7F3883FB0E
:1035E0000032C317C3EB620303EB4303A0EB83007A
:1035F0007330DFF8F89299F80040844200F00082BE
:10360000A54B1B88002B43D1A44AA548126800880B
:10361000914205DC8242D4BFC1EB0203C1EB00033F
:10362000411AB1F5804FA6BF9B030131C3EB833331
:1036300093FBF1F0FDF7ECF8C0F3C6100DF0C6FEF9
:10364000984B804618880DF0C1FE97498246404647
:103650000DF010FF014650460DF00CFF41460DF0F5
:1036600001FE4FF07E5180460EF0A2F8002840F097
:10367000A8868E4940460EF0B9F8002840F02E8505
:1036800040460EF0E3F8C0B2DFF8648288F800002C
:103690007F2C40F390837F487F3C80FB0430E3170E
:1036A000C3EB600000EB4000A4EB80007330804B64
:1036B00000931B78C0B289F80000002B40F0F28222
:1036C0007C4B03931B78002B40F0DD847A4B0293F4
:1036D0001B78002B40F01D87784B0193029B1B78D1
:1036E000FBB1774B1B88012B00F06285022B00F0A9
:1036F0007187032B01F00881042B01F01283052B45
:1037000001F0B283062B01F07885072B01F0DC85F0
:10371000082B01F0EE87092B02F037810A2B02F00B
:103720003883009B1B78002B00F04A84019B634C7C
:103730001988002900F0A08438687F2840F3AF8200
:10374000544B7F3883FB0032C317C3EB620303EB98
:103750004303A0EB830073303860002940F04F84AE
:10376000009B1B78002B00F05781564C2378002BD0
:1037700000F05281DFF87CA1DFF874814FF0000B7C
:103780000CE003F17300C0B298F8001006F09CFA48
:1037900023780BF1010B5B4540F33E813B685AF8FF
:1037A000040F3C4A1844A0F17F0382FB0321DA177F
:1037B000C2EB610202EB42027F28A3EB8203E0DC52
:1037C000FCF760FFDFE73C4C3F483949394A23703A
:1037D00003700B70FFF7B3BB93424FF0000B80F206
:1037E000B5800123CDF800B0CDF814B00493FFF7F5
:1037F000F4BA364B1B78002B7FF447AB039B344A5B
:10380000243B83F34703D9B25B20136006F02CFA04
:1038100099F80040032C30D1DFF8DC8098F80030B4
:10382000002B42F044812B4F3B78002B42F0328139
:10383000264C2378002B42F02081274B1B78002B4D
:1038400042F00E81254A1380254B1B78002B42F055
:103850003A81114B7F221A8098F800306BB93B787F
:103860005BB923784BB91F4A7F210720138006F0EC
:10387000FBF97F210B2006F0F7F91B4B1F68FFF7C0
:1038800004BBC3EB0313D800631C90FBF3F3D6E532
:10389000DC9FFF1FABAAAA2A2C9DFF1F109DFF1FB4
:1038A000BA9FFF1FC89FFF1FCDCCCC3D0000FE423A
:1038B0009C9FFF1F0D9DFF1FF29DFF1F6E9DFF1F11
:1038C0000A9FFF1F8C89FF1F489FFF1FF19FFF1F4B
:1038D000549DFF1FF09FFF1FEF9FFF1FE29DFF1FE3
:1038E000F29FFF1F3C9FFF1F1C9DFF1F3E9FFF1F5E
:1038F000C89DFF1F6489FF1FEE9FFF1FB648057814
:10390000002D40F04083B5480068D0F17F0048BFEB
:10391000033003EBA000431CB1480B609A42B8BFD0
:103920000260FFF678AD1A4675E5AE4B09881A605D
:1039300000297FF480AC13469842D4BFC2EB000349
:10394000C2EB03032DE5FCF79DFE52E60123CDF803
:1039500010B0CDF800B00593FFF73FBA01232B60FC
:10396000FFF77DB9029B1B78FBB19F4B1B88012B96
:1039700000F0A084022B00F0AB86032B01F03A800C
:10398000042B01F0F381052B01F0E482062B01F0FA
:103990003D84072B01F03785082B01F0E286092BC7
:1039A00001F0BC870A2B02F0B981019B1B88002B18
:1039B00000F02E83009B1B783BB9039B1B7823B937
:1039C000029B1B78002B01F08E80884B1B78002B0C
:1039D00000F0008186490B78082B00F2FB808548B7
:1039E0003A680068844C0133DBB25F1E101A44F859
:1039F00027000B70814BD6F80080198889F80020C9
:103A000088457F4E7FF72CA932687E4B0892089A32
:103A10007D4C1A60FFF725B9039B1B78002BA1D0C2
:103A20003B68A3F10C007F2840F3418377488B3B30
:103A300080FB0320DA17C2EB600000EB4000A3EB31
:103A4000800303F17300DFF8D881C0B298F800104A
:103A500006F03AF9009B1B78002B83D0644C237846
:103A6000002B3FF47FAFDFF8BCA14FF0000B0CE060
:103A700003F17300C0B298F8001006F025F923781E
:103A80000BF1010B5B457FF76DAF3B685AF8040FF4
:103A90005E4A1844A0F18B0382FB0321DA17C2EBC4
:103AA00061020C3802EB42027F28A3EB8203DFDCC9
:103AB000FCF7E8FDDEE74D4B1B78002B40F0B582AC
:103AC0003B68534A1278002A45D0A3F10C007F28A6
:103AD00040F3F3824D4A8B3B82FB0321DA17C2EBA2
:103AE000610202EB4202A3EB820303F17300C0B256
:103AF00098F8001006F0E8F8009B1B7853B33C4C94
:103B000023783BB3DFF81C91DFF800A14FF0000BE6
:103B10000BE003F17300C0B298F8001006F0D4F87F
:103B200023780BF1010B5B4514DD3B6859F8040F5A
:103B30001844A0F18B038AFB0321DA17C2EB610260
:103B40000C3802EB42027F28A3EB8203E1DCFCF796
:103B500099FDE0E73B682F4A1278FAB1224A1288B1
:103B6000012A00F03184022A00F03386032A00F093
:103B7000CC87042A01F02181052A01F05E82062A01
:103B800001F04C83072A01F0F184082A01F05586E0
:103B9000092A01F026870A2A02F08980019A1288F0
:103BA000002A00F03B821C4A174C137003232B6041
:103BB000FFF757B8DFF8708098F80030002B40F01E
:103BC000FE80164F3B78002B40F0C8840E4C3B70B3
:103BD000FFF747B83A680DE7A49FFF1FA09FFF1F9C
:103BE000DC9DFF1F109DFF1F0A9FFF1F489FFF1FA7
:103BF0008C89FF1F389DFF1F6889FF1FF09DFF1FE5
:103C0000DCA0FF1F88A0FF1F149FFF1FABAAAA2ADA
:103C10000D9DFF1FF29DFF1F3E9FFF1F2A9DFF1F4F
:103C2000C89DFF1F6489FF1F2E9DFF1FDBB2184632
:103C3000137006F0D7F8A54BA5491A46A54B1846B0
:103C400000230B703B7013700370FFF797B80123CC
:103C5000FFF7D6B88024A049A04BA14A09881B8849
:103C600012680B44B2EB630FBFF60FA99D4B1B7894
:103C7000002B40F0F281B8F800309B4AA3423FF499
:103C800004A99A4B148001221A70FFF7FEB8FCF7C2
:103C900061FDFFF79EBAFCF707FDFFF795BAFCF749
:103CA000F1FC59E5924B01931B8863BB894B03934D
:103CB000904B0293904C23787BB3DFF85882DFF867
:103CC0003CA24FF0000B09E003F17300C0B206F014
:103CD0001FF823780BF1010B5B451EDD58F8043FFC
:103CE00099F800001844A0F17F038AFB0321DA173A
:103CF000C2EB610202EB42027F28A3EB8203E3DC0A
:103D0000FCF7C0FCE2E7734B03937A4B029305F098
:103D1000FFFF009B1B78002BCCD1039B1B78002B53
:103D20003FF4DCAC99F80030A3F10C007F2840F39D
:103D3000C18172488B3B80FB0320DA17C2EB600025
:103D400000EB4000A3EB800303F17300C0B205F069
:103D5000DFFF009B1B78002B00F09E81664C2378D0
:103D6000002B01F07782DFF8AC81DFF890A14FF0F3
:103D7000000B0AE003F17300C0B205F0C9FF23781D
:103D80000BF1010B5B457FF7A9AC58F8043F99F89C
:103D900000001844A0F18B038AFB0321DA17C2EB61
:103DA00061020C3802EB42027F28A3EB8203E1DCC4
:103DB000FCF768FCE0E72046FCF764FC77E4504A37
:103DC0001278002A40F0A0814E4F4F4C3B70FEF716
:103DD00048BFFCF757FCFFF745BA002008704B4975
:103DE000087840B1394900910978002900F07C81B8
:103DF000009F002139704649097800297FF481A885
:103E0000002C40F0CD80002840F0CA80354C2F4F68
:103E100094F800E02F4C0394364C02942D4C2C491E
:103E20002070344C0097087038702070BEF1000F7D
:103E30007FF479A8FFF783B8264B1B78002B6BD053
:103E400099F80030A3F10C007F2840F392832B4AAD
:103E50008B3B82FB0321DA17C2EB610202EB4202C9
:103E6000A3EB820303F17300C0B205F051FF009B86
:103E70001B78002B50D0204C2378002B4CD0254FA2
:103E8000DFF878804FF0000A09E003F17300C0B258
:103E900005F03EFF23780AF1010A53453CDD57F84F
:103EA000043F99F800001844A0F18B0388FB03211C
:103EB000DA17C2EB61020C3802EB42027F28A3EB57
:103EC0008203E2DCFCF7DEFBE1E700BF9C9FFF1F03
:103ED000489FFF1F0D9DFF1F009FFF1F049FFF1F97
:103EE000689DFF1F2E9DFF1F889FFF1F349DFF1F92
:103EF0006E9DFF1FF29DFF1F8C89FF1FABAAAA2A90
:103F00008B9FFF1F2A9DFF1F149FFF1FF29FFF1F04
:103F1000EE9FFF1F6489FF1F914B1B78FBB1914BF4
:103F20001B88012B00F07686022B00F07087032B94
:103F300001F0EA80042B01F07881052B01F0BB83AE
:103F4000062B01F0E084072B01F0CA85082B01F055
:103F50007D86092B01F08B870A2B01F06887019B76
:103F60001B88002B00F0B8827F4B1B78002B40F0A1
:103F7000AE827E4B7E4A1988D6F80080002001234D
:103F800010602B603CE50135EDB2022D86BF0022AA
:103F9000027005701A46FFF73EBA039800210170BF
:103FA0007449097800293EF4CAAF6D490291097835
:103FB000002900F05287029800210170FEF7BFBF70
:103FC000039B1B78002B7FF4B1AB029B1B78002B6B
:103FD0007FF4ACAB019B1988FFF7AEBB243B002BF1
:103FE000B8F8000040F3748498423EF426AF9BB2C8
:103FF0006148A8F8003001230370FEF71EBFDFF808
:104000007C81C0B298F8001005F05EFEFFF7A8BBF7
:104010005A4B3878197805F057FECBE4D8B298F8A7
:10402000001005F051FE3B68BDE57F21402005F002
:104030001BFE5349534A3B680B600021117040E559
:10404000C0B298F8001005F03FFEFFF712B94E4BD2
:10405000DFF854E11978FEF7F0BE4B2C40F34882AC
:104060001834802CB8F80030484AA8BF8024A342F6
:104070007FF407AEFEF709BF99F8000005F048FE8F
:104080002188FFF759BB424B01931B88002B41F05D
:104090003487334B029345E6029B1B78002B7FF459
:1040A00020AB039B1B78002B7FF440AB92E7FCF71F
:1040B000E9FAC8E4FCF7E6FA48E6FCF7E3FA16E5A5
:1040C000FCF7E0FAFFF718BA421CD2B2022A40F21B
:1040D000568200222A701A46FFF79DB97F20FFF70B
:1040E000D3BA7F20FFF791B91D4F1F4902974FF0B8
:1040F000000C81F800C0009F02994FF0010E87F874
:1041000000E081F800C076E6224F387802F0DAFE4F
:10411000214B1B78002B00F040823B887E2B00F265
:104120003C821E4CDFF884902268D9F80010521AA5
:104130000F2A40F229821A4A0133108899B2398035
:10414000002800F04382C9B2C0B205F08DFD154FC2
:10415000226898F80030C9F800203B70FEF781BD56
:10416000F29DFF1F0A9FFF1F489FFF1FF09DFF1F2B
:10417000109DFF1F2E9DFF1F349DFF1FC89DFF1F19
:10418000389DFF1F8C89FF1FC79FFF1F889FFF1F40
:104190006E9DFF1F649DFF1FF39FFF1F149FFF1F56
:1041A000B89DFF1F2A9DFF1F899DFF1FD49FFF1FE2
:1041B000DFF89CA399F80000BAF80030DF4AE04C21
:1041C000C31A82FB031ED917C1EB6E0101EB41013B
:1041D000A3EB810303EB430354F8233018447F28F7
:1041E00040F38F847F3882FB0032C317C3EB620336
:1041F00003EB4303A0EB83007330DFF858B3C0B286
:1042000005F086FDBBF80030022B7FF68AAA99F8EC
:104210000010BAF80030C94ACB1A82FB030ED81737
:10422000C0EB6E0000EB4000A3EB800303EB430305
:1042300004EB8303586808447F2840F3FA867F38EC
:1042400082FB0032C317C3EB620202EB4202A0EB17
:1042500082007330C0B205F05BFDBBF80030032B69
:104260007FF65FAA99F80010BAF80030B34ACB1A6B
:1042700082FB030ED817C0EB6E0000EB4000A3EBEF
:10428000800303EB430304EB8304A06808447F2806
:1042900040F351817F3882FB0032C317C3EB6202C7
:1042A00002EB4202A0EB82007330C0B205F030FD99
:1042B000FFF737BADFF898A23868BAF800309F4A9B
:1042C0009F4CC31A82FB031ED917C1EB6E0101EB91
:1042D0004101A3EB810303EB430354F8233018445B
:1042E0007F2840F30A847F3882FB0032C317C3EB78
:1042F000620303EB4303A0EB83007330DFF85882C3
:10430000DFF850B298F80010C0B205F0DDFCBBF841
:104310000030022B7FF649AB3968BAF80030874A83
:10432000CB1A82FB030ED817C0EB6E0000EB4000E7
:10433000A3EB800303EB430304EB830358680844B7
:104340007F2840F372867F3882FB0032C317C3EBAD
:10435000620202EB4202A0EB82007330C0B298F816
:10436000001005F0B1FCBBF80030032B7FF61DAB4D
:104370003968BAF80030714ACB1A82FB030ED8179D
:10438000C0EB6E0000EB4000A3EB800303EB4303A4
:1043900004EB8304A06808447F2840F3FB807F3847
:1043A00082FB0032C317C3EB620202EB4202A0EBB6
:1043B0008200733098F80010C0B205F085FCFFF75A
:1043C000F4BA0120FFF760B9DFF884A15B49BAF8BD
:1043D00000205B4C9A1A81FB020ED017C0EB6E00D6
:1043E00000EB4000A2EB800202EB420254F82200F4
:1043F00018447F2840F30084A0F17F0381FB032150
:10440000DA17C2EB610000EB4000A3EB80007330D1
:10441000DFF840B198F80010C0B205F055FCBBF8C9
:104420000030022B50D93968BAF80030434ACB1A11
:1044300082FB030ED817C0EB6E0000EB4000A3EB2D
:10444000800303EB430304EB8303586808447F288D
:1044500040F356867F3882FB0032C317C3EB6202FB
:1044600002EB4202A0EB82007330C0B298F8001059
:1044700005F02AFCBBF80030032B25D93868BAF8C0
:1044800000302E4AC31A82FB031ED917C1EB6E01FE
:1044900001EB4101A3EB810303EB430304EB830432
:1044A000A36818447F2867DD7F3882FB0032C3177A
:1044B000C3EB620202EB4202A0EB82007330C0B297
:1044C00098F8001005F000FC3B68FFF767BB00217F
:1044D000402005F0C9FB4CE599F8000005F018FCF8
:1044E00042E505F015FCFFF710B80120FEF78DBF7F
:1044F000243C002CB8F8003040F39185A3423EF4F0
:10450000C4ACA4B20F4BA8F8004001221A70FEF709
:10451000BCBC0D4B01931B88002B3FF4DFA8FFF7B9
:10452000F6BB0A4A8342A8BF03461360FEF783BE68
:104530001446FFF79BBBFCF7A5F8B6E6ABAAAA2A80
:10454000A82F0100349DFF1F6E9DFF1F109DFF1FB0
:10455000449FFF1FB09FFF1FC89DFF1FDF4BE04C14
:1045600019886A2005F0DAFC98F800303B70FEF7F5
:1045700078BBFCF787F877E4FCF784F89FE72A70AC
:104580001A46FEF748BFD64CD64F98F800303B701D
:10459000FEF767BBFCF776F80CE7D34B1B78002BD4
:1045A000F1D03B88CD4F002BEDD0CD4CDFF84893B8
:1045B0002268D9F80010521A0F2AE5D9CB4A013BDC
:1045C000108899B2398000287FF4BDADC8B205F0DB
:1045D000EBFBBCE5DFF824A399F80000BAF8003043
:1045E000C34AC44CC31A82FB031ED917C1EB6E0128
:1045F00001EB4101A3EB810303EB430354F82330A8
:1046000018447F2840F3FD837F3882FB0032C317B4
:10461000C3EB620303EB4303A0EB83007330DFF8CB
:10462000E0B2C0B205F074FBBBF80030022B7FF69D
:1046300078A899F80010BAF80030AD4ACB1A82FB7E
:10464000030ED817C0EB6E0000EB4000A3EB800315
:1046500003EB430304EB8303586808447F2840F3CB
:10466000F1857F3882FB0032C317C3EB620303EB93
:104670004303A0EB83007330C0B205F049FBBBF8E5
:104680000030032B7FF64DA899F80010BAF80030DF
:10469000974ACB1A82FB030ED817C0EB6E0000EBD3
:1046A0004000A3EB800303EB430304EB8304A06807
:1046B00008447F287FF73FAF7F3882FB0032C31763
:1046C000C3EB620303EB4303A0EB83007330ECE521
:1046D000DFF828A23868BAF80030854A854CC31A3A
:1046E00082FB031ED917C1EB6E0101EB4101A3EB65
:1046F000810303EB430354F8233018447F2840F32D
:1047000059837F3882FB0032C317C3EB620303EB8C
:104710004303A0EB83007330DFF8E881DFF8E0B1FA
:1047200098F80010C0B205F0CFFABBF80030022BA9
:104730007FF63BA93968BAF800306D4ACB1A82FB84
:10474000030ED817C0EB6E0000EB4000A3EB800314
:1047500003EB430304EB8303586808447F2840F3CA
:104760006D857F3882FB0032C317C3EB620303EB16
:104770004303A0EB83007330C0B298F8001005F03B
:10478000A3FABBF80030032B7FF60FA93868BAF8FC
:104790000030574AC31A82FB031ED917C1EB6E01C2
:1047A00001EB4101A3EB810303EB430304EB83041F
:1047B000A36818447F287FF7EDAE7F3882FB003274
:1047C000C317C3EB620303EB4303A0EB8300733017
:1047D000F0E5DFF828A14649BAF80020454C9A1ABE
:1047E00081FB020ED017C0EB6E0000EB4000A2EB85
:1047F000800202EB420254F8220018447F2840F362
:104800000383A0F17F0381FB0321DA17C2EB610070
:1048100000EB4000A3EB80007330DFF8E4B098F8C1
:104820000010C0B205F050FABBF80030022B7FF642
:104830004BAE3968BAF800302D4ACB1A82FB030E12
:10484000D817C0EB6E0000EB4000A3EB800303EB36
:10485000430304EB8303586808447F2840F3F6843D
:104860007F3882FB0032C317C3EB620303EB4303C1
:10487000A0EB83007330C0B298F8001005F024FA62
:10488000BBF80030032B7FF61FAE3868BAF8003053
:10489000174AC31A82FB031ED917C1EB6E0101EB45
:1048A0004101A3EB810303EB430304EB8304A368FF
:1048B00018447F287FF760AE7F3882FB0032C31731
:1048C000C3EB620303EB4303A0EB83007330F6E515
:1048D00001283EF4B2AA0123FFF78ABB649DFF1FA3
:1048E000149FFF1F2A9DFF1FF29FFF1FB89DFF1FF0
:1048F000ABAAAA2AD8320100D49FFF1F449FFF1FF2
:10490000B09FFF1FC89DFF1FDFF8FCA299F80000B1
:10491000BAF80030BA4ABB4CC31A82FB031ED9173F
:10492000C1EB6E0101EB4101A3EB810303EB4303F8
:1049300054F8233018447F2840F3E7817F3882FB06
:104940000032C317C3EB620202EB4202A0EB82000B
:104950007330DFF8B8B2C0B205F0DAF9BBF8003056
:10496000022B7EF6DEAE99F80000BAF80030A44AB9
:10497000C31A82FB0321DA17C2EB610202EB420287
:10498000A3EB820303EB430304EB83035B6818444C
:104990007F2840F328847F380C2290FBF2F302FB3F
:1049A00013007330C0B205F0B3F9BBF80030032B2D
:1049B0007EF6B7AE99F80000BAF80030904AC31AF4
:1049C00082FB0321DA17C2EB610202EB4202A3EB86
:1049D000820303EB430304EB8304A36818447F289A
:1049E0007FF7A9AD7F380C2290FBF2F302FB130096
:1049F00073305AE4DFF810A23868BAF80030804A01
:104A0000804CC31A82FB031ED917C1EB6E0101EB68
:104A10004101A3EB810303EB430354F82330184413
:104A20007F2840F36F817F3882FB0032C317C3EBCE
:104A3000620202EB4202A0EB82007330DFF8D08109
:104A4000DFF8C8B198F80010C0B205F03DF9BBF826
:104A50000030022B7EF6A9AF3868BAF80030684AF9
:104A6000C31A82FB0321DA17C2EB610202EB420296
:104A7000A3EB820303EB430304EB83035B6818445B
:104A80007F2840F3AD837F380C2290FBF2F302FBCA
:104A900013007330C0B298F8001005F015F9BBF898
:104AA0000030032B7EF681AF3868BAF80030544AE4
:104AB000C31A82FB0321DA17C2EB610202EB420246
:104AC000A3EB820303EB430304EB8304A3681844C2
:104AD0007F287FF75FAD7F380C2290FBF2F302FB5B
:104AE0001300733066E44FF47A43013BFDD199F82B
:104AF000000005F00DF9FEF768BFFBF7C3FDFFF7F7
:104B0000FDBBFBF7BFFDFFF778BBDFF8FCA03C491E
:104B1000BAF800203B4C9A1A81FB020ED017C0EB6A
:104B20006E0000EB4000A2EB800202EB420254F860
:104B3000220018447F2840F3EB80A0F17F0381FB23
:104B40000321DA17C2EB610101EB4101A3EB810004
:104B50007330DFF8B8B098F80010C0B205F0B4F8C0
:104B6000BBF80030022B7FF6AFAC3868BAF80030E3
:104B7000234AC31A82FB0321DA17C2EB610202EB5C
:104B80004202A3EB820303EB430304EB83035B6862
:104B900018447F2840F32E837F380C2290FBF2F3D9
:104BA00002FB13007330C0B298F8001005F08CF8C7
:104BB000BBF80030032B7FF687AC3868BAF80030BA
:104BC0000F4AC31A82FB0321DA17C2EB610202EB20
:104BD0004202A3EB820303EB430304EB8304A368C9
:104BE00018447F287FF7C8AC7F380C2290FBF2F383
:104BF00002FB1300733062E4FBF744FD08E400BFDE
:104C0000ABAAAA2A68330100449FFF1FB09FFF1F71
:104C1000C89DFF1FDFF834A399F80000BAF80030F0
:104C2000C24AC34CC31A82FB0317D917C1EB6701F1
:104C300001EB4101A3EB810303EB430354F8233061
:104C400018447F286ADD7F3882FB0032C317C3EB2C
:104C5000620202EB4202A0EB82007330DFF8F0B296
:104C6000C0B205F055F8BBF80030022B7FF677A9EB
:104C700099F80000BAF80030AC4AC31A82FB03214D
:104C8000DA17C2EB610202EB4202A3EB820303EBF1
:104C9000430304EB83035B6818447F2840F3A78237
:104CA0007F380C2290FBF2F302FB13007330C0B28A
:104CB00005F02EF8BBF80030032B7FF650A999F8C9
:104CC0000000BAF80030994AC31A82FB0321DA17B0
:104CD000C2EB610202EB4202A3EB820303EB43034C
:104CE00004EB8304A36818447F2814DD7F380C226A
:104CF00090FBF2F302FB13007330C0B205F008F82A
:104D0000FFF72DB9FBF7BEFC98E6FBF7BBFC20E6EE
:104D1000FBF7B8FC1DE7FBF7B5FCEEE7FBF7B2FCD1
:104D20009CE7DFF828A299F80000BAF800307F4A23
:104D3000804CC31A82FB031ED917C1EB6E0101EB35
:104D40004101A3EB810303EB430354F823301844E0
:104D50007F28DADD7F3882FB0032C317C3EB6203A2
:104D600003EB4303A0EB83007330F2E5DFF8DCA133
:104D70003868BAF800306D4A6E4CC31A82FB031EC5
:104D8000D917C1EB6E0101EB4101A3EB810303EBEA
:104D9000430354F8233018447F28B3DD7F3882FB67
:104DA0000032C317C3EB620303EB4303A0EB8300A2
:104DB000733043E6FBF766FCAEE4DFF890A15B4995
:104DC000BAF800205B4C9A1A81FB020ED017C0EB98
:104DD0006E0000EB4000A2EB800202EB420254F8AE
:104DE000220018447F2893DDA0F17F0381FB03217B
:104DF000DA17C2EB610000EB4000A3EB80007330D8
:104E0000A7E6FBF73FFC0AE4FBF73CFC05E5DFF80F
:104E10003CA199F80000BAF80030444A464CC31A45
:104E200082FB0317D917C1EB670101EB4101A3EB2B
:104E3000810303EB430354F8233018447F287FF7A2
:104E40006DAF7F3882FB0032C317C3EB620303EB05
:104E50004303A0EB8300733000E7384800903848E4
:104E600038490390FEF75FB8DFF8E0A099F800003A
:104E7000BAF800302D4A344CC31A82FB0321DA17EA
:104E8000C2EB610202EB4202A3EB820303EB43039A
:104E900054F8233018447F2840F39F817F380C2238
:104EA00090FBF2F302FB13007330DFF8A4B0C0B242
:104EB00004F02EFFBBF80030022B19D999F800003E
:104EC000BAF800300C22C11A91FBF2F302FB131363
:104ED00002FB03435B6818447F2840F33B847F3820
:104EE00090FBF2F302FB13007330C0B204F010FF2A
:104EF000BBF80030032B7EF614ACBAF8003099F8FA
:104F000000000C22C11A91FBF2F302FB131302FB07
:104F10000344A36818447F287FF70DAB7F3890FBCC
:104F2000F2F302FB13007330FFF7BFB9ABAAAA2A52
:104F3000A82F0100142C0100D83201009C9FFF1FF4
:104F40000D9DFF1F489FFF1F68310100449FFF1FF9
:104F5000B09FFF1FDFF864A33868BAF80030CE4A6C
:104F6000CE4CC31A82FB0321DA17C2EB610202EBBB
:104F70004202A3EB820303EB430354F823301844AB
:104F80007F2840F327817F380C2290FBF2F302FB4D
:104F900013007330DFF82883DFF828B398F8001087
:104FA000C0B204F091FEBBF80030022B1AD9386869
:104FB000BAF800300C22C11A91FBF2F302FB131372
:104FC00002FB03435B6818447F2840F3C7837F38A4
:104FD00090FBF2F302FB13007330C0B298F800109C
:104FE00004F072FEBBF80030032B7EF6DEACBAF89C
:104FF000003038680C22C11A91FBF2F302FB131344
:1050000002FB0344A36818447F287FF7C3AA7F38B4
:1050100090FBF2F302FB13007330FFF7CBB9012BC7
:105020003DF433AF0124FFF76DBAFBF72BFBFFF71D
:1050300095B9FBF727FBFFF70DB9DFF880A296497A
:10504000BAF80020954C9A1A81FB0210D117C1EBD7
:10505000600101EB4101A2EB810202EB420254F834
:10506000220018447F2840F3B280A0F17F030C2077
:1050700093FBF0F200FB12307330DFF848B298F87F
:105080000010C0B204F020FEBBF80030022B1AD989
:105090003868BAF800300C22C11A91FBF2F302FB17
:1050A000131302FB03435B6818447F2840F31E83FD
:1050B0007F3890FBF2F302FB13007330C0B298F814
:1050C000001004F001FEBBF80030032B7FF6FCA9B2
:1050D000BAF8003038680C22C11A91FBF2F302FBD7
:1050E000131302FB0344A36818447F287FF744AAE4
:1050F0007F3890FBF2F302FB13007330FFF7DFB948
:10510000FBF7C0FAFFF7B1B9DFF8B0A199F80000DA
:10511000BAF80030604A624CC31A82FB0321DA17E6
:10512000C2EB610202EB4202A3EB820303EB4303F7
:1051300054F8233018447F2846DD7F380C2290FB3A
:10514000F2F302FB13007330DFF878B1C0B204F061
:10515000DFFDBBF80030022B19D999F80000BAF82E
:1051600000300C22C11A91FBF2F302FB131302FB75
:1051700003435B6818447F2840F38B807F3890FBA3
:10518000F2F302FB13007330C0B204F0C1FDBBF8B0
:105190000030032B7EF6E3AEBAF8003099F8000039
:1051A0000C22C11A91FBF2F302FB131302FB03441E
:1051B000A36818447F287FF7AEAD7F3890FBF2F3E9
:1051C00002FB1300733098E5FBF75CFABCE7FBF7D2
:1051D00059FA52E7FBF756FADCE6FBF753FA64E6B6
:1051E000FBF750FA56E4FBF74DFAFFF7DBBBFBF792
:1051F00049FA5CE5FBF746FAD5E4DFF8C0A099F878
:105200000000BAF80030244A264C35E6DFF8ACA09E
:105210003868BAF80030204A224CA2E6DFF89CA099
:105220001D49BAF800201F4C0DE7DFF890A099F84F
:105230000000BAF80030184A1B4C6DE7FBF722FA61
:10524000FFF79ABAFBF71EFAFFF716BAFBF71AFA3E
:10525000FFF711BB029B1B78002B7EF442AAFEF7DE
:1052600065BA124B1B78002B00F0C182104B1B78E3
:10527000002B7DF40AAE0F4B1B78002B3DF405AEDE
:10528000B8F800300C490A33A8F800300A70FDF76E
:10529000FCBDFBF7F7F977E7ABAAAA2A6831010052
:1052A000683301005C340100142C0100EF9FFF1FE4
:1052B000F09FFF1FF19FFF1F349DFF1F449FFF1FA3
:1052C000C89DFF1FB09FFF1FA14C2388002B40F0FB
:1052D0007D83DFF894B29F499F4A098899F80000BE
:1052E000B2F800E0DFF87882C1EB000C0C229CFBE6
:1052F000F2F102FB11C14FF0900C0CFB0EFE02FB11
:1053000001E16FF00B0E58F8011008440EFB03008A
:105310007F2840F35F85A0F17F0393FBF2F002FB4F
:1053200010307330C0B204F0F3FCBBF800202388C7
:105330001344022B22DD874A874B118899F800001D
:10534000B3F800C0DFF818E2411A0C2291FBF2F327
:1053500002FB1311902303FB0CF302FB0133734494
:105360005B6818447F2840F353857F3890FBF2F345
:1053700002FB13007330C0B204F0CAFCBBF800207B
:1053800023881344032B22DD724A734B118899F84A
:105390000000B3F800C0DFF8C8E1411A0C2291FB0D
:1053A000F2F302FB1311902303FB0CF302FB013316
:1053B00073449B6818447F2840F310857F3890FB26
:1053C000F2F302FB13007330C0B204F0A1FCBBF88F
:1053D000002023881344042B7EF7A3A95F4B1B886E
:1053E000012B7EF49EA999F80020A2F10C007F28E1
:1053F0007FF7A1A88B3A0C2092FBF0F300FB13205F
:105400007330FEF752BF524C2388002B40F01D83AF
:10541000DFF854B14F49504A0988D7F80080B2F8F4
:1054200000E04F48C1EB080C0C229CFBF2F102FBA0
:1054300011C14FF0900C0CFB0EFE02FB01E16FF06E
:105440000B0E405880440EFB03807F2840F39D8460
:10545000A0F17F0393FBF2F002FB10307330414B5D
:10546000C0B2197804F030FCBBF800202388134444
:10547000022B23DD374A384B11883868B3F800C057
:10548000DFF8DCE0411A0C2291FBF2F302FB13116E
:10549000902303FB0CF302FB013373445B68184455
:1054A0007F2840F3AB847F3890FBF2F302FB1300BC
:1054B00073302C4BC0B2197804F006FCBBF8002006
:1054C00023881344032B23DD224A234B1188386899
:1054D000B3F800C0DFF888E0411A0C2291FBF2F328
:1054E00002FB1311902303FB0CF302FB0133734403
:1054F0009B6818447F2840F38F847F3890FBF2F339
:1055000002FB13007330174BC0B2197804F0DCFBB8
:10551000BBF8002023881344042B7EF746AA0F4BC8
:105520001B88012B7EF441AA3A68A2F10C007F2867
:1055300040F3E6818B3A0C2092FBF0F300FB132042
:105540007330084BC0B2197804F0BEFBFEF72DBAD9
:10555000D09DFF1F449FFF1FF69EFF1F629DFF1FF0
:10556000A42C0100C89DFF1FB09FFF1FCD4C2288B7
:10557000002A00F0D081CC49DFF858B30988BBF885
:1055800000000331884227DDC848C9490088B1F8C6
:1055900000E0DFF844C3181A0C2190FBF1F901FB7D
:1055A00019004FF0900909FB0EFE01FB00E06FF0BF
:1055B0000B0E5CF8000003440EFB02307F2840F322
:1055C000AA837F3890FBF1F301FB13007330C0B264
:1055D00098F8001004F078FBBBF8002023881344EF
:1055E000022B23DDB14BB24A38681B88B2F800C0E9
:1055F000DFF8E4E2C31A0C2193FBF1F201FB123253
:10560000902303FB0CF301FB023373445B681844E3
:105610007F2840F308847F3890FBF1F301FB1300EF
:105620007330C0B298F8001004F04EFBBBF80020B5
:1056300023881344032B23DD9C4B9D4A38681B8829
:10564000B2F800C0DFF890E2C31A0C2193FBF1F22C
:1056500001FB1232902303FB0CF301FB0233734472
:105660009B6818447F2840F3DB837F3890FBF1F37D
:1056700001FB13007330C0B298F8001004F024FB53
:10568000BBF8002023881344042B7EF71DAF864B04
:105690001B88012B7EF418AF3A68A2F10C007F281A
:1056A0007EF76AAF8B3A0C2092FBF0F300FB1320DD
:1056B0007330FEF704BFDFF8F4A199F80000BAF8E0
:1056C00000307C4CC11A0C2291FBF2F302FB131345
:1056D00002FB03F3E35818447F287FF775AD7F384A
:1056E00090FBF2F302FB130073302DE5FAF7CAFFCB
:1056F000E4E4714B1B88182B12D099F80020134456
:10570000A3F118007F2840F376830C20973B93FB8E
:10571000F0F200FB123303F17300C0B204F0F8FAA8
:10572000664A674B127833F81230182B3DF4F9AF04
:1057300099F800201344A3F118007F287EF7FBAEF0
:105740000C20973B93FBF0F200FB123303F1730044
:10575000FEF7ABBDFAF796FFFFF7C7BBFAF792FF6C
:105760003BE4554B1A88182A13D03B681344A3F125
:1057700018007F2840F33C830C20973B93FBF0F20A
:1057800000FB123303F173004E4BC0B2197804F0E2
:105790009BFA4A4B4A491A78022A94BF01320022E6
:1057A0001A701A7831F81200182810D10424022A2D
:1057B00002F10100C2B288BF002231F8120018289D
:1057C00004D1013CF3D11A70FEF7EFB81A703B68B0
:1057D0000344A3F118007F2840F392800C20973BEC
:1057E00093FBF0F200FB123303F17300A9E6364B92
:1057F0001B78002B7DF4FDAF344B1B78002B3DF460
:1058000044ABB8F8003032490133A8F800300A70D0
:10581000FDF73BBB2C4B1B78002B7DF436AB2B4BA1
:105820001B78002B3DF431ABB8F800302849013B20
:10583000A8F800300A70FDF728BB1F4A1288182A02
:1058400012D01344A3F118007F2840F3CE820C201D
:10585000973B93FBF0F200FB123303F17300C0B2ED
:1058600098F8001004F030FA144B15491A78022AFF
:1058700094BF013200221A701A7831F812001828E9
:105880002DD10424022A02F10100C2B288BF0022F5
:1058900031F81200182821D1013CF3D11A703B686D
:1058A000FEF77CB9D09DFF1F629DFF1F449FFF1F25
:1058B000F69EFF1F683101009A9FFF1FC489FF1FDA
:1058C000609FFF1FC89DFF1FF09FFF1FF19FFF1FDD
:1058D000349DFF1FB09FFF1FA42C01001A703B686E
:1058E0000344A3F118007F287EF746AE0C20973BB7
:1058F00093FBF0F200FB123303F17300FEF7DFBD00
:10590000FAF7C0FE1DE6DFF834A399F80000BAF8F4
:105910000030C04CD6E6DFF830B335E6BE4B1A880F
:10592000182A13D03B681344A3F118007F2840F3D2
:1059300069820C20973B93FBF0F200FB123303F1DA
:105940007300B64BC0B2197804F0BEF9B44BB54938
:105950001A78022A94BF013200221A701A7831F89C
:10596000120018287FF433AF0424022A02F1010246
:1059700094BFD2B2002231F8120018287FF426AF6B
:10598000013CF2D11A70FEF710B8A34B1B88182BFC
:1059900012D099F800201344A3F118007F2840F397
:1059A00034820C20973B93FBF0F200FB123303F19F
:1059B0007300C0B204F0ACF9994A9A4B127833F8EC
:1059C0001230182B7FF4B4AEFDF7ABBE964ADFF869
:1059D00078B21288BBF80010033291427FF7A5AC71
:1059E00079E48D4A1288182A12D01344A3F11800C2
:1059F0007F2840F3F7810C20973B93FBF0F200FBEC
:105A0000123303F17300C0B298F8001004F05CF98F
:105A1000834B84491A78022A94BF013200221A70FB
:105A20001A7831F8120018287FF459AF0424022A9A
:105A300002F1010294BFD2B2002231F812001828FC
:105A40007FF44CAF013CF2D128E7774ADFF8F8B198
:105A50001288BBF80010033291427FF705ADD9E4FC
:105A6000724B01227F2107201A8004F0FDF87F216C
:105A70000B2004F0F9F8FDF7E7BE6D4B04227F21FF
:105A800007201A8004F0F0F800210B2004F0ECF855
:105A9000FDF7D3BE664B02227F2107201A8004F057
:105AA000E3F87F210B2004F0DFF8FDF7C1BE604B67
:105AB000002107201C8004F0D7F87F210B2004F080
:105AC000D3F8FDF7B0BE5B4B00227F2107201A8080
:105AD00004F0CAF87F210B2004F0C6F8FDF7BCBE25
