:1000000000800020BD01000005CE0000BDCD000035
:10001000BDCD0000BDCD0000BDCD0000BDCD0000B8
:10002000BDCD0000BDCD0000BDCD000005CE00005F
:1000300005CE0000BDCD000085C4000089C50000CC
:1000400005CE000005CE000005CE000005CE000064
:1000500005CE000005CE000005CE000005CE000054
:1000600005CE000005CE000005CE000005CE000044
:1000700005CE000005CE000005CE000005CE000034
:1000800005CE000005CE000005CE000005CE000024
:1000900005CE000005CE000005CE000005CE000014
:1000A000C1A90000CDA9000005CE000005CE0000CA
:1000B00005CE000005CE000005CE000005CE0000F4
:1000C00005CE000005CE000005CE000005CE0000E4
:1000D00005CE000005CE000005CE000005CE0000D4
:1000E00005CE000005CE000005CE000005CE0000C4
:1000F00005CE000071EE000005CE00009DEF00006F
:1001000005CE0000DDD7000005CE000005CE0000C2
:1001100005CE000005CE000005CE000005CE000093
:1001200005CE000005CE000005CE000005CE000083
:1001300005CE000005CE000005CE000005CE000073
:1001400005CE000005CE000005CE000005CE000063
:1001500075C6000089C600009DC60000B1C600003B
:1001600005CE0000F9DA000005CE000005CE000043
:1001700005CE000005CE000005CE000005CE000033
:1001800005CE000005CE000005CE000005CE000023
:1001900005CE000005CE000005CE000005CE000013
:1001A00005CE000005CE000005CE000005CE000003
:1001B00005CE000005CE000005CE0000564B4CF2E7
:1001C000205210B51A804DF628121A8000BF00BFC9
:1001D0000CF01CFE514B4FF010621A60504A9A60AE
:1001E000504ADA60504A136813F4807304D14F49BF
:1001F0000B604FF4A85313604D4B1A78110703D5C9
:100200001A7842F008021A704A4B4B492A221A7097
:100210004A4A4B4B8B4204D252F8040F43F8040B6A
:10022000F8E7484B484900228B4202D243F8042B9E
:10023000FAE74649464A002352F8230041F82300D2
:1002400001336F2BF8D1434B434A802103F8011B44
:100250009342FBD1414B3D4A1A60414B8A221A70AE
:10026000A3F5805324225A70A0221A709A7992071B
:10027000FCD59A79D406FCD43A4A937903F00C035E
:10028000082B384BF9D103221A7140225A719A79FE
:100290009006FCD5334A9179324B4906FBD5324A58
:1002A000324911600221516020221A709A7902F0BD
:1002B0000C020C2AFAD12E4B2E4A1A602E4B2F4AD2
:1002C0001A6000225A60072243F8042C2C4AC3F813
:1002D0000C2D62B60DF04AF9144B1B68DA0705D5F0
:1002E00028480CF017FF284B284A1A60284B1B7827
:1002F0005B0609D5244C254B22689A4204D121483B
:100300000CF008FF0023236010F002F90CF084FDCC
:100310000CF0B2FCFEE700BF0E2005403080044028
:10032000823F04000100002B10D0034014D0034092
:1003300002D0074000E00740C49BFF1F4C3D010076
:100340004088FF1FC49BFF1FD0A3FF1F0082FF1F19
:100350000000000000E400E05FE400E008ED00E0E1
:100360000050064000400640448004400000030165
:1003700004800440C010050014E000E0FF76010096
:1003800000002020D58A195F1CE00340A5C3945AC1
:1003900000F00740FFFFFFFFFFFFFFFFFFFFFFFF32
:1003A000FFFFFFFFFFFFFFFFFFFFFFFFFFFFFFFF5D
:1003B000FFFFFFFFFFFFFFFFFFFFFFFFFFFFFFFF4D
:1003C000FFFFFFFFFFFFFFFFFFFFFFFFFFFFFFFF3D
:1003D000FFFFFFFFFFFFFFFFFFFFFFFFFFFFFFFF2D
:1003E000FFFFFFFFFFFFFFFFFFFFFFFFFFFFFFFF1D
:1003F000FFFFFFFFFFFFFFFFFFFFFFFFFFFFFFFF0D
:10040000FFFFFFFFFFFFFFFFFFFFFFFFDEF9FFFF23
:1004100010B5054C237833B9044B13B10448AFF33E
:1004200000800123237010BDC49BFF1F000000004B
:10043000503D0100084B10B51BB108490848AFF307
:1004400000800848036803B910BD074B002BFBD0A0
:10045000BDE81040184700BF00000000C89BFF1F08
:10046000503D0100C49BFF1F0000000038B504464A
:10047000104621700A491D460FF02CFE01464FF030
:100480007E500FF0DBFE07490FF024FEE560606050
:10049000256165610CF0FAFFE061204638BD00BFC0
:1004A000DB0FC9400024744938B50446104621705A
:1004B00009491D460FF00EFE01464FF07E500FF029
:1004C000BDFE06490FF006FEE560606025616561CE
:1004D0000CF0DCFFE06138BDDB0FC940002474493B
:1004E00038B503780446032B20D8DFE803F01A1848
:1004F0001002C16840690FF0E3FC0D4905466068D1
:100500000FF09CFE014628460FF098FE38BD0849C2
:1005100040680FF093FEE1680FF0DCFD38BDC06865
:1005200038BDC16840690FF0CBFC38BD002038BD34
:100530000024744970B504460E460CF0A7FF05462A
:10054000E069281A0FF072FDE3682361E5616661D6
:10055000A061014660680FF071FE0146A06010487E
:100560000FF06CFE0FF042F90EF0E2FD0FF054FCBC
:10057000054601464FF07E500FF0A2FC61690FF076
:10058000A9FD2169064628460FF0A4FD0146304624
:100590000FF098FCE0602046BDE87040FFF7A0BF78
:1005A000000080BF38B50E201C4C0CF03FFA2188AB
:1005B0001B4B884205461A881DDA0023511AB1F5F3
:1005C000805FAABF1B03C3EB03330131142093FBED
:1005D000F1F10CF0B1FD134B1988F1B923889D425C
:1005E00010DAC3F57F630F33282091FBF3F1BDE8E8
:1005F00038400CF0A1BD9042D4BFC1EB0003C1EB69
:100600000203DBE740F6FF718D42D4BFC3EB050167
:10061000C3EB0101C1EB0131E3E738BDB09CFF1F23
:100620006A9EFF1F1C9EFF1F10B504460CF000F8C9
:10063000204610BD70B44C88A04220D9012301335C
:10064000DBB21CB2660031F8144084421D46F6D37A
:10065000A04211D005F10045013D965B31F815101F
:1006600032F81530401AF21A00FB02F0641A90FBBF
:10067000F4F4E01870BC7047905B70BC70470226C1
:100680000125E5E700280CDA064A434282FB0320F5
:10069000DA17C2EB600000EB4000A3EB8000C0F172
:1006A0000C007047ABAAAA2AF0B40E8886420DD27D
:1006B00003F10043013B31F81350854202D9F0BCED
:1006C000FFF7B8BF32F81300F0BC70471088F0BCD9
:1006D000704700BF094B1B880C2B09D8084A80B211
:1006E00052F8232028B143F6FE73984203D9108CA8
:1006F0007047108870470349FFF79CBF169CFF1F87
:1007000020180100BC190100374A38491088384ABE
:10071000F8B5384B12881B68834248DB9342A8BF68
:10072000134698420B60C8BF002342DD101AB0F593
:10073000804FAABF9B03C3EB8333013093FBF0F0E0
:10074000FFF7C8FF2C4B2D4F1C883B68C0F3C61524
:1007500005FB04F47F2CA8BF7F249D42064608D0E9
:10076000274B1B88002B38D1264B1B88002B30D100
:100770003D60254D2B689E4205D0214B1B885A1F9A
:10078000032A1DD92E60214D2B689C420ED0204B90
:10079000188848B11A4B1F4A1B88D35C834203D088
:1007A000C0B2E1B208F0C6FA2C60F8BDF8BD03464D
:1007B00008609A42D4BFC0EB0203C0EB0303B5E765
:1007C000144AD05C2030C0B206F07F0108F0B2FAC3
:1007D000D8E7284608F022FBCAE70E4A2946D05C33
:1007E00008F0A8FAC0E700BFB09CFF1FE89BFF1FFE
:1007F0006A9EFF1F189EFF1FFC9BFF1F589CFF1F38
:10080000049EFF1FA29CFF1F109CFF1FA49CFF1FA4
:10081000129EFF1F088AFF1F2DE9F04F012089B0AB
:100820000DF048F8AF4B186000200DF043F8AE4BC8
:10083000AE4A1B8810600C2B00F03B81AC4BAD4ADC
:1008400019880093AC4B52F8214000221A70AB4B30
:10085000AB4D1B88AB4A2E88013B32F91370002E3A
:100860005CD0A94BA94A1B88A9491278013B31F9F0
:100870001380002A40F0DF8011200DF01BF8A54BFB
:100880000193D3F800A00646B24540F3DF80A24BA7
:10089000DFF8A4921B88A14A012BD9F80030B2F8E6
:1008A00000B09F4A02922046C8EB030800F09A82EB
:1008B0000FF0BCFB029A52F82B100FF00BFC014614
:1008C00000200FF0FDFA0FF0CBFDCAEB0802B04597
:1008D000B8BFB0469042CAEB080880F2968200FB8F
:1008E0000888013298FBF2F08E4BDFF850820293B9
:1008F000D8F80030034403EBD3735B10C8F8003022
:100900002B88012B12D1884BDFF834B20393874B2D
:10091000DBF8005004934FF0000A47E07D4B019351
:10092000DFF814927F4BDFF8148202937E4B03931F
:100930001D460F200CF0BEFF2B689842824641DA1C
:10094000754A1288012A00F01D82744A05931288A4
:10095000734D049220460FF069FB049ADFF8E0B172
:1009600055F82210DBF800500FF0B4FB01460020D0
:100970000FF0A6FA0FF074FDEF1B059B5745A7EB90
:100980000302B8BF5746FF1A9042BABF013200FBBC
:100990000777474397FBF2F7D8F80020634B04939F
:1009A000BB1803EBD3735B10C8F80030604B1B8897
:1009B000013B032B00F2B082DFE813F06301A901D1
:1009C000C4008601594B04931B68984240F3C281CE
:1009D000514A1288012A00F0A682504A07931188D2
:1009E0004F4A0691204605920FF020FB059A069982
:1009F000DFF84CB152F82110DBF800500FF06AFB21
:100A00000FF02EFD079B2F445745A7EB0302A8BF0D
:100A10005746FF1AD8F800309042BABF00FB07775C
:100A20000132474397FBF2F73B4403EBD3735B1070
:100A3000C8F80030BAE715200BF0F8FF354B0193EA
:100A4000D3F800A00646B2453FF721AF354B0293DD
:100A5000D3F800A0B24580F289812F4BDFF8D890FF
:100A60001B882E4A012BD9F80030B2F800B02C4A6E
:100A700003922046984400F070820FF0D7FA039A50
:100A800052F82B100FF026FB0FF0EAFCB045CAEB32
:100A90000802A8BFB046CAEB08089042B6BF00FBE8
:100AA000088800FB08F8013298FBF2F0DFF88C8030
:100AB0001EE7204B1B78002B3FF4C0AE0C4B0D4AB9
:100AC000198800930C4B52F8210001221A700FF084
:100AD000ADFA4FF07C510FF0FDFA0FF0C1FC044667
:100AE000B5E600BF489CFF1F469EFF1F889EFF1F64
:100AF0004E9CFF1F8889FF1FF29BFF1F148AFF1F58
:100B0000BC9DFF1F041D0100648AFF1FD09DFF1FB5
:100B100074190100409CFF1F8E9CFF1F349CFF1F17
:100B20001C1D01007C9CFF1F389EFF1FB09DFF1FF6
:100B30005E89FF1F069CFF1FE09BFF1F4C9EFF1F4F
:100B4000349EFF1F28460FF071FAB2490FF0C2FA27
:100B5000054650460FF06AFAAF490FF0BBFA01465E
:100B600028460FF0AFF90FF07BFC0546CBF800509C
:100B7000D9F800000FF05AFAA6490FF0ABFA074671
:100B800030460FF053FAA4490FF0A4FA0146384654
:100B90000FF098F90FF064FCC9F800009F4AA04BD1
:100BA000168819889F4AA04B12681B889F4FC6EB76
:100BB000050E3544039EC6F800E0461A0844049921
:100BC0000D6001990E6002993E8808609A4280F299
:100BD00089810025C3EB060E954974450F6880F2A4
:100BE0007681611C9F4205FB01F50EF1010E95FB1C
:100BF000FEF5C0F2BE81BE42A8BF3E46F61A01FB1A
:100C000006F494FBFEF49A4200F33681BB42C0F234
:100C10003381884C20680FF009FA87490FF05AFA9F
:100C200086490FF04FF90FF01BFCA0F5FF531C3B5A
:100C3000082B98BF4FF40050D8F800301844002813
:100C40002060C0F24281B0F5804F80F252817C4B2F
:100C50001B781BB1B0F5005F40F05381794D2B78C4
:100C6000002B40F05481784D20682B68714C9842DD
:100C700004D080B208F03CF923682B6009B0BDE8CD
:100C8000F08F28460FF0D2F970490FF023FA05468D
:100C900050460FF0CBF96E490FF01CFA014628467A
:100CA0000FF010F90FF0DCFB0546CBF80050D9F837
:100CB00000000FF0BBF965490FF00CFA074630460B
:100CC0000FF0B4F962495FE728460FF0AFF95A49CF
:100CD0000FF000FA054650460FF0A8F95D490FF0F5
:100CE000F9F9014628460FF0EDF80FF0B9FB05467B
:100CF000CBF80050D9F800000FF098F94E490FF0EA
:100D0000E9F9074630460FF091F952493CE7284689
:100D10000FF08CF950490FF0DDF9054650460FF001
:100D200085F94E490FF0D6F9014628460FF0CAF86A
:100D30000FF096FB0546CBF80050D9F800000FF0F5
:100D400075F945490FF0C6F9074630460FF06EF9C0
:100D5000424919E7D8F80030DFF810B103EBD3733C
:100D60005B10DBF80050C8F800301FE6DFF80081A8
:100D7000DFF80091D8F8003003EBD3735B10C8F8AC
:100D80000030BDE5364A06931188364A0591204663
:100D90000492DFF8D8B00FF049F9049A0599DBF80E
:100DA000005052F821100FF095F90FF059FBEF1B8E
:100DB000069B5745A7EB0302B8BF5746FF1AD8F862
:100DC00000309042BABF013200FB0777474397FBE0
:100DD000F2F73B4403EBD373234A04925B10C8F849
:100DE0000030E3E50FF022F9029A52F82B100FF0D1
:100DF00071F90FF035FBCAEB0802B045B8BFB04639
:100E00008242CAEB08083FF76AAD00FB08F898FB7E
:100E1000F2F069E5CDCC4C3FCDCC4C3E168AFF1F9D
:100E20005C89FF1F489CFF1F149EFF1F2C9CFF1F07
:100E3000889EFF1FBC89FF1F9A99193FCDCC4C4556
:100E40003A9FFF1FA09CFF1F2089FF1F3333733F72
:100E5000CDCC4C3DCDCCCC3E6666663FCDCCCC3DBA
:100E6000349CFF1F1C1D0100B09DFF1F349EFF1FFF
:100E70004C9EFF1FE09BFF1F009B1B88002B3FF435
:100E8000C8AE2B1B002BB8BF5B42092B47DD05F515
:100E900000500130001B0FF0C9F83B493B4C0FF0EC
:100EA00019F9054620680FF0C1F839490FF012F919
:100EB000014628460FF006F80FF0D2FAD8F80030B5
:100EC000184400282060BFF6BEAE002213E09F4207
:100ED00005FB04F5B8BF002195FBFEF54BDA91FB4D
:100EE000FEF490E6B242D4BFC3EB0205C3EB0605A5
:100EF00070E643F6FF72274B22601B78002B3FF40D
:100F0000ADAE05F0DBF9244B01221A70ABE605F01B
:100F1000D1F900232B70A6E6D9F800003EE64FF485
:100F200000501A4C88E61D491D4A069320460D883C
:100F300005920FF07BF8059ADFF868B052F825109B
:100F4000DBF800500FF0C6F8014600200EF0B8FFA5
:100F50000FF086FA2F44069B56E50FF067F8039AC8
:100F600052F82B100FF0B6F8014600200EF0A8FF43
:100F70008AE51E4642E6B742D4BFC3EB0701C3EB86
:100F8000060104FB01F1AAE7CDCCCC3EBC89FF1FD2
:100F90009A99193F3A9FFF1FA09CFF1F349CFF1F87
:100FA0001C1D0100349EFF1F08B5244B1B88FBB19C
:100FB000234B1B78FBB1234B1B78E3B1224B1B78EF
:100FC000CBB1224B1B78B3B1214B22481A78C2B95E
:100FD000214A22490088128809680244B1EB620F55
:100FE00009DD01221A706420BDE8084005F07AB9D5
:100FF000174A117801B908BD1370BDE8084007F021
:1010000041BF154A16490088128809680244B1EBAD
:10101000620FF0DD00221A7007F034FF642005F043
:1010200061F9642005F05EF9642005F05BF94FF486
:101030001670BDE808400CF04BBA00BFBE9DFF1F04
:10104000669EFF1F679EFF1F689EFF1F699EFF1F12
:10105000149CFF1F2C9CFF1F149EFF1F489CFF1F0A
:10106000889EFF1F38B5114C232025780BF0DEFC3D
:101070000F4A42F82500131F02F1C400002253F862
:10108000041F83420A44FAD123780A4907480A4CCC
:101090000133DBB2322B81FB025108BF0023D21790
:1010A000C2EB21120370226038BD00BFFE9BFF1F00
:1010B000C09CFF1F1F85EB51309EFF1F2DE9F04F95
:1010C000B84CB94D2068B94F83B00EF0AFFFB849A6
:1010D0000FF000F8064610200CF0ECFB0EF0A6FF17
:1010E000B4490EF0F7FF31460EF0ECFE0FF0B8F900
:1010F0002988206088423B8843DA9E465B1A7F2B12
:101100004FF0000247DDD2015E1C92FBF6F2AA4EC0
:10111000DFF8C882B6F800C0C8F80020BCF1190F8B
:1011200000F0DF80BCF11A0F00F01781BCF11E0F38
:1011300000F020810126B146A04A1288002A00F062
:101140009D808842C0F207817045D4BFC1EB00008A
:10115000C1EB0E009A42BABF02FB000001335043BC
:1011600090FBF3F3964A1360964B1888C0B9964AE1
:101170001288AAB9954B197801B11A7003B0BDE86D
:10118000F08F9842D4BFC1EB0002C1EB03029E4630
:101190005B1A7F2BB7DCC2EBC21292FBF3F2B6E70D
:1011A0002988D4F800E0DFF80082DFF8F8A1714563
:1011B0006CDCDFF818C29CF80020002A2ED14FF01A
:1011C000010B04288CF800B028D1002E40F0948147
:1011D0007D4B18880028D1D0B9F1000FCED02368FC
:1011E0002C883A88A34280F265810023141B7E2C50
:1011F000774DD5BFC3EB8313C3EBC3135B0001343F
:1012000093FBF4F42B680134A34203D0C0B2E1B2E3
:1012100007F090FD2C6003B0BDE8F08F012800F0CE
:10122000F680022800F0EB800328D1D1694B1B889F
:10123000092BCDD0002ECBD023682E883A88B3421C
:1012400080F27B810023961B7E2EDFF88CA1D5BF18
:10125000C3EB8313C3EBC3135B00013693FBF6F6BA
:10126000DAF800300136B34203D0F1B24A2007F079
:1012700061FDCAF80060ABE716469146BCF11E0F4F
:101280007FF472AF0022DFF858817EE04F4B1A786E
:10129000002A3FF473AF002401281C7000F0A480E2
:1012A000022840F00E81002E00F0A3804A4D2B68EA
:1012B000002B00F09E800420214607F03BFD424BAE
:1012C0002C60188800283FF459AFB9F1000F3FF4A3
:1012D00055AFC0B2002107F02DFD3D4B00221A6032
:1012E0004CE7DFF8FC8098F80020C2B1DFF8D89016
:1012F000B9F800A0BAF1000F11D0DFF8E89099F822
:1013000000B0934578D05FFA8AF07F2107F012FD94
:1013100098F80030B6F800C089F8003010E0DFF827
:10132000C49099F800A0924566D0274B0021187808
:1013300007F000FD98F80030B6F800C089F80030DA
:101340001E4B1A88002A97D0BCF11E0F40F0068170
:101350000026B14619E00020FCE6DFF8848098F80A
:101360000020002A0BBF012600264FF000094FF095
:101370000109E1E6DFF86880104B98F800601A88F0
:10138000B6FA86F676094FF0000998F80030002B7F
:101390003FF4E8AE2988B7F800E02068C1EB0E03FF
:1013A000CFE600BF3C9CFF1FC49DFF1FC09DFF1FD9
:1013B0009A99193FCDCCCC3E469EFF1F709EFF1FD1
:1013C000B89CFF1F469CFF1F529EFF1F4B9EFF1F96
:1013D000209CFF1F049EFF1FBC9CFF1F2C9EFF1F15
:1013E000069CFF1F029CFF1F1EB1614D2B68002B46
:1013F0007BD1604B188865E70026B1469CE6002E3D
:101400003FF4E6AEDFF868A1DAF800202EE0002E07
:101410003FF4DEAEB7F80080F045D4BFC1EB080260
:10142000C1EB0E02C1EB0808B8F17E0FDFF840A156
:10143000D5BFC2EB8212C2EBC212520008F1010802
:1014400092FBF8F8DAF8002008F10108424506D0CE
:101450005FFA88F10120009307F06CFC009B18886C
:10146000CAF8008002287FF4DFAE42462168B5F852
:1014700000803888414559DA0021C8EB0008B8F1EE
:101480007E0FD3BFC1EB8111C1EBC11108F101087F
:10149000490091FBF8F808F10108904506D05FFA81
:1014A00088F10420009307F045FC009B1888CAF8D7
:1014B0000080B9E69342D4BFC4EB0303C4EB02033C
:1014C00094E6032827D12C4B1B88092B91D0002EA2
:1014D0008FD0274D2B68002B8BD04A20214607F058
:1014E00029FC244B2C601888ECE6214607F022FCEE
:1014F000204B2C601888E5E640207F218DE80C0009
:1015000007F018FC019B009A188858451CD0022847
:101510007FF48AAE76E704287FF46BAF002E3FF4A9
:1015200068AF2146402007F005FC62E78142D4BF46
:10153000C8EB0101C8EB00019FE79342D4BFC6EBA3
:101540000303C6EB02037EE6B8F80010DAF800E009
:10155000B7F800808E45FFF665AF5DE72988B7F8DC
:1015600000E020680026C1EB0E03B146E9E500BFAC
:10157000BC9CFF1F529EFF1F049EFF1F08B50F4B10
:101580001B88022B0FD0032B12D0042B03D00C4B43
:1015900001221A7008BD7F21092007F0CBFB084B00
:1015A00001221A7008BD7F21412007F0C3FBEEE73E
:1015B0004021092007F0BEFBE9E700BFB49CFF1FF4
:1015C0006A9CFF1F38B51C4B1B881D2B26D01B4B5C
:1015D0001B88012B25D01A4A1A4B14881B681A4AFB
:1015E000A342128818DB9342D4BFC4EB0303C4EBBD
:1015F0000203141B7F2CC6BFDB010134C3EBC313F2
:1016000093FBF4F4114D2B689C4203D0E1B205200A
:1016100007F090FB2C6038BD0023EAE70C4B1C88D8
:10162000F0E70C4B0C4A0D491B6812680C689B1ABA
:101630001C1B84F30704E5E7469EFF1FBC9DFF1FAC
:10164000669CFF1FF49BFF1F449EFF1FEC9BFF1F28
:10165000389CFF1F789EFF1F2889FF1FC89DFF1F12
:1016600010B50F4C23685BB90E4B1B88022B11D0B1
:10167000033B012B09D90C4A00231370236010BDD2
:101680000021052007F056FBEEE70021092007F0B6
:1016900051FBF0E70021412007F04CFBEBE700BFD6
:1016A000EC9BFF1FB49CFF1F6A9CFF1F08B5274BD4
:1016B0001B78ABB115200BF0B9F9254A254B1288E0
:1016C00018601D2A15D0244A1288EAB1012A25D0B3
:1016D000224B1B78002B34D0BDE80840FFF7C0BF79
:1016E00011200CF0E7F81A4A1A4B128818601D2ACC
:1016F000E9D11B4B1B78002BEAD0184B1B780BB39E
:10170000BDE80840FFF75EBF164A1288002ADFD006
:10171000154A1B6812889A42DADCEEE70F200CF0BB
:10172000C9F8104B114A1B88106033B1104B114A95
:101730001B6812689B1A9842DFDD084B1B78002B50
:10174000CAD108BDFFF71AFFDAE700BFD09DFF1F1F
:10175000469EFF1FF49BFF1FBC9DFF1F6A9CFF1F3F
:10176000069CFF1FB49CFF1F669CFF1FC89DFF1FA8
:10177000789EFF1F2889FF1FF8B510200CF09AF8FB
:10178000C830B0F5FA7F6EDBB0F57A6F0146A8BFBE
:101790004FF47A6101F51673B3F57A6FA8BF4FF471
:1017A0007A639BB289B27B4A7B4C118022202380D2
:1017B00007F044FC2188794D794C242007F03EFC49
:1017C0000E200BF033F940F6FF71C8308842A8BFF5
:1017D000084620EAE07000F5FA6283B28A42A8BFA8
:1017E0000A460220194622802B8007F027FC218818
:1017F000042007F023FC01200CF05CF804460020D4
:101800000CF058F8A042B8BF204600F1C801B1F56D
:10181000FA7FC0F2A480B1F57A6FA8BF4FF47A6165
:1018200001F54873B3F57A6FA8BF4FF47A639BB2A2
:1018300089B25C4A5C4C11800A20238007F0FEFBD1
:1018400021880C2007F0FAFB15200BF0EFF800F5CB
:101850009671B1F52F7F0BDB41F25C23994240F387
:101860008380194608E040F24C434FF4FA719AE73E
:1018700040F214534FF42F714C4A11804C4C4D4D93
:101880002380062007F0DAFB21884B4E082007F062
:10189000D5FB00274FF4AF74F9B2484809F004F9BA
:1018A00055F8043BC3F5967300FB03F086FB002359
:1018B000C017C0EB6310844207F10107A8BF0446BC
:1018C000062FE9D13E4F3C4E0025E9B23D4809F0D4
:1018D000EBF857F8043BC3F5967300FB03F086FB67
:1018E0000023C017C0EB6310844205F10105A8BFB7
:1018F00004460C2DE9D1344F2F4E0025E9B2334870
:1019000009F0D2F857F8043B2B4AC3F5967300FB55
:1019100003F086FB0013C017C0EB6310844205F18F
:101920000105A8BF04460C2DE8D1A4F1140131290A
:101930002BDD40F23A73A4F5B97403FB04F482FB87
:101940000432E417A4EB621289B232322048214BF0
:1019500001801A602A20BDE8F84007F06FBB40F212
:1019600014534FF4FA7164E7104A00F5617089B2BC
:10197000B0F52F7F1180B8BF4FF42F73FFF67EAF05
:101980008342A8BF03469BB278E740F26C723221D3
:10199000DCE700BFC49DFF1FC09DFF1FB09CFF1F61
:1019A0006A9EFF1F149EFF1F2C9CFF1F669CFF1F3B
:1019B000449EFF1F4C8AFF1FB5814E1B189CFF1FC2
:1019C0001C8AFF1F4C9CFF1F2C89FF1FA89CFF1F18
:1019D000649EFF1F048AFF1F2DE9F84F0C200AF0B8
:1019E000F1FF0C200BF0A6FCBF4914200BF0B2FC59
:1019F000BE49BF4808F0EAFC022103200BF040FD7D
:101A0000022104200BF03CFD022105200BF038FDE3
:101A1000022106200BF034FD01210A200BF030FDDD
:101A2000012109200BF02CFD01210D200BF028FDD8
:101A3000012128200BF024FD012114200BF020FDB2
:101A4000012116200BF01CFD172001210BF018FDC1
:101A500004200BF007FD00283DD005200BF002FD0F
:101A6000044600283ED000242046A24D287005F0F0
:101A700009FF2E785EBB204607F00AFB9E4B9F496C
:101A80001B880F889E4ADFF8DCE29E4DA3F5AF71FC
:101A900040F23A7303FB01F382FB0312DB17A3EB63
:101AA0006213323301210D20CEF800302F700BF07D
:101AB000D3FC64200BF00CFD4FF416710A200BF0E0
:101AC0003BFB5D21904809F02BF890B9FEE7BDE89B
:101AD000F84F08F08BBB06200BF0C4FC0028BCD1EB
:101AE0000124C2E703200BF0BDFCB0FA80F04009EE
:101AF000BBE764200BF0ECFC31460A200BF01CFB2A
:101B00004FF4967109200BF017FB5C217F4809F018
:101B100007F800B9FEE764200BF0DAFC3146092033
:101B20000BF00AFB4FF4967116200BF005FB5B21BE
:101B3000774808F0F5FF00B9FEE764200BF0C8FC19
:101B4000314616200BF0F8FA4FF4967117200BF07F
:101B5000F3FA64200BF0BCFC314617200BF0ECFAD2
:101B600064200BF0B5FC31460D200BF075FC694A82
:101B700069481268DFF8F0B1DFF8A4A1674FDFF819
:101B8000EC91DFF8EC8100230121FEF78DFC0123AD
:101B9000CAF800603E60C9F800608BF80030042687
:101BA0000F200BF087FED9F8003003440E20C9F84F
:101BB00000300AF03BFFDAF800309BF800200344C5
:101BC000CAF800301520002A7DD00AF02FFF3B68AC
:101BD0001844386006F0010080F0010004F072FB48
:101BE000B8F80030002B14BF4B20DC200BF070FC49
:101BF000013ED5D1D9F80030DAF8002048493868DC
:101C0000DFF870E1474E002BB8BF0333002AB8BF9E
:101C1000033292100A604449444A09881288002815
:101C2000B8BF03309B10801038605F1A19443160D0
:101C3000CEF800703E4E3F4F3F49C9F80030C2EB2E
:101C4000000E0244C7F800E032600B600CB1FFF7F1
:101C500093FDB8F800305BB94FF4FA7004F042FB22
:101C600004F02CFB06F00AF94FF4AF600BF030FCE7
:101C7000324B012404201C600BF0F4FB10B9304BF4
:101C800028701C702F4B1B881C2B23D02E4C04F16A
:101C9000C80523200AF0CAFE44F8040F01200BF007
:101CA00017FCA542F5D1294A294B1078187007F086
:101CB000F9F804F0FFFA45F6BF5226492648BDE878
:101CC000F84F0AF06BBC11200BF0F4FD3B68184490
:101CD00038607FE7214B18880028D7D0204BC0B24E
:101CE000197807F027F8D1E7001B374640420F006C
:101CF000D090FF1F1C9CFF1F649EFF1FDC9DFF1FD9
:101D0000B5814E1B789CFF1F189CFF1FA89CFF1FCE
:101D10004C9CFF1F2489FF1FE09DFF1FE09BFF1FBE
:101D2000F89BFF1FB09DFF1F168AFF1F5C89FF1FD6
:101D30007C9CFF1F409CFF1F789EFF1F409EFF1F43
:101D4000079CFF1F469EFF1FBC9CFF1FCC9DFF1FD3
:101D5000AB9DFF1FA50500005C9EFF1F809CFF1F21
:101D6000389CFF1F048AFF1FD09DFF1F349EFF1F5A
:101D70000E9EFF1F389EFF1F2DE9F04FAC4C2678BA
:101D8000012E95B000F04582C0F0FB81022E00F0DC
:101D9000CB80A849A84A91F800801178A74ADFF8BB
:101DA0002CE3A74DA74FA848A84B0292A84A00923F
:101DB000A84A9EF800B001922D78A74A3F7890F883
:101DC00000E01B78DFF80CA3DFF80CC3DFF80C93FE
:101DD0000392012E84BF00222270A04AA0481370F3
:101DE000A04A80F800B015709F48A04A077082F89A
:101DF00000809F489F4A03709CBF01362670117077
:101E0000BEF1000F40F009819B4A10880D2800F0B8
:101E1000A9819A4C00202070024604462DB19648B4
:101E20000088002840F0AA81054695480688254488
:101E3000002E40F057819348934C019E00783678ED
:101E400024780130A0EB4600002C40F04682039C31
:101E500094F800E0CEEB0004BEF1000F40F0668283
:101E60000026DFF864E202989EF800E00078A41BE8
:101E7000A4EB4E043C44CBEB040410B1B7FA87F05A
:101E800040099CF800602718BC1B1EB11EF100061B
:101E900018BF0126009F99F8000097F800909AF863
:101EA00000C07A4FC6EB040EC0EB0E00A0EB490059
:101EB0008044C3EB0803A3EB41010C2313FB0C117B
:101EC0003960734B734C744E1B8874482488376890
:101ED0000088734E033B03EB4303C4EBC40401EBE4
:101EE00083033C4403440C3B56F824001D44054442
:101EF0000AB16C4B19606C4B1A68954200F02E8148
:101F00006A4A6B4811680791079901601268089244
:101F10006848089A00881D60521A824284BF664A47
:101F2000156015B0BDE8F08FDFF8B481634E08AFDF
:101F30000025E9B2624808F0B7FD58F8043BC3F544
:101F4000967300FB03F086FB00230135C017C0EB3E
:101F500063100C2D47F8040BEBD15A4B3D4D019506
:101F60003D4DB3F800C00395109D09980F99464E5A
:101F7000DFF8D4A0DFF8C890DFF8D080654511AA5B
:101F80008CCAAE46ACBF4FF0000E4FF0010E844538
:101F9000D4BF0020012030708C452E480B9D254E6B
:101FA0008AF800E0D4BF00210121017094452A493C
:101FB000DFF820A1D4BF002201220A709C45424ACA
:101FC000D4BF00230123BC45AB46D4BF0027012763
:101FD0001370AC451B4B0C9D1F70D4BF4FF0000B12
:101FE0004FF0010B394B154A0292AC45DFF848C05F
:101FF000174A83F800B0D4BF0025012589F80050A6
:1020000098F800309CF8001096F80080DFF8C8C0FF
:102010002678DFF8C8900092DBE62D4A174814882E
:102020000122182C027040F260810024F6E600BF05
:10203000AA9DFF1F009EFF1F029EFF1F909CFF1F77
:10204000909EFF1F689CFF1F959EFF1F019EFF1F14
:10205000499EFF1F559EFF1F569EFF1F8F9EFF1F0D
:10206000C39DFF1F919EFF1F929EFF1F939EFF1F08
:10207000949EFF1F4A9EFF1F969EFF1F069CFF1FF8
:10208000F09BFF1F188AFF1F809EFF1F089EFF1FE7
:10209000209EFF1F3C9EFF1FB89CFF1F009CFF1F40
:1020A000341B01007C9EFF1F609CFF1F7C9FFF1F55
:1020B000509CFF1F509EFF1F849EFF1FB5814E1B2B
:1020C000A89CFF1F649EFF1F579EFF1F699CFF1F58
:1020D000469EFF1FB59DFF1F8E9EFF1F489EFF1F40
:1020E0002C89FF1F012E00F08F81022E00F0EE815F
:1020F000032EA74B00F01F811E78009B9CF800E088
:102100001C78019B99F800C01878029B93F8008016
:10211000039B1F78A6EB4E03A4EB8404CCEB030CCB
:10212000C0EB80760CEB0403C0EB8600034403EBAA
:10213000480303EB810327B196490978002940F051
:10214000608201269AF800109348C1F1060101EB64
:102150004101334403EB81010160B2E68F49904AAB
:102160000968D3E6002D3FF454AE8E4A8E4E148893
:102170000122182C327040F2B8807446A0F10D058F
:1021800053E6DFF87092894F0DF120080025E9B27F
:10219000874808F089FC59F8043BC3F5967300FBA7
:1021A00003F087FB00230135C017C0EB6310062D39
:1021B00048F8040BEBD17F4BDFF83CA219880D9B4C
:1021C00000228B428AF8002080F2A2807A4B8AF8A3
:1021D00000507A497A4A7B4891F8008011787A4A0F
:1021E0001D7002920378794ADFF810C2DFF810926E
:1021F0000092774A774E784D784892F800E0784A16
:102200000192784A96F800B02D78077826780392E4
:10221000DFE5DFF8F081654E08AF0025E9B27248CE
:1022200008F042FC58F8043BC3F5967300FB03F03A
:1022300086FB00230135C017C0EB63100C2D47F857
:10224000040BEBD15B4B0C9D1F885F4B02935F4BE4
:1022500000930B9B0A98099ADFF8A0C1089EDFF84B
:10226000A0910F99BB429E46ACBF4FF0000E4FF0BD
:10227000010EAF42D4BF002501258742109B8CF888
:102280000050D4BF00200120504D89F80000974233
:10229000D4BF00220122B742D4BF4FF000084FF054
:1022A00001082A709F42474A4448474E80F8008000
:1022B000D4BF002301231370129A414886F800E02E
:1022C0008F42D4BF00210121974201701ADC002205
:1022D0004648DFF824A102708BE7039C46B12678BC
:1022E000002E40F06081441EBBE50C3C012295E5C8
:1022F00094F800E00138CEEB0004BEF1000F7FF44B
:10230000B0ADADE5119A9742D4BF00220122DFE7BC
:102310000C9A374B9142CCBF012200221A7040F335
:10232000458105258AF80050234B52E7002E3FF4E3
:1023300097AD012695E51C78009B029893F80080E4
:10234000019B9CF800601B7890F800C099F8007021
:102350000398A4EB4604E71B90F800E0C3EB8374FA
:10236000A8EB88003844C3EB8403034403EB4C031D
:1023700003EB8103BEF1000F40F0488101269AF87B
:102380000010054833440C2414FB0131016098E52A
:10239000188AFF1F579EFF1F089EFF1F509CFF1F9C
:1023A0007C9FFF1F469EFF1F069CFF1FB5814E1B93
:1023B000189CFF1F649EFF1FC29DFF1F009EFF1FF2
:1023C000029EFF1F019EFF1F909CFF1F499EFF1F43
:1023D000959EFF1F699CFF1F909EFF1F689CFF1F1B
:1023E000559EFF1F569EFF1F4C9CFF1F329CFF1FD8
:1023F000699EFF1F4C8AFF1FB59DFF1F8E9EFF1F0A
:10240000489EFF1F1C8AFF1FA34CDFF89CE2207828
:1024100005909EF8004001980494059C0078019076
:102420000134A4EB40040498002840F0AF800398E6
:1024300090F800E00498261ACEEB06000390BEF157
:10244000000F40F09E8074460298944E00780290EF
:10245000039836780496041BA4EB460402983C4487
:10246000CBEB0404002800F08780B7FA87F040091E
:102470009CF800602044871B1EB10498061C18BFFE
:102480000126009C99F800002478BE1B301AA0EBAE
:10249000440080440198C3EB0803A3EB41030028E8
:1024A00067D1BEF1000F40F0BB807344002C5ED1B9
:1024B00000290CBF00206FF009009AF80010784C3A
:1024C00003440C2010FB01312160FAE4039E019CBF
:1024D00036780396009E2478019434786F4E7148C4
:1024E00099F800E0009496F800906F4C9DF80C600D
:1024F00086709DF80460067080F806E09DF8006024
:1025000080F803909CF800C02478DFF8B491DDF8DF
:1025100004E080F80880077180F805C0C671417238
:1025200044704FF000080120009500215D4C0D46DD
:102530005FFA88FC4F46764607E0022809D00A2950
:102540000BD014F8016F17F8010F864201F1010159
:10255000F3D101350A29EDB2F3D1092D72D808F172
:102560000108B8F1100F36D019F80A0FDDE7002086
:10257000A3E74FF0000E98E7029879E7CEEB04004E
:1025800003900198041C18BF01245DE701980028FE
:102590004ED0039890F800E0BEF1000FEED1601E1F
:1025A0000390744650E7841B01265AE40B9A3F4B74
:1025B0009142CCBF012200221A703EDC0A9A3C4BA9
:1025C0009142CCBF012200221A7052DD03258AF805
:1025D0000050384BFDE5304837490478C86B029904
:1025E000009D097801342044CBEB00000844002111
:1025F0009AF800402A4B401A0C2111FB0401196083
:102600005FE41BF1000618BF01269BE5234909780A
:1026100000293FF4B3AE1BF1000618BF0126AEE659
:10262000049800280CBF4FF0000E4FF0090E3CE755
:10263000039890F800E03046FDE604258AF8005043
:102640001C4BC6E514481C49047851F8280002992F
:10265000009D097801342044CBEB00006646084415
:10266000002BC4D0002EC2D1BBF1000FBFD001217E
:10267000BEE7099A114B9142CCBF012200221A7089
:1026800004DD02258AF800500A4BA2E5089B994216
:1026900018DD01259AE500BF188AFF1F579EFF1F0E
:1026A000089EFF1F849CFF1F809EFF1F689EFF1FC8
:1026B000679EFF1FC29DFF1FC489FF1F669EFF1FED
:1026C000E0190100134B1D78012D21D9124A8AF817
:1026D00000501288002A3FF47CAD104A1288013A5B
:1026E00092B2062A3FF675AD0D4A1278002A3FF4E1
:1026F00070AD0C4A1268012A7FF46BAD0A4A0B4E8A
:1027000010680C2290FBF2F102FB1102328060E5AE
:1027100035465EE5C29DFF1F8C9EFF1FCE9DFF1FAD
:10272000B29CFF1F409EFF1F849EFF1F0C9EFF1F39
:102730002DE9F04F3A4B1B788BB0002B6AD10E205D
:102740000AF074F90DF072FC01463648364E374DEA
:10275000FDF7F0FE3348FDF7C3FE0DF081FE80F378
:102760000C003060FFF708FB2C68012C7AD0022C9B
:1027700000F09F82032C00F0AD832D4E33682D4A6C
:102780002D4E0993099B316812882C4C591A013A35
:102790009142236000F28882294E32689A1A0D2AEB
:1027A00000F27B82274E32689A1A132A00F2708256
:1027B000254E32689A1A252A1AD9244B1B88002BD9
:1027C00040F05F81224B1B78002B40F05A81FEF7CE
:1027D00049FC204B1B881B3B9BB2022B04D81E4B91
:1027E0001B78002B40F0508103F08EFD236833608E
:1027F0001A4D2A689B1A502B00F20682184B1B8830
:10280000012B00F01E8206F029FB06F057F90BB0F1
:10281000BDE8F08F07F072FB0BB0BDE8F08F00BF92
:102820001C9CFF1FE09DFF1F189EFF1F409EFF1F67
:102830007C9FFF1FC089FF1FAC9CFF1FD89DFF1FFF
:10284000989CFF1F709CFF1F749CFF1FBE9DFF1F65
:10285000149CFF1F469EFF1F069CFF1FB89DFF1F75
:102860001C9EFF1FDFF810939E4AB9F800001378F2
:10287000834204D0C3B21846137006F02BFADFF877
:10288000F482994AB8F800301178994204D0974FF1
:102890003978002940F0F186954A33681288954EC0
:1028A0009A42C0F2F680944A1278002A40F0F180F1
:1028B000DFF8C8A2BAF8003023B9904B1B88002B70
:1028C00000F0EF848E4A8F4B11881B888E4A0B4490
:1028D00012685B1093428D4A126880F29184002145
:1028E0009342B4BF01230B4604910093ACBF4FF059
:1028F000010B8B4605910E200AF098F8844B854A0F
:102900001B68176803930133A7F25232002B8446E9
:10291000029240F3C386802BA8BF80237E4A7F4962
:1029200012780191002A00F0BE800978914200F0EF
:10293000BA80B8F80010DFF83CE2994201F09B80C1
:102940006A49AEF80030764B4FF0010E81F800E096
:102950001978DFF82CE2019B8EF800101A70009BAA
:10296000002B00F00F81BAF80030002B00F00A8134
:102970006C4B1B685A1C002A40F39486802A00F393
:102980009086694C69496A4824880988006821440E
:10299000B0EB610FC1F2E282A3F148020F2A02D824
:1029A000473BA9F800300E200AF040F86FF454734A
:1029B0001F44874202DC5F4B00221A705E4B1B886B
:1029C000002B00F015845D4B5D4A1B78117899420D
:1029D00040D0002B3ED05B490C78002C00F01487CF
:1029E000594991F800C0BCF1000F40F00B87574FD8
:1029F0000097574F57480297544F007887F800C008
:102A0000534F4FF0010E87F800C081F800E0002816
:102A100041F0B18050490978002900F0D5874F492D
:102A200003910C460978002940F0CB874C48484F69
:102A30000078397001210297217058B1434842490A
:102A40000090002008700099029F087003990124EB
:102A50003C7008701370434B1B88A3F11B02012AC2
:102A600040F2E6851D2B7FF489AE3D4F3B78002B6D
:102A700041F048803C4C2378002B40F08684237042
:102A80007CE6FEF791FAA2E62B68012B7FF4ACAE50
:102A9000ACE63168354A0691069835491060022245
:102AA0000B602A6004E71E49DFF8D4E009780029AA
:102AB0003FF451AF9EF8000081423FF44CAF0398C1
:102AC0004B2840F39F871833802BB8F80000A8BF2D
:102AD000802398423FF43FAF2648038003480123F8
:102AE000037038E7AB9DFF1F789CFF1F079CFF1FFB
:102AF000B09CFF1F7C9FFF1F149CFF1F9E9CFF1F0D
:102B00002C9CFF1F149EFF1F489CFF1F889EFF1FC9
:102B10007C9EFF1FF89BFF1F729EFF1F5C9CFF1F88
:102B2000739EFF1F089EFF1FC49DFF1FC09DFF1FB8
:102B30003C9CFF1FB49DFF1FCE9DFF1F329CFF1FBB
:102B4000E49BFF1F929EFF1F109EFF1F549EFF1FBE
:102B5000B29CFF1F939EFF1F8F9EFF1FE59BFF1FD1
:102B6000069CFF1F469EFF1F029CFF1F6C9CFF1FC1
:102B7000D49DFF1FDC9DFF1FCC9DFF1F649CFF1F8A
:102B80005D9CFF1F029B9C45BFF60DAF864B1B88CB
:102B9000002B3FF408AFBBF1000F7FF4E9AE834B8D
:102BA0001B881BB1059B002B7FF4E2AE049B002B1E
:102BB0003FF4F9AE7E4B1A78002A7FF4F4AEDFF8CA
:102BC000649299F8004001221A70002C40F036837C
:102BD000784B1B78002B02F03780774B1B78002B4B
:102BE00002F00283754B1B78002B7FF4DCAE744B34
:102BF0001B78002B3FF4D7AEB8F8003071490A3B80
:102C0000A8F800300A70CEE604F084FE6E4B1B7804
:102C100073B96E4B1B785BB96D4B1B7843B96D4B29
:102C20001B782BB96C4B1B7813B903F043FB01E005
:102C300003F04CFB23682B60684B1B88012B7FF44F
:102C4000E2AD674A674B116867481A78A1F118032B
:102C50002A2101FB03F10160002A00F0B382634CDA
:102C60002368994200F35C8310DA61480278002AF5
:102C700040F03E875F4A1068D0F17F0048BF0330C4
:102C8000801001301B1A994242F3428621609BE278
:102C9000FEF70CFD236833608AE5FDF7BDFDFEF706
:102CA0000DFA236833607DE5FDF72EFD2368336060
:102CB00072E5514A34681188A14204DB464B1B7807
:102CC000002B00F05D834D4E4D48336807934D4B0C
:102CD000079A00681B88121A9A4200F2A980002BFA
:102CE00000F0A680484B1A88002A3FF447AD474BB6
:102CF00047481B680088A342B8BF2346994241F366
:102D00002681444B1960DFF8208188F80020344F79
:102D1000FDF7FAFC38687F2840F370853E4B7F381A
:102D200083FB0032C317C3EB620303EB4303A0EB47
:102D300083007330394B01931B883860002B40F0BF
:102D40008C86234B00931B78002B00F0CD83344CF2
:102D50002378002B00F0C883DFF8D090DFF8B8A00C
:102D60004FF0000B0CE003F17300C0B298F80010B4
:102D700006F008F823780BF1010B5B4540F3B483B0
:102D80003B6859F8040F1844A0F17F038AFB032124
:102D9000DA17C2EB610202EB42027F28A3EB820347
:102DA000E1DCFDF76FFCE0E79E9CFF1FD29DFF1F5B
:102DB000B49DFF1F8F9EFF1FC39DFF1F919EFF1F8E
:102DC000929EFF1F079CFF1FB29CFF1F109EFF1FBC
:102DD000549EFF1FE59BFF1F149CFF1F1C9EFF1F9F
:102DE000849EFF1F6A9CFF1F6C9EFF1F0C9CFF1F91
:102DF000589EFF1FEC9BFF1FB09CFF1F7C9FFF1F77
:102E00006C9CFF1F9C9CFF1F049CFF1FD49DFF1FF9
:102E10006A9EFF1FE89BFF1FABAAAA2A449CFF1FC4
:102E20008489FF1FB59DFF1F919CFF1F5C89FF1FB9
:102E3000554B564A1B681088554AA342B8BF2346D3
:102E4000994200F38482534C12888342A8BF034600
:102E50002360002A7FF457AF9942C8BF134640F35E
:102E60007D82401AB0F5804FAABF9B03C3EB83332A
:102E7000013093FBF0F0FDF72DFCC0F3C6100DF010
:102E8000D5F8454B044618880DF0D0F8434907465D
:102E900020460DF01FF9014638460DF01BF921467A
:102EA0000DF010F84FF07E5104460DF0B1FA0028F5
:102EB00041F031803A4920460DF0C8FA002840F030
:102EC000548620460DF0F2FAC0B2DFF8F48088F89C
:102ED00000001CE7334B34681988A14274DD324B83
:102EE0001B78002B70D1DFF8DC9099F800007F2868
:102EF00040F3FA85A3F155337F3803F1004383FB98
:102F00000032C317C3EB620303EB4303A0EB830060
:102F10007330264B01931B88C0B289F80000002B48
:102F200040F0EB87224B00931B78002B00F0998434
:102F3000204C2378002B00F094841F4FDFF87C8016
:102F40004FF0000A0AE003F17300C0B205F042FF3F
:102F500023780AF1010A534540F3838457F8043F6C
:102F600099F800001844A0F17F0388FB0321DA17C9
:102F7000C2EB610202EB42027F28A3EB8203E2DC98
:102F8000FDF780FBE1E700BFD49DFF1F6A9EFF1F96
:102F9000049CFF1FE89BFF1F749EFF1FCDCCCC3D00
:102FA0000000FE42B09CFF1F149CFF1F449CFF1FAB
:102FB000549EFF1F8489FF1F5C89FF1FABAAAA2AAA
:102FC000919CFF1F069EFF1FB84F38687F2840F373
:102FD000CC81B74B7F3883FB0032C317C3EB62034E
:102FE00003EB4303A0EB83007330DFF8249399F8DD
:102FF00000A0824500F01F82AE4B1B88002B43D1FE
:10300000AD4AAE4812680088914205DC8242D4BFC6
:10301000C1EB0203C1EB0003411AB1F5804FA6BF1B
:103020009B030131C3EB833393FBF1F0FDF752FBBC
:10303000C0F3C6100CF0FAFFA14B044618880CF040
:10304000F5FFA049804620460DF044F80146404671
:103050000DF040F821460CF035FF4FF07E5104464C
:103060000DF0D6F9002840F0C286974920460DF0B1
:10307000EDF9002840F0768520460DF017FAC0B231
:10308000DFF8908288F80000BAF17F0F40F3B28336
:103090008748AAF17F0A80FB0A304FEAEA73C3EB44
:1030A000600000EB4000AAEB80007330874B009378
:1030B0001B78C0B289F80000002B40F01283844BCB
:1030C00003931B78002B40F0F584824B02931B780E
:1030D000002B40F03487804B0193029B1B78FBB19F
:1030E0007E4B1B88012B00F00086022B00F05987D5
:1030F000032B01F0EB80042B01F0EB82052B01F098
:103100000784062B01F06085072B01F0D185082B81
:1031100002F02A80092B02F02F810A2B02F0828212
:10312000009B1B78002B00F05F84019B6A4C198880
:10313000002900F0B58438687F2840F3CF825C4BCB
:103140007F3883FB0032C317C3EB620303EB4303F7
:10315000A0EB830073303860002940F06484009B4A
:103160001B78002B00F072815D4C2378002B00F05F
:103170006D81DFF8A4A1DFF89C814FF0000B0CE01B
:1031800003F17300C0B298F8001005F0FBFD23783E
:103190000BF1010B5B4540F359813B685AF8040F72
:1031A000434A1844A0F17F0382FB0321DA17C2EBE4
:1031B000610202EB42027F28A3EB8203E0DCFDF711
:1031C00061FADFE7474B1960474B1B68A92202FBF6
:1031D00003F3002BBCBF03F57F533F339B13543BDA
:1031E000194481F30C01282009F0A6FFFFF70BBB5F
:1031F000384C3E483549364A237003700B7029E439
:1032000093424FF0000B80F2B3800123CDF800B061
:10321000CDF814B00493FFF76EBB354B1B78002B31
:103220007FF4C1AB039B334A243B83F34703D9B2FA
:103230005B20136005F07EFD99F80040032C30D12F
:10324000DFF8D88098F80030002B42F022812A4F16
:103250003B78002B42F01081254C2378002B42F064
:10326000FE80264B1B78002B42F0EC80244A138012
:10327000244B1B78002B42F018810E4B7F221A80C2
:1032800098F800306BB93B785BB923784BB91E4A8C
:103290007F210720138005F04DFD7F210B2005F0D5
:1032A00049FD1A4B1F68FFF77EBB00BF849EFF1FBE
:1032B000ABAAAA2A049CFF1FE89BFF1F6A9EFF1F60
:1032C000749EFF1FCDCCCC3D0000FE42549EFF1FDC
:1032D000E59BFF1FB29CFF1F449CFF1FCE9DFF1F5D
:1032E0008489FF1F0C9CFF1FBC89FF1F109EFF1FBE
:1032F000929EFF1F289CFF1F919EFF1FC39DFF1FD3
:10330000A29CFF1F939EFF1F049EFF1FF89BFF1FA1
:10331000069EFF1F919CFF1F5C89FF1F8F9EFF1F52
:10332000B04A1078002840F04383AF4A1268D2F1C7
:103330007F0248BF033203EBA202531CAB4A236057
:103340009942B8BF1160FFF63FAF19463CE7A84B62
:1033500012881960002A7FF4D6AC0B469842D4BF7D
:10336000C1EB0003C1EB03037BE5FDF78BF93CE602
:103370000123CDF810B0CDF800B00593FFF7BBBA2C
:1033800001232B609B4EFFF7F9B99B4B6A201988EC
:1033900005F054FE3B782370FFF7F0B9029B1B78D1
:1033A000FBB1964B1B88012B00F01884022B00F018
:1033B0007686032B01F00080042B01F0AF81052BF2
:1033C00001F02A82062B01F01484072B01F0C0853E
:1033D000082B01F07D86092B01F0EF870A2B02F004
:1033E000B281019B1B88002B00F02683009B1B7879
:1033F0003BB9039B1B7823B9029B1B78002B00F081
:1034000054877F4B1B78002B00F035817D490B786A
:10341000082B00F230817C483A6800687B4C01330D
:10342000DBB25F1E101A44F827000B70784B34682B
:10343000198889F800208C426E4E7FF79FA9326868
:10344000744B0892089A1A60FFF798B9039B1B788F
:10345000002BA3D03B68A3F10C007F2840F3278307
:103460006D488B3B80FB0320DA17C2EB600000EB5A
:103470004000A3EB800303F17300DFF8AC81C0B21E
:1034800098F8001005F07EFC009B1B78002B85D07F
:103490005C4C2378002B81D0DFF890A14FF0000B1B
:1034A0000CE003F17300C0B298F8001005F06AFC5C
:1034B00023780BF1010B5B457FF770AF3B685AF83F
:1034C000040F554A1844A0F18B0382FB0321DA173D
:1034D000C2EB61020C3802EB42027F28A3EB8203AD
:1034E000DFDCFDF7CFF8DEE7454B1B78002B40F023
:1034F000A9823B68494A1278002A45D0A3F10C0002
:103500007F2840F3EE82444A8B3B82FB0321DA178B
:10351000C2EB610202EB4202A3EB820303F17300F0
:10352000C0B298F8001005F02DFC009B1B7853B337
:10353000344C23783BB3DFF8F490DFF8DCA04FF095
:10354000000B0BE003F17300C0B298F8001005F017
:1035500019FC23780BF1010B5B4514DD3B6859F82E
:10356000040F1844A0F18B038AFB0321DA17C2EB86
:1035700061020C3802EB42027F28A3EB8203E1DCFC
:10358000FDF780F8E0E73B68254A1278FAB11B4A5C
:103590001288012A00F02E84022A00F00186032AF4
:1035A00000F08387042A01F0E080052A01F01882E8
:1035B000062A01F02A83072A01F01984082A01F05B
:1035C0005786092A01F09B860A2A02F08880019A10
:1035D0001288002A00F04882124903220B702A60E8
:1035E000FFF7CCB8589EFF1FEC9BFF1F0C9CFF1FE2
:1035F000E89BFF1F7C9FFF1F389CFF1FCE9DFF1F76
:10360000109EFF1F8489FF1F089CFF1F6089FF1FFA
:10361000B09CFF1F249FFF1FABAAAA2AE59BFF1F98
:10362000B29CFF1F069EFF1F919CFF1F5C89FF1F1E
:10363000B04F3B78002B3FF41DAAAF4C207802F02E
:10364000CDFEAE4B1B78002B00F0748223887E2BBE
:1036500000F27082AA4A0133108899B221800028B2
:1036600000F07882C9B2C0B2A64C05F063FB3B788B
:103670002370FFF783B83A68D8E6DBB218461370B8
:1036800005F036FBA04BA1491A46A14B1846002372
:103690000B703B7013700370FFF7FEB80123FFF748
:1036A0003DB980249B499C4B9C4A09881B88126821
:1036B0000B44B2EB630FBFF676A98E4B1B78002B41
:1036C00040F0DF81B8F80030954AA3423FF46BA97F
:1036D000944B148001221A70FFF765B9FCF7D2FFF2
:1036E00039E5914B01931B88002B42F00B81884BED
:1036F00003938E4B02938E4C23786BB3DFF840829A
:10370000DFF830A24FF0000B09E003F17300C0B204
:1037100005F060FB23780BF1010B5B451CDD58F8CD
:10372000043F99F800001844A0F17F038AFB0321AD
:10373000DA17C2EB610202EB42027F28A3EB82039D
:10374000E3DCFCF79FFFE2E7784B029305F042FBD6
:10375000009B1B78002BCED1039B1B78002B3FF4E2
:10376000BCAC99F80030A3F10C007F2840F3B6817F
:1037700070488B3B80FB0320DA17C2EB600000EB44
:103780004000A3EB800303F17300C0B205F022FBFD
:10379000009B1B78002B00F09681654C2378002B52
:1037A00001F04B82DFF89881DFF888A14FF0000B21
:1037B0000AE003F17300C0B205F00CFB23780BF1B3
:1037C000010B5B457FF789AC58F8043F99F800007E
:1037D0001844A0F18B038AFB0321DA17C2EB6102C4
:1037E0000C3802EB42027F28A3EB8203E1DCFCF7FA
:1037F00049FFE0E75046FCF745FF57E4FCF742FF7E
:10380000FFF798BA002008704B49087840B13E494C
:1038100000910978002900F0AB81009F00213970E8
:103820004649097800297FF4FAA8002C40F0CC80A2
:10383000002840F0C9802F4C334F94F800E0344CFE
:1038400003943A4C0294324C30492070374C009724
:10385000087038702070BEF1000F7FF4F2A8FFF7F7
:10386000F9B82B4B1B78002B6CD099F80030A3F1E2
:103870000C007F2840F37B832E4A8B3B82FB032185
:10388000DA17C2EB610202EB4202A3EB820303F1FF
:103890007300C0B205F09EFA009B1B78002B51D03C
:1038A000234C2378002B4DD0254FDFF888804FF034
:1038B000000A09E003F17300C0B205F08BFA237827
:1038C0000AF1010A53453DDD57F8043F99F800001D
:1038D0001844A0F18B0388FB0321DA17C2EB6102C5
:1038E0000C3802EB42027F28A3EB8203E2DCFCF7F8
:1038F000C9FEE1E7069CFF1F389CFF1F949EFF1F37
:10390000809CFF1F029CFF1F549EFF1F109EFF1FE5
:10391000E59BFF1FC49DFF1FC09DFF1F3C9CFF1F19
:10392000DC9DFF1F079CFF1F449CFF1FB29CFF1FD5
:103930008489FF1FABAAAA2A939EFF1F8F9EFF1F99
:103940005C89FF1F924B1B78FBB1924B1B88012BAC
:1039500000F03886022B00F03287032B01F0AB8099
:10396000042B01F05D81052B01F09783062B01F0FC
:103970003084072B01F0BC85082B01F07B86092BD6
:1039800001F088870A2B01F06587019B1B88002BBB
:1039900000F0BC82804B1B78002B40F0B2827F4B42
:1039A0007F4A198834680020012310602B6042E5AB
:1039B0000130C0B2022886BF002111701070194674
:1039C00002E40398002101707649097800293FF448
:1039D00041A86F4902910978002900F016870298E2
:1039E00000210170FFF736B8039B1B78002B7FF492
:1039F0009CAB029B1B78002B7FF497AB019B198833
:103A0000FFF799BB243B002BB8F8000040F3478434
:103A100098423EF4A0AF9BB26348A8F8003001235F
:103A20000370FEF798BFDFF88481C0B298F80010E9
:103A300005F0A8F9FFF793BB5C4B3878197805F0CF
:103A4000A1F9D3E47F21402005F074F95849594A7F
:103A50003B680B60002111704CE5C0B298F8001073
:103A600005F090F9FFF76DB9D8B298F8001005F09D
:103A700089F93B68B0E5504BDFF85CE11978FEF757
:103A80006ABF4B2C40F34A821834802CB8F80030BF
:103A90004A4AA8BF8024A3427FF41AAEFEF783BF30
:103AA00099F8000005F096F92188FFF744BBFCF770
:103AB000E9FDE2E4424B01931B88002B7FF444AE06
:103AC000334B02934DE6029B1B78002B7FF408AB2F
:103AD000039B1B78002B7FF428AB8FE7FCF7D2FD0C
:103AE00053E6FCF7CFFD1BE5FCF7CCFDFFF711BA61
:103AF0000132D2B2022A40F23D82002202701946FF
:103B0000FFF762BB2F4C207802F068FC2E4B1B782D
:103B10001BB123887E2B41F23B802C4B1B7823B1B9
:103B20002388284A002B41F05880294C3B78237089
:103B3000FEF724BE254B1B78002BF6D02388214AA4
:103B4000002BF2D02349013B088899B2118000284C
:103B50007FF488ADC8B21E4C05F060F93B78237045
:103B6000FEF70CBE7F20FFF78BBA7F20FFF7ADB9C1
:103B7000074F094902974FF0000C81F800C0009FE1
:103B800002994FF0010E87F800E081F800C047E687
:103B9000B29CFF1FCE9DFF1F109EFF1FB09CFF1FFA
:103BA000E89BFF1F069CFF1F079CFF1F919CFF1FA8
:103BB000089CFF1F8489FF1F739EFF1FDC9DFF1F52
:103BC000449CFF1F389CFF1F949EFF1F939EFF1F66
:103BD000029CFF1F809CFF1F5D9CFF1FDFF8B0A3AE
:103BE0003868BAF80030E54AE54CC31A82FB031E78
:103BF000D917C1EB6E0101EB4101A3EB810303EB8C
:103C0000430354F8233018447F2840F3C9847F3895
:103C100082FB0032C317C3EB620303EB4303A0EB49
:103C200083007330DFF86C83DFF86CB398F8001012
:103C3000C0B205F0A7F8BBF80030022B7FF6D1AB7D
:103C40003968BAF80030CD4ACB1A82FB030ED81778
:103C5000C0EB6E0000EB4000A3EB800303EB4303DB
:103C600004EB8303586808447F2840F320877F389B
:103C700082FB0032C317C3EB620202EB4202A0EBED
:103C800082007330C0B298F8001005F07BF8BBF8E2
:103C90000030032B7FF6A5AB3968BAF80030B74A7D
:103CA000CB1A82FB030ED817C0EB6E0000EB40006E
:103CB000A3EB800303EB430304EB8304A0680844F5
:103CC0007F2840F36B817F3882FB0032C317C3EB40
:103CD000620202EB4202A0EB8200733098F80010FF
:103CE000C0B205F04FF8FFF77CBBDFF8A4A299F84B
:103CF0000000BAF80030A14AA14CC31A82FB031E8F
:103D0000D917C1EB6E0101EB4101A3EB810303EB7A
:103D1000430354F8233018447F2840F33D847F3810
:103D200082FB0032C317C3EB620303EB4303A0EB38
:103D300083007330DFF860B2C0B205F04BF8BBF817
:103D40000030022B7FF6ECA999F80010BAF8003089
:103D50008A4ACB1A82FB030ED817C0EB6E0000EB29
:103D60004000A3EB800303EB430304EB8303586899
:103D700008447F2840F397867F3882FB0032C317C0
:103D8000C3EB620202EB4202A0EB82007330C0B2CE
:103D900005F020F8BBF80030032B7FF6C1A999F895
:103DA0000010BAF80030754ACB1A82FB030ED81700
:103DB000C0EB6E0000EB4000A3EB800303EB43037A
:103DC00004EB8304A06808447F2840F3CA807F384E
:103DD00082FB0032C317C3EB620202EB4202A0EB8C
:103DE00082007330C0B204F0F5FFFFF799B90120EB
:103DF000FFF746B9DFF898A16049BAF80020604C97
:103E00009A1A81FB020ED017C0EB6E0000EB400047
:103E1000A2EB800202EB420254F8220018447F28F1
:103E200040F3C283A0F17F0381FB0321DA17C2EBC9
:103E3000610000EB4000A3EB80007330DFF858B165
:103E400098F80010C0B204F09DFFBBF80030022BC0
:103E500050D93968BAF80030484ACB1A82FB030EB1
:103E6000D817C0EB6E0000EB4000A3EB800303EB20
:103E7000430304EB8303586808447F2840F37E869D
:103E80007F3882FB0032C317C3EB620202EB4202AF
:103E9000A0EB82007330C0B298F8001004F072FFFB
:103EA000BBF80030032B25D93868BAF80030334A04
:103EB000C31A82FB031ED917C1EB6E0101EB41014E
:103EC000A3EB810303EB430304EB8304A3681844CF
:103ED0007F2849DD7F3882FB0032C317C3EB6202C3
:103EE00002EB4202A0EB82007330C0B298F80010DF
:103EF00004F048FF3B68FFF76ABB04F06BFFFFF775
:103F000011B80021402004F015FF48E599F80000A1
:103F100004F060FF3EE50120FEF7D7BF243C002CF3
:103F2000B8F8003040F35685A3423EF43CADA4B24D
:103F3000144BA8F8004001221A70FEF734BD124B52
:103F400001931B88002B7FF401ACFFF7C6B80F4923
:103F50008342A8BF03460B60FEF7D5BE1446FFF7A9
:103F6000ACBBFCF78FFB3DE7FCF78CFBBDE7FCF738
:103F700089FB8EE402701946FFF726B9ABAAAA2A7C
:103F8000E4180100079CFF1F449CFF1FE89BFF1FD4
:103F90000C9EFF1F919CFF1F1A9CFF1FFCF772FBDA
:103FA0009CE6DFF81CA399F80000BAF80030C24A7A
:103FB000C24CC31A82FB031ED917C1EB6E0101EB81
:103FC0004101A3EB810303EB430354F8233018446E
:103FD0007F2840F3C7837F3882FB0032C317C3EBCF
:103FE000620303EB4303A0EB83007330DFF8D4B22A
:103FF000C0B204F0EFFEBBF80030022B7FF690A8B1
:1040000099F80010BAF80030AB4ACB1A82FB030EC5
:10401000D817C0EB6E0000EB4000A3EB800303EB6E
:10402000430304EB8303586808447F2840F3018668
:104030007F3882FB0032C317C3EB620303EB4303F9
:10404000A0EB83007330C0B204F0C4FEBBF80030B4
:10405000032B7FF665A899F80010BAF80030964A4D
:10406000CB1A82FB030ED817C0EB6E0000EB4000AA
:10407000A3EB800303EB430304EB8304A068084431
:104080007F287FF76EAF7F3882FB0032C317C3EB08
:10409000620303EB4303A0EB83007330A2E6DFF877
:1040A00020A23868BAF80030834A844CC31A82FBD5
:1040B000031ED917C1EB6E0101EB4101A3EB810394
:1040C00003EB430354F8233018447F2840F37183F3
:1040D0007F3882FB0032C317C3EB620303EB430359
:1040E000A0EB83007330DFF8E081DFF8D8B198F8F7
:1040F0000010C0B204F046FEBBF80030022B7FF681
:1041000070A93968BAF800306B4ACB1A82FB030EEB
:10411000D817C0EB6E0000EB4000A3EB800303EB6D
:10412000430304EB8303586808447F2840F37485F5
:104130007F3882FB0032C317C3EB620303EB4303F8
:10414000A0EB83007330C0B298F8001004F01AFEA0
:10415000BBF80030032B7FF644A93868BAF800306A
:10416000554AC31A82FB031ED917C1EB6E0101EB3E
:104170004101A3EB810303EB430304EB8304A36836
:1041800018447F287FF70AAF7F3882FB0032C317BD
:10419000C3EB620303EB4303A0EB830073309DE5A5
:1041A000DFF81CA14449BAF80020444C9A1A81FB5C
:1041B000020ED017C0EB6E0000EB4000A2EB8002B5
:1041C00002EB420254F8220018447F2840F3F482A4
:1041D000A0F17F0381FB0321DA17C2EB610000EB42
:1041E0004000A3EB80007330DFF8D8B098F80010DF
:1041F000C0B204F0C7FDBBF80030022B7FF67AAEE8
:104200003968BAF800302C4ACB1A82FB030ED81753
:10421000C0EB6E0000EB4000A3EB800303EB430315
:1042200004EB8303586808447F2840F3EA847F380E
:1042300082FB0032C317C3EB620303EB4303A0EB23
:1042400083007330C0B298F8001004F09BFDBBF8F7
:104250000030032B7FF64EAE3868BAF80030164AAD
:10426000C31A82FB031ED917C1EB6E0101EB41019A
:10427000A3EB810303EB430304EB8304A36818441B
:104280007F287FF771AE7F3882FB0032C317C3EB04
:10429000620303EB4303A0EB8300733025E60128A0
:1042A0003EF459AB0123FFF7B7BB99F8000004F0C7
:1042B00091FDFFF7A6B800BFABAAAA2AC01B010058
:1042C0000C9EFF1F1A9CFF1F919CFF1FDFF8E8A2A6
:1042D00099F80000BAF80030B54AB64CC31A82FB10
:1042E000031ED917C1EB6E0101EB4101A3EB810362
:1042F00003EB430354F8233018447F2840F3DD8157
:104300007F3882FB0032C317C3EB620202EB42022A
:10431000A0EB82007330DFF8A4B2C0B204F05AFD03
:10432000BBF80030022B7EF6FBAE99F80000BAF81D
:1043300000309F4AC31A82FB0321DA17C2EB6102E5
:1043400002EB4202A3EB820303EB430304EB830380
:104350005B6818447F2840F327847F380C2290FB49
:10436000F2F302FB13007330C0B204F033FDBBF86C
:104370000030032B7EF6D4AE99F80000BAF8003076
:104380008B4AC31A82FB0321DA17C2EB610202EBEC
:104390004202A3EB820303EB430304EB8304A36811
:1043A00018447F287FF7DDAD7F380C2290FBF2F3B5
:1043B00002FB1300733015E5DFF8FCA13868BAF88A
:1043C00000307B4A7B4CC31A82FB031ED917C1EB1A
:1043D0006E0101EB4101A3EB810303EB430354F8AE
:1043E000233018447F2840F365817F3882FB0032F8
:1043F000C317C3EB620202EB4202A0EB82007330F0
:10440000DFF8BC81DFF8B4B198F80010C0B204F056
:10441000B9FCBBF80030022B7EF6E3AF3868BAF87F
:104420000030634AC31A82FB0321DA17C2EB610230
:1044300002EB4202A3EB820303EB430304EB83038F
:104440005B6818447F2840F3A0837F380C2290FBE0
:10445000F2F302FB13007330C0B298F8001004F0BE
:1044600091FCBBF80030032B7EF6BBAF3868BAF87E
:1044700000304F4AC31A82FB0321DA17C2EB6102F4
:1044800002EB4202A3EB820303EB430304EB83043E
:10449000A36818447F287FF781AD7F380C2290FBFA
:1044A000F2F302FB1300733018E4DFF80CA140496B
:1044B000BAF800203F4C9A1A81FB020ED017C0EBCD
:1044C0006E0000EB4000A2EB800202EB420254F8C7
:1044D000220018447F2840F3F380A0F17F0381FB82
:1044E0000321DA17C2EB610101EB4101A3EB81006B
:1044F0007330DFF8C8B098F80010C0B204F042FC86
:10450000BBF80030022B7FF6F5AC3868BAF8003003
:10451000274AC31A82FB0321DA17C2EB610202EBBE
:104520004202A3EB820303EB430304EB83035B68C8
:1045300018447F2840F345837F380C2290FBF2F328
:1045400002FB13007330C0B298F8001004F01AFC9C
:10455000BBF80030032B7FF6CDAC3868BAF80030DA
:10456000134AC31A82FB0321DA17C2EB610202EB82
:104570004202A3EB820303EB430304EB8304A3682F
:1045800018447F287FF7F0AC7F380C2290FBF2F3C1
:1045900002FB13007330A8E4FCF774F8FFF7CABB02
:1045A000FCF770F8FFF73EBBFCF76CF846E400BF81
:1045B000ABAAAA2A501C01000C9EFF1F1A9CFF1FC9
:1045C000919CFF1FDFF83CA399F80000BAF8003077
:1045D000C44AC54CC31A82FB0317D917C1EB670144
:1045E00001EB4101A3EB810303EB430354F82330B8
:1045F00018447F286ADD7F3882FB0032C317C3EB83
:10460000620202EB4202A0EB82007330DFF8F8B2E4
:10461000C0B204F0DFFBBBF80030022B7FF6B5A977
:1046200099F80000BAF80030AE4AC31A82FB0321A1
:10463000DA17C2EB610202EB4202A3EB820303EB47
:10464000430304EB83035B6818447F2840F3B6827E
:104650007F380C2290FBF2F302FB13007330C0B2E0
:1046600004F0B8FBBBF80030032B7FF68EA999F855
:104670000000BAF800309B4AC31A82FB0321DA1704
:10468000C2EB610202EB4202A3EB820303EB4303A2
:1046900004EB8304A36818447F2814DD7F380C22C0
:1046A00090FBF2F302FB13007330C0B204F092FBF4
:1046B000FFF76BB9FBF7E6FFA2E6FBF7E3FF2AE69D
:1046C000FBF7E0FF15E7FBF7DDFFEEE7FBF7DAFFAF
:1046D0009CE7DFF830A299F80000BAF80030814A70
:1046E000824CC31A82FB031ED917C1EB6E0101EB8A
:1046F0004101A3EB810303EB430354F82330184437
:104700007F28DADD7F3882FB0032C317C3EB6203F8
:1047100003EB4303A0EB83007330FCE5DFF8E4A177
:104720003868BAF800306F4A704CC31A82FB031E17
:10473000D917C1EB6E0101EB4101A3EB810303EB40
:10474000430354F8233018447F28B3DD7F3882FBBD
:104750000032C317C3EB620303EB4303A0EB8300F8
:1047600073304DE6FBF78EFF40E4DFF898A15D491A
:10477000BAF800205D4C9A1A81FB020ED017C0EBEC
:104780006E0000EB4000A2EB800202EB420254F804
:10479000220018447F2893DDA0F17F0381FB0321D1
:1047A000DA17C2EB610000EB4000A3EB800073302E
:1047B0009FE6FBF767FF96E4FBF764FF14E5DFF87D
:1047C00044A199F80000BAF80030464A484CC31A90
:1047D00082FB0317D917C1EB670101EB4101A3EB82
:1047E000810303EB430354F8233018447F287FF7F9
:1047F0006DAF7F3882FB0032C317C3EB620303EB5C
:104800004303A0EB8300733000E73A4800903A4836
:104810003A490390FEF715B9DFF8E8A03868BAF80E
:104820000030304A364CC31A82FB0321DA17C2EB40
:10483000610202EB4202A3EB820303EB430354F851
:10484000233018447F2840F3B6817F380C2290FB38
:10485000F2F302FB13007330DFF8B080DFF8A8B08A
:1048600098F80010C0B204F08DFABBF80030022BAB
:104870001AD93868BAF800300C22C11A91FBF2F349
:1048800002FB131302FB03435B6818447F2840F3C9
:1048900067847F3890FBF2F302FB13007330C0B2E1
:1048A00098F8001004F06EFABBF80030032B7EF687
:1048B00098ADBAF8003038680C22C11A91FBF2F3B7
:1048C00002FB131302FB0344A36818447F287FF7FD
:1048D00065AB7F3890FBF2F302FB13007330FFF7F8
:1048E000FDB900BFABAAAA2AE4180100D41D01003B
:1048F000C01B0100549EFF1FE59BFF1F109EFF1F62
:10490000801A01000C9EFF1F1A9CFF1F919CFF1F25
:10491000DFF894A399F80000BAF80030D84AD94CCF
:10492000C31A82FB0321DA17C2EB610202EB4202D7
:10493000A3EB820303EB430354F8233018447F288E
:1049400040F320817F380C2290FBF2F302FB13002E
:104950007330DFF858B3C0B204F03CFABBF8003053
:10496000022B19D999F80000BAF800300C22C11AAC
:1049700091FBF2F302FB131302FB03435B68184441
:104980007F2840F322847F3890FBF2F302FB130070
:104990007330C0B204F01EFABBF80030032B7EF671
:1049A000BFABBAF8003099F800000C22C11A91FB95
:1049B000F2F302FB131302FB0344A36818447F289D
:1049C0007FF7CFAA7F3890FBF2F302FB130073301E
:1049D000FFF708BA012B3DF4E6AF0124FFF7A8BAB0
:1049E000DFF8C4A2A649BAF80020A64C9A1A81FBA7
:1049F0000210D117C1EB600101EB4101A2EB810272
:104A000002EB420254F8220018447F2840F3D08081
:104A1000A0F17F030C2093FBF0F200FB1230733007
:104A2000DFF888B298F80010C0B204F0ABF9BBF818
:104A30000030022B1AD93868BAF800300C22C11A9B
:104A400091FBF2F302FB131302FB03435B68184470
:104A50007F2840F382837F3890FBF2F302FB130040
:104A60007330C0B298F8001004F08CF9BBF8003035
:104A7000032B7FF63FAABAF8003038680C22C11A1F
:104A800091FBF2F302FB131302FB0344A3681844E7
:104A90007F287FF769AA7F3890FBF2F302FB1300AF
:104AA0007330FFF722BAFBF7EDFDFFF770B9FBF7A4
:104AB000E9FDFFF7E7B8DFF8F0A199F80000BAF8D0
:104AC00000306F4A704CC31A82FB0321DA17C2EB25
:104AD000610202EB4202A3EB820303EB430354F8AF
:104AE000233018447F2846DD7F380C2290FBF2F3F8
:104AF00002FB13007330DFF8B4B1C0B204F06AF9FE
:104B0000BBF80030022B19D999F80000BAF8003030
:104B10000C22C11A91FBF2F302FB131302FB0343B5
:104B20005B6818447F2840F3A7807F3890FBF2F33E
:104B300002FB13007330C0B204F04CF9BBF8003034
:104B4000032B7EF622AFBAF8003099F800000C2251
:104B5000C11A91FBF2F302FB131302FB0344A36897
:104B600018447F287FF7AFAD7F3890FBF2F302FB4C
:104B70001300733099E5FBF785FDBCE7FBF782FD79
:104B8000FFF789B9FBF77EFDE3E6FBF77BFD63E406
:104B900001339BB22380D9B205203C4C04F0CAF803
:104BA0003B782370FDF7EABDFBF76CFDFFF7DCBB3C
:104BB000FBF768FD34E7FBF765FD4DE6FBF762FDAB
:104BC0004DE5FBF75FFDBEE4DFF8DCA099F80000DF
:104BD000BAF800302A4A2E4CA2E6013B9BB2D9B269
:104BE00005202A4C138004F0A5F83B782370FDF7CC
:104BF000C5BDDFF8B4A03868BAF80030204A244CAC
:104C000011E6FBF73FFDFFF71DBBDFF89CA01C4939
:104C1000BAF800201E4CE9E6FBF734FDFFF793BA23
:104C2000DFF884A099F80000BAF80030144A194C53
:104C300049E7FBF727FDFFF706BA029B1B78002B1D
:104C40007EF44EAAFEF771BA134B1B78002B00F0CE
:104C5000DE82124B1B78002B7DF4A5AE104B1B7827
:104C6000002B3DF4A0AEB8F800300E490A33A8F886
:104C700000300A70FDF797BEFBF704FD5BE700BF4D
:104C8000ABAAAA2A801A0100501C0100029CFF1F37
:104C9000441D0100D41D0100C39DFF1F919EFF1FF5
:104CA000929EFF1F079CFF1F0C9EFF1F1A9CFF1F59
:104CB000A14C2388002B40F05483DFF890B29F4929
:104CC0009F4A098899F80000B2F800E0DFF878827E
:104CD000C1EB000C0C229CFBF2F102FB11C14FF066
:104CE000900C0CFB0EFE02FB01E16FF00B0E58F86E
:104CF000011008440EFB03007F2840F3EC84A0F170
:104D00007F0393FBF2F002FB10307330C0B204F06B
:104D100061F8BBF8002023881344022B22DD874A68
:104D2000874B118899F80000B3F800C0DFF818E24B
:104D3000411A0C2291FBF2F302FB1311902303FBA7
:104D40000CF302FB013373445B6818447F2840F383
:104D500050857F3890FBF2F302FB13007330C0B232
:104D600004F038F8BBF8002023881344032B22DD1D
:104D7000724A734B118899F80000B3F800C0DFF84D
:104D8000C8E1411A0C2291FBF2F302FB13119023AC
:104D900003FB0CF302FB013373449B6818447F2828
:104DA00040F338857F3890FBF2F302FB1300733039
:104DB000C0B204F00FF8BBF8002023881344042B82
:104DC0007EF7AEA95F4B1B88012B7EF4A9A999F849
:104DD0000020A2F10C007F287FF7C3A88B3A0C209B
:104DE00092FBF0F300FB13207330FEF7FBBF524C35
:104DF0002288002A00F018835249DFF850B1098850
:104E0000BBF800000331884227DD4C484C4900883C
:104E1000B1F800E0DFF830C1181A0C2190FBF1F96D
:104E200001FB19004FF0900909FB0EFE01FB00E0A9
:104E30006FF00B0E5CF8000003440EFB02307F287D
:104E400040F311847F3890FBF1F301FB13007330C2
:104E5000C0B298F8001003F095FFBBF8002023883B
:104E60001344022B23DD354B354A38681B88B2F8D2
:104E700000C0DFF8D4E0C31A0C2193FBF1F201FB70
:104E80001232902303FB0CF301FB023373445B6883
:104E900018447F2840F3A5847F3890FBF1F301FB91
:104EA00013007330C0B298F8001003F06BFFBBF82A
:104EB000002023881344032B23DD204B204A38682D
:104EC0001B88B2F800C0DFF880E0C31A0C2193FB06
:104ED000F1F201FB1232902303FB0CF301FB0233CE
:104EE00073449B6818447F2840F37F847F3890FB8D
:104EF000F1F301FB13007330C0B298F8001003F017
:104F000041FFBBF8002023881344042B7EF7F2AF47
:104F10000C4B1B88012B7EF4EDAF3A68A2F10C001C
:104F20007F287FF721A88B3A0C2092FBF0F300FB3F
:104F300013207330FEF7D9BF949CFF1F0C9EFF1FF8
:104F4000B69DFF1F369CFF1FE01501001A9CFF1F36
:104F5000B84C2388002B40F06A82DFF810B3B649C2
:104F6000B64A0988D7F80080B2F800E0B448C1EB2F
:104F7000080C0C229CFBF2F102FB11C14FF0900CCB
:104F80000CFB0EFE02FB01E16FF00B0E405880445B
:104F90000EFB03807F2840F36A83A0F17F0393FB1D
:104FA000F2F002FB10307330A64BC0B2197803F058
:104FB000E9FEBBF8002023881344022B23DD9E4A20
:104FC0009E4B11883868B3F800C0DFF874E2411ACC
:104FD0000C2291FBF2F302FB1311902303FB0CF361
:104FE00002FB013373445B6818447F2840F30B8451
:104FF0007F3890FBF2F302FB13007330914BC0B289
:10500000197803F0BFFEBBF8002023881344032B5C
:1050100023DD894A894B11883868B3F800C0DFF86E
:1050200020E2411A0C2291FBF2F302FB13119023B0
:1050300003FB0CF302FB013373449B6818447F2885
:1050400040F3DE837F3890FBF2F302FB13007330F2
:105050007C4BC0B2197803F095FEBBF80020238882
:105060001344042B7EF7BDA9774B1B88012B7EF4DC
:10507000B8A93A68A2F10C007F2840F3B2808B3ABD
:105080000C2092FBF0F300FB132073306D4BC0B289
:10509000197803F077FEFEF7A4B9DFF89CA199F820
:1050A0000000BAF80030694CC11A0C2291FBF2F3EF
:1050B00002FB131302FB03F3E35818447F287FF726
:1050C0005AAD7F3890FBF2F302FB1300733012E508
:1050D0005F4B1A88182A13D03B681344A3F11800B9
:1050E0007F2840F37B830C20973B93FBF0F200FB7F
:1050F000123303F17300534BC0B2197803F042FE30
:10510000544B55491A78022A94BF013200221A7072
:105110001A7831F81200182810D10424022A02F15A
:105120000100C2B288BF002231F81200182804D151
:10513000013CF3D11A70FEF754B91A703B6803446E
:10514000A3F118007F284CDD0C20973B93FBF0F275
:1051500000FB123303F1730098E7FBF793FA80E446
:10516000FBF790FAFFF79BBB394B1B88182B12D02B
:1051700099F800201344A3F118007F2840F33D83E1
:105180000C20973B93FBF0F200FB123303F173000A
:10519000C0B203F01FFE2F4A2F4B127833F81230A3
:1051A000182B3DF4BDAF99F800201344A3F118006B
:1051B0007F287EF7D6AE0C20973B93FBF0F200FBE6
:1051C000123303F17300FEF70DBEFBF75BFAFFF736
:1051D000E0BBDFF864A099F80000BAF800301F4C7B
:1051E00062E7FBF74FFA51E71D4B1B78002B7DF46C
:1051F000DAAB1C4B1B78002B3DF4D5ABB8F8003074
:105200001949013BA8F800300A70FDF7CCBB144BDC
:105210001B78002B7EF401A8124B1B78002B3DF469
:10522000C2ABB8F8003010490133A8F800300A705A
:10523000FDF7B9BB949CFF1F0C9EFF1FB69DFF1F7F
:10524000E0150100919CFF1F369CFF1F801A010092
:10525000269CFF1F929CFF1F249EFF1F441D0100E0
:10526000919EFF1F929EFF1F079CFF1F1A9CFF1F0E
:10527000944A1288182A12D01344A3F118007F28E8
:1052800040F3CC820C20973B93FBF0F200FB1233EF
:1052900003F17300C0B298F8001003F073FD8A4B5D
:1052A0008A491A78022A94BF013200221A701A78A9
:1052B00031F81200182811D10424022A02F1010049
:1052C000C2B288BF002231F81200182805D1013C73
:1052D000F3D11A703B68FEF77AB91A703B68034441
:1052E000A3F118007F287EF73FAE0C20973B93FB7D
:1052F000F0F200FB123303F17300FEF7F6BD744ABF
:105300001288182A12D01344A3F118007F2840F302
:105310007E820C20973B93FBF0F200FB123303F1EB
:105320007300C0B298F8001003F02CFD664B694979
:105330001A78022A94BF013200221A701A7831F8C2
:1053400012001828CAD10424022A02F1010294BFD3
:10535000D2B2002231F812001828BED1013CF3D19C
:10536000B7E75D4ADFF884B11288BBF8001003325A
:1053700091427FF7CEACA2E4554B1B88182B12D07C
:1053800099F800201344A3F118007F2840F32382EA
:105390000C20973B93FBF0F200FB123303F17300F8
:1053A000C0B203F017FD484A4A4B127833F8123066
:1053B000182B7FF4F8AEFDF7B3BE454B1A88182AB8
:1053C00013D03B681344A3F118007F2840F3F28107
:1053D0000C20973B93FBF0F200FB123303F17300B8
:1053E0003E4BC0B2197803F0CDFC374B39491A78DF
:1053F000022A94BF013200221A701A7831F8120082
:1054000018287FF49BAE0424022A02F1010294BF03
:10541000D2B2002231F8120018287FF48EAE013C7F
:10542000F2D11A70FDF7DDBFDFF8C0B0EDE42A4A13
:10543000DFF8B8B01288BBF80010033291427FF752
:10544000B8AD8CE5264B01227F2107201A8003F09E
:1054500071FC7F210B2003F06DFCFDF709BF214B90
:1054600004227F2107201A8003F064FC00210B2016
:1054700003F060FCFDF7F5BE1A4B02227F210720E6
:105480001A8003F057FC7F210B2003F053FCFDF73B
:10549000E3BE144B002107201C8003F04BFC7F214E
:1054A0000B2003F047FCFDF7D2BE0F4B00227F21FB
:1054B00007201A8003F03EFC7F210B2003F03AFC0A
:1054C000FDF7DEBE269CFF1F929CFF1F249EFF1F40
:1054D0002E9CFF1F989DFF1F369CFF1F919CFF1F56
:1054E000A29CFF1F049EFF1F049CFF1F1A9CFF1F0E
:1054F000CC4C2388002B40F06381DFF854B3CA49B9
:1055000099F80000C94A09881788DFF824E3411A8E
:105510000C2291FBF2FC02FB1C114FF0900C0CFBD7
:1055200007F702FB01716FF00B075EF801100144F1
:1055300007FB03107F2840F340817F3890FBF2F394
:1055400002FB13007330C0B203F044FCBBF8002030
:1055500023881344022B21DDB34BB44A99F8000091
:105560001B88B2F800E0B24FC31A0C2193FBF1F292
:1055700001FB1232902303FB0EF301FB02333B4489
:105580005B6818447F2840F3B1817F3890FBF1F3CA
:1055900001FB13007330C0B203F01CFCBBF8002009
:1055A00023881344032B21DD9F4BA04A99F8000068
:1055B0001B88B2F800E09E4FC31A0C2193FBF1F256
:1055C00001FB1232902303FB0EF301FB02333B4439
:1055D0009B6818447F2840F386817F3890FBF1F365
:1055E00001FB13007330C0B203F0F4FBBBF80020E2
:1055F00023881344042B7EF7C8A98E4B1B88012BEC
:105600007EF4C3A999F80020A2F10C007F287FF74F
:105610005AA88B3A0C2092FBF0F300FB1320733056
:10562000FFF743B8844B1B88182B12D099F8002041
:105630001344A3F118007F2840F35B810C20973BB3
:1056400093FBF0F200FB123303F17300C0B203F0DE
:10565000C1FB7A4A7A4B127833F81230182B7FF458
:10566000A2ADFDF75DBDFBF70DF8FFF7F1BBFBF752
:1056700009F899E4734B1B88182B12D099F8002075
:105680001344A3F118007F2840F339810C20973B85
:1056900093FBF0F200FB123303F17300C0B203F08E
:1056A00099FB664A684B127833F81230182B3EF497
:1056B0006CA999F800201344A3F118007F287FF704
:1056C00002A80C20973B93FBF0F200FB123303F18E
:1056D0007300FEF7EABFFAF7D5FFFFF717BB564A8C
:1056E0001288182A12D01344A3F118007F2840F31F
:1056F00003810C20973B93FBF0F200FB123303F184
:105700007300C0B298F8001003F03CFB4B4B4C49BF
:105710001A78022A94BF013200221A701A7831F8DE
:10572000120018287FF4DAAD0424022A02F10102E3
:1057300094BFD2B2002231F8120018287FF4CDAD08
:10574000013CF2D1C5E53C4B1A88182A13D03B68BE
:105750001344A3F118007F2840F3C2800C20973B2C
:1057600093FBF0F200FB123303F17300374BC0B22E
:10577000197803F007FB314B31491A78022A94BF9C
:10578000013200221A701A7831F8120018287FF4BA
:10579000D5AC0424022A02F1010294BFD2B2002245
:1057A00031F8120018287FF4C8AC013CF2D11A700D
:1057B000FDF717BEFAF766FF12E6FAF763FFC2E6D7
:1057C0001C4ADFF88CB01288BBF8001003329142FB
:1057D0007FF7BCAE93E6FAF755FFE1E5FAF752FF23
:1057E00089E4FAF74FFFFFF75DBBFAF74BFFFFF7CE
:1057F00083BBFAF747FFFFF7B2BAFAF743FFC7E4F4
:10580000FAF740FF24E4FAF73DFFFFF7F7BBFAF79A
:1058100039FF86E5FAF736FFFFF7CABAFAF732FF23
:1058200038E500BF949CFF1F0C9EFF1FB69DFF1F15
:10583000E0150100369CFF1F309CFF1F929CFF1F4C
:10584000A09DFF1F269CFF1F249EFF1F919CFF1FF2
:105850001A9CFF1F304B1B88182B11D099F8002081
:105860001344A3F118007F2834DD0C20973B93FBF1
:10587000F0F200FB123303F17300C0B203F0AAFA96
:10588000264A274B127833F81230182B7FF411AFC9
:10589000FEF77BB8234B1B88182B11D099F80020FA
:1058A0001344A3F118007F2817DD0C20973B93FBCE
:1058B000F0F200FB123303F17300C0B203F08AFA76
:1058C000164A194B127833F81230182B7FF4F1AEC8
:1058D000FEF75BB8FAF7D6FECFE7FAF7D3FEECE7B0
:1058E000FAF7D0FE42E7FAF7CDFE7CE6FAF7CAFEF9
:1058F00051E6FAF7C7FEA9E6FAF7C4FE01E7FAF7A0
:10590000C1FECBE6094B0393094B0293FDF71EBF83
:1059100023601946FDF758BC309CFF1F929CFF1F67
:10592000A09DFF1F2E9CFF1F989DFF1FE59BFF1F43
:10593000B29CFF1F38B507F015F90E4805F04CF87A
:105940000D4805F049F80D4805F046F800234FF0E2
:105950007E5201210A48FAF789FD0A4B0A4A0B498F
:10596000802400251C7118461D60BDE838400AF0EF
:10597000BDBD00BF189CFF1F4C9CFF1FA89CFF1FB4
:10598000E09DFF1F5C9EFF1F1C89FF1F2906000072
:1059900043682A20198803F051BB00BF10B50446A4
:1059A00022206368198803F049FBE36824201988E2
:1059B000BDE8104003F042BB10B504460A206368FE
:1059C000198803F03BFBE3680C201988BDE8104000
:1059D00003F034BB10B5044606206368198803F051
:1059E0002DFBE36808201988BDE8104003F026BBB2
:1059F00010B5044602206368198803F01FFBE368B2
:105A000004201988BDE8104003F018BB70B50E4C97
:105A100084B01225042201230646039002932046F7
:105A20008DE824001423102106F0DAF90622092358
:105A3000029303960195204600921423102106F04C
:105A4000CFF904B070BD00BFC09EFF1F2DE9F0412B
:105A5000224D82B0012602B284B2009228460196FD
:105A60007823192106F002F904F10C0212B28DE834
:105A700044002846A7197823192104F1020806F0EA
:105A8000F5F83FB20FFA88F819233A462846194626
:105A90000196CDF8008006F0E9F878233A462846CA
:105AA0001946CDF80080019604F10A070B3406F080
:105AB000DDF83FB224B278233A46284619468DE8ED
:105AC000500006F0D3F8192300943A460196284670
:105AD000194606F0CBF802B0BDE8F081C09EFF1F6A
