:1000000000800020BD010000C58900007D8900003E
:100010007D8900007D8900007D8900007D890000C8
:100020007D8900007D8900007D890000C589000070
:10003000C58900007D890000718100007582000083
:10004000C5890000C5890000C5890000C589000078
:10005000C5890000C5890000C5890000C589000068
:10006000C5890000C5890000C5890000C589000058
:10007000C5890000C5890000C5890000C589000048
:10008000C5890000C5890000C5890000C589000038
:10009000C5890000C5890000C5890000C589000028
:1000A0007565000081650000C5890000C5890000F4
:1000B000C5890000C5890000C5890000C589000008
:1000C000C5890000C5890000C5890000C5890000F8
:1000D000C5890000C5890000C5890000C5890000E8
:1000E000C5890000C5890000C5890000C5890000D8
:1000F000C589000065A90000C589000091AA00001B
:10010000C58900009D930000C5890000C5890000D5
:10011000C5890000C5890000C5890000C5890000A7
:10012000C5890000C5890000C5890000C589000097
:10013000C5890000C5890000C5890000C589000087
:10014000C5890000C5890000C5890000C589000077
:10015000C5890000C5890000C5890000C589000067
:10016000C5890000B9960000C5890000C589000056
:10017000C5890000C5890000C5890000C589000047
:10018000C5890000C5890000C5890000C589000037
:10019000C5890000C5890000C5890000C589000027
:1001A000C5890000C5890000C5890000C589000017
:1001B000C5890000C5890000C5890000564B4CF276
:1001C000205210B51A804DF628121A8000BF00BFC9
:1001D00008F0FCFB514B4FF010621A60504A9A60D5
:1001E000504ADA60504A136813F4807304D14F49BF
:1001F0000B604FF4A85313604D4B1A78110703D5C9
:100200001A7842F008021A704A4B4B492A221A7097
:100210004A4A4B4B8B4204D252F8040F43F8040B6A
:10022000F8E7484B484900228B4202D243F8042B9E
:10023000FAE74649464A002352F8230041F82300D2
:1002400001336F2BF8D1434B434A802103F8011B44
:100250009342FBD1414B3D4A1A60414B8A221A70AE
:10026000A3F5805324225A70A0221A709A7992071B
:10027000FCD59A79D406FCD43A4A937903F00C035E
:10028000082B384BF9D103221A7140225A719A79FE
:100290009006FCD5334A9179324B4906FBD5324A58
:1002A000324911600221516020221A709A7902F0BD
:1002B0000C020C2AFAD12E4B2E4A1A602E4B2F4AD2
:1002C0001A6000225A60072243F8042C2C4AC3F813
:1002D0000C2D62B608F02AFF144B1B68DA0705D50F
:1002E000284808F0F7FC284B284A1A60284B1B784E
:1002F0005B0609D5244C254B22689A4204D121483B
:1003000008F0E8FC002323600BF07AFE08F064FBA1
:1003100008F092FAFEE700BF0E200540308004404E
:10032000823F04000100002B10D0034014D0034092
:1003300002D0074000E007401C99FF1F40E5000085
:100340004088FF1F1C99FF1FC09FFF1F0082FF1FD7
:100350000000000000E400E05FE400E008ED00E0E1
:100360000050064000400640448004400000030165
:1003700004800440C010050014E000E0FF76010096
:1003800000002020D26E385D1CE00340A5C3945AC3
:1003900000F00740FFFFFFFFFFFFFFFFFFFFFFFF32
:1003A000FFFFFFFFFFFFFFFFFFFFFFFFFFFFFFFF5D
:1003B000FFFFFFFFFFFFFFFFFFFFFFFFFFFFFFFF4D
:1003C000FFFFFFFFFFFFFFFFFFFFFFFFFFFFFFFF3D
:1003D000FFFFFFFFFFFFFFFFFFFFFFFFFFFFFFFF2D
:1003E000FFFFFFFFFFFFFFFFFFFFFFFFFFFFFFFF1D
:1003F000FFFFFFFFFFFFFFFFFFFFFFFFFFFFFFFF0D
:10040000FFFFFFFFFFFFFFFFFFFFFFFFDEF9FFFF23
:1004100010B5054C237833B9044B13B10448AFF33E
:1004200000800123237010BD1C99FF1F00000000F5
:1004300044E50000084B10B51BB108490848AFF36C
:1004400000800848036803B910BD074B002BFBD0A0
:10045000BDE81040184700BF000000002099FF1FB2
:1004600044E500001C99FF1F0000000070B44C8898
:10047000A04220D901230133DBB21CB2660031F85F
:10048000144084421D46F6D3A04211D005F1004528
:10049000013D965B31F8151032F81530401AF21A0A
:1004A00000FB02F0641A90FBF4F4E01870BC704793
:1004B000905B70BC704702260125E5E700280CDA46
:1004C000064A434282FB0320DA17C2EB600000EBCE
:1004D0004000A3EB8000C0F10C007047ABAAAA2A31
:1004E0002DE9F84F0C2008F04DF80C2008F002FD23
:1004F000E049142008F00EFD0221032008F0A0FDC1
:100500000221042008F09CFD0221052008F098FD3E
:100510000221062008F094FD01210A2008F090FD38
:100520000121092008F08CFD01210D2008F088FD33
:100530000121282008F084FD0121142008F080FD0D
:1005400002210B2008F07CFD01210C2008F078FD31
:1005500000210C2008F060FD002004F053FA172859
:10056000044600F258822021002004F02DF84FF4B8
:10057000AF61022004F028F804204FF47A6104F0FF
:1005800023F80B2008F04EFD002800F0398240F6D9
:100590002821062004F018F840F6E441082004F071
:1005A00013F84FF4AF610A2004F00EF840F6FC0196
:1005B0000C2004F009F84FF49661222004F004F8AE
:1005C0004FF41661242003F0FFFF7D212A2003F061
:1005D000FBFF202C00F007822021002003F0F4FF15
:1005E0000C210E2003F0F0FF0121102003F0ECFF9E
:1005F0000221122003F0E8FF0021142003F0E4FFA1
:100600000021162003F0E0FF0221182003F0DCFF98
:1006100001211A2003F0D8FF02211C2003F0D4FF8F
:1006200004211E2003F0D0FF1421202003F0CCFF72
:100630000121262003F0C8FF0321282003F0C4FF76
:1006400004212C2003F0C0FF0F212E2003F0BCFF5B
:100650000021302003F0B8FF0C21322003F0B4FF5A
:100660000021342003F0B0FF0021362003F0ACFF5E
:100670000021382003F0A8FF00213A2003F0A4FF56
:1006800000213C2003F0A0FF00213E2003F09CFF4E
:100690000021402003F098FF0021422003F094FF46
:1006A0001F21442003F090FF1321462003F08CFF0C
:1006B0000E21482003F088FF11214A2003F084FF17
:1006C0000A214C2003F080FF00214E2003F07CFF24
:1006D0000621502003F078FF0221522003F074FF1E
:1006E0000C21542003F070FF0021562003F06CFF12
:1006F0000021582003F068FF01215A2003F064FF15
:1007000003215C2003F060FF0A215E2003F05CFF00
:100710000021602003F058FF022004F073F9564BCB
:10072000564C1880042004F06DF9554BDFF8B4A145
:100730001880062004F066F9524B534D18800820AB
:1007400004F060F9514BDFF8A09118800A2004F002
:1007500059F94F4BDFF894B118800C2004F052F98E
:100760004C4B4D4F18800E2004F04CF94B4B4C4E27
:100770001880102004F046F94A4BDFF87481188085
:10078000122004F03FF9484B1880142004F03AF985
:10079000464B1880162004F035F9454B1880182078
:1007A00004F030F9434B18801A2004F02BF9424B27
:1007B00018801C2004F026F9404B18801E2004F0FD
:1007C00021F93F4B1880202004F01CF93D4B188084
:1007D000222004F017F93C4B1880242004F012F971
:1007E0003A4B1880262004F00DF92080282004F0D0
:1007F00009F9374B18802A2004F004F9AAF8000000
:100800002C2004F0FFF8334B18802E2004F0FAF867
:10081000314B1880302004F0F5F8304B188032202E
:1008200004F0F0F82E4B1880342004F0EBF8288008
:10083000362004F0E7F86880382004F0E3F8A88058
:100840003A2004F0DFF8E8803C2004F0DBF828814F
:100850003E2004F0D7F86881402004F0D3F8A88146
:10086000422004F0CFF8A9F80000442004F0CAF8B0
:1008700040E000BF001B3746B699FF1F8299FF1F5B
:10088000929AFF1F449AFF1F5499FF1F2E9AFF1F31
:100890005C9AFF1F109AFF1F6A89FF1F8099FF1F34
:1008A0007089FF1FB899FF1F6299FF1F209AFF1FD1
:1008B0004099FF1FEC99FF1F329AFF1F589AFF1FA4
:1008C000FA99FF1F909AFF1F5E9AFF1FEE99FF1F74
:1008D000E499FF1F1A9AFF1F249AFF1F5099FF1FC8
:1008E000889AFF1F189AFF1FAE99FF1F509AFF1F8B
:1008F0006C89FF1FA94BAA4D1880462004F082F88E
:10090000ABF80000482004F07DF8ABF802004A2064
:1009100004F078F8ABF804004C2004F073F8ABF85E
:1009200006004E2004F06EF89E4B1880502004F014
:1009300069F89D4B1880522004F064F89B4B188096
:10094000542004F05FF83880562004F05BF8984B90
:100950001880582004F056F8964B18805A2004F05E
:1009600051F8954B18805C2004F04CF8934B18809C
:100970005E2004F047F83080602004F043F8BAF8B5
:10098000003021882970A3F5AF7E8D498D4CB9F8D0
:100990000020208040F23A7303FB0EF381FB03E159
:1009A000DB17A3EB6113884C8848DFF858C28849ED
:1009B0003233C8F8003002F00203238002F004034F
:1009C000038002F008038CF80030824C824802F069
:1009D000100C02F02003A1F800C05A21238005F07A
:1009E00079FE18BBFEE7042008F01CFB00287FF40A
:1009F00093AE062008F016FB00283FF4EDAD8BE621
:100A00004FF49661062003F0DFFD4FF4FA610820F1
:100A100003F0DAFDC5E5042008F004FB002859D0F6
:100A20004FF6FF739C427FF4D4AD9CE56B4A6C4853
:100A30001268DFF8D4B10023012105F023FF03F091
:100A40007BFD0B2008F0EEFA011E0CBF01230023F2
:100A50008BF8003002D1112008F0F2FADFF888910B
:100A6000604CDFF8A8810023C9F800302360C8F883
:100A700000304FF0010A11E007F0B8FD2368184478
:100A800020600AF001010D2008F0C6FA0AF1010AFF
:100A9000FA2008F0FDFABAF1050F22D00F2008F075
:100AA000E9FCD8F8003003440E20C8F8003007F005
:100AB0009DFDD9F800309BF800100344C9F80030C0
:100AC00015200029D8D1112008F0D4FC236818443F
:100AD0002060D6E7062008F0A5FA00283FF443ADD1
:100AE0009EE7D8F80030D9F800103F4A2068DFF8B8
:100AF00020E13688DFF81CC1002BB8BF0333002982
:100B0000B8BF0331891011603988384F9B10002815
:100B1000A3EB0102B8BF033019448010CEF80020C7
:100B20003960DFF8F4E0324FC8F800308219C6EBC4
:100B30000008002120600D203B60CCF80080CEF83A
:100B4000002008F069FAFA2008F0A2FA01210D202D
:100B500008F062FAFA2008F09BFA00210D2008F054
:100B60005BFA04F0D7F940F2DC5008F091FA214B1F
:100B7000012604201E6008F055FA10B91E4B28709B
:100B80001E701E4B1E4A1B781370184605F0D8F8CD
:100B900001210D20BDE8F84F08F03EBA609AFF1F12
:100BA000759AFF1F7E99FF1F6489FF1FA889FF1F89
:100BB0008E9AFF1F2C9AFF1F7099FF1F6689FF1FD7
:100BC000B5814E1BB299FF1F5A9AFF1FDC99FF1F78
:100BD000089AFF1F4C9AFF1F389AFF1F7489FF1F46
:100BE000BC99FF1F9C99FF1F0C9AFF1F709AFF1F53
:100BF000009AFF1F7499FF1FE699FF1FB899FF1F06
:100C0000309AFF1F749AFF1F849AFF1F8899FF1F55
:100C10001C9AFF1FF099FF1F409AFF1FF0B40E8827
:100C200086420DD203F10043013B31F81350854257
:100C300002D9F0BCFFF71ABC32F81300F0BC7047C1
:100C40001088F0BC704700BF094B1B880C2B09D8DB
:100C5000084A80B252F8232028B143F6FE73984226
:100C600003D9108C7047108870470349FFF7FEBB0B
:100C70001A9AFF1FC4CC0000A4CB000008B5214A7B
:100C8000214B12881868824234DA204B1B88991A4B
:100C90008342A8BF0346B1F5F87FA3EB020321DA34
:100CA000C3EB031303EB431393FBF1F105310A206C
:100CB00008F022F8164B1978F1B1164B16491B684B
:100CC00083F30703C3EB031303EB431381FB0321FC
:100CD0001944DB17C3EBA11105310920BDE8084019
:100CE00008F00AB8C3EB43131B01013193FBF1F188
:100CF0000531DCE70021DAE70920BDE8084007F00C
:100D0000FBBF00BFB699FF1F149AFF1F929AFF1FE7
:100D1000629AFF1F349AFF1F09040281374A38493B
:100D20001088384AF8B5384B12881B68834248DB74
:100D30009342A8BF134698420B60C8BF002342DD10
:100D4000101AB0F5804FAABF9B03C3EB8333013069
:100D500093FBF0F0FFF778FF2C4B2D4F1C883B687E
:100D6000C0F3C61505FB04F47F2CA8BF7F249D4269
:100D7000064608D0274B1B88002B38D1264B1B88F2
:100D8000002B30D13D60254D2B689E4205D0214B74
:100D90001B885A1F032A1DD92E60214D2B689C42A7
:100DA0000ED0204B188848B11A4B1F4A1B88D35CC1
:100DB000834203D0C0B2E1B204F00AFF2C60F8BD58
:100DC000F8BD034608609A42D4BFC0EB0203C0EBF3
:100DD0000303B5E7144AD05C2030C0B206F07F01AF
:100DE00004F0F6FED8E7284604F066FFCAE70E4A8C
:100DF0002946D05C04F0ECFEC0E700BFB699FF1FA7
:100E0000149AFF1F929AFF1F6499FF1F7099FF1F8A
:100E10004499FF1F6299FF1F209AFF1F6C99FF1FC3
:100E20003C99FF1F2C9AFF1F7889FF1F2DE9F04F77
:100E3000172087B008F01EFBA34B1860162008F09F
:100E400019FBA24BA24A1B8810600C2B00F07D837B
:100E5000DFF8C0A29F4ABAF800109F4B52F8214019
:100E600000221A709D4B9E4A1B889E491288013BA6
:100E700031F91350002A00F0A7809B4B1B78002B00
:100E800049D1112008F0F6FA984B0193D3F800905D
:100E90000746B94549DD964B964E1B88012B00F05D
:100EA000CD82954B03933068944B00930AF036FE45
:100EB0004FF07C510AF086FE914A009B1288D3F8CD
:100EC00000800292834620460AF028FE029A039B85
:100ED00053F822100AF076FE014600200AF068FD61
:100EE0000BF036F8C5EB0805C9EB0502BD42B8BFEB
:100EF0003D469042C9EB0505C0F2C98200FB05F5ED
:100F000095FBF2F00AF00AFE7E4BDFF80C92039399
:100F10004FF07C5149E0152007F068FB734B0193BB
:100F2000D3F800900746B945B5DC764B0393D3F868
:100F30000090B94580F2A5806D4B6E4E1B88012B49
:100F400000F038836C4A6D4B3068049200930AF0CD
:100F5000E5FD4FF07C510AF035FE6949009B098898
:100F6000029183462046D3F800800AF0D7FD02990B
:100F7000049A52F821100AF025FE0AF0E9FF4544D0
:100F8000BD42C9EB0502A8BF3D46C9EB050590422D
:100F9000BABF00FB055501324543DFF87C9195FB54
:100FA000F2F00AF0BBFD4FF07C51574B02930AF070
:100FB00009FE59460AF0FEFC0AF0CAFF534B04939F
:100FC0003060D9F800B074E04F4B02931E460F20FA
:100FD00008F050FAD6F8008005904045C0F2A6818E
:100FE0004A4B0493D3F80080059B434540F3C982E4
:100FF0003F4B404E1B88012B00F017833E4A306860
:1010000001920AF08BFD4FF07C510AF0DBFD3C4B66
:1010100003901B88009320460AF080FD009B019AF4
:10102000DFF8F49052F82310D9F800B00AF0CAFDA6
:101030000AF08EFF059A5D449542C8EB0503A8BFF0
:101040001546C8EB05059842BABF00FB05550133AC
:10105000454395FBF3F00AF061FD284B00934FF0F8
:101060007C511D46214B01930AF0ACFD03990AF017
:10107000A1FC0AF06DFF234B03933060D5F800808C
:1010800017E01E4B1B4E00931D461F4B306802930A
:101090001E4B04930AF042FD4FF07C510AF092FD82
:1010A0000AF056FFDFF87090D5F80080D9F800B04C
:1010B000306017490988013903295BD8DFE811F04E
:1010C000D00014012E00F2004C99FF1F889AFF1FD8
:1010D000049AFF1F2889FF1F9499FF1F6489FF1F2F
:1010E000B299FF1F44CD0000849AFF1FF099FF1FA3
:1010F0008E9AFF1F7899FF1F1CCD00009C99FF1F3F
:10110000FA99FF1F409AFF1F1C9AFF1F709AFF1F3A
:10111000A889FF1F329AFF1F8899FF1F58460AF0BF
:10112000FDFCAA490AF04EFD054605980AF0F6FCBA
:10113000A7490AF047FD014628460AF03BFC0AF0A1
:1011400007FF8346C9F800B040460AF0E7FC9F4914
:101150000AF038FD054638460AF0E0FC9C490AF0E2
:1011600031FD014628460AF025FC0AF0F1FE009BFD
:1011700080461860974898490788984B08881D68EA
:101180009749DFF8B0E20988C7EB0B0307EB0B02C6
:10119000029F3B60C0EB080700EB08030498026065
:1011A000019A1760039A8D421360BEF8002080F206
:1011B000AA810027C1EB020E8A4B7445186880F2A1
:1011C0009681631C884207FB03F70EF1010E97FB23
:1011D000FEF7C0F249828242A8BF0246521A03FBC0
:1011E00002F494FBFEF48D4200F35781884200F331
:1011F00054817D4C20680AF091FC7C490AF0E2FCA5
:101200007B490AF0D7FB0AF0A3FEA0F5FF531C3B75
:10121000082B98BF4FF40050336818440028206012
:10122000C0F26381B0F5804F80F27481714B1B78FE
:101230001BB1B0F5005F40F075816F4D2B78002B2E
:1012400040F078816D4D20682B68674C984204D03F
:1012500080B204F09BFD23682B6007B0BDE8F08FDF
:1012600058460AF05BFC66490AF0ACFC0546059856
:101270000AF054FC63490AF0A5FC014628460AF02E
:1012800099FB0AF065FE8346C9F800B040460AF0B3
:1012900045FC5B490AF096FC054638460AF03EFCE0
:1012A00058495CE758460AF039FC50490AF08AFC74
:1012B000054605980AF032FC53490AF083FC0146C2
:1012C00028460AF077FB0AF043FE8346C9F800B0CF
:1012D00040460AF023FC45490AF074FC05463846AE
:1012E0000AF01CFC48493AE758460AF017FC4749FF
:1012F0000AF068FC054605980AF010FC44490AF01B
:1013000061FC014628460AF055FB0AF021FE83469F
:10131000C9F800B040460AF001FC3C490AF052FC12
:10132000054638460AF0FAFB394918E7394B3A4E78
:101330001B88012B00F05E81384A306801920AF068
:10134000EDFB4FF07C510AF03DFC354B04901B88BF
:10135000009320460AF0E2FB009B019ADFF8D89048
:1013600052F82310D9F800B00AF02CFC01460020F6
:101370000AF01EFB0AF0ECFD059AC5EB0B05954241
:10138000C8EB0503B8BF1546C8EB05059842BABFC0
:1013900000FB05550133454395FBF3F00AF0BEFB16
:1013A000204B00931D46204B01934FF07C511F4B67
:1013B00003930AF007FC04990AF0FCFA0AF0C8FD4E
:1013C0001B4B04933060D5F8008072E6CDCC4C3FC7
:1013D000CDCC4C3E6A89FF1F7089FF1F4C99FF1FBF
:1013E0005C9AFF1F049AFF1F6089FF1F9A99193F9B
:1013F000CDCC4C45129BFF1F7D99FF1F2089FF1FFD
:101400003333733FCDCC4C3DCDCCCC3E6666663F8E
:10141000CDCCCC3D8E9AFF1F7899FF1F1CCD0000CC
:10142000FA99FF1F9C99FF1FF099FF1F409AFF1F19
:10143000709AFF1F109AFF1F8899FF1F904B00930F
:101440003068904B03930AF069FB4FF07C510AF02F
:10145000B9FB8D4A8A4B1288D3F8008002928346EA
:1014600020460AF05BFB029A039B53F822100AF015
:10147000A9FB0AF06DFDC5EB0805C9EB0502BD42ED
:10148000B8BF3D468242C9EB05057FF737AD00FB8B
:101490000555013295FBF2F034E5BAF80030002B27
:1014A0003FF4A7AE3B1B002BB8BF5B42092B48DDC6
:1014B00007F500500130001B0AF030FB7349744CF3
:1014C0000AF080FB054620680AF028FB71490AF003
:1014D00079FB014628460AF06DFA0AF039FD3368B7
:1014E000184400282060BFF69DAE002214E0884218
:1014F00007FB04F7B8BF002397FBFEF780F2B68026
:1015000093FBFEF46FE69542D4BFC1EB0507C1EB38
:1015100002074FE643F6FF725F4B22601B78002BF9
:101520003FF48BAE00210D2007F076FD5B4B0122CE
:101530001A7087E601210D2007F06EFD00232B7045
:1015400080E64FF40050524C66E6012007F092FF0F
:10155000534B1B6898427FF77BACDFF85CA1514A84
:10156000BAF80010504B52F8210001221A700AF00C
:10157000D5FA4FF07C510AF025FB0AF0E9FC04464D
:1015800070E43F4B494E00931D46494B3068019330
:10159000484B03930AF0C2FA4FF07C510AF012FB59
:1015A0000AF0D6FCDFF81491D5F80080D9F800B025
:1015B00030607EE5334B04933068314B00930AF082
:1015C000ADFA4FF07C510AF0FDFA2F4A009B1288C9
:1015D000D3F800800292834620460AF09FFA029ACE
:1015E000049B53F822100AF0EDFA014600200AF09D
:1015F000DFF9C2E4234A306801920AF08FFA4FF013
:101600007C510AF0DFFA204B04901B88009320469F
:101610000AF084FA009B019ADFF8A09052F8231098
:10162000D9F800B00AF0CEFAA4E6164A3068019262
:101630000AF074FA4FF07C510AF0C4FA124B03908E
:101640001B88009320460AF069FA009B019ADFF894
:101650006C9052F82310D9F800B00AF0B3FA0146A2
:1016600000200AF0A5F9E3E40A46B7E59042D4BFAA
:10167000C1EB0003C1EB020304FB03F340E700BF2F
:101680009C99FF1F1CCD0000FA99FF1FCDCCCC3ECA
:101690006089FF1F9A99193F129BFF1F7D99FF1FB9
:1016A0006C89FF1F2889FF1F9499FF1F7899FF1FDE
:1016B000F099FF1F409AFF1F329AFF1F8899FF1F62
:1016C00030B58DB06D460024E1B23E4804F0C6FF4F
:1016D00001340C2C45F8040BF6D13B4B1B88002B36
:1016E0004DD03A4B0A9A1B889A424BDA009A9342A1
:1016F00048DD029A934245DD049A934242DD344B21
:101700001978002946D03348334A34490088128872
:1017100009680244B1EB620F34DD00241C7004F050
:10172000FFFA21460D2007F077FC322007F0B0FCCD
:1017300001210D2007F070FC322007F0A9FC2146A2
:101740000D2007F069FC322007F0A2FC01210D20DA
:1017500007F062FC322007F09BFC21460D2007F0C9
:101760005BFC322007F094FC0D20012107F054FCB3
:101770004FF42F700DB0BDE8304007F089BC144A1B
:10178000117809B90DB030BD13700DB0BDE830400F
:1017900004F0C6BA0F4C104A114824881288006819
:1017A0002244B0EB620FEDDD01240D201C7007F028
:1017B00033FC322007F06CFC0D20214607F02CFC96
:1017C0003220D7E7389AFF1F089AFF1F189AFF1F89
:1017D000A699FF1F109AFF1F5C9AFF1F049AFF1F14
:1017E0004C99FF1F2DE9F0417B4C7C4D20680AF09D
:1017F00095F97B490AF0E6F90646102007F03AFE13
:101800000AF08CF977490AF0DDF931460AF0D2F88E
:101810000AF09EFB2B882060002B3FD0724F3A8845
:1018200090423BDB01467148067836B94FF0010E15
:10183000042B80F800E000F0B380012B6AD0022B6B
:1018400000F0BC80032B36D1694B1B88092B32D0AA
:1018500023683C88674AA342128853DB9342D4BF73
:10186000C4EB0303C4EB0203141B7E2CDFF8888156
:10187000D5BFC3EB8313C3EBC3135B00013493FBEE
:10188000F4F4D8F800300134A34203D0E1B24A2086
:1018900004F09EF9C8F80040BDE8F081534A117881
:1018A00049B10024012B147016D0022B1FD0032B3A
:1018B00003D0042B28D0BDE8F0814D4B1B88092BA9
:1018C000F9D04D4D2B68002BF5D021464A2004F06D
:1018D0007FF92C60BDE8F081474D2A68002AEAD0E4
:1018E0001846214604F074F92C60BDE8F081424DA1
:1018F0002B68002BDFD02146042004F069F92C600E
:10190000BDE8F0810023AFE721464020BDE8F0416B
:1019100004F05EB9374B1B888B42D4BFC2EB030681
:10192000C2EB01069A1ADFF8D0807E2AD8BFC6EB38
:101930008616D8F80030C6BFC6EBC6160132760050
:1019400096FBF2F60136B34203D0F1B2012004F067
:101950003FF92B88C8F80060022B7FF473AF23682F
:101960003E88244AB34212882CDA0023961B7E2E2E
:10197000DFF88480D5BFC3EB8313C3EBC3135B00D5
:10198000013693FBF6F6D8F800300136B34220D08A
:10199000F1B2042004F01CF92B88C8F8006051E76C
:1019A0007F21402004F014F92B88012BD4D1216829
:1019B0003A88104B91421B88B4DBADE70D4A23688F
:1019C00012883E889A42D4BFC6EB0203C6EB0303DB
:1019D000CCE70223E1E700BF789AFF1F589AFF1F68
:1019E0009A99193FCDCCCC3E5E9AFF1F8499FF1F78
:1019F0006299FF1FEE99FF1F9899FF1F38B5184B8A
:101A00001B88D3B9174A184914880968174AA14294
:101A100012881DDA141B7F2CC6BFDB010134C3EB17
:101A2000C31393FBF4F4124D2B689C4203D0E1B234
:101A3000052004F0CDF82C6038BD0E4B0E490F4A3E
:101A40001B680C6812681C1BA41A84F30704EAE7DD
:101A50009142D4BFC4EB0103C4EB0203DAE700BF39
:101A6000B299FF1F449AFF1F6C9AFF1F2E9AFF1F07
:101A7000349AFF1F009AFF1F2489FF1F649AFF1FDB
:101A800010B50C4C236843B90B4B1B88022B0CD0B0
:101A90000A4A00231370236010BD0021052004F0C2
:101AA00097F8054B1B88022BF2D10021412004F04E
:101AB0008FF8EDE7349AFF1FEC99FF1F629AFF1F22
:101AC00010B5254B1B787BB1152006F08FFD234AFE
:101AD000234B1288186082B9224A12883ABB224BE3
:101AE0001B78002B33D110BD112007F0C3FC1B4A1B
:101AF0001B4B12881860002AEED00F2007F0BAFCAA
:101B0000184B1A4A1B881060002BE8D0184A194954
:101B100012680968521A9042E1DC134C227892B99B
:101B2000022B0ED17F21412004F052F809E0124926
:101B30001B6809889942D2DC0B4C23781BB9022A16
:101B4000F0D001232370BDE81040FFF757BFBDE878
:101B50001040FFF795BF00BF849AFF1FB299FF1F87
:101B60006C9AFF1FEC99FF1F629AFF1F649AFF1F78
:101B7000009AFF1F2489FF1F449AFF1F2DE9F04F91
:101B800091B004AD0024E1B2744804F067FD013463
:101B90000C2C45F8040BF6D1714B724CB3F800E0F5
:101BA0000C9B00227345227014DB0A9B9E4500F3B8
:101BB000C080089B6C4A9E4503DD1378002B40F0E3
:101BC000C880069B9E4540F3BA804FF0020C84F813
:101BD00000C009E0089B644A9E45CCBF4FF0060C4C
:101BE0004FF0050C84F800C00E9F059E07980999D8
:101BF00082F800C0BE45D4BF00270127B645D4BF38
:101C00000026012686450B9ADFF898810D9B0F9DD3
:101C1000DFF894A1DFF894918AF80060D4BF002027
:101C200001208E45D4BF0021012188F8001096457F
:101C30004E49DFF87CB14E4E89F80000D4BF002237
:101C400001229E45D4BF002301230A70AE45494AB4
:101C50008BF80070D4BF002501250120137035706A
:101C600007F008FC444B454A1D681188444BA842C4
:101C7000D4BF002201220B291A7001D90C2901D0EE
:101C8000A8424EDC002301933E4B9AF800E01F78F7
:101C900099F800C098F800209BF800303349367856
:101CA00091F800903349DFF80CA191F80080247876
:101CB000A7EB4E07CCEB070CA2EB8202C3EB8377BA
:101CC0006244C3EB8703134403EB4903434403EB30
:101CD0008606BAF800202C4F0C2313FB046632440E
:101CE000019B3E600C3A1344A8421946274AC4BFE0
:101CF000274B1E701368994217D0264B264C186844
:101D00000290029820601B680393244C039B248854
:101D100011601B1AA34284BF214B196011B0BDE8AA
:101D2000F08FA1F10C030193AEE71B48194B00683B
:101D3000E9E74FF0040C84F800C00B4A54E7049B19
:101D40009E45C6BF4FF0010C84F800C04FF0000C58
:101D50004AE74FF0030C84F800C045E7389AFF1FAC
:101D6000189AFF1F4999FF1FF899FF1F8A9AFF1FB2
:101D70008C9AFF1FB499FF1F6C89FF1F889AFF1F61
:101D80004899FF1F5C89FF1F809AFF1F6899FF1FFA
:101D90008B9AFF1F6C9BFF1F9099FF1F909AFF1F4C
:101DA000A099FF1F869AFF1FAC99FF1F859AFF1FFE
:101DB000B099FF1F8099FF1F2DE9F04F0E208FB0C3
:101DC00006F014FC09F0AAFE01468948894D8A4FA5
:101DD00004F09EFD864804F071FD0AF0B9F880F326
:101DE0000C002860FFF7CAFE3E68012E00F0B080AC
:101DF000022EDFF870A200F0B081032E00F02782DF
:101E00007E4C7F4B7F4E019323687F4F0A930A9B42
:101E10003A689B1A022B1ED9DFF84C8298F80030E2
:101E2000002B00F0F483794B1A78002A0CBF0122B2
:101E300000221A7000F0E68398F80030002B40F082
:101E4000E983FFF7CFFCFEF719FFFFF739FC2368A2
:101E50000B930B9B3B6023686D4F0C930C9B3A6874
:101E60009B1A502B5CD86B4B31686B481A78183929
:101E70002A2303FB01F10160002A47D0674A136857
:101E8000994240F3598166480068D0F17F0048BF0D
:101E9000033003EBA0030133994280F25B811160B0
:101EA000604B1B68A92202FB03F3002BBCBF03F5A8
:101EB0007F533F339B13543B1944282081F30C017B
:101EC00006F01AFF2B68BAF80000019A83421288C4
:101ED0001FDA0024111A40F60B639942C3BF40F683
:101EE0000C62013102FB04F3634393FBF1F000F554
:101EF000FA70FEF7A9FE0146142006F0FDFE03F07D
:101F0000FBFE03F029FD0FB0BDE8F08F434B1960D5
:101F1000C6E79342D4BFC0EB0304C0EB0204D9E789
:101F200002F0CCFD404B1B7823B9404B1B78002BB3
:101F300000F0EE810D2007F075F8B0FA80F1490944
:101F40000D2007F069F823680D930D9B3B608AE72D
:101F5000374B384A18881378834204D0C3B21846E6
:101F6000137003F005FEDFF80481334AB8F800006F
:101F70001378834204D0314C2378002B40F0288220
:101F8000DFF8E0A02B68BAF800201C4C9A4280F2DF
:101F9000B98121682A4A079107982A4910600222CC
:101FA0000B603A60284B1F88002F61D1274B1B889C
:101FB000002B5DD1264B1F680E2006F017FBA7F201
:101FC0001F37874202DC234B00221A70224B1B88EA
:101FD000002B40F05183144E14482049204A33709E
:101FE00003700B701370064B064E01930CE700BF95
:101FF000BC99FF1F6499FF1F7499FF1F6C9BFF1F03
:10200000929AFF1FA099FF1F289AFF1F8699FF1F12
:10201000E899FF1F629AFF1F489AFF1FF499FF1F5C
:10202000349AFF1F6089FF1F7C99FF1FA499FF1F2F
:10203000B899FF1F309AFF1F759AFF1FE699FF1F7F
:102040003899FF1FE099FF1F5A9AFF1FDC99FF1F65
:102050000C9AFF1F7C9AFF1F4C9AFF1FFC99FF1FD1
:10206000A799FF1FB699FF1F749AFF1F8299FF1F40
:10207000DFF84CB3DFF84C93BBF80000B9F8003040
:10208000B649B74A18440B684010984205DA1368FD
:10209000984202DA002F40F08D83B24B02921F4625
:1020A0000E200391019306F0A1FA3F68029AA7F56A
:1020B000487E704580F29C81AB480088002800F083
:1020C00097810399BBF800C0B9F800000B6812684B
:1020D0000CEB00014910994280F29181914240F34A
:1020E0008E81A2480768791C002940F399858029D0
:1020F00000F395859E4E9F4A9F4B3688128801605B
:1021000018683244B0EB620FC0F2ED87A7F14802C5
:102110000F2A00F2D583994B0021473F0D201F80E5
:1021200006F07AFF962006F0B3FF01210D2006F09D
:1021300073FF019B1F683FE7BFF6B1AE9048006890
:10214000D0F17F0048BF0330801001301B1A994244
:102150003FF7A5AE13601946A2E62E68BAF8003024
:10216000B34280F2EF80874C874822680892874A02
:10217000089900681288091A914202D8002A7FF44F
:1021800040AE834A834912680191B242B8BF3246D9
:1021900093420888804940F32D86804A098813605D
:1021A000002900F00A83DFF8208288F800107C4EB6
:1021B000FEF7B4FD30687F2840F32986794B7F38DD
:1021C00083FB0032C317C3EB620303EB4303A0EBB3
:1021D00083007330744B03931B883060002B40F0F6
:1021E0004687724B02931B78002B00F07584DFF852
:1021F000DCB19BF80030002B00F06E846C4B049433
:102200004FF000094C4699460CE003F17300C0B250
:1022100098F8001003F004FD9BF800300134A3424D
:1022200040F35984336859F8040F5E4A1844A0F10A
:102230007F0382FB032ED917C1EB6E0101EB410135
:102240007F28A3EB8103E0DCFEF738F9DFE7D5F860
:102250000080BAF80010414540F30681554B1B78C9
:10226000002B40F00181544C20787F2840F35F8799
:10227000A3F155337F3803F1004383FB0032C317CA
:10228000C3EB620303EB4303A0EB83007330464BC5
:1022900003931B88C0B22070002B40F08387434B10
:1022A00002931B78002B00F0B685DFF820B19BF875
:1022B0000030002B00F0AF853D4EDFF8E8804FF096
:1022C00000090BE003F17300C0B203F0D1FC9BF8EE
:1022D000003009F101094B4540F39D8556F8043F54
:1022E00020781844A0F17F0388FB0321DA17C2EBA2
:1022F000610202EB42027F28A3EB8203E2DCFEF7DD
:10230000DDF8E1E72B4A1278002A3FF44BAE40E6B5
:10231000264B1B78002B7FF40DAE284B1B78002B2F
:102320007FF408AE234B1B78002B7FF403AE0D2007
:1023300006F078FE00287FF406AE01210D2006F09D
:102340006BFE00E61B4A1278002A7FF40CAF0123D3
:102350003B60104B0B4C124E019355E54C99FF1FFF
:10236000049AFF1F0C9AFF1FDC99FF1F809AFF1F22
:102370005E9AFF1FEE99FF1F789AFF1FB899FF1F03
:10238000349AFF1F6C9BFF1F3899FF1F249AFF1F71
:10239000E099FF1F929AFF1F4099FF1F149AFF1F99
:1023A000A099FF1FABAAAA2A7E99FF1FFC99FF1FC5
:1023B0008089FF1FA699FF1F229AFF1FA799FF1F61
:1023C000109AFF1F5C9AFF1F8599FF1F6889FF1FE6
:1023D000C3B21846137003F0D9FB904B904A1946CC
:1023E000904B18460023137023700B700370C7E5E1
:1023F000BBF80000B9F8001012680144491091427E
:10240000BFF6DAAD0E2006F0F1F8019B1F68A7F5C4
:1024100048729042BFF6D0AD83480278002A7FF41C
:10242000CBAD824E327801210170002A40F0158236
:102430007F4A1278002A40F084867E4A1278002A69
:1024400000F0E8867C4B1B78002B7FF4B5AD7B4B0E
:102450001B78002B3FF4B0ADB8F80030784A0A334F
:10246000A8F800301170A7E5764E30687F2840F359
:102470005981754B7F3883FB0032C317C3EB62036E
:1024800003EB4303A0EB83007330704C2778874243
:1024900000F058856E4B1B88002B00F046816D4B79
:1024A00001937F2F40F39D8467487F3F80FB073077
:1024B000FB17C3EB600000EB4000A7EB800073301C
:1024C000564B02931B78C0B22070002B40F0FE8365
:1024D000544B04931B78002B40F0D9855E4B059339
:1024E0001B78002B40F065865C4B0393059B1B78A3
:1024F000A3B35B4B22781B881344A3F118007F28F9
:1025000040F3ED85504A973B82FB0321DA17C2EB7B
:10251000610202EB4202A3EB820303F17300C0B23B
:1025200003F0A6FB4F4B504A1978237832F811205C
:102530001344A3F118007F2840F3CD85424A973B0E
:1025400082FB0321DA17C2EB610202EB4202A3EB2A
:10255000820303F17300C0B203F08AFB029B1B7875
:10256000002B00F0F284039B3C4F1988002900F0F7
:10257000858530687F2840F33984334B7F3883FB6F
:102580000032C317C3EB620303EB4303A0EB8300EA
:1025900073303060002940F0FE84029B1B78002BD2
:1025A00000F09281DFF8C8B09BF80030002B00F0FB
:1025B0008B812E4FDFF8BC804FF000090DE003F156
:1025C0007300C0B298F8001003F02AFB9BF80030AB
:1025D00009F101094B4540F37781336857F8040F3F
:1025E000194A1844A0F17F0382FB0321DA17C2EBDA
:1025F000610202EB42027F28A3EB8203DFDCFDF7DE
:102600005DFFDEE7FEF712FCFFF75AFA1FE4FEF764
:1026100085FB08E4FEF782FB13E400BFFC99FF1F73
:10262000A499FF1FA799FF1F7C9AFF1F4999FF1FBD
:10263000AC99FF1F859AFF1F869AFF1FB099FF1F55
:10264000E699FF1FA099FF1FABAAAA2A229AFF1F93
:102650004099FF1F929AFF1F7C99FF1F7E99FF1FD1
:10266000609AFF1F689AFF1F509AFF1F8089FF1F03
:102670006889FF1F8599FF1F002006F0FBFEA94B0C
:10268000A94F1A683978A94E9042D4BF002301237C
:102690009942337040D090423EDDA54A92F800C086
:1026A000BCF1000F00F0B784A24A92F80080B8F1A4
:1026B000000F40F0AE84A049A04EA14809780296D0
:1026C0004FF0010E059086F8008080F8008082F8B7
:1026D00000E0002940F081859A4A1278002A00F033
:1026E0001685994A049210461278002A40F00C850B
:1026F0009649934E0978327001220596027059B1BD
:102700008E498C4A029100211170029A059E117027
:10271000049A0120307011703B708D4B8D4E0193E7
:10272000FFF772BBFDF7CAFEAFE68B4A8848126816
:1027300001909142008805DC8242D4BFC1EB0203C4
:10274000C1EB0003411AB1F5804FC0F2B5849B0381
:10275000481C93FBF0F0FEF777FAC0F3C61009F0BF
:10276000DDF97E4B8046188809F0D8F97C4981460E
:10277000404609F027FA0146484609F023FA414647
:1027800009F018F94FF07E51804609F0B9FB002896
:1027900040F0FC847349404609F0D0FB002840F02B
:1027A000CA84404609F0FAFBC0B2DFF8E48188F839
:1027B000000076E66C4B019393E41A469042D4BF36
:1027C000C3EB0001C3EB0201C01AB0F5804FC0F2A9
:1027D0008C848A03013092FBF0F0FEF735FAC0F3E7
:1027E000C61009F09BF95D4B0646188809F096F96A
:1027F0005B498046304609F0E5F90146404609F05C
:10280000E1F9314609F0D6F84FF07E51064609F05D
:1028100077FB002840F0CA845249304609F08EFB0D
:10282000002840F08B84304609F0B8FBC0B2DFF8D6
:10283000608188F80000BAE43D4A1278002A7FF4EB
:10284000BBAB4A4A4A481278243A82F347020260F4
:10285000D1B25B2003F0BCF93278032A30D1394E73
:102860003178002940F02185424F3A78002A40F023
:102870000F85DFF8BC8098F80020002A40F0FB8428
:102880003D4A1278002A40F0E9843C490A802A4AED
:102890001278002A40F0D584394A7F21118032789D
:1028A00072B93A7862B998F800204AB9354E7F215A
:1028B0000720328003F08CF97F210B2003F088F988
:1028C000019B1F68FFF778BB049B1B78002B00F06F
:1028D00087803368A3F10C007F2840F3F9832A4AEC
:1028E0008B3B82FB0321DA17C2EB610202EB42024F
:1028F000A3EB820303F17300DFF89480C0B298F871
:10290000001003F08DF9029B1B78002B68D0DFF8D4
:1029100084B09BF80030002B62D01C4F4FF00009B0
:1029200047E000BF6C89FF1F699AFF1FA599FF1F31
:10293000B099FF1FA499FF1F8A9AFF1FFC99FF1FE0
:102940007C99FF1FAC99FF1FA799FF1F4899FF1F94
:10295000929AFF1FA099FF1F149AFF1F5099FF1F03
:10296000CDCCCC3D0000FE420C9AFF1F8B9AFF1F7E
:102970003C9AFF1F869AFF1F859AFF1F209AFF1F10
:102980004099FF1F6299FF1FABAAAA2A8089FF1FE7
:102990008599FF1F6889FF1F03F17300C0B298F883
:1029A000001003F03DF99BF8003009F101094B4597
:1029B00016DD336857F8042FAF491A44A2F18B0390
:1029C00081FB0310D917C1EB6001A2F10C0001EBF0
:1029D00041017F28A3EB8103DEDCFDF76FFDDDE71E
:1029E000059B1B78002B40D0A44A336812881344FF
:1029F000A3F118007F2840F368839F4A973B82FB2E
:102A00000321DA17C2EB610202EB4202A3EB82035D
:102A100003F17300DFF8B082C0B298F8001003F041
:102A2000FFF897490B78022B9ABF5A1CD2B20022AA
:102A30000A709449336831F812201344A3F1180046
:102A40007F2840F33F838C4A973B82FB0321DA17B0
:102A5000C2EB610202EB4202A3EB820303F17300BB
:102A600098F80010C0B203F0DBF8039B1B88002B22
:102A700000F08B82029B1B783BB9049B1B7823B927
:102A8000059B1B78002B00F0D8837F4B1B78002B15
:102A900000F0EF807D490B78082B00F2EA807C483B
:102AA000326800687B4F0133DBB203F1FF3E101A3E
:102AB00047F82E000B70BAF80010D5F8008022708D
:102AC0004145754CBFF6A0A92268744B0992099A3A
:102AD0001A60FFF799B9049C6B4B1B78002B40F0F0
:102AE000638233686E4A1278002A4AD0A3F10C0040
:102AF0007F2840F30083604A8B3B82FB0321DA1777
:102B0000C2EB610202EB4202A3EB820303F173000A
:102B1000C0B298F8001003F083F8029B1B787BB3D7
:102B2000DFF868B19BF8003053B35E4B02944FF06E
:102B300000094C4699460BE003F17300C0B298F8C7
:102B4000001003F06DF89BF800300134A34216DD4D
:102B5000336859F8041F484A1944A1F18B03D81768
:102B600082FB032EC0EB6E0EA1F10C000EEB4E0E9D
:102B70007F28A3EB8E03DFDCFDF7A0FCDEE7029CE1
:102B80003368494A1278002A3ED03C4A10880344F0
:102B9000A3F118007F2840F3B482374A973B82FBA9
:102BA0000321DA17C2EB610202EB4202A3EB8203BC
:102BB00003F17300C0B298F8001003F031F8304907
:102BC0000B78022B9ABF5A1CD2B200220A702D49F0
:102BD000336831F812201344A3F118007F2840F322
:102BE0008D82254A973B82FB0321DA17C2EB6102F3
:102BF00002EB4202A3EB820303F17300C0B298F828
:102C0000001003F00DF83368039A1288002A00F0D0
:102C1000F981264903220B703A60FFF7F5B8802648
:102C20002349244A0F8824491288096806603A44D7
:102C3000B1EB620FBFF644AE204A1178002940F094
:102C40009281B8F800201E48B2423FF439AE1D4AC6
:102C5000068001260D20167006F0DEF9962006F09B
:102C600017FA31460D2006F0D7F9019B1F68FFF7D0
:102C7000A3B932681FE700BFABAAAA2A609AFF1F58
:102C8000689AFF1F509AFF1FA499FF1F6889FF1FB2
:102C9000A899FF1F8489FF1F6C9BFF1F1C9BFF1FB0
:102CA000A799FF1F8089FF1F7C99FF1F229AFF1F92
:102CB0005E9AFF1FEE99FF1F789AFF1F4899FF1F2A
:102CC0008299FF1FE699FF1F8599FF1FBC4B039355
:102CD0001B88002B40F00883BA4B0493BA4B059332
:102CE000DFF81CB39BF8003063B3B84FDFF8E08225
:102CF0004FF000090AE003F17300C0B202F0B8FF20
:102D00009BF8003009F101094B451BDD57F8043FE2
:102D100020781844A0F17F0388FB0321DA17C2EB67
:102D2000610202EB42027F28A3EB8203E3DCFDF7A2
:102D3000C5FBE2E7A44B059302F09AFF029B1B78C8
:102D4000002BCDD1049B1B78002B3FF4CFAB237815
:102D5000A3F10C007F2840F397819D4A8B3B82FBB7
:102D60000321DA17C2EB610202EB4202A3EB8203FA
:102D700003F17300C0B202F07BFF029B1B78002BB3
:102D800000F08E81DFF878B29BF80030002B00F065
:102D90009D828E4FDFF838824FF000090BE003F17F
:102DA0007300C0B202F064FF9BF8003009F1010922
:102DB0004B457FF79BAB57F8043F22781A44A2F1AA
:102DC0008B0388FB0310D917C1EB6001A2F10C0043
:102DD00001EB41017F28A3EB8103E0DCFDF76EFBF3
:102DE000DFE73846FDF76AFBFFF76ABBFDF766FBD6
:102DF000FFF7CFBB774E09888242A8BF02463260F8
:102E000000297FF4D0A993423FF7DEACD6E4FDF76A
:102E100055FBFFF7DFB96B4B1B78002B43D02378B2
:102E2000A3F10C007F2840F3CC81694A8B3B82FBE5
:102E30000321DA17C2EB610202EB4202A3EB820329
:102E400003F17300C0B202F013FF029B1B7853B36F
:102E5000DFF8ACB19BF800302BB35C4EDFF870812B
:102E60004FF000090AE003F17300C0B202F000FF66
:102E70009BF8003009F101094B4514DD56F8043F79
:102E800020781844A0F18B0388FB0321DA17C2EBEA
:102E900061020C3802EB42027F28A3EB8203E2DCE2
:102EA000FDF70CFBE1E7484B1B78A3B34A4B2278B4
:102EB0001B881344A3F118007F2840F38881444AFB
:102EC000973B82FB0321DA17C2EB610202EB42025D
:102ED000A3EB820303F17300C0B202F0C9FE3F4BC3
:102EE0003F4A1978237832F811201344A3F11800CF
:102EF0007F2840F36981364A973B82FB0321DA172A
:102F0000C2EB610202EB4202A3EB820303F1730006
:102F1000C0B202F0ADFE039B1B88002B00F03E8187
:102F2000304B1B78002B40F034812A4BBAF800104C
:102F3000D5F800802C4E00221A6001233B602B4BF9
:102F40000193BDE5294B0193BAE5049B1B78002B47
:102F50007FF409AB059B1B78002B7FF404AB039B2C
:102F60001988FFF706BB4B2E40F302811836802EDE
:102F7000B8F800201E49A8BF802696423FF4A0ACB6
:102F80001C4A0E800126002164E61B4B307819781C
:102F900002F046FE6EE5DFF86080C0B298F80010DF
:102FA00002F03EFEFFF7F9BA7F21402002F010FE4A
:102FB0001249134A33680B600021117092E500BF7B
:102FC0007E99FF1FA799FF1F7C99FF1F8089FF1F14
:102FD000ABAAAA2A149AFF1F609AFF1F689AFF1FC4
:102FE000509AFF1FA499FF1FA099FF1F929AFF1FDD
:102FF0008299FF1FE699FF1F8599FF1FA899FF1F60
:103000006889FF1FD8B298F8001002F009FE3368F3
:10301000FFE500211170B74A117841B1B64A02921A
:103020001278002A00F0D680029800220270B34A7B
:103030001278002A7FF455ABBCF1000F67D100294C
:1030400065D1AF48AC4E90F800E0AE480490AE4871
:103050000590AC48AD4A0170AB48029611703170D2
:103060000170BEF1000F3FF457ABFFF74CBBC0B28D
:1030700098F8001002F0D4FDFFF7B3B8207802F002
:10308000F7FD3988FFF775BAFDF718FA72E6A04B1D
:1030900003931B88002B7FF44DAE9B4B059356E6A4
:1030A000059B1B78002B7FF424AA049B1B78002B24
:1030B0003FF455AFFFF757BAC3EB833393FBF1F0FF
:1030C000FFF749BBFDF7FAF9CAE4FDF7F7F9A1E408
:1030D000FDF7F4F910E4FDF7F1F9FFF73CBAFDF75D
:1030E000EDF9FFF71CBA0E46A6E5C1EB813191FB65
:1030F000F0F0FFF772BBFDF7E1F909E5FDF7DEF946
:103100007CE5FDF7DBF955E5049900220A707C4A5D
:103110001278002A3FF400AB7B4A05921278002A0D
:1031200000F0DB80059900220A70FFF7F5BAFDF781
:10313000C5F9FFF7ACB87F20FFF737BB7F20FFF75B
:1031400076BB744B1B78002B51D0734B1B78002B34
:103150007EF432AF714B1B78002B3EF42DAFB8F8E4
:1031600000306F4A0A3BA8F800301170FEF724BF08
:10317000243E002EB8F8002040F3A380B2423FF472
:103180009FABB6B2664AA8F80060FBE60120FFF7E5
:103190000CBB0021402002F01BFDC6E6207802F0A7
:1031A00067FDBDE602F064FDFFF779B80120FFF787
:1031B0003EBB574B03931B88002B7FF4BDADFFF73D
:1031C00095B9FDF77BF93DE6FDF778F9A0E6FDF747
:1031D00075F981E64C484D4A059000261670029814
:1031E000059A4FF0010E80F800E016701FE74A4B79
:1031F0001B78002B7EF4E0AE484B1B78002B3EF48E
:10320000DBAEB8F80030464A013BA8F80030117038
:10321000FEF7D2BE404A1278002A7FF40DAB3F4B36
:103220001B78002B3EF4C8AEB8F800303C4A01339E
:10323000A8F800301170FEF7BFBE207802F018FD2C
:1032400023E4384A002010807F21072002F0C0FCD0
:103250007F210B2002F0BCFCFFF721BB324A01208A
:1032600010807F21072002F0B3FC7F210B2002F0A9
:10327000AFFCFFF70CBB2D4A042010807F210720F4
:1032800002F0A6FC00210B2002F0A2FCFFF7F8BA26
:10329000264A022010807F21072002F099FC7F211E
:1032A0000B2002F095FCFFF7E4BA204800210280D1
:1032B000072002F08DFC7F210B2002F089FCFFF734
:1032C000D3BA012A3FF4FCAA01265BE7059B1B78D1
:1032D000002B7FF40EA9FFF746B90749029109496F
:1032E0000A4A0491FFF70FBA064B0493064B059365
:1032F00022E500BF8A9AFF1FFC99FF1FAC99FF1FB0
:103300004899FF1FA799FF1F7C99FF1FA499FF1FD2
:103310007E99FF1F859AFF1F869AFF1FB099FF1F96
:10332000E699FF1F4099FF1F209AFF1F6299FF1F18
:1033300010B505F0F7F9064803F028F900234FF01F
:103340007E5204480121BDE8104003F07DBA00BF61
:10335000389AFF1FBC99FF1F43682A20198801F083
:1033600033B900BF10B5044622206368198801F004
:103370002BF9E36824201988BDE8104001F024B936
:1033800010B504460A206368198801F01DF9E36846
:103390000C201988BDE8104001F016B910B504469C
:1033A00006206368198801F00FF9E368082019887E
:1033B000BDE8104001F008B910B50446022063686A
:1033C000198801F001F9E36804201988BDE810406C
:1033D00001F0FAB870B50E4C84B012250422012316
:1033E00006460390029320468DE824001423102102
:1033F00004F06CFB062209230293039601952046F4
:1034000000921423102104F061FB04B070BD00BFD2
:10341000AC9AFF1F2DE9F041224D82B0012602B285
:1034200084B20092284601967823192104F094FA78
:1034300004F10C0212B28DE844002846A719782343
:10344000192104F1020804F087FA3FB20FFA88F854
:1034500019233A46284619460196CDF8008004F013
:103460007BFA78233A4628461946CDF80080019623
:1034700004F10A070B3404F06FFA3FB224B2782348
:103480003A46284619468DE8500004F065FA19239B
:1034900000943A4601962846194604F05DFA02B0B7
:1034A000BDE8F081AC9AFF1F2DE9F0411E4682B0C5
:1034B0001446002A6AD0099B4D4A00EBC305012C33
:1034C0006F8929896868A7EB010382FB03E21A442C
:1034D0004FEAE373C3EBA21302887BD0042C38D1EC
:1034E00012FA83F3994203DC9F423946A8BF19467A
:1034F000089A0180B6F90030BDF920803D48971D3B
:103500004FF0000E3FB2194642460097CDF804E056
:1035100004F022FA29896A896B68521A1B885C2A8E
:10352000A3EB010359DD03EB43030132C3EB431368
:1035300093FBF2F303F11B0213B201203280194610
:103540004246019000972B4804F006FA2A4B0022CD
:103550001A702A4B022CB3F9001045D0082C31D137
:1035600000221A8091422DD0089AB6F900302148E5
:103570000632012412B2009219460194BDF92020AE
:1035800004F0EAF9204602B0BDE8F0811C4D1D4A66
:103590002B681268CB1A93420F4617D9164A338804
:1035A00011781448012918BF01241470089A0632B2
:1035B0001BB212B28DE814001946BDF9202004F0A8
:1035C000CBF92F60012002B0BDE8F081204602B0A7
:1035D000BDE8F0819BB2D31A84E75C2101FB03F3C1
:1035E00093FBF2F21B32A7E74A1C12B21A80B9E72A
:1035F000C94216B2AC9AFF1F209BFF1F9E9AFF1F65
:103600001C9BFF1F10D4000030B583B000230C4674
:1036100005B2009326225B231C210C4803F0ECFE2C
:10362000294601232622094803F0F6F9002C24B28A
:1036300005DB214601232622044803F0EDF9044A64
:10364000044B15801C8003B030BD00BFAC9AFF1F37
:10365000AA89FF1FAC89FF1F70B5944C237882B0F4
:103660001BB1934B4FF6FF721A80924BB3F90030A7
:10367000C3B9914A8E4B1068B3F9002080F30C0057
:103680005B2303FB00F000131C3082425AD04FF042
:10369000FF31FFF7B9FF894803F012FF00232370C1
:1036A00002B070BD012B32D0022B6AD0032B4FD059
:1036B000042BF3D1272200258DE8240076231C213A
:1036C0007E487F4E04F048F917E0B0F5AF7FA8BF01
:1036D0004FF4AF70323803FB00F386FB0321DB1796
:1036E000C3EB61111C3109B201231D442722734829
:1036F00003F092F90C2D00F08180E9B2714802F0DC
:10370000ADFF31284FF05B03DFDC1C21ECE76E4B93
:103710001A68B2F52F7F32DB41F25C239342A8BFD7
:103720001346A3F52F735B22684802FB03F380FB6B
:103730000320DB17C3EBA0201C305D4BB3F9003036
:103740008342A4D1624BB3F9003001339FD1A5E786
:10375000604B1B68B3F5FA7F11DBB3F57A6FA8BF36
:103760004FF47A63A3F5FA725B485B2303FB02F321
:1037700080FB0320DB17C3EB20201C30DDE71C207F
:10378000DBE7564B1B68B3F5FA7F33DBB3F57A6F93
:10379000A8BF4FF47A63A3F5FA724F485B2303FB8B
:1037A00002F380FB0320DB17C3EB20201C304C4BC3
:1037B0001B68B3F5FA7F1FDBB3F57A6FA8BF4FF430
:1037C0007A63A3F5FA7244495B2303FB02F381FB9E
:1037D0000321DB17C3EB21211C31354BB3F900303A
:1037E00083427FF456AF3A4BB3F900308B427FF4FB
:1037F00050AF53E71C20DAE71C21EEE7012005F06B
:1038000039FE6FF495733238364A03FB00F082FBC1
:103810000023C017C0EB632303F5AF73312B3ADDF0
:10382000B3F5AF7FA8BF4FF4AF735B22323B244D9B
:1038300002FB03F385FB0325DB17C3EB65151C3582
:10384000002005F017FE6FF495733238254A03FB0C
:1038500000F082FB0023C017C0EB632303F5AF73B6
:10386000312B1ADDB3F5AF7FA8BF4FF4AF735B22E6
:10387000323B134902FB03F381FB0321DB17C3EB4C
:1038800061111C310A4BB3F90030AB4207D0284616
:10389000FFF7BAFEFFE61C25D2E71C21F2E70C4B2E
:1038A000B3F900308B42F2D1F5E600BF949AFF1FC6
:1038B000AA89FF1F9A9AFF1F6499FF1FAC9AFF1FE6
:1038C0004B48371B389AFF1F6C9AFF1FD305854161
:1038D000AC89FF1F789AFF1F011FB8124C99FF1F78
:1038E000049AFF1F67BBCF462DE9F04FDFF8EC824B
:1038F000B74CB8F900604D7854F8264087B082463E
:10390000039305B10D78DFF8FCB2002A34D19BF89F
:1039100000308BBBAF4EB6F90000002800F0CE801F
:10392000012800F02481012032232A4601900093CF
:103930005146A94B2046FFF7B7FD00250746B6F9CB
:103940000030022B40F3F48000233380B8F90030BC
:10395000A24A002BC0F2F880042BC4BF00231380BE
:10396000039B002B40F0F680002D0CBF38464FF033
:10397000FF3007B0BDE8F08F964EE36822689848A4
:1039800004930027059237808BF8007003F08CFCBD
:103990001120FFF73FFD4FF0010919232821CDF831
:1039A00004900091242219468D4803F0D5FF782316
:1039B00028212422CDF8049000918948194603F06B
:1039C000CBFF4946864804F05DFB0222192184485A
:1039D00004F054FBDDF81490484608F071FE4946A7
:1039E00002467F4804F04EFC7D4804F061FC3946F5
:1039F00014227B4804F042FB03227A49784804F001
:103A000041FC774804F054FC39462322744804F002
:103A100035FB03227449724804F034FC704804F00A
:103A200047FC049B002B72D10123704A1846137087
:103A3000FFF7D0FC208963896768191A5C293A88E6
:103A40005BDC131A5C2202FB03F292FBF1F31B33E3
:103A5000674A6348138001271BB21A2219468DE872
:103A60008400142203F078FF049BDBB1218A638A6F
:103A7000E768581A5C283A886FDD521A02EB420256
:103A8000C2EB4212431C92FBF3F31B33524A5448DD
:103A90001380012738221BB28DE884001946322298
:103AA00003F05AFF534A544BB6F90000012111703C
:103AB0004FF6FF721A8000287FF432AFDFF848918A
:103AC0004E4AD9F800301268C3EB0A0393424CD92E
:103AD000464B1A78012A18BF012018700127FFF7FA
:103AE00079FCC9F800A0012D4ED0042D59D0022D2B
:103AF00060D0082D64D0002521E7121A02EB4202A3
:103B0000C2EB42124B1C92FBF3F31B33A0E72F20B6
:103B1000FFF780FC39463222314804F0AFFA032225
:103B200037492F4804F0AEFB2D4804F0C1FB7BE77A
:103B30007FF40CAFE368002B3FF406AFB8F9003018
:103B4000264A002BBFF608AF04231380039B002BEB
:103B50003FF40AAFFFF780FD06E7511A5C2202FB33
:103B600001F292FBF0F31B3390E70746BBE7002717
:103B700014238DE888002A4651461D4B2046FFF746
:103B800093FC3D460746DAE6B8F800308BF8005063
:103B90000133A8F80030636983B1002520469847B7
:103BA000CDE6B8F800300122013BA8F800308BF8D0
:103BB0000020F0E7012333800025C7E61D46BEE65E
:103BC0006369002232804FF0FF35002BE6D1BDE65D
:103BD000B089FF1F9E9AFF1F989AFF1F9A9AFF1F96
:103BE000AC9AFF1FD4CD0000D8CD0000209BFF1F52
:103BF000969AFF1F949AFF1FAA89FF1F10D40000F6
:103C0000DCCD00009C9AFF1F1C9BFF1F064B074A40
:103C100010B41C88064B0846002C14BF11461946E8
:103C2000042210BC08F0BABD5A9AFF1FF8D4000055
:103C3000FCD40000064B074A10B41C88064B08460B
:103C4000002C14BF11461946042210BC08F0A6BD72
:103C5000DC99FF1FF8D40000FCD40000064B074A93
:103C600010B41C88064B0846002C14BF1146194698
:103C7000042210BC08F092BD089AFF1FF8D400007F
:103C8000FCD40000064B074A10B41C88064B0846BB
:103C9000002C14BF11461946042210BC08F07EBD4A
:103CA0004C9AFF1FF8D40000FCD40000064B074AD2
:103CB00010B41C88064B0846002C14BF1146194648
:103CC000042210BC08F06ABD209AFF1FF8D400003F
:103CD000FCD4000070B5284E05460FCE86B06C4669
:103CE0000FC496E8030044F8040B2320218004F05D
:103CF0007DFC40F6B833984230DC204B40F6F502AC
:103D000019889B78ADF80D1090428DF80F302DDD9D
:103D100000EB40001A4B1B491B4E00EB0010C21772
:103D200083FB0043C2EB632381FB0314D917C1EB70
:103D3000A40101EB810186FB0040C2EB6030A3EBE4
:103D40004103303030338DF811008DF8133069465F
:103D50002846162208F022FD06B070BD0B4B1A88CB
:103D60009B78ADF80D208DF80F30D1E7084B18681F
:103D7000CDF81100EBE700BF10D5000000D5000022
:103D8000976A3E2B676666668BAA30450CD50000A5
:103D900004D50000F8B5174C174E2278174D33782C
:103DA0002F888E46003218BF012201467046FFF769
:103DB0009BFD002398423370237015DB14BF012054
:103DC00000202B889F420ED040F23A72A3F5AF73C9
:103DD0000B490C4C02FB03F381FB0312DB17A3EB33
:103DE000621332332360F8BD0749012218460A7076
:103DF0002270E6E7E48AFF1F3E9BFF1F189AFF1F11
:103E0000B5814E1B6C89FF1FA49AFF1F08B50021C6
:103E10000D2005F001F9962005F03AF901210D2059
:103E200005F0FAF8962005F033F900210D2005F091
:103E3000F3F8962005F02CF901210D20BDE808408B
:103E400005F0EAB8014B187801F0DEBF8C99FF1F2E
:103E5000144BB3F9003070B583EAE375A5EBE37555
:103E6000002BACB21ADB012300E0034603EB830016
:103E700040008542F9DA0C4E94FBF3F086FB03E533
:103E800003FB1044DB173030D3EBA503A4B201F8D9
:103E9000010BF1D105480B70106070BD2D230B7024
:103EA0000131E0E77099FF1F6766666628D500005C
:103EB000134BB3F9003030B583EAE374A4EBE37439
:103EC000002BA0B218DB012300E0134603EB8302B2
:103ED00052009442F9DA0B4D90FBF3F285FB03E4B8
:103EE00003FB1200DB173032D3EBA40380B201F8DE
:103EF000012BF1D10B7030BD2D230B700131E2E7A6
:103F0000A889FF1F67666666134BB3F9003030B5AA
:103F100083EAE374A4EBE374002BA0B218DB012363
:103F200000E0134603EB830252009442F9DA0B4D92
:103F300090FBF3F285FB03E403FB1200DB17303246
:103F4000D3EBA40380B201F8012BF1D10B7030BD8B
:103F50002D230B700131E2E76489FF1F67666666F7
:103F6000134BB3F9003030B583EAE374A4EBE37488
:103F7000002BA0B218DB012300E0134603EB830201
:103F800052009442F9DA0B4D90FBF3F285FB03E407
:103F900003FB1200DB173032D3EBA40380B201F82D
:103FA000012BF1D10B7030BD2D230B700131E2E7F5
:103FB0006A89FF1F67666666134BB3F9003030B538
:103FC00083EAE374A4EBE374002BA0B218DB0123B3
:103FD00000E0134603EB830252009442F9DA0B4DE2
:103FE00090FBF3F285FB03E403FB1200DB17303296
:103FF000D3EBA40380B201F8012BF1D10B7030BDDB
:104000002D230B700131E2E76689FF1F6766666644
:10401000134BB3F9003030B583EAE374A4EBE374D7
:10402000002BA0B218DB012300E0134603EB830250
:1040300052009442F9DA0B4D90FBF3F285FB03E456
:1040400003FB1200DB173032D3EBA40380B201F87C
:10405000012BF1D10B7030BD2D230B700131E2E744
:104060007089FF1F67666666F0B40C4D0C4F0E46F4
:104070000FCD8CB001AC0FC40FCD0FC495E8070075
:104080003B8884E807000CAA02EB8303304653F810
:104090002C1C04220CB0F0BC08F080BB64CE0000E5
:1040A0006299FF1F30B40A4B0A4D0C4693E8070093
:1040B00084B02B8804AD05E9070005EB8303204697
:1040C00053F80C1C042204B030BC08F067BB00BFDE
:1040D00090CE0000EC99FF1FF0B40A4D0A4F0E4637
:1040E0000FCD86B001AC0FC42A683B88226006AAB7
:1040F00002EB8303304653F8141C0C2206B0F0BCCC
:1041000008F04CBB9CCE0000589AFF1F054B1B8843
:104110001BB9054B186808607047044B18680860A5
:10412000704700BF7E99FF1F30D500002CD50000DE
:10413000164B1B880BB31BB230B583EAE374A4EBB8
:10414000E374002BA0B21CDB012300E0134603EB59
:10415000830252009442F9DA0D4D90FBF3F285FB95
:1041600003E403FB1200DB173032D3EBA40380B26D
:1041700001F8012BF1D10B7030BD064B18680860B7
:1041800070472D230B700131DEE700BFFA99FF1F46
:1041900067666666FCD40000164B1B880BB31BB227
:1041A00030B583EAE374A4EBE374002BA0B21CDB0C
:1041B000012300E0134603EB830252009442F9DA34
:1041C0000D4D90FBF3F285FB03E403FB1200DB17BC
:1041D0003032D3EBA40380B201F8012BF1D10B7084
:1041E00030BD064B1868086070472D230B700131F5
:1041F000DEE700BF2C9AFF1F67666666FCD40000EE
:10420000164B1B880BB31BB230B583EAE374A4EBE7
:10421000E374002BA0B21CDB012300E0134603EB88
:10422000830252009442F9DA0D4D90FBF3F285FBC4
:1042300003E403FB1200DB173032D3EBA40380B29C
:1042400001F8012BF1D10B7030BD064B18680860E6
:1042500070472D230B700131DEE700BF4099FF1F2F
:104260006766666634D50000174B1B881BB31BB20C
:1042700070B583EAE375A5EBE375002BACB21EDBEA
:10428000012300E0034603EB830040008542F9DA96
:104290000E4E94FBF3F086FB03E503FB1044DB17A3
:1042A0003030D3EBA503A4B201F8010BF1D10848DB
:1042B0000B70106070BD074B1868086070472D23A5
:1042C0000B700131DCE700BF249AFF1F676666664A
:1042D00038D50000FCD40000164B1B880BB31BB272
:1042E00030B583EAE374A4EBE374002BA0B21CDBCB
:1042F000012300E0134603EB830252009442F9DAF3
:104300000D4D90FBF3F285FB03E403FB1200DB177A
:104310003032D3EBA40380B201F8012BF1D10B7042
:1043200030BD064B1868086070472D230B700131B3
:10433000DEE700BF5099FF1F67666666FCD4000089
:10434000184B1A8852B3184A128830B50A80B3F94C
:104350000030002B83EAE374A4EBE374BCBF2D238D
:104360008B70A0B2ACBF02310331012300E01346D1
:1043700003EB830252009442F9DA0C4D90FBF3F206
:1043800085FB03E403FB1200DB173032D3EBA403FD
:1043900080B201F8012BF1D10B7030BD044B1868CD
:1043A00008607047329AFF1F3CD50000676666665A
:1043B000FCD40000174B1B881BB31BB270B583EAFB
:1043C000E375A5EBE375002BACB21EDB012300E027
:1043D000034603EB830040008542F9DA0E4E94FB5E
:1043E000F3F086FB03E503FB1044DB173030D3EB1F
:1043F000A503A4B201F8010BF1D108480B701060BD
:1044000070BD074B1868086070472D230B70013191
:10441000DCE700BF909AFF1F6766666638D500002C
:10442000FCD40000054B1B881BB9054B18680860BD
:104430007047044B18680860704700BFB299FF1FAF
:1044400044D5000040D50000054B1B881BB1054B2F
:10445000186808607047044B18680860704700BF10
:104460008E9AFF1F4CD5000048D50000F0B480EABA
:10447000E075A5EBE0750028ACB21FDB1DBF2B2358
:104480000B704E1C0E46012300E0134603EB830223
:1044900052009542F9DA0B4F94FBF3F287FB0305C8
:1044A00003FB1244DB173032D3EBA503A4B206F8AA
:1044B000012BF1D133700846F0BC70472D230B70EF
:1044C0004E1CE0E767666666054B18880C2803D02B
:1044D0000C3800B2FFF7CABF024A10680860704784
:1044E000889AFF1F50D50000024B1888183800B278
:1044F000FFF7BCBF609AFF1FC3681888183800B266
:10450000FFF7B4BF034B1888A0EB8000400000B257
:10451000FFF7ACBF8C99FF1F024B1888033800B21D
:10452000FFF7A4BFE499FF1F024B18880C3800B2B4
:10453000FFF79CBF8099FF1F30B5134C85B0012554
:104540002B463C2202212046009502F0D3FC204657
:1045500002F0AAFE00224021802320460191009310
:1045600011460A4B029503F04DFB204602F0A8FFCE
:1045700007480849084A0023036083800B608B804A
:104580001360938005B030BDAC9AFF1F08CF0000C8
:104590000C9BFF1F389BFF1F289BFF1F10B500EBD4
:1045A000C00000F10F02D2B293B284B09C1E981CDE
:1045B0003D2303918DE819003921024803F086FA62
:1045C00004B010BDAC9AFF1F70B5CEB20C460546C4
:1045D00004F0F0F8864203D03146284604F004F98E
:1045E0000135284604F0E6F8240A844205D0214625
:1045F0002846BDE8704004F0F7B870BD38B5FDF747
:10460000BDFA0D4B1B7833B90C4B10201988FFF7FE
:10461000DBFF012038BD0A4D0A4C2B782288B3FA03
:1046200083F382F008025B09114642202B7022803E
:10463000FFF7CAFF002038BD4899FF1FB899FF1F38
:10464000749AFF1FAE99FF1F024B10201988FFF7C5
:10465000BBBF00BFB899FF1F024B4E201988FFF760
:10466000B3BF00BF7E99FF1F024B44201988FFF79C
:10467000ABBF00BF609AFF1F024B2C201988FFF7C9
:10468000A3BF00BF1A9AFF1F024B1E201988FFF715
:104690009BBF00BFFA99FF1F70B55C4D2B78064693
:1046A000002B35D11C4673780BB9204670BDFDF741
:1046B00065FA574A574B5848127831781B7800787A
:1046C00002EB43034A1E03EB80030E2AEDD801A040
:1046D00050F822F06147000083470000AB4600001D
:1046E00061470000AB460000AB460000AB4600004F
:1046F0002B470000AB460000AB460000AB46000075
:10470000AB460000AB460000AB4600002747000068
:10471000AE21424802F078FB404802F0C5FD00237C
:104720002B700124BFE704F0C5FF3D4B3D491B78CA
:10473000002B3DD03C4B3D4A09881B8812680B4436
:10474000B2EB630F59DA3A4B1B78002B4BD0AF21F9
:10475000324802F059FB374A012313702B70A4E74B
:1047600083B93548038804294FF6FF7103F1FF32FE
:104770000CBF01230B46134403F07F030133038076
:104780000FE073B1013B2D4A32F813304BB12A4E82
:104790002B482C492C4A33800123002606700B70CD
:1047A0001370244A0221012311702B70204670BD22
:1047B0001D4B1E4A09881B8812680B44B2EB630F1D
:1047C000C5DB224E224D33882A88B3FA83F382F068
:1047D00002025B093380114642202A80FFF7F4FE73
:1047E000FFF714FB61E7AF210C4802F00DFB114A03
:1047F0000621012311702B7057E7164E144D338894
:104800002A88B3FA83F382F00402E2E7E48AFF1F06
:104810008A9AFF1FB499FF1F8C9AFF1FAC9AFF1F43
:104820004899FF1F5E9AFF1FEE99FF1F789AFF1F9E
:10483000A599FF1FA49AFF1F8299FF1F5499FF1F7C
:10484000759AFF1FE699FF1F149BFF1F5A9AFF1FBF
:10485000AE99FF1FDC99FF1FC3680E201988FFF770
:10486000B3BE00BF024B28201988FFF7ADBE00BFC2
:10487000E499FF1F064A07491388098823F00203B9
:1048800043EA41039BB2194642201380FFF79CBEC6
:10489000AE99FF1F5A9AFF1F064A074913880988D5
:1048A00023F0040343EA81039BB21946422013809C
:1048B000FFF78ABEAE99FF1FDC99FF1F064A074922
:1048C0001388098823F0100343EA01139BB21946A9
:1048D00042201380FFF778BEAE99FF1F089AFF1F92
:1048E000064A07491388098823F0200343EA411345
:1048F0009BB2194642201380FFF766BEAE99FF1F98
:104900004C9AFF1F024B5A201988FFF75DBE00BF6B
:104910007099FF1F024B16201988FFF755BE00BF84
:104920004099FF1F024B2E201988FFF74DBE00BF94
:10493000249AFF1F024B30201988FFF745BE00BFA5
:104940005099FF1F024B18201988FFF73DBE00BF8A
:10495000EC99FF1F024B1A201988FFF735BE00BFE4
:10496000329AFF1F024B1C201988FFF72DBE00BF93
:10497000589AFF1F024B20201988FFF725BE00BF61
:10498000909AFF1F024B32201988FFF71DBE00BF0F
:10499000889AFF1F024B52201988FFF715BE00BFEF
:1049A000A889FF1F024B50201988FFF70DBE00BFDA
:1049B0006489FF1F024B54201988FFF705BE00BF12
:1049C0006A89FF1F024B5C201988FFF7FDBD00BFFD
:1049D0006689FF1F024B5E201988FFF7F5BD00BFF7
:1049E0007089FF1F024B60201988FFF7EDBD00BFE3
:1049F000B299FF1F024B56201988FFF7E5BD00BF93
:104A00008E9AFF1F38B5054603F0D4FE4FF0000420
:104A100060F30704681C03F0CDFE60F30F24A0B21E
:104A200038BD00BF38B5094D46242046FFF7EAFFE0
:104A300035F8021B00B28842204601D0FFF7C4FDC2
:104A40000234E4B24E2CF0D138BD00BF509AFF1FA3
:104A500008B51220FFF7D6FF054B1988884206D00B
:104A60001220FFF7B1FDBDE8084001F04DB908BDC7
:104A70006299FF1F08B55820FFF7C4FF054B19883E
:104A8000884206D05820FFF79FFDBDE8084001F09E
:104A90003BB908BD2C9AFF1F08B51420FFF7B2FFE1
:104AA000054B1988884206D01420FFF78DFDBDE81C
:104AB000084001F029B908BD209AFF1F014B0122CF
:104AC0001A7070473E9BFF1FF0B585B003F02AFEB9
:104AD0004D4C4E4B02934E4A0192042300932046C4
:104AE0004C4B4D4F4D4E4E4D4022802102F00AF866
:104AF00020464C4C4C4A4D4907F070FAA7614C488F
:104B00004C4FE7614C4F87614C494D4FC7614D4F4A
:104B10008F614D4A4D4FCF614D4F97614D4B4E4F79
:104B2000D7614E4F9F614E4FDF614E4FB7614E4F81
:104B3000F7614E4FAF614E4C4E4FEF614E4FA76144
:104B40004E484F4FE7614F4F87614F494F4FC76105
:104B50004F4F504A8F61504FCF61504F504B97612C
:104B6000504FD761504F514E9F61514FDF61514FB0
:104B7000514DB761514FF761514F524CAF61524F98
:104B8000EF61524F5248A761524FE761524F53496C
:104B90008761534FC761534F8F61534A534FCF6162
:104BA000534F9761534B544FD761544F9F61544EAD
:104BB000544FDF61544F554DB761554FF761554F15
:104BC000554CAF61554F56485649EF61564F574DBA
:104BD000A761E561564F574D574CDFF880E1574AC2
:104BE000574B8761C5618C61564E574F574D584C96
:104BF000C1F81CE0574858499761D5619C61D8615C
:104C0000B16005B0F0BD00BFAC9AFF1FA0860100E7
:104C1000801A0600388EFF1F29450000D48BFF1F25
:104C2000D88DFF1FF88BFF1F1C89FF1F5D6B0000D5
:104C3000C08AFF1F5948000019450000FC8AFF1F69
:104C4000654800000D3C0000908DFF1F7548000076
:104C5000353C00001C8CFF1F994800005D3C0000A3
:104C6000BD480000853C0000E1480000054500000B
:104C7000108DFF1F453E000069400000448BFF1F60
:104C8000514A0000994100008C8BFF1F754A0000BB
:104C9000513E0000E889FF1F05490000AD3C0000BF
:104CA000B48DFF1F994A000001420000688BFF1F6E
:104CB00015490000694200003C8AFF1F2549000099
:104CC000D9420000208BFF1F35490000A54000009D
:104CD0009C8AFF1F4549000041430000648CFF1F70
:104CE00055490000D9400000B08BFF1F6549000006
:104CF000B54300004C8DFF1F75490000C9440000FA
:104D0000608AFF1F85490000B13E00000C8AFF1F2A
:104D100095490000093F0000C489FF1FA549000014
:104D2000C88CFF1FEC8CFF1F613F0000B5490000DD
:104D3000B93F0000C549000011400000FC8DFF1F75
:104D4000408CFF1F308AFF1F25440000E54900000A
:104D500049440000F5490000E5500000D549000035
:104D60002DE9F04F2F4DDFF8CCB0DFF8C4A0DFF80D
:104D7000C8900FCD91B003AC0FC40FCD0FC40FCDB1
:104D80000FC42B6823600025A8462F462E4600E05E
:104D90009846BAF8003024495BF8232028461123AE
:104DA000FBF73CFF00EBC00400EB840089FB003400
:104DB0000444C017C0EB6434C4F13C00C6F13C02AB
:104DC00007F14101012600B208F1410300901BB236
:104DD000019612B209B2154802F0BEFD08EB0603B7
:104DE00005F211153C2B2646ADB24746D0D13422F0
:104DF0006B210E4803F042F900210C4803F042F900
:104E00000B4B1B8810AA02EB830353F8344C20464B
:104E100007F056FC02460548214611B0BDE8F04FA8
:104E200003F030BAB0CE0000A4CB0000AC9AFF1F54
:104E30001A9AFF1FC4CC0000090002802DE9F0433C
:104E4000804685B0002956D10121304803F01AF977
:104E50002F4998F8062098F8083011F802909945E3
:104E600022DA4FEA89064D460C24D8F80C30274840
:104E70009B595F6822B2002103F000F9384607F021
:104E80001FFC39460246214803F0FCF91F4803F095
:104E90000FFA98F8083001350934AB42A4B206F194
:104EA000040601DD422CE0D1B9F1000F13D109F164
:104EB000060999450CDA3C2301213B220391029318
:104EC0000093019239233F223A21104802F0FEFD5F
:104ED00005B0BDE8F0830F2301213B22039102932B
:104EE0000093019239230C223A21084802F0EEFD8A
:104EF00098F80830DBE700213423009301913F2329
:104F00000C22024802F0F6FC9EE700BFAC9AFF1F9D
:104F1000389BFF1F10B5154C0121204603F0B8F84F
:104F20002046012103F0AEF8204600220F2103F0B5
:104F3000A5F8204602220E4903F0A4F920463422A7
:104F4000552103F09BF8204602220A4903F09AF902
:104F500020460522084903F095F9204603F0A8F9F8
:104F60002046BDE8104002F0ABBA00BFAC9AFF1F6C
:104F700054D5000058D500005CD5000070B50D4632
:104F8000064607F09DFB00EB40008400002D36D064
:104F9000284607F095FB00EB4000400023185B100B
:104FA00003F16001091A282209B21748C3F160040D
:104FB00003F064F80121144803F064F8284607F070
:104FC0007FFB29460246104803F05CF90E4803F0C7
:104FD0006FF902210C4803F055F821B221220A484A
:104FE00003F04CF8304607F06BFB314602460648AA
:104FF00003F048F90448BDE8704003F059B9641063
:10500000C4F16004E5E700BFAC9AFF1F214B70B507
:10501000B3F9003083EAE374A4EBE374002B82B0AD
:10502000A1B22FDB68466D46012300E0134603EB77
:10503000830252009442F9DA174E91FBF3F286FB99
:1050400003E403FB1211DB173032D3EBA40389B264
:1050500005F8012BF1D119462B70FFF78FFF0F4B8D
:105060001B786BB101210E4803F00CF83322742138
:105070000B4803F003F801220A49094803F002F93A
:1050800002B070BD2D238DF800300DF1010568468A
:10509000CAE700BFB899FF1F67666666749AFF1F6C
:1050A000AC9AFF1F4CD7000010B50D4B1B5C51F89C
:1050B0002340237884B013B1012004B010BD04AAAA
:1050C00001A942F8103D2046A3699847A38A9B078F
:1050D000F2D401A80099FFF751FF012004B010BDE0
:1050E0000C9BFF1FF8B51F4D287840B91E4B1B685D
:1050F000994203D31D4A012313702B70F8BD0C464F
:1051000000261B48184F02F0CFF804F6B833324699
:1051100017483B6031212E7002F0B0FF0121144886
:1051200002F0B6FF3146124802F0ACFF05221149E9
:105130000F4803F0A7F80E4803F0BAF80C2210212C
:105140000B4802F09BFF0B220B49094803F09AF829
:1051500005220A49064803F095F8054803F0A8F827
:105160000120F8BDE48AFF1F249BFF1FA49AFF1FA4
:10517000AC9AFF1F64D500006CD500005CD5000020
:1051800010B5424C424882B002F08EF82378C3B981
:1051900006213F4802F076FF2378012B37D90A22F7
:1051A000022B11463A486BD002F068FF39490322BE
:1051B000374803F067F8364802B0BDE8104003F006
:1051C00077B8354B1A7801210523002A35D1019192
:1051D000009311462E4802F00FFC304B1A78002A3B
:1051E00036D0052301220192009300220A2128488B
:1051F00002F080FB2A4B1A78002A35D101210523C1
:10520000019100931421224802F0F6FBC0E7254CDF
:105210002388092B32D9632B8CBF0A211F210A2234
:105220001B4802F02BFF2188194803F091F8184819
:1052300002B0BDE8104003F03BB80022019100939A
:105240001146134802F056FB144B1A78002AC8D1B5
:1052500005230121019100930A210D4802F0CCFBA6
:105260000F4B1A78002AC9D001220523019200931E
:1052700000221421064802F03DFB89E73021CEE7E9
:1052800002F0FCFE0322084992E700BF149BFF1FB7
:10529000AC9AFF1F7CD500008A9AFF1FB499FF1FAC
:1052A0008C9AFF1F8299FF1F78D500002DE9F041ED
:1052B000754C2278002A05460F4614BF4FF00108AE
:1052C0004FF000084ED1714E3368CB1AB3F5FA6F28
:1052D00004D86B78A3B94046BDE8F0816C4B6D48AB
:1052E0006D49DFF8D0E11A7001230370098823703B
:1052F00026208EF80020FFF767F96B78002BEAD0A4
:105300003760FCF73BFC654A654B664912782878A4
:105310001B78097802EB4303421E03EB81030E2A3C
:10532000D9D801A151F822F019540000E55300002A
:10533000D752000019540000D7520000D752000085
:10534000D7520000CD530000D75200007F53000019
:10535000D7520000D7520000D7520000D7520000A9
:105360007B530000AF215048484E01F04DFDFFF740
:1053700007FF002337602370ABE704F09BF94A482E
:1053800001F092FF0221484802F07CFE0F22232107
:10539000454802F073FE05224449434802F072FF7B
:1053A000414802F085FF1E2223213F4802F066FE9D
:1053B00005223F493C4802F065FF3B4802F078FF78
:1053C000394802F07DF800F0ABFC84E7394D2B78CA
:1053D000012B50D9304B26201988FFF7F5F8002310
:1053E0002B7078E7002B3FF476AF013B324A32F85E
:1053F0001330002B3FF46FAF274C304825492D4A1E
:1054000023804FF001080023037081F8008082F8A8
:105410000080FFF7B5FE5EE793B1013B264A32F804
:10542000131019B31C4B254D1A4C224A1980002623
:10543000012326202E7023701370FFF7C5F815E0A6
:10544000154C1E4922880B7004284FF6FF7002F19C
:10545000FF310CBF012202460A440E4E154D02F0E8
:105460007F0201320121228031702B70FFF788FE0C
:105470004FF001082FE70649064A01230020087073
:1054800013702370A6E700BFE48AFF1F349BFF1F41
:10549000A49AFF1FE699FF1F8299FF1F8A9AFF1F98
:1054A000B499FF1F8C9AFF1FAC9AFF1F80D5000094
:1054B00088D50000149BFF1F5499FF1F759AFF1F8A
:1054C0002DE9F04F05468BB00F46AD480121164639
:1054D00002F0DEFDAA8812F0010440F0B180DFF88E
:1054E000CC8298F80030002B7ED1AB79A54AD15CF4
:1054F000A1B9DFF8BCA279781AF8039041B33978E2
:105500000139072900F2B880DFE811F0F2005401F8
:10551000B6006C01B600B600B600EA007C78002C3C
:1055200000F0CB800139EC68387854F82170FC68C1
:10553000411EB4F80080072900F2A880DFE811F0CE
:1055400074015901A6006C01A600A600A600A000E7
:10555000DFF854A2DAF80020B21AB2F5967F76D9B5
:10556000894A107801281ABF012010701170874AEB
:1055700018BF0146D05CC0EB0900C0B2FFF70EF8BF
:105580000124CAF80060AB889B0771D57B78002B9B
:105590006ED0FCF7F3FA7E4B7E4A7F481B78127878
:1055A00039780078022515FB02330A2903EB8003C2
:1055B00000F04E810C295BD1002B59D003F119006A
:1055C000764E774A013B0021400000F0FE0026F8AD
:1055D00013100123157088F80030FEF7F5FF714BAA
:1055E000032220461A702FE0654801F05DFE01217C
:1055F000634802F047FD62482246214602F03EFD24
:10560000AB88580725D42C68204607F059F8214666
:1056100002465B4802F036FE594802F049FE092274
:1056200001238DE80C0000217F23554802F094F9F6
:1056300000212846FFF702FC002388F8003054E7D9
:10564000AB683146384698470BB0BDE8F08F084646
:10565000FAE72B6804A8984704A807F031F804A9D2
:105660000246474802F00EFE454802F021FED6E70A
:1056700020460BB0BDE8F08F00240AF8039082E7C3
:105680000021D1543846FB699847FC68A4F8008093
:10569000002725223C238DE8840041211822384828
:1056A00002F028F9E968A879FFF7FEFC364A3E4B7C
:1056B00017701E600BB0BDE8F08F3B490A68B21A44
:1056C000B2F5967FD4D9304F0E603E78012E00F0AF
:1056D000B380E968184601233B70FFF7E5FCB3E7A8
:1056E0002F4AE9791170012288F800200024C4E7CC
:1056F0002A7A013A4A45BFDD09F10106F6B2B14501
:10570000BAD0224A039212F803B0CBEB0900C0B220
:105710000021FEF743FF2B7A052B5C461BD9CBEB10
:1057200006010429039A40F3AB80A6F1040BBBF1F8
:10573000000FC0F2AD80063B9B45A8BF9B465FFAB9
:105740008BF4AB791148D25C5A4504D0C454012182
:105750002846FFF773FB301BC0B201210A4CFEF74D
:105760001DFF00213423019100930548217040233F
:105770000B223F2102F0BEF8B1460124AB797CE751
:10578000AC9AFF1F289BFF1F209BFF1F389BFF1F0A
:105790008A9AFF1FB499FF1F8C9AFF1F5499FF1F0D
:1057A000A49AFF1F149BFF1F1C9BFF1FE48AFF1F6F
:1057B0000C9BFF1F0FFA89F1E8685F4C50F82160DD
:1057C0002168049134785D4904980860002C70D0F9
:1057D000012C7FF451AF5A4A317A88F80040117099
:1057E00000244AE7B9F1000F50D009F1FF36F6B2B4
:1057F00085E7B98A01F0040189B200293FF441AF7D
:105800003B6A03929847039A00283FF43EAFAB7976
:10581000FC680021D15439E77B8A43453BD908F124
:1058200001081FFA88F831E73B8A43453AD208F16C
:10583000FF381FFA88F829E725238DE8180041482A
:105840003C703C231822412102F054F83046FBE61C
:10585000002B3FF40DAF3C4A3C4E1188384A5F1E86
:105860001933580000F0FE00012388F8003026F8B4
:1058700017101570FEF7A8FE354B20461D70E3E6A5
:1058800000293FF758AF06F1FF3B50E74C46F4E6DE
:105890000024A34655E7BB8ADA077FF5F7AEB7F8D1
:1058A0001080F3E6BB8AD9077FF5F0AEB7F8128017
:1058B000ECE62849C85CC0EB090009F1010EC0B252
:1058C00001214FF0340B02F803E0FEF767FEB668E3
:1058D0001C48019440230B223F210124CDF800B045
:1058E00002F008F840230B223F211648CDF800B003
:1058F000019402F081F82146124802F0C3FB3046C1
:1059000006F0DEFEA0EB800000F15F0109B20F227D
:105910000C4802F0B3FB304606F0D2FE3146024698
:10592000084802F0AFFC074802F0C2FCE968A87919
:10593000FFF7BAFBAB79A0E66C9BFF1F1C9BFF1F18
:10594000A49AFF1FAC9AFF1F8299FF1F5499FF1F53
:10595000149BFF1F389BFF1F2DE9F047DFF80892CB
:105960006D4B99F800601B68DFF800A282B000362A
:1059700001934FF0030018BF0126019F9AF80080A1
:1059800003F050FB0546042003F04CFB04460520C1
:1059900003F048FB800040EA4404062003F042FB89
:1059A0002C4364B25D4944EAC0000A7880F00F03DA
:1059B000DBB29A425A4A3CD01760002259480B7019
:1059C00003788DF800808DF8012053B3564A126891
:1059D0004EF66021BA1A8A4219D8022B59D0012BEF
:1059E0005FD0062B48D0032B63D0042B69D0052B46
:1059F00077D0072B7DD0082B00F08380092B68D04F
:105A000016B14A4801F05CFD02B0BDE8F087484A93
:105A1000484C00230121237003701360938089F8A0
:105A200000103A4669464448FFF74AFD3043C6B283
:105A3000E6E71268BA1A1E2A6BD99AF80020934238
:105A400022D0394C3D488AF80030012B276082EA89
:105A5000030207609846B1D0042BAFD137480068E5
:105A6000381AB0F5C87FA9D9354C2068381A3228C1
:105A7000A4D927601A46A1E73A4669463148FFF79C
:105A80001FFD3043C6B2BBE7012B4FF00002E3D14C
:105A9000E4E73A4669462C48FFF712FD3043C6B2A8
:105AA000AEE73A4669462948FFF70AFD3043C6B2D9
:105AB000A6E73A4669462648FFF702FD3043C6B2DC
:105AC0009EE73A4669462348FFF7FAFC3043C6B2E0
:105AD00096E73A4669462048FFF7F2FC3043C6B2E3
