:1000000000800020BD01000031D20000E9D10000D5
:10001000E9D10000E9D10000E9D10000E9D10000F8
:10002000E9D10000E9D10000E9D1000031D200009F
:1000300031D20000E9D10000B9F40000BDF50000A4
:1000400031D2000031D2000031D2000031D20000A4
:1000500031D2000031D2000031D2000031D2000094
:1000600031D2000031D2000031D2000031D2000084
:1000700031D2000031D2000031D2000031D2000074
:1000800031D2000031D2000031D2000031D2000064
:1000900031D2000031D2000031D2000031D2000054
:1000A00005B3000011B3000031D2000031D20000CE
:1000B00031D2000031D2000031D2000031D2000034
:1000C00031D2000031D2000031D2000031D2000024
:1000D00031D2000031D2000031D2000031D2000014
:1000E00031D2000031D2000031D2000031D2000004
:1000F00031D2000099F7000031D20000C5F80000AD
:1001000031D2000079DF000031D2000031D200008E
:1001100031D2000031D2000031D2000031D20000D3
:1001200031D2000031D2000031D2000031D20000C3
:1001300031D2000031D2000031D2000031D20000B3
:1001400031D2000031D2000031D2000031D20000A3
:1001500031D2000031D2000031D2000031D2000093
:1001600031D2000051E2000031D2000031D2000053
:1001700031D2000031D2000031D2000031D2000073
:1001800031D2000031D2000031D2000031D2000063
:1001900031D2000031D2000031D2000031D2000053
:1001A00031D2000031D2000031D2000031D2000043
:1001B00031D2000031D2000031D20000564B4CF257
:1001C000205210B51A804DF628121A8000BF00BFC9
:1001D0000DF032F8514B4FF010621A60504A9A609D
:1001E000504ADA60504A136813F4807304D14F49BF
:1001F0000B604FF4A85313604D4B1A78110703D5C9
:100200001A7842F008021A704A4B4B492A221A7097
:100210004A4A4B4B8B4204D252F8040F43F8040B6A
:10022000F8E7484B484900228B4202D243F8042B9E
:10023000FAE74649464A002352F8230041F82300D2
:1002400001336F2BF8D1434B434A802103F8011B44
:100250009342FBD1414B3D4A1A60414B8A221A70AE
:10026000A3F5805324225A70A0221A709A7992071B
:10027000FCD59A79D406FCD43A4A937903F00C035E
:10028000082B384BF9D103221A7140225A719A79FE
:100290009006FCD5334A9179324B4906FBD5324A58
:1002A000324911600221516020221A709A7902F0BD
:1002B0000C020C2AFAD12E4B2E4A1A602E4B2F4AD2
:1002C0001A6000225A60072243F8042C2C4AC3F813
:1002D0000C2D62B60DF018FD144B1B68DA0705D51E
:1002E00028480DF0E5FA284B284A1A60284B1B785D
:1002F0005B0609D5244C254B22689A4204D121483B
:100300000DF0D6FA0023236010F0E4FD0CF09AFF04
:100310000FF0C8F9FEE700BF0E2005403080044012
:10032000823F04000100002B10D0034014D0034092
:1003300002D0074000E007403C9DFF1FC045010080
:100340004088FF1F3C9DFF1FB4A3FF1F0082FF1FBB
:100350000000000000E400E05FE400E008ED00E0E1
:100360000050064000400640448004400000030165
:1003700004800440C010050014E000E0FF76010096
:10038000000020207814E95C1CE00340A5C3945AC7
:1003900000F00740FFFFFFFFFFFFFFFFFFFFFFFF32
:1003A000FFFFFFFFFFFFFFFFFFFFFFFFFFFFFFFF5D
:1003B000FFFFFFFFFFFFFFFFFFFFFFFFFFFFFFFF4D
:1003C000FFFFFFFFFFFFFFFFFFFFFFFFFFFFFFFF3D
:1003D000FFFFFFFFFFFFFFFFFFFFFFFFFFFFFFFF2D
:1003E000FFFFFFFFFFFFFFFFFFFFFFFFFFFFFFFF1D
:1003F000FFFFFFFFFFFFFFFFFFFFFFFFFFFFFFFF0D
:10040000FFFFFFFFFFFFFFFFFFFFFFFFDEF9FFFF23
:1004100010B5054C237833B9044B13B10448AFF33E
:1004200000800123237010BD3C9DFF1F00000000D1
:10043000C4450100084B10B51BB108490848AFF38B
:1004400000800848036803B910BD074B002BFBD0A0
:10045000BDE81040184700BF00000000409DFF1F8E
:10046000C44501003C9DFF1F0000000070B44C68B3
:10047000A04220D901230133DBB21CB2A60051F8FF
:10048000244084421D46F6D3A04211D005F1804598
:10049000013D965951F8251052F82530401AF21AAC
:1004A00000FB02F0641AB0FBF4F4E01870BC704773
:1004B000905970BC704704260125E5E700280CDA46
:1004C000064A434282FB0320DA17C2EB600000EBCE
:1004D0004000A3EB8000C0F10C007047ABAAAA2A31
:1004E000684B1B880C2B12D8DFE803F01E29333D24
:1004F0001148525C66707A12070063490B68984293
:1005000078D90B6C9842C0F0A580604B186C70478E
:100510005D490B68984240F28E800B6C9842C0F0A7
:1005200096805B4B186C704757490B6898427FD98F
:100530000B6C9842C0F08880564B186C704752493B
:100540000B68984271D90B6C98427AD3524B186C55
:1005500070474D490B68984264D90B6C98426DD333
:100560004E4B186C704748490B68984257D90B6C32
:100570009842C0F084804A4B186C704742490B681F
:10058000984249D90B6C984276D3464B186C704709
:100590003D490B6898423CD90B6C984269D3424B59
:1005A000186C704738490B6898422FD90B6C9842E9
:1005B0005CD33E4B186C704733490B68984222D984
:1005C0000B6C98424FD33A4B186C70472E490B680E
:1005D000984215D90B6C984242D3364B186C704731
:1005E00029490B68984208D90B6C984235D3324B95
:1005F000186C7047254B186870472F4B1868704768
:100600002C4B186870472A4B18687047274B18689E
:100610007047254B18687047224B18687047204B6D
:10062000186870471D4B186870471B4B1868704757
:10063000184B18687047164B18687047174AFFF731
:1006400015BF154AFFF712BF124AFFF70FBF104A36
:10065000FFF70CBF0D4AFFF709BF174AFFF706BFA8
:10066000144AFFF703BF124AFFF700BF0F4AFFF714
:10067000FDBE0D4AFFF7FABE0A4AFFF7F7BE084A69
:10068000FFF7F4BE989EFF1F988AFF1F848BFF1F01
:10069000408BFF1F488DFF1F3889FF1F048DFF1FF0
:1006A000C08CFF1FA08DFF1F7C89FF1FC089FF1F0B
:1006B000048AFF1F648CFF1FFC8BFF1F38B5284A7C
:1006C000284B14881D68AC4247DA274A274B10682C
:1006D0001B88421F191BAB42A8BF2B469142A3EBBC
:1006E0000403C3BF043843430131534393FBF1F187
:1006F00005310A200DF0EEF81D4A1E4B14881B68C8
:10070000A34205DC00210920BDE838400DF0E2B825
:1007100019491A4A0D881068AB42A5EB0401A0F1F3
:100720000502A8BF2B4691420CDD1B1B043800FBC1
:1007300003F30131092093FBF1F1BDE838400531A5
:100740000DF0C8B81B1B02FB03F3092093FBF1F16A
:10075000BDE8384005310DF0BDB80021C9E700BF44
:10076000169EFF1FD49EFF1FF88DFF1FE89EFF1FE0
:10077000E49DFF1F689DFF1FC89EFF1F8C8DFF1FFC
:100780002DE9F04F8FB002AD0024E1B26E480AF0BF
:100790002DFE01340C2C45F8040BF6D16B4B6C4C40
:1007A000B3F800E00A9B00227345227014DB089B1B
:1007B0009E4500F3B480069B664A9E4503DD137890
:1007C000002B40F0BC80049B9E4540F3AE804FF070
:1007D000020C84F800C009E0069B5E4A9E45CCBF2F
:1007E0004FF0060C4FF0050C84F800C00C9F039EE0
:1007F0000598079982F800C0BE45D4BF002701279D
:10080000B645D4BF002601268645099ADFF87081D7
:100810000B9B0D9DDFF86CA1DFF86C918AF80060EE
:10082000D4BF002001208E45D4BF0021012188F8CB
:10083000001096454849DFF854B1484E89F8000049
:10084000D4BF002201229E45D4BF002301230A7099
:10085000AE45434A8BF80070D4BF00250125012026
:10086000137035700DF0F4FB3E4B3F4A1D68118844
:100870003E4BA842D4BF002201220B291A7001D995
:100880000C2901D0A84246DC00230193384B9AF88A
:1008900000E01F7899F800C098F800209BF800301D
:1008A0002D49DFF8ECA091F800902D49367891F8A9
:1008B00000802478A7EB4E07CCEB070CA2EB82025A
:1008C000C3EB83776244C3EB8703134403EB490311
:1008D000BAF80020274FDFF8BCE0B7F800C0264F79
:1008E000434403EB8606033A0C2313FB046602EB36
:1008F000420206EB8202019BCEF800606244A842ED
:10090000A2F10C021A44C8BF1C4B3A60C8BF1E704B
:100910000FB0BDE8F08FA1F10C030193B6E74FF0E3
:10092000040C84F800C00B4A60E7029B9E45C6BFDA
:100930004FF0010C84F800C04FF0000C56E74FF068
:10094000030C84F800C051E7109EFF1FF09EFF1FAC
:100950003C9EFF1F489EFF1FD19EFF1F2D9FFF1F24
:100960002C9FFF1F548CFF1FCA9EFF1F949DFF1FCB
:10097000BC8CFF1FA49DFF1FF49EFF1FF29EFF1F54
:10098000299FFF1FC09EFF1F289FFF1F2A9FFF1F39
:10099000B29EFF1FF09DFF1F30B50E4C85B00123A6
:1009A00020463C2202210BF04FFF20460BF0DCFEDC
:1009B00001250022402180232046019100930295C9
:1009C0001146054B0BF0DCF9204605B0BDE8304080
:1009D0000CF06CB8009FFF1FC037010010B500EB92
:1009E000C000821DD2B293B284B09C1E981C3D23DD
:1009F00003918DE81900392102480BF025F904B064
:100A000010BD00BF009FFF1F70B50E4C84B01225B3
:100A10000422012306460390029320468DE8240019
:100A2000142310210BF010F90622092302930396D8
:100A3000019520460092142310210BF005F904B013
:100A400070BD00BF009FFF1F10B50C4C81B2204647
:100A50000BF0DCFB204602210BF0D2FB20462122CA
:100A60005A210BF0C9FB064B204619880EF012FEE6
:100A70002046BDE810400EF0BDBD00BF009FFF1F27
:100A8000B88CFF1F10B50C4C81B220460BF0BEFB9A
:100A9000204602210BF0B4FB204621225A210BF004
:100AA000ABFB064B204619880EF0F4FD2046BDE84E
:100AB00010400EF09FBD00BF009FFF1F948AFF1FD4
:100AC00010B50C4C81B220460BF0A0FB2046022151
:100AD0000BF096FB2046212253210BF08DFB064B99
:100AE000204619880EF0D6FD2046BDE810400EF0D5
:100AF00081BD00BF009FFF1FBA8CFF1F38B50C4699
:100B00000546C9B20CF048FB210A681CBDE8384014
:100B10000CF042BB38B505460CF024FB4FF0000446
:100B200060F30704681C0CF01DFB60F30F24A0B2F7
:100B300038BD00BF38B50F4D2B78013B01381B0283
:100B4000C4B203F47063200443F4404343F00C0345
:100B500000F4FE0018430EF04DF82868013860F0EC
:100B60003F00C0B20DF0E2F92046BDE838400DF07C
:100B7000DDB900BFFC9DFF1F38B5104D2B78013B40
:100B80001B0203F47063044643F41043000443F073
:100B9000090300F4FE0018430EF02CF82868013811
:100BA00060F06F00C0B20DF0C1F920460DF0BEF943
:100BB0000020BDE838400DF0B9B900BFFC9DFF1F13
:100BC00038B50E4D2B78013B1B0203F470630446CD
:100BD00043F45043000443F00D0300F4FE001843B7
:100BE0000EF008F82868013860F02F00C0B20DF050
:100BF0009DF92046BDE838400DF098B9FC9DFF1FD7
:100C000010B504464FF440600DF040F90DF098F92E
:100C10002CB1102C044BA8BF10241C6010BD024B3B
:100C200001241C6010BD00BFFC9DFF1F10B50446D1
:100C300041F0E0000DF07AF904F07F000DF076F954
:100C4000C4F3C610BDE810400DF070B938B5114DB1
:100C50002B78A0F50052013B1B0202F30D0202F5B6
:100C6000005203F47063044643F46043100443F0FD
:100C70000E0300F4FE005204184302F0FE4210433B
:100C80000DF0B8FF296801392046C9B2BDE83840E7
:100C9000FFF7CCBFFC9DFF1F2DE9F04F172087B059
:100CA0000DF0D6F9DFF86093C9F8000016200DF0BA
:100CB000CFF9B84BB84A1B8810600C2B00F04F825C
:100CC0000023B64C0F2023700DF0C2F9B44A2378EC
:100CD000128801921146B34A054652F821404BB1A1
:100CE00020460FF03BFE4FF07C510FF08BFE10F0D2
:100CF00065F80446AC4BDFF814831B88D8F800A0D5
:100D0000AA4A013B554552F823B050DAA84BA94EE8
:100D10001B88012B00F0D581A74BA84A30680093AF
:100D20001F4604920FF01AFE4FF07C510FF06AFE3E
:100D3000A34902900988039120460FF00FFE049A00
:100D400003993F6852F821100FF05CFE0146002025
:100D50000FF04EFD10F032F8CBEB070BAB45CAEBB2
:100D60000B015A46B8BF2A46CAEB02028842BABFF4
:100D700000FB02220131424392FBF1F0DFF890A226
:100D80000FF0ECFD4FF07C510FF03CFE02990FF09C
:100D900031FD10F013F830608A4A1288013A032AB4
:100DA0006AD8DFE812F0EB00D3005300DF00DFF871
:100DB00060A2DAF80020954238DD7D4B05921B8851
:100DC0007C4E012B00F0AC817B4B00931F463068BA
:100DD0007A4B04930FF0C2FD4FF07C510FF012FEDE
:100DE000774902900988039120460FF0B7FD0399D7
:100DF000049B3F6853F821100FF004FE0FF0DEFF54
:100E0000059ABB44C2EB0B01AB45A8BFAB46884279
:100E1000C2EB0B0B80F2AD8100FB0BBB01319BFBE6
:100E2000F1F00FF09BFD4FF07C51ADE7614E624B4E
:100E3000306800931F460FF091FD4FF07C510FF08A
:100E4000E1FD0FF0BBFF3F683060A5E738460FF0CB
:100E500085FD5D490FF0D6FD834628460FF07EFDE7
:100E60005A490FF0CFFD014658460FF0C3FC0FF072
:100E7000A5FF009B074618605549564A0888128806
:100E8000D9F80010544DC0EB070EC3199142C8F8B1
:100E900000E0CAF80030B5F800E080F2DC80002500
:100EA000C2EB0E0C3C4B64451F6880F2C880631C8B
:100EB000974205FB03F50CF1010C95FBFCF5C0F224
:100EC0006681BE45A8BFBE46C2EB0E0E03FB0EF404
:100ED00094FBFCF4914200F39D80BA42C0F29A80E8
:100EE0003E4C20680FF03AFD3D490FF08BFD3D4927
:100EF0000FF080FC0FF062FFA0F5FF531C3B082BA6
:100F000098BF4FF400503368184400282060C0F2A6
:100F10009480B0F5804F80F2A580334B1B781BB1D5
:100F2000B0F5005F40F0A680304D2B78002B40F0EC
:100F3000A9802F4D20682B68284C984203D0FFF7DA
:100F400085FE23682B6007B0BDE8F08F38460FF0B0
:100F500005FD28490FF056FD834628460FF0FEFC9C
:100F600025497EE738460FF0F9FC1D490FF04AFD90
:100F7000834628460FF0F2FC204972E738460FF00E
:100F8000EDFC1F490FF03EFD834628460FF0E6FCBE
:100F90001C4966E7CA9EFF1FFC9EFF1F659DFF1F41
:100FA000CC9DFF1F088BFF1FB88CFF1FC88BFF1F36
:100FB000F69DFF1F849DFF1FBC9EFF1F6C8AFF1FB5
:100FC000B89DFF1F948AFF1FCDCC4C3FCDCC4C3E2B
:100FD000BA8CFF1F2C9EFF1FB49DFF1F988DFF1F13
:100FE0009A99193FCDCC4C45DC9EFF1F119EFF1FE7
:100FF0003489FF1F6666663FCDCCCC3DCDCCCC3E60
:101000003333733FCDCC4C3DC89DFF1FE09DFF1F88
:10101000349EFF1F019B002B3FF462AF2B1B002B64
:10102000B8BF5B42092B34DC33685A4C4FF4005094
:10103000184400282060BFF66CAF002214E09742ED
:1010400005FB04F5B8BF002395FBFCF580F2968004
:1010500093FBFCF43EE77145D4BFC2EB0105C2EB44
:101060000E051DE743F6FF724B4B22601B78002BE9
:101070003FF45AAF00210D200CF0BCFD474B01227C
:101080001A7056E701210D200CF0B4FD00232B70DF
:101090004FE705F500500130001B0FF05FFC4049A1
:1010A0003C4C0FF0AFFC054620680FF057FC3D4963
:1010B0000FF0A8FC014628460FF09CFB0FF07EFEC7
:1010C00021E7394B00931F463068384B04930FF0EB
:1010D00045FC4FF07C510FF095FC354A0290128888
:1010E000039220460FF03AFC039A049B3F6853F8A2
:1010F00022100FF087FC0FF061FECBEB070BAB4526
:10110000CAEB0B02B8BFAB46CAEB0B0B8242C6BFA1
:1011100000FB0BBB013200FB0BFB9BFBF2F02DE64F
:10112000224B0493204B306800931F460FF016FCAF
:101130004FF07C510FF066FC1D4902900988039125
:1011400020460FF00BFC049B03993F6853F82110D5
:101150000FF058FC014600200FF04AFB4EE601203C
:101160000CF076FF134B1B689842D4BF0023012379
:10117000A7E500FB0BFB9BFBF1F052E67745D4BFE4
:10118000C2EB0703C2EB0E0304FB03F360E79646D2
:101190009AE600BF988DFF1FDC9EFF1F119EFF1F68
:1011A000CDCCCC3E9A99193FBC9EFF1F6C8AFF1F85
:1011B000B89DFF1F548CFF1F38B5054642F0B000A4
:1011C0000C460CF0B3FE28460CF0B0FEE0B2BDE8D1
:1011D00038400CF0ABBE00BF70B50F4D2B78013B13
:1011E0001B0203F47063044643F4304308062204F0
:1011F00000F0FE4043F00B03034302F4FE001843EB
:101200000E460DF0F7FC2A68013A3146E0B2D2B240
:10121000BDE87040FFF7D0BFFC9DFF1F10B50C4C20
:10122000236843B90B4B1B88022B0CD00A4A0023BE
:101230001370236010BD00210520FFF7CDFF054B83
:101240001B88022BF2D100214120FFF7C5FFEDE7FB
:10125000E49EFF1F209EFF1FE69DFF1F08B564212F
:101260000720FFF7B9FF7F210B20BDE80840FFF7FB
:10127000B3BF00BF10B500217B20FFF7ADFF0024F6
:10128000E0B2FFF779FC013402200CF0EFFC802C77
:10129000F6D110BD30B58DB06D460024E1B23448B2
:1012A0000AF0A4F801340C2C45F8040BF6D1314BAC
:1012B0000A9A1B889A4216DA009A934213DD029A20
:1012C000934210DD049A93420DDD2B4A2B4B11887B
:1012D0001B882B4A0B4412685B10934238DB294A67
:1012E0001268934201DB0DB030BD274B00241C7007
:1012F000FFF7C0FF21460D200CF07CFC32200CF0E3
:10130000B5FC01210D200CF075FC32200CF0AEFC78
:1013100021460D200CF06EFC32200CF0A7FC0121C0
:101320000D200CF067FC32200CF0A0FC21460D20B3
:101330000CF060FC32200CF099FC0D2001210CF027
:1013400059FC4FF42F700DB0BDE830400CF08EBC4E
:101350000D4B002101240D201C700CF04BFC3220A1
:101360000CF084FC0D2021460CF044FC3220EAE70E
:10137000109EFF1FF09EFF1FB49DFF1F2C9EFF1F9E
:10138000C89DFF1FFC9EFF1FA09DFF1F294A2A4BDF
:1013900010881B68294A2A491288834270B52DDBC0
:1013A0009342A8BF134698420B60C8BF002327DDB5
:1013B000101AB0F5804FAABF9B03C3EB83330130F3
:1013C00093FBF0F0FFF78CF81E4E3368C0F3C615A0
:1013D0009D42044606D01C4B1B882BBB1B4B1B8815
:1013E000F3B935601A4D2B689C4206D0164B1B880A
:1013F0005A1F032A0BD92C6070BD70BD03460860CC
:101400009A42D4BFC0EB0203C0EB0303D0E7114AFA
:10141000D05C04F07F012030FFF7DEFE2C6070BD51
:101420002846FFF7CDFBDCE70A4A2946D05CFFF7E8
:10143000D3FED3E7169EFF1FAC9EFF1FE89EFF1F43
:10144000D49EFF1FD49DFF1F909EFF1F129EFF1F63
:101450009C9DFF1FA88CFF1F2DE9F0417B4C7C4D0C
:1014600020680FF07BFA7B490FF0CCFA064610207B
:101470000CF0EEFD0FF072FA77490FF0C3FA314627
:101480000FF0B8F90FF09AFC2B882060002B3FD0AA
:10149000724F3A8890423BDB01467148067836B974
:1014A0004FF0010E042B80F800E000F0B380012B18
:1014B0006AD0022B00F0BC80032B36D1694B1B880D
:1014C000092B32D023683C88674AA342128853DB39
:1014D0009342D4BFC4EB0303C4EB0203141B7E2C62
:1014E000DFF88881D5BFC3EB8313C3EBC3135B0065
:1014F000013493FBF4F4D8F800300134A34203D054
:1015000021464A20FFF768FEC8F80040BDE8F08198
:10151000534A117849B10024012B147016D0022BC4
:101520001FD0032B03D0042B28D0BDE8F0814D4BF6
:101530001B88092BF9D04D4D2B68002BF5D0214687
:101540004A20FFF749FE2C60BDE8F081474D2A682C
:10155000002AEAD018462146FFF73EFE2C60BDE87F
:10156000F081424D2B68002BDFD021460420FFF78D
:1015700033FE2C60BDE8F0810023AFE72146402018
:10158000BDE8F041FFF728BE374B1B888B42D4BF24
:10159000C2EB0306C2EB01069A1ADFF8D0807E2A5E
:1015A000D8BFC6EB8616D8F80030C6BFC6EBC61645
:1015B0000132760096FBF2F60136B34203D0314693
:1015C0000120FFF709FE2B88C8F80060022B7FF48A
:1015D00073AF23683E88244AB34212882CDA002372
:1015E000961B7E2EDFF88480D5BFC3EB8313C3EB3D
:1015F000C3135B00013693FBF6F6D8F800300136D2
:10160000B34220D031460420FFF7E6FD2B88C8F80E
:10161000006051E77F214020FFF7DEFD2B88012B82
:10162000D4D121683A88104B91421B88B4DBADE7D6
:101630000D4A236812883E889A42D4BFC6EB020343
:10164000C6EB0303CCE70223E1E700BFBC9DFF1F0D
:10165000C49DFF1F9A99193FCDCCCC3E8E9DFF1F94
:10166000D89EFF1F909EFF1F469EFF1F289EFF1FB4
:1016700038B5114A114B14881B68114AA3421288CD
:1016800013DA0023141B0F4D7F2CCABFDB01C3EB01
:10169000C313013493FBF4F42B68A34203D0214617
:1016A0000520FFF799FD2C6038BD9342D4BFC4EBF1
:1016B0000303C4EB0203E5E7E49DFF1F689DFF1FE2
:1016C000C89EFF1FE49EFF1F10B5174B1B78DBB1B0
:1016D00015200BF063FC154B1860154A12887AB17F
:1016E00014491B68098899420ADC134C23781BB9FA
:1016F000022A13D001232370BDE81040FFF7B8BFC2
:101700000D4B1B7833B910BD11200CF0A1FC074B19
:101710001860E2E7BDE81040FFF780BD7F2141205F
:10172000FFF75AFDE6E700BF189EFF1F689DFF1FE9
:10173000209EFF1FE49DFF1FE69DFF1F38B5054655
:1017400042F090000C460CF0F1FB28460CF0EEFB4A
:10175000E0B2BDE838400CF0E9BB00BF70B50F4DFA
:101760002B78013B1B0203F47063044643F41043DF
:1017700000040A0600F4FE0043F00903034302F0EC
:10178000FE4018430E460DF035FA2A68013A3146FC
:101790002046D2B2BDE87040FFF7D0BFFC9DFF1FCE
:1017A00008B50BF097FC084809F0B8FD00230121AB
:1017B0004FF07E52054809F0A9FF04210448BDE816
:1017C00008400AF0B9BF00BF109EFF1F689EFF1FB0
:1017D000009FFF1F00B5244B1A7883B00121052319
:1017E00002B3002201910093114620480AF040F90B
:1017F0001F4B1A7802B305230122019200930022A5
:101800000A211A480AF034F91A4B1A7802BB052348
:10181000012101910093142114480AF0ABF903B09F
:101820005DF804FB01910093114610480AF0A2F9FB
:101830000F4B1A78002ADED1052301210191009374
:101840000A210A480AF096F90A4B1A78002ADED0D3
:1018500005230122019200930022142103480AF07B
:1018600007F903B05DF804FBD19EFF1F009FFF1F27
:101870002C9FFF1F2D9FFF1F2DE9F04FC54D2B788B
:10188000A3F10A02022A83B040F22281C24EA3F1E0
:101890001402022A3CD8DFF83083C04AD8F800E0AE
:1018A0001268BF499645D1F8009080F20E82C2EBD3
:1018B000090CBCF15A0F4FF00004BA4F40F31282EA
:1018C000D7F800A05B2052450CF1010100FB04F4A5
:1018D00094FBF1F404F11C0440F3E882002292FB33
:1018E000F1F11C31A14200F0158209B20023262239
:1018F000AD480AF0B3FE21B201232622AA480AF01D
:10190000ADFEA9480BF0D2F8D8F800202B783A6049
:10191000A3F11E02022A00F28B80A44FDFF8ACA2D2
:101920003968DAF80030DFF8A8929942D9F8002037
:1019300080F25A81D01A5A284FF00004DFF89482BE
:1019400040F35E81D8F800104FF05B0E8B420EFB27
:1019500004F400F1010E94FBFEF404F11C0400F306
:10196000B9829142A8BF1146C3EB010C5B2101FB78
:101970000CF191FBFEF11C31A14200F0548109B23F
:101980000023262288480AF069FE21B2012326227C
:1019900085480AF063FEDAF80030DFF83CA2D9F897
:1019A0000020DAF8001099424FF0010CA2EB03007E
:1019B000C0F244819142D4BFC3EB0104C3EB0204E3
:1019C0005A28DFF8189240F34081D9F800B000F1AE
:1019D000010E5B454FF05B0000FB04F494FBFEF44A
:1019E00004F11C0400F378825A45A8BF5A46D21A63
:1019F0005B2000FB02F090FBFEF01C30A04200F0E8
:101A0000398101B20023262267480AF027FE21B25D
:101A10000123262264480AF021FE63480BF046F8B1
:101A2000DAF800103A682B78C8F80020C9F80010DE
:101A3000A3F12802022A42D8DFF8A4815C4AD8F830
:101A400000E012685B499645D1F800C080F21A8127
:101A5000C2EB0C015A294FF00004574F40F31E818E
:101A600038684FF05B09824201F1010109FB04F47F
:101A700094FBF1F404F11C0400F316828445A8BF22
:101A80008446C2EB0C0C5B2000FB0CF090FBF1F1E8
:101A90001C31A14200F0158109B2002326224248E0
:101AA0000AF0DCFD21B2012326223F480AF0D6FDD0
:101AB0003D480AF0FBFFD8F800202B783A603C3B09
:101AC000012B40F23A810023337003B0BDE8F08F60
:101AD0003A4ADFF810811668D8F800E0384AB6456F
:101AE000126834DA911B5A294FF00004354F38DD63
:101AF00038684FF05B0C864201F101010CFB04F4E5
:101B000094FBF1F404F11C0400F3E8819042A8BFB7
:101B10001046861B5B2000FB06F090FBF1F11C31A8
:101B2000A14230D009B2002326221F481A4E0AF0E3
:101B300095FD21B2012326221B480AF08FFD1A4889
:101B40000AF0B4FFD8F800202B783A609FE6911B8A
:101B50009645D4BFC6EB0E04C6EB02045A29194FB2
:101B6000C6DCD7F800C05A20664500FB04F494FB9D
:101B7000F1F404F11C0440F3BC81002292FBF1F16A
:101B80001C31A142CED1044E3278002A40F0D380DD
:101B90007246DAE70C9EFF1F679DFF1F688AFF1FD2
:101BA000E48DFF1F549EFF1F009FFF1FC89DFF1F56
:101BB000FC8DFF1F5C8AFF1F809DFF1F309EFF1F53
:101BC000588AFF1FCC9EFF1F689DFF1FE88DFF1FD7
:101BD0003C8BFF1FD09DFF1FFC9EFF1F309FFF1FF0
:101BE000BC9DFF1FAC9EFF1FD01A9142D4BFC3EB18
:101BF0000104C3EB02045A28DFF824833FF7A2AEA6
:101C0000D8F800E05A21734501FB04F494FBF0F48A
:101C100004F11C0440F36481002191FBF0F11C31BC
:101C2000A1427FF4ACAE3478002C77D1DFF8F4A277
:101C3000DAF800109942A446BFF6BCAE5A284FF01D
:101C40000004DFF8E4923FF7C0AED9F800E04FF0AF
:101C50005A0B73450BFB04F494FBF0F404F11C04E1
:101C600040F319814FF0000B9BFBF0F01C30A042B9
:101C70007FF4C7AE3378002B56D1BCF1000F3FF490
:101C8000D1AECAE6C2EB0C01E645D4BFC2EB0E04EE
:101C9000C2EB0C045A299B4F3FF7E2AED7F80090F5
:101CA0005A204A4500FB04F494FBF1F404F11C04AF
:101CB00040F30781002292FBF1F11C31A1427FF435
:101CC000EBAE327872BB7246F8E6C2EB090CCE4539
:101CD000D4BFC2EB0E04C2EB0904BCF15A0F8A4F09
:101CE0003FF7EEAD39685A208A4200FB04F494FBBA
:101CF000FCF404F11C0400F3E2804945A8BF494606
:101D0000891A5A2000FB01F090FBFCF11C31A14222
:101D10007FF4EBAD32781AB97246F8E509B235E6D0
:101D200009B2E9E509B2BEE601B2012326227748ED
:101D30000AF094FC71E609B2FCE6262200248DE844
:101D4000140076231C217148714D724F09F0C2FEB8
:101D50001DE08242D4BFC3EB0201C3EB0001D31AE2
:101D60004FF05A0E73454FF05B00CABF41430EFB64
:101D700001F1013391FBF3F303F11C0101231C4436
:101D8000262209B261480AF069FC0C2C09D0E1B2A4
:101D9000614809F02BFB2B683A688342D9DD0021AA
:101DA000DDE7DFF888815D4C01200CF051F9D8F8AF
:101DB00000C023683A682968CCEB030E8B1A9E4555
:101DC000CCEB00005BDD03FB00000EF1010390FB98
:101DD000F3F3134499424EDC9A42D4BFC1EB0203A1
:101DE000C1EB0303521A5A2ACABF5B215A2101329E
:101DF00001FB03F393FBF2F202F11C0109B2012390
:101E0000262242480AF02AFC00200CF021F9D8F8DA
:101E100000E03A68296824688B1ACEEB04049C42DF
:101E2000CEEB000031DD03FB0000631C90FBF3F3FD
:101E30001344994221DC9A42D4BFC1EB0203C1EBA7
:101E40000303521A5A2ACABF5B215A21013201FBED
:101E500003F393FBF2F202F11C0109B201232622E3
:101E60002A480AF0FBFB29480AF020FE00233370C1
:101E700003B0BDE8F08F0023B4E70023E1E703FBE4
:101E800000F393FBFEF31344A4E703FB00F393FB7F
:101E9000F4F31344CDE77245D4BFC3EB0203C3EBA5
:101EA0000E030BFB03FBDFE69446EAE5D145D4BF06
:101EB000C2EB0902C2EB0A0200FB02F20FE5114677
:101EC0001EE7CC45D4BFC2EB0C02C2EB090200FBFB
:101ED00002F2F0E6194647E51A4688E5304618E66C
:101EE0007245D4BFC3EB020EC3EB0E0E01FB0EF125
:101EF00093E66245D4BFC6EB0202C6EB0C0200FBC0
:101F000002F23BE6809DFF1F549EFF1F009FFF1FB4
:101F1000F48DFF1F408CFF1F109EFF1F5C8CFF1F66
:101F2000D09DFF1FFC9EFF1F309FFF1F608AFF1F79
:101F300008B581B217480AF069F9022115480AF07C
:101F40005FF921225A2113480AF056F9124B114821
:101F500019880DF09FFB0F480DF04CFB0F4B1978C3
:101F600091B90C480AF052F901210A480AF048F9DF
:101F70003322742107480AF03FF901220849054835
:101F8000BDE808400DF022BB012102480AF03EF9ED
:101F9000EAE700BF009FFF1F589EFF1FDE9EFF1F46
:101FA0001435010010B5104C012120460AF02EF91D
:101FB000204601210AF024F92046342255210AF056
:101FC0001BF92046022209490DF000FB204605229C
:101FD00007490DF0FBFA20460DF00CFB2046BDE84A
:101FE00010400AF063BD00BF009FFF1F00350100D5
:101FF000043501002DE9F84F0C200AF09BFF0C205E
:102000000BF066FDDD4914200BF072FD0221032068
:102010000BF004FE022104200BF000FE022105203B
:102020000BF0FCFD022106200BF0F8FD01210A2037
:102030000BF0F4FD012109200BF0F0FD01210D2032
:102040000BF0ECFD012128200BF0E8FD012114200C
:102050000BF0E4FD02210B200BF0E0FD01210C2030
:102060000BF0DCFD00210C200BF0C4FD0020FEF77E
:1020700051FD172840F25C8204200BF0C1FD0028BE
:1020800000F050820020FEF745FD1F2800F08C82F2
:102090001F210020FEF732FD0C210E20FEF72EFD41
:1020A00001211020FEF72AFD02211220FEF726FD55
:1020B00000211420FEF722FD00211620FEF71EFD50
:1020C00002211820FEF71AFD01211A20FEF716FD45
:1020D00002211C20FEF712FD04211E20FEF70EFD3A
:1020E00014212020FEF70AFD01212620FEF706FD1F
:1020F00003212820FEF702FD04212C20FEF7FEFC20
:102100000F212E20FEF7FAFC00213020FEF7F6FC0E
:102110000C213220FEF7F2FC00213420FEF7EEFC09
:1021200000213620FEF7EAFC00213820FEF7E6FC0D
:1021300000213A20FEF7E2FC00213C20FEF7DEFC05
:1021400000213E20FEF7DAFC00214020FEF7D6FCFD
:1021500000214220FEF7D2FC1F214420FEF7CEFCD6
:1021600013214620FEF7CAFC0E214820FEF7C6FCCC
:1021700011214A20FEF7C2FC0A214C20FEF7BEFCCA
:1021800000214E20FEF7BAFC06215020FEF7B6FCD7
:1021900002215220FEF7B2FC0F215420FEF7AEFCC4
:1021A00000215620FEF7AAFC0220FEF7B3FC744B78
:1021B000744C18800420FEF7ADFC734BDFF84082AE
:1021C00018800620FEF7A6FC704BDFF838A21880B6
:1021D0000820FEF79FFC6E4B6E4E18800A20FEF71B
:1021E00099FC6D4B6D4D18800C20FEF793FC6C4BE9
:1021F00018800E20FEF78EFC6A4B18801020FEF728
:1022000089FC20801220FEF785FC674B1880142083
:10221000FEF780FC654B18801620FEF77BFC644BB4
:1022200018801820FEF776FC624B18801A20FEF703
:1022300071FC614B18801C20FEF76CFC5F4B188012
:102240001E20FEF767FC5E4B18802020FEF762FC24
:102250005C4B18802220FEF75DFC5B4B188024202D
:10226000FEF758FC594B18802620FEF753FC584BBC
:1022700081462820A3F80090FEF74CFC554B1880AF
:102280002A20FEF747FC544B07462C201F80FEF700
:1022900041FC524B18802E20FEF73CFC504B18801E
:1022A0003020FEF737FC4F4B18803220FEF732FC0F
:1022B0004D4B18803420FEF72DFCA8F80000362086
:1022C000FEF728FCA8F802003820FEF723FCA8F847
:1022D00004003A20FEF71EFCA8F806003C20FEF79A
:1022E00019FCA8F808003E20FEF714FCA8F80A0024
:1022F0004020FEF70FFCA8F80C004220FEF70AFC75
:102300003A4B80464420A3F80080FEF703FC384B8C
:10231000A0F1180246201A60FEF7FCFBA0F118039A
:102320004820CAF80030FEF7F5FBA0F118034A2058
:10233000CAF80430FEF7EEFBA0F118034C20CAF8EF
:102340000830FEF7E7FBA0F118034E20CAF80C3066
:10235000FEF7E0FB274B18805020FEF7DBFB264BF7
:1023600018805220FEF7D6FB244B18805420FEF72D
:10237000D1FB30805620FEF7CDFB45E0001B3746F1
:10238000169EFF1F589EFF1FE89EFF1FE49DFF1F24
:10239000C89EFF1FBA8CFF1F2C9EFF1FEE9DFF1FC4
:1023A000B49DFF1FA49DFF1F909EFF1F129EFF1F45
:1023B0005C9DFF1F209EFF1FCC9DFF1FC49DFF1F24
:1023C000B89DFF1FDA9EFF1F8E9DFF1F469EFF1FB9
:1023D000649EFF1FB29EFF1FF09EFF1F989EFF1F6F
:1023E000B89EFF1FA29DFF1FCA9EFF1FEA9EFF1FF0
:1023F000048BFF1FC29DFF1FB88CFF1F948AFF1F15
:10240000709DFF1F448CFF1FB34ADFF838E3B349C8
:10241000D2F800A0B24BB34ADEF800B0D1F800C049
:10242000D3F800E01168B04AB04B85F80090CCEBCF
:102430000B0CCEEB0A0E82FB0CBAD3F80090AC4B1F
:10244000E2444FEAEC7CCCEBAA1CDFF8FCA218803B
:10245000A84BCAF800C082FB0EAC1868A64BF44427
:102460004FEAEE7ECEEBAC1EDFF8E0C21B68CCF884
:1024700000E0C1EB090982FB09CEC01ACE44DFF8A7
:10248000D0C29E4B9E491B6809684FEAE979C9EBA7
:10249000AE1ECCF800E082FB00EC8444C017C1EB18
:1024A000030EC0EBAC10DFF8ACC282FB0E92CCF88E
:1024B000000072449348DFF8A0C24FEAEE7E5FFA54
:1024C00088F8CEEBA212026008F002098E4A8CF85E
:1024D000009008F0040C82F800C0DFF880E28B481E
:1024E0008B4A08F008088EF8008000681268C91A44
:1024F000121A9142A7EB03030EDD02FB03330131F5
:1025000093FBF1F30344834A834813605A2108F094
:10251000A9FF002855D1FEE702FB03F292FBF1F37D
:102520000344F0E706200BF06BFB00287FF4AAAD14
:102530001F210020FEF7E2FA4FF4AF610220FEF700
:10254000DDFA04204FF47A61FEF7D8FA0B200BF085
:1025500057FB002800F0B58040F628210620FEF742
:10256000CDFA40F6E4410820FEF7C8FA4FF4AF6117
:102570000A20FEF7C3FA40F6FC010C20FEF7BEFA73
:102580004FF496612220FEF7B9FA4FF41661242029
:10259000FEF7B4FA7D212A20FEF7B0FA0020FEF7FC
:1025A000B9FA1F287FF474AD04200BF029FB002832
:1025B0007FF4FAAD06200BF023FB00283FF468AD52
:1025C000F2E5564A564812680023012109F0BCF88A
:1025D000FEF7E2F90B200BF013FB524B011E0CBF70
:1025E000012200221A7002D111200BF017FBDFF834
:1025F0003C814D4F0023C8F800303B604FF001098B
:102600000F200BF025FD3B68DFF81CA103440E20D2
:102610003B600AF0C3FCD8F8003009F00101034424
:102620000D20C8F8003009F101090BF0E3FAFA2097
:102630000BF01CFBB9F1050FE2D1DAF80030D8F845
:102640000020318839483A4E002BB8BF0333002AA6
:10265000B8BF03329B103B609210364F02605A1A8B
:102660000D200B44002133603A600BF0C3FAFA20CE
:102670000BF0FCFA01210D200BF0BCFAFA200BF054
:10268000F5FA00210D200BF0B5FAFFF78BFC40F2B4
:10269000DC500BF0EBFA284B012604201E600BF0F7
:1026A000AFFA10B9254B28701E702378244A1846BB
:1026B0001370FEF7A5FA01210D20BDE8F84F0BF0CD
:1026C00099BA4FF496610620FEF718FA4FF4FA61B2
:1026D0000820FEF713FA49E7E48DFF1F309EFF1F25
:1026E000688AFF1FE88DFF1FC94216B23C8BFF1F8F
:1026F000F69DFF1F5C8AFF1FFC8DFF1F408CFF1F94
:10270000F48DFF1FD89DFF1F149EFF1F608AFF1FBF
:102710005C8CFF1F548CFF1F109EFF1F4C8AFF1FF5
:10272000689EFF1F189EFF1FBC9EFF1F6C9DFF1F12
:10273000349EFF1FE09DFF1FC49EFF1F959DFF1F3E
:102740002F9EFF1F588AFF1F9C9EFF1FB49EFF1FD6
:10275000A09EFF1F4C9EFF1FBA9DFF1FDE9EFF1F06
:1027600070B5194C82B03426002301252046019310
:10277000009640230B223F2109F07AF940230B22D7
:102780002046009601953F2109F0F4F9294620469C
:1027900009F03CFD2946204609F032FD20460F2273
:1027A000442109F029FD0922084920460CF00EFFBA
:1027B00020460CF01FFF064B20461D7002B0BDE8FE
:1027C00070400AF073B900BF009FFF1F0C35010075
:1027D000F89EFF1F70B5194C82B0342600230125E6
:1027E00020460193009640230B223F2109F040F937
:1027F00040230B222046009601953F2109F0BAF9AB
:102800002946204609F002FD2946204609F0F8FC39
:1028100020460F22512109F0EFFC052208492046ED
:102820000CF0D4FE20460CF0E5FE2846FEF70CF92D
:10283000204602B0BDE870400AF038B9009FFF1F83
:102840001835010070B5194C82B0342600230125DB
:1028500020460193009640230B223F2109F008F9FE
:1028600040230B222046009601953F2109F082F972
:102870002946204609F0CAFC2946204609F0C0FC3A
:1028800020460F22512109F0B7FC052208492046B5
:102890000CF09CFE20460CF0ADFE2846FEF710F929
:1028A000204602B0BDE870400AF000B9009FFF1F4B
:1028B0001835010070B5194C82B03426002301256B
:1028C00020460193009640230B223F2109F0D0F8C7
:1028D00040230B222046009601953F2109F04AF93A
:1028E0002946204609F092FC2946204609F088FC3A
:1028F00020460F22512109F07FFC0522084920467D
:102900000CF064FE20460CF075FE2846FEF7BAF87F
:10291000204602B0BDE870400AF0C8B8009FFF1F13
:102920001835010070B5194C82B0342600230125FA
:1029300020460193009640230B223F2109F098F88E
:1029400040230B222046009601953F2109F012F901
:102950002946204609F05AFC2946204609F050FC39
:1029600020460F22442109F047FC0922084920464D
:102970000CF02CFE20460CF03DFE2846FFF7D8FA5E
:10298000204602B0BDE870400AF090B8009FFF1FDB
:102990002035010008B581B2104809F037FC02214A
:1029A0000E4809F02DFC4F2121220C4809F024FC8F
:1029B0000B4B198849B903220A4908480CF006FE56
:1029C0000648BDE808400CF015BE04480CF062FE55
:1029D0000248BDE808400CF00DBE00BF009FFF1F7D
:1029E0005C9DFF1F2C35010070B5194C82B0342658
:1029F0000023012520460193009640230B223F210E
:102A000009F036F840230B222046009601953F211D
:102A100009F0B0F82946204609F0F8FB294620467F
:102A200009F0EEFB20460F22472109F0E5FB0822C2
:102A3000084920460CF0CAFD20460CF0DBFD284674
:102A4000FFF7A8FF204602B0BDE870400AF02EB89C
:102A5000009FFF1F3035010010B581B2124C1348A2
:102A600009F0D4FB0221114809F0CAFB2388212276
:102A70006BB94F210D4809F0BFFB03220C490B48ED
:102A80000CF0A4FD0948BDE810400CF0B3BD5A217C
:102A9000064809F0B1FB218804480CF0FBFD03480F
:102AA000BDE810400CF0A6BDB89DFF1F009FFF1FA2
:102AB0003C35010070B5194C82B034260023012545
:102AC00020460193009640230B223F2108F0D0FFBF
:102AD00040230B222046009601953F2109F04AF839
:102AE0002946204609F092FB2946204609F088FB3A
:102AF00020460F22512109F07FFB0522084920467C
:102B00000CF064FD20460CF075FD2846FFF7A4FF8D
:102B1000204602B0BDE8704009F0C8BF009FFF1F0B
:102B20001835010010B581B21748184C09F06EFB3A
:102B30000221154809F064FB21224C21124809F0BA
:102B40005BFB23884BB9032211490F480CF03EFD73
:102B50000D48BDE810400CF04DBD02220D490A4859
:102B60000CF034FD08480CF045FD21226521064893
:102B700009F042FB218804480CF08CFD0248BDE8B6
:102B800010400CF037BD00BF009FFF1FCC9DFF1F02
:102B90003C3501004035010070B5194C82B0342637
:102BA0000023012520460193009640230B223F215C
:102BB00008F05EFF40230B222046009601953F213E
:102BC00008F0D8FF2946204609F020FB2946204678
:102BD00009F016FB20460F22442109F00DFB0922C3
:102BE000084920460CF0F2FC20460CF003FD284674
:102BF000FFF798FF204602B0BDE8704009F056BFCD
:102C0000009FFF1F4435010010B581B2124C1348DC
:102C100009F0FCFA0221114809F0F2FA2388212276
:102C20006BB94F210D4809F0E7FA03220C490B4814
:102C30000CF0CCFC0948BDE810400CF0DBBC5A217C
:102C4000064809F0D9FA218804480CF023FD03480E
:102C5000BDE810400CF0CEBCA29DFF1F009FFF1FDF
:102C60003C35010070B5194C82B034260023012593
:102C700020460193009640230B223F2108F0F8FEE6
:102C800040230B222046009601953F2108F072FF59
:102C90002946204609F0BAFA2946204609F0B0FA3A
:102CA00020460F22482109F0A7FA082208492046A9
:102CB0000CF08CFC20460CF09DFC2846FFF7A4FF8E
:102CC000204602B0BDE8704009F0F0BE009FFF1F33
:102CD0005035010010B50C4681B2194809F096FA3A
:102CE0000221174809F08CFA21225021144809F0DA
:102CF00083FA002C4FF0010214DB124910480CF04B
:102D000065FC0F480CF076FC5D2121220C4809F08F
:102D100073FA21460A480CF0BDFC0948BDE8104092
:102D20000CF068BC084906480CF050FC04480CF054
:102D300061FC5D212122024809F05EFA6142E9E767
:102D4000009FFF1F5C350100603501000CB42DE9C8
:102D5000F04184B00AAC0646294814F8045B884662
:102D600009F002FD0121264809F04AFA0121244810
:102D700009F04CFA00221146214809F03DFA30468C
:102D80000EF05EFE314602461D480CF01FFC1C484A
:102D90000CF030FC092201238DE80C0000217F2378
:102DA000174808F097FE0394EDB16F1EFFB201378C
:102DB00004EB87070C25043454F8046C1048039482
:102DC0002AB2002109F018FA30460EF039FE3146D9
:102DD00002460B480CF0FAFB09480CF00BFC0935D5
:102DE000BC42ADB2E7D140460121FDF7F7FD0448F2
:102DF00009F05CFE04B0BDE8F04102B0704700BFCE
:102E0000009FFF1F30B52B4D0FCD8DB006AC0FC40A
:102E100095E8030044F8040B232021800AF0BEF853
:102E200040F6B833984212DC234B40F6F50219887D
:102E30009B78ADF8251090428DF827300EDC1F4BA3
:102E40001A889B78ADF829208DF82B301EE01C4B9A
:102E50001A889B78ADF825208DF82730194A00EBA9
:102E6000400000EB001382FB0320DB17C3EB602064
:102E70000DF074FD14490DF0C5FD0DF1290301227B
:102E800003210AF03DFA56238DF82C300F4B1048E1
:102E90001978104D104C114A114B04900192009377
:102EA00006A8039502940F4B0622FFF74FFF0DB0C3
:102EB00030BD00BFB0350100643501006835010048
:102EC000AC350100976A3E2BCDCCCC3D3289FF1F3B
:102ED0007C35010088350100943501009C350100E6
:102EE000A43501007035010030B50A4B0A4D197840
:102EF0000A4C0B480B4A0C4B87B00290019200938E
:102F000004950394094B0A480622FFF71FFF07B0F8
:102F100030BD00BF948DFF1FE4350100F035010086
:102F2000FC3501000836010014360100C8350100E7
:102F3000D435010010B586B0084C094809490A4A41
:102F40000A4B03900291019200930494084B0948A4
:102F50000622FF21FFF7FAFE06B010BD5035010032
:102F60003C36010048360100303501005036010082
:102F7000203601002C36010010B586B0084C0948F7
:102F800009490A4A0A4B0390029101920093049462
:102F9000084B09480622FF21FFF7D8FE06B010BDF6
:102FA00074360100803601008C3601009436010031
:102FB000443501005C3601006836010000B585B07B
:102FC00008480949094A0A4B03900291019200936B
:102FD0000848094B0522FF21FFF7B8FE05B05DF850
:102FE00004FB00BFA8360100B4360100BC36010066
:102FF000C43601008C360100A036010010B581B244
:103000002048214C09F002F902211E4809F0F8F885
:10301000212250211B4809F0EFF823880B2B4FF099
:10302000010218DC194917480CF0D0FA15480CF0C9
:10303000E1FA21225D21134809F0DEF821881148C8
:103040000C390029B8BF49420CF024FB0D48BDE8FB
:1030500010400CF0CFBA0E490A480CF0B7FA0948F4
:103060000CF0C8FA21225D21064809F0C5F8218834
:1030700004480C390CF00EFB0248BDE810400CF07F
:10308000B9BA00BF009FFF1FA49DFF1F603501005C
:103090005C35010070B5194C82B03426002301253F
:1030A00020460193009640230B223F2108F0E0FCCC
:1030B00040230B222046009601953F2108F05AFD3F
:1030C0002946204609F0A2F82946204609F098F83A
:1030D00020460F22442109F08FF809220849204692
:1030E0000CF074FA20460CF085FA2846FFF786FFAC
:1030F000204602B0BDE8704009F0D8BC009FFF1F19
:103100007035010010B581B22048214C09F07EF8DD
:1031100002211E4809F074F8212250211B4809F0B1
:103120006BF82388022B4FF0010218DC194917486D
:103130000CF04CFA15480CF05DFA21225D21134881
:1031400009F05AF82188114803390029B8BF4942CB
:103150000CF0A0FA0D48BDE810400CF04BBA0E4937
:103160000A480CF033FA09480CF044FA21225D2198
:10317000064809F041F82188044803390CF08AFA1E
:103180000248BDE810400CF035BA00BF009FFF1F99
:10319000B29EFF1F603501005C35010070B5194C0F
:1031A00082B0342600230125204601930096402357
:1031B0000B223F2108F05CFC40230B2220460096A6
:1031C00001953F2108F0D6FC2946204609F01EF85B
:1031D0002946204609F014F820460F224D2109F017
:1031E0000BF80622084920460CF0F0F920460CF0B6
:1031F00001FA2846FFF786FF204602B0BDE870407E
:1032000009F054BC009FFF1FA435010000B5324BEC
:103210001B78013B85B0052B0AD8DFE803F00C21B1
:10322000364B54032D492E4B5A20012208701A7038
:1032300005B05DF804FB01232A4A194618461370AD
:10324000FDF7CCFB284809F031FC284A284B1268CE
:103250000192019A1A60FFF71DFF05B05DF804FBAB
:103260000123244A194602201370FDF7B7FB1E48BC
:1032700009F01CFC1D4A1E4B12680292029A1A6049
:10328000FFF78CFF05B05DF804FB01231A4A1946CD
:1032900003201370FDF7A2FB134809F007FC134A43
:1032A000134B12680392039A1A60FFF73BFB05B0B9
:1032B0005DF804FB09490A4B0A20012208701A70C4
:1032C00005B05DF804FB0549054B5020012208704C
:1032D0001A7005B05DF804FB3289FF1F0C9EFF1FBA
:1032E000588CFF1FA69EFF1F009FFF1F3C9FFF1FC4
:1032F000389EFF1FAC9DFF1FED9DFF1F08B581B2DB
:103300000D4808F083FF02210B4808F079FF2122C5
:103310004F21094808F070FF084B1B884BB908493A
:10332000032205480CF052F90348BDE808400CF0B0
:1033300061B902220349F4E7009FFF1F129EFF1F9D
:103340003C350100CC36010070B5194C82B03426F2
:103350000023012520460193009640230B223F21A4
:1033600008F086FB40230B222046009601953F2162
:1033700008F000FC2946204608F048FF2946204670
:1033800008F03EFF20460F22442108F035FF0922B5
:10339000084920460CF01AF920460CF02BF9284673
:1033A000FFF7ACFF204602B0BDE8704009F07EBBDD
:1033B000009FFF1F5036010008B581B20D4808F08C
:1033C00025FF02210B4808F01BFF21224F2109484D
:1033D00008F012FF084B1B88032243B10749054838
:1033E0000CF0F4F80348BDE808400CF003B90449B8
:1033F000F5E700BF009FFF1FF69DFF1FD4360100B9
:10340000D036010070B5194C82B034260023012556
:1034100020460193009640230B223F2108F028FB11
:1034200040230B222046009601953F2108F0A2FB85
:103430002946204608F0EAFE2946204608F0E0FE2C
:1034400020460F22442108F0D7FE092208492046D1
:103450000CF0BCF820460CF0CDF82846FFF7ACFF86
:10346000204602B0BDE8704009F020BB009FFF1F5E
:10347000A836010000B53A4B1B78013B87B0042BFE
:1034800016D8DFE803F0182D425703000123354A10
:10349000194605201370FDF7A1FA334809F006FB21
:1034A000324A334B12680592059A1A60FFF7AAFF59
:1034B00007B05DF804FB01232E4A19461846137025
:1034C000FDF78CFA284809F0F1FA284A284B1268CF
:1034D0000192019A1A60FFF7EDFA07B05DF804FB5C
:1034E0000123254A194602201370FDF777FA1E487A
:1034F00009F0DCFA1D4A1E4B12680292029A1A6009
:10350000FFF768F907B05DF804FB01231B4A194671
:1035100003201370FDF762FA134809F0C7FA134A43
:10352000134B12680392039A1A60FFF7C3F907B0AE
:103530005DF804FB0123124A194604201370FDF7BD
:103540004DFA094809F0B2FA084A094B1268049288
:10355000049A1A60FFF776F907B05DF804FB00BF24
:10356000488AFF1FDD9EFF1F009FFF1F3C9FFF1F1C
:10357000389EFF1F2E9EFF1F009EFF1FDC9DFF1F1A
:10358000DC9EFF1F08B581B20D4808F03FFE022106
:103590000B4808F035FE21224F21094808F02CFE87
:1035A000084B1B88032243B9074905480CF00EF865
:1035B0000348BDE808400CF01DB80449F5E700BF1A
:1035C000009FFF1FC29DFF1FDC360100D83601009F
:1035D00070B5194C82B03426002301252046019392
:1035E000009640230B223F2108F042FA40230B2291
:1035F0002046009601953F2108F0BCFA2946204656
:1036000008F004FE2946204608F0FAFD20460F2265
:10361000442108F0F1FD0922084920460BF0D6FFAD
:1036200020460BF0E7FF2846FFF7ACFF204602B02C
:10363000BDE8704009F03ABA009FFF1FE036010074
:1036400000B5444B1B78013B87B0052B16D8DFE84B
:1036500003F0182D42576C0301233F4A19460620F8
:103660001370FDF7BBF93D4809F020FA3C4A3D4B89
:1036700012680592059A1A60FFF7AAFF07B05DF875
:1036800004FB0123384A194618461370FDF7A6F9C2
:10369000324809F00BFA324A324B12680092009A13
:1036A0001A60FFF75DF807B05DF804FB01232F4AAD
:1036B000194602201370FDF791F9284809F0F6F930
:1036C000274A284B12680192019A1A60FFF748F8BE
:1036D00007B05DF804FB254B0222012103201A707C
:1036E000FDF77CF91D4809F0E1F91D4A1D4B1268F0
:1036F0000292029A1A60FFF733F807B05DF804FBF4
:103700001A4B0322012104201A70FDF767F91348B0
:1037100009F0CCF9124A134B12680392039A1A600B
:10372000FFF71EF807B05DF804FB104B04220121DF
:1037300005201A70FDF752F9084809F0B7F9084A50
:10374000084B12680492049A1A60FFF709F807B050
:103750005DF804FB948DFF1F509EFF1F009FFF1F0D
:103760003C9FFF1F389EFF1F3D9EFF1FE09EFF1FD7
:1037700008B581B2154808F049FD0221134808F048
:103780003FFD4F212122114808F036FD104B1988CA
:1037900049B9104903220D480BF018FF0B48BDE84A
:1037A00008400BF027BF09480BF074FF07480BF0E7
:1037B00021FF28226921054808F01EFD0121034848
:1037C00008F01EFD02220449E5E700BF009FFF1F2D
:1037D000B89EFF1F3C350100EC36010070B5194C56
:1037E00082B0342600230125204601930096402311
:1037F0000B223F2108F03CF940230B222046009683
:1038000001953F2108F0B6F92946204608F0FEFC54
:103810002946204608F0F4FC20460F22452108F0F6
:10382000EBFC0922084920460BF0D0FE20460BF0A5
:10383000E1FE2846FFF79CFF204602B0BDE870403D
:1038400009F034B9009FFF1F3C36010008B581B272
:10385000154808F0DBFC0221134808F0D1FC4F2189
:103860002122114808F0C8FC104B198849B91049A9
:1038700003220D480BF0AAFE0B48BDE808400BF0F0
:10388000B9BE09480BF006FF07480BF0B3FE28222B
:103890006921054808F0B0FC0121034808F0B0FC9C
:1038A00002220449E5E700BF009FFF1FDA9EFF1FC9
:1038B0003C350100EC36010070B5194C82B034265D
:1038C0000023012520460193009640230B223F212F
:1038D00008F0CEF840230B222046009601953F21A8
:1038E00008F048F92946204608F090FC2946204671
:1038F00008F086FC20460F22472108F07DFC0822B4
:10390000084920460BF062FE20460BF073FE284665
:10391000FFF79CFF204602B0BDE8704009F0C6B832
:10392000009FFF1F8036010030B5544883B008F077
:103930001BFF0121514808F063FC01214F4808F0AA
:1039400065FC022219214D4808F056FC0B224C4917
:103950004A480BF03BFE49480BF04CFE1422002174
:10396000464808F049FC0322464944480BF02EFE25
:10397000424801240BF03EFE11228DE8140078230A
:1039800019213E4808F0A6F8132519231946009579
:1039900012223A48019408F09DF8782319460095C0
:1039A00012223648019408F095F81D228DE8140083
:1039B00078231921314808F08DF81C251923194660
:1039C00000951B222D48019408F084F878231946AD
:1039D00000951B222948019408F07CF8232200213D
:1039E000264808F009FC0322274924480BF0EEFD85
:1039F00022480BF0FFFD28251923194624221F48D1
:103A00000194009508F066F8782319462422019461
:103A100000951A4808F05EF81C4A1D4B11681B6897
:103A20001C4A5B1A5C2B12881DDC511A5C2202FBBB
:103A300001F292FBF3F31B33174A10481360012481
:103A40001BB21A2219468DE81400142208F042F81D
:103A5000124B20461C70FCF7D7FF084803B0BDE8A6
:103A6000304009F023B8521A02EB4202C2EB421274
:103A7000234492FBF3F31B33DEE700BF009FFF1FDD
:103A8000F0360100FC36010000370100F48DFF1F05
:103A9000408CFF1FF09EFF1F609DFF1F889EFF1F31
:103AA000F0B58548854E864D83B008F05DFE012156
:103AB000814808F0A5FB01217F4808F0A7FB0222FE
:103AC00019217D4808F098FB0A227E497A480BF0BC
:103AD0007DFD79480BF08EFD14220021764808F018
:103AE0008BFB0322784974480BF070FD7248012467
:103AF0000BF080FD11228DE81400782319216E4807
:103B000007F0E8FF132719231946009712226A4885
:103B1000019407F0DFFF78231946009712226648C8
:103B2000019407F0D7FF1D228DE814007823192196
:103B3000614807F0CFFF1C271923194600971B2265
:103B40005D48019407F0C6FF7823194600971B22B1
:103B50005948019407F0BEFF23220021564808F07F
:103B60004BFB0322594954480BF030FD52480BF0EF
:103B700041FD282719231946009724224E48019415
:103B800007F0A8FF78231946009724224A48019499
:103B900007F0A0FF32220021474808F02DFB032246
:103BA0004B4945480BF012FD43480BF023FD2F22F3
:103BB0008DE81400782319213F4807F08BFF312747
:103BC00019231946009730223B48019407F082FFE1
:103BD00078231946009730223748019407F07AFF7E
:103BE0003C228DE8140078231921334807F072FF36
:103BF0003B27192319463A222F480194009707F0D2
:103C000069FF782319463A22019400972A4807F061
:103C100061FF31682B682F4A5B1A5C2B128839DDF3
:103C2000521A02EB4202C2EB4212234492FBF3F31C
:103C30001B33294A2048136001241BB21A2219465B
:103C40008DE81400142207F045FF31682B682348E3
:103C5000234A04705B1A5C2B128823DC511A5C2205
:103C600002FB01F292FBF3F31B331E4A124813606E
:103C700001241BB2392219468DE81400322207F0C4
:103C800029FF2046FCF7C0FE0B4803B0BDE8F0401A
:103C900008F00CBF511A5C2202FB01F292FBF3F315
:103CA0001B33C6E7521A02EB4202C2EB4212234414
:103CB00092FBF3F31B33D8E7009FFF1FE88DFF1F34
:103CC0003C8BFF1F04370100FC3601000037010068
:103CD000103701002C9EFF1F609DFF1F889EFF1F55
:103CE000B49DFF1FA89EFF1FF0B58548854E864DE9
:103CF00083B008F039FD0121814808F081FA0121E3
:103D00007F4808F083FA022219217D4808F074FAEE
:103D10000A227E497A480BF059FC79480BF06AFC7C
:103D200014220021764808F067FA03227849744883
:103D30000BF04CFC724801240BF05CFC11228DE866
:103D40001400782319216E4807F0C4FE13271923A5
:103D50001946009712226A48019407F0BBFE7823A7
:103D60001946009712226648019407F0B3FE1D22FF
:103D70008DE8140078231921614807F0ABFE1C2759
:103D80001923194600971B225D48019407F0A2FEF3
:103D90007823194600971B225948019407F09AFE90
:103DA00023220021564808F027FA03225949544893
:103DB0000BF00CFC52480BF01DFC28271923194668
:103DC000009724224E48019407F084FE7823194678
:103DD000009724224A48019407F07CFE32220021F9
:103DE000474808F009FA03224B4945480BF0EEFB1F
:103DF00043480BF0FFFB2F228DE814007823192194
:103E00003F4807F067FE31271923194600973022F3
:103E10003B48019407F05EFE782319460097302254
:103E20003748019407F056FE3C228DE814007823B1
:103E30001921334807F04EFE3B27192319463A2231
:103E40002F480194009707F045FE782319463A223F
:103E5000019400972A4807F03DFE31682B682F4AED
:103E60005B1A5C2B128839DD521A02EB4202C2EB5C
:103E70004212234492FBF3F31B33294A2048136078
:103E800001241BB21A2219468DE81400142207F0EF
:103E900021FE31682B682348234A04705B1A5C2B8F
:103EA000128823DC511A5C2202FB01F292FBF3F32D
:103EB0001B331E4A1248136001241BB239221946D3
:103EC0008DE81400322207F005FE2046FCF79CFD29
:103ED0000B4803B0BDE8F04008F0E8BD511A5C2281
:103EE00002FB01F292FBF3F31B33C6E7521A02EB1B
:103EF0004202C2EB4212234492FBF3F31B33D8E796
:103F0000009FFF1F688AFF1FE48DFF1F1437010009
:103F1000FC3601000037010010370100E49DFF1F4F
:103F2000609DFF1F889EFF1FC89EFF1FA89EFF1F4A
:103F3000F0B58548854E864D83B008F015FC01210B
:103F4000814808F05DF901217F4808F05FF90222FD
:103F500019217D4808F050F910227E497A480BF06B
:103F600035FB79480BF046FB14220021764808F017
:103F700043F90322784974480BF028FB7248012466
:103F80000BF038FB11228DE81400782319216E48BC
:103F900007F0A0FD132719231946009712226A483B
:103FA000019407F097FD782319460097122266487E
:103FB000019407F08FFD1D228DE81400782319214C
:103FC000614807F087FD1C271923194600971B221B
:103FD0005D48019407F07EFD7823194600971B2267
:103FE0005948019407F076FD23220021564808F035
:103FF00003F90322594954480BF0E8FA52480BF0F0
:10400000F9FA282719231946009724224E480194CB
:1040100007F060FD78231946009724224A4801944E
:1040200007F058FD32220021474808F0E5F8032246
:104030004B4945480BF0CAFA43480BF0DBFA2F22F4
:104040008DE81400782319213F4807F043FD3127FC
:1040500019231946009730223B48019407F03AFD96
:1040600078231946009730223748019407F032FD33
:104070003C228DE8140078231921334807F02AFDEB
:104080003B27192319463A222F480194009707F03D
:1040900021FD782319463A22019400972A4807F017
:1040A00019FD31682B682F4A5B1A5C2B128839DDA9
:1040B000521A02EB4202C2EB4212234492FBF3F388
:1040C0001B33294A2048136001241BB21A221946C7
:1040D0008DE81400142207F0FDFC31682B6823489A
:1040E000234A04705B1A5C2B128823DC511A5C2271
:1040F00002FB01F292FBF3F31B331E4A12481360DA
:1041000001241BB2392219468DE81400322207F02F
:10411000E1FC2046FCF778FC0B4803B0BDE8F0401A
:1041200008F0C4BC511A5C2202FB01F292FBF3F3CB
:104130001B33C6E7521A02EB4202C2EB421223447F
:1041400092FBF3F31B33D8E7009FFF1FFC8DFF1F8B
:104150005C8AFF1F20370100FC3601000037010098
:10416000103701008E9DFF1F609DFF1F889EFF1F5F
:10417000469EFF1FA89EFF1FF0B58548854E864DC1
:1041800083B008F0F1FA0121814808F039F80121E3
:104190007F4808F03BF8022219217D4808F02CF8EE
:1041A00006227E497A480BF011FA79480BF022FA80
:1041B00014220021764808F01FF803227849744839
:1041C0000BF004FA724801240BF014FA11228DE866
:1041D0001400782319216E4807F07CFC132719235B
:1041E0001946009712226A48019407F073FC78235D
:1041F0001946009712226648019407F06BFC1D22B5
:104200008DE8140078231921614807F063FC1C270E
:104210001923194600971B225D48019407F05AFCA8
:104220007823194600971B225948019407F052FC45
:1042300023220021564807F0DFFF03225949544842
:104240000BF0C4F952480BF0D5F928271923194669
:10425000009724224E48019407F03CFC782319462D
:10426000009724224A48019407F034FC32220021AE
:10427000474807F0C1FF03224B4945480BF0A6F918
:1042800043480BF0B7F92F228DE814007823192149
:104290003F4807F01FFC31271923194600973022A9
:1042A0003B48019407F016FC78231946009730220A
:1042B0003748019407F00EFC3C228DE81400782367
:1042C0001921334807F006FC3B27192319463A22E7
:1042D0002F480194009707F0FDFB782319463A22F6
:1042E000019400972A4807F0F5FB31682B682F4AA4
:1042F0005B1A5C2B128839DD521A02EB4202C2EBC8
:104300004212234492FBF3F31B33294A20481360E3
:1043100001241BB21A2219468DE81400142207F05A
:10432000D9FB31682B682348234A04705B1A5C2B45
:10433000128823DC511A5C2202FB01F292FBF3F398
:104340001B331E4A1248136001241BB2392219463E
:104350008DE81400322207F0BDFB2046FCF754FB29
:104360000B4803B0BDE8F04008F0A0BB511A5C2236
:1043700002FB01F292FBF3F31B33C6E7521A02EB86
:104380004202C2EB4212234492FBF3F31B33D8E701
:10439000009FFF1F309EFF1F588AFF1F3437010008
:1043A000FC3601000037010010370100169EFF1F88
:1043B000609DFF1F889EFF1FE89EFF1FA89EFF1F96
:1043C00010B581B219481A4C07F020FF0221174896
:1043D00007F016FF4F212122144807F00DFF218816
:1043E0000B2910D90C2917D0012212490F480BF0C4
:1043F000EDF821880D480C390BF04CF90B48BDE85D
:1044000010400BF0F7B80C3908480BF043F9074897
:10441000BDE810400BF0EEB80322074903480BF04B
:10442000D5F80248BDE810400BF0E4B8009FFF1F2C
:10443000CA9EFF1F5C3501003C37010070B5194C66
:1044400082B03426002301252046019300964023A4
:104450000B223F2107F00CFB40230B222046009645
:1044600001953F2107F086FB2946204607F0CEFE46
:104470002946204607F0C4FE20460F22442107F0BB
:10448000BBFE0922084920460BF0A0F820460BF09D
:10449000B1F82846FFF794FF204602B0BDE870400F
:1044A00008F004BB009FFF1F7436010008B581B2FD
:1044B0000F4807F0ABFE02210D4807F0A1FE2122B4
:1044C0004F210B4807F098FE0A4B1A88012A0CD09E
:1044D000022A0EBF08490949032205480BF076F865
:1044E0000348BDE808400BF085B802220449F4E710
:1044F000009FFF1F209EFF1F403701003C35010039
:10450000CC36010070B5194C82B034260023012549
:1045100020460193009640230B223F2107F0A8FA82
:1045200040230B222046009601953F2107F022FBF5
:104530002946204607F06AFE2946204607F060FE1D
:1045400020460F22472107F057FE0822084920463F
:104550000BF03CF820460BF04DF82846FFF7A6FF7D
:10456000204602B0BDE8704008F0A0BA009FFF1FCF
:104570005C36010008B581B2224807F047FE0221EF
:10458000204807F03DFE21224F211E4807F034FE4F
:104590001D4B1B88042B33D8DFE803F0121A222AA4
:1045A000030021225321174807F026FE1749022253
:1045B00014480BF00BF81348BDE808400BF01AB88C
:1045C00021224F210F4807F017FE03221049EFE781
:1045D000212253210B4807F00FFE02220D49E7E785
:1045E00021225321074807F007FE02220A49DFE78C
:1045F00021225321034807F0FFFD02220749D7E794
:1046000008BD00BF009FFF1FC49DFF1F5037010062
:104610003C35010044370100483701004C370100A8
:1046200070B5194C82B03426002301252046019331
:10463000009640230B223F2107F01AFA40230B2259
:104640002046009601953F2107F094FA294620461E
:1046500007F0DCFD2946204607F0D2FD20460F2258
:10466000442107F0C9FD0922084920460AF0AEFF9F
:1046700020460AF0BFFF2846FFF77CFF204602B025
:10468000BDE8704008F012BA009FFF1F9436010089
:1046900000B53E4B1B78013B87B0052B16D8DFE8F1
:1046A00003F0182D425760030123394A19460620AA
:1046B0001370FCF793F9374808F0F8F9364A374B8E
:1046C00012680592059A1A60FFF7B8FE07B05DF808
:1046D00004FB0123324A194618461370FCF77EF991
:1046E0002C4808F0E3F92C4A2C4B12680192019AED
:1046F0001A60FFF707FF07B05DF804FB0123294AA2
:10470000194602201370FCF769F9224808F0CEF927
:10471000214A224B12680292029A1A60FEF73CFA72
:1047200007B05DF804FB01231F4A194603201370EC
:10473000FCF754F9174808F0B9F9174A174B1268F3
:104740000392039A1A60FFF76BFF07B05DF804FB52
:104750001649174B6E20012208701A7007B05DF8D9
:1047600004FB0123134A194605201370FCF736F9A0
:10477000084808F09BF9084A084B12680492049A0A
:104780001A60FFF799F807B05DF804FB548AFF1F21
:10479000969DFF1F009FFF1F3C9FFF1F389EFF1F1E
:1047A000449EFF1F589DFF1F649DFF1F0C9EFF1F0F
:1047B000588CFF1FC19DFF1F10B5334C334807F0C5
:1047C000D3FF237803BB01213048314C07F01EFD95
:1047D00006212E4807F014FD2388092B4ED9632BA0
:1047E0004FF00A0294BF1F211146284807F004FD2C
:1047F000218826480AF04EFF24480AF0FBFE234891
:10480000BDE8104008F052B9FCF7E4FF2378012B13
:10481000D9D9022B4FF001011C4817D007F0F6FC44
:1048200006211A4807F0ECFC0A221146174807F047
:10483000E3FC0322174915480AF0C8FE13480AF0A2
:10484000D9FE1248BDE8104008F030B907F0DEFC90
:1048500006210E4807F0D4FC0A2211460B4807F047
:10486000CBFC03220C4909480AF0B0FE07480AF0C5
:10487000C1FE0648BDE8104008F018B90A223021F0
:10488000024807F0B9FCB3E7669DFF1F009FFF1FBA
:10489000649EFF1F583701005437010008B581B2EC
:1048A000394807F0B3FC0221374807F0A9FC374B21
:1048B0001B884BB1013B092B65D8DFE803F01C24B2
:1048C0002C343C444C545C1421224F212E4807F0D8
:1048D00093FC2F4903222C480AF078FE2A48BDE8B1
:1048E00008400AF087BE21225321274807F084FCA4
:1048F00002222849EFE721225321234807F07CFCBC
:1049000002222549E7E7212253211F4807F074FCC2
:1049100002222249DFE7212253211B4807F06CFCC9
:1049200002221F49D7E721225321174807F064FCD0
:1049300002221C49CFE721224F21134807F05CFCDB
:1049400003221949C7E721224F210F4807F054FCE1
:1049500003221649BFE721224F210B4807F04CFCE8
:1049600003221349B7E721224F21074807F044FCEF
:1049700003221049AFE721225321034807F03CFCF2
:1049800002220D49A7E708BD009FFF1F909EFF1F51
:104990003C35010078370100443701005C370100E5
:1049A0006037010064370100683701006C3701008F
:1049B00070370100743701004C37010070B5194C95
:1049C00082B034260023012520460193009640231F
:1049D0000B223F2107F04CF840230B222046009683
:1049E00001953F2107F0C6F82946204607F00EFC46
:1049F0002946204607F004FC20460F22442107F0F8
:104A0000FBFB0922084920460AF0E0FD20460AF097
:104A1000F1FD2846FFF742FF204602B0BDE8704096
:104A200008F044B8009FFF1F2036010008B581B28E
:104A3000414807F0EBFB02213F4807F0E1FB3F4B09
:104A40001B880C2B77D8DFE803F0161E262E363E87
:104A5000464E565E666E070021225321364807F007
:104A6000CBFB3749022234480AF0B0FD3248BDE89A
:104A700008400AF0BFBD212253212F4807F0BCFB9C
:104A800002223049EFE7212253212B4807F0B4FBE3
:104A900002222D49E7E721225321274807F0ACFBEA
:104AA00002222A49DFE721225321234807F0A4FBF1
:104AB00002222749D7E721224F211F4807F09CFBFC
:104AC00003222449CFE7212253211B4807F094FBFE
:104AD00002222149C7E721225321174807F08CFB06
:104AE00002221E49BFE721225321134807F084FB0D
:104AF00002221B49B7E7212253210F4807F07CFB14
:104B000002221849AFE7212253210B4807F074FB1A
:104B100002221549A7E721225321074807F06CFB21
:104B2000022212499FE721225321034807F064FB28
:104B300002220F4997E708BD009FFF1F989EFF1FA5
:104B4000AC3701007C370100803701008437010059
:104B5000883701008C37010090370100943701003D
:104B6000983701009C370100A0370100A4370100ED
:104B7000A837010070B5194C82B0342600230125F6
:104B800020460193009640230B223F2106F070FF40
:104B900040230B222046009601953F2106F0EAFFB4
:104BA0002946204607F032FB2946204607F028FB1D
:104BB00020460F22502107F01FFB052208492046FE
:104BC0000AF004FD20460AF015FD2846FFF72EFFE7
:104BD000204602B0BDE8704007F068BF009FFF1F8D
:104BE0004836010000B5444B1B78013B87B0052BCC
:104BF00016D8DFE803F0182D42576C0301233F4A13
:104C0000194606201370FBF7E9FE3D4807F04EFFFA
:104C10003C4A3D4B12680592059A1A60FEF722F84D
:104C200007B05DF804FB0123384A19461846137093
:104C3000FBF7D4FE324807F039FF324A324B126894
:104C40000092009A1A60FFF7B9FE07B05DF804FB06
:104C500001232F4A194602201370FBF7BFFE284894
:104C600007F024FF274A284B12680192019A1A6024
:104C7000FEF76AFB07B05DF804FB0123254A1946DD
:104C800003201370FBF7AAFE1D4807F00FFF1D4A13
:104C90001D4B12680292029A1A60FDF7A5FE07B03A
:104CA0005DF804FB01231C4A194604201370FBF72E
:104CB00095FE134807F0FAFE124A134B126803924E
:104CC000039A1A60FFF756FF07B05DF804FB012353
:104CD000124A194605201370FBF780FE084807F0BA
:104CE000E5FE084A084B12680492049A1A60FEF71F
:104CF00075FD07B05DF804FB648AFF1FEC9DFF1F84
:104D0000009FFF1F3C9FFF1F389EFF1F5A9DFF1FE4
:104D1000D09EFF1F8C9DFF1F2B9FFF1FB69DFF1F67
:104D20002DE9F0430320ADF5257D08F069FFB0FAC9
:104D300080F4042008F064FF002814BF0021022141
:104D4000640905200C4408F05BFF002814BF002113
:104D5000042106200C4408F053FF9E4D9E4E2B6804
:104D6000002814BF0021082121449942316000F03D
:104D70002D819A4C9A4B22680492049A1A602368F7
:104D800005939848059B0068944F9B1A834220D94D
:104D9000954B1A68914216D03A680792934ADDF80B
:104DA0001CE093481960C2F800E00AF073FC9048D8
:104DB0000AF020FC3B6806938E4A8F4B06981060E1
:104DC000316801221A70012900F0E180042900F005
:104DD000DE808A4F29603D78002D00F0CD80236869
:104DE00082490B93864A0B9B096812687B485B1AC1
:104DF00093423FD9834E84488449854A854D864CE9
:104E0000DFF864C2DFF864E201233370002303702B
:104E10000B70137081488249824A2B702370037093
:104E20000B701370804D814C81488249824A2B70EF
:104E3000237003700B701370804D814C8148824940
:104E4000824A8CF800303B708EF800302B70237053
:104E500003700B701370AE217D48674C07F08CFC1B
:104E6000002333702378002B40F004810DF5257D5D
:104E7000BDE8F083022D00F03381012D00F0E681C2
:104E8000642D00F089810A2D00F02A820B2D01F09B
:104E90003B800C2D01F04781142D01F05482152D1B
:104EA00000F0B883162D01F0B7841E2D01F0BE86E8
:104EB0001F2D01F06487202D02F07480282D02F050
:104EC000D181292D02F078822A2D02F085833C2D94
:104ED00002F073843D2D02F02185502D02F08C8666
:104EE0005A2D02F0D3866E2DC0D1464E3378002B5A
:104EF00043F078804A4D2A78002A02F076872368AA
:104F0000DFF86C818E93534A8E9BD8F8001012689C
:104F10005B1A934211D9504B1A78012A0CBF002218
:104F200001221A701878FDF797FD494807F0BEFD79
:104F300023688F938F9BC8F800302F4A1378002B7B
:104F400094D0294B1B680021013B1170072B8DD891
:104F500001A252F823F000BF35950000079500002C
:104F60006D4E0000D19400006D4E00006D4E0000AB
:104F70006D4E0000A3940000224E3378002B7FF486
:104F80006AAF1D4C2378002B3FF470AF72E02368AA
:104F90001848324A08930668089B10680F4A9B1B02
:104FA00083427FF616AF13682D4809932D4E099B57
:104FB00007683668DB1BB3427FF60BAF13680A93B2
:104FC0000A9A0D4B026001221A7002E7044B034C4F
:104FD0001A68D4E6249EFF1FEC9EFF1F3C9FFF1F14
:104FE000949EFF1F608CFF1F8C9EFF1F909DFF1FD4
:104FF0001094FF1F089EFF1FF49DFF1F0C9EFF1FB4
:10500000F08DFF1F588CFF1F5A9DFF1FD09EFF1F62
:105010008C9DFF1F449EFF1F589DFF1F649DFF1F17
:105020002E9EFF1FC19DFF1F969DFF1FB69DFF1F58
:10503000EC9DFF1F3D9EFF1FE09EFF1F509EFF1F28
:10504000009EFF1FDC9DFF1FDC9EFF1FDD9EFF1FDC
:10505000009FFF1F908DFF1F889EFF1F508AFF1F1C
:10506000889DFF1FB48CFF1FA69EFF1FED9DFF1F95
:10507000389EFF1F00232370FBF782FBB94ABA4B0F
:10508000BA49BB4812781B780968007802EB4303E1
:105090004A1E03EB80030E2A3FF6E8AE01A151F849
:1050A00022F000BF4F550000675500006D4E000014
:1050B000175500006D4E00006D4E00006D4E000053
:1050C000DD5400006D4E00006D4E00006D4E00007E
:1050D0006D4E00006D4E00006D4E0000D954000072
:1050E000A44E3378002B40F00287A34D2A68236832
:1050F0000D93A2490D9B09689B1A8B4211D9A048B8
:10510000A04901220023027026200B703B703270F0
:10511000FBF700FD9C4B1988884202D02620FBF744
:10512000EDFC9A4B1A78002A3FF4A0AE00221A70C8
:10513000FBF726FB8B4A8C4B8C498D4812781B78E9
:105140000968007802EB43034A1E03EB80030E2A32
:105150003FF68CAE01A151F822F000BF9557000038
:10516000655700006D4E00001F5700006D4E000097
:105170006D4E00006D4E0000F95600006D4E0000AF
:10518000DB5700006D4E00006D4E00006D4E0000BC
:105190006D4E0000D9540000764E3378002B41F05C
:1051A000CC807B4D2B78002B40F05081DFF8F891BC
:1051B00099F80050002D01F05D812368DFF8EC8143
:1051C0002493744AD8F80010249B12685B1A934207
:1051D000714A117800D8C1B1704B1878012802F0DB
:1051E000D78001201870002941F0D68618786C4BC2
:1051F000013D53F82510FDF76DFD6A4807F056FC98
:1052000023682593259BC8F80030604A1378002B4B
:105210003FF42CAE554B1B680021013B1170072B4E
:105220003FF624AE01A252F823F000BF635C0000F9
:10523000235C00006D4E0000D95B00006D4E000045
:105240006D4E00006D4E00008B5B0000494E3378C0
:10525000002B40F06287DFF8589199F80000002891
:1052600000F0A8802368DFF844811293494A129B1A
:10527000D8F8001012685B1A934210D9474B1A787D
:10528000012A0CBF002001201870FDF7B7FE454829
:1052900007F00CFC23681393139BC8F800303B4ABB
:1052A0001378002B3FF4E2AD304B1B680021013B2B
:1052B0001170072B3FF6DAAD01A252F823F000BFC0
:1052C00079590000495900006D4E00001359000043
:1052D0006D4E00006D4E00006D4E0000E358000062
:1052E000244E3378002B40F08D812368DFF8BC809A
:1052F0002E93284A2E9BD8F8001012685B1A93420E
:1053000010D9264B1A78012A0CBF002001201870F2
:10531000FBF77AFB234807F0C9FB23682F932F9BE9
:10532000C8F80030194A1378002B3FF49FAD0F4B9B
:105330001B680021013B1170072B3FF697AD01A2BE
:1053400052F823F0AD580000A55800006D4E000043
:105350006F5800006D4E00006D4E00006D4E000055
:105360003B580000D19EFF1F2C9FFF1F8C9EFF1FEC
:105370002D9FFF1F588CFF1FA89DFF1FEC8DFF1F47
:10538000959DFF1F669DFF1F649EFF1FF49DFF1FDD
:105390003D9EFF1F908DFF1FF89EFF1F889EFF1FE1
:1053A000448CFF1F009FFF1FE09EFF1F389EFF1FC2
:1053B000A69EFF1FDFF8349399F80030002B40F0D1
:1053C000E580DFF82C9399F80020002A01F0508145
:1053D0002268DFF820831A92B1491A9AD8F800009F
:1053E0000968121A8A4211D9AE4A117801290BBFF5
:1053F0001846012013701070FCF79AFDAA4807F0B8
:1054000055FB23681B931B9BC8F80030A74A1378F1
:10541000002B3FF42BADA64B1B680021013B117004
:10542000072B3FF623AD01A252F823F0835E000064
:10543000475E00006D4E0000B95E00006D4E00003A
:105440006D4E00006D4E0000175E00002368DFF80F
:10545000A4822093924AD8F80010209B12685B1A0D
:105460009342944A117800D8B1B18E4B1878012834
:1054700001F08E8501201870002941F0AB83187867
:105480008D4B1968FDF726FC874807F00FFB236852
:105490002193219BC8F80030844A1378002B3FF4F5
:1054A000E5AC834B1B680021013B1170072B3FF6D5
:1054B000DDAC01A252F823F0855A0000515A0000D9
:1054C0006D4E0000195A00006D4E00006D4E000038
:1054D0006D4E0000AF59000008F0B8FE774B7849D8
:1054E0001C78784B784A09881B8812680B44002C7A
:1054F00001F08C80B2EB630F81F28A86734B1B78CC
:10550000002B01F03284AF21674807F035F9012301
:105510003B703370AAE4002B01F0A680013B6C4A7B
:1055200032F813304BB16B4D6B486C496C4A2B8091
:105530000123002505700B701370AF215A4807F046
:105540001BF9012302223A70237033708EE463B991
:1055500001232370AF21544807F00EF902220123E2
:105560003A70337082E4002BF4D0013B584A32F891
:105570001330002BEED0574C57485849584A2380D7
:105580000123002404700B701370E3E72368DFF835
:1055900064811693424A169BD8F8001012685B1A71
:1055A00093420FD93F4B1A78012A18BF0120187077
:1055B000FDF7A8FD3C4807F079FA23681793179B7D
:1055C000C8F80030394A1378002B3FF44FAC384B01
:1055D0001B680021013B1170072B3FF647AC01A26D
:1055E00052F823F0555B0000255B00006D4E000073
:1055F000EF5A00006D4E00006D4E00006D4E000031
:10560000BF5A0000FEF7B8FD364A01210023117091
:1056100033706AE62368DFF8DC803A93204A3A9BCD
:10562000D8F8001012685B1A934219D91D4A1E4817
:105630001378012B0CBF0023012313702A4A019316
:10564000B2F900301A2219460092142206F042FAEA
:10565000154807F02BFA23683B933B9BC8F80030B2
:10566000124A1378002B3FF401AC114B1B68002148
:10567000013B1170072B3FF6F9AB01A252F823F062
:10568000975D0000715D00006D4E0000F15C000050
:105690006D4E00006D4E00006D4E0000AF5C0000CE
:1056A000908DFF1F889EFF1F009FFF1FF49DFF1F0F
:1056B0008C9EFF1FF89EFF1F048BFF1F949DFF1FF2
:1056C0008E9DFF1F469EFF1FBC9DFF1FB79DFF1FA6
:1056D000709DFF1F649EFF1FEE9DFF1F959DFF1F86
:1056E000669DFF1F679DFF1F609DFF1FAC9DFF1FF5
:1056F000ED9DFF1F389EFF1FBA4C2378012B41F20E
:1057000053862620FBF706FAB74B1988884202D049
:105710002620FBF7F3F900232370FFF7A7BB002B2C
:1057200001F04185013BB14A32F8136096B1AE4BAE
:10573000AF48B049AB4A1E800027012307702620DE
:105740000B701370FBF7E6F9864203D03146262032
:10575000FBF7D4F9FFF730F823681093109B2B6008
:10576000FFF784BB83B1013BA04A32F813305BB131
:105770009D4E9F489F499B4A338001230026067017
:105780000B701370FFF718F823680F930F9B2B60B3
:10579000FFF76CBB002B01F0F484013B934A32F815
:1057A000136096B1904B924892498E4A1E80002712
:1057B0000123077026200B701370FBF7ABF98642AC
:1057C00003D031462620FBF799F9FEF7F5FF236851
:1057D0000E930E9B2B60FFF749BBFBF74BFD8648F2
:1057E00006F0C2FF0121844806F010FD0221824824
:1057F00006F006FD0F2223217F4806F0FDFC05225E
:105800007E497D4809F0E2FE7B4809F0F3FE1E2246
:105810002321794806F0F0FC05227949764809F001
:10582000D5FE754809F0E6FE734807F03FF9236896
:105830001193119B2B60FFF719BB012302203B70D2
:105840003370FBF767F96F4B1988884202D002204A
:10585000FBF754F90420FBF75DF96B4B198888427C
:105860003FF404AB0420FBF749F9FFF7FFBA01232B
:105870003C22022033703A70FBF74CF9614B1988D7
:10588000884202D00220FBF739F90420FBF742F9E5
:105890005D4B198888423FF4E9AA0420FBF72EF9F2
:1058A000FFF7E4BA0B233B70FFF7E0BA01231422A1
:1058B000022033703A70FBF72DF9524B1988884259
:1058C00002D00220FBF71AF90420FBF723F94E4B14
:1058D000198888423FF4CAAA0420FBF70FF9FFF7A2
:1058E000C5BA0120FDF78AFB484B434800241C70D1
:1058F00007F0DCF80E2089F80040FBF70BF9444B69
:10590000198888423FF4B2AA0E20FBF7F7F8FFF798
:10591000ADBA3F4D2B88172B3FF6A8AA0020FDF704
:105920006DFB2B88012003442B80FDF767FB374B71
:10593000314800221A7007F0B9F823681593159BB7
:10594000C8F80030FFF792BA0120FDF757FB2F4B44
:10595000294800241C7007F0A9F80E2089F800409F
:10596000FBF7D8F82A4B198888423FF47FAA0E200B
:10597000FBF7C4F8FFF77ABA254D2B88002B3FF4CC
:1059800075AA0020FDF73AFB2B880120013B2B80F4
:10599000FDF734FB1D4B184800221A7007F086F8FB
:1059A00023681493149BC8F80030FFF75FBA194CB2
:1059B00001202168FDF78EF9144B0F4800261E7058
:1059C00007F074F844202E70FBF7A4F82168183112
:1059D00088423FF44BAA89B24420FBF78FF8FFF7C7
:1059E00045BA00BF669DFF1F649EFF1F709DFF1F8D
:1059F000EE9DFF1F959DFF1F009FFF1FB037010009
:105A0000B8370100169EFF1FE89EFF1F889EFF1FEC
:105A1000A49DFF1F048BFF1FAE4D296817293FF778
:105A200025AA0020FDF756F92B68013319460120FD
:105A30002B60FDF74FF9A84BA84800221A7007F019
:105A400035F823682393239BC8F80030FFF70EBA7C
:105A5000A04C01202168FDF73DF99F4B9F4800268F
:105A60001E7007F023F844202E70FBF753F82168CE
:105A7000183188423FF4FAA989B24420FBF73EF876
:105A8000FFF7F4B9934D296811F1170FFFF6EEA94E
:105A90000020FDF71FF92B68013B194601202B6000
:105AA000FDF718F98C4B8D4800221A7006F0FEFFA6
:105AB00023682293229BC8F80030FFF7D7B9012052
:105AC000FDF720FB844B854800241C7006F0EEFF98
:105AD000282089F80040FBF71DF8814B198888427F
